:100000006F30E03C130000001300000013000000FC
:100010001300000013000000130000001300000094
:100020001300000013000000130000001300000084
:08003000130000007300100032
:100038000000000000000000FE0D0000000E00009F
:10004800000000006633000000000000000000000F
:10005800683300006A330000000000000000000060
:10006800005F000000000000000200000000000027
:10007800703300007233000074330000D65500005E
:10008800783300007A3300007C3300007E330000B0
:10009800803300008233000084330000E04B00000E
:1000A800883300002E4C00007C4C0000CA4C000035
:1000B80090330000184D00009433000008490000F8
:1000C80068490000C6490000244A00009E33000029
:1000D800A0330000A2330000A4330000A6330000C0
:1000E800A8330000AA3300007857000050540000DD
:1000F8009C540000B2330000B4330000B633000053
:10010800B8330000BA330000BC330000BE3300002F
:10011800C0330000C2330000C4330000C6330000FF
:10012800C8330000CA330000CC33000000000000D0
:080138000000000000000000BF
:10020000130181F806C216C41AC61EC822CA26CC1B
:100210002ACE2ED032D236D43AD63ED842DA46DC76
:100220004ADECEC0D2C2D6C4DAC6DEC8E2CAE6CC46
:10023000EACEEED0F2D2F6D4FAD6FED8F3220030CF
:1002400096DA83A2C19023A02200F32510342EC099
:1002500003A18186EF60307B03A3C19003210300DB
:10026000824273901234D652739002309240A2426E
:100270003243C2435244E244724582551256A2565A
:100280003257C2575258E25872598649164AA64AFE
:10029000364BC64B564CE64C764D865D165EA65EDA
:1002A000365FC65F13018107730020301300000022
:1002B00013000000130000001300000013000000F2
:1002C00013000000130000001300000013000000E2
:1002D00013000000130000001300000013000000D2
:1002E00013000000130000001300000013000000C2
:1002F00013000000130000001300000013000000B2
:1003000083A28186938202E07390023403A1C1909C
:10031000024182403243C2435244E2447245825514
:100320001256A2563257C2575258E258725986494D
:10033000164AA64A364BC64B564CE64C764D865D61
:10034000165EA65E365FC65FD652A102739002307B
:10035000A2421301810782801300000013000000F5
:100360001300000013000000130000001300000041
:100370001300000013000000130000001300000031
:100380001300000013000000130000001300000021
:100390001300000013000000130000001300000011
:1003A0001300000013000000130000001300000001
:1003B00013000000130000001300000013000000F1
:1003C00013000000130000001300000013000000E1
:1003D00013000000130000001300000013000000D1
:1003E00013000000130000001300000013000000C1
:1003F00013000000130000001300000013000000B1
:10040000F322003093F272FF130380181203B3E259
:100410006200711523205500130585FA10C12115BE
:10042000232005009302000063870200711523203A
:100430000500FD12D5BF71150CC1828000000000BF
:1004400000000000000000000000000000000000AC
:10045000000000000000000000000000000000009C
:10046000000000000000000000000000000000008C
:10047000000000000000000000000000000000007C
:10048000000000000000000000000000000000006C
:10049000000000000000000000000000000000005C
:1004A000000000000000000000000000000000004C
:1004B000000000000000000000000000000000003C
:1004C000000000000000000000000000000000002C
:1004D000000000000000000000000000000000001C
:1004E0000000000000000000000000000000397162
:1004F00001436EC619A0397141536AC866CA62CCFD
:100500005ECE19A0397101535AD056D252D44ED66C
:100510004AD826DA22DC06DE3301614082824111AC
:100520004AC026C222C406C68282B24D4101024D93
:10053000924C224CB24B4101024B924A224AB249A0
:100540004101024992442244B240410182803D432C
:100550002A876373C3029377F700BDEFADE5937607
:1005600006FF3D8ABA960CC34CC30CC74CC7410763
:10057000E36BD7FE11E28280B306C3408A0697027E
:10058000000096966780A6002307B700A306B70071
:100590002306B700A305B7002305B700A304B700DF
:1005A0002304B700A303B7002303B700A302B700D7
:1005B0002302B700A301B7002301B700A300B700CF
:1005C0002300B700828093F5F50F93968500D58DB3
:1005D00093960501D58D61B7939627009702000089
:1005E00096968682E78086FA9680C1171D8F3E9682
:1005F000E374C3F8A5B7370500201305C5628280F0
:1006000037050020130585628280B707002023A8E4
:10061000A7628280EFF23FEEB70500203971938523
:100620004562014537040020EFA0C03D2320A462AD
:100630001304046219E1EF10D0771C403707002043
:1006400003270763DC4398C3EF70F04FEF70B0529D
:10065000EF00A06D2313A10202D6EF0000701C4032
:10066000A302A102DC43884323AA0700EF70905342
:100670001C40C843EF70D0660840035661025C41DD
:100680008C43EFA0404819C1EF10B072B7070020AB
:100690009387074098530840930661023AD8D8538D
:1006A000130651020C183ADA9857DC573ADC3EDE52
:1006B000EFA0C04819C1EF10D06F83A6C1810349D4
:1006C0005102032A040036CEEF00C0689307401F92
:1006D0003EC0F24689679309C102C507C98F4EC65D
:1006E0004AC402C29308803E1308401F01470146D6
:1006F00081455285EFA0A04711C5B5576304F500A9
:10070000EF10306B084003A6C1814E874C49CA8662
:10071000EFA0605119C1EF10D0691C409C4399C3F0
:10072000EF1030691C40B70400208969C843130AE0
:10073000803EEF70304823AA0462EF705045EF60AE
:1007400080792A8902D493844463938909719C40F7
:1007500089CBB707EFBE37E700E0938707083CC7B0
:10076000FDBFA25503A5C195B3D54503EF50F07960
:10077000EF7070404ED4EF600076330625413306AB
:100780004603AA8A0840341081455689EFA0405894
:1007900088C003A50196814601468145EF50D03DB2
:1007A000EF70F03E6DB7EFF2FFD54111EF70B03C46
:1007B000EF60607289692A8402C6130A803E9389B9
:1007C0000971370B0020EF70903CB24503A50196EC
:1007D00013090B62B3D54503A284EF501073EF7079
:1007E0009039832709004EC695CFDC43DC4B9DCB67
:1007F000EF60606EAA84032509001C4185E75C4117
:10080000DC4B8DC33384844033044403740081453E
:100810002286EFA0C0570325090074002286814577
:10082000EFA0E05A268445B73705002013058563FD
:100830008280EFF2DFCE3704002013048463084087
:100840004111EF60000E11CD08407D566C00EF5055
:10085000705528871086938501978946AA95EF30B1
:10086000D0254101F9B9938701973E9593D785002B
:100870000CA11CB193D70501E1813CA12CB1828070
:10088000938701973E950CA1A1810CB1828093873B
:1008900001973E950CA18280EFF27FC8AE869385CA
:1008A00001970946AA95EF30502161B993870197C6
:1008B000AA97983388232207598D828093870197BE
:1008C000AA979833A82322074205498F8823498F86
:1008D000A8336205598D8280EFF2DFC20111130641
:1008E00060228145138501979D31894613060021B9
:1008F000938501970145EF3070256319052E138408
:1009000001971820930740046300F72C9387C18355
:100910009843DE23B706000318C03707000113060B
:1009200007105EA0930740027CB410D4B7070005FF
:1009300030CC70D0374605011CC813065660B70787
:100940000024938506105CC830D893070050378682
:1009500005001CCC4CD493070010B7050078130693
:100960000680296558CC1CD058D01CD878C87CCCBF
:1009700038D03CD470D834DC232A04029386062075
:10098000232C0402232E0402232004042322040423
:10099000232404046CC428C86CD474DC2316F40A21
:1009A000231CF40AE147A301F40CB7070015B706AE
:1009B000001A89072328D4082322F40CB7F6030170
:1009C000B70712039386468093871750232AD408CB
:1009D0002324F40CB7260400B7170504938606A059
:1009E00093870730232CD4082326F40CB706000283
:1009F000856713060020232ED4082324E40A938657
:100A00000620054793873740B5692320C408232271
:100A1000040823240408232604082320D40A2322BC
:100A2000C40A2307040AA30BE40A230D040A2318AB
:100A3000F40C9389490E9304200D130A400E83D5BC
:100A4000090026858904C204C1801D3D8909E398F7
:100A500044FFDD47856529457CA43135B7970112F0
:100A6000C9072322F40E930700192314F40EB56965
:100A700091472305F40E9389C9089304D00E130BF4
:100A8000501383DA090026859109D685D53B03DA10
:100A9000E9FF138524004205D2854181D5331385B2
:100AA00004054205D6854181E13B13852405910467
:100AB0004205C204D2854181C180D933E39364FDEC
:100AC00081451305D0186D3B81451305F0184D3B4A
:100AD000D145130510196D33E545130530194D3314
:100AE000E54513055019693B93052003130570195B
:100AF000413BF945130590196133930570081305BF
:100B0000B019BD3B93078002A30EF41CB705003E4D
:100B10008567938707A0D5051305501E231FF41C76
:100B20002300041E8933B7050076ED051305901EDA
:100B30001D3BB7053F78CD051305D01E2D33B705F6
:100B40000071D1051305101F393BB7057978C90528
:100B50001305501F093BB7057350D9051305101E27
:100B60001933B705006DDD051305901FED39B70585
:100B7000003FE9051305D01FFD31F1451305102095
:100B8000DD31814513055020F9399D478946A3047D
:100B9000F4201306002195479385019701452315FD
:100BA000F420EF30807113060021814513850197F1
:100BB000793A2945EF60005F894613060021938545
:100BC00001970145EF308078138A418381490D4BAD
:100BD000834A440E4E85FD1A93F5FA0FEF30002735
:100BE00059C185090D04090AE39469FFB70700207C
:100BF000239E0762056189B203550A001316090195
:100C0000418293142600AA94C204C180268532C66C
:100C1000713942054185EFA0707F2AC813852400F1
:100C2000420541816131EFB0C00A2ACA13854400F0
:100C300042054181A53942054185EFA0307D2ACC8E
:100C400013856400420541819531EFB0800832463A
:100C50002ACE0C084E850509EF30602A1379F90F6A
:100C6000E34C59F9BDBF0149E5BF938701973E9514
:100C700008218280EFF2BF8A41112A842800B284C1
:100C8000EFB0401A8947638FF40291476380F40400
:100C900085476397F400188493870197A29798A3D8
:100CA0009307F02063ED8700B707002003A5876353
:100CB00081467D566C0060874486EF50E06B4101B1
:100CC0006FF03F882C842285653ED9BFA2452285DE
:100CD000593EF9B7EFF2BF8441112A846800B2840B
:100CE000EFB040148947638AF4029147638BF402A2
:100CF00085476397F400188693870197A29798A376
:100D00009307F02063E88700894626866C002285D9
:100D1000EF30A05A41016FF0DF822C8622858D369C
:100D2000C5B7B24522858136E1BFEFF24FFF894555
:100D30000545EF30E06421479307401F6369A70032
:100D40009317150035651305450D3E951E213E850B
:100D50006FF02FFF13050010828003C5419782803A
:100D6000EFF2EFFB370400201304C4631E201307C7
:100D700070168507C207C1831EA0637AF700194564
:100D8000353E930515001945F93C2310040029450B
:100D90003536AA8403C5E1978145D928EFA01067AD
:100DA000B7D7000083A5870FEFA0003DB7D700009D
:100DB00083A5C70FEFA0403C2A842685EFA0707161
:100DC000AA852285EFA0A004EFA0F05EAA852945A0
:100DD000593C6FF00FF7EFF28FF42146938561973E
:100DE0001945EF3080456FF0CFF5EFF24FF329450D
:100DF000F134930740063355F5026FF08FF401A0EC
:100E000001A0EFF2CFF101112E84AA85194542C647
:100E10003EC83ACA36CC32CEEF104040A2851545C6
:100E2000EF10C03F72461145B285EF10203FE246F9
:100E30000D45B685EF10803E52470945BA85EF1043
:100E4000E03DC2470545BE85EF10403D32480145B3
:100E5000C285EF10A03C05616FF0AFEE37050020B2
:100E60001305C5648280B707002023A0A764828091
:100E7000EFF2EFEA9307F5FF7147636FF7103567FD
:100E80008A0713070710BA979C432E898287130598
:100E9000152142054181D13B2A8422856FF06FEAFA
:100EA0001305152142054181EFF05FA0F5B7391513
:100EB0009374F50F2685EF001077AA852685EF201D
:100EC000B06EB7D7000083A5870FEFA02067EFA013
:100ED00070482A84E30309FC0D453385A4021305F9
:100EE000550EEFF0BF9C2A944DBF0D45EF00B07337
:100EF000B7D7000083A5870FEFA04064EFA090450F
:100F000061BF0145EF30E01AAA841305D01DEFF050
:100F1000FF99EFA0105CB7D7000083A5871CEFA056
:100F2000A0252A842685EFA0704EAA852285EFA0F1
:100F3000E060EFA05048EFA0D0595DBF0545EF300D
:100F40004017AA841305F01DD9B70945EF30E00614
:100F5000A1B7613D91B71945EFF05F9635BFB7076F
:100F6000002003A4076415BF1305C020EFF01F95F0
:100F700013548540930740061374F40F3304F402AE
:100F80009377F50F41851375F50F3E948967938725
:100F900007713305F50281BF014401B7138781BB97
:100FA00083468702938781BB1396260032971043AE
:100FB0007147631EE60203C7970315CBC85B05C9DB
:100FC00003C7170309C7A38C0702A388070203C737
:100FD000970393080002054805071377F70F9375E9
:100FE000F70F63F5B802A38C0702A38807021387E3
:100FF000160083C687031377F70F2384E702636421
:10100000D7002384070223A6070282803316E80054
:10101000698E050769D6A38CB7028280938781BB4E
:1010200003C7970223A607022384E7028280EFF218
:101030000FCF938581BB83C78502054693859502B3
:101040009CA11305902079316FF0AFCF03C501BE8D
:101050008280A94763E6A7002380A1BE0145828064
:1010600005458280A94763E1A702EFF24FCB938544
:1010700081BBA384A50205469385950213059020A4
:10108000D53E01456FF0EFCB05458280938781BB4C
:1010900083C6870203C797026385E60203C7170367
:1010A0000DE3D8573A95C8D783C7A7021307803EE8
:1010B000B387E7026367F500EFF26FC685376FF01D
:1010C0004FC8828001C9F147630AF500A147014575
:1010D00063F5B7002388B1BE054582802384B1BE85
:1010E00001458280EFF20FC2138581B9EF700003D2
:1010F00013059020938481BB8D3EA384A402130525
:10110000A020EFF09FB683C794022385A402238C0E
:1011100004022384F402138981BB8144138481BBBC
:10112000054AA949139524001305151E420541815E
:10113000EFF0CFF82320A90093F5F40F1375F50F06
:1011400051376306450185041109E39D34FD232AC7
:101150000402A30C0402232E0402230004046FF0F3
:10116000AFBD138781BB5C5FA9C3834707049306A8
:101170008002850793F7F70F2300F70463F5F60065
:1011800023000704828055476371F702EFF22FB9FD
:1011900001449D442285050481451374F40FEF102A
:1011A000E007E31994FE6FF0CFB98280138781BB0B
:1011B000585B938781BB6309A70483C60703A9C64D
:1011C0001347F7FF698FC8DBA38C0702014601456F
:1011D000854813080002B395C800F98D9376F60F81
:1011E00081C919C1A38CD7020547A388E702828071
:1011F0008506050693F6F60F0545E31E06FDA38C4E
:10120000D7027DF3A38807028280138781BB8346C0
:1012100017030547938781BB6396E60003C707035F
:101220002384E70203C787020A07BA9788438280AC
:10123000EFF2EFAE41112A8432C42EC6EFF00FE771
:10124000B2458AA11305240042054181EFF00FE663
:1012500022460AA241016FF0CFAEEFF24FAC41112E
:101260002E841306E1006C00E1373887014505C381
:101270003C86014589CF63E9E700636AE400B3B7C0
:10128000870013C5170021A00545E36AE4FE41016C
:101290006FF02FABEFF2AFA82A848DE101468945AC
:1012A000EF00F07201468D452285EF005072014635
:1012B00085452285EF00B0716FF0AFA8B144B3044B
:1012C0009402AE873E858545EFF09FBA131905015C
:1012D00013590901CA851385B40141372A86894506
:1012E0002285EF00D06ECA851385F401BD372A86AA
:1012F00085452285EF00B06DCA8513853402B13F64
:101300002A868D457DB7EFF20F9F4111AA8AAE84E0
:101310003D456C00B2891306E10036893A8C3E8B5C
:10132000428DC68C0354410421372886835BE1003B
:1013300033057541EFA0900DB7D7000083A5C71CFA
:10134000EFA0C01F2A8A636E340333857941EFA072
:10135000F00BD285EF905062EFA0F0052300AD00B6
:1013600033053441637489003305394142054181B5
:10137000EFA03016D285EF903060EFA0D00323802D
:10138000AC00636D540333857A41EFA03008D285F9
:10139000EF90905EEFA030022300AC0063E3840284
:1013A00033045441131504014181EFA09012D285FA
:1013B000EF90905CEFA030002300AB0041016FF094
:1013C0000F9733845441F9BF03480100388263F614
:1013D000A5026374A70063E6E6006379B700637F44
:1013E000E602238008012380070182806364D7001E
:1013F000E37BE6FE2380080182806377E600E362F8
:10140000B7FEE379D7FE19A06375D700E36BE5FC5F
:10141000D5B7E371B7FEE368E5FCE9BFE36CD7FC41
:10142000D9B7EFF2CF8F79712A892E84B2846C10EC
:101430001306E1023D4536CE3ACC3ECA42C846C606
:10144000C53BF246B2484248D247624763F486023F
:1014500063EB260163E9280163E916012300070114
:101460002380070129A0E3FD16FF23000701456142
:101470006FF02F8D6367940063E59800E36214FFBB
:10148000F1BFE37414FFE9BFEFF26F89EF6040131F
:10149000B707002023A8A764B707002003A5C764E7
:1014A00001478D4611468145EF6060526FF06F89AC
:1014B000EFF26F8439717D5774181306F00F814570
:1014C0000145EF60A042F257918BF5D7EFF09FC135
:1014D000938781BA23A0070023A207002394070063
:1014E00023A60700B707002003A507650147894623
:1014F00001468145EF60A04DB7D7000083ABC71C04
:101500008149138481BA370B0020138981BB138A68
:101510004184938A81842945EF50D04885653715E9
:10152000014093850580130505C0EF30301C054749
:101530006310E50C5C4091C708C02322040023140B
:101540000400930C4B6403A50C004444130C4B643F
:1015500063160524854789E483471903B337F000F0
:101560002945232EF902EFF07FB21C400547639511
:10157000E700E9E4EFF09FA2B707002003AC07649F
:101580006285EFF0BFC25131AA84F1471375F50FA0
:10159000631CF51E63060C0C8326490383479903DD
:1015A00001468545130500023397F500758F45C345
:1015B00019C2A30CF90283479903294635678507A9
:1015C00093F7F70FB3F6C7021307C7229305000579
:1015D00013059007B3D7C702BA9603C806001306CF
:1015E00000058146BA979C230147EFF09F81DDA259
:1015F0001E2454408507C207C1831EA485E291467C
:10160000E3F1F6F458C013077025637CF7008D47AB
:101610005CC485471CC089475CC025B7E393E6F2EC
:10162000DDB71307F0186375F70089475CC411BF75
:101630001307700CE377F7F08547CDBF0D4763952F
:10164000E4002320FC000DBFEFF07F9E35B7850737
:1016500093F7F70F6373F50081470546B1F691BF25
:10166000EFF0DF93EFF0FFAF184085476316F70008
:101670002320040023260400850993F9F90FCD47A0
:10168000E3FB37E98144B9491385340C42054181B4
:10169000EFF0AFDDAA8513F5F40F8504EFF09FBFDF
:1016A000E39434FF1305100DEFF02FDC2306010245
:1016B000A306010223070102A307010249C58545CC
:1016C000EFF00FFB131C05011306A1032C182A8D44
:1016D0003D45EFF0FFB55018930561034D45EFF020
:1016E0003FB51018930521035D45EFF07FB4835794
:1016F000A10303558103135C0C011D8DEFA0005164
:10170000DE85EF90B063AA8C1545EFF00FD6035637
:1017100041038354010383592103835661036315F5
:10172000052A63E4990063F0C60262C266C09308AA
:10173000D1021308C1029307F1021307E102CE851B
:101740002685EFF05FBC8346D1020346C102834584
:10175000F1020345E102EF00902213050021EFF0B2
:10176000EF949377F50F014591CB1385F7FF137530
:10177000F50F130595060605EFF04F93EF00F047C0
:101780008149EF00105141BB8145EFF06FEEAA8512
:10179000054613D50401EF005034E9B5054D63103B
:1017A000A50D93B71400232EF9021C40370C00201E
:1017B000130C8C646398A70083470C0085E08507B1
:1017C0002300FC0003450C00A14763FEA7048547E6
:1017D0002300FC000145EF00302E69B519476387EF
:1017E000E702636DF700F9DFFD1735678A07130716
:1017F0004717BA979C4323A0FC00E9B72147E3931E
:10180000E7FCEFF0BF8123A00C006DBF89451305F5
:10181000D01DEFF06F8889451305F01DEFF0CF87DD
:1018200023000C0045B79D47631CF50081457545B5
:10183000EFF00FE4AA8501461565EF00102A59BFA5
:10184000B307F5023565130585183E950348650015
:101850005C315821343130210C31082179B3938720
:10186000F4FF93B71700232EF902994763FCA702F0
:1018700065151375F50F131715009387C184BA9773
:101880008623EF00405AEFA0E02CA945B305B5022E
:1018900005462685EF0070241C40E38507DC23A065
:1018A000AC01C9B3B70C002003C79C641C40938CE7
:1018B0009C64631CA705E38707DA2320EC002380E0
:1018C0000C008D476394F40483260C008547238025
:1018D000FC00F51693B7260093C71700139717005F
:1018E00093874185BA9786238547014563F3D700DF
:1018F00009451305D51D42054181EFE03FFBAA854F
:1019000001462685EF00701D11A0C5FF83C70C009E
:10191000E39A07D483240C0093F71400B9CFF5148D
:101920003335900093141500B3879A0083DC0700C9
:1019300081455905EFF0CFD3AA8505466685EF00AE
:10194000D0191C40E38007D25C4405476398E70048
:1019500083270C0085072320FC0029B3E39407D0DC
:101960009384D41D2685EFE07FF493051500C2050E
:10197000C1812685EFE0DFF0F5B1F114B3349000BA
:1019800093971400D29783DC070081451385640187
:10199000EFF00FCEAA8505466685EF0010141C40B7
:1019A000E38207CC5C4405476396E70083270C007D
:1019B000FD1755B7E39807CA9384D41D2685EFE039
:1019C000FFEE9305F5FF65B713150D01418136CE86
:1019D00032CCEFA0A023E685EF90007AEFA0A01D07
:1019E0001378F50F6246F24663E4990063F1C6028C
:1019F00042C062C29308D1021308C1029307F102E8
:101A00001307E102CE852685EFF01F9C2DBBE288EF
:101A10009307D1021307F102CE852685EFF07FA050
:101A20001DB3EFE2DFAF37150000154685451305FE
:101A300005D637140140EF30702E8564938504C2BB
:101A4000130504C0EF30A044370618009146130672
:101A50000610A145130504C0EF30604591460146CC
:101A60009385048013050480EF3060449305F004EF
:101A700013050480EF30A03FE14601469305000ABC
:101A800013050480EF30A042A965E14601468D05AB
:101A9000130504C0EF30A041C14513050480EF30A9
:101AA000003B93850401130504C0EF30403AE14642
:101AB00037461D0093050020130504C0EF30203F7A
:101AC0009306800437461D0093050010130504C0DB
:101AD000EF30E03DF14601469305000C130504C0CC
:101AE000EF30E03CB7450F00B1461306803E9385CA
:101AF00005240945EF30F05F0945EF30F04E814590
:101B00000145EF00D01081450545EF0050109304CA
:101B100004C0930500022685EF30403D7DD9EF20BB
:101B2000402585450145EF30903285450545EF302C
:101B30001032B7260000B7450F008D470547938642
:101B4000064B13064006938505240D45EF303052B1
:101B50000D45EF307049EF406004375500400546B1
:101B6000854513050540EF304079C145130504C094
:101B7000EF3060383765004013050540EFE0FFA8FF
:101B80006FE03F9CEFE2BF9981450145EF003008CF
:101B900081450545EF00B0070D45EF30504605453E
:101BA000EF3090440145EF3030446FE09F9937F7B4
:101BB00000E0832707D1B7060080D58F2328F7D010
:101BC0008280EFE2DF95372501408145130505400E
:101BD000EF1010093705002003250566B707002020
:101BE000138487660147938787668D460546894536
:101BF00023200400EF5030781C4091C7B7E700E085
:101C0000116723A0E7206FE0DF93EFE25F910D45BE
:101C1000EF20306CBD450D45EF20506D0145EF20A4
:101C200060400D45EF2070696FE0BF91EFE23F8F9C
:101C30001945EF20106ABD451945EF20306B054569
:101C4000EF20403E1945EF2050676FE09F8FEFE295
:101C50001F8D89476308F5008D476300F502014534
:101C60006FE03F8E9305004037150140130505C016
:101C7000EF30C0271375F50FE5B793050002EDB7F8
:101C8000EFE2FF8991E937150140C145130505C011
:101C9000EF3060266FE0FF8A37150140C14513051C
:101CA00005C0EF308025FDB7370500201305056618
:101CB0008280EFE2DF86EF50B010B707002023A24A
:101CC000A766B707002003A5076601478D461146A2
:101CD0008145EF50D04F6FE0DF86EFE25F8403A7CE
:101CE000018793870187DC23011130089545014561
:101CF0003ACC230EF100EF20606EEF208026B7274C
:101D00000000938727BCB72601403EC02A878D4834
:101D1000054881479386C644054681450145EF2025
:101D2000106105616FE0FF81EFE26FFC4111EF2070
:101D300040232A841309E501AA8403950400890439
:101D4000EF20A065239FA4FEE39924FFB7D70000EE
:101D5000B7D9000037DA000083AB871DB7D7000082
:101D6000832A0A1D03AB491D03ACC71D9384C1BF61
:101D700001493E244A288D4DA6853E951E20137D9F
:101D8000F90F3E953355B503938C81C042054181CF
:101D9000EF6020336307BD0791476309FD04EF90AF
:101DA000507383250A1D131D2900669DEF9000794D
:101DB00083A5491DEF908078DE852AC6EF900078D4
:101DC000B247AA8D03A50C01BE85EF903020AA85ED
:101DD0006E85EF90603A2320AD0005099547090410
:101DE0008904E318F9F841016FE02FF4EF90706E69
:101DF000D685EF90A074DA85EF90407423A8AC00EC
:101E0000E9BFEF90106DE285EF90407383A5491D07
:101E1000EF90C072B7D7000083A5071EEF80307F18
:101E200023A6AC005DBF0A05938781C0AA978843AB
:101E30008280EFE2CFEB83A7C18139718149D8431A
:101E400081479306471491C60327C71419C3930704
:101E5000C700370A0020232EFA64B7D7000003AB6F
:101E6000471EB7D7000083AB871EB7D7000003AC6F
:101E7000C71E81440544130ACA65B72C0000628D51
:101E8000054909479147630E2403630F041663094C
:101E9000E418E31AF4FEEFF0FFCEEF102038EFE085
:101EA0009FF32945EF50003037150140C145130518
:101EB00005C0EF3080040544EFF07FCFD1B7114467
:101EC000C1B77D5734081306F00F81450145EF5027
:101ED000F021E247918BCDD7EFF03FE0A9474C10BE
:101EE0003EDA3ED80D459387ECC43EDE22D4EF2087
:101EF00080091305B020EFE05FD77D15133515007D
:101F00002AD44C100945EF200008B727000093871A
:101F100007C86C0801453ED022D4EF202005138469
:101F2000C1C41385C1C4EF60601F13050401EF60D5
:101F3000E01E1384C1C1DA851385C1C1EF60601B47
:101F400013058400DA85EF60C01A1384C1C2DE85F0
:101F50001385C1C2EF60001C13050401DE85EF602C
:101F6000601B81450145EF20800685450545EF2032
:101F700000063D64130604A6A1469305007D0145B5
:101F8000EF30D024130604A689469305007D05454D
:101F9000EF30D0230145EF206010B7270000938772
:101FA000A7C0B73601402A878D480548938606C4E6
:101FB000054681453EC00D458147EF205037054518
:101FC000EF20C00DB72700009387C7C2B7060040B7
:101FD0002A878D4805489386860305463EC081457D
:101FE00081471945EF20B034BD451945EF209032A7
:101FF000BD450D45EF2010320145EF30E07E05452F
:10200000EF30807E0144ADBDB707002003A54766D1
:102010000147894601468145EF50701B09448DB543
:10202000EF103074AA853D460145EF20A04CEFE04B
:102030005F800545EF500017014734081306F00F85
:1020400081450945EF50900A0589E30B05E2EFF061
:10205000BFCDEF206014638A2409ADC8E39284E207
:102060003709002013094965C94AD94D8545568568
:10207000EFE01FE083570900420541816385A70017
:102080002310A9008549850A0909E391BAFF03A530
:1020900041C1EA85EF906039E353A0E20D45EF10AE
:1020A000D071E30E05E04C100145EF20C0078947D1
:1020B0006313F50085494C100545EF20C00689479C
:1020C000630AF5046398090481495DBB0D45EF106F
:1020D000D06EE30705DA03A541C1E285EF90E03455
:1020E0001345F5FF9354F50161BB0945EFE0FFB7D8
:1020F000AA850145292E0D45EFE03FB7AA85054584
:10210000392637150140C145130505C0EF20B05EE3
:102110008944BDB383270A00C5DB9823759B98A328
:1021200065B7EFE2CFBF0945EF20B01A0145EF30A8
:10213000605A05440145EF30005BE30D85FE37151D
:102140000140C14513050580EF20F05A6FE06FBFD5
:10215000EFE2EFBC1145EF20D0170545EF30805777
:102160000545EF3040588547E30CF5FE3715014033
:102170008565130505C0EF2010586FE08FBC8547BB
:1021800006063396C700060589473395A700014721
:1021900081476312B702139507014181C1838145CD
:1021A00001476390D502598D41839386C1C6D98F6B
:1021B000EAA29EA682800507C98F1377F70F0A054A
:1021C000C9BF8505518F93F5F50F0A06D9BF35674D
:1021D000130787232A971423B567938787241397B8
:1021E00016009386C1C6BA9613878185BA95AA97B9
:1021F0009C2303C7F5FF039806003317F7009317D6
:1022000007010547C1876316E600B367F8009EA281
:10221000828093C7F7FFB377F800D5BF994763EC87
:10222000A708B5679387071F0A053E951841B707AA
:1022300000209387C76602879A2393D65500AE0580
:10224000719B558F9AA3BA231377F77F4D8FBAA34B
:102250008280BA238E05137737C0CDBFBA2393D6B9
:102260004500B205619B558FBAA3DA23520751830B
:102270004D8FDAA38280DA23FD76FD06758F9605F1
:10228000C5BFDA2393D62500FD8A019B558FDAA3BB
:10229000FA23BA054A0749834D8FFAA38280FA23AD
:1022A000F1769386F607758F9E05FDB7FA231377AF
:1022B00007F8D98DEEA38280370700209307C76601
:1022C000BE231307C76609C593E707403EA3828074
:1022D00093F7F7BFC207C183D5BFEFE2CFA141118A
:1022E0002A89AE84014B63D50500B304B040054B89
:1022F000B7470F009387F72337871E00A69713076A
:10230000E7476365F704E1679387F76937170300C9
:10231000A6971307E7D3636FF70A89679387F77068
:102320001567A6971307E7E16369F70A9387743E79
:102330001307E07C6366F70A938734061307600C83
:1023400089498D4A6366F700894A19A081499D4AE7
:10235000B56B014A938BCB22294CB3E7840352859A
:1023600013041A0032C61374F40FDE978C23EFF0B7
:10237000FFEA3246B3C4840363978A063285EFF0DE
:10238000BFF3630B0B0022859305000413042A009E
:10239000EFF0DFE81374F40F994463F8840489477D
:1023A0006397F902B70700209387C766EA2371771E
:1023B000798D135789001377F707598D11671E0917
:1023C000130707F83379E90033652501EAA34101D2
:1023D0006FE0EF958549994AA5BF8949954A8DBF18
:1023E0008949914AB5B7228A8DBF22858145050466
:1023F000EFF0DFE21374F40F4DB737070020130737
:10240000C7661E230A058D8BC98F1EA38280EFE24B
:102410000F912E87A14511E19145B5670607938776
:10242000C720BA9792230945EF30606C8145094572
:10243000EF3040746FE0EF90EFE26F8EB72700004F
:1024400041119387071537070020B74600403EC06B
:102450008948054881471307C7669386C6800546A5
:1024600085451145EF20A06CB72700009387271200
:10247000B73601403EC0894805488147138781C768
:10248000B106054685450945EF20606A41016FE0C8
:102490004F8BEFE2CF88371501408565130505C0E6
:1024A000EF20B02591451145EF20C0666FE06F89A0
:1024B000EFE2EF8629469385C1C6138581C7EF9069
:1024C0007016B707002003D747679306700C9387F1
:1024D000476705074207418363E9E6089AA38A2311
:1024E0009307700C63F6A708938781C796276D77CB
:1024F0001307A7AA758F94433776F6DB130666DBBE
:10250000F18E94C3D4433776AAAA130666DBF18E04
:10251000D4C39AA7938781C783D8870095669043D1
:1025200013885655337818013717C927B768EDB7A0
:102530009388D8B613079724718F3376160190C30A
:10254000D043B76855559388D8B633761601CE2355
:1025500023940701D0C313065009637FA600938616
:102560009624ED8E98C3D6A301A82390070085BFBB
:102570009307F004E3E0A7FA37150140C1451305BE
:102580000580EF20901795450945EF20A0586FD0A2
:102590005FFBEFD2DFF8EF007033EF503040EFF029
:1025A0004FC8EF007059EF003049EF40100901A00B
:1025B000828099677390078001A0EFD25FF69C211B
:1025C00041116147DC876360F70285479CC2482957
:1025D00005469305F1001305250CEFE0AFE9014531
:1025E00041016FD01FF64145E5BFEFD25FF385474C
:1025F0009CC2C829411132C61305250CEFE0EFE655
:10260000324608A2014541016FD0BFF3EFD23FF13E
:1026100085479CC248292E8481456105EFE05F858E
:1026200008A001456FD0FFF1EFD27FEF05469C2156
:1026300090C258294111DC87630DC70089466304A5
:10264000D70205469305F1001305A020EFE08FE2C5
:1026500029A03E85EFE0FF9F19E1014511A041450A
:1026600041016FD01FEE3E85EFE0DF9FF5B7EFD25F
:102670007FE99C2123A0060040294111DC87054900
:10268000B684630C240331C40D4763648704AA89AC
:102690003D456361F50285451305E4FFEFF03FD743
:1026A00003C5490105469305F100EFE0AFDC23A027
:1026B0002401014541016FD03FE81D473D45E36BD3
:1026C000F7FE05469305F1000545EFE0AFDA80C05F
:1026D000CDB705443D45E36FF4FC05469305F10095
:1026E0001305B020DDB71C2141115C871C31DC874C
:1026F000288741018280EFD29FE201112A842E8532
:1027000036C6EFF05FFEB2468947E8879CC25C2878
:102710000547639BE700AA8513050021EFE04F966C
:10272000014505616FD0FFE11385770609469305E2
:10273000E1010605EFE00FD4E5B7EFD25FDE01114E
:102740002A842E8536C6EFF01FFAB2468947E887FD
:102750009CC248289305E101094606054505EFE0BE
:102760006FD1014505616FD0DFDDEFD25FDB011175
:102770002A842E8536C6EFF01FF7B24689471375B7
:10278000F50F9CC2E88748289305E1010946060534
:102790001305B51DEFE00FCE014505616FD07FDA5F
:1027A000EFD2FFD74111AA8511466800EF908067EC
:1027B000324541016FD0FFD8EFD27FD601112A8474
:1027C0002E8536C6EFF0DFFDB24691472ACE9CC279
:1027D00048286C081146130585070A05EFE08FC9E4
:1027E000014505616FD0FFD5EFD27FD3AA84DC28E5
:1027F0003D472E853684636DF70085478C219CC24A
:10280000C82813051521EFE08F8801456FD07FD3CD
:102810004547636FF700EFF01FED89471CC0DC28C8
:10282000AA859387F71013951700EFE06F85F1BF26
:10283000EFF01FF791471CC0EFE0EFE2F9B7EFD2DE
:102840001FCE91479CC25C290D474111639FE70051
:102850002E85EFF0FFF4488605466C003945EFE021
:102860006FC1014541016FD0DFCD1145E39CA7FE4B
:102870002E85EFF0FFF22AC611466C001305C0202A
:10288000F9BFEFD2DFC901112A8432852EC636C4C2
:10289000EFF07FE5A246B24589479CC2E8878821D0
:1028A00009469305E1017D15060522954205418102
:1028B000EFE04FBC014505616FD0BFC8EFD23FC606
:1028C0002E86930545016D45EFF0BFFB6FD07FC7A6
:1028D000EFD2FFC42E869305450113057002EFF079
:1028E0005FFA6FD01FC6EFD29FC32E8693054501B6
:1028F00013053003EFF0FFF86FD0BFC4EFD23FC233
:102900002E86930545011305F003EFF09FF76FD076
:102910005FC3EFD2DFC02E86930545011305B004D7
:10292000EFF03FF66FD0FFC1EFD27FBF2E86930549
:10293000450113057005EFF0DFF46FD09FC0EFD2B3
:102940001FBE2E869305450113053006EFF07FF379
:102950006FD03FBFEFD2BFBC2E8693054501130554
:10296000F006EFF01FF26FD0DFBDEFD25FBB2E8617
:10297000930545011305B007EFF0BFF06FD07FBCA2
:10298000EFD2FFB92E869305450113057008EFF0CD
:102990005FEF6FD01FBBEFD29FB82E869305450126
:1029A00013053009EFF0FFED6FD0BFB9EFD23FB79D
:1029B0002E86930545011305F009EFF09FEC6FD0CB
:1029C0005FB8EFD2DFB52E86930545011305B00A37
:1029D000EFF03FEB6FD0FFB6EFD27FB485479CC2DC
:1029E000482991472E84631AF5001305B020EFE0C3
:1029F000CFA708A001456FD0DFB43305A040420542
:102A00004181F5B7EFD2BFB11C21054741112E849A
:102A10006391E7020D453306A6029CC21305460EDC
:102A200042054181EFE06FA408A0014541016FD04C
:102A30005FB109476391E7020D453306A6029CC2C8
:102A40001305560E42054181EFD05FE6935785008E
:102A500008A01CB0D9BF91479CC20821B70700400D
:102A6000F5173E95D1473306F60232950A05130550
:102A7000D50E42054181EFD07FE42AC611466C0095
:102A80002285EF90203A55B7EFD27FA90146510534
:102A9000EFF05FF76FD0FFAAEFD27FA80546510590
:102AA000EFF05FF66FD0FFA9EFD27FA7094651057F
:102AB000EFF05FF56FD0FFA8EFD27FA6054798C271
:102AC0005C292E84638CE7000947130590206384FA
:102AD000E7001305A020EFE04F9919A0EFE00FD712
:102AE00008A001456FD0FFA5EFD2DFA10349050083
:102AF00085474111AE843284368A631CF9028C21E9
:102B00003285EF10A034BD470DE10D453305A40219
:102B10009C20054623202A015C841305450E4205AE
:102B20002C004181EFE00F9581473E8541016FD038
:102B3000BFA08947631FF9002E85EFF0DFBA6884D4
:102B40000D453305A40223202A0109461305550E1D
:102B5000F9B7AA892E85EFF0BFC491472320FA0068
:102B60002AC203C50900B7070040F5173E95D147B3
:102B7000B307F40211464C003E950A051305D50E25
:102B800042054181EFE00F8F92441395040141818A
:102B9000EF9020142AC613D50401EF908013B7D705
:102BA000000083A5870FEF80205D03C609002AC4BB
:102BB0002C007D16420641822285EF104034814769
:102BC0002DD5BD479DB7EFD29F9501465105EFF03A
:102BD000BFF16FD01F97EFD29F9405465105EFF0DC
:102BE000BFF06FD01F96EFD29F9309465105EFF0CB
:102BF000BFEF6FD01F95EFD29F92894701111CC282
:102C00002EC6EFD0BFCAB2459357850088A19CB1AC
:102C1000014505616FD0FF92EFD27F9036866D45FA
:102C2000EFF07FFD6FD0FF91EFD27F8F36861305D7
:102C30007002EFF05FFC6FD0DF90EFD25F8E3686D0
:102C400013053003EFF03FFB6FD0BF8FEFD23F8D06
:102C500036861305F003EFF01FFA6FD09F8EEFD288
:102C60001F8C36861305B004EFF0FFF86FD07F8D10
:102C7000EFD2FF8A368613057005EFF0DFF76FD0CD
:102C80005F8CEFD2DF89368613053006EFF0BFF692
:102C90006FD03F8BEFD2BF8836861305F006EFF07A
:102CA0009FF56FD01F8AEFD29F8736861305B00736
:102CB000EFF07FF46FD0FF88EFD27F863686130562
:102CC0007008EFF05FF36FD0DF87EFD25F85368655
:102CD00013053009EFF03FF26FD0BF86EFD23F848B
:102CE00036861305F009EFF01FF16FD09F85EFD204
:102CF0001F8336861305B00AEFF0FFEF6FD07F8495
:102D0000EFD2FF8189479CC248292E844111854515
:102D10004505EFE0EF959357850008A01CB00145ED
:102D200041016FD01F82EFD28FFF91479CC248298B
:102D300041112E84130585070A05EFD03FB82AC636
:102D40006C0011462285EF90E00D014541016FD0E6
:102D50004FFFEFD2CFFC89479CC2482901112EC6F4
:102D600006051305B51DEFD07FB4B2459357850016
:102D700088A19CB1014505616FD0AFFCEFD22FFA5D
:102D800089479CC2482901112EC606054505EFD08A
:102D9000FFB1B2459357850088A19CB101450561FB
:102DA0006FD02FFAEFD2AFF791479CC25C29094749
:102DB00041112E846386E7020D476387E7020547CA
:102DC0001305C020639FE700EFE02F822AC66C0046
:102DD00011462285EF900005014541016FD06FF645
:102DE0001945EFD0BFADDDB73945EFD01FE8F9BFCA
:102DF000EFD2EFF289479CC24829854741112E84C2
:102E0000631EF50013050021EFD05FAA93578500DC
:102E100008A01CB0014541016FD0AFF21305750643
:102E20000605DDB783A7C181DC431387C71271EBA9
:102E300035671307872B23A0E7141387471471EB1B
:102E400035671307872C23ACE7141387C71571EB7D
:102E500035671307873C23A8E7161387471771EBDD
:102E600035671307873423A4E7181387C71871EB56
:102E700035671307873623A0E71A1387471A71EBC4
:102E800035671307873823ACE71A1387C71B71EB25
:102E900035671307873A23A8E71C1387471D71EB93
:102EA00035671307872F23A4E71E1387C71E71EB0F
:102EB00035671307873123A0E7201387472071EB7D
:102EC00035671307872923A2E7221387872271EB2F
:102ED00035671307872E23AEE7221387072471EB8C
:102EE00035671307872523AAE7241387872571EB06
:102EF00035671307872723A6E7261387072771EB74
:102F0000828035671307873F23AAE7121387871349
:102F100005F335671307872823A6E71413870715DA
:102F200005F335671307873E23A2E7161387871635
:102F300005F335671307873323AEE71613870718A2
:102F400005F335671307873523AAE7181387871911
:102F500005F335671307873723A6E71A1387071B7F
:102F600005F335671307873923A2E71C1387871CEE
:102F700005F335671307873B23AEE71C1387071E4E
:102F800005F335671307873023AAE71E1387871FCA
:102F900005F335671307873223A6E7201387C72178
:102FA00005F335671307872D23A8E72213874723E7
:102FB00005F335671307872A23A4E7241387C7245B
:102FC00005F335671307872623A0E72613874726CF
:102FD00005F335671307873D23ACE72615B7B71709
:102FE00002409843B706FFF841111367170098C3D2
:102FF000D84337060200758FD8C39843B706F7FE4B
:10300000FD16758F98C39843B706FCFFFD16758FA4
:1030100098C3D843B70681FFFD16758FD8C337070D
:103020009F0098C702C402C69843C166558F98C3D3
:10303000B716024005679C42F18F3EC6A24785073E
:103040003EC4B24781E7A247E397E7FEB7170240C5
:103050009C431397E7006359070685473EC63247EE
:1030600085476311F706B7170240D843B706C1FF7B
:10307000FD1613670708D8C3D843D8C3D8431367CE
:103080000740D8C3D843758FD8C3D843B7063D008F
:10309000558FD8C39843B7060001558F98C39843FE
:1030A00093166700E3DD06FED843B7160240719B16
:1030B000D8C3D84313672700D8C32147DC42B18B5C
:1030C000E39EE7FE4101828002C651BFB71602406F
:1030D000DC42370700201146B18B1307875A6385FE
:1030E000C70021466388C702B7177A009387072075
:1030F0001CC3B7170240DC43918393F6F700B70770
:10310000002093870700B69794231C43B3D7D700BA
:103110001CC38280DC42D4424166C983BD8BF18EE0
:10312000890745466393C700C94781EEB746024009
:1031300083A60680C18A89CEB7167A0093860620B8
:1031400021A8B7160240D4421396E600E35606FEC5
:10315000B7163D0093860690B387D70251BFEFD2D2
:103160006FBAC16441113709002009440D4A8D4AE4
:10317000FD148327896793098967638E87046380B9
:103180004703E5FFEFD04FF5EFF00FABEFE07FB275
:10319000EFE08FAFEFF01FC923A05901D9BF7D57D2
:1031A0007400014681450145EF404074B247E39207
:1031B00087FC268681450145EF40F039EFD0AFC34B
:1031C0000841EF30703DEFD0AFC30841EF30D03C45
:1031D00023A0890079BF1305401FEF30B07CEF209A
:1031E000101B41BFB73700209387478A1CC1B72700
:1031F00000209387474A9CC1930700081CC2828025
:10320000B7370020938747941CC1B72700209387C6
:10321000476A9CC1930700081CC28280EFD22FB07E
:10322000EFD00FBE0841EF40A006EFD0CFBC084161
:10323000EF4000066FD0EFB0EFD26FAEEFD01FC2FD
:103240002A8437280020B7270020B7D5000037157B
:1032500000001308481B938747DB19478546130670
:103260000010938585401305054BEF30902808C06A
:10327000EFD00FB92A84B7D50000370500001388B6
:103280004108938741C8114785461306001093856E
:1032900045411305657AEF30D02508C0EFD0AFB5B2
:1032A0002A8437280020B7170020B7D5000037053B
:1032B0000000130848B0938747E815478546130672
:1032C00000329385454213054561EF30902208C0D6
:1032D000EFE09F9D2A8437280020B7270020B7D52C
:1032E0000000372500001308C8D59387C7B52147CC
:1032F00085461306000893858543130525E3EF30C3
:10330000501F08C037280020B7270020B7D500007D
:10331000373500001308C8409387C72025478546E6
:1033200013060008938545441305E515EF30701C1E
:10333000EFF0DFEE6FD0EFA0EFD26F9EEFD0CFCEE9
:10334000B7360020372600202A8401479386C68F8F
:103350001306464691454145EF20107008C06FD0D6
:103360004F9E01A001A001A001A001A001A001A009
:1033700001A001A001A001A001A001A001A001A045
:1033800001A001A001A001A001A001A001A001A035
:1033900001A001A001A001A001A001A001A001A025
:1033A00001A001A001A001A001A001A001A001A015
:1033B00001A001A001A001A001A001A001A001A005
:1033C00001A001A001A001A001A001A001A097E11E
:1033D000FF1F9381A19D172100201301A1C217B5E2
:1033E00000001305250397D5FF1F9385A5C11386FC
:1033F000818763FAC5008322050023A055001105CB
:103400009105E3EAC5FE17D5FF1F1305A521970512
:103410000020938565036377B5002320050011051F
:10342000E36DB5FEFD42739002BC89427390428009
:10343000B72200009382028073A0023097D2FFFF70
:103440009382C2BF93E2320073905230EFF03FB9E3
:1034500097F2FFFF9382221473901234730020308E
:103460001C4589C593E717001CC58280F99BEDBFF9
:1034700008450D810589828008450981058982807A
:10348000A54763F7B7048D47138765FF3307F70236
:103490000328C5009D47B397E70093C7F7FFB3F72D
:1034A0000701B396E600DD8E54C5994763E3C70470
:1034B00095477D163306F6025859FD47B397C70066
:1034C00093C7F7FFF98F3396C5005D8E50D9828080
:1034D0000D473387E502032805019D47B397E700B1
:1034E00093C7F7FFB3F70701B396E600DD8E14C963
:1034F0006DBFB14763E2C702954765163306F60212
:103500001859FD47B397C70093C7F7FFF98F339654
:10351000C5005D8E10D9828095474D163306F602A0
:103520005855FD47B397C70093C7F7FFF98FB39579
:10353000C500DD8D4CD58280EFC27FFE01112A844B
:1035400023030100A5441C8363FAF406230301004E
:10355000A54621461C8363F0F60A231401002315B7
:103560000100230301009546130600601C8363FEDF
:10357000F60E1C8393F7F70F6384071238841483C5
:103580003C840C8310833347D702B3E7B702860726
:10359000B3C7C702BA97C207C1837C84188399470F
:1035A0009546998F93F7F70FDC839C8393F7F70F7A
:1035B000639C07108567938707800DAA1C4493E7D7
:1035C00087001CC42285EFF0BFEA6DFD1C4493E721
:1035D00047001CC42285EFF03FEA6DFD78441C8350
:1035E00014108607B6972396E7FE1C83850793F78A
:1035F000F70F5C8389BFA30301009C836378F60007
:103600001C83850793F7F70F5C83A9B798839C8386
:103610000C100607850786072E97AE970357C7FE3F
:1036200083D7C7FE63FDE7029C838607AE9783D7E7
:10363000C7FE7C849C83988385078607AE9783D5D5
:10364000C7FE931717001810BA972396B7FE9C83EE
:1036500038840C1085078607AE972396E7FE9C8377
:10366000850793F7F70FDC8349BF1C831810890780
:103670008607BA9783D7C7FEE36DF6EE1C830C105E
:10368000388489078607AE9783D7C7FEBA97C207E3
:10369000C1837C841C83850793F7F70F5C83F9B59E
:1036A00093070040DDBD1C8310103885890786070D
:1036B000B29783D7C7FEBA97C207C1837C851C83A4
:1036C000850793F7F70F5C831C83E3FEF6FC3885D0
:1036D00094833C858C8390833347D702B3E7B7024A
:1036E0008607B3C7C702BA97C207C1837C852884FF
:1036F00034852C84308505679307004013070780C5
:103700003385A740B306D7408D8F118F4205C2067F
:10371000C2074207C18641874185C1873695BA975E
:1037200089463345D5020561B3E7D7023E95420588
:1037300041856FC01FE1B70702409C437D8D333543
:10374000A0008280EFC2BFDDEFF0FFFE6FC07FDF21
:10375000B7070240C8C38280B7070140635A050417
:10376000DC4F93560501131805013707300013F697
:10377000F60013580801B376E500635E0506639909
:10378000E604930606010D46B316D60093C6F6FF6F
:10379000F58F99C9135755011377F73F1207331760
:1037A000E800D98F63550506370701405CCF82805A
:1037B00037270240145BDC433707000F758F55F342
:1037C00013D71700F976CE07758FCD83D98F51BFE8
:1037D0001317B500635607008D46B396C6007DB734
:1037E000135755011377F73F12073317E8001347B4
:1037F000F7FFF98F79BF6390E60237060140544224
:10380000370700F17D17F98F758F58C2C1F537075B
:1038100001405CC382801317B500635C07008D46CE
:10382000B396C60093C6F6FFFD8EB707000FD58F7F
:10383000F1BF1357550112073317E8001347F7FF7D
:103840007D8FB707000FD98FD1B71E2189C593E7A8
:1038500017001EA18280C207C183F99BC207C183E2
:10386000CDBF1E2189C593E707101EA18280C20724
:10387000C18393F7F7EFC207C183C5BF1E2189C576
:1038800093E707201EA18280C207C18393F7F7DF69
:10389000C207C183C5BF1E2189C593E707401EA18A
:1038A0008280C207C18393F7F7BFC207C183C5BF38
:1038B0005E2589C593E717005EA58280C207C18394
:1038C000F99BC207C183CDBF5E2101C6DD8D4EA12C
:1038D000828093C5F5FFFD8DDDBF0EA982800A2988
:1038E0001375F50F828093F7E50F19C293E7150062
:1038F000C207C1831EA98280411102C62AC6B247EF
:10390000BE952EC6B2478A23410182805E290A2DC8
:1039100042055D8D6D8D220521810D8D13351500BC
:103920008280411102C402C693D7C5012AC63EC493
:10393000A247A205A18199CBB247D1073EC6B247A3
:10394000884341016D8D3335A0008280B247C1812B
:10395000E107EDB793C5F5FFC205C1814EA982808D
:10396000B71702402380070223800702054763063A
:10397000E50011476306E50082802380A70282806C
:1039800015472380E7028280371702405C43914647
:10399000B18B6385D700A1466382D706B7177A003B
:1039A000938707201CC1371602405C42370700206E
:1039B000130707019183BD8BBA9794231C41B3D79A
:1039C000D7005CC15442A1829D8ABA969422B3D694
:1039D000D70014C55442AD829D8A36971823B3D7B9
:1039E000E7005CC5584239839376370013874180DE
:1039F00036971823B3D7E7021CC982805C4358432B
:103A0000C166C983BD8B758F8907C5466393D7008F
:103A1000C94701EF3747024003270780418B09CF91
:103A200037177A001307072021A837170240584399
:103A30009316E700E3D606FE37173D0013070790FD
:103A4000B387E70285B79357550005476399E700A9
:103A5000B71702409C4333D5A700058982800947E8
:103A60006396E700B71702409C53F5B7B7170240BB
:103A7000DC53D5B7B737004003D74780136707013A
:103A80002392E78082803737004083574780C20700
:103A9000C183BD9BC207C1832312F7808280EFC21E
:103AA0001FA841112AC6EFF0FFFC3245B73700408E
:103AB000135705013D8B42052394E78041812396EE
:103AC000A780EFF05FFC41016FC0BFA73737004010
:103AD0008357478093F70702E5DF8280373700403E
:103AE00083574780C207C183DD9BC207C18323126E
:103AF000F7803737004083574780A18BEDDF828006
:103B00001E31922103D82500C207C183F99BC20749
:103B1000C1831EB11E3156211A2DC207C18342072F
:103B200041831377C7F8518F9225F59BC206336600
:103B30000601D18F37360140130606C0C1826310DB
:103B4000C502B225DD9B03D8E500D18FD221ED9BC4
:103B500093F6F6CFD18FD22533660601D18E56A1CA
:103B60001AADFA215AB91EB182801E31657713074A
:103B7000F7CFC207C183BD9BC207C1831EB11E31EF
:103B8000562103D88500C20713960601162DC1835E
:103B900093F7F7FD758F96214182A206558FB621C6
:103BA00042074183B3E606019206D58FB73601403E
:103BB000C207938606C0C183631ED502B62593F75C
:103BC000F7F703D8C5009206D58FD621C207C18367
:103BD000920693F7F7FBD58FFD769386F63FF18E2D
:103BE000F225C207C183336606010A06D18E1396F9
:103BF0000601418252A11AADFA211ABD1EB182807E
:103C00001E3103D88500C207C18393F7F7EFC207BF
:103C1000C1831EB11E3156215A2DC20713960601CB
:103C20004207962141831377C7F8558FB621C18388
:103C300093F7F7DFB3E60601A206D58FB73601404A
:103C4000C207938606C04182C183631FD502FD76F9
:103C50009386F67FF58FB62503D8C500A206D58FCB
:103C6000D621C207C183A20693F7F7BFD58FF57699
:103C7000FD16F18EF225C207C183336606011206D6
:103C8000D18E13960601418252A15AADFA215ABD36
:103C90001EB182801A31FD77FD17F98F1EB10358CE
:103CA000050256215E2D657792211307F7CF7D8F90
:103CB000F9772206FD17518FB3F70701B22103D818
:103CC0008500C2064207336606013206D18F3736B9
:103CD0000140C207130606C0C1824183C183631A33
:103CE000C50071767D16F18ED2251A06D18EC206D8
:103CF000C18256A15AADFA212310E5041EB182807B
:103D00001E2DC207C183DD9BDD8D0EAD82801A2D75
:103D1000FD779387F77FF98FA205CD8FC207C18307
:103D20001EAD82805E2DC207C183DD9BDD8D4EAD51
:103D300082805A2DFD779387F77FF98FA205CD8F6B
:103D4000C207C1835EAD82801E294A25ED8F4205E0
:103D5000418189C76D8D3335A00082800145828005
:103D600093F5F51F4EA182800A216D8D3335A00099
:103D70008280B73700209387C79C23A0070023A227
:103D8000070023940700B73700209387C79B23A021
:103D9000070023A2070023A4070023960700B70704
:103DA0000020239E07668280EFC2CFF5931715008F
:103DB000373500201305C59C3E95834905002E89A3
:103DC000638609060031B73400209384849DA2994C
:103DD000139A0901135A0A01B14A93170401C183C6
:103DE00063E64703130900006312FA041384F7FF24
:103DF000B1473304F402B73700209387879D3E9480
:103E00000C404840EF7080730C4431A8228BCE8761
:103E1000631134033147B387E7024A85BE94CC402F
:103E2000EF70C0718C44EF60907E2A894A856FC024
:103E3000AFF00504B30754034A85A69783A547FF4F
:103E4000EF700067E34BA0F8DA87E9B78547638135
:103E5000F504B737002006059387C79CAA979823D7
:103E600015E3370700201307C7671223130840061E
:103E70000545B306B600634ED8008CA390B316A3D5
:103E800001458280FD1501456305B7000945828023
:103E90000D458280EFC20FE74111AA892E893A852C
:103EA000BE853684B2843EC63AC4EF7030122A8A88
:103EB000A2852685EF709011AA855285EF70C02BE0
:103EC000224723A0A900A2853A85EF702067B24758
:103ED000AA89A6853E85EF706066AA854E85EF703B
:103EE000F00EAA89A6852285EF70500EAA854E8510
:103EF000EF7080282320A90041016FC0EFE39317E2
:103F00001500373500201305C59C3E951C216378AC
:103F1000F604EFC2CFE00031B1472E892296131488
:103F2000060141803304F402032709008327890036
:103F30008326C90003264900B73400209384849D5A
:103F400093058400130544002695A695EFF09FF491
:103F50008327C900269401451CC06FC08FDE094528
:103F60008280373500201305C5998280931735006C
:103F700037050020130505683E95DC412300050048
:103F80005CC101458280F1473305F502B737002057
:103F9000938747ECD8413E959C4958C17D171CC971
:103FA000DC453337E0005AA95CC59C4DA30B0500E6
:103FB000232405001CCD01458280F1473305F5021D
:103FC000B7370020938747ECAA97C82B8280EFC2AF
:103FD0000FD5F1473305F502B7370020938747EC3B
:103FE00009473D46AA971305C0023385A502D8C3E9
:103FF000373700201307C7E423AA0700814533049D
:10400000A700090580C3232204023A95EFC02FD4EC
:10401000B7D7000083A747452320040205451CD4D9
:104020006FC02FD2EFC2AFCFF146B306D502B7377C
:104030000020138747ECAA843D650146138447ECB2
:10404000130505A63697144323A0060213872600FE
:10405000F906035827001E23B305F84063D6050070
:10406000B307F540B385070109072E96E393E6FEF3
:104070003D453355A602B7370020938747EA93950D
:104080004400BE95EF40A00AF147B387F40205470C
:10409000A2979C4388D3D8D36FC0AFCAF1473305EA
:1040A000F502B7370020938747ECAA9788430905A4
:1040B0008280EFC2CFC6F1473305F502B737002043
:1040C000938747EC3E95004129CC584189470145EB
:1040D0006317F7041C50A1C73E85EF70903FB7D718
:1040E000000083A5C744EF706045B7D70000AA85DC
:1040F00003A54745EF704008B7D7000083A50745E3
:10410000EF70C043EF70302B42054181EF701030EB
:104110000C54EF70A042EF70102A420541816FC02D
:104120004FC20145EDBFEFC2EFBD714433058502BB
:1041300037340020130444EC2A94832904001C48DB
:104140000D4583A409026387F40426852E89EF7048
:104150005038B7D7000083A5C744EF70203EB7D7CB
:104160000000AA8503A54745EF700001EF70B02459
:104170009307C0033305F50242054181EF70102912
:1041800083A58902EF70803BEF70F0222310A90015
:1041900004C809456FC04FBAEFC2CFB6373400200C
:1041A000130444EC81448949130A703E854A11493D
:1041B0005C40638B37051C4C2685829778386302F8
:1041C000A7041C4485071CC41DEB18486379F7003D
:1041D0005C4068B893C7F7FF858BA98F5EA88504FC
:1041E00093F4F40F7104E39524FDB707002093873F
:1041F0000768D8438C23014502976FC0EFB358443A
:10420000F1B723240400E1BF5E288507C207C183FC
:104210006364FA005EA8E1B71C40231A0400D85377
:104220006315570123A207025DBF23A0070245BF04
:1042300037350020130545F3828085673307C500B5
:104240009387078063C9E706EFC2CFABAA843284A5
:10425000094525C2373A0020AE8A8149414B130AED
:104260004AF393F7F400B307FB40C207C1832289E6
:1042700063F387003E8983274A02420913590901E3
:1042800033863A01A685CA861305000A3304244101
:104290008297CA994204CA941545C209C204418052
:1042A000EF20507093D90901EF10700EC18055F8BE
:1042B00001456FC06FA80945828085673307C50037
:1042C0009387078063C2E708EFC2EFA2AA84411177
:1042D000328409453DC6B73900202E8AB68A814B03
:1042E000414B938949F393F7F400B307FB40C207AE
:1042F000C183228963F387003E894209135909016A
:10430000194CB30C7A0103A80902D6872947CA863B
:104310006686A6851305000A029801C92AC67D1C77
:10432000EF10F0063245E3100CFE33042441CA9B23
:104330004204CA94C20BC204418093DB0B01C180CA
:104340005DF041016FC0AF9E0945828085673307EC
:10435000C5009387078063C3E702EFC24F9C3737DE
:104360000020032807F5B68713074006B2862E867D
:10437000AA851305000A02986FC0AF9C0945828088
:10438000EFC2EF994111AE8605469305F100EFF0BB
:10439000FFFB888741016FC0CF9AB70700200397C2
:1043A000876881472A97634F070009CD0566930602
:1043B000F6FFB6876358C700AA876305D500931731
:1043C0000701C1833E858280B7160240DC425177E7
:1043D0007D17F98F3167D98FDCC28280EFC28F924F
:1043E000B7170240D8474111AE84328979E9136783
:1043F0000720D8C7D8471377F7DFD8C7984F136778
:10440000072098CF2AC6EFF03FFC32453707F1E08E
:104410001307F7EF931725001385C1853E950041DB
:10442000B569938989455C40F98F93E707105CC0B3
:104430001C4437F7F1FF1307D77FF98F37070E00BA
:104440000907D98F1CC45C54370710FF7D17F98FFB
:1044500037074000D98F5CD48147639FF4061C4422
:1044600037071000D98F1CC41C44370700FC7D1788
:1044700093E707101CC41C4493E717001CC45C405E
:10448000F98F5CC01C4493E787001CC42285EFE0D1
:104490003FFE6DFD1C4493E747001CC42285EFE0FE
:1044A000BFFD6DFD2285EFF02F89B7070020239413
:1044B000A7685C4037070004D98F5CC041016FC01A
:1044C000AF8713670740D8C7D8471377F7BFD8C758
:1044D000984F1367074035B7138A1700CA979C2374
:1044E0009D461376FA0FCE978C232285EFE05FF975
:1044F000D287A5B7EFC2AF82B285AA84C52B372772
:104500000140832787408945268593E707102324A8
:10451000F740F5572320F74013040740CD232685A5
:10452000692B1C443707500093E717001CC41C4438
:10453000D98F1CC46FC0EF80B737002023A0A7F627
:104540008280B737002023AEA7F48280B7370020DF
:1045500023A2A7F68280B7170240944BB708000247
:10456000370800FEB3E6160194CB944B7D18B3F6E2
:10457000060194CBD84F33671701D8CF9307400675
:1045800051476305F50263E7A70ED1471307C01231
:10459000630EF50093072003130780076308F500F7
:1045A000A947130780256303F5004147B76700401B
:1045B00083A607404165F59A23A0D74083A607400C
:1045C00093E6160023A0D74093860740DC42858BF4
:1045D00099E37D1565FDC842B767004005894DC95F
:1045E00003A507407D17938707401375F5F788C328
:1045F00088431365050488C388431375F5FD88C394
:1046000088431365050188C388435D9988C388433F
:104610006D9988C337054B03498FD8CE9843799B52
:1046200098C34167D443858A99C27D1765FFD843F3
:10463000058B39EFEFB2BFEED84B130540022E8445
:1046400013673741D8CBB284EF00106A2686A28563
:1046500013055002EF0050692686A285130530022B
:10466000EF0090682686A28513056002EF00D067F0
:104670006FB03FED9307401F1147E309F5F2930731
:10468000803E0947E304F5F29307A00F214721BFBD
:104690008280B767004003A707400546938707401D
:1046A000719B1367170098C34167D4438D8A638455
:1046B000C6007D177DFBC8430D897D151335150098
:1046C0008280B767004003A7074093870740719B2C
:1046D00098C34167D4438D8A99C27D1765FFC8434B
:1046E0000D89133515008280EFB27FE3442141111B
:1046F00000419305550026862800EF70A072B76729
:10470000004003A787401359E4001379290093164A
:10471000570063CE060693870740984793164700D5
:1047200063C906069C47114513973700635E07046B
:104730000945376700401307074093174500BA97AC
:1047400003A70718560433642401058B23A0E71838
:1047500003A70718BD88598C23A0871803A74718FB
:10476000419B23A2E71803A74718D98C224723A20D
:10477000971823A4E718324723A6E71803A70718BA
:104780001367170023A0E71841016FB09FDB0145B5
:104790004DB7054579BFB768004013880840032E20
:1047A000082005433313A300136E1E002320C821E5
:1047B000832EC821134EF3FF9605B3FECE01232EA0
:1047C000D821832EC820C2059606B37EDE01560688
:1047D000C1810E05C2062326D8214295C1824D8E85
:1047E0005607558F2320C5242322E524372702406E
:1047F000145B3707000F758F19EB138708301623EA
:104800001107C206C182231ED7EEE31A07FF3767DE
:1048100000401307074083264720B3E666002322A3
:10482000D7208DE783274721337EFE00232AC72127
:10483000B767004003A7C7613363670023AE6760B3
:1048400003A70760799B23A0E76082808327472125
:10485000B3E76700232AF720E1BFB337A000B766AC
:104860000040920793860640B69703A7071B118B5B
:1048700051EB03A6071B03A7071B03A8471B558281
:10488000098B1378F8002382050103A8871BA382F4
:10489000050103A8871B135888002383050103A87B
:1048A000871B13580801A383050103A8871B13580E
:1048B00088012384050103A8C71BA384050103A85D
:1048C000C71B135888002385050103A8C71B13586D
:1048D0000801A385050183A7C71BE183DCA511EDB2
:1048E000DC4693E70702DCC6B337E000BE07D18F92
:1048F0009CC123970500014582809C4A93E70702EB
:104900009CCADDB70545828039713ACE41673ECCFD
:1049100006DE16DC1ADA1ED82AD62ED432D236D0CB
:1049200042CA46C872C676C47AC27EC01307171040
:10493000B767004023A4E740B737002083A707F6F6
:104940008297F250E2525253C2533255A255125638
:1049500082567247E2475248C248324EA24E124F28
:10496000824F21617300203039713ECCB73700206F
:1049700083A7C7F52AD63ACE06DE16DC1ADA1ED889
:104980002ED432D236D042CA46C872C676C47AC253
:104990007EC001458297B7670040214723A6E740C4
:1049A000F250E2525253C2533255A2551256825619
:1049B0007247E2475248C248324EA24E124F824FCF
:1049C00021617300203039713ECCB737002083A7B6
:1049D000C7F52AD63ACE06DE16DC1ADA1ED82ED451
:1049E00032D236D042CA46C872C676C47AC27EC0B7
:1049F00005458297B7670040214723A8E740F2505A
:104A0000E2525253C2533255A25512568256724741
:104A1000E2475248C248324EA24E124F824F2161A5
:104A20007300203039713ACE3ECC06DE16DC1ADA3D
:104A30001ED82AD62ED432D236D042CA46C872C622
:104A400076C47AC27EC01147B767004023A2E74010
:104A5000B737002083A747F68297F250E2525253AD
:104A6000C2533255A255125682567247E2475248F7
:104A7000C248324EA24E124F824F21617300203045
:104A8000EFB2FFA913142500094541113315850024
:104A9000EFE05FCB8547631FF500B73700209387B2
:104AA00087F6A2979C432AC6829732453315850024
:104AB000EFE01FCA41016FB0DFA8B70700200A0569
:104AC00093870702AA9798431C4393E717001CC3D8
:104AD0008280B70700200A0593870702AA979443AC
:104AE000416779179C42F98F9CC28280B7070020EA
:104AF0000A0593870702AA979C43CCC38280B70715
:104B000000200A0593870702AA9798431C43DD8D6E
:104B10000CC38280B70700200A0593870702AA9773
:104B20009C43CCC398431367170098C38280EFB2AD
:104B30007F9DAA84371502405C494111814993E762
:104B400017005CC985476393F500C14951C2854789
:104B50006303F60805641309002013040480C25798
:104B600037350020139A2400130585F652951CC191
:104B7000268546C642C43AC236C0EFF09FF5B70557
:104B8000002093850502D2958841E177BD070C414D
:104B900082461247ED8FB3E72701B3E737018565FA
:104BA000C18F93850508CD8F1CC12322050014C534
:104BB00058C51C41B248224893E727001CC14686CD
:104BC000C2851385B401EF00301241016FB0DF964A
:104BD0000149014469B7130900101304004041B7AB
:104BE00039712AD6014506DE16DC1ADA1ED82ED413
:104BF00032D236D03ACE3ECC42CA46C872C676C40D
:104C00007AC27EC0EFF0DFE7F250E2525253C25355
:104C10003255A255125682567247E2475248C24850
:104C2000324EA24E124F824F2161730020303971F3
:104C30002AD6094506DE16DC1ADA1ED82ED432D260
:104C400036D03ACE3ECC42CA46C872C676C47AC284
:104C50007EC0EFF0FFE2F250E2525253C25332559F
:104C6000A255125682567247E2475248C248324E07
:104C7000A24E124F824F21617300203039712AD623
:104C80000D4506DE16DC1ADA1ED82ED432D236D006
:104C90003ACE3ECC42CA46C872C676C47AC27EC0FC
:104CA000EFF01FDEF250E2525253C2533255A2557A
:104CB000125682567247E2475248C248324EA24EBE
:104CC000124F824F21617300203039712AD611456D
:104CD00006DE16DC1ADA1ED82ED432D236D03ACE00
:104CE0003ECC42CA46C872C676C47AC27EC0EFF0D5
:104CF0003FD9F250E2525253C2533255A255125686
:104D000082567247E2475248C248324EA24E124F74
:104D1000824F21617300203039712AD6194506DE91
:104D200016DC1ADA1ED82ED432D236D03ACE3ECC89
:104D300042CA46C872C676C47AC27EC0EFF05FD45B
:104D4000F250E2525253C2533255A2551256825675
:104D50007247E2475248C248324EA24E124F824F2B
:104D6000216173002030B717014013870780631952
:104D7000E500371702401C4F93E747001CCF8280A5
:104D8000938707C0E31DF5FE371702401C4F93E7DA
:104D90008700EDB793F7060113F8F60099C333685F
:104DA000C80093F7F50FB9C31C410147854E3D4F2D
:104DB000930F800293028004214E3396EE00B3F8E5
:104DC000C500631116039318270033131F01134303
:104DD000F3FFB377F300B3181801B3E7F800639F4C
:104DE000F60550C90507E31AC7FD1CC19307F00F6C
:104DF00063F5B70458412146854E3D4F930F80021D
:104E000093028004414EB398CE00B3F7150163922C
:104E1000F8029317260081173313FF001343F3FFA3
:104E20003377E300B317F8005D8F639DF601232A03
:104E300015010506E319C6FD58C18280E39456FAB0
:104E400010C94DB7E39756FE23281501DDB7EFB221
:104E50000FED41112A842EC6EFF0FFF0B245C14696
:104E600009462285EFF01FF341016FB08FEDEFB2DD
:104E70000FEB41112A842EC6EFF0FFEEB2458146BA
:104E80000D462285EFF01FF141016FB08FEBEFB2BD
:104E90000FE941112A842EC6EFF0FFECB24591468E
:104EA0000D462285EFF01FEF41016FB08FE9EFB2A1
:104EB0000FE7411132C636C42A84AE84EFF0BFEA50
:104EC0003246A24601CE371702401C4F8545328537
:104ED00093E717001CCFEFE03F88A2460D46A6855A
:104EE0002285EFF03FEB41016FB0AFE508456D8DD6
:104EF0003335A00082800CC982804CC98280EFB219
:104F00006FE0370400208327C468AA8A2E89884B63
:104F10008545328AB6891304C468EFE01F931C40AC
:104F2000B7050200884BEFE0DF9F75F91C4085450F
:104F3000B7040300884B8504EFE0BF921C40A685B0
:104F4000884BEFE0BF9C7DD91C400146D685884B3D
:104F5000B704070093842408EFE0FF981C40A6855F
:104F6000884BEFE0BF9A7DD91C4093558900FD899D
:104F7000884BB704070093844408EFE01F961C4059
:104F8000A685884BEFE09F987DD91C409375F90F5B
:104F9000B7040700884B93844408EFE01F941C403B
:104FA000A685884BEFE09F967DD93709070081449D
:104FB000130949081C40884B63E834018545EFE03C
:104FC000FF8B01456FB04FD7B3079A008C23EFE0FA
:104FD000DF901C40CA85884BEFE05F937DD9850444
:104FE00093F4F40FC1BFEFB2EFD1370400201309DF
:104FF000C46883240900BA891304C468F6A0D0C425
:105000009CA0CEA023940400A8B0EF20605B83276F
:105010000900C8C81D47884B98CF8545EFE0FF823F
:1050200083270900014693050070884BEFE0DF8974
:105030001C40B7050200884BEFE0BF8E75F91C409D
:10504000054693050070884BEFE01F881C4085459E
:10505000884BEFE01F811C404E86FD558823EF20D2
:10506000A07D1C40AA840146884B93050070EFE0A8
:10507000BF851C408145884BEFE02FFD014591E045
:105080000D456FB06FCBEFB2EFC7370400201309A7
:10509000C46883240900BA891304C4689CA0F6A0DC
:1050A000D0C4CEA023940400A8B0EF206051832781
:1050B0000900C8C80547884B98CF8545EFE0EFF851
:1050C0001C40B7050200884BEFE0BF8575F91C4016
:1050D0008545884BEFE02FFC1C408545884BEFE071
:1050E0004FF81C40054693050070884BEFE0CFFD5C
:1050F0001C404E86FD558823EF2000741C40AA8476
:105100000146884B93050070EFE00FFC1C40814581
:10511000884BEFE08FF3854701456383F400114529
:105120006FB08FC1EFB2AFBF370400209304C468E3
:105130009C404111D145884B02C6EFE0EFFB9C40FB
:10514000AD46984F7D1763E5E602B5660A0793867C
:10515000C646369718431304C4680287058909C9EF
:10516000AC33884B0146EFE00FF81C40094798CF5D
:1051700041016FB00FBD098965DD884BE145EFE066
:10518000AFF71C40CE23884BA181FD89EFE0EFF4FF
:105190001C402D47E9BF1375050879D9CC23884BEE
:1051A000EFE0AFF31C400D47D9B71375050869D17F
:1051B000884B8545EFE0EFEA1C4011474DBF05895C
:1051C00045D9AC33884B0546EFE0EFF11C4015475D
:1051D00079BF098951DD884BE145EFE0EFF11C40D3
:1051E000194771B71375050441D5F6239A27884BE3
:1051F000FD16635BD700C0479306170096A73A9445
:10520000EFE0EFED08A0ADB78145EFE0CFE81C403F
:105210009A27C447884B9306170096A7BA94EFE0E5
:105220000FEC88A01C40884B8545EFE02FE5084037
:105230007C0001470C2148498D460546EF20B013FC
:10524000B24791C7B7E700E0116723A0E7201C40F1
:1052500023AC070031BF0589E30C05F0AC33884B64
:105260000146EFE04FE81C40214711B71377054096
:1052700005C3884BB705001093850540EFE08FED1F
:105280001C408545884BEFE0CFDD1C401D47C5B570
:105290000989E30F05EC884BE145EFE0EFE51C40A1
:1052A000CE23884BA181FD89EFE02FE31C403147DD
:1052B0007DBD13750508E30D05EACC23884BEFE0AF
:1052C000CFE11C40254765B513750508E30205EAE3
:1052D0009627FA2363FDE600D847884B36970C23C0
:1052E000EFE0AFDF18401E2785071EA751B52947FD
:1052F000BDBD1189E30E05E63DB7EFB2AFA0B757CC
:1053000000409387074001112A84AE8432896312DA
:10531000F502B7170240944BB70520003706E0FFAF
:10532000CD8E94CB944B7D16F18E94CBD84F4D8F70
:10533000D8CF680083594400EFE00FE5D2473747E4
:105340000F001307072433D7E702C20993D90901D5
:1053500093F909FCC20993D90901B3E9E900C2092B
:1053600093D90901231234011620C206C182F99A89
:10537000C206C18216A0B79698001386F667637EB0
:10538000F60A93860668B3D7D7029166C207C1832F
:10539000D58FA166D58F9306C0123307D702930627
:1053A000803EB70900203347D702050742074183F3
:1053B0001AB05EAC1E2093E717001EA01E20C20785
:1053C000C18393F757BF93E707401EA091671EA4C0
:1053D000EFE01FE6B7570000938767085CCDB7572B
:1053E0000000938767FE1CD1B75700009387E7EF53
:1053F0005CD1B757004023A6A96800C9938707402E
:105400009389C9684A86A685631CF4021305F002D5
:10541000E1284A86A68513050003F92083A7090021
:105420008145884BEFE0CFC883A709008545884BAD
:10543000EFE0AFC105616FB02F909167850791BF15
:105440001305100355204A86A68513052003F1B7DE
:10545000397106DE16DC1ADA1ED82AD62ED432D2DC
:1054600036D03ACE3ECC42CA46C872C676C47AC25C
:105470007EC0EFF03FCBF250E2525253C25332554E
:10548000A255125682567247E2475248C248324EDF
:10549000A24E124F824F216173002030397106DE17
:1054A00016DC1ADA1ED82AD62ED432D236D03ACE0C
:1054B0003ECC42CA46C872C676C47AC27EC0EFF0FD
:1054C0007FC6F250E2525253C2533255A255125681
:1054D00082567247E2475248C248324EA24E124F9D
:1054E000824F216173002030854712066394F500D6
:1054F000136606F8B7E700E0AA971376F60F238045
:10550000C740935755000547938707043315A700F5
:105510008A0737E700E0BA9788C38280EFA29FFE30
:10552000B7170240D84FB7060018AA84558FD8CFB6
:10553000B7760040984205452E891367071098C238
:105540009853C166B289558F98D39853C176FD168A
:10555000758F98D3EFE0CFC00144130AA00F130555
:105560001004EFE04FCE01ED631444016FA0DFFCA7
:10557000050451451374F40FEF20F044CDB79307A1
:10558000A00FE305F4FEB717024098532164136798
:10559000071098D39853418F98D3EFE02FD3EFE0C3
:1055A000EFD3373700408357078093E71700231066
:1055B000F780EFE0AFD11305F4FFEFE04FCEEFE05F
:1055C000EFD04E86CA854D45EFF01FF2B707002099
:1055D00023A8976861BF5D713ED2B737004022DED5
:1055E0001384078083D7078086C696C49AC29EC05C
:1055F0002ADC2EDA32D836D63AD442D046CE72CC15
:1056000076CA7AC87EC6858B89CFB707002083A764
:10561000076982975E20C207C183F99BC207C183D5
:105620005EA0EFE0AFCA7254B640A642164386436E
:105630006255D2554256B256225792570258F248F6
:10564000624ED24E424FB24F616173002030B717A5
:10565000024025E1D44705657D76C98ED4C7D4477D
:105660007D16F18ED4C7984F498F98CFB737014038
:10567000014781C505671307078092238D669386CE
:105680000604F18E558FF1769386C630558F42070A
:1056900041839AA3DA2F13774710DAAF23980700D4
:1056A000DA2313672700DAA39A23136707049AA360
:1056B0008280944B11657176C98E94CB944B7D1684
:1056C000F18E94CBD84F498FD8CFB74700409387FE
:1056D000078079BF0A0593878180AA979C431307A7
:1056E000F0FB9AA782800A0593878180AA979C4342
:1056F00001459E27828085476305F5040DC18947D2
:10570000630FF504B7170240984B1367470098CB17
:10571000984B6D9B98CBD84F136747003DA8B717A0
:105720000240D447056713070780D98ED4C7D447F2
:105730007D761306F67FF18ED4C7944F558F98CFA0
:105740008280B7170240984B1367170098CB984B8D
:10575000799B98CBD84F13671700D8CF8280B717A3
:105760000240984B1367270098CB984B759B98CBBA
:10577000D84F13672700D5B75D7122DE371400407C
:105780002ADC2EDA1305048085453ED286C696C4EF
:105790009AC29EC032D836D63AD442D046CE72CCC7
:1057A00076CA7AC87EC6EFE02FDA8547631AF5001D
:1057B000B737002083A7C7FC8297F9572318F480D6
:1057C0007254B640A642164386436255D25542569D
:1057D000B256225792570258F248624ED24E424F6A
:1057E000B24F616173002030B5670A059387C749DE
:1057F000AA9798431E2393E717001EA38280B567DC
:105800000A059387C749AA9798431E23C207C183F5
:10581000F99BC207C1831EA38280B56713172500B9
:105820009387C749BA979C439A2742074183619B54
:10583000420741839AA751473306E502962337373B
:105840000020130747F8C206C18293F6F6C83297C4
:105850005223D18E96A316233A23D6B79AB709E5D9
:1058600037370140231807C20547DAAB8280EFA221
:105870001FCB01112A843AC83EC62ECE32CC36CA7E
:10588000EFF07FE7F24537A84A04130808203358A1
:10589000B80251456246D246B308A402373500200B
:1058A000130545F8469512A154C52311050122851B
:1058B000EFF0BFF6B566131624009386C649B2967C
:1058C00094427956B24792AACA26424713651500F8
:1058D000CAA689461305E00263E686001385418661
:1058E000229508213E86BA85EFF01FC005616FA0A2
:1058F0005FC5EFA2DFC201112A843289B6842EC6A9
:1059000002C802CA02CC02CEEFF0FFDEB24537A7D2
:105910004A04130707203357B702D14742091359E6
:1059200009012285B306F402B7370020938747F8B0
:105930000A04B69723902701BAA323920700EFF039
:10594000DFEDC1673565938707071305C5493EC875
:105950002295231B2101231C010093F71400004111
:1059600089CB0C082285EFE0AF9981452285EFE0D5
:105970002FB993F7240089CB0C082285EFE0EF9E26
:1059800081452285EFE0AFB893F7440089CB0C083E
:105990002285EFE0EFA681452285EFE0AFB8A18830
:1059A00089C80C082285EFE0EFAE81452285EFE043
:1059B0004FB81E20216793E707081EA083574404B1
:1059C000D98F2312F40405616FA0BFB7EFA23FB5D2
:1059D00041112A8436C22EC632C4EFF0DFD1B2455F
:1059E00037A74A04130707203357B702D147224687
:1059F0003305F402B7370020938747F8AA9792A39C
:105A0000BAA3239207002285EFF03FE1924689472F
:105A10006392F606B5679387C7490A043E941C4013
:105A200085669386F6CF9A33420741833D9B4207B2
:105A300041839AB3922F9A33F18E420711664183C4
:105A400013060610D18E1377F7FD96AF1367070183
:105A50009AB3962F7D771307F73F758F9AAF9A2FDA
:105A6000420741839AAFDA2713674740DAA741011B
:105A70006FA03FADA147E39CF6FEB5679387C7498A
:105A80000A043E941C407D761307F6FF9633116599
:105A900013050510758F9AB3DA2F856603D80702B0
:105AA0009385F6CFF98D79777D17C98D3377070107
:105AB0000565CEAF498F9AB3DA2F1306F63FC106BC
:105AC000798ED2AFDA2F42074183DAAFDA27D98E47
:105AD000D6A771BFB5670A059387C749AA979843A8
:105AE00083574704C607C5832312F7048280EFA2B9
:105AF0001FA301112A84AE8432C6EFF0BFFD3565C5
:105B00000A041305C54922950041324602CA83574B
:105B1000440402CC02CEC607C5832312F404C16735
:105B2000938707063EC88947FC84F08393F71400E7
:105B300089C70C082285EFD0BFFC93F7240089C7E2
:105B40000C082285EFE06F8293F7440089C70C08A8
:105B50002285EFE0EF8AA18889C40C082285EFE056
:105B60006F93835744042167D98F2312F40405618E
:105B70006FA03F9DB5670A059387C749AA979843C9
:105B8000A16683574704D58F2312F7048280AD673F
:105B9000373700409387A7AA1CC382801567B737A1
