:100000006F302043130000001300000013000000B5
:100010001300000013000000130000001300000094
:100020001300000013000000130000001300000084
:08003000130000007300100032
:100038000000000000000000FE0D0000000E00009F
:1000480000000000CA3300000000000000000000AB
:10005800CC330000CE330000000000000000000098
:10006800DC6000000000000000020000000000004A
:10007800D4330000D6330000D8330000B257000054
:10008800DC330000DE330000E0330000E233000020
:10009800E4330000E6330000E8330000364E000089
:1000A800EC330000844E0000D24E0000204F0000C8
:1000B800F43300006E4F0000F8330000124B0000CC
:1000C800724B0000D04B00002E4C000002340000A0
:1000D8000434000006340000083400000A3400002C
:1000E8000C3400000E340000545900002C56000057
:1000F8007856000016340000183400001A34000046
:100108001C3400001E34000020340000223400009B
:100118002434000026340000283400002A3400006B
:100128002C3400002E3400003034000000000000A1
:080138000000000000000000BF
:10020000130181F806C216C41AC61EC822CA26CC1B
:100210002ACE2ED032D236D43AD63ED842DA46DC76
:100220004ADECEC0D2C2D6C4DAC6DEC8E2CAE6CC46
:10023000EACEEED0F2D2F6D4FAD6FED8F3220030CF
:1002400096DA83A2C19023A02200F32510342EC099
:1002500003A18186EF70E01803A3C190032103007E
:10026000824273901234D652739002309240A2426E
:100270003243C2435244E244724582551256A2565A
:100280003257C2575258E25872598649164AA64AFE
:10029000364BC64B564CE64C764D865D165EA65EDA
:1002A000365FC65F13018107730020301300000022
:1002B00013000000130000001300000013000000F2
:1002C00013000000130000001300000013000000E2
:1002D00013000000130000001300000013000000D2
:1002E00013000000130000001300000013000000C2
:1002F00013000000130000001300000013000000B2
:1003000083A28186938202E07390023403A1C1909C
:10031000024182403243C2435244E2447245825514
:100320001256A2563257C2575258E258725986494D
:10033000164AA64A364BC64B564CE64C764D865D61
:10034000165EA65E365FC65FD652A102739002307B
:10035000A2421301810782801300000013000000F5
:100360001300000013000000130000001300000041
:100370001300000013000000130000001300000031
:100380001300000013000000130000001300000021
:100390001300000013000000130000001300000011
:1003A0001300000013000000130000001300000001
:1003B00013000000130000001300000013000000F1
:1003C00013000000130000001300000013000000E1
:1003D00013000000130000001300000013000000D1
:1003E00013000000130000001300000013000000C1
:1003F00013000000130000001300000013000000B1
:10040000F322003093F272FF130380181203B3E259
:100410006200711523205500130585FA10C12115BE
:10042000232005009302000063870200711523203A
:100430000500FD12D5BF71150CC1828000000000BF
:1004400000000000000000000000000000000000AC
:10045000000000000000000000000000000000009C
:10046000000000000000000000000000000000008C
:10047000000000000000000000000000000000007C
:10048000000000000000000000000000000000006C
:10049000000000000000000000000000000000005C
:1004A000000000000000000000000000000000004C
:1004B000000000000000000000000000000000003C
:1004C000000000000000000000000000000000002C
:1004D000000000000000000000000000000000001C
:1004E0000000000000000000000000000000397162
:1004F00001436EC619A0397141536AC866CA62CCFD
:100500005ECE19A0397101535AD056D252D44ED66C
:100510004AD826DA22DC06DE3301614082824111AC
:100520004AC026C222C406C68282B24D4101024D93
:10053000924C224CB24B4101024B924A224AB249A0
:100540004101024992442244B240410182803D432C
:100550002A876373C3029377F700BDEFADE5937607
:1005600006FF3D8ABA960CC34CC30CC74CC7410763
:10057000E36BD7FE11E28280B306C3408A0697027E
:10058000000096966780A6002307B700A306B70071
:100590002306B700A305B7002305B700A304B700DF
:1005A0002304B700A303B7002303B700A302B700D7
:1005B0002302B700A301B7002301B700A300B700CF
:1005C0002300B700828093F5F50F93968500D58DB3
:1005D00093960501D58D61B7939627009702000089
:1005E00096968682E78086FA9680C1171D8F3E9682
:1005F000E374C3F8A5B7370500201305C5608280F2
:1006000037050020130585608280B707002023A8E6
:10061000A7608280EFF23FEEB70500203971938525
:100620004560014537040020EFA0805B2320A460D3
:100630001304046019E1EF10107E1C4037070020FE
:1006400003270761DC4398C3EF70B06DEF707070E3
:10065000EF00A06D2313A10202D6EF0000701C4032
:10066000A302A102DC43884323AA0700EF70507164
:100670001C40C843EF8080040840035661025C417F
:100680008C43EFA0006619C1EF10F078B707002087
:100690009387473E98530840930661023AD8D8534F
:1006A000130651020C183ADA9857DC573ADC3EDE52
:1006B000EFA0806619C1EF10107683A6C1810349AF
:1006C0005102032A040036CEEF00C0689307401F92
:1006D0003EC0F24689679309C102C507C98F4EC65D
:1006E0004AC402C29308803E1308401F01470146D6
:1006F00081455285EFA0606511C5B5576304F500CB
:10070000EF107071084003A6C1814E874C49CA861C
:10071000EFA0206F19C1EF1010701C409C4399C3CB
:10072000EF10706F1C40B70400208969C843130A9A
:10073000803EEF70F06523AA0460EF701063EF60F5
:1007400050172A8902D493844461938909719C408B
:1007500089CBB707EFBE37E700E0938707083CC7B0
:10076000FDBFA25503A5C195B3D54503EF60A01702
:10077000EF70305E4ED4EF60D01333062541330660
:100780004603AA8A0840341081455689EFA00076B6
:1007900088C003A50196814601468145EF50905BD4
:1007A000EF70B05C6DB7EFF2FFD54111EF70705A8A
:1007B000EF60301089692A8402C6130A803E93894B
:1007C0000971370B0020EF70505AB24503A501960E
:1007D00013090B60B3D54503A284EF60C010EF701E
:1007E0005057832709004EC695CFDC43DC4B9DCB89
:1007F000EF60300CAA84032509001C4185E75C41A9
:10080000DC4B8DC33384844033044403740081453E
:100810002286EFA080750325090074002286814599
:10082000EFA0A078268445B7370500201305856121
:100830008280EFF2DFCE3704002013048461084089
:100840004111EF60C02B11CD08407D566C00EF5078
:10085000307328871086938501978946AA95EF30D3
:10086000B04A4101F9B9938701973E9593D7850026
:100870000CA11CB193D70501E1813CA12CB1828070
:10088000938701973E950CA1A1810CB1828093873B
:1008900001973E950CA18280EFF27FC8AE869385CA
:1008A00001970946AA95EF30304661B993870197C1
:1008B000AA97983388232207598D828093870197BE
:1008C000AA979833A82322074205498F8823498F86
:1008D000A8336205598D8280EFF2DFC20111130641
:1008E00060228145138501979D31894613060021B9
:1008F000938501970145EF30504A6319052E138403
:1009000001971820930740046300F72C9387C18355
:100910009843DE23B706000318C03707000113060B
:1009200007105EA0930740027CB410D4B7070005FF
:1009300030CC70D0374605011CC813065660B70787
:100940000024938506105CC830D893070050378682
:1009500005001CCC4CD493070010B7050078130693
:100960000680296558CC1CD058D01CD878C87CCCBF
:1009700038D03CD470D834DC232A04029386062075
:10098000232C0402232E0402232004042322040423
:10099000232404046CC428C86CD474DC2316F40A21
:1009A000231CF40AE147A301F40CB7070015B706AE
:1009B000001A89072328D4082322F40CB7F6030170
:1009C000B70712039386468093871750232AD408CB
:1009D0002324F40CB7260400B7170504938606A059
:1009E00093870730232CD4082326F40CB706000283
:1009F000856713060020232ED4082324E40A938657
:100A00000620054793873740B5692320C408232271
:100A1000040823240408232604082320D40A2322BC
:100A2000C40A2307040AA30BE40A230D040A2318AB
:100A3000F40C9389092C9304200D130A400E83D5DE
:100A4000090026858904C204C1801D3D8909E398F7
:100A500044FFDD47856529457CA43135B7970112F0
:100A6000C9072322F40E930700192314F40EB56965
:100A700091472305F40E938989269304D00E130B16
:100A8000501383DA090026859109D685D53B03DA10
:100A9000E9FF138524004205D2854181D5331385B2
:100AA00004054205D6854181E13B13852405910467
:100AB0004205C204D2854181C180D933E39364FDEC
:100AC00081451305D0186D3B81451305F0184D3B4A
:100AD000D145130510196D33E545130530194D3314
:100AE000E54513055019693B93052003130570195B
:100AF000413BF945130590196133930570081305BF
:100B0000B019BD3B93078002A30EF41CB705003E4D
:100B10008567938707A0D5051305501E231FF41C76
:100B20002300041E8933B7050076ED051305901EDA
:100B30001D3BB7053F78CD051305D01E2D33B705F6
:100B40000071D1051305101F393BB7057978C90528
:100B50001305501F093BB7057350D9051305101E27
:100B60001933B705006DDD051305901FED39B70585
:100B7000003FE9051305D01FFD31F1451305102095
:100B8000DD31814513055020F9399D478946A3047D
:100B9000F4201306002195479385019701452315FD
:100BA000F420EF307016130600218145138501975C
:100BB000793A2945EF60C07C894613060021938568
:100BC00001970145EF30701D138A418381490D4B18
:100BD000834A440E4E85FD1A93F5FA0FEF30E04B31
:100BE00059C185090D04090AE39469FFB70700207C
:100BF000239E0760056189B203550A001316090197
:100C0000418293142600AA94C204C180268532C66C
:100C1000713942054185EFB0201D2AC81385240093
:100C2000420541816131EFB080282ACA1385440012
:100C300042054181A53942054185EFB0E01A2ACC31
:100C400013856400420541819531EFB0402632465C
:100C50002ACE0C084E850509EF30404F1379F90F65
:100C6000E34C59F9BDBF0149E5BF938701973E9514
:100C700008218280EFF2BF8A41112A842800B284C1
:100C8000EFB000388947638FF40291476380F40422
:100C900085476397F400188493870197A29798A3D8
:100CA0009307F02063ED8700B707002003A5876155
:100CB00081467D566C0060874486EF50B009410143
:100CC0006FF03F882C842285653ED9BFA2452285DE
:100CD000593EF9B7EFF2BF8441112A846800B2840B
:100CE000EFB000328947638AF4029147638BF402C4
:100CF00085476397F400188693870197A29798A376
:100D00009307F02063E88700894626866C002285D9
:100D1000EF30807F41016FF0DF822C8622858D3697
:100D2000C5B7B24522858136E1BFEFF24FFF894555
:100D30000545EF30D00921479307401F6369A7009D
:100D40009317150035651305052B3E951E213E852D
:100D50006FF02FFF13050010828003C5419782803A
:100D6000EFF2EFFB370400201304C4611E201307C9
:100D700070168507C207C1831EA0637AF700194564
:100D8000353E930515001945F93C2310040029450B
:100D90003536AA8403C5E1978145D928EFB0C00450
:100DA000B7D7000083A5472DEFA0C05AB7D70000E2
:100DB00083A5872DEFA0005A2A842685EFB0200F47
:100DC000AA852285EFA06022EFA0B07CAA852945E4
:100DD000593C6FF00FF7EFF28FF42146938561973E
:100DE0001945EF30606A6FF0CFF5EFF24FF3294508
:100DF000F134930740063355F5026FF08FF401A0EC
:100E000001A0EFF2CFF101112E84AA85194542C647
:100E10003EC83ACA36CC32CEEF104045A2851545C1
:100E2000EF10C04472461145B285EF102044E246EF
:100E30000D45B685EF10804352470945BA85EF103E
:100E4000E042C2470545BE85EF10404232480145A9
:100E5000C285EF10A04105616FF0AFEE37050020AD
:100E60001305C5628280B707002023A0A762828095
:100E7000EFF2EFEA9307F5FF7147636FF7103567FD
:100E80008A071307C72DBA979C432E8982871305BB
:100E9000152142054181D13B2A8422856FF06FEAFA
:100EA0001305152142054181EFF05FA0F5B7391513
:100EB0009374F50F2685EF001079AA852685EF300B
:100EC0008013B7D7000083A5472DEFA0F004EFA053
:100ED00030662A84E30309FC0D453385A40213051B
:100EE000550EEFF0BF9C2A944DBF0D45EF00B07535
:100EF000B7D7000083A5472DEFA01002EFA05063E5
:100F000061BF0145EF30C03FAA841305D01DEFF04B
:100F1000FF99EFA0D079B7D7000083A5473AEFA09B
:100F200060432A842685EFA0306CAA852285EFA035
:100F3000A07EEFA01066EFA090775DBF0545EF3073
:100F4000203CAA841305F01DD9B70945EF30C02B0A
:100F5000A1B7613D91B71945EFF05F9635BFB7076F
:100F6000002003A4076215BF1305C020EFF01F95F2
:100F700013548540930740061374F40F3304F402AE
:100F80009377F50F41851375F50F3E948967938725
:100F900007713305F50281BF014401B7138781BB97
:100FA00083468702938781BB1396260032971043AE
:100FB0007147631EE60203C7970315CBC85B05C9DB
:100FC00003C7170309C7A38C0702A388070203C737
:100FD000970393080002054805071377F70F9375E9
:100FE000F70F63F5B802A38C0702A38807021387E3
:100FF000160083C687031377F70F2384E702636421
:10100000D7002384070223A6070282803316E80054
:10101000698E050769D6A38CB7028280938781BB4E
:1010200003C7970223A607022384E7028280EFF218
:101030000FCF938581BB83C78502054693859502B3
:101040009CA11305902079316FF0AFCF03C501BE8D
:101050008280A94763E6A7002380A1BE0145828064
:1010600005458280A94763E1A702EFF24FCB938544
:1010700081BBA384A50205469385950213059020A4
:10108000D53E01456FF0EFCB05458280938781BB4C
:1010900083C6870203C797026385E60203C7170367
:1010A0000DE3D8573A95C8D783C7A7021307803EE8
:1010B000B387E7026367F500EFF26FC685376FF01D
:1010C0004FC8828001C9F147630AF500A147014575
:1010D00063F5B7002388B1BE054582802384B1BE85
:1010E00001458280EFF20FC2138581B9EF70C020F5
:1010F00013059020938481BB8D3EA384A402130525
:10110000A020EFF09FB683C794022385A402238C0E
:1011100004022384F402138981BB8144138481BBBC
:10112000054AA949139524001305151E420541815E
:10113000EFF0CFF82320A90093F5F40F1375F50F06
:1011400051376306450185041109E39D34FD232AC7
:101150000402A30C0402232E0402230004046FF0F3
:10116000AFBD138781BB5C5FA9C3834707049306A8
:101170008002850793F7F70F2300F70463F5F60065
:1011800023000704828055476371F702EFF22FB9FD
:1011900001449D442285050481451374F40FEF102A
:1011A000E00CE31994FE6FF0CFB98280138781BB06
:1011B000585B938781BB6309A70483C60703A9C64D
:1011C0001347F7FF698FC8DBA38C0702014601456F
:1011D000854813080002B395C800F98D9376F60F81
:1011E00081C919C1A38CD7020547A388E702828071
:1011F0008506050693F6F60F0545E31E06FDA38C4E
:10120000D7027DF3A38807028280138781BB8346C0
:1012100017030547938781BB6396E60003C707035F
:101220002384E70203C787020A07BA9788438280AC
:10123000EFF2EFAE41112A8432C42EC6EFF00FE771
:10124000B2458AA11305240042054181EFF00FE663
:1012500022460AA241016FF0CFAEEFF24FAC41112E
:101260002E841306E1006C00E1373887014505C381
:101270003C86014589CF63E9E700636AE400B3B7C0
:10128000870013C5170021A00545E36AE4FE41016C
:101290006FF02FABEFF2AFA82A848DE101468945AC
:1012A000EF00F07701468D452285EF00507701462B
:1012B00085452285EF00B0766FF0AFA8B144B30446
:1012C0009402AE873E858545EFF09FBA131905015C
:1012D00013590901CA851385B40141372A86894506
:1012E0002285EF00D073CA851385F401BD372A86A5
:1012F00085452285EF00B072CA8513853402B13F5F
:101300002A868D457DB7EFF20F9F4111AA8AAE84E0
:101310003D456C00B2891306E10036893A8C3E8B5C
:10132000428DC68C0354410421372886835BE1003B
:1013300033057541EFA0502BB7D7000083A5873A3E
:10134000EFA0803D2A8A636E340333857941EFA094
:10135000B029D285EFA00000EFA0B0232300AD009C
:1013600033053441637489003305394142054181B5
:10137000EFA0F033D285EF90F07DEFA09021238095
:10138000AC00636D540333857A41EFA0F025D2851C
:10139000EF90507CEFA0F01F2300AC0063E38402C9
:1013A00033045441131504014181EFA05030D2851C
:1013B000EF90507AEFA0F01D2300AB0041016FF0D9
:1013C0000F9733845441F9BF03480100388263F614
:1013D000A5026374A70063E6E6006379B700637F44
:1013E000E602238008012380070182806364D7001E
:1013F000E37BE6FE2380080182806377E600E362F8
:10140000B7FEE379D7FE19A06375D700E36BE5FC5F
:10141000D5B7E371B7FEE368E5FCE9BFE36CD7FC41
:10142000D9B7EFF2CF8F79712A892E84B2846C10EC
:101430001306E1023D4536CE3ACC3ECA42C846C606
:10144000C53BF246B2484248D247624763F486023F
:1014500063EB260163E9280163E916012300070114
:101460002380070129A0E3FD16FF23000701456142
:101470006FF02F8D6367940063E59800E36214FFBB
:10148000F1BFE37414FFE9BFEFF26F89EF60003141
:10149000B707002023A8A762B707002003A5C762EB
:1014A00001478D4611468145EF6020706FF06F89CE
:1014B000EFF26F8439717D5774181306F00F814570
:1014C0000145EF606060F257918BF5D7EFF09FC157
:1014D000938781BA23A0070023A207002394070063
:1014E00023A60700B707002003A507630147894625
:1014F00001468145EF60606BB7D7000083AB873A48
:101500008149138481BA370B0020138981BB138A68
:101510004184938A81842945EF509066856537150B
:10152000014093850580130505C0EF30D03805478D
:101530006310E50C5C4091C708C02322040023140B
:101540000400930C4B6203A50C004444130C4B6243
:1015500063160524854789E483471903B337F000F0
:101560002945232EF902EFF07FB21C400547639511
:10157000E700E9E4EFF09FA2B707002003AC0762A1
:101580006285EFF0BFC25131AA84F1471375F50FA0
:10159000631CF51E63060C0C8326490383479903DD
:1015A00001468545130500023397F500758F45C345
:1015B00019C2A30CF90283479903294635678507A9
:1015C00093F7F70FB3F6C70213078740930500059B
:1015D00013059007B3D7C702BA9603C806001306CF
:1015E00000058146BA979C230147EFF09F81DDA259
:1015F0001E2454408507C207C1831EA485E291467C
:10160000E3F1F6F458C013077025637CF7008D47AB
:101610005CC485471CC089475CC025B7E393E6F2EC
:10162000DDB71307F0186375F70089475CC411BF75
:101630001307700CE377F7F08547CDBF0D4763952F
:10164000E4002320FC000DBFEFF07F9E35B7850737
:1016500093F7F70F6373F50081470546B1F691BF25
:10166000EFF0DF93EFF0FFAF184085476316F70008
:101670002320040023260400850993F9F90FCD47A0
:10168000E3FB37E98144B9491385340C42054181B4
:10169000EFF0AFDDAA8513F5F40F8504EFF09FBFDF
:1016A000E39434FF1305100DEFF02FDC2306010245
:1016B000A306010223070102A307010249C58545CC
:1016C000EFF00FFB131C05011306A1032C182A8D44
:1016D0003D45EFF0FFB55018930561034D45EFF020
:1016E0003FB51018930521035D45EFF07FB4835794
:1016F000A10303558103135C0C011D8DEFA0C06E87
:10170000DE85EFA06001AA8C1545EFF00FD60356D9
:1017100041038354010383592103835661036315F5
:10172000052A63E4990063F0C60262C266C09308AA
:10173000D1021308C1029307F1021307E102CE851B
:101740002685EFF05FBC8346D1020346C102834584
:10175000F1020345E102EF00902713050021EFF0AD
:10176000EF949377F50F014591CB1385F7FF137530
:10177000F50F130595060605EFF04F93EF00F04CBB
:101780008149EF00905641BB8145EFF06FEEAA858D
:10179000054613D50401EF005039E9B5054D631036
:1017A000A50D93B71400232EF9021C40370C00201E
:1017B000130C8C626398A70083470C0085E08507B3
:1017C0002300FC0003450C00A14763FEA7048547E6
:1017D0002300FC000145EF00303369B519476387EA
:1017E000E702636DF700F9DFFD1735678A07130716
:1017F0000735BA979C4323A0FC00E9B72147E39340
:10180000E7FCEFF0BF8123A00C006DBF89451305F5
:10181000D01DEFF06F8889451305F01DEFF0CF87DD
:1018200023000C0045B79D47631CF50081457545B5
:10183000EFF00FE4AA8501461565EF00102F59BFA0
:10184000B307F5023565130545363E950348650037
:101850005C315821343130210C31082179B3938720
:10186000F4FF93B71700232EF902994763FCA702F0
:1018700065151375F50F131715009387C184BA9773
:101880008623EF00405CEFA0A04AA945B305B5024E
:1018900005462685EF0070291C40E38507DC23A060
:1018A000AC01C9B3B70C002003C79C621C40938CE9
:1018B0009C62631CA705E38707DA2320EC002380E2
:1018C0000C008D476394F40483260C008547238025
:1018D000FC00F51693B7260093C71700139717005F
:1018E00093874185BA9786238547014563F3D700DF
:1018F00009451305D51D42054181EFE03FFBAA854F
:1019000001462685EF00702211A0C5FF83C70C0099
:10191000E39A07D483240C0093F71400B9CFF5148D
:101920003335900093141500B3879A0083DC0700C9
:1019300081455905EFF0CFD3AA8505466685EF00AE
:10194000D01E1C40E38007D25C4405476398E70043
:1019500083270C0085072320FC0029B3E39407D0DC
:101960009384D41D2685EFE07FF493051500C2050E
:10197000C1812685EFE0DFF0F5B1F114B3349000BA
:1019800093971400D29783DC070081451385640187
:10199000EFF00FCEAA8505466685EF0010191C40B2
:1019A000E38207CC5C4405476396E70083270C007D
:1019B000FD1755B7E39807CA9384D41D2685EFE039
:1019C000FFEE9305F5FF65B713150D01418136CE86
:1019D00032CCEFA06041E685EF90D017EFA0603BDE
:1019E0001378F50F6246F24663E4990063F1C6028C
:1019F00042C062C29308D1021308C1029307F102E8
:101A00001307E102CE852685EFF01F9C2DBBE288EF
:101A10009307D1021307F102CE852685EFF07FA050
:101A20001DB3EFE2DFAF37150000154685451305FE
:101A300005D637140140EF30304C8564938504C2DD
:101A4000130504C0EF30E060370618009146130616
:101A50000610A145130504C0EF30206291460146EF
:101A60009385048013050480EF3020619305F00412
:101A700013050480EF30805BE14601469305000AC0
:101A800013050480EF30605FA965E14601468D05CE
:101A9000130504C0EF30605EC14513050480EF30CC
:101AA000605693850401130504C0EF30A055E1464C
:101AB00037461D0093050020130504C0EF30E05B9E
:101AC0009306800437461D0093050010130504C0DB
:101AD000EF30A05AF14601469305000C130504C0EF
:101AE000EF30A059B7450F00B1461306803E9385ED
:101AF00005240945EF30B07D0945EF30B06C8145D4
:101B00000145EF00D01581450545EF0050159304C0
:101B100004C0930500022685EF30E0597DD9EF20FF
:101B2000204A85450145EF30505085450545EF3049
:101B3000D04FB7260000B7450F008D470547938665
:101B4000E65013064006938505240D45EF30F06FEF
:101B50000D45EF303067EF402022375500400546F5
:101B6000854513050540EF301017C145130504C026
:101B7000EF3020553765004013050540EFE0FFA822
:101B80006FE03F9CEFE2BF9981450145EF00300DCA
:101B900081450545EF00B00C0D45EF30106405455B
:101BA000EF3050620145EF30F0616FE09F9937F7F9
:101BB00000E0832707D1B7060080D58F2328F7D010
:101BC0008280EFE2DF95372501408145130505400E
:101BD000EF10500F3705002003250564B7070020DC
:101BE000138487640147938787648D46054689453A
:101BF00023200400EF60E0151C4091C7B7E700E028
:101C0000116723A0E7206FE0DF93EFE25F913704D5
:101C10000240130544048145EF10F03EBD45130515
:101C20004404EF10903F0145EF20A0648545130563
:101C30004404EF10503D6FE0DF90EFE25F8E370419
:101C40000240130504088145EF10F03BBD45130524
:101C50000408EF10903C0545EF20A0618545130571
:101C60000408EF10503A6FE0DF8DEFE25F8B894799
:101C70006308F5008D476300F50201456FE07F8C36
:101C80009305004037150140130505C0EF30A04211
:101C90001375F50FE5B793050002EDB7EFE23F8846
:101CA00091E937150140C145130505C0EF3060418A
:101CB0006FE03F8937150140C145130505C0EF307E
:101CC0000041FDB737050020130505648280EFE26F
:101CD0001F85EF50B02CB707002023A2A764B707D9
:101CE000002003A5076401478D4611468145EF504A
:101CF000D06B6FE01F85EFE29F8203A70187938778
:101D00000187DC2301113008954501453ACC230EAB
:101D1000F100EF209011EF20A049B72700002A879B
:101D2000938727BCB7260140370502403EC08D4847
:101D3000054881479386C644054681452105EF2025
:101D4000F07905616FE0EFFFEFE26FFA4111EF20EC
:101D500020462A841309E501AA8403950400890416
:101D6000EF209008239FA4FEE39924FFB7D700003B
:101D7000B7D9000037DA000083AB473BB7D7000084
:101D8000832ACA3A03AB093B03AC873B9384C1BFA8
:101D900001493E244A288D4DA6853E951E20137D7F
:101DA000F90F3E953355B503938C81C042054181AF
:101DB000EF60E04E6307BD0791476309FD04EFA0A4
:101DC000000F8325CA3A131D2900669DEF90D01499
:101DD00083A5093BEF905014DE852AC6EF90D013FF
:101DE000B247AA8D03A50C01BE85EF90F03BAA85F2
:101DF0006E85EF9020562320AD0005099547090414
:101E00008904E318F9F841016FE02FF2EFA0200AEE
:101E1000D685EF907010DA85EF90101023A8AC00F3
:101E2000E9BFEFA0C008E285EF90100F83A5093B42
:101E3000EF90900EB7D7000083A5C73BEF90E01A54
:101E400023A6AC005DBF0A05938781C0AA9788438B
:101E50008280EFE2CFE983A7C18139718149D843FC
:101E600081479306471491C60327C71419C39307E4
:101E7000C700370A0020232EFA62B7D7000083AAD2
:101E8000073CB7D7000003AB473CB7D7000083AB94
:101E9000873C81440544130ACA63372C0000DE8C5A
:101EA000054909479147630E2403630F041863092A
:101EB000E41AE31AF4FEEFF0FFCCEF10603CEFE021
:101EC0009FF12945EF50C04B37150140C14513051F
:101ED00005C0EF30C01F0544EFF07FCDD1B71144EE
:101EE000C1B77D5734081306F00F81450145EF5007
:101EF000B03DE247918BCDD7EFF0FFDFA9474C1003
:101F00003EDA3ED80D459307ACC63EDE22D4EF2024
:101F1000602C1305B020EFE05FD57D15133515005B
:101F20002AD44C100945EF20E02AB72700009387F8
:101F3000C7C96C0801453ED022D4EF200028138485
:101F4000C1C41385C1C4EF60203B13050401EF60D9
:101F5000A03A1384C1C1D6851385C1C1EF60203773
:101F600013058400D685EF6080361384C1C2DA85FC
:101F70001385C1C2EF60C03713050401DA85EF6035
:101F8000203781450145EF20602985450545EF2033
:101F9000E0283D64130604A6A1469305007D014593
:101FA000EF309040130604A689469305007D054551
:101FB000EF30903F0145EF204033B7270000370452
:101FC00002409387A7C0B73601402A878D4805484D
:101FD000938606C405468145130544043EC08147E7
:101FE000EF20D04F0545EF204030B7270000938702
:101FF000A7C3B70600402A878D4805489386860305
:102000000546130504083EC081458147EF20104D69
:1020100013050408BD45EF10500013054404BD45E9
:10202000EF10A07F130544048545EF10C07D854562
:1020300013050408EF10207D0145EF30B018054569
:10204000EF3050180144A9BDB707002003A547642D
:102050000147894601468145EF503035094489B52D
:10206000EF200015AA85370502403D462105EF20E7
:10207000B056EFE00FFC0545EF50803001473408C3
:102080001306F00F81450945EF5010240589E30937
:1020900005E0EFF07FCBEF200035638A2409ADC85F
:1020A000E39084E03709002013094963494DD94D75
:1020B00085456A85EFE0DFDB8357090042054181F2
:1020C0006385A7002310A9008549050D0909E311BF
:1020D000BDFF03A541C1E685EF90E052E351A0E0CA
:1020E0000D45EF206012E30C05DE4C100145EF209A
:1020F000602889476313F50085494C100545EF209A
:1021000060278947630AF50463980904814949BB3C
:102110000D45EF20600FE30505D803A541C1DE851D
:10212000EF90604E1345F5FF9354F50195BB0945BB
:10213000EFE0BFB3AA8501451D260D45EFE0FFB2D4
:10214000AA850545292E37150140C145130505C04F
:10215000EF2030778944A9B383270A00C5DB982391
:10216000759B98A365B7EFE28FBB37050240130557
:102170000503EF2030350145EF30807305440145FC
:10218000EF302074E30D85FE37150140C14513057E
:102190000580EF2010736FE0CFBAEFE24FB837053C
:1021A000024013058505EF20F0310545EF30407002
:1021B0000545EF3000718547E30CF5FE371501400A
:1021C0008565130505C0EF20D06F6FE08FB7854799
:1021D00006063396C700060589473395A7000147D1
:1021E00081476312B702139507014181C18381457D
:1021F00001476390D502598D41839386C1C6D98F1B
:10220000EAA29EA682800507C98F1377F70F0A05F9
:10221000C9BF8505518F93F5F50F0A06D9BF3567FC
:10222000130747412A971423B567938747421397AB
:1022300016009386C1C6BA9613878185BA95AA9768
:102240009C2303C7F5FF039806003317F700931785
:1022500007010547C1876316E600B367F8009EA231
:10226000828093C7F7FFB377F800D5BF994763EC37
:10227000A708B5679387C73C0A053E951841B7077D
:1022800000209387C76402879A2393D65500AE0532
:10229000719B558F9AA3BA231377F77F4D8FBAA3FB
:1022A0008280BA238E05137737C0CDBFBA2393D669
:1022B0004500B205619B558FBAA3DA2352075183BB
:1022C0004D8FDAA38280DA23FD76FD06758F9605A1
:1022D000C5BFDA2393D62500FD8A019B558FDAA36B
:1022E000FA23BA054A0749834D8FFAA38280FA235D
:1022F000F1769386F607758F9E05FDB7FA2313775F
:1023000007F8D98DEEA38280370700209307C764B2
:10231000BE231307C76409C593E707403EA3828025
:1023200093F7F7BFC207C183D5BFEFE2CF9C41113E
:102330002A89AE84014B63D50500B304B040054B38
:10234000B7470F009387F72337871E00A697130719
:10235000E7476365F704E1679387F7693717030079
:10236000A6971307E7D3636FF70A89679387F77018
:102370001567A6971307E7E16369F70A9387743E29
:102380001307E07C6366F70A938734061307600C33
:1023900089498D4A6366F700894A19A081499D4A97
:1023A000B56B014A938B8B40294CB3E7840352856C
:1023B00013041A0032C61374F40FDE978C23EFF067
:1023C000FFEA3246B3C4840363978A063285EFF08E
:1023D000BFF3630B0B0022859305000413042A004E
:1023E000EFF0DFE81374F40F994463F8840489472D
:1023F0006397F902B70700209387C764EA237177D0
:10240000798D135789001377F707598D11671E09C6
:10241000130707F83379E90033652501EAA3410181
:102420006FE0EF908549994AA5BF8949954A8DBFCC
:102430008949914AB5B7228A8DBF22858145050415
:10244000EFF0DFE21374F40F4DB7370700201307E6
:10245000C7641E230A058D8BC98F1EA38280EFE2FD
:102460000F8C2E87A14511E19145B567060793872B
:10247000873EBA9792230945EF30300581450945DB
:10248000EF30100D6FE0EF8BEFE26F89B7270000A0
:102490004111370402409387A71937070020B74638
:1024A00000403EC01305840589480548814713074D
:1024B000C7649386C68005468545EF203002B7275E
:1024C000000093876716B73601403EC0894805482B
:1024D0008147138781C7B106054685451305040367
:1024E000EF20C07F41016FE0CF85EFE24F833715CA
:1024F00001408565130505C0EF20703D370502409A
:10250000914513058505EF20A07C6FE08F83EFE2F6
:102510000F8129469385C1C6138581C7EF90502E40
:10252000B707002003D747659306700C938747656C
:1025300005074207418363E9E6089AA38A239307C4
:10254000700C63F6A708938781C796276D771307EA
:10255000A7AA758F94433776F6DB130666DBF18EF8
:1025600094C3D4433776AAAA130666DBF18ED4C38C
:102570009AA7938781C783D887009566904313886D
:102580005655337818013717C927B768EDB79388C0
:10259000D8B613079724718F3376160190C3D043B2
:1025A000B76855559388D8B633761601CE23239451
:1025B0000701D0C313065009637FA60093869624B3
:1025C000ED8E98C3D6A301A82390070085BF93077B
:1025D000F004E3E0A7FA37150140C1451305058073
:1025E000EF20F02E37050240954513050503EF2037
:1025F000206E6FD01FF5EFD29FF2EF007033EF50D7
:10260000B057EFF00FC2EF007059EF003049EF40C4
:10261000902001A0828099677390078001A0EFD27B
:102620001FF09C2141116147DC876360F7028547F9
:102630009CC2482905469305F1001305250CEFE0DF
:102640006FE3014541016FD0DFEF4145E5BFEFD2B8
:102650001FED85479CC2C829411132C61305250CC0
:10266000EFE0AFE0324608A2014541016FD07FEDB7
:10267000EFD2FFEA85479CC248292E848145610537
:10268000EFE00FFF08A001456FD0BFEBEFD23FE9AD
:1026900005469C2190C258294111DC87630DC70073
:1026A00089466304D70205469305F1001305A0206F
:1026B000EFE04FDC29A03E85EFE0BF9919E101452D
:1026C00011A0414541016FD0DFE73E85EFE09F99C2
:1026D000F5B7EFD23FE39C2123A00600402941112A
:1026E000DC870549B684630C240331C40D47636459
:1026F0008704AA893D456361F50285451305E4FF1A
:10270000EFF0FFD503C5490105469305F100EFE061
:102710006FD623A02401014541016FD0FFE11D4781
:102720003D45E36BF7FE05469305F1000545EFE0F7
:102730006FD480C0CDB705443D45E36FF4FC05463A
:102740009305F1001305B020DDB71C2141115C8712
:102750001C31DC87288741018280EFD25FDC0111C8
:102760002A842E8536C6EFF05FFEB2468947E88799
:102770009CC25C280547639BE700AA8513050021DE
:10278000EFE00F90014505616FD0BFDB1385770641
:1027900009469305E1010605EFE0CFCDE5B7EFD29D
:1027A0001FD801112A842E8536C6EFF01FFAB246D3
:1027B0008947E8879CC248289305E1010946060538
:1027C0004505EFE02FCB014505616FD09FD7EFD2D4
:1027D0001FD501112A842E8536C6EFF01FF7B246A9
:1027E00089471375F50F9CC2E88748289305E101D6
:1027F000094606051305B51DEFE0CFC70145056184
:102800006FD03FD4EFD2BFD14111AA8511466800E5
:10281000EF90007F324541016FD0BFD2EFD23FD061
:1028200001112A842E8536C6EFF0DFFDB2469147AE
:102830002ACE9CC248286C081146130585070A0554
:10284000EFE04FC3014505616FD0BFCFEFD23FCD61
:10285000AA84DC283D472E853684636DF7008547C2
:102860008C219CC2C82813051521EFE04F82014539
:102870006FD03FCD4547636FF700EFF01FED8947FD
:102880001CC0DC28AA859387F71013951700EFD09A
:102890003FFFF1BFEFF01FF791471CC0EFE0AFDC47
:1028A000F9B7EFD2DFC791479CC25C290D474111B0
:1028B000639FE7002E85EFF0FFF4488605466C0025
:1028C0003945EFE02FBB014541016FD09FC711454E
:1028D000E39CA7FE2E85EFF0FFF22AC611466C009E
:1028E0001305C020F9BFEFD29FC301112A8432859E
:1028F0002EC636C4EFF07FE5A246B24589479CC29A
:10290000E887882109469305E1017D150605229592
:1029100042054181EFE00FB6014505616FD07FC2EE
:10292000EFD2FFBF2E86930545016D45EFF0BFFB4B
:102930006FD03FC1EFD2BFBE2E8693054501130570
:102940007002EFF05FFA6FD0DFBFEFD25FBD2E866F
:102950009305450113053003EFF0FFF86FD07FBEFC
:10296000EFD2FFBB2E86930545011305F003EFF070
:102970009FF76FD01FBDEFD29FBA2E8693054501FA
:102980001305B004EFF03FF66FD0BFBBEFD23FB9F5
:102990002E869305450113057005EFF0DFF46FD027
:1029A0005FBAEFD2DFB72E869305450113053006D7
:1029B000EFF07FF36FD0FFB8EFD27FB62E8693058E
:1029C00045011305F006EFF01FF26FD09FB7EFD26D
:1029D0001FB52E86930545011305B007EFF0BFF034
:1029E0006FD03FB6EFD2BFB32E86930545011305D6
:1029F0007008EFF05FEF6FD0DFB4EFD25FB22E86DA
:102A00009305450113053009EFF0FFED6FD07FB35B
:102A1000EFD2FFB02E86930545011305F009EFF0C4
:102A20009FEC6FD01FB2EFD29FAF2E86930545016A
:102A30001305B00AEFF03FEB6FD0BFB0EFD23FAE5F
:102A400085479CC2482991472E84631AF5001305D7
:102A5000B020EFE08FA108A001456FD09FAE3305F5
:102A6000A04042054181F5B7EFD27FAB1C2105475D
:102A700041112E846391E7020D453306A6029CC2E4
:102A80001305460E42054181EFE02F9E08A0014547
:102A900041016FD01FAB09476391E7020D45330633
:102AA000A6029CC21305560E42054181EFD01FE0DD
:102AB0009357850008A01CB0D9BF91479CC208213C
:102AC000B7070040F5173E95D1473306F602329519
:102AD0000A051305D50E42054181EFD03FDE2AC617
:102AE00011466C002285EF90A05155B7EFD23FA35D
:102AF00001465105EFF05FF76FD0BFA4EFD23FA2C0
:102B000005465105EFF05FF66FD0BFA3EFD23FA1AE
:102B100009465105EFF05FF56FD0BFA2EFD23FA09D
:102B2000054798C25C292E84638CE700094713058A
:102B300090206384E7001305A020EFE00F9319A015
:102B4000EFE0CFD008A001456FD0BF9FEFD29F9B91
:102B50000349050085474111AE843284368A631CDF
:102B6000F9028C213285EF104053BD470DE10D4530
:102B70003305A4029C20054623202A015C8413050A
:102B8000450E42052C004181EFE0CF8E81473E8506
:102B900041016FD07F9A8947631FF9002E85EFF0BE
:102BA000DFBA68840D453305A40223202A010946B3
:102BB0001305550EF9B7AA892E85EFF0BFC49147CA
:102BC0002320FA002AC203C50900B7070040F51701
:102BD0003E95D147B307F40211464C003E950A05D5
:102BE0001305D50E42054181EFE0CF88924413953D
:102BF00004014181EF90A02B2AC613D50401EF9068
:102C0000002BB7D7000083A5472DEF80A07403C623
:102C100009002AC42C007D16420641822285EF104D
:102C2000E05281472DD5BD479DB7EFD25F8F01465A
:102C30005105EFF0BFF16FD0DF90EFD25F8E054608
:102C40005105EFF0BFF06FD0DF8FEFD25F8D0946F7
:102C50005105EFF0BFEF6FD0DF8EEFD25F8C894769
:102C600001111CC22EC6EFD07FC4B2459357850018
:102C700088A19CB1014505616FD0BF8CEFD23F8A1E
:102C800036866D45EFF07FFD6FD0BF8BEFD23F8969
:102C9000368613057002EFF05FFC6FD09F8AEFD28B
:102CA0001F88368613053003EFF03FFB6FD07F8916
:102CB000EFD2FF8636861305F003EFF01FFA6FD0D0
:102CC0005F88EFD2DF8536861305B004EFF0FFF89A
:102CD0006FD03F87EFD2BF84368613057005EFF0C3
:102CE000DFF76FD01F86EFD29F833686130530063D
:102CF000EFF0BFF66FD0FF84EFD27F8236861305E8
:102D0000F006EFF09FF56FD0DF83EFD25F8136865C
:102D10001305B007EFF07FF46FD0BF82EFD23F8092
:102D2000368613057008EFF05FF36FD09F81EFD206
:102D30000FFF368613053009EFF03FF26FD07F802A
:102D4000EFD2EFFD36861305F009EFF01FF16FD0DB
:102D50004FFFEFD2CFFC36861305B00AEFF0FFEF3E
:102D60006FD02FFEEFD2AFFB89479CC248292E843B
:102D7000411185454505EFE0AF8F9357850008A0C9
:102D80001CB0014541016FD0CFFBEFD24FF9914705
:102D90009CC2482941112E84130585070A05EFD0EE
:102DA000FFB12AC66C0011462285EF9060250145CF
:102DB00041016FD00FF9EFD28FF689479CC24829A5
:102DC00001112EC606051305B51DEFD03FAEB24565
:102DD0009357850088A19CB1014505616FD06FF6BE
:102DE000EFD2EFF389479CC2482901112EC6060590
:102DF0004505EFD0BFABB2459357850088A19CB184
:102E0000014505616FD0EFF3EFD26FF191479CC29E
:102E10005C29094741112E846386E7020D476387C9
:102E2000E70205471305C020639FE700EFD0FFFBD3
:102E30002AC66C0011462285EF90801C0145410195
:102E40006FD02FF01945EFD07FA7DDB73945EFD010
:102E5000DFE1F9BFEFD2AFEC89479CC24829854733
:102E600041112E84631EF50013050021EFD01FA42D
:102E70009357850008A01CB0014541016FD06FEC4D
:102E8000130575060605DDB783A7C181DC431387EB
:102E9000C71271EB35671307474923A0E71413875F
:102EA000471471EB35671307474A23ACE7141387C0
:102EB000C71571EB35671307475A23A8E716138721
:102EC000471771EB35671307475223A4E718138799
:102ED000C71871EB35671307475423A0E71A138708
:102EE000471A71EB35671307475623ACE71A138768
:102EF000C71B71EB35671307475823A8E71C1387D7
:102F0000471D71EB35671307474D23A4E71E138751
:102F1000C71E71EB35671307474F23A0E7201387C0
:102F2000472071EB35671307474723A2E722138732
:102F3000872271EB35671307474C23AEE7221387CF
:102F4000072471EB35671307474323AAE724138748
:102F5000872571EB35671307474523A6E7261387B7
:102F6000072771EB828035671307475D23AAE712B5
:102F70001387871305F335671307474623A6E7141E
:102F80001387071505F335671307475C23A2E71678
:102F90001387871605F335671307475123AEE716E6
:102FA0001387071805F335671307475323AAE71854
:102FB0001387871905F335671307475523A6E71AC3
:102FC0001387071B05F335671307475723A2E71C31
:102FD0001387871C05F335671307475923AEE71C92
:102FE0001387071E05F335671307474E23AAE71E0D
:102FF0001387871F05F335671307475023A6E7207C
:103000001387C72105F335671307474B23A8E7222A
:103010001387472305F335671307474823A4E7249D
:103020001387C72405F335671307474423A0E72612
:103030001387472605F335671307475B23ACE7265D
:1030400015B7B71702409843B706FFF84111136749
:10305000170098C3D84337060200758FD8C398432A
:10306000B706F7FEFD16758F98C39843B706FCFFA9
:10307000FD16758F98C3D843B70681FFFD16758F6F
:10308000D8C337079F0098C702C402C69843C166D9
:10309000558F98C3B716024005679C42F18F3EC614
:1030A000A24785073EC4B24781E7A247E397E7FE00
:1030B000B71702409C431397E700635907068547FB
:1030C0003EC6324785476311F706B7170240D8431B
:1030D000B706C1FFFD1613670708D8C3D843D8C386
:1030E000D84313670740D8C3D843758FD8C3D84394
:1030F000B7063D00558FD8C39843B7060001558FDA
:1031000098C3984393166700E3DD06FED843B716CD
:103110000240719BD8C3D84313672700D8C3214707
:10312000DC42B18BE39EE7FE4101828002C651BFC3
:10313000B7160240DC42370700201146B18B130757
:1031400087586385C70021466388C702B7177A008E
:10315000938707201CC3B7170240DC43918393F683
:10316000F700B707002093870700B69794231C4306
:10317000B3D7D7001CC38280DC42D4424166C983E6
:10318000BD8BF18E890745466393C700C94781EE21
:10319000B746024083A60680C18A89CEB7167A0058
:1031A0009386062021A8B7160240D4421396E60063
:1031B000E35606FEB7163D0093860690B387D70206
:1031C00051BFEFD22FB4C164411137090020094427
:1031D0000D4A8D4AFD148327896593098965638E9D
:1031E000870463804703E5FFEFD00FEFEFF0CFA92F
:1031F000EFE0FFADEFE04FA9EFF01FC923A05901A9
:10320000D9BF7D577400014681450145EF40D00B81
:10321000B247E39287FC268681450145EF40705115
:10322000EFD06FBD0841EF30F054EFD06FBD0841D3
:10323000EF30505423A0890079BF1305401FEF40A1
:103240002014EF20903241BFB73700209387478882
:103250001CC1B7270020938747489CC193070008EB
:103260001CC28280B7370020938747921CC1B727C2
:103270000020938747689CC1930700081CC2828086
:10328000EFD2EFA9EFD0CFB70841EF40201EEFD02B
:103290008FB60841EF40801D6FD0AFAAEFD22FA8A4
:1032A000EFD0DFBB2A8437280020B7270020B7D50E
:1032B00000003715000013084819938747D91947AC
:1032C0008546130600109385455E1305054BEF30C8
:1032D000104008C0EFD0CFB22A84B7D50000370520
:1032E000000013884108938741C81147854613069B
:1032F00000109385055F1305657AEF30503D08C0D7
:10330000EFD06FAF2A8437280020B7170020B7D539
:10331000000037050000130848AE938747E61547BD
:103320008546130600329385056013054561EF302D
:10333000103A08C0EFE01F992A8437280020B727E9
:103340000020B7D50000372500001308C8D39387A5
:10335000C7B32147854613060008938545611305C9
:1033600025E5EF30D03608C037280020B7270020E9
:10337000B7D50000373500001308C83E9387C71E35
:103380002547854613060008938505621305251C0D
:10339000EF30F033EFF0DFEE6FD0AF9AEFD22F982F
:1033A000EFD08FC8B7360020372600202A84014787
:1033B0009386C68D1306464491454145EF308007FC
:1033C00008C06FD00F9801A001A001A001A001A02A
:1033D00001A001A001A001A001A001A001A001A0E5
:1033E00001A001A001A001A001A001A001A001A0D5
:1033F00001A001A001A001A001A001A001A001A0C5
:1034000001A001A001A001A001A001A001A001A0B4
:1034100001A001A001A001A001A001A001A001A0A4
:1034200001A001A001A001A001A001A001A001A094
:1034300001A097E1FF1F93816195172100201301DF
:1034400061BC17B500001305A51A97D5FF1F93851A
:1034500065BB1386818763FAC5008322050023A01C
:10346000550011059105E3EAC5FE17D5FF1F1305A9
:10347000651997050020938525FB6377B500232008
:1034800005001105E36DB5FEFD42739002BC894253
:1034900073904280B72200009382028073A00230B2
:1034A00097D2FFFF938282B993E232007390523039
:1034B000EFF03FB997F2FFFF93822214739012341A
:1034C000730020301C4589C593E717001CC5828016
:1034D000F99BEDBF1C4589C593E707101CC5828089
:1034E00093F7F7EFE5BF08450D8105898280084510
:1034F0000981058982801C4591C537075000D98F05
:103500001CC582803707B0FF7D17F98FD5BFA5474F
:1035100063F7B7048D47138765FF3307F702032866
:10352000C5009D47B397E70093C7F7FFB3F70701BF
:10353000B396E600DD8E54C5994763E3C70495470B
:103540007D163306F6025859FD47B397C70093C757
:10355000F7FFF98F3396C5005D8E50D982800D47F5
:103560003387E502032805019D47B397E70093C71A
:10357000F7FFB3F70701B396E600DD8E14C96DBF00
:10358000B14763E2C702954765163306F60218593C
:10359000FD47B397C70093C7F7FFF98F3396C50070
:1035A0005D8E10D9828095474D163306F602585528
:1035B000FD47B397C70093C7F7FFF98FB395C500D1
:1035C000DD8D4CD58280A18193C5F5FF0CC1828031
:1035D000EFC2FFF401112A8423030100A5441C83D8
:1035E00063FAF40623030100A54621461C8363F019
:1035F000F60A231401002315010023030100954658
:10360000130600601C8363FEF60E1C8393F7F70F0E
:1036100063840712388414833C840C8310833347FB
:10362000D702B3E7B7028607B3C7C702BA97C20784
:10363000C1837C84188399479546998F93F7F70F38
:10364000DC839C8393F7F70F639C07108567938750
:1036500007800DAA1C4493E787001CC42285EFF065
:103660009FE86DFD1C4493E747001CC42285EFF0E2
:103670001FE86DFD78441C8314108607B6972396C7
:10368000E7FE1C83850793F7F70F5C8389BFA303CD
:1036900001009C836378F6001C83850793F7F70F7E
:1036A0005C83A9B798839C830C100607850786075F
:1036B0002E97AE970357C7FE83D7C7FE63FDE70279
:1036C0009C838607AE9783D7C7FE7C849C839883B0
:1036D00085078607AE9783D5C7FE93171700181086
:1036E000BA972396B7FE9C8338840C10850786070B
:1036F000AE972396E7FE9C83850793F7F70FDC834D
:1037000049BF1C83181089078607BA9783D7C7FE5D
:10371000E36DF6EE1C830C10388489078607AE979C
:1037200083D7C7FEBA97C207C1837C841C838507F1
:1037300093F7F70F5C83F9B593070040DDBD1C8359
:103740001010388589078607B29783D7C7FEBA97C6
:10375000C207C1837C851C83850793F7F70F5C83C1
:103760001C83E3FEF6FC388594833C858C83908330
:103770003347D702B3E7B7028607B3C7C702BA9782
:10378000C207C1837C85288434852C8430850567F5
:1037900093070040130707803385A740B306D7403F
:1037A0008D8F118F4205C206C2074207C18641872D
:1037B0004185C1873695BA9789463345D50205615B
:1037C000B3E7D7023E95420541856FC09FD71C41A4
:1037D00061773D0794517D8F9C45D58F9449D58F56
:1037E000D449D58F944DD58FD44DD58FD451D58F05
:1037F0009455D58FD98F1CC1DC455CC19C411CC53B
:10380000DC415CC582801C4189C593E717001CC15F
:10381000828041677917F98FDDBF4CC18280B7077D
:1038200002409C437D8D3335A0008280EFC23FCFA4
:10383000EFF0FFFE6FC0FFD0B7070240C8C3828021
:103840009C4513F7070113F8F70001C7D841336807
:10385000E80037270240145B3707000F758F5DEBD8
:10386000370700208546230ED764371701406315BC
:10387000E5009A2135839AA18E2113F7F50F39C3FC
:1038800018418146854E3D4F930F8002930280047C
:10389000214E3396DE00B3F8C500631116039398EA
:1038A000260033131F011343F3FF3377E300B318EC
:1038B000180133E7E8006399F70750C98506E39AD2
:1038C000C6FD18C11307F00F6375B70454412146B4
:1038D000854E3D4F930F800293028004414EB39872
:1038E000CE0033F715016392E80213172600011783
:1038F0003313EF001343F3FFB376D3003317E8001D
:10390000D98E6397F703232A15010506E319C6FD2F
:1039100054C1828037170140E310E5F637070020D5
:103920000347C76531DBB1B7E39A57F810C979B7D8
:10393000E39D57FC23281501C9BFB7170140631841
:10394000F500B707002083C7C76591C3B581084557
:103950006D8D3335A0008280B71701406318F500E4
:10396000B707002083C7C76591C3B5810CC98280A2
:10397000B71701406318F500B707002083C7C76574
:1039800091C3B5814CC98280B7070140635A0504D1
:10399000DC4F93560501131805013707300013F665
:1039A000F60013580801B376E500635E05066399D7
:1039B000E604930606010D46B316D60093C6F6FF3D
:1039C000F58F99C9135755011377F73F120733172E
:1039D000E800D98F63550506370701405CCF828028
:1039E00037270240145BDC433707000F758F55F310
:1039F00013D71700F976CE07758FCD83D98F51BFB6
:103A00001317B500635607008D46B396C6007DB701
:103A1000135755011377F73F12073317E800134781
:103A2000F7FFF98F79BF6390E602370601405442F1
:103A3000370700F17D17F98F758F58C2C1F5370729
:103A400001405CC382801317B500635C07008D469C
:103A5000B396C60093C6F6FFFD8EB707000FD58F4D
:103A6000F1BF1357550112073317E8001347F7FF4B
:103A70007D8FB707000FD98FD1B71E2189C593E776
:103A800017001EA18280C207C183F99BC207C183B0
:103A9000CDBF1E2189C593E707101EA18280C207F2
:103AA000C18393F7F7EFC207C183C5BF1E2189C544
:103AB00093E707201EA18280C207C18393F7F7DF37
:103AC000C207C183C5BF1E2189C593E707401EA158
:103AD0008280C207C18393F7F7BFC207C183C5BF06
:103AE0005E2589C593E717005EA58280C207C18362
:103AF000F99BC207C183CDBF5E2101C6DD8D4EA1FA
:103B0000828093C5F5FFFD8DDDBF0EA982800A2955
:103B10001375F50F828093F7E50F19C293E715002F
:103B2000C207C1831EA98280411102C62AC6B247BC
:103B3000BE952EC6B2478A23410182805E290A2D96
:103B400042055D8D6D8D220521810D8D133515008A
:103B50008280411102C402C693D7C5012AC63EC461
:103B6000A247A205A18199CBB247D1073EC6B24771
:103B7000884341016D8D3335A0008280B247C181F9
:103B8000E107EDB793C5F5FFC205C1814EA982805B
:103B9000B717024023800702238007020547630608
:103BA000E50011476306E50082802380A70282803A
:103BB00015472380E7028280371702405C43914615
:103BC000B18B6385D700A1466382D706B7177A0009
:103BD000938707201CC1371602405C42370700203C
:103BE000130707019183BD8BBA9794231C41B3D768
:103BF000D7005CC15442A1829D8ABA969422B3D662
:103C0000D70014C55442AD829D8A36971823B3D786
:103C1000E7005CC5584239839376370013874180AB
:103C200036971823B3D7E7021CC982805C435843F8
:103C3000C166C983BD8B758F8907C5466393D7005D
:103C4000C94701EF3747024003270780418B09CF5F
:103C500037177A001307072021A837170240584367
:103C60009316E700E3D606FE37173D0013070790CB
:103C7000B387E70285B799C5371702401C4F5D8DA2
:103C800008CF8280B7170240984F1345F5FF798D12
:103C900088CF82809357550005476399E700B7178F
:103CA00002409C4333D5A70005898280094763966B
:103CB000E700B71702409C53F5B7B7170240DC5333
:103CC000D5B7B737004003D7478013670701239262
:103CD000E78082803737004083574780C207C1831F
:103CE000BD9BC207C1832312F7808280EFC23F834E
:103CF00041112AC6EFF0FFFC3245B7370040135799
:103D000005013D8B42052394E78041812396A780DE
:103D1000EFF05FFC41016FC0DF823737004083570F
:103D2000478093F70702E5DF8280373700408357EB
:103D30004780C207C183DD9BC207C1832312F7807E
:103D40003737004083574780A18BEDDF82801E31DB
:103D5000922103D82500C207C183F99BC207C18302
:103D60001EB11E3156211A2DC207C183420741835D
:103D70001377C7F8518F9225F59BC206336606016B
:103D8000D18F37360140130606C0C1826310C502C9
:103D9000B225DD9B03D8E500D18FD221ED9B93F6B0
:103DA000F6CFD18FD22533660601D18E56A11AAD3A
:103DB000FA215AB91EB182801E3165771307F7CFF9
:103DC000C207C183BD9BC207C1831EB11E315621EC
:103DD00003D88500C20713960601162DC18393F7F9
:103DE000F7FD758F96214182A206558FB6214207B5
:103DF0004183B3E606019206D58FB7360140C2076C
:103E0000938606C0C183631ED502B62593F7F7F7E4
:103E100003D8C5009206D58FD621C207C18392066A
:103E200093F7F7FBD58FFD769386F63FF18EF2255B
:103E3000C207C183336606010A06D18E13960601B6
:103E4000418252A11AADFA211ABD1EB182801E31E3
:103E500003D88500C207C18393F7F7EFC207C18378
:103E60001EB11E3156215A2DC20713960601420774
:103E7000962141831377C7F8558FB621C18393F7F5
:103E8000F7DFB3E60601A206D58FB7360140C207B9
:103E9000938606C04182C183631FD502FD76938657
:103EA000F67FF58FB62503D8C500A206D58FD6219B
:103EB000C207C183A20693F7F7BFD58FF576FD162B
:103EC000F18EF225C207C183336606011206D18E38
:103ED00013960601418252A15AADFA215ABD1EB174
:103EE00082801A31FD77FD17F98F1EB10358050244
:103EF00056215E2D657792211307F7CF7D8FF977D5
:103F00002206FD17518FB3F70701B22103D88500B0
:103F1000C2064207336606013206D18F37360140AA
:103F2000C207130606C0C1824183C183631AC5005C
:103F300071767D16F18ED2251A06D18EC206C18207
:103F400056A15AADFA212310E5041EB182801E2D20
:103F5000C207C183DD9BDD8D0EAD82801A2DFD77FA
:103F60009387F77FF98FA205CD8FC207C1831EAD5E
:103F700082805E2DC207C183DD9BDD8D4EAD8280C8
:103F80005A2DFD779387F77FF98FA205CD8FC20752
:103F9000C1835EAD82801E294A25ED8F4205418195
:103FA00089C76D8D3335A00082800145828093F5ED
:103FB000F51F4EA182800A216D8D3335A0008280CD
:103FC000B73700209387C79A23A0070023A20700D2
:103FD00023940700B73700209387C79923A00700D1
:103FE00023A2070023A4070023960700B707002099
:103FF000239F07648280EFC2EFD0931715003735F7
:1040000000201305C59A3E95834905002E896386D5
:1040100009060031B73400209384849BA299139A37
:104020000901135A0A01B14A93170401C18363E6D7
:104030004703130900006312FA041384F7FFB14722
:104040003304F402B73700209387879B3E940C40DB
:104050004840EF70606C0C4431A8228BCE8763110E
:1040600034033147B387E7024A85BE94CC40EF70F2
:10407000A06A8C44EF6070772A894A856FC0CFCBE5
:104080000504B30754034A85A69783A547FFEF703D
:10409000E05FE34BA0F8DA87E9B785476381F50471
:1040A000B737002006059387C79AAA97982315E388
:1040B000370700201307E76512231308400605455C
:1040C000B306B600634ED8008CA390B316A3014587
:1040D0008280FD1501456305B700094582800D45C5
:1040E0008280EFC22FC24111AA892E893A85BE85EE
:1040F0003684B2843EC63AC4EF70100B2A8AA28579
:104100002685EF70700AAA855285EF70A024224799
:1041100023A0A900A2853A85EF700060B247AA8962
:10412000A6853E85EF70405FAA854E85EF70D0076B
:10413000AA89A6852285EF703007AA854E85EF7083
:1041400060212320A90041016FC00FBF9317150004
:10415000373500201305C59A3E951C216378F60477
:10416000EFC2EFBB0031B1472E892296131406012E
:1041700041803304F4020327090083278900832642
:10418000C90003264900B73400209384849B93051B
:104190008400130544002695A695EFF09FF483272D
:1041A000C900269401451CC06FC0AFB90945828083
:1041B000373500201305C5978280931735003705E2
:1041C0000020130505663E95DC41230005005CC117
:1041D00001458280F1473305F502B7370020938708
:1041E00047EAD8413E959C4958C17D171CC9DC451A
:1041F0003337E0005AA95CC59C4DA30B050023246E
:1042000005001CCD01458280F1473305F502B73723
:104210000020938747EAAA97C82B8280EFC22FB06D
:10422000F1473305F502B7370020938747EA09477E
:104230003D46AA971305C0023385A502D8C3373778
:1042400000201307C7E223AA070081453304A70013
:10425000090580C3232204023A95EFC04FAFB7D7B8
:10426000000083A707632320040205451CD46FC008
:104270004FADEFC2CFAAF146B306D502B737002043
:10428000138747EAAA843D650146138447EA13056C
:1042900005A63697144323A0060213872600F906C5
:1042A000035827001E23B305F84063D60500B30763
:1042B000F540B385070109072E96E393E6FE3D45D9
:1042C0003355A602B7370020938747E893954400FB
:1042D000BE95EF408003F147B387F4020547A297EC
:1042E0009C4388D3D8D36FC0CFA5F1473305F502DF
:1042F000B7370020938747EAAA9788430905828049
:10430000EFC2EFA1F1473305F502B73700209387DD
:1043100047EA3E95004129CC58418947014563173A
:10432000F7041C50A1C73E85EF707038B7D7000066
:1043300083A58762EF70403EB7D70000AA8503A52A
:104340000763EF702001B7D7000083A5C762EF7045
:10435000A03CEF70102442054181EF70F0280C540E
:10436000EF70803BEF70F022420541816FC06F9D7E
:104370000145EDBFEFC20F99714433058502373413
:104380000020130444EA2A94832904001C480D45A4
:1043900083A409026387F40426852E89EF703031E7
:1043A000B7D7000083A58762EF700037B7D700004A
:1043B000AA8503A50763EF60F079EF70901D93075E
:1043C000C0033305F50242054181EF70F02183A55A
:1043D0008902EF706034EF70D01B2310A90004C86D
:1043E00009456FC06F95EFC2EF9137340020130479
:1043F00044EA81448949130A703E854A11495C4068
:10440000638B37051C4C2685829778386302A70496
:104410001C4485071CC41DEB18486379F7005C40F9
:1044200068B893C7F7FF858BA98F5EA8850493F4BE
:10443000F40F7104E39524FDB70700209387076606
:10444000D8438C23014502976FC00F8F5844F1B7B2
:1044500023240400E1BF5E288507C207C18363648B
:10446000FA005EA8E1B71C40231A0400D853631574
:10447000570123A207025DBF23A0070245BF3735BE
:104480000020130545F1828085673307C5009387B7
:10449000078063C9E706EFC2EF86AA843284094524
:1044A00025C2373A0020AE8A8149414B130A4AF1AE
:1044B00093F7F400B307FB40C207C183228963F37B
:1044C00087003E8983274A0242091359090133862E
:1044D0003A01A685CA861305000A3304244182974F
:1044E000CA994204CA941545C209C2044180EF200A
:1044F000306993D90901EF105007C18055F8014583
:104500006FC08F830945828085673307C500938715
:10451000078063C2E708EFB21FFEAA84411132840C
:1045200009453DC6B73900202E8AB68A814B414BDA
:10453000938949F193F7F400B307FB40C207C183A5
:10454000228963F387003E89420913590901194CF6
:10455000B30C7A0103A80902D6872947CA86668662
:10456000A6851305000A029801C92AC67D1CEF1012
:10457000C07F3245E3100CFE33042441CA9B420441
:10458000CA94C20BC204418093DB0B01C1805DF071
:1045900041016FB0DFF90945828085673307C500A7
:1045A0009387078063C3E702EFB27FF737370020B6
:1045B000032807F3B68713074006B2862E86AA851E
:1045C0001305000A02986FB0DFF709458280EFB249
:1045D0001FF54111AE8605469305F100EFF0FFFB94
:1045E000888741016FB0FFF5B70700200397876602
:1045F00081472A97634F070009CD05669306F6FFAA
:10460000B6876358C700AA876305D50093170701CB
:10461000C1833E858280B7160240DC4251777D1708
:10462000F98F3167D98FDCC28280EFB2BFEDB71747
:104630000240D8474111AE84328979E913670720D7
:10464000D8C7D8471377F7DFD8C7984F1367072025
:1046500098CF2AC6EFF03FFC32453707F1E0130749
:10466000F7EF931725001385C1853E950041B56985
:10467000938949635C40F98F93E707105CC01C4441
:1046800037F7F1FF1307D77FF98F37070E000907B8
:10469000D98F1CC45C54370710FF7D17F98F37077B
:1046A0004000D98F5CD48147639FF4061C443707D0
:1046B0001000D98F1CC41C44370700FC7D1793E7FA
:1046C00007101CC41C4493E717001CC45C40F98FFE
:1046D0005CC01C4493E787001CC42285EFE0BFE068
:1046E0006DFD1C4493E747001CC42285EFE03FE0CA
:1046F0006DFD2285EFE0DFEDB70700202394A7666C
:104700005C4037070004D98F5CC041016FB0DFE225
:1047100013670740D8C7D8471377F7BFD8C7984F54
:104720001367074035B7138A1700CA979C239D4625
:104730001376FA0FCE978C232285EFE05FDDD287C8
:10474000A5B7B737002023A0A7F48280B737002091
:1047500023AEA7F28280B737002023A2A7F482807D
:10476000B7170240944BB7080002370800FEB3E6C3
:10477000160194CB944B7D18B3F6060194CBD84F19
:1047800033671701D8CF9307400651476305F502F9
:1047900063E7A70ED1471307C012630EF500930716
:1047A0002003130780076308F500A9471307802536
:1047B0006303F5004147B767004083A607404165A2
:1047C000F59A23A0D74083A6074093E6160023A0BE
:1047D000D74093860740DC42858B99E37D1565FDC4
:1047E000C842B767004005894DC903A507407D173A
:1047F000938707401375F5F788C38843136505044D
:1048000088C388431375F5FD88C388431365050184
:1048100088C388435D9988C388436D9988C33705E9
:104820004B03498FD8CE9843799B98C34167D443B3
:10483000858A99C27D1765FFD843058B39EFEFB2A2
:104840001FCED84B130540022E8413673741D8CBB7
:10485000B284EF0030672686A28513055002EF0070
:1048600070662686A28513053002EF00B0652686A5
:10487000A28513056002EF00F0646FB09FCC930730
:10488000401F1147E309F5F29307803E0947E3040F
:10489000F5F29307A00F214721BF8280B767004040
:1048A00003A70740054693870740719B13671700CE
:1048B00098C34167D4438D8A6384C6007D177DFB0E
:1048C000C8430D897D15133515008280B7670040F8
:1048D00003A7074093870740719B98C34167D44360
:1048E0008D8A99C27D1765FFC8430D891335150060
:1048F0008280EFB2DFC2442141110041930555008F
:1049000026862800EF70C06FB767004003A7874076
:104910001359E400137929009316570063CE060655
:104920009387074098479316470063C906069C473C
:10493000114513973700635E070409453767004048
:104940001307074093174500BA9703A707185604A3
:1049500033642401058B23A0E71803A70718BD883B
:10496000598C23A0871803A74718419B23A2E71857
:1049700003A74718D98C224723A2971823A4E71826
:10498000324723A6E71803A707181367170023A0C9
:10499000E71841016FB0FFBA01454DB7054579BF32
:1049A000B768004013880840032E082005433313DE
:1049B000A300136E1E002320C821832EC821134E8E
:1049C000F3FF9605B3FECE01232ED821832EC820F7
:1049D000C2059606B37EDE015606C1810E05C206EB
:1049E0002326D8214295C1824D8E5607558F23200C
:1049F000C5242322E52437270240145B3707000F24
:104A0000758F19EB1387083016231107C206C18270
:104A1000231ED7EEE31A07FF37670040130707404E
:104A200083264720B3E666002322D7208DE783271D
:104A30004721337EFE00232AC721B767004003A722
:104A4000C7613363670023AE676003A70760799B84
:104A500023A0E760828083274721B3E76700232AEA
:104A6000F720E1BFB337A000B766004092079386F6
:104A70000640B69703A7071B118B51EB03A6071B34
:104A800003A7071B03A8471B5582098B1378F8005F
:104A90002382050103A8871BA382050103A8871BA6
:104AA000135888002383050103A8871B13580801A6
:104AB000A383050103A8871B1358880123840501DC
:104AC00003A8C71BA384050103A8C71B13588800AC
:104AD0002385050103A8C71B13580801A3850501F9
:104AE00083A7C71BE183DCA511EDDC4693E7070232
:104AF000DCC6B337E000BE07D18F9CC12397050009
:104B0000014582809C4A93E707029CCADDB70545B0
:104B1000828039713ACE41673ECC06DE16DC1ADA65
:104B20001ED82AD62ED432D236D042CA46C872C631
:104B300076C47AC27EC013071710B767004023A45B
:104B4000E740B737002083A707F48297F250E2527C
:104B50005253C2533255A255125682567247E247FB
:104B60005248C248324EA24E124F824F216173000A
:104B7000203039713ECCB737002083A7C7F32AD63F
:104B80003ACE06DE16DC1ADA1ED82ED432D236D051
:104B900042CA46C872C676C47AC27EC001458297B0
:104BA000B7670040214723A6E740F250E252525334
:104BB000C2533255A255125682567247E2475248A6
:104BC000C248324EA24E124F824F216173002030F4
:104BD00039713ECCB737002083A7C7F32AD63ACE27
:104BE00006DE16DC1ADA1ED82ED432D236D042CAED
:104BF00046C872C676C47AC27EC005458297B7673A
:104C00000040214723A8E740F250E2525253C253DA
:104C10003255A255125682567247E2475248C24850
:104C2000324EA24E124F824F2161730020303971F3
:104C30003ACE3ECC06DE16DC1ADA1ED82AD62ED4A0
:104C400032D236D042CA46C872C676C47AC27EC054
:104C50001147B767004023A2E740B737002083A77A
:104C600047F48297F250E2525253C2533255A25542
:104C7000125682567247E2475248C248324EA24EFE
:104C8000124F824F216173002030EFB25F891314FD
:104C900025000945411133158500EFE03FB98547EF
:104CA000631FF500B7370020938787F4A2979C43D2
:104CB0002AC68297324533158500EFE0FFB74101E0
:104CC0006FB03F881C4141677917F98F1CC1828002
:104CD0004CC11C4193E717001CC18280EFB23F8496
:104CE000371302408327430139712A8493E7170061
:104CF0004645232AF3000543814763936500C14776
:104D00003ECE19CA8547630AF606856793870780F2
:104D10003ED893070020BDA002D802D6B7050240B6
:104D2000B737002013868500938787F4631EC40479
:104D300088C3ED44930700083ED485673EDC1C40E1
:104D40003ACC41677917F98F1CC04C08228536CAC6
:104D500046C642C402D202DA02DEEFE05FA71C4080
:104D6000B248224893E727001CC04686C2852685A4
:104D7000EF00501521616FB0CFFC930700403ED883
:104D8000930700103ED659BF1386C5016315C400B2
:104D9000C8C3F14445B7138605036315C40088C72B
:104DA000F54449BF138645046315C400C8C7F944D8
:104DB00051B7138685056315C40088CBFD449DBF9C
:104DC0009385C5066316B400C8CB930400029DB753
:104DD00088CF93041002B9BFEFB26FF441112A8457
:104DE00005452EC632C4EFE03FA52246B245B724A2
:104DF000014050C04CC4138504408545EFE08FED61
:104E00001385044093050022EFE0EFFB1C4013855F
:104E10000440854593E727001CC01C4093E717001A
:104E20001CC0EFE02FEA854513850440EFE0AFECAE
:104E300041016FB00FF139712AD6014506DE16DC4B
:104E40001ADA1ED82ED432D236D03ACE3ECC42CA4E
:104E500046C872C676C47AC27EC0EFF01FE3F25035
:104E6000E2525253C2533255A255125682567247DD
:104E7000E2475248C248324EA24E124F824F216141
:104E80007300203039712AD6094506DE16DC1ADA9D
:104E90001ED82ED432D236D03ACE3ECC42CA46C8E4
:104EA00072C676C47AC27EC0EFF03FDEF250E252A4
:104EB0005253C2533255A255125682567247E24798
:104EC0005248C248324EA24E124F824F21617300A7
:104ED000203039712AD60D4506DE16DC1ADA1ED8C6
:104EE0002ED432D236D03ACE3ECC42CA46C872C652
:104EF00076C47AC27EC0EFF05FD9F250E2525253CC
:104F0000C2533255A255125682567247E247524852
:104F1000C248324EA24E124F824F216173002030A0
:104F200039712AD6114506DE16DC1ADA1ED82ED4BF
:104F300032D236D03ACE3ECC42CA46C872C676C4C9
:104F40007AC27EC0EFF07FD4F250E2525253C25385
:104F50003255A255125682567247E2475248C2480D
:104F6000324EA24E124F824F2161730020303971B0
:104F70002AD6194506DE16DC1ADA1ED82ED432D20D
:104F800036D03ACE3ECC42CA46C872C676C47AC241
:104F90007EC0EFF09FCFF250E2525253C2533255CF
:104FA000A255125682567247E2475248C248324EC4
:104FB000A24E124F824F216173002030B71701407B
:104FC0009386078011476306D502938607C0214761
:104FD0006301D5024147630EF500938707406300E4
:104FE000F502B7270140938707806314F500130784
:104FF0000004B71602409C4E5D8F98CE8280130746
:105000000002C5BFEFB2AFD101112A842EC6EFF066
:10501000FFFAB245C1473ECEEC8289474C08228553
:105020003ECCEFE0FF8105616FB0AFD1EFB22FCF83
:1050300001112A842EC6EFF07FF8B2458D472285F4
:10504000EC824C083ECC02CEEFE08FFF05616FB0E2
:105050004FCFEFB2CFCC01112A842EC6EFF01FF64E
:10506000B24591473ECEEC828D474C0822853ECC1E
:10507000EFE00FFD05616FB0CFCCEFB2AFC84111CB
:105080003284AA84AE893689EFF05FF309C885457A
:105090000545EFE05FBE85452285EFE0FF8E8D4739
:1050A0004C002685231231014AC63EC4EFE04FF979
:1050B00041016FB06FC8EFB28FC6EFE01F886FB0CD
:1050C0004FC8EFB2CFC5EFE03F896FB08FC7EFB2E7
:1050D0000FC5EFE0FF896FB0CFC6EFB2AFC23704A4
:1050E00000208327C466AA8A2E89884B8545328A88
:1050F000B6891304C466EFE05F981C40B705020050
:10510000884BEFE01FA575F91C408545B7040300E7
:10511000884B8504EFE0FF971C40A685884BEFE0A5
:10512000FFA17DD91C400146D685884BB7040700F6
:1051300093842408EFE03F9E1C40A685884BEFE057
:10514000FF9F7DD91C4093558900FD89884BB7048A
:10515000070093844408EFE05F9B1C40A685884BC2
:10516000EFE0DF9D7DD91C409375F90FB704070070
:10517000884B93844408EFE05F991C40A685884BD8
:10518000EFE0DF9B7DD93709070081441309490807
:105190001C40884B63E834018545EFE03F910145B1
:1051A0006FB08FB9B3079A008C23EFE01F961C40B5
:1051B000CA85884BEFE09F987DD9850493F4F40F5E
:1051C000C1BFEFB22FB4370400201309C466832493
:1051D0000900BA891304C466F6A0D0C49CA0CEA06E
:1051E00023940400A8B0EF20605B83270900C8C89F
:1051F0001D47884B98CF8545EFE03F8883270900FE
:10520000014693050070884BEFE01F8F1C40B705E7
:105210000200884BEFE0FF9375F91C4005469305AB
:105220000070884BEFE05F8D1C408545884BEFE0B8
:105230005F861C404E86FD558823EF20A07D1C40D4
:10524000AA840146884B93050070EFE0FF8A1C405A
:105250008145884BEFE07F82014591E00D456FB0BD
:10526000AFADEFB22FAA370400201309C466832420
:105270000900BA891304C4669CA0F6A0D0C4CEA0CD
:1052800023940400A8B0EF20605183270900C8C808
:105290000547884B98CF8545EFE02FFE1C40B705AA
:1052A0000200884BEFE0FF8A75F91C408545884B6A
:1052B000EFE07F811C408545884BEFE08FFD1C406F
:1052C000054693050070884BEFE01F831C404E8617
:1052D000FD558823EF2000741C40AA840146884BAA
:1052E00093050070EFE05F811C408145884BEFE043
:1052F000CFF8854701456383F40011456FB0CFA314
:10530000EFB2EFA1370400209304C4669C40411122
:10531000D145884B02C6EFE03F819C40AD46984F97
:105320007D1763E5E602B5660A07938686643697BD
:1053300018431304C4660287058909C9AC33884B36
:105340000146EFE04FFD1C40094798CF41016FB087
:105350004F9F098965DD884BE145EFE0EFFC1C407C
:10536000CE23884BA181FD89EFE02FFA1C402D4709
:10537000E9BF1375050879D9CC23884BEFE0EFF826
:105380001C400D47D9B71375050869D1884B854571
:10539000EFE02FF01C4011474DBF058945D9AC33D4
:1053A000884B0546EFE02FF71C40154779BF098968
:1053B00051DD884BE145EFE02FF71C40194771B7ED
:1053C0001375050441D5F6239A27884BFD16635BB8
:1053D000D700C0479306170096A73A94EFE02FF343
:1053E00008A0ADB78145EFE00FEE1C409A27C447F7
:1053F000884B9306170096A7BA94EFE04FF188A068
:105400001C40884B8545EFE06FEA08407C0001476F
:105410000C2148498D460546EF20B013B24791C78D
:10542000B7E700E0116723A0E7201C4023AC07008A
:1054300031BF0589E30C05F0AC33884B0146EFE042
:105440008FED1C40214711B71377054005C3884BEA
:10545000B705001093850540EFE0CFF21C4085456D
:10546000884BEFE00FE31C401D47C5B50989E30FEA
:1054700005EC884BE145EFE02FEB1C40CE23884B39
:10548000A181FD89EFE06FE81C4031477DBD1375B8
:105490000508E30D05EACC23884BEFE00FE71C403D
:1054A000254765B513750508E30205EA9627FA2333
:1054B00063FDE600D847884B36970C23EFE0EFE416
:1054C00018401E2785071EA751B52947BDBD118964
:1054D000E30E05E63DB7EFB2EF82B7570040938782
:1054E000074001112A84AE8432896312F502B7178E
:1054F0000240944BB70520003706E0FFCD8E94CBD9
:10550000944B7D16F18E94CBD84F4D8FD8CF680039
:1055100083594400EFE04FEAD24737470F001307A3
:10552000072433D7E702C20993D9090193F909FC8B
:10553000C20993D90901B3E9E900C20993D9090164
:10554000231234011620C206C182F99AC206C18212
:1055500016A0B79698001386F667637EF60A9386C0
:105560000668B3D7D7029166C207C183D58FA166FB
:10557000D58F9306C0123307D7029306803EB70932
:1055800000203347D7020507420741831AB05EACBB
:105590001E2093E717001EA01E20C207C18393F7A9
:1055A00057BF93E707401EA091671EA4EFE03FEDB1
:1055B000B7570000938727265CCDB7570000938725
:1055C000271C1CD1B75700009387A70D5CD1B75794
:1055D000004023A6A96600C9938707409389C9663E
:1055E0004A86A685631CF4021305F002E1284A8668
:1055F000A68513050003F92083A709008145884B80
:10560000EFE00FCE83A709008545884BEFE0EFC69A
:1056100005616FA07FF29167850791BF13051003A5
:1056200055204A86A68513052003F1B7397106DE99
:1056300016DC1ADA1ED82AD62ED432D236D03ACE7A
:105640003ECC42CA46C872C676C47AC27EC0EFF06B
:105650003FCBF250E2525253C2533255A25512562A
:1056600082567247E2475248C248324EA24E124F0B
:10567000824F216173002030397106DE16DC1ADAA0
:105680001ED82AD62ED432D236D03ACE3ECC42CAFA
:1056900046C872C676C47AC27EC0EFF07FC6F250AA
:1056A000E2525253C2533255A25512568256724795
:1056B000E2475248C248324EA24E124F824F2161F9
:1056C00073002030854712066394F500136606F8D0
:1056D000B7E700E0AA971376F60F2380C7409357E9
:1056E00055000547938707043315A7008A0737E756
:1056F00000E0BA9788C38280EFA2DFE0B7170240CC
:10570000D84FB7060018AA84558FD8CFB776004077
:10571000984205452E891367071098C29853C166B1
:10572000B289558F98D39853C176FD16758F98D34B
:10573000EFE00FC60144130AA00F13051004EFE0B9
:105740006FD501ED631444016FA01FDF05045145BF
:105750001374F40FEF20F044CDB79307A00FE305C7
:10576000F4FEB7170240985321641367071098D3CB
:105770009853418F98D3EFE04FDAEFE00FDB3737E4
:1057800000408357078093E717002310F780EFE06E
:10579000CFD81305F4FFEFE06FD5EFE00FD84E86BA
:1057A000CA854D45EFF01FF2B707002023A8976682
:1057B00061BF5D713ED2B737004022DE138407809F
:1057C00083D7078086C696C49AC29EC02ADC2EDA8A
:1057D00032D836D63AD442D046CE72CC76CA7AC8BF
:1057E0007EC6858B89CFB707002083A7076782977E
:1057F0005E20C207C183F99BC207C1835EA0EFE0B0
:10580000CFD17254B640A642164386436255D25554
:105810004256B256225792570258F248624ED24E22
:10582000424FB24F616173002030B717024025E14B
:10583000D44705657D76C98ED4C7D4477D16F18ED1
:10584000D4C7984F498F98CFB7370140014781C5DA
:1058500005671307078092238D6693860604F18EF1
:10586000558FF1769386C630558F420741839AA3B0
:10587000DA2F13774710DAAF23980700DA2313677C
:105880002700DAA39A23136707049AA38280944B14
:1058900011657176C98E94CB944B7D16F18E94CBA5
:1058A000D84F498FD8CFB74700409387078079BF3B
:1058B0000A0593878180AA979C431307F0FB9AA758
:1058C00082800A0593878180AA979C4301459E2781
:1058D000828085476305F5040DC18947630FF50490
:1058E000B7170240984B1367470098CB984B6D9BB6
:1058F00098CBD84F136747003DA8B7170240D4474D
:10590000056713070780D98ED4C7D4477D76130661
:10591000F67FF18ED4C7944F558F98CF8280B717FA
:105920000240984B1367170098CB984B799B98CB04
:10593000D84F13671700D8CF8280B7170240984B13
:105940001367270098CB984B759B98CBD84F13675C
:105950002700D5B75D7122DE371400402ADC2EDA2D
:105960001305048085453ED286C696C49AC29EC061
:1059700032D836D63AD442D046CE72CC76CA7AC81D
:105980007EC6EFE04FE18547631AF500B737002088
:1059900083A7C7FA8297F9572318F4807254B64048
:1059A000A642164386436255D2554256B2562257F6
:1059B00092570258F248624ED24E424FB24F616146
:1059C00073002030B5670A0593878767AA979843C5
:1059D0001E2393E717001EA38280B5670A059387ED
:1059E0008767AA9798431E23C207C183F99BC20702
:1059F000C1831EA38280B56713172500938787672D
:105A0000BA979C439A2742074183619B420741838F
:105A10009AA751473306E50296233737002013072C
:105A200047F6C206C18293F6F6C832975223D18E4A
:105A300096A316233A23D6B79AB709E5373701401C
:105A4000231807C20547DAAB8280EFA25FAD0111D0
:105A50002A843AC83EC62ECE32CC36CAEFF07FE753
:105A6000F24537A84A04130808203358B8025145B4
:105A70006246D246B308A40237350020130545F626
:105A8000469512A154C5231105012285EFF0BFF6FA
:105A9000B5661316240093868667B29694427956AB
:105AA000B24792AACA26424713651500CAA689467C
:105AB0001305E00263E686001385418622950821DE
:105AC0003E86BA85EFF01FC005616FA09FA7EFA2C9
:105AD0001FA501112A843289B6842EC602C802CAC3
:105AE00002CC02CEEFF0FFDEB24537A74A0413071F
:105AF00007203357B702D1474209135909012285BC
:105B0000B306F402B7370020938747F60A04B69726
:105B100023902701BAA323920700EFF0DFEDC167BE
:105B2000356593870707130585673EC82295231BB4
:105B30002101231C010093F71400004189CB0C08BC
:105B40002285EFE0CFA081452285EFE04FC093F79B
:105B5000240089CB0C082285EFE00FA68145228521
:105B6000EFE0CFBF93F7440089CB0C082285EFE02C
:105B70000FAE81452285EFE0CFBFA18889C80C0810
:105B80002285EFE00FB681452285EFE06FBF1E2032
:105B9000216793E707081EA083574404D98F231277
