:100000006F30E03013000000130000001300000008
:100010001300000013000000130000001300000094
:100020001300000013000000130000001300000084
:08003000130000007300100032
:100038000000000000000000460E0000480E00000E
:1000480000000000A63200000000000000000000D0
:10005800A8320000AA3200000000000000000000E2
:100068009670000000000000000200000000000080
:10007800B0320000B2320000B43200002064000048
:10008800B8320000BA320000BC320000BE320000B4
:10009800C0320000C2320000C4320000AC5A000076
:1000A800C8320000105B0000DE5B0000785B0000D7
:1000B800D0320000425C0000EE530000AC56000055
:1000C80082570000E457000048580000DE32000064
:1000D800E032000066660000E43200007C65000043
:1000E800C26700004E670000DA6600004062000048
:1000F8008C620000D862000024630000F632000021
:10010800F8320000FA320000FC320000FE32000033
:1001180000330000023300000433000006330000FF
:10012800083300000A3300000C3300000000000010
:080138000000000000000000BF
:10020000130181F806C216C41AC61EC822CA26CC1B
:100210002ACE2ED032D236D43AD63ED842DA46DC76
:100220004ADECEC0D2C2D6C4DAC6DEC8E2CAE6CC46
:10023000EACEEED0F2D2F6D4FAD6FED8F3220030CF
:1002400096DA9702002083A2E23B23A02200F32546
:1002500010342EC003A10183EF8000171703002084
:100260000323433A03210300824273901234D6528F
:10027000739002309240A2423243C2435244E2445D
:10028000724582551256A2563257C2575258E258FA
:1002900072598649164AA64A364BC64B564CE64C0E
:1002A000764D865D165EA65E365FC65F13018107DA
:1002B0007300203013000000130000001300000042
:1002C00013000000130000001300000013000000E2
:1002D00013000000130000001300000013000000D2
:1002E00013000000130000001300000013000000C2
:1002F00013000000130000001300000013000000B2
:1003000083A20183938202E07390023417010020DC
:100310000321412F024182403243C2435244E2440E
:10032000724582551256A2563257C2575258E25859
:1003300072598649164AA64A364BC64B564CE64C6D
:10034000764D865D165EA65E365FC65FD652A1020A
:1003500073900230A24213018107828013000000D3
:100360001300000013000000130000001300000041
:100370001300000013000000130000001300000031
:100380001300000013000000130000001300000021
:100390001300000013000000130000001300000011
:1003A0001300000013000000130000001300000001
:1003B00013000000130000001300000013000000F1
:1003C00013000000130000001300000013000000E1
:1003D00013000000130000001300000013000000D1
:1003E00013000000130000001300000013000000C1
:1003F00013000000130000001300000013000000B1
:10040000F322003093F272FF130380181203B3E259
:100410006200711523205500130585FA10C12115BE
:10042000232005009302000063870200711523203A
:100430000500FD12D5BF71150CC1828000000000BF
:1004400000000000000000000000000000000000AC
:10045000000000000000000000000000000000009C
:10046000000000000000000000000000000000008C
:10047000000000000000000000000000000000007C
:10048000000000000000000000000000000000006C
:10049000000000000000000000000000000000005C
:1004A000000000000000000000000000000000004C
:1004B000000000000000000000000000000000003C
:1004C000000000000000000000000000000000002C
:1004D000000000000000000000000000000000001C
:1004E0000000000000000000000000000000397162
:1004F00001436EC619A0397141536AC866CA62CCFD
:100500005ECE19A0397101535AD056D252D44ED66C
:100510004AD826DA22DC06DE3301614082824111AC
:100520004AC026C222C406C68282B24D4101024D93
:10053000924C224CB24B4101024B924A224AB249A0
:100540004101024992442244B240410182803D432C
:100550002A876373C3029377F700BDEFADE5937607
:1005600006FF3D8ABA960CC34CC30CC74CC7410763
:10057000E36BD7FE11E28280B306C3408A0697027E
:10058000000096966780A6002307B700A306B70071
:100590002306B700A305B7002305B700A304B700DF
:1005A0002304B700A303B7002303B700A302B700D7
:1005B0002302B700A301B7002301B700A300B700CF
:1005C0002300B700828093F5F50F93968500D58DB3
:1005D00093960501D58D61B7939627009702000089
:1005E00096968682E78086FA9680C1171D8F3E9682
:1005F000E374C3F8A5B7370500201305C5568280FC
:1006000037050020130585568280B707002023A8F0
:10061000A7568280EFF23FEEB7050020397193852F
:100620004556014537040020EFB0405E2320A45614
:100630001304045619E1EF10507F1C4037070020C7
:1006400003270757DC4398C3EF807070EF80307347
:10065000EF00C0712313A10202D6EF0020741C40EA
:10066000A302A102DC43884323AA0700EF80107491
:100670001C40C843EF9040070840035661025C41AC
:100680008C43EFB0C06819C1EF10307AB707002073
:100690009387873798530840930661023AD8D85316
:1006A000130651020C183ADA9857DC573ADC3EDE52
:1006B000EFB0406919C1EF10507783A6418103491B
:1006C0005102032A040036CEEF00E06C9307401F6E
:1006D0003EC0F24689679309C102C507C98F4EC65D
:1006E0004AC402C29308803E1308401F01470146D6
:1006F00081455285EFB0206811C5B5576304F500F8
:10070000EF10B072084003A641814E874C49CA865B
:10071000EFB0E07119C1EF1050711C409C4399C3B8
:10072000EF10B0701C40B70400208969C843130A59
:10073000803EEF80B06823AA0456EF80D065EF704A
:10074000B0122A8902D493844457938909719C403A
:1007500089CBB707EFBE37E700E0938707083CC7B0
:10076000FDBFA25503A50193B3D54503EF70401318
:10077000EF80F0604ED4EF70300F33062541330622
:100780004603AA8A0840341081455689EFB0C078E4
:1007900088C003A54193814601468145EF603057EB
:1007A000EF80705F6DB7EFF2FFD54111EF80305DE4
:1007B000EF70900B89692A8402C6130A803E9389E0
:1007C0000971370B0020EF80105DB24503A54193FE
:1007D00013090B56B3D54503A284EF70600CEF806C
:1007E000105A832709004EC695CFDC43DC4B9DCBC6
:1007F000EF709007AA84032509001C4185E75C413E
:10080000DC4B8DC33384844033044403740081453E
:100810002286EFB0407803250900740022868145C6
:10082000EFB0607B268445B7938741943E9593D77C
:1008300085000CA11CB193D70501E1813CA12CB12D
:100840008280938741943E950CA1A1810CB1828056
:10085000EFF2FFCCAE86938541940946AA95EF400E
:10086000F017C5B193874194AA979833882322073C
:10087000598D8280EFF21FC979711306602281457C
:1008800013854194E93189461306002193854194EB
:100890000145EF40901F631A0532138441941820DC
:1008A000930750056306F72AB7170C203707000196
:1008B000938757C5130607101CC089475CA010D446
:1008C00030CC70D08967370600789387174070D492
:1008D00037460501B70600037EA413065660B70726
:1008E0000005938506101CC830D8B707002437864A
:1008F00005005CC84CD493070050B705005A130696
:1009000006801CCC6CC493070010A96570D834DC39
:10091000130600209386062058CC58D078C838D0CB
:100920002320C4081CD01CD82CC87CCC3CD474DC3C
:10093000232A0402232C0402232E0402232004046D
:100940002322040423240404232204082316F40A83
:10095000231CF40AE147A301F40CB707001589072B
:100960002322F40CB7071203938717502324F40CA7
:10097000B7170504938707302326F40CB70736030F
:10098000938737602328F40CB707F302B706001AE1
:100990009387F7032328D408232AF40CB7F603011E
:1009A000B7070600938646809387370F232AD4081B
:1009B000232CF40CB7260400B707CF00938606A0BB
:1009C0009387B70D232CD408232EF40CB70600020E
:1009D000B707ED009387670E232ED4089386062071
:1009E00085442320F40E2320D40A2322C40A23247E
:1009F000E40A93050010154523240408232604085F
:100A0000A30B940A2307040A230D040A313D8145F0
:100A10002545193DB7970112C9072322F40EB707E0
:100A2000129093870719B9692306940E2324F40EB4
:100A30009389492A9304D00E130B501383DA0900CB
:100A400026859109D685F53B03DAE9FF1385240055
:100A50004205D2854181F533138504054205D685CB
:100A60004181C533138524054205D2854181D13B9F
:100A70001385040A4205D6854181E1331385240A92
:100A800091044205C204D2854181C1805D3BE39758
:100A900064FBA157A30EF41CFD7793873780B7053D
:100AA000003E231FF41CD5058D471305501E23005F
:100AB000F41E9D3BB7050076ED051305901EAD3382
:100AC000B7053F78CD051305D01EB93BB7050071BA
:100AD000D1051305101F893BB7057978C9051305A2
:100AE000501F9933B7057350D9051305101E2D3BC0
:100AF000B705006DDD051305901F3D33F145130566
:100B0000D01F1D33814513051020393B8145130546
:100B10005020193BA94789462315F42013060021CC
:100B2000938541940145A3040420EF40206B1306F4
:100B30000021814513854194193C2945EF707002CD
:100B4000894613060021938541940145EF40E073E7
:100B500083A741818349440E8945C843054791468F
:100B60007008130505274ECEEF90B017FD1993F5C9
:100B7000F90F0145EF40E02445CD83A74181034AA9
:100B8000740E8545C8430547914670081305C5276F
:100B900052CEEF901015D2850545EF4080226308B4
:100BA000050E83A741818349A40E8545C8430547A7
:100BB00091467008130585284ECEEF909012CE8591
:100BC0000545EF40002063030512B7070020239E70
:100BD0000756456195B2139604014182131A260007
:100BE0001305DA0E32C6BD3942054185EFC08022B9
:100BF0002AD01305FA0EBD31EFC0202E2AD21305DC
:100C00001A0F8D3142054185EFC0C0202AD413054B
:100C10003A0F8939EFC0602C32462AD60C100145B4
:100C20008504EF40202593F4F40FE3C634FBB1B7FD
:100C30008144E5BF13960401418293192600138570
:100C4000D91332C6053142054185EFC0A01C2AD018
:100C50001385F9130139EFC040282AD213851914DE
:100C6000113142054185EFC0E01A2AD413853914A9
:100C7000D53EEFC0802632462AD60C1005458504A5
:100C8000EF40401F93F4F40FE3769AFA19BF8544BE
:100C9000E5BF131604014182931426001385D4186E
:100CA00032C6C93642054185EFC0C0162AD0138529
:100CB000F4184D3EEFC060222AD2138514195D3618
:100CC00042054185EFC000152AD413853419593ED9
:100CD000EFC0A02032462AD60C1009450504EF408B
:100CE00060191374F40FE3F689FAC5B50544E5BF3E
:100CF00093874194AA979833A82322074205498FE6
:100D00008823498FA8336205598D82809387419447
:100D10003E9508218280EFF29F8041112A8468006D
:100D2000B284EFC0A0308947638AF4029147638B95
:100D3000F40285476397F400188693874194A2973D
:100D400098A39307F02063E88700894626866C0005
:100D50002285EF40A04841016FF0AFFE2C8622852E
:100D6000CD34C5B7B2452285C134E1BFEFF22FFBC8
:100D700089451145EF40A0541D479307D00763698B
:100D8000A700931715003965130545293E951E21C7
:100D90003E856FF00FFB13050010828003C5719430
:100DA0008280EFF2CFF7370400201304C4571E20CF
:100DB000130770168507C207C1831EA0637AF70068
:100DC00015453D37930515001545B93C2310040022
:100DD00037040020130484570840EFC00010AA8491
:100DE00003C511958145F920EFC0C002B7E70000A7
:100DF00083A5C72EEFB0C058A685EFB0C021EFB0D5
:100E0000107C08C06FF0EFF3EFF26FF1B70700202E
:100E100083A58757930740062545B3D5F502EFF024
:100E2000BFA081462146938591941545EF40003B34
:100E30006FF02FF1B707002003A5875793074006EF
:100E40003355F502828001A001A0EFF24FED411170
:100E50002E84AA8519453EC03AC236C432C6EF1068
:100E6000003FA2851545EF10803E32461145B28500
:100E7000EF10E03DA2460D45B685EF10403D81459F
:100E80000945EF10C03C12470545BA85EF10203CDC
:100E900082470145BE85EF10803B41016FF06FEA4C
:100EA00037050020130505598280B707002023A0CD
:100EB000A7588280EFF2AFE69307F5FF7147636CA6
:100EC000F71039678A071307072FBA979C43AE8438
:100ED000828713051521420541810D3D2A84228513
:100EE0006FF02FE61305152142054181EFF09F9722
:100EF000F5B739151375F50FEF005078AA85014540
:100F0000EF301061B7E7000083A5473CEFB09003D6
:100F1000EFB0D0642A84E1D41305500EEFF09F9413
:100F20002A9475BF0D45EF007075B7E7000083A5E3
:100F3000473CEFB03001EFB070624DB70145EF4074
:100F4000E00FAA841305D01DEFF0DF91EFB0F07829
:100F5000B7E7000083A5873CEFB080422A8426854E
:100F6000EFB0506BAA852285EFB0C07DB7E70000D7
:100F700083A5473CEFB0007DEFB0706485B70545B1
:100F8000EF40C00BAA841305F01D7DBF0945EF306B
:100F9000307BA9B7453599B71545993B81B7B70758
:100FA000002003A4075825BF1305C0209133135414
:100FB0008540930740061374F40F3304F4029377CB
:100FC000F50F41851375F50F3E9489679387077177
:100FD0003305F502B1B7014419B71387C1B783468A
:100FE00047029387C1B71396260032971043714783
:100FF000631EE60203C7570315CB885B05C903C709
:10100000D70209C7A38A0702A386070203C75703AB
:1010100093080002054805071377F70F9375F70F3C
:1010200063F5B802A38A0702A38607021387160096
:1010300083C647031377F70F2382E7026364D70061
:101040002382070223A4070282803316E800698EF8
:10105000050769D6A38AB70282809387C1B703C701
:10106000570223A407022382E7028280EFF22FCBEC
:101070009385C1B783C745020546938555029CA158
:101080001305902049396FF0CFCB03C501BA828098
:10109000A54763E6A7002380A1BA014582800545E4
:1010A0008280A54763E1A702EFF26FC79385C1B7BE
:1010B000A382A50205469385550213059020A13908
:1010C00001456FF00FC8054582809387C1B783C67D
:1010D000470203C757026385E60203C7D7020DE341
:1010E00098573A9588D783C767021307803EB3871E
:1010F000E7026367F500EFF28FC285376FF06FC4C8
:10110000828001C9F147630AF5009D47014563F5F7
:10111000B7002388B1BA054582802384B1BA01455E
:101120008280EFF22FBE1385C1B6EF8040221305F7
:1011300090209384C1B7D93EA382A4021305A020B6
:10114000F13683C754022383A402238A0402238234
:10115000F4021389C1B781441384C1B7054AA54974
:10116000139524001305151E420541815136232095
:10117000A90093F5F40F1375F50F61376306450168
:1011800085041109E39E34FD23280402A30A040206
:101190006FF08FBA1387C1B7185B9387C1B7630924
:1011A000A70483C6C702A9C61347F7FF698F88DB68
:1011B000A38A070201460145854813080002B3953A
:1011C000C800F98D9376F60F81C919C1A38AD70299
:1011D0000547A386E70282808506050693F6F60F8B
:1011E0000545E31E06FDA38AD7027DF3A386070209
:1011F00082801387C1B78346D70205479387C1B75B
:101200006396E60003C7C7022382E70203C74702CB
:101210000A07BA9788438280EFF26FB0014689458A
:101220002A84EF00B078228501468D45EF001078C2
:10123000014685452285EF0070776FF08FB0EFF2A1
:101240000FAE41112A8432C42EC6EFF0AFE1B24591
:101250008AA11305240042054181EFF0AFE0224648
:101260000AA241016FF0EFADEFF26FAB411189E5DA
:10127000653741016FF0EFACAA843149338924030B
:10128000AE873E8585453D311314050170009305F9
:10129000E10041801305B9015D3738863C8701467E
:1012A000B366F70089CE63E9E700636AE40033B60A
:1012B00087001346160021A00546E36AE4FE89452F
:1012C0002685EF00B06E70009305E1001305F9016B
:1012D000BD3738863C870146B366F70089CE63E99F
:1012E000E700636AE40033B687001346160021A0C6
:1012F0000546E36AE4FE85452685EF00306B700005
:101300009305E100130539021D3F38863C870146ED
:10131000B366F70089CE63E9E700636AE40033B49B
:1013200087001346140021A00546E36AE4FE8D45BC
:101330002685EF00B06735BFEFF2EF9B4111AA8A17
:10134000AE843D456C00B2891306E10036893A8CC3
:101350003E8B428DC68C03544104D5352886835B71
:10136000E10033057541EFB0F02AB7E7000083A52F
:10137000C73CEFB0203D2A8A636E34033385794140
:10138000EFB05029D285EFA0B07FEFB050232300FB
:10139000AD0033053441637489003305394142059A
:1013A0004181EFB09033D285EFA0907DEFB0302136
:1013B0002380AC00636D540333857A41EFB09025F0
:1013C000D285EFA0F07BEFB0901F2300AC0063E369
:1013D000840233045441131504014181EFB0F02F0E
:1013E000D285EFA0F079EFB0901D2300AB00410152
:1013F0006FF0EF9333845441F9BF03480100388202
:1014000063F6A5026374A70063E6E6006379B7009C
:10141000637FE602238008012380070182806364E2
:10142000D700E37BE6FE2380080182806377E60035
:10143000E362B7FEE379D7FE19A06375D700E36BCB
:10144000E5FCD5B7E371B7FEE368E5FCE9BFE36C03
:10145000D7FCD9B7EFF2AF8C79712A892E84B28488
:101460006C101306E1023D4536CE3ACC3ECA42C866
:1014700046C6F133F246B2484248D247624763F467
:10148000860263EB260163E9280163E91601230064
:1014900007012380070129A0E3FD16FF23000701B0
:1014A00045616FF00F8A6367940063E59800E3621B
:1014B00014FFF1BFE37414FFE9BFEFF24F86EF7042
:1014C000002FB707002023AAA758B707002003A5BD
:1014D000075901478D4611468145EF70E0706FF066
:1014E0004F86EFF2CF80B7E7000083ABC73C396A85
:1014F000B96A396B397101498549130A8A3A938A65
:101500004A36130B8B3805448947638489146382F8
:101510000916E39CF9FE2945EF60B064856537152F
:10152000014093850580130505C0EF40B00F3707D4
:10153000002013079758631A8514042381C8B7073E
:10154000002023000700239F075685440144394C9F
:101550001305340C42054181EFF04FFBAA8513754A
:10156000F40F05041133E31584FF1305100DEFF09C
:10157000EFF923060102A306010223070102A307D4
:10158000010249C18545EFF0FF92931C0501130646
:10159000A1032C18AA8D3D455D31501893056103B8
:1015A0004D4571391018930521035D45493983571D
:1015B000A1030355810393DC0C011D8DEFB0900551
:1015C000DE85EFB020182A8D3945EFF02FF4035651
:1015D000410303540103035C210383566103631E2B
:1015E000050E63648C0063FFC60066C26AC0930880
:1015F000D1021308C1029307F1021307E102E28549
:1016000022851D3B8346D1020346C1028345F10278
:101610000345E10237040020130C4458EF00103456
:1016200083270C0013044458639F072037040020CD
:10163000294523040458EFF05FA913048458638BF1
:10164000040E85476306F90E6317091CEFF0FF9837
:10165000D5A07D5774181306F00F81450145EF7032
:10166000404AF257918BE38007EAEFF09FAB814944
:1016700059BDB707002003A54759014789460146D0
:101680008145EF7060568949BDBDB706002093863D
:10169000E6579E2204238507C207C1839EA289ECD8
:1016A0009146E3F5F6EA00A39306702563FAF60087
:1016B00089471CA3054951BDE38884FE814479B55F
:1016C0001307F0186369F7001307700C8144E37F78
:1016D000F7E60949A5BD0D49D5B713950D0141811F
:1016E00036CE32CCEFB00073EA85EFA07049EFB090
:1016F000006D1378F50F6246F24663648C0063F068
:10170000C60242C066C29308D1021308C102930701
:10171000F1021307E102E2852285C531E5B5E688CD
:101720009307D1021307F102E28522852533D9BD43
:1017300023202C01B707002083AC07586685EFF003
:101740007FA5EFF01FAB2A8CF1471375F50F6313DC
:10175000F50E638E0C0C9387C1B7945B83C7570358
:101760000146138CC1B78545130500023397F50078
:10177000758F4DC719C2A30AFC0283475C03294633
:101780003967850793F7F70FB3F6C7021307474684
:101790009305000513059007B3D7C702BA96130641
:1017A00000053E9718239C228146EFF00FEA014581
:1017B000EF00B0338347DC0299C385471CA0B7070D
:1017C000002083C7875885C3370700201307A75811
:1017D0001E23930680028507C207C1831EA363F6FA
:1017E000F6262310070091C0014913050021EFF0F0
:1017F0006F879377F50F014591CB1385F7FF13752D
:10180000F50F130595060605EFF0CF85EF00304282
:10181000EF00F04BCDB9EFF07F8529BF850793F737
:10182000F70F6373F50081470546A9F2A9B7EFF0FA
:10183000CFFA71B78145EFF0EFE7AA8513550C0198
:10184000EF00D02CADBF0547639EE710370700209F
:10185000370C00202304F758130CCC5881C8834759
:101860000C00631E090085072300FC0083470C0061
:1018700021476365F70E8A07D6979C438287FD1739
:1018800093F7F70F1D47E363F7FE8A07DA979C4348
:1018900082878D471CC0D9BF9147EDBF9D47DDBFF3
:1018A000A147CDBFA547FDB789451305D01DEFE082
:1018B0003FFA89451305F01DEFE09FF923000C0066
:1018C00075B7EFF08FF9232004004DB7814701472A
:1018D00081461306D0069305E0061305D00609A835
:1018E00081470147814619469305300713050005D6
:1018F000EFF0AFD5E9B58147014781461306B00542
:10190000E5B78147014799461306400599451305F8
:101910007007F9BF814701479306B005F5B78147C6
:1019200001479306F004CDB781470147930690071E
:101930001306E003930570074DB781457545EFF039
:101940006FD7AA851565EDBD8147014793068007CE
:101950001946930560071305900759BF8547230073
:10196000FC00B1BD91C49377D9FF6393E7001CC01D
:10197000184099469307D7FFE3E3F6E48A07D29726
:101980009C4382870145DD29EFB0403DA945B30561
:10199000B502130500606DB50545CD21EFB0003CE3
:1019A000A945B305B5021965130505B051BD094533
:1019B000F121EFB0A03AA945B305B50215651305AD
:1019C00005F0BDBD8D4781456318F7025945EFF01D
:1019D0006FCEAA85096513056530EF003013E380EB
:1019E00004DE89476312F90814400D479547638365
:1019F000E60099471CC0E1B35D45EFF0AFCBAA8587
:101A000019651305B535D1BF954781456317F702B1
:101A10005945EFF02FCAAA850965130565C0EF0087
:101A2000F00EE38E04D88947631BF906144015476E
:101A30008D47E381E6FC914775BF5D45EFF08FC7A9
:101A4000AA8511651305B5F5D9BF5547E37DF7D8CC
:101A500001441D4C2285050481451374F40FEF00E9
:101A6000007FE31984FF41B3E31B09D418408D477D
:101A70001305D01D6304F7001305F01DEFE09FDE92
:101A800018409305150093F5F50F8D471305D01DEC
:101A90006304F7001305F01DEFE0BFDA0DB3E310A8
:101AA00009D2184095471305D01D6304F7001305AC
:101AB000F01DEFE03FDB9305F5FF93F5F50F1840C0
:101AC0009547E9B7EFE2BFA537140140EF40E01DAD
:101AD0001305048093050010EF404036130504C041
:101AE000C145EF4000298564938504C2130504C0F5
:101AF000EF40002D37061800130504C09146130669
:101B00000610A145EF40402E938504801305048004
:101B100091460146EF40402DE1460146130504C0C1
:101B20008D45EF40602C130504809305F004EF40D1
:101B3000C02613050480E14601469305000AEF40E4
:101B4000A02AE1460146130504C0A965EF40C0295B
:101B500013050480C145EF40C021130504C085650D
:101B6000EF402021130504C0E14637461D009305D0
:101B70000020EF406027130504C093068004374619
:101B80001D0093050010EF402026F146130504C008
:101B900001469305000CEF402025EF300014054668
:101BA000854537350140EF40F00D3745004005468B
:101BB000854513050580EF40F00C371500001546EC
:101BC0008545130525DAEF40A07AB7440F00B72604
:101BD00000008D470547938504249386A64F13067E
:101BE00040060D45EF40704C0D45EF405044B14666
:101BF0001306803E938504240945EF40505509455E
:101C0000EF40F04285450545EF30205BC1451305A7
:101C100004C0EF40E0213765004013050540EFE0C8
:101C2000DF9E6FE01F92EFE29F8F372501408145D5
:101C300013050540EF109000370500200325055AD5
:101C4000B70700201384875A01479387875A8D4628
:101C50000546894523200400EF7000141C4091C7FD
:101C6000B7E700E0116723A0E7206FE09F8DEFE268
:101C70001F8B37040240130544048145EF20C00642
:101C8000BD4513054404EF2080080145EF302032A4
:101C9000854513054404EF2020056FE09F8AEFE29D
:101CA0001F8889476308F5008D476300F5020145E9
:101CB0006FE03F899305004037150140130505C0CB
:101CC000EF4040161375F50FE5B793050002EDB729
:101CD000EFE2FF8491E937150140C145130505C0C6
:101CE000EF4000156FE0FF8537150140C145130532
:101CF00005C0EF40A014FDB7370500201305055AB5
:101D00008280EFE2DF81EF60902AB707002023A2F4
:101D1000A75AB707002003A5075A01478D46114669
:101D20008145EF60706C6FE0DF81EFE24FFF03A74A
:101D3000818393878183DC2301113724014030089C
:101D40009545130504403ACC230EF100EF30805C3A
:101D5000EF308018B72700002A87938767C23705BE
:101D600002403EC08D48054881479306C44405465D
:101D700081452105EF30303605616FE08FFCEFE2E1
:101D80000FF74111EF3040152A841309E501AA84A9
:101D9000039504008904EF302054239FA4FEE399A7
:101DA00024FFB7E70000B7E9000037EA000083AB83
:101DB000873DB7E70000832A0A3D03AB493D03ACEA
:101DC000C73D938441BB01493E244A288D4DA685D9
:101DD0003E951E20137DF90F3E953355B503938C28
:101DE00001BC42054181EF70E0506307BD07914798
:101DF0006309FD04EFB0600E83250A3D131D290021
:101E0000669DEFA0301483A5493DEFA0B013DE8599
:101E10002AC6EFA03013B247AA8D03A50C01BE85D8
:101E2000EFA0503BAA856E85EFA080552320AD0022
:101E30000509954709048904E318F9F841016FE0A1
:101E4000CFEEEFB08009D685EFA0D00FDA85EFA0F6
:101E5000700F23A8AC00E9BFEFB02008E285EFA027
:101E6000700E83A5493DEFA0F00DB7E7000083A5F4
:101E7000073EEFA0401A23A6AC005DBF0A0593877A
:101E800001BCAA9788438280EFE2EFE639717D5763
:101E900034081306F00F81450145EF609046E24794
:101EA000918BF5D75935A9473EDA3ED8B7270000C0
:101EB0009387E7C905444C100D453EDE22D4EF3030
:101EC00000051305B020EFE07FE47D151335150004
:101ED0002AD44C100945EF308003B72700009387C0
:101EE00007CD6C0801453ED022D4EF20907F1384AB
:101EF00041C0138541C0EF70804513050401EF70A8
:101F00000045B7E7000003A4473E938441BDA28586
:101F1000138541BDEF700041A28513858400EF70E9
:101F20006040B7E7000003A4873E938441BEA285CA
:101F3000138541BEEF702041A28513850401EF7027
:101F4000804081450145EF30E00085450545EF3093
:101F50006000BD64372400001308E4C695470147BC
:101F6000138604A6A1469305007D0145EF40F02CA1
:101F7000138604A6A1469305007D0145EF4010405D
:101F80000145EF30400AB70902401304E4C6B736F2
:101F900001402A878D4805488147938606C4054637
:101FA0001385490422C08145EF30F012138549049E
:101FB000BD45EF10D055854513854904EF10D0522B
:101FC0000145EF40D006B707002003A5475A014757
:101FD000894601468145EF603041B7E7000003AA1A
:101FE000C73E0144A109854A938401BC370B0020F8
:101FF000D28BEF20706EAA853D464E85EF30D024FF
:102000002945EF600036014734081306F00F81457B
:102010000945EF60102F058969DDEFF05FD6EF30DD
:102020004010630454050DC489476302F4068D47CC
:10203000E311F4FC81450145292181450545112124
:10204000EFE09FDC81450145EF20506B014455B71F
:102050000D45EF20F06E51DDC844D285EFA0605DE4
:102060001345F5FF1354F50169B70545EFE01FCAA5
:10207000AA850145F9260945EFE05FC9AA8505450E
:10208000C92685450145EF20706709449DB71309AE
:102090008B594944594C85452285EFE0BFE1835770
:1020A0000900420541816384A7002310A9000504AB
:1020B0000909E31284FFC844DE85EFA0805763520C
:1020C000A0020D45EF20D06711C94C100145EF204B
:1020D000307E4C100545EF20B07D45BF8545EF2093
:1020E000F0610D4439B7EFE28FC3370502401305A5
:1020F0000503EF30607C37350140EF40E041054497
:1021000037350140EF404042E30C85FE3715014072
:10211000C14513050580EF30B0516FE08FC2EFE28B
:102120000FC03705024013058505EF30E0783744CE
:10213000004013050480EF40203E130404808544D2
:102140002285EF40603EE30D95FE37150140856521
:10215000130505C0EF30D04D6FE0AFBE85470606D2
:102160003396C700060589473395A7000147814785
:102170006312B702139507014181C183814501476D
:102180006390D502598D4183938641C2D98FEAA2CB
:102190009EA682800507C98F1377F70F0A05C9BF6E
:1021A0008505518F93F5F50F0A06D9BFB5468147CE
:1021B000014763ECA6003967931725001307073F13
:1021C000BA979C438287254789478D461145638787
:1021D000D500894609456383D5000545938641C2EC
:1021E0003315E5008607B697420505478396070035
:1021F0004185631AE604558D8AA382808D47330595
:10220000F5021377F50FC9B78D473305F502691548
:102210001377F50F854755BF8D473305F5025115E7
:102220001377F50F814755B7194779BF3547DDB7A4
:102230002947CDB759159377F50F314779B725471A
:10224000D5B71947C5B71345F5FF758D75B79947CC
:1022500063ECA708B967938787420A053E95184142
:10226000B70700209387C75A02879A2393D6550051
:10227000AE05719B558F9AA3BA231377F77F4D8FC5
:10228000BAA38280BA238E05137737C0CDBFBA2395
:1022900093D64500B205619B558FBAA3DA23520746
:1022A00051834D8FDAA38280DA23FD76FD06758F88
:1022B0009605C5BFDA2393D62500FD8A019B558F6D
:1022C000DAA3FA23BA054A0749834D8FFAA382801D
:1022D000FA23F1769386F607758F9E05FDB7FA23EC
:1022E000137707F8D98DEEA3828037070020930774
:1022F000C75ABE231307C75A09C593E707403EA331
:10230000828093F7F7BFC207C183D5BFEFE2AF9ECC
:10231000AA89AE84014C63D50500B304B040054CD6
:10232000B7470F009387F72337871E00A697130739
:10233000E7476365F704E1679387F7693717030099
:10234000A6971307E7D36361F70C89679387F77044
:102350001567A6971307E7E1636BF70A9387743E47
:102360001307E07C6368F70A938734061307600C51
:10237000094A0D4B6366F700094B19A0014A1D4B32
:1023800037090020B96B814A1309C95A938B4B4610
:10239000A94C8357290013841A00568593E70740F8
:1023A0002311F900B3E794031374F40FDE978C2321
:1023B000EFF0FFE9B3C4940363118B06630B0C00C9
:1023C00022859305000413842A00EFF05FE813745C
:1023D000F40F994463F5840489476315FA020355A1
:1023E0006900F1777D8D93D7890093F7F7075D8DAD
:1023F00091679E09938707F8B3F9F90033653501B2
:102400002313A9006FE0AF92054A194B95BF094A03
:10241000154BBDB7094A114BA5B7A28A9DBF2285AE
:1024200081450504EFF0BFE21374F40F65B7370779
:1024300000201307C75A1E230A058D8BC98F1EA3C0
:102440008280EFE2CF8D2E87A14511E19145B967DA
:10245000060793874744BA9792230945EF40100532
:1024600081450945EF40900C6FE0AF8DEFE22F8B77
:10247000B72700004111370402409387E71137075F
:102480000020B74600403EC0130584058948054832
:1024900081471307C75A9386C68005468545EF30A6
:1024A0008043B72700009387670EB73601403EC0D0
:1024B000894805488147138701C3B106054685450C
:1024C00013050403EF30204141016FE08F87EFE2F5
:1024D0000F85371501408565130505C0EF301016CF
:1024E00037040240914513058405EF30C03D1305C4
:1024F0008405EF30803B6FE0CF84EFE24F822946C6
:10250000938541C2138501C3EFA05032B706002066
:1025100003D7465B1306301FA28705074207418396
:102520009386465B636FE60C9AA29A221306B0125A
:1025300013051700420541816370E604138601C349
:1025400003588600ED759385A5AAB3F50501032808
:102550000600B778F6DB938868DB33781801232010
:10256000060103284600B778AAAA938868DB337867
:102570001801232206010EA60907420741839AA2E9
:102580009306500963F8A602938601C38E2615664A
:10259000130656556D8E8C423765EDB71305D5B6CB
:1025A000E98D8CC2CC42376555551305D5B6E98DFA
:1025B000CCC292A69306500963F1E602938701C349
:1025C000D62315671307B76D758F94433736DB6FC6
:1025D0001306B66DF18E94C3DAA337150140C145D9
:1025E00013050580EF30900537040240954513052B
:1025F0000403EF30402D13050403EF30002B6FD0A0
:102600005FF42390060015B7EFD27FF10545EF1078
:102610005038EF00F022EFF0EFCAEF007048EF0003
:102620003037EF50301A01A082809967739007808D
:1026300001A0EFD2DFEE9C2141119305E1007C87E0
:1026400085479CC24829054613051521EFE0AFECEC
:10265000014541016FD0FFEEEFD27FEC9C210111CB
:102660006147A30FF1006367F7022A844829328982
:10267000AE8405469305F1011305250C36C6EFE03F
:102680008FE9B2464A86A6852285EF7070440561BF
:102690006FD03FEB4145E5BFEFD27FE89C210111B0
:1026A0002E84AA8432899305F10105461145A30FB2
:1026B000F10036C6EFE02FE6B2464A86A2852685AF
:1026C000EF70104105616FD0DFE7EFD25FE58C213D
:1026D0004111BD47CC8763EEB70258298547368440
:1026E0006311F7020145EFF0DFD505469305F100D0
:1026F0000545EFE04FE285471CC0014541016FD021
:102700005FE40545EFF0FFD305469305F100094569
:10271000CDB73D45E5B7EFD29FE089479CC2482938
:102720002E8485454505EFE0EFF808A0420541817C
:10273000218108B001456FD0DFE0EFD25FDE854731
:102740009CC248292E8481456105EFE0AFF608A0C0
:1027500001456FD01FDFEFD2FFDA2A8488215C2881
:102760004111C8870947AE843289B689638FE70073
:102770000D47638FE70005476393E702EFE05F9142
:1027800019CD414541016FD03FDBEFE09F91CDBFB7
:1027900005469305F1001305A020EFE0CFD7CE86C4
:1027A0004A86A6852285EF70B032E9BF1C2141110F
:1027B0005C871C31DC87288741018280EFD23FD6BD
:1027C00001112A842E8536C6EFF05FFEB246894796
:1027D000E8879CC248289305E10109461305F521C5
:1027E000EFE06FD3014505616FD0BFD5EFD23FD386
:1027F00001112A842E85AE84328936C6EFF01FFB84
:10280000E88748289305E10109464905EFE0AFD084
:10281000B2464A86A6852285EF70902B05616FD05F
:102820005FD2EFD23FCE41112A842E85AE84328909
:10283000B689EFF0BFF7AA85688748280547631F68
:10284000E50013050021EFD0DFFFCE864A86A6857E
:102850002285EF70F02741016FD01FCE0946930506
:10286000E1001305050DEFE00FCBC5B7EFD23FCB6D
:102870004111AA8511466800EFA0407B3245410115
:102880006FD03FCCEFD2BFC9914741112A849CC27F
:102890002E85EFF0BFFDC88748289305F100054657
:1028A0001305C51DEFE02FC7014541016FD07FC95A
:1028B000EFD2FFC601112A842E85AE84328936C636
:1028C000EFF0DFFA2ACE48286C0811461305051EE2
:1028D000EFE06FC4B2464A86A6852285EF70501F8E
:1028E00005616FD01FC6EFD29FC341112E8536C63A
:1028F000EFF0DFF7EFE06FDBB246914701459CC296
:1029000041016FD01FC4EFD29FC101112A843285CB
:102910002EC636C4EFF09FE9A246B24589479CC255
:10292000E887882109469305E1017D150605229572
:1029300042054181EFE02FBE014505616FD07FC0A8
:10294000EFD2FFBD2E86930545016D45EFF0BFFB2D
:102950006FD03FBFEFD2BFBC2E8693054501130554
:102960007002EFF05FFA6FD0DFBDEFD25FBB2E8653
:102970009305450113053003EFF0FFF86FD07FBCDE
:10298000EFD2FFB92E86930545011305F003EFF052
:102990009FF76FD01FBBEFD29FB82E8693054501DE
:1029A0001305B004EFF03FF66FD0BFB9EFD23FB7D9
:1029B0002E869305450113057005EFF0DFF46FD007
:1029C0005FB8EFD2DFB52E869305450113053006BB
:1029D000EFF07FF36FD0FFB6EFD27FB42E86930572
:1029E00045011305F006EFF01FF26FD09FB5EFD24F
:1029F0001FB32E86930545011305B007EFF0BFF016
:102A00006FD03FB4EFD2BFB12E86930545011305B9
:102A10007008EFF05FEF6FD0DFB2EFD25FB02E86BD
:102A20009305450113053009EFF0FFED6FD07FB13D
:102A3000EFD2FFAE2E86930545011305F009EFF0A6
:102A40009FEC6FD01FB0EFD29FAD2E86930545014E
:102A50001305B00AEFF03FEB6FD0BFAEEFD23FAC43
:102A60005C290D474111B6846392E7022E85EFF091
:102A7000FFDF488605466C003545EFE0CFA991475A
:102A80009CC00144228541016FD0BFAB1144E39B40
:102A900087FE2E85EFF09FDD2AC611466C001305D8
:102AA000C020EFE04FA780C0E9BFEFD25FA711477A
:102AB00098C25C2989462E846388D70263E8F600B1
:102AC0000547638FE70001456FD0BFA78D46638F31
:102AD000D7001305C020E398E7FEEFE06FA119A02F
:102AE000EFE04FB508C0C5B71545C5BF3545EFE0A8
:102AF000EFA1CDBFEFD2BFA22A8418208547411194
:102B00002E85B2846310F702EFF05FCA9375F50F5C
:102B10002685EF20002B814711C1BD473E8541012D
:102B20006FD03FA2EFF09FD42AC2082011464C007C
:102B30001305B50EEFE02F9E1249131509014181CF
:102B4000EFA0A0392AC613550901EFA00039B7E755
:102B5000000083A5473CEF90B00210202AC42C004F
:102B60007D16420641822685EF20C0306DB7EFD238
:102B70001F9B41112A8432895105014636C6AE8415
:102B8000EFF05FF7B24611E54A86A6852285EF7021
:102B9000207441016FD0FF9AEFD27F9841112A84AF
:102BA00032895105054636C6AE84EFF0BFF4B24611
:102BB00011E54A86A6852285EF70807141016FD0AC
:102BC0005F98EFD2DF9541112A8432895105094679
:102BD00036C6AE84EFF01FF2B24611E54A86A685EE
:102BE0002285EF70E06E41016FD0BF95EFD23F9329
:102BF000894741111CC22EC6EFD0DFC6B24588A15D
:102C0000218188B1014541016FD0BF93EFD23F913F
:102C100036866D45EFF09FFD6FD0BF92EFD23F90AB
:102C2000368613057002EFF07FFC6FD09F91EFD2D4
:102C30001F8F368613053003EFF05FFB6FD07F9058
:102C4000EFD2FF8D36861305F003EFF03FFA6FD019
:102C50005F8FEFD2DF8C36861305B004EFF01FF9DB
:102C60006FD03F8EEFD2BF8B368613057005EFF025
:102C7000FFF76FD01F8DEFD29F8A3686130530067F
:102C8000EFF0DFF66FD0FF8BEFD27F89368613052A
:102C9000F006EFF0BFF56FD0DF8AEFD25F8836869F
:102CA0001305B007EFF09FF46FD0BF89EFD23F87D5
:102CB000368613057008EFF07FF36FD09F88EFD250
:102CC0001F86368613053009EFF05FF26FD07F87DD
:102CD000EFD2FF8436861305F009EFF03FF16FD095
:102CE0005F86EFD2DF8336861305B00AEFF01FF060
:102CF0006FD03F85EFD2BF82054798C25C298946D5
:102D00002E84638DD7008D46638FD7006395E700CF
:102D1000EFE0AFB708A001456FD0BF821305902048
:102D2000EFD0DFFEC5BF1305A020DDBF83A7418123
:102D3000DC431387C712631607103967130707634D
:102D400023A0E71413874714631607103967130786
:102D5000074E23ACE7141387C715631607103967AE
:102D60001307074F23A8E7161387471763160710A3
:102D700039671307076023A4E7181387C71863167A
:102D8000071039671307075823A0E71A1387471A54
:102D90006316071039671307075A23ACE71A13871E
:102DA000C71B6316071039671307075C23A8E71CC6
:102DB0001387471D6316071039671307075E23A49F
:102DC000E71E1387C71E63160710396713070753DB
:102DD00023A0E720138747206316071039671307DE
:102DE000075523ACE7201387C721631607103967FF
:102DF0001307074B23AEE722138707246316071038
:102E000039671307075223AAE72413878725631618
:102E1000071039671307074D23A6E72613870727EF
:102E20006316071039671307074823A2E72813879B
:102E300087286316071039671307076123AEE72851
:102E400001AA39671307076423AAE71213878713B8
:102E5000E31507EE39671307075023A6E714138716
:102E60000715E31507EE39671307074A23A2E7168C
:102E700013878716E31507EE39671307076223AE3A
:102E8000E71613870718E31507EE39671307075787
:102E900023AAE71813878719E31507EE3967130785
:102EA000075923A6E71A1387071BE31507EE3967AF
:102EB0001307075B23A2E71C1387871CE31507EEA4
:102EC00039671307075D23AEE71C1387071EE31559
:102ED00007EE39671307075F23AAE71E1387871FCB
:102EE000E31507EE39671307075423A6E720138776
:102EF0000721E31507EE39671307075623A2E722D8
:102F000013874723E31507EE39671307075123A4F7
:102F1000E7241387C724E31507EE39671307074C27
:102F200023A0E72613874726E31507EE3967130723
:102F3000074723ACE7261387C727E31507EE396752
:102F40001307074923A8E72813874729E31507EE46
:102F50008280B71702409843B706FFF84111136704
:102F6000170098C3D84337060200758FD8C398431B
:102F7000B706F7FEFD16758F98C39843B706FCFF9A
:102F8000FD16758F98C3D843B70681FFFD16758F60
:102F9000D8C337079F0098C702C402C69843C166CA
:102FA000558F98C3B716024005679C42F18F3EC605
:102FB000A24785073EC4B24781E7A247E397E7FEF1
:102FC000B71702409C431397E700635907068547EC
:102FD0003EC6324785476311F706B7170240D8430C
:102FE000B706C1FFFD1613670708D8C3D843D8C377
:102FF000D84313670740D8C3D843758FD8C3D84385
:10300000B7063D00558FD8C39843B7060001558FCA
:1030100098C3984393166700E3DD06FED843B716BE
:103020000240719BD8C3D84313672700D8C32147F8
:10303000DC42B18BE39EE7FE4101828002C651BFB4
:10304000B7160240DC42370700201146B18B130748
:1030500007526385C70021466388C702B7177A0005
:10306000938707201CC3B7170240DC43918393F674
:10307000F700B707002093870700B69794231C43F7
:10308000B3D7D7001CC38280DC42D4424166C983D7
:10309000BD8BF18E890745466393C700C94781EE12
:1030A000B746024083A60680C18A89CEB7167A0049
:1030B0009386062021A8B7160240D4421396E60054
:1030C000E35606FEB7163D0093860690B387D702F7
:1030D00051BFEFD22FC3C164411137090020094409
:1030E0000D4A8D4AFD148327895B9309895B638EA2
:1030F000870463804703E5FFEFD0CFF7EFF00FB70A
:10310000EFE03FC0EFE06FBBEFF05FC223A05901DB
:10311000D9BF7D577400014681450145EF50701EAF
:10312000B247E39287FC268681450145EF509065C2
:10313000EFD06FCC0841EF40505EEFD06FCC08412C
:10314000EF40B05D23A0890079BF1305401FEF5009
:103150004021EF30703F41BFB72700209387476081
:103160001CC1B7270020938747209CC19307000804
:103170001CC28280B72700209387C7651CC1B72770
:103180000020938747409CC1930700081CC282809F
:10319000EFD2EFB8EFD0DFD02A8437280020B7274E
:1031A0000020B7E5000037150000130848F59387A5
:1031B00047B50D4785461306001093850565130531
:1031C000254EEF40304B08C0EFD08FC32A84B7E5BF
:1031D0000000370500001388C1039387C1C315475A
:1031E0008546130600109385C5651305657AEF4083
:1031F000704808C0EFD02FC02A8437280020B717A6
:103200000020B7E50000370500001308488A9387BF
:1032100047DB1D4785461306C02B9385C5661305FE
:103220004561EF40304508C0EFE01FAD2A843728E4
:103230000020B7270020B7E500003725000013085D
:10324000C8AF9387C78F214785461306000893852B
:103250000568130585E8EF40F04108C037280020D5
:10326000B7270020B7E50000373500001308C81A5B
:103270009387C7FA0D478546130600089385C568EE
:103280001305250DEF40103FEFD08FB70841EF50E9
:10329000001DEFD04FB60841EF50601C6FD06FAAF1
:1032A000828001A001A001A001A001A001A001A0B5
:1032B00001A001A001A001A001A001A001A001A006
:1032C00001A001A001A001A001A001A001A001A0F6
:1032D00001A001A001A001A001A001A001A001A0E6
:1032E00001A001A001A001A001A001A001A001A0D6
:1032F00001A001A001A001A001A001A001A001A0C6
:1033000001A001A001A001A001A001A001A097E1DE
:10331000FF1F938121A1172100201301A1CE17C502
:103320000000130565F897D5FF1F9385A5CD13867B
:10333000018463FAC5008322050023A0550011050E
:103340009105E3EAC5FE17D5FF1F1305A5219705D3
:103350000020938525E46377B5002320050011053F
:10336000E36DB5FEFD42739002BC894273904280CA
:10337000B72200009382028073A0023097D2FFFF31
:103380009382C2CB93E2320073905230EFF07FBC55
:1033900097F2FFFF938282277390123473002030DC
:1033A000EFD2EF97B727014093870740631EF500E0
:1033B000854513050020EF104002814513050020CC
:1033C000EF10A0016FD0EF97B737014093870780C8
:1033D000E31AF5FE854513050040EF100000814516
:1033E00013050040F1BF5C413707F1E01307F7EF29
:1033F000944D7D8F9C41D58FD44DD58FD441A2065D
:10340000D58FD98F5CC11C4537F7F1FF1307D77FE4
:10341000D4457D8F9C49D58F94458606D58FD98F0D
:103420001CC55C55370710FF7D177D8FDC29FD1704
:1034300093F7F70FD207D98F5CD582801C4589C5D9
:1034400093E717001CC58280F99BEDBF1C4589C519
:1034500093E707101CC5828093F7F7EFE5BF1C4583
:1034600093E787001CC5828008450D81058982800D
:103470001C4593E747001CC58280084509810589E2
:1034800082801C4591C537075000D98F1CC58280AA
:103490003707B0FF7D17F98FD5BFA54763F7B7048E
:1034A0008D47138765FF3307F7020328C5009D4743
:1034B000B397E70093C7F7FFB3F70701B396E600AA
:1034C000DD8E54C5994763E3C70495477D163306DF
:1034D000F6025859FD47B397C70093C7F7FFF98F16
:1034E0003396C5005D8E50D982800D473387E50243
:1034F000032805019D47B397E70093C7F7FFB3F78C
:103500000701B396E600DD8E14C96DBFB14763E2D3
:10351000C702954765163306F6021859FD47B3975B
:10352000C70093C7F7FFF98F3396C5005D8E10D99A
:10353000828095474D163306F6025855FD47B397DE
:10354000C70093C7F7FFF98FB395C500DD8D4CD544
:1035500082801C4591C537071000D98F1CC5828019
:103560003707F0FF7D17F98FD5BF5841144193D726
:103570008500F58F99C713F5F50F798D3335A000C8
:10358000828001458280A18193C5F5FF0CC18280B4
:103590005C4191C537070004D98F5CC18280370731
:1035A00000FC7D17F98FD5BFEFC27FF701112A8488
:1035B00023030100A5441C8363FAF40623030100DE
:1035C000A54621461C8363F0F60A23140100231547
:1035D0000100230301009546130600601C8363FE6F
:1035E000F60E1C8393F7F70F638407123884148355
:1035F0003C840C8310833347D702B3E7B7028607B6
:10360000B3C7C702BA97C207C1837C84188399479E
:103610009546998F93F7F70FDC839C8393F7F70F09
:10362000639C07108567938707800DAA1C4493E766
:1036300087001CC42285EFF03FE36DFD1C4493E737
:1036400047001CC42285EFF05FE36DFD78441C83C6
:1036500014108607B6972396E7FE1C83850793F719
:10366000F70F5C8389BFA30301009C836378F60096
:103670001C83850793F7F70F5C83A9B798839C8316
:103680000C100607850786072E97AE970357C7FECF
:1036900083D7C7FE63FDE7029C838607AE9783D777
:1036A000C7FE7C849C83988385078607AE9783D565
:1036B000C7FE931717001810BA972396B7FE9C837E
:1036C00038840C1085078607AE972396E7FE9C8307
:1036D000850793F7F70FDC8349BF1C831810890710
:1036E0008607BA9783D7C7FEE36DF6EE1C830C10EE
:1036F000388489078607AE9783D7C7FEBA97C20773
:10370000C1837C841C83850793F7F70F5C83F9B52D
:1037100093070040DDBD1C8310103885890786079C
:10372000B29783D7C7FEBA97C207C1837C851C8333
:10373000850793F7F70F5C831C83E3FEF6FC38855F
:1037400094833C858C8390833347D702B3E7B702D9
:103750008607B3C7C702BA97C207C1837C8528848E
:1037600034852C8430850567930700401307078054
:103770003385A740B306D7408D8F118F4205C2060F
:10378000C2074207C18641874185C1873695BA97EE
:1037900089463345D5020561B3E7D7023E95420518
:1037A00041856FC01FDAEFC29FD70545EF00B046D5
:1037B0000145EF0050466FC0DFD81841AA87759BBE
:1037C00018C118411367170018C14167D443858A8F
:1037D00099E27D1765FFD8430145058B49CF944594
:1037E0000547639BE608984313670708D44598C3C9
:1037F00005476397E608984313670704944998C3FD
:1038000005476393E608984313670702D44998C3B2
:103810000547639FE606984313670701944D98C3D5
:103820000547639AE606984313678700D44D98C30B
:1038300005476395E60698431367470098C3B82188
:10384000B4317A07E206558FD421C206558FD431A0
:10385000D206558F9621FD16558FD8CF9843799B68
:1038600098C34167D443858A99C27D1765FFC843D1
:103870001345F5FF0589828098431377F7F7BDB7A5
:1038800098431377F7FB9DBF98431377F7FDBDBFB0
:1038900098433D9B61B798435D9B49BF98436D9B9F
:1038A00071BF3767004013070740832607203C2578
:1038B000054893E616002320D7208325C721331619
:1038C000F8009346F6FFF58D232EB7204C25C5E56D
:1038D0008325C720035825008E07F58D2326B720A2
:1038E0006E21BA975A21C205B3E5050123A0B7247A
:1038F0000E2142074D8F23A2E724B7270240985B91
:10390000B707000FF98F99EF37670040930707302B
:10391000130707408E239107C205C181239EB7EE8E
:10392000E39AE7FE3835B7670040938707402DEBF1
:1039300003A74720758F23A2E7201A25B767004009
:103940009387074035E303A74721F98E23AAD720A1
:10395000184985476319F700B767004003A7C76197
:10396000598E23AEC760B767004003A70760799BF5
:1039700023A0E7608280E39205F98325C7200358DE
:1039800025008E07D18D2326B7200E21BA975A2104
:10399000C205B3E5050123A0B72442076E2199BFF4
:1039A00003A74720518F41BF8546E313D7FA03A7EA
:1039B0004721518F23AAE72061BF1C451397570069
:1039C000634E07081C4513974700634B07081C45C7
:1039D000914613973700635107088946939746002D
:1039E000AA9703A70718058B23A0E7189025883509
:1039F00035EA984103A607185607498F518F23A02F
:103A0000E718B8253D8BB8A503A64718419A23A20D
:103A1000C71803A64718518F23A2E718D025B83539
:103A20002206598ED8354207598EF8256207518FE4
:103A300023A4E7189029F8352206598E98394207B1
:103A4000598EB8296207518F23A6E71803A70718D4
:103A50001367170023A0E718368582808146BDBF13
:103A60008546ADBFD84103A807180E07498F518F6F
:103A70003367070169B793974500AA9703A7071B08
:103A8000118B18A62DE703A7071B558318C203A7A0
:103A9000071B098B18B603A7471B3D8B38A603A746
:103AA000471B218338BA03A7871B38B603A7871B98
:103AB000218358A603A7871B418358B603A7871BFA
:103AC000618378A603A7C71B78B603A7C71B21830A
:103AD00018AA03A7C71B418318BA83A7C71BE18392
:103AE0003CAA99E95C4593E707025CC5828003A77D
:103AF000071B0D8358C261BF1C4993E707021CC90D
:103B000082808DE51C418546F19B93E717001CC11F
:103B1000C16758410D8B6304D700FD17FDFB5C4165
:103B20008D8BFD1793B717003E8582808547639E76
:103B3000F5001C41F19B1CC1C16758410D8B19C395
:103B4000FD17E5FF5C418D8BF1BF09478147E39D80
:103B5000E5FC1C418946F19B93E727001CC1C16726
:103B600058410D8B6304D700FD17FDFB5C418D8B25
:103B7000F9174DBF5C4901C6DD8D4CC9828093C5E4
:103B8000F5FFFD8DDDBFB707F000ED8F89CB104D40
:103B90003375B600320531813335A00082809397AA
:103BA000750063D60700544133F5B600E5B7939727
:103BB000450063D5070008456D8DE9BFB7061000C5
:103BC00093976500FD1663D7070058453375B70016
:103BD000758DD9B71C4933F5B700DDBFB707F03095
:103BE000938707076395F500232C05008280939740
:103BF000C50013976500B183635407005CC58280DC
:103C000013975500635407001CC982801397450021
:103C1000635407001CC582805CC18280930700103A
:103C20006386F50663E7B702A1476388F50663E993
:103C3000B7000547638EE50411476381E50682807E
:103C400013070002638FE50493070004638AF504F9
:103C50008280938705808DCB85679387078063EB90
:103C6000B700930700206383F50293070040638F3A
:103C7000F5008280C1676388F502B7070200638799
:103C8000F502A1676393F502232C0500914729A84B
:103C9000C167938717101CC58280C1475CC58280AD
:103CA000C1471CC98280A1475CC18280C147EDBF6A
:103CB0001C4161773D0794517D8F9C45D58F944978
:103CC000D58FD449D58F944DD58FD44DD58FD45120
:103CD000D58F9455D58FD98F1CC1DC455CC19C41D3
:103CE0001CC5DC415CC582801C4189C593E7170077
:103CF0001CC1828041677917F98FDDBF1C4101C665
:103D0000DD8D0CC1828093C5F5FFFD8DDDBF4CC1FB
:103D10008280B70702409C437D8D3335A0008280AE
:103D2000EFC2EFFFEFF0FFFE6FC0BF81B7070240A9
:103D3000C8C382809C4513F7070113F8F70001C739
:103D4000D8413368E80037270240145B3707000F7B
:103D5000758F5DEB370700208546230ED75A37173E
:103D600001406315E5009A2135839AA18E2113F74E
:103D7000F50F39C318418146854E3D4F930F8002A0
:103D800093028004214E3396DE00B3F8C500631120
:103D900016039398260033131F011343F3FF337761
:103DA000E300B318180133E7E8006399F70750C937
:103DB0008506E39AC6FD18C11307F00F6375B704B3
:103DC00054412146854E3D4F930F8002930280045B
:103DD000414EB398CE0033F715016392E8021317F2
:103DE000260001173313EF001343F3FFB376D3001C
:103DF0003317E800D98E6397F703232A15010506C8
:103E0000E319C6FD54C1828037170140E310E5F67F
:103E1000370700200347C75B31DBB1B7E39A57F898
:103E200010C979B7E39D57FC23281501C9BFB717FF
:103E300001406318F500B707002083C7C75B91C333
:103E4000B58108456D8D3335A0008280B7170140DC
:103E50006318F500B707002083C7C75B91C3B5811E
:103E60000CC98280B71701406318F500B70700201E
:103E700083C7C75B91C3B5814CC98280B707014036
:103E8000635A0504DC4F93560501131805013707E3
:103E9000300013F6F60013580801B376E500635EB0
:103EA00005066399E604930606010D46B316D6008F
:103EB00093C6F6FFF58F99C9135755011377F73F4E
:103EC00012073317E800D98F6355050637070140FD
:103ED0005CCF828037270240145BDC433707000F3A
:103EE000758F55F313D71700F976CE07758FCD83ED
:103EF000D98F51BF1317B500635607008D46B3968F
:103F0000C6007DB7135755011377F73F12073317D4
:103F1000E8001347F7FFF98F79BF6390E602370691
:103F200001405442370700F17D17F98F758F58C251
:103F3000C1F5370701405CC382801317B500635C8D
:103F400007008D46B396C60093C6F6FFFD8EB707F1
:103F5000000FD58FF1BF1357550112073317E80033
:103F60001347F7FF7D8FB707000FD98FD1B7EFC287
:103F70000FDBB7570040938707408545631BF5006B
:103F8000370520009529814537052000B5216FC0F0
:103F90004FDB370540008D21814537054000FDB7D7
:103FA000EFC2EFD779712A84462168082EC6112EF8
:103FB000925737470F001307072433D7E702C2048D
:103FC000C18093F404FCC204C180B245616513054D
:103FD000056A131607014182D18C46A01620C2063D
:103FE000C182F99AC206C18216A094416369D504C0
:103FF0008606B3D7D7029146139707014183BA8744
:104000006373D700914705064206C2074182C18308
:1040100012B05EAC1E20DA21B62593E717001EA071
:104020001E20558FC207C18393F757BFD98F1EA09B
:104030009A25DE25D98F1EA445616FC08FD0EA2155
:1040400031667D16631DC5020D46B386C602B3D721
:10405000D702C207C1839396470199E293E71700FD
:10406000A166D58F9306C0123307D7029306803E10
:104070003347D7020507420741831AB059BF654647
:10408000B386C602B3D7D7029166C207C183D58F64
:10409000D9B71E2189C593E717001EA18280C207E8
:1040A000C183F99BC207C183CDBF1E2189C593E798
:1040B00007101EA18280C207C18393F7F7EFC207E2
:1040C000C183C5BF1E2189C593E707201EA1828039
:1040D000C207C18393F7F7DFC207C183C5BF1E21A3
:1040E00089C593E707401EA18280C207C18393F769
:1040F000F7BFC207C183C5BF5E2589C593E7170017
:104100005EA58280C207C183F99BC207C183CDBF70
:104110005E2101C6DD8D4EA1828093C5F5FFFD8D28
:10412000DDBF0EA982800A291375F50F828093F7EF
:10413000E50F19C293E71500C207C1831EA982804B
:10414000411102C62AC6B247BE952EC6B2478A237F
:1041500041018280411102C402C693D7C5012AC61B
:104160003EC4A247A205A18199CBB247D1073EC662
:10417000B247884341016D8D3335A0008280B2473C
:10418000C181E107EDB793C5F5FFC205C1814EA915
:104190008280B707002023A0A75C8280B707002099
:1041A0009387075C9443182181E63C21920721A85C
:1041B00094430546639FC6023C2110319207631465
:1041C000D60093E707F8B7E600E093F7F70FBA9643
:1041D0002380F6408546935757003397E6005441B5
:1041E000A5C2938707048A07B7E600E0B69798C38D
:1041F00082808C4389466391D50214313C216365EA
:10420000D6008A06B6975DB79386E6038A06B69708
:1042100093F7F70F920775B790438D46631CD6004E
:1042200014313C216364D6008606E9BF9386C60735
:104230008606F1BF94439147E39EF6F81C31BDB763
:10424000938707064DB7377700401C4309C593E7AE
:1042500007101CC3828093F7F7EFE5BFB716024043
:10426000DC4251777D17F98F5D8DC8C28280B71708
:104270000240238007022380070205476306E5000A
:1042800011476306E50082802380A70282801547DC
:104290002380E7028280371702401C535D8D08D3CC
:1042A000828001C9371702401C53A166D58F1CD3E9
:1042B0008280B71602409C5261777D17F98F9CD29D
:1042C0008280371702405C439146B18B6385D700EB
:1042D000A1466382D706B7177A00938707201CC1CF
:1042E000371602405C42370700201307070191830D
:1042F000BD8BBA9794231C41B3D7D7005CC15442FD
:10430000A1829D8ABA969422B3D6D70014C554428E
:10431000AD829D8A36971823B3D7E7005CC5584213
:104320003983937637001387418036971823B3D7A4
:10433000E7021CC982805C435843C166C983BD8BB8
:10434000758F8907C5466393D700C94701EF374783
:10435000024003270780418B09CF37177A001307E4
:10436000072021A83717024058439316E700E3D6E9
:1043700006FE37173D0013070790B387E70285B79E
:1043800099C5371702405C4B5D8D48CB8280B717CB
:104390000240D84B1345F5FF798DC8CB828099C573
:1043A000371702401C4F5D8D08CF8280B71702403F
:1043B000984F1345F5FF798D88CF828099C53717BF
:1043C00002405C4F5D8D48CF8280B7170240D84FC6
:1043D0001345F5FF798DC8CF828099C53717024004
:1043E0005C475D8D48C78280B7170240D8471345A8
:1043F000F5FF798DC8C7828099C5371702401C4BDD
:104400005D8D08CB8280B7170240984B1345F5FFAE
:10441000798D88CB828001C9371702401C53C16651
:10442000D58F1CD38280B71602409C5241777D17EE
:10443000F98F9CD282809357550005476399E70016
:10444000B71702409C4333D5A700058982800947EE
:104450006396E700B71702409C53F5B7B7170240C1
:10446000DC53D5B7B737004003D7078089C5598DCE
:104470002390A78082801345F5FF798DD5BFB7378C
:10448000004003D74780136707012392E7808280AB
:104490003737004083574780C207C183BD9BC2079F
:1044A000C1832312F7808280EFC26F8741112AC631
:1044B000EFF0FFFC3245B7370040135705013D8B45
:1044C00042052394E78041812396A780EFF05FFCAB
:1044D00041016FC00F87373700408357478093F7FC
:1044E0000702E5DF82803737004083574780C207E5
:1044F000C183DD9BC207C1832312F7803737004099
:1045000083574780A18BEDDF8280B737004003D708
:1045100047801345F5FF798D2392A7808280373736
:1045200000408357478003570780C207698FC183C4
:1045300009C77D8D3335A000828001458280EFB2AE
:104540001FFEEFF09FFC6FB0DFFFEFB25FFDB737EC
:104550000140631CF50085450565EFF01FE88145C6
:104560000565EFF09FE76FB0DFFDB7470040938729
:104570000780E31AF5FE85451165EFF0FFE78145F9
:104580001165EFF07FE7C5B71A218D6793870704A0
:10459000B6217D8F9E21D58FD621D58FF621D58F3F
:1045A0009625D58FB625D58FD625D58FF625D58FCF
:1045B000D98F1EA15A2DFD779387F77FF98F5EADB6
:1045C0009E291EA982801E2189C593E707041EA18A
:1045D0008280C207C18393F7F7FBC207C183C5BFBF
:1045E0005E2101C6DD8D4EA1828093C5F5FFFD8D54
:1045F000DDBF0A256D8D3335A000828093C5F5FFA0
:10460000C205C1810EA582801E319206558EC20759
:10461000C183F99BC207C1831EB11E2D1A31B73663
:104620000140C207C18393F7C7F0D18F4207C20789
:10463000938606C04183C1836304D502B706004058
:104640006300D50293860640630CD500B716004080
:10465000138606806306C500938606C06319D500DD
:10466000759BD98D93E515001EAD0EB18280559BCB
:10467000CDBF1E31B2062206C207C183BD9BC20751
:10468000C1831EB18358850185671A319387F7CF9F
:10469000D18EB3F71701D58F13984500B736014077
:1046A00042074208C207938606C041831358080197
:1046B000C1836304D502B70600406300D502938628
:1046C0000640630CD500B7160040138606806306CB
:1046D000C500938606C0631BD5001377F7FD3367CB
:1046E000E800136707011EAD1AB182801377F7F552
:1046F0004D8FC5BFEFB2BFE2B7370140938707C008
:10470000631FF5000564854513050480EFF0FFCCB9
:10471000814513050480EFF05FCC6FB09FE2B707CF
:104720000040631BF50085450545EFF0FFCC814552
:104730000545EFF07FCCD5B7938707406319F500A7
:1047400085450945EFF05FCB81450945DDB7B717D2
:104750000040138707806319E50085451145EFF098
:10476000BFC981451145F1B7938707C0E317F5FA33
:1047700085452145EFF05FC8814521455DBF1E217C
:1047800037370140130707C0C207C1836304E5023E
:10479000370700406300E50213070740630CE5009C
:1047A00037170040930607806306D500130707C03C
:1047B0006316E500BA2193F7F7F8D98FFA2193F73A
:1047C000F7CFC207C183D98F1EA1DE215EB59E211E
:1047D0001EB5B7370140938707C06314F5009C25C9
:1047E0001EB985475EA982801E31922103D825001B
:1047F000C207C183F99BC207C1831EB11E31562176
:104800001A2DC207C183420741831377C7F8518F1E
:104810009225F59BC20633660601D18F37360140DB
:10482000130606C0C1826310C502B225DD9B03D802
:10483000E500D18FD221ED9B93F6F6CFD18FD22513
:1048400033660601D18E56A11AADFA215AB91EB1AE
:1048500082801E3165771307F7CFC207C183BD9BE6
:10486000C207C1831EB11E31562103D88500C2077D
:1048700013960601162DC18393F7F7FD758F9621C8
:104880004182A206558FB62142074183B3E6060155
:104890009206D58FB7360140C207938606C0C18302
:1048A000631ED502B62593F7F7F703D8C500920625
:1048B000D58FD621C207C183920693F7F7FBD58F18
:1048C000FD769386F63FF18EF225C207C1833366EB
:1048D00006010A06D18E13960601418252A11AAD35
:1048E000FA211ABD1EB182801E3103D88500C2078D
:1048F000C18393F7F7EFC207C1831EB11E31562162
:104900005A2DC20713960601420796214183137759
:10491000C7F8558FB621C18393F7F7DFB3E60601D9
:10492000A206D58FB7360140C207938606C04182E2
:10493000C183631FD502FD769386F67FF58FB6257A
:1049400003D8C500A206D58FD621C207C183A2060F
:1049500093F7F7BFD58FF576FD16F18EF225C207D6
:10496000C183336606011206D18E13960601418279
:1049700052A15AADFA215ABD1EB182801A31FD777B
:10498000FD17F98F1EB10358050256215E2D65777C
:1049900092211307F7CF7D8FF9772206FD17518FEC
:1049A000B3F70701B22103D88500C2064207336678
:1049B00006013206D18F37360140C207130606C002
:1049C000C1824183C183631AC50071767D16F18E61
:1049D000D2251A06D18EC206C18256A15AADFA213D
:1049E0002310E5041EB18280FD575EA1231005004F
:1049F00023130500231105002304050082801E21D6
:104A000089C593E717001EA18280C207C183F99B65
:104A1000C207C183CDBF8357450491C52167D98F94
:104A20002312F5048280C607C583DDBF5E2501C65B
:104A3000DD8D4EA5828093C5F5FFFD8DDDBFEFB204
:104A40001FAEEFF0BFFE6FB0DFAF1E25C207C18300
:104A5000E19BC207C1831EA582801E2189C593E701
:104A600007081EA18280C207C18393F7F7F7C20728
:104A7000C183C5BF1E2DC207C183DD9BDD8D0EAD79
:104A800082801A2DFD779387F77FF98FA205CD8F4E
:104A9000C207C1831EAD82805E2DC207C183DD9B2C
:104AA000DD8D4EAD82805A2DFD779387F77FF98F8C
:104AB000A205CD8FC207C1835EAD82801E2DC207C5
:104AC000C183CD9BC207C1831EAD1E2DDD8D0EADF2
:104AD00082801A2DFD779387F73FF98F1EAD1E2D2B
:104AE000A205DD8DC205C1810EAD82805E2DC2079B
:104AF000C183CD9BC207C1835EAD5E2DDD8D4EAD02
:104B000082805A2DFD779387F73FF98F5EAD5E2D3A
:104B1000A205DD8DC205C1814EAD8280EFB23FA0FE
:104B20009A212A84AE84BE21D221962511EBBE851E
:104B3000EFF09FADEE202285EFF05FF86FB07FA021
:104B40009145631AB700BE85EFF0BFB2EE20228513
:104B5000EFF03FF8E5B72145EE206318A7081A30BB
:104B6000920613988700420741831377F7EF4207B5
:104B700041831AB04A2C1A3042084205418113750C
:104B8000C5F0518D558DB7360140420742059386D9
:104B900006C041831358080141816304D402B7065B
:104BA00000406300D40293860640630CD400B7161D
:104BB0000040138606806306C400938606C0631E09
:104BC000D4001377F7DF3367E800936707104AAC28
:104BD0001EB02285EFF09FF195B7FD769386F65FC4
:104BE000758FD98F93E70710DDB70A307D777D1772
:104BF000698F1AB04A2C05671307F7CF698F0358DE
:104C00000402131586001396C600498E9398C700B8
:104C1000518FB73601404208C2084207938606C04A
:104C20001358080193D8080141836304D402B706DE
:104C300000406300D40293860640630CD400B7168C
:104C40000040138606806306C400938606C0631185
:104C5000D402F977FD173378F80033E80801856747
:104C6000B367F8005AAC1EB02285EFF09FE9F9B5A2
:104C7000A1669386F6DF3378D800B3E7070185662F
:104C8000D58FCDB74A3D82800355050482800A291D
:104C90006D8D3335A000828093C5F5FFC205C181BB
:104CA0000EA982801E294A25ED8F4205418189C7C0
:104CB0006D8D3335A00082800145828093C5F5FF5C
:104CC000C205C1810EA9828093F5F51F4EA1828095
:104CD0000A216D8D3335A0008280B727002093878D
:104CE000476E23A0070023A2070023940700B727DD
:104CF00000209387476D23A0070023A2070023A469
:104D0000070023960700B70700202392075C8280E4
:104D1000EFB24FFF91479304000063E4A708931795
:104D20001500372500201305456E3E958349050083
:104D3000AE84638809060031372900201309096F02
:104D4000A299139A0901135A0A01B14A931704014F
:104D5000C18363E64703930400006314FA041384D9
:104D6000F7FFB1473304F402B72700209387076F9A
:104D70003E940C404840EF70F01C0C4405A0228B80
:104D8000CE87631334033147B387E70226853E9904
:104D900083254900EF70101B83258900EF70A02741
:104DA000AA8426856FB04FF90504B30754032685FE
:104DB000CA9783A547FFEF703010E349A0F8DA8760
:104DC000D9B785476381F504B72700200605938787
:104DD000476EAA97982315E3370700201307475C0F
:104DE0001223130840060545B306B600634ED800EB
:104DF0008CA390B316A301458280FD150145630580
:104E0000B700094582800D458280EFB2AFEF4111B6
:104E1000AA892E893A85BE853684B2843EC63AC4B4
:104E2000EF70503B2A8AA2852685EF70B03AAA859A
:104E30005285EF70E054224723A0A900A2853A854D
:104E4000EF705010B247AA89A6853E85EF70900F8B
:104E5000AA854E85EF701038AA89A6852285EF7045
:104E60007037AA854E85EF70A0512320A90041011B
:104E70006FB08FEC93171500372500201305456E92
:104E80003E951C216378F604EFB26FE90031B1471B
:104E90002E8922961314060141803304F40203275D
:104EA0000900832789008326C90003264900B72407
:104EB00000209384046F9305840013054400269515
:104EC000A695EFF09FF48327C900269401451CC0E6
:104ED0006FB02FE709458280372500201305456B09
:104EE000828093173500370500201305855C3E95B9
:104EF000DC41230005005CC101458280B70700202A
:104F00000E059387875CAA978CA301458280F147A1
:104F10003305F502B73700209387C7BDD8413E95CA
:104F20009C4958C17D171CC9DC451337170058A987
:104F30005CC59C4D78A9232405001CCD01458280C9
:104F4000F1473305F502B73700209387C7BDAA970D
:104F5000C82B8280EFB2AFDCF1473305F502B737DB
:104F600000209387C7BD09473D46AA971305C00295
:104F70003385A502D8C337370020130747B6239AD5
:104F80000700238B070081453304A700090580C370
:104F9000232204023A95EFB08FDBB7E7000083A726
:104FA000C7692320040205451CD46FB08FD9EFB226
:104FB0000FD7F146B306D502B73700201387C7BD18
:104FC000AA843D6501461384C7BD130505A636971F
:104FD000144323A0060213872600F906035827006E
:104FE0001E23B305F84063D60500B307F540B3852B
:104FF000070109072E96E393E6FE3D453355A602C9
:10500000B73700209387C7BB93954400BE95EF4008
:105010002035F147B387F4020547A2979C4388D314
:10502000D8D36FB00FD2F1473305F502B737002060
:105030009387C7BDAA97884309058280EFB22FCE18
:10504000F1473305F502B73700209387C7BD3E957A
:10505000004129CC5841894701456317F7041C508A
:10506000A1C73E85EF707067B7E7000083A5476969
:10507000EF70406DB7E70000AA8503A5C769EF7020
:105080002030B7E7000083A58769EF70A06BEF7051
:10509000105342054181EF70F0570C54EF70806A55
:1050A000EF70F051420541816FB0AFC90145EDBFCE
:1050B000EFB24FC571443305850237340020130425
:1050C000C4BD2A94832904001C480D4583A4090209
:1050D0006387F40426852E89EF703060B7E70000FF
:1050E00083A54769EF700066B7E70000AA8503A5AE
:1050F000C769EF70E028EF70904C9307C003330549
:10510000F50242054181EF70F05083A58902EF70EE
:105110006063EF70D04A2310A90004C809456FB03E
:10512000AFC1EFB22FBE373400201304C4BD814499
:105130008949130A3006854A11495C40638B37055B
:105140001C4C2685829778286302A7041C44850797
:105150001CC41DEB18486379F7005C4068A893C72E
:10516000F7FF858BA98F5CA8850493F4F40F710475
:10517000E39524FDB70700209387875CD8438C23F1
:10518000014502976FB04FBB5844F1B72324040088
:10519000E1BF5C28850793F7F70F6364FA005CA80A
:1051A000E1B71C40230A0400D8536315570123A21A
:1051B00007025DBF23A0070245BFEFB24FB62E86A0
:1051C000AA853755004013050540EF0070796FB090
:1051D0004FB7373500201305C5C482808567330774
:1051E000C5009387078063C0E70AEFB2CFB02A8C6F
:1051F00041113284094515C6373B00208547AE89E9
:10520000368A130BCBC40149C14A631FF600032839
:105210004B02B6872E8629478546E2851305000A8C
:10522000029841016FB0AFB09377FC00B387FA40AA
:10523000C207C183A28463F38700BE84C204C18015
:10524000994BB38C290103284B02D2872947A686A4
:105250006686E2851305000A029801C92AC6FD1B6D
:10526000EF10902E3245E3900BFE058C26994204F8
:10527000E2944209139C0401418013590901135C13
:105280000C015DF079BF0945828085673307C50051
:105290009387078063C3E702EFB26FA83737002018
:1052A0000328C7C6B68713074006B2862E86AA858E
:1052B0001305000A02986FB0CFA809458280EFB2AB
:1052C0000FA64111AE8605469305F100EFF0FFFBF6
:1052D000888741016FB0EFA6B70700200397075DED
:1052E00081472A97634F070009CD05669306F6FFAD
:1052F000B6876358C700AA876305D50093170701CF
:10530000C1833E858280EFB28FA13165EFE01FF54A
:105310006FB02FA3EFB20F9FB727014093870740CD
:10532000AE8901112A84328A85456311F50A130575
:105330000020EFF0CF86EFF01FFD2285EFE04F86D3
:1053400085473EC23EC4B7070E003EC68A859547D4
:105350002285230AF10002C002C802CC02CEB96441
:10536000EFE06F8881479384046A63943707372599
:105370000140854513050540EFE0AF9D8545228539
:10538000EFE0CF8C85452285EFE04F8B228581456C
:10539000EFE00FA02285EFE08F8C2285EFE0CF8C2D
:1053A0006DFD2285EFE0CF8C2285EFE00F8D6DFD46
:1053B0002285EFE06F9FB70700202398A75C854503
:1053C0002285EFE0EF9C05616FB00F971305004059
:1053D0008DB713891700D2979C239D461376F90F3A
:1053E000A6978C232285EFE04F8BCA87BDBF5D71E6
:1053F00022DE372401402ADC2EDA1305044093050F
:10540000001486C696C49AC29EC032D836D63AD404
:105410003ED242D046CE72CC76CA7AC87EC6EFE083
:10542000CF9401CD9305001413050440EFE0AF9530
:10543000B707002083A7475D82977254B640A64203
:10544000164386436255D2554256B256225792575A
:105450000258F248624ED24E424FB24F6161730021
:105460002030B737002023ACA7C68280B737002092
:1054700023AAA7C68280B737002023AEA7C68280A2
:10548000EFB2EF8979712A84AE843289814513069F
:105490000002080802C402C6EFB06F8B85453705CD
:1054A0000002EFE0BFF193070030FC819307B040AA
:1054B000FC8285473ECE3ED202CC02D002D402D638
:1054C000930740066308F40C63EF8700D147630835
:1054D000F40C930720036301F40CA947631AF40A40
:1054E0009307802505A09307401F6301F40A9307E3
:1054F000803E6308F4009307A00F631BF408A147E4
:1055000011A08947376400400C0813050440FC8053
:10551000EFE0AFAA1305044093050040EFE00FF061
:10552000130504408545EFE06FEF130504408945FE
:10553000EFE0CFEE13050440C145EFE02FEE054646
:105540009305304113050440EFE0CFE2930740029A
:105550005C84280085473EC623052101C484EFE012
:10556000FFC39307500228005C84EFE03FC393071A
:10557000300228005C84EFE07FC2930760022800BD
:105580005C84EFE0BFC145616FA0BFFB91479DBF49
:10559000C1478DBFD147BDB793078007A5B7930714
:1055A000C0128DB7EFA2BFF73765004081451305E4
:1055B0000540EFE00FD56FA0DFF8EFA25FF637658B
:1055C0000040854513050540EFE0AFD36FA07FF79E
:1055D000EFA2FFF41C410111542113D7E70002CAC6
:1055E000098B93F7F77FA30AE10078003EC602C853
:1055F00002CC02CE230BD1008147BA85050763CBCD
:10560000D7003765004013050540EFE00FBB05618B
:105610006FA03FF33306F5005032850730A7F9BF7E
:10562000EFA2FFEF0111B337F0000548960596068B
:1056300016061607FC82230BA10085476800A30B02
:1056400001016C877486F081F8803ECE230C010046
:10565000EFE02FA505616FA0DFEEEFA25FEC011177
:105660002E84B335A0003765004070001305054057
:10567000EFE06FC0B24703465101894693F7F77FC9
:1056800001476313D6002167D98F1CC0834761018E
:1056900093057101231704005CA0214613055400F3
:1056A000EF70D018014505616FA0BFE95D7122DE82
:1056B00026DC37640040B70400382ADA2ED81305F8
:1056C0000440938514003ED086C696C49AC29EC0FC
:1056D00032D636D43AD242CE46CC72CA76C87AC6D0
:1056E0007EC4EFE04FCA85476318F5009385140028
:1056F00013050440EFE08FCEB70400383764004054
:105700009385041013050440EFE0EFC78547631845
:10571000F5009385041013050440EFE02FCC3764A7
:105720000040B705013813050440EFE0CFC58547B9
:105730006318F500B705013813050440EFE00FCA00
:10574000B737002083A787C7829737650040854514
:1057500013050540EFE08FCC7254B640A6421643C5
:105760008643E2545255C2553256A25612578257BA
:105770007248E248524EC24E324FA24F61617300EE
:10578000203039713ECCB737002083A747C706DEEB
:1057900016DC1ADA1ED82AD62ED432D236D03ACE19
:1057A00042CA46C872C676C47AC27EC00145829794
:1057B00037650040914513050540EFE02FC6F250D4
:1057C000E2525253C2533255A25512568256724774
:1057D000E2475248C248324EA24E124F824F2161D8
:1057E0007300203039713ECCB737002083A747C7FC
:1057F00006DE16DC1ADA1ED82AD62ED432D236D0DD
:105800003ACE42CA46C872C676C47AC27EC0054540
:105810008297376500409305000213050540EFE0CD
:10582000EFBFF250E2525253C2533255A2551256B4
:1058300082567247E2475248C248324EA24E124F39
:10584000824F21617300203039712AD637650040BC
:105850002ED4130505409305004006DE16DC1ADA47
:105860001ED832D236D03ACE3ECC42CA46C872C6D4
:1058700076C47AC27EC0EFE06FBAB737002083A744
:10588000C7C78297F250E2525253C2533255A255C3
:10589000125682567247E2475248C248324EA24ED2
:1058A000124F824F216173002030EFA25FC7854500
:1058B000EFE08FC36FA0FFC8EFA27FC68145EFE086
:1058C000AFC26FA01FC8EFA29FC5C205C181EFE0A4
:1058D0000FC46FA01FC7EFA2FFC25D712A842E8A7A
:1058E0000545854532C636C43AC2428BC68AC6597A
:1058F00002CE02D0EFE0DFA81247A2463246630E86
:105900000A0685476314FA00C1473ED68547630BF4
:10591000F60635C68947630EF606B70702401386BA
:105920008700631FC406B737002023A037C9ED44A2
:105930000549930700083EDC4C108567228536D266
:105940003AD4BEC402DA82C282C6EFE06FB6054620
:1059500089452285EFE08FBA4A85EFE02FBD854764
:105960006808230E9100A30E6101230F51013ED060
:10597000EFE0DF8261616FA03FBC02D641BF82C011
:1059800002DE61BF93070040BEC0930700103EDEF9
:1059900069B7856793870780BEC093070020C5BF9E
:1059A0001386C7016319C400B737002023A237C983
:1059B000F1444149BDBF13860703631AC400B737DA
:1059C000002023A437C9F544130900109DB713869E
:1059D00047046319C400B737002023A637C9F94428
:1059E000056981BF138687056319C400B737002096
:1059F00023A837C9FD4441692DBF1386C706631B21
:105A0000C400B737002023AA37C99304000237091E
:105A1000100005B713860708631BC400B7370020C2
:105A200023AC37C9930410023709000119B79387D3
:105A30004709E310F4F0B737002023AE37C99304C9
:105A4000E00337090010F5B5EFA27FAD4111AA843C
:105A500005452E8432C6EFE06FAD32462685B2850D
:105A6000EFE0EFAAC0C43724014013050440854588
:105A7000EFD0DF9D1305044093050022EFD0BFB0A7
:105A8000054626858945EFE06FA726858545EFE029
:105A9000AFA5130504408545EFD05F9A85451305F2
:105AA0000440EFD01F9E41016FA0BFA939712AD6D3
:105AB00009453ECC06DE16DC1ADA1ED82ED432D2C8
:105AC00036D03ACE42CA46C872C676C47AC27EC0C2
:105AD000EFE00FA58547631AF500B737002083A7CD
:105AE00007C882970545EFE06FA4F250E252525387
:105AF000C2533255A255125682567247E247524857
:105B0000C248324EA24E124F824F216173002030A4
:105B100039712AD6130500203ECC06DE16DC1ADACF
:105B20001ED82ED432D236D03ACE42CA46C872C619
:105B300076C47AC27EC0EFE0AF9E8547631BF50056
:105B4000B737002083A787C8829713050010EFE0BE
:105B5000EF9DF250E2525253C2533255A2551256A3
:105B600082567247E2475248C248324EA24E124F06
:105B7000824F21617300203039712AD63705020027
:105B80003ECC06DE16DC1ADA1ED82ED432D236D03F
:105B90003ACE42CA46C872C676C47AC27EC0EFE028
