:100000006F30E04A130000001300000013000000EE
:100010001300000013000000130000001300000094
:100020001300000013000000130000001300000084
:08003000130000007300100032
:100038000000000000000000A40E0000A60E000052
:10004800000000004634000000000000000000002E
:10005800483400004A34000000000000000000009E
:10006800E66F000000000000000200000000000031
:10007800503400005234000054340000E0640000A2
:10008800583400005A3400005C3400005E3400002C
:10009800603400006234000064340000BC5B00007F
:1000A80068340000205C0000EE5C0000885C000002
:1000B80070340000525D000008550000D45700005D
:1000C800AA5800000C590000705900007E34000046
:1000D800803400001C670000843400003266000091
:1000E8007868000004680000906700000063000062
:1000F8004C63000098630000E4630000963400003D
:10010800983400009A3400009C3400009E340000AB
:10011800A0340000A2340000A4340000A63400007B
:10012800A8340000AA340000AC340000000000002D
:080138000000000000000000BF
:10020000130181F806C216C41AC61EC822CA26CC1B
:100210002ACE2ED032D236D43AD63ED842DA46DC76
:100220004ADECEC0D2C2D6C4DAC6DEC8E2CAE6CC46
:10023000EACEEED0F2D2F6D4FAD6FED8F3220030CF
:1002400096DA9702002083A2624323A02200F325BE
:1002500010342EC003A10184EF80000D170300208D
:100260000323C34103210300824273901234D65208
:10027000739002309240A2423243C2435244E2445D
:10028000724582551256A2563257C2575258E258FA
:1002900072598649164AA64A364BC64B564CE64C0E
:1002A000764D865D165EA65E365FC65F13018107DA
:1002B0007300203013000000130000001300000042
:1002C00013000000130000001300000013000000E2
:1002D00013000000130000001300000013000000D2
:1002E00013000000130000001300000013000000C2
:1002F00013000000130000001300000013000000B2
:1003000083A20184938202E07390023417010020DB
:100310000321C136024182403243C2435244E24487
:10032000724582551256A2563257C2575258E25859
:1003300072598649164AA64A364BC64B564CE64C6D
:10034000764D865D165EA65E365FC65FD652A1020A
:1003500073900230A24213018107828013000000D3
:100360001300000013000000130000001300000041
:100370001300000013000000130000001300000031
:100380001300000013000000130000001300000021
:100390001300000013000000130000001300000011
:1003A0001300000013000000130000001300000001
:1003B00013000000130000001300000013000000F1
:1003C00013000000130000001300000013000000E1
:1003D00013000000130000001300000013000000D1
:1003E00013000000130000001300000013000000C1
:1003F00013000000130000001300000013000000B1
:10040000F322003093F272FF130380181203B3E259
:100410006200711523205500130585FA10C12115BE
:10042000232005009302000063870200711523203A
:100430000500FD12D5BF71150CC1828000000000BF
:1004400000000000000000000000000000000000AC
:10045000000000000000000000000000000000009C
:10046000000000000000000000000000000000008C
:10047000000000000000000000000000000000007C
:10048000000000000000000000000000000000006C
:10049000000000000000000000000000000000005C
:1004A000000000000000000000000000000000004C
:1004B000000000000000000000000000000000003C
:1004C000000000000000000000000000000000002C
:1004D000000000000000000000000000000000001C
:1004E0000000000000000000000000000000397162
:1004F00001436EC619A0397141536AC866CA62CCFD
:100500005ECE19A0397101535AD056D252D44ED66C
:100510004AD826DA22DC06DE3301614082824111AC
:100520004AC026C222C406C68282B24D4101024D93
:10053000924C224CB24B4101024B924A224AB249A0
:100540004101024992442244B240410182803D432C
:100550002A876373C3029377F700BDEFADE5937607
:1005600006FF3D8ABA960CC34CC30CC74CC7410763
:10057000E36BD7FE11E28280B306C3408A0697027E
:10058000000096966780A6002307B700A306B70071
:100590002306B700A305B7002305B700A304B700DF
:1005A0002304B700A303B7002303B700A302B700D7
:1005B0002302B700A301B7002301B700A300B700CF
:1005C0002300B700828093F5F50F93968500D58DB3
:1005D00093960501D58D61B7939627009702000089
:1005E00096968682E78086FA9680C1171D8F3E9682
:1005F000E374C3F8A5B7370500201305455E828074
:10060000370500201305055E8280B707002023A46C
:10061000A75E8280EFF23FEEB70500203971938527
:10062000C55D014537040020EFB04051232CA45C88
:100630001304845D19E1EF2000081C4037070020F7
:100640000327875EDC4398C3EF807063EF803066DA
:10065000EF0080772313A10202D6EF00E0791C405F
:10066000A302A102DC43884323AA0700EF8010679E
:100670001C40C843EF80507A0840035661025C4139
:100680008C43EFB0C05B19C1EF20E002B707002038
:100690009387473E98530840930661023AD8D8534F
:1006A000130651020C183ADA9857DC573ADC3EDE52
:1006B000EFB0405C19C1EF20000083A641810349DF
:1006C0005102032A040036CEEF00A0729307401FA8
:1006D0003EC0F24689679309C102C507C98F4EC65D
:1006E0004AC402C29308803E1308401F01470146D6
:1006F00081455285EFB0205B11C5B5576304F50005
:10070000EF10707B084003A641814E874C49CA8692
:10071000EFB0E06419C1EF10107A1C409C4399C3FC
:10072000EF1070791C40B70400208969C843130A90
:10073000803EEF80B05B23A6045EEF80D058EF7060
:10074000300A2A8902D49384C45E938909719C403B
:1007500089CBB707EFBE37E700E0938707083CC7B0
:10076000FDBFA25503A50194B3D54503EF70400822
:10077000EF80F0534ED4EF70B006330625413306B8
:100780004603AA8A0840341081455689EFB0C06BF1
:1007900088C003A54194814601468145EF60304CF5
:1007A000EF8070526DB7EFF2FFD54111EF803050FE
:1007B000EF70100389692A8402C6130A803E938968
:1007C0000971370B0020EF801050B24503A541940A
:1007D00013098B5DB3D54503A284EF706001EF80F0
:1007E000104D832709004EC695CFDC43DC4B9DCBD3
:1007F000EF70007FAA84032509001C4185E75C4156
:10080000DC4B8DC33384844033044403740081453E
:100810002286EFB0406B03250900740022868145D3
:10082000EFB0606E268445B7370500201305455F9D
:100830008280EFF2DFCE370400201304445F0840CB
:100840004111EF70601C11CD08407D566C00EF60C7
:10085000D06328871086938541958946AA95EF40F5
:1008600090294101F9B9938741953E9593D7850029
:100870000CA11CB193D70501E1813CA12CB1828070
:10088000938741953E950CA1A1810CB182809387FD
:1008900041953E950CA18280EFF27FC8AE8693858C
:1008A00041950946AA95EF40102561B99387419576
:1008B000AA97983388232207598D8280EFF29FC42C
:1008C00001111306602281451385419549318946FE
:1008D00013060021938541950145EF40B02C631428
:1008E000052E138441951820930790056304F72A79
:1008F0009387C1829843DE23B706000318C03707E9
:100900000001130607105EA010D49307400230CCFC
:1009100070D0370600787CB470D4B707000537462E
:100920000501938506101CC813065660B7070024FE
:100930005CC84CD493070050B705005A30D83786AE
:1009400005001CCC6CC493070010A9651306068033
:1009500058CC58D078C838D01CD01CD82CC87CCCE7
:100960003CD470D834DC232A040293860620232C3E
:100970000402232E0402232004042322040423243B
:10098000040474DC2316F40A231CF40AE147A301CF
:10099000F40CB707001589072322F40CB7071203DC
:1009A000938717502324F40CB71705049387073057
:1009B0002326F40CB7073603938737602328F40CFB
:1009C000B707F302B706001A9387F7032328D40862
:1009D000232AF40CB7F60301B70706009386468076
:1009E0009387370F232AD408232CF40CB72604004E
:1009F000B707CF00938606A09387B70D232CD408A2
:100A0000232EF40CB7060002B707ED0013060020F2
:100A10009387670E232ED4089386062085442320CF
:100A2000F40E2320C4082320D40A2322C40A23243A
:100A3000E40A93050010194523220408232404081E
:100A400023260408A30B940A2307040A230D040A8F
:100A5000193D81452945013DB7970112C907232258
:100A6000F40EB707129093870719B9692306940EFD
:100A70002324F40E9389491D9304D00E130B5013B5
:100A800083DA090026859109D685DD3B03DAE9FF83
:100A9000138524004205D2854181DD331385040589
:100AA0004205D6854181E93B138524054205D2855F
:100AB0004181F9331385040A4205D6854181C93342
:100AC0001385240A91044205C204D2854181C18064
:100AD000453BE39764FBA157A30EF41CFD77938776
:100AE0003780B705003E231FF41CD5058D4713053D
:100AF000501E2300F41E853BB7050076ED05130557
:100B0000901E9533B7053F78CD051305D01EA13B48
:100B1000B7050071D1051305101FB133B7057978FA
:100B2000C9051305501F8133B7057350D905130547
:100B3000101E153BB705006DDD051305901F25330D
:100B4000F1451305D01F0533814513051020213BC6
:100B5000814513055020013B954789462315F42014
:100B600013060021938541950145A3040420EF401D
:100B7000807813060021814513854195C93A29459E
:100B8000EF706074894613060021938541950145F5
:100B9000EF4050010349440E01457D199375F90F4B
:100BA000EF40403541C58349740E0545CE85EF4081
:100BB0006034630C050C0349A40E0545CA85EF405B
:100BC000603363030512B7070020239C075E0561AD
:100BD000A5B2139604014182931926001385D90EFC
:100BE00032C6E93142054185EFC0C0152AC81385D8
:100BF000F90E6D39EFC060212ACA1385190F7D31B6
:100C000042054185EFC000142ACC1385390F79398C
:100C1000EFC0A01F32462ACE0C0801458504EF40E4
:100C2000803893F4F40FE3C624FBB5BF8144E5BFDD
:100C3000139604014182131926001305D91332C6F5
:100C4000B53142054185EFC0E00F2AC81305F913FD
:100C5000B139EFC0801B2ACA130519148139420526
:100C60004185EFC0200E2ACC130539148131EFC025
:100C7000C01932462ACE0C0805458504EF40A03243
:100C800093F4F40FE3F699FA3DB78544E5BF1316E4
:100C900004014182931426001385D41832C63931D9
:100CA00042054185EFC0000A2AC81385F418FD3EAD
:100CB000EFC0A0152ACA13851419CD3E42054185FF
:100CC000EFC040082ACC13853419CD36EFC0E013AD
:100CD00032462ACE0C0809450504EF40C02C137497
:100CE000F40FE37689FAC5B50544E5BF93874195CE
:100CF000AA979833A82322074205498F8823498F52
:100D0000A8336205598D8280938741953E950821CD
:100D10008280EFF2DF8041112A842800B284EFC084
:100D2000E0238947638FF40291476380F404854789
:100D30006397F400188493874195A29798A393072B
:100D4000F02063ED8700B707002003A5475F8146C9
:100D50007D566C0060874486EF60607041016FF0E3
:100D60004FFE2C842285293ED9BFA2452285E53C31
:100D7000F9B7EFF2CFFA41112A846800B284EFC0CC
:100D8000E01D8947638AF4029147638BF40285472B
:100D90006397F400188693874195A29798A39307C9
:100DA000F02063E88700894626866C002285EF40A4
:100DB000805441016FF0EFF82C862285D134C5B7FD
:100DC000B24522854D34E1BFEFF26FF58945054507
:100DD000EF4080601D479307D0076369A700931712
:100DE000150039651305451C3E951E213E856FF0A3
:100DF0004FF513050010828003C581958280EFF2C4
:100E00000FF2370400201304845F1E2013077016AE
:100E10008507C207C1831EA0637BF7001945F9351A
:100E2000930515001945EFF01FA4231004003704A3
:100E300000201304045F0840EFB0307DAA8403C58E
:100E400021968145F920EFB0F06FB7E7000083A548
:100E5000C721EFB0E045A685EFB0E00EEFB03069F6
:100E600008C06FF00FEEEFF28FEBB707002083A5FD
:100E7000075F930740062945B3D5F502EFF0BF9E03
:100E8000814621469385A1951945EF40C0466FF0F4
:100E90004FEBB707002003A5075F930740063355C4
:100EA000F502828001A001A0EFF26FE741112E84CC
:100EB000AA8519453EC03AC236C432C6EF10604713
:100EC000A2851545EF10E04632461145B285EF1078
:100ED0004046A2460D45B685EF10A045814509451F
:100EE000EF10204512470545BA85EF108044824730
:100EF0000145BE85EF10E04341016FF08FE43705F7
:100F00000020130585608280B707002023AEA75E0E
:100F10008280EFF2CFE09307F5FF7147636CF71023
:100F200039678A0713070722BA979C43AE848287E2
:100F30001305152142054181C13B2A8422856FF0AA
:100F40004FE01305152142054181EFF03F96F5B7BB
:100F500039151375F50FEF104001AA850145EF30E3
:100F6000506EB7E7000083A5872EEFB0A070EFB0FA
:100F7000F0512A84E1D41305500EEFF03F932A94E8
:100F800075BF0D45EF00707EB7E7000083A5872E83
:100F9000EFB0406EEFB0904F4DB70145EF40201DD0
:100FA000AA841305D01DEFF07F90EFB01066B7E76D
:100FB000000083A5C72EEFB0A02F2A842685EFB0AE
:100FC0007058AA852285EFB0E06AB7E7000083A5D4
:100FD000872EEFB0206AEFB0905185B70545EF40FE
:100FE0000019AA841305F01D7DBF0945EF40600874
:100FF000A9B7453599B71945D53981B7B707002045
:1010000003A4C75F25BF1305C020CD31135485400D
:10101000930740061374F40F3304F4029377F50F2B
:1010200041851375F50F3E948967938707713305E2
:10103000F502B1B7014419B71387C1B98346470216
:101040009387C1B913962600329710437147631EE8
:10105000E60203C7570315CB885B05C903C7D70250
:1010600009C7A38A0702A386070203C75703930889
:101070000002054805071377F70F9375F70F63F51F
:10108000B802A38A0702A38607021387160083C645
:1010900047031377F70F2382E7026364D7002382A5
:1010A000070223A4070282803316E800698E050731
:1010B00069D6A38AB70282809387C1B903C7570252
:1010C00023A407022382E7028280EFF24FC59385B3
:1010D000C1B983C745020546938555029CA11305F6
:1010E000902041396FF0EFC503C501BC8280A54750
:1010F00063E6A7002380A1BC01458280054582806C
:10110000A54763E1A702EFF28FC19385C1B9A3821E
:10111000A50205469385550213059020DD3E014545
:101120006FF02FC2054582809387C1B983C64702FD
:1011300003C757026385E60203C7D7020DE398573A
:101140003A9588D783C767021307803EB387E702C3
:101150006367F500EFF2AFBC85376FF08FBE82801A
:1011600001C9F147630AF5009D47014563F5B700E2
:101170002388B1BC054582802384B1BC01458280AF
:10118000EFF24FB81385C1B7EF80600F13059020C1
:101190009384C1B9EFF05FB7A382A4021305A02026
:1011A000EFF09FB683C754022383A402238A04026C
:1011B0002382F4021389C1B981441384C1B9054A59
:1011C000A549139524001305151E42054181EFF032
:1011D000FFB12320A90093F5F40F1375F50F4937DC
:1011E0006306450185041109E39D34FD23280402AB
:1011F000A30A0402232C0402230E04026FF0CFB3CF
:101200001387C1B91C5FA9C38347C7039306800234
:10121000850793F7F70F230EF70263F5F600230E09
:101220000702828055476371F702EFF24FAF014426
:101230009D442285050481451374F40FEF10600F5F
:10124000E31994FE6FF0EFAF82801387C1B9185B8A
:101250009387C1B96309A70483C6C702A9C6134708
:10126000F7FF698F88DBA38A07020146014585489D
:1012700013080002B395C800F98D9376F60F81C963
:1012800019C1A38AD7020547A386E7028280850693
:10129000050693F6F60F0545E31E06FDA38AD70261
:1012A0007DF3A386070282801387C1B98346D702E4
:1012B00005479387C1B96396E60003C7C702238237
:1012C000E70203C747020A07BA9788438280EFF212
:1012D0000FA5014689452A84EF10A000228501460A
:1012E0008D45EF100000014685452285EF00707F97
:1012F0006FF02FA5EFF2AFA241112A8432C42EC69F
:10130000EFF0CFDAB2458AA11305240042054181EE
:10131000EFF0CFD922460AA241016FF08FA2EFF27F
:101320000FA0411189E5653741016FF08FA1AA84B3
:10133000314933892403AE873E858545EFF07FBD73
:101340001314050170009305E10041801305B901F4
:10135000553738863C870146B366F70089CE63E986
:10136000E700636AE40033B687001346160021A045
:101370000546E36AE4FE89452685EF009076700015
:101380009305E1001305F901B53738863C8701461E
:10139000B366F70089CE63E9E700636AE40033B619
:1013A00087001346160021A00546E36AE4FE854542
:1013B0002685EF00107370009305E10013053902D4
:1013C000153F38863C870146B366F70089CE63E94E
:1013D000E700636AE40033B487001346140021A0D9
:1013E0000546E36AE4FE8D452685EF00906F2DBF2C
:1013F000EFF26F904111AA8AAE843D456C00B2892C
:101400001306E10036893A8C3E8B428DC68C03541C
:101410004104CD352886835BE10033057541EFB08B
:101420007012B7E7000083A5072FEFB0A0242A8A27
:10143000636E340333857941EFB0D010D285EFA0CD
:101440003067EFB0D00A2300AD0033053441637438
:1014500089003305394142054181EFB0101BD28527
:10146000EFA01065EFB0B0082380AC00636D5403AB
:1014700033857A41EFB0100DD285EFA07063EFB0E5
:1014800010072300AC0063E38402330454411315B6
:1014900004014181EFB07017D285EFA07061EFB009
:1014A00010052300AB0041016FF06F883384544175
:1014B000F9BF03480100388263F6A5026374A700F0
:1014C00063E6E6006379B700637FE60223800801E4
:1014D0002380070182806364D700E37BE6FE2380DC
:1014E000080182806377E600E362B7FEE379D7FE06
:1014F00019A06375D700E36BE5FCD5B7E371B7FEC0
:10150000E368E5FCE9BFE36CD7FCD9B7EFF22F81C4
:1015100079712A892E84B2846C101306E1023D454C
:1015200036CE3ACC3ECA42C846C6E933F246B24845
:101530004248D247624763F4860263EB260163E9BF
:10154000280163E91601230007012380070129A070
:10155000E3FD16FF2300070145616FE09FFE63670F
:10156000940063E59800E36214FFF1BFE37414FF95
:10157000E9BFEFE2DFFAEF704018B707002023A6BB
:10158000A760B707002003A5876001478D46114675
:101590008145EF7020596FE0DFFAEFE2DFF537E7C2
:1015A0000000032A072FB969397185471384C1B830
:1015B0001389C1B99389892B09476382E7047D5751
:1015C00074181306F00F81450145EF7040477257BC
:1015D0008547118B75D3EFF0BFBAB707002003A57D
:1015E000C760014789460146814523200400232224
:1015F00004002314040023260400EF70A0522945A0
:10160000EF60704C856537150140938505801305A3
:1016100005C0EF40300A85466313D50C5C4091C786
:1016200008C02322040023140400B70A0020138CEE
:101630000A6083270C00032BC400832B0400938AC9
:101640000A60639D0722854763160B008347D90212
:10165000B337F0002945232CF902EFF0FFAC8547A2
:101660006396FB0063120B0CEFF01F9DB707002081
:1016700083AAC75F5685EFF05FBDEFF0FFC2AA8473
:10168000F1471375F50F6311F51E63810A0C83266C
:101690000903834759030146854513050002339723
:1016A000F500758F59CB19C2A30AF9028347590374
:1016B00029463967850793F7F70FB3F6C702130773
:1016C000073593050005B3D7C702BA961306000580
:1016D0003E9718239C22814613059007A1A41E243F
:1016E00058408507C207C1831EA411E71147E37E56
:1016F000F7F254C01DBFE31AD7F29306702563F8C2
:10170000F6008D475CC4894718C05CC039BF93069A
:10171000F01863F5F60089475CC401BF9306700CAE
:10172000E3F5F6F058C411B78D476315FB0023A00D
:101730007A012DBFEFF07F9915BF850793F7F70F5B
:101740006373F50081470546B9FAB9BFEFF0DF8E44
:10175000EFF01FAB184085476316F7002320040005
:10176000232604008144B94A1385340C4205418183
:10177000EFF08FD9AA8513F5F40F8504EFF03FBA87
:10178000E39454FF1305100DEFF00FD82306010268
:10179000A306010223070102A307010249C58545EB
:1017A000EFF02FF7131B05011306A1032C182A8C49
:1017B0003D45EFF03FB45018930561034D45EFF000
:1017C0007FB31018930521035D45EFF0BFB2835737
:1017D000A10303558103135B0B011D8DEFB08056F0
:1017E000D285EFA03069AA8B1545EFF0EFD10356F3
:1017F000410383540103835A210383566103631514
:10180000053263E49A0063F0C6025AC25EC09308D0
:10181000D1021308C1029307F1021307E102D68532
:101820002685EFF0FFBC8346D1020346C102834503
:10183000F1020345E102EF00D02513050021EFF08E
:10184000EF869377F50F014591CB1385F7FF13755D
:10185000F50F130595060605EFF04F85EF00504B89
:10186000EF001055894789BB8145EFF08FEAAA85C3
:10187000054613D50401EF00B037D9BD0547639085
:10188000E71213371B00B7040020232CE9029384CE
:1018900044606397FB009C20631F0B0085079CA09E
:1018A0009C202147636AF70E39678A071307472987
:1018B000BA979C43828719476387E702636DF700F5
:1018C000E5D3FD1739678A071307472DBA979C435D
:1018D0002320FC00F1B72147E394E7FCEFF0CFFDB4
:1018E00023200C0075BF89451305D01DEFE0DFFAFA
:1018F00089451305F01DEFE03FFA238004004DB742
:101900008147014781461306D0069305E00613057B
:10191000D00609A88147014781461946930530073B
:1019200013050005EFF04FD80145EF00502A0DB523
:101930008147014781461306B005CDB7814701476E
:10194000994613064005994513057007E1BF814785
:1019500001479306B005F5B7814701479306F004A8
:10196000CDB781470147930690071306E00393051F
:10197000700771BF81457545EFF0AFD9AA85014663
:101980001565EF00F0264DB78147014793068007A4
:1019900019469305600789B385479CA071B7B704C2
:1019A000002083C75460938454606398E700638683
:1019B0000B0023A0FA00238004009307FBFF93B7DA
:1019C0001700232CF902638B0B048D476318FB046B
:1019D00083A70A00F517F59B91EF1305D01DEFE0E3
:1019E000FFECAA850965014613056530EF0050201C
:1019F00085479CA083A70A001147F59B6390E702E7
:101A00001305F01DEFE09FEAAA851965014613054D
:101A1000B535EF00F01D85479CA01DBB9C20E399C8
:101A200007D283A40A0019479387D4FFE362F7D251
:101A3000139727004E971843028701453D23EFB0C7
:101A4000E024A945B305B50205461305006025B598
:101A50000545212BEFB08023A945B305B5021965D3
:101A60000546130505B001BD09450123EFB000226D
:101A7000A945B305B50215650546130505F0E5BB97
:101A800093F4F70F1397140093878183BA9703DBBE
:101A90000700814513856401EFF0AFC7AA850546AD
:101AA0005A85EF00F0141C40E38407CA5C440547E4
:101AB0006396E700950423A09A0059B9E39A07C8F2
:101AC0009384D41D2685EFE07FDE9305150093F502
:101AD000F50F2685EFE0DFDAA5B9ED1493F4F40FE6
:101AE0001397140093874183BA9703DB070081455E
:101AF00013856401EFF0EFC1AA8505465A85EF0012
:101B0000300F1C40E38607C45C4405476394E7003C
:101B10008D0455B7E39E07C29384D41D2685EFE05C
:101B2000FFD89305F5FF65B713150C01418136CE3B
:101B300032CCEFB02021DE85EFA08077EFB0201B04
:101B40001378F50F6246F24663E49A0063F1C60229
:101B500042C05AC29308D1021308C1029307F1028E
:101B60001307E102D6852685EFF0BF946DB9DA88B8
:101B70009307D1021307F102D6852685EFF01F994E
:101B80005DB1EFE2DF99371401401305048093053E
:101B90000010EF40A033130504C0C145EF4060269C
:101BA0008564938504C2130504C0EF40602A37069C
:101BB0001800130504C0914613060610A145EF4016
:101BC000A02B938504801305048091460146EF40C5
:101BD000A02AE1460146130504C08D45EF40C02907
:101BE000130504809305F004EF40202413050480BE
:101BF000E14601469305000AEF400028E146014610
:101C0000130504C0A965EF40202713050480C145D2
:101C1000EF40201F130504C08565EF40801E1305AB
:101C200004C0E14637461D0093050020EF40C02464
:101C3000130504C09306800437461D009305001069
:101C4000EF408023F1460146130504C09305000CC4
:101C5000EF408022EF30801B854537350140EF4053
:101C6000700E37450040854513050580EF40900D07
:101C700037150000154685451305E5DFEF40407B2D
:101C8000B7440F00B72600008D470547938504240D
:101C90009386465D130640060D45EF40704C0D459A
:101CA000EF405044B146938504241306803E094515
:101CB000EF4050550945EF40F0423755004005468A
:101CC000854513050540EF404053C145130504C049
:101CD000EF40001F3765004013050540EFE0FF921D
:101CE0006FE03F86EFE2BF83372501408145130552
:101CF0000540EF10B00E3705002003258561B707BA
:101D00000020138407620147938707628D460546CA
:101D1000894523200400EF60B07B1C4091C7B7E7E2
:101D200000E0116723A0E7206FE0BF81EFE22FFF03
:101D300037040240130544048145EF20E014BD45FB
:101D400013054404EF20A0160145EF3060398545A6
:101D500013054404EF2040136FE0AFFEEFE22FFCC9
:101D600037040240130504088145EF20E011BD450A
:101D700013050408EF20A0130545EF3060368545B4
:101D800013050408EF2040106FE0AFFBEFE22FF9DE
:101D900089476308F5008D476300F50201456FE050
:101DA0004FFA9305004037150140130505C0EF4079
:101DB00060101375F50FE5B793050002EDB7EFE27C
:101DC0000FF691E937150140C145130505C0EF40F5
:101DD000200F6FE00FF737150140C145130505C00F
:101DE000EF40C00EFDB737050020130585618280E6
:101DF000EFE2EFF2EF607010B707002023AEA760AC
:101E0000B707002003A5876101478D46114681452C
:101E1000EF6050516FE0EFF2EFE26FF003A78184C3
:101E200093878184DC2301113724014030089545D4
:101E3000130504403ACC230EF100EF30405FEF3041
:101E4000C01CB72700002A87938747CE370502407A
:101E50003EC08D48054881479306C44405468145E8
:101E60002105EF30903805616FE0AFEDEFE22FE82C
:101E70004111EF3080192A841309E501AA840395E2
:101E800004008904EF30E056239FA4FEE39924FF69
:101E9000B7E70000B7E9000037EA000083ABC72FBF
:101EA000B7E70000832A4A2F03AB892F03AC073022
:101EB0009384C1BD01493E244A288D4DA6853E9597
:101EC0001E20137DF90F3E953355B503938C81BECB
:101ED00042054181EF7000356307BD0791476309F3
:101EE000FD04EFA0907283254A2F131D2900669DE3
:101EF000EFA0407883A5892FEFA0C077DE852AC6A2
:101F0000EFA04077B247AA8D03A50C01BE85EFA0D4
:101F1000701FAA856E85EFA0A0392320AD000509AA
:101F2000954709048904E318F9F841016FE0EFDFF0
:101F3000EFA0B06DD685EFA0E073DA85EFA08073D7
:101F400023A8AC00E9BFEFA0506CE285EFA080723F
:101F500083A5892FEFA00072B7E7000083A5473063
:101F6000EF90707E23A6AC005DBF0A05938781BE0B
:101F7000AA9788438280EFE20FD839717D573408E1
:101F80001306F00F81450145EF60702BE247918BFE
:101F9000F5D7EFF07FE8A9473EDA3ED8B727000033
:101FA0009387C7D805444C100D453EDE22D4EF3050
:101FB00020091305B020EFE03FD57D15133515003E
:101FC0002AD44C100945EF30A007B72700009387AB
:101FD000E7DB6C0801453ED022D4EF30A003138428
:101FE000C1C21385C1C2EF70802913050401EF70CF
:101FF0000029B7E7000003A487309384C1BFA285FE
:102000001385C1BFEF700025A28513858400EF7092
:102010006024B7E7000003A4C7309384C1C0A28541
:102020001385C1C0EF702025A28513850401EF70D0
:10203000802481450145EF30000585450545EF3099
:1020400080043D64130604A6A1469305007D014566
:10205000EF40102A130604A689469305007D054526
:10206000EF4010290145EF30200FB7270000B704DB
:1020700002409387C7D2B73601402A878D4805486A
:10208000938606C405468145138544043EC08147B6
:10209000EF30B0150545EF30200CB72700009387CF
:1020A000C7D5B70600402A878D4805489386860322
:1020B0000546138504083EC081458147EF30F01284
:1020C00013850408BD45EF10905E13854404BD459B
:1020D000EF10F05D138544048545EF10F05A8545F7
:1020E00013850408EF10505A0145EF40A07F0545C5
:1020F000EF40407FB707002003A5C761014789462D
:1021000001468145EF601022B7E7000003AA0731BE
:102110000144A104854A138981BE370B0020D28B6C
:10212000EF20B06EAA853D462685EF303023EFE0E4
:102130004FF02945EF602019014734081306F00FCE
:1021400081450945EF60B00F058979D9EFF01FD2BD
:10215000EF304010630554050DC489476303F4064E
:102160008D47E31FF4FA814501456D2E81450545F4
:10217000552EEFE05FCF81450145EF20506B0144C4
:1021800045B70D45EF20F06E41DD0325C900D2852E
:10219000EFA0203D1345F5FF1354F50151B7094554
:1021A000EFE09FB6AA850145B52E0D45EFE0DFB5FE
:1021B000AA850545852E85450145EF2050670944D0
:1021C00085B793090B614944594C85452285EFE059
:1021D0005FD483D70900420541816384A70023901F
:1021E000A90005048909E31284FF0325C900DE85DF
:1021F000EFA020376352A0020D45EF20906711C970
:102200004C100145EF20F07D4C100545EF20707D0E
:102210007DB78545EF20B0610D4419B7EFE22FB0CF
:102220003705024013050503EF30A07A373501402A
:10223000EF40603A054437350140EF40403AE30C47
:1022400085FE37150140C14513050580EF30504725
:102250006FE02FAFEFE2AFAC370502401305850505
:10226000EF3020773744004013050480EF40A0365C
:102270001304048085442285EF406036E30D95FE0B
:10228000371501408565130505C0EF3070436FE0D9
:102290004FAB854706063396C70006058947339539
:1022A000A700014781476312B702139507014181D7
:1022B000C183814501476390D502598D418393863F
:1022C000C1C4D98FEAA29EA682800507C98F137761
:1022D000F70F0A05C9BF8505518F93F5F50F0A065B
:1022E000D9BF3967B9671307C7359387C7362A97A8
:1022F000AA978D468823182391476387D50089467E
:1023000089476383D5008547931617001387C1C497
:10231000B397A7003697C207854583160700C18784
:102320006315B600D58F1EA3828093C7F7FFF58F84
:10233000DDBF994763ECA708B967938747310A0562
:102340003E951841B70700209387476202879A237A
:1023500093D65500AE05719B558F9AA3BA23137778
:10236000F77F4D8FBAA38280BA238E05137737C0CB
:10237000CDBFBA2393D64500B205619B558FBAA352
:10238000DA23520751834D8FDAA38280DA23FD7658
:10239000FD06758F9605C5BFDA2393D62500FD8A05
:1023A000019B558FDAA3FA23BA054A0749834D8F5B
:1023B000FAA38280FA23F1769386F607758F9E053D
:1023C000FDB7FA23137707F8D98DEEA3828037077C
:1023D000002093074762BE231307476209C593E7AE
:1023E00007403EA3828093F7F7BFC207C183D5BFE2
:1023F000EFE26F9041112A89AE84014B63D505004D
:10240000B304B040054BB7470F009387F7233787D6
:102410001E00A6971307E7476365F704E1679387F4
:10242000F76937170300A6971307E7D3636FF70A17
:1024300089679387F7701567A6971307E7E16369C4
:10244000F70A9387743E1307E07C6366F70A938765
:1024500034061307600C89498D4A6366F700894A80
:1024600019A081499D4AB96B014A938B0B35294CC0
:10247000B3E78403528513041A0032C61374F40FB1
:10248000DE978C23EFF0FFEA3246B3C484036397F0
:102490008A063285EFF0BFF3630B0B0022859305AC
:1024A000000413042A00EFF0DFE81374F40F9944DA
:1024B00063F8840489476397F902B707002093877C
:1024C0004762EA237177798D135789001377F707ED
:1024D000598D11671E09130707F83379E900336531
:1024E0002501EAA341016FE08F848549994AA5BF80
:1024F0008949954A8DBF8949914AB5B7228A8DBFCE
:10250000228581450504EFF0DFE21374F40F4DB727
:1025100037070020130747621E230A058D8BC98FDA
:102520001EA38280EFD2BFFF2E87A14511E1914506
:10253000B967060793870733BA9792230945EF4097
:10254000406B81450945EF40C0726FD09FFFEFD2CD
:102550001FFDB7270000411137040240938747252C
:1025600037070020B74600403EC013058405894860
:1025700005488147130747629386C680054685450F
:10258000EF30A046B72700009387C721B736014038
:102590003EC0894805488147138781C5B106054675
:1025A000854513050403EF30404441016FD07FF9A6
:1025B000EFD2FFF6371501408565130505C0EF30F2
:1025C000F01037050240914513058505EF30204195
:1025D0006FD03FF7EFD2BFF429469385C1C413856E
:1025E00081C5EFA0B017B707002003D7C7629306D5
:1025F000700C9387C76205074207418363E5E606CF
:102600009AA39E231307B0126372F706938781C5BE
:1026100096276D771307A7AA758F94433776F6DB55
:10262000130666DBF18E94C3D4433776AAAA130649
:1026300066DBF18ED4C39AA7938781C5944337177D
:10264000C92713079724F98ED843375655551306D3
:102650009624718F92279565938555556D8E92A717
:1026600094C3D8C301A82390070061BF1307500982
:10267000E364F7FC37150140C14513050580EF30D1
:10268000F00437050240954513050503EF3020356A
:102690006FD03FEBEFD2BFE80545EF105047EF009A
:1026A000B031EFF00FCEEF003057EF00F045EF50B4
:1026B000700901A0828099677390078001A0EFD212
:1026C0001FE69C2141116147DC876360F702854763
:1026D0009CC2482905469305F1001305250CEFE03F
:1026E0004FE3014541016FD0DFE54145E5BFEFD242
:1026F0001FE391479CC2482941112EC61305850747
:102700000A05EFE0AFDEB24588C1014541016FD057
:102710005FE3EFD2DFE085479CC2C829411132C692
:102720001305250CEFE04FDE324608A201454101BA
:102730006FD03FE1EFD2BFDE89479CC248294111EB
:102740002EC606054505EFE06F96B2458AA1014504
:1027500041016FD01FDFEFD29FDC85479CC2482923
:102760002E8481456105EFE0CFFA08A001456FD0C6
:102770005FDDEFD2DFDA05469C2190C25829411176
:10278000DC87630DC70089466304D70205469305BD
:10279000F1001305A020EFE0CFD729A03E85EFE0A0
:1027A0001F9519E1014511A0414541016FD07FD925
:1027B0003E85EFE0FF94F5B7EFD2DFD49C2123A054
:1027C000060040294111DC870549B684630C2403C7
:1027D00031C40D4763648704AA893D456361F502EE
:1027E00085451305E4FFEFF0FFD303C54901054616
:1027F0009305F100EFE0EFD123A024010145410151
:102800006FD09FD31D473D45E36BF7FE054693050B
:10281000F1000545EFE0EFCF80C0CDB705443D4561
:10282000E36FF4FC05469305F1001305B020DDB716
:102830001C2141115C871C31DC8728874101828083
:10284000EFD2FFCD894741112A849CC22E85EFF03B
:102850003FFE5C2868870547639BE700AA85130550
:102860000021EFE0EF81014541016FD09FCD13853D
:10287000770609469305E1000605EFE08FC9E5B745
:10288000EFD2FFC901112A842E8536C6EFF05FFA18
:10289000B2468947E8879CC248289305E10109466A
:1028A00006054505EFE0EFC6014505616FD07FC91C
:1028B000EFD2FFC601112A842E8536C6EFF05FF7EE
:1028C000B24689471375F50F9CC2E88748289305DF
:1028D000E101094606051305B51DEFE08FC301456B
:1028E00005616FD01FC6EFD29FC34111AA85114663
:1028F0006800EFA0A066324541016FD09FC4EFD2BF
:102900001FC201112A842E8536C6EFF0DFFDB246C4
:1029100091472ACE9CC248286C08114613058507AA
:102920000A05EFE00FBF014505616FD09FC1EFD2EF
:102930001FBFAA84DC283D472E853684636DF700CF
:1029400085478C219CC2C82813051521EFD03FF480
:1029500001456FD01FBF4547636FF700EFF05FED94
:1029600089471CC0DC28AA859387F71013951700A8
:10297000EFD01FF1F1BFEFF01FF791471CC0EFE060
:10298000AFD8F9B7EFD2BFB991479CC25C290D47C8
:102990004111639FE7002E85EFF0FFF4488605465E
:1029A0006C003945EFE0EFB6014541016FD07FB9CA
:1029B0001145E39CA7FE2E85EFF0FFF22AC61146D3
:1029C0006C001305C020F9BFEFD27FB501112A8436
:1029D00032852EC636C4EFF0BFE5A246B245894720
:1029E0009CC2E887882109469305E1017D1506050B
:1029F000229542054181EFE0CFB1014505616FD0DD
:102A00005FB4EFD2DFB12E86930545016D45EFF03F
:102A1000BFFB6FD01FB3EFD29FB02E869305450149
:102A200013057002EFF05FFA6FD0BFB1EFD23FAF86
:102A30002E869305450113053003EFF0FFF86FD0A4
:102A40005FB0EFD2DFAD2E86930545011305F0038D
:102A5000EFF09FF76FD0FFAEEFD27FAC2E869305DD
:102A600045011305B004EFF03FF66FD09FADEFD2F4
:102A70001FAB2E869305450113057005EFF0DFF4BB
:102A80006FD03FACEFD2BFA92E8693054501130549
:102A90003006EFF07FF36FD0DFAAEFD25FA82E866B
:102AA000930545011305F006EFF01FF26FD07FA9E3
:102AB000EFD2FFA62E86930545011305B007EFF070
:102AC000BFF06FD01FA8EFD29FA52E8693054501BA
:102AD00013057008EFF05FEF6FD0BFA6EFD23FA4F1
:102AE0002E869305450113053009EFF0FFED6FD0F9
:102AF0005FA5EFD2DFA22E86930545011305F009ED
:102B0000EFF09FEC6FD0FFA3EFD27FA12E8693054D
:102B100045011305B00AEFF03FEB6FD09FA2EFD253
:102B20001FA0054798C25C2989462E840945638BFE
:102B3000D7008D460D456387D70005456384E700C0
:102B40001305B020EFE04F9C08A001456FD07F9F98
:102B5000EFD2FF9C89479CC2482985472E84631A7F
:102B6000F50013050021EFD07FD40AA001456FD0F6
:102B70005F9D130575060605FDB7EFD25F9A89477D
:102B800041111CC22EC6EFD07FD2B24588A121814F
:102B900088B1014541016FD0DF9AEFD25F98368648
:102BA0006D45EFF09FFD6FD0DF99EFD25F973686CE
:102BB00013057002EFF07FFC6FD0BF98EFD23F9605
:102BC000368613053003EFF05FFB6FD09F97EFD28F
:102BD0001F9536861305F003EFF03FFA6FD07F960E
:102BE000EFD2FF9336861305B004EFF01FF96FD0D4
:102BF0005F95EFD2DF92368613057005EFF0FFF791
:102C00006FD03F94EFD2BF91368613053006EFF0B8
:102C1000DFF66FD01F93EFD29F9036861305F00634
:102C2000EFF0BFF56FD0FF91EFD27F8F368613059F
:102C3000B007EFF09FF46FD0DF90EFD25F8E368653
:102C400013057008EFF07FF36FD0BF8FEFD23F8D89
:102C5000368613053009EFF05FF26FD09F8EEFD20A
:102C60001F8C36861305F009EFF03FF16FD07F8D92
:102C7000EFD2FF8A36861305B00AEFF01FF06FD04F
:102C80005F8CEFD2DF891C21054741112E846391AF
:102C9000E7020D453306A6029CC21305460E420507
:102CA0004181EFE06F8608A0014541016FD07F8927
:102CB00009476391E7020D453306A6029CC213053E
:102CC000560E42054181EFD07FBE9357850008A084
:102CD0001CB0D9BF91479CC20821B7070040F51727
:102CE0003E95D1473306F60232950A051305D50EF7
:102CF00042054181EFD09FFF2AC611466C00228514
:102D0000EFA0C02555B7EFD29F8101465105EFF0E6
:102D10005FF76FD01F83EFD29F8005465105EFF01C
:102D20005FF66FD01F82EFD28FFF09465105EFF09B
:102D30005FF56FD01F81EFD28FFE054798C25C29E7
:102D40002E84638CE7000947130590206384E70015
:102D50001305A020EFD05FFB19A0EFE0EFB808A0AB
:102D600001456FD00FFEEFD2EFF90349050085470B
:102D70004111AE843284368A631CF9028C2132857B
:102D8000EF204017BD470DE10D453305A4029C20FF
:102D9000054623202A015C841305450E42052C00BC
:102DA0004181EFD01FF781473E8541016FD0CFF8B9
:102DB0008947631FF9002E85EFF09FA768840D45B2
:102DC0003305A40223202A0109461305550EF9B73D
:102DD000AA892E85EFF03FB191472320FA002AC23D
:102DE00003C50900B7070040F5173E95D147B30763
:102DF000F40211464C003E950A051305D50E420516
:102E00004181EFD01FF19244139504014181EF906D
:102E1000D07F2AC613D50401EF90307FB7E70000BA
:102E200083A5872EEF90C04803C609002AC42C0052
:102E30007D16420641822285EF20E01681472DD57E
:102E4000BD479DB7EFD2AFED01465105EFF0BFF1A1
:102E50006FD02FEFEFD2AFEC05465105EFF0BFF08A
:102E60006FD02FEEEFD2AFEB09465105EFF0BFEF79
:102E70006FD02FEDEFD2AFEA89479CC248292E844C
:102E8000411185454505EFE0CF889357850008A09F
:102E90001CB0014541016FD0CFEAEFD24FE889471E
:102EA0009CC2482901112EC606051305B51DEFD099
:102EB000FF9FB2459357850088A19CB101450561EC
:102EC0006FD02FE8EFD2AFE591479CC25C2909474C
:102ED00041112E846386E7020D476387E7020547A9
:102EE0001305C020639FE700EFD0BFFA2AC66C002D
:102EF00011462285EFA08006014541016FD06FE4A5
:102F00001945EFD0BFDEDDB73945EFD0FFDFF9BFA0
:102F100083A74181DC431387C71271EB396713071D
:102F2000C73D23A0E7141387471471EB39671307D4
:102F3000C73E23ACE7141387C71571EB3967130736
:102F4000C74E23A8E7161387471771EB3967130796
:102F5000C74623A4E7181387C71871EB396713070F
:102F6000C74823A0E71A1387471A71EB396713077D
:102F7000C74A23ACE71A1387C71B71EB39671307DE
:102F8000C74C23A8E71C1387471D71EB396713074C
:102F9000C74123A4E71E1387C71E71EB39671307C8
:102FA000C74323A0E7201387472071EB3967130736
:102FB000C73B23A2E7221387872271EB39671307E8
:102FC000C74023AEE7221387072471EB3967130745
:102FD000C73723AAE7241387872571EB39671307BF
:102FE000C73923A6E7261387072771EB8280396745
:102FF0001307C75123AAE7121387871305F339670D
:103000001307C73A23A6E7141387071505F3396793
:103010001307C75023A2E7161387871605F33967EE
:103020001307C74523AEE7161387071805F339675B
:103030001307C74723AAE7181387871905F33967CA
:103040001307C74923A6E71A1387071B05F3396738
:103050001307C74B23A2E71C1387871C05F33967A7
:103060001307C74D23AEE71C1387071E05F3396707
:103070001307C74223AAE71E1387871F05F3396783
:103080001307C74423A6E7201387C72105F3396731
:103090001307C73F23A8E7221387472305F33967A0
:1030A0001307C73C23A4E7241387C72405F3396714
:1030B0001307C73823A0E7261387472605F3396788
:1030C0001307C74F23ACE72615B7B717024098433D
:1030D000B706FFF841111367170098C3D8433706A6
:1030E0000200758FD8C39843B706F7FEFD16758F9B
:1030F00098C39843B706FCFFFD16758F98C3D84355
:10310000B70681FFFD16758FD8C337079F0098C794
:1031100002C402C69843C166558F98C3B7160240D1
:1031200005679C42F18F3EC6A24785073EC4B24761
:1031300081E7A247E397E7FEB71702409C43139746
:10314000E7006359070685473EC632478547631146
:10315000F706B7170240D843B706C1FFFD1613673D
:103160000708D8C3D843D8C3D84313670740D8C388
:10317000D843758FD8C3D843B7063D00558FD8C301
:103180009843B7060001558F98C39843931667007C
:10319000E3DD06FED843B7160240719BD8C3D8437F
:1031A00013672700D8C32147DC42B18BE39EE7FEBB
:1031B0004101828002C651BFB7160240DC42370788
:1031C00000201146B18B130787586385C70021463D
:1031D0006388C702B7177A00938707201CC3B71705
:1031E0000240DC43918393F6F700B70700209387F2
:1031F0000700B69794231C43B3D7D7001CC3828023
:10320000DC42D4424166C983BD8BF18E89074546B5
:103210006393C700C94781EEB746024083A6068084
:10322000C18A89CEB7167A009386062021A8B716E0
:103230000240D4421396E600E35606FEB7163D0060
:1032400093860690B387D70251BFEFD2AFABC1646C
:1032500041113709002009440D4A8D4AFD14832786
:10326000096393090963638E870463804703E5FF5D
:10327000EFD0CFE4EFF0AFADEFE09FB7EFE06FAF8F
:10328000EFF01FC923A05901D9BF7D577400014633
:1032900081450145EF50A07AB247E39287FC26862C
:1032A00081450145EF501041EFD0EFB40841EF40A8
:1032B000103FEFD0EFB40841EF40703E23A08900EB
:1032C00079BF1305401FEF500000EF30501C41BF85
:1032D000B7370020938747861CC1B7270020938704
:1032E00047469CC1930700081CC28280B737002064
:1032F000938747901CC1B7270020938747669CC1DE
:10330000930700081CC28280EFD26FA1EFD03FBFAD
:103310002A8437280020B7270020B7E5000037159A
:10332000000013084817938747D7194785461306A7
:1033300000109385C5521305A559EF40F02B08C026
:10334000EFD00FAC2A84B7E50000370500001388E2
:103350004106938741C611478546130600109385A1
:1033600085531305657AEF40302908C0EFD0AFA828
:103370002A8437280020B7170020B7E5000037055A
:103380000000130848AC938747E4154785461306A9
:1033900000329385855413054561EF40F02508C040
:1033A000EFE07FA42A8437280020B7270020B7E564
:1033B0000000372500001308C8D19387C7B1214703
:1033C0008546130600089385C555130565F7EF403C
:1033D000B02208C037280020B7270020B7E500003A
:1033E000373500001308C83C9387C71C254785461E
:1033F00013060008938585561305A524EF40D01FBA
:10340000EFD00FA00841EF40107BEFD0CF9E0841D6
:10341000EF40707A6FD0EF92EFD26F90EFD0CFC0C5
:10342000B7360020372600202A8401479386C68BB2
:103430001306464291454145EF30707008C06FD089
:103440004F9001A001A001A001A001A001A001A036
:1034500001A001A001A001A001A001A001A001A064
:1034600001A001A001A001A001A001A001A001A054
:1034700001A001A001A001A001A001A001A001A044
:1034800001A001A001A001A001A001A001A001A034
:1034900001A001A001A001A001A001A001A001A024
:1034A00001A001A001A001A001A001A001A097E13D
:1034B000FF1F9381A18D172100201301A1B417C50F
:1034C00000001305E50897D5FF1F9385A5B3138664
:1034D000018563FAC5008322050023A0550011056C
:1034E0009105E3EAC5FE17D5FF1F1305250F9705C4
:1034F0000020938565F26377B50023200500110550
:10350000E36DB5FEFD42739002BC89427390428028
:10351000B72200009382028073A0023097D2FFFF8F
:103520009382C2B193E2320073905230EFF0FFB950
:1035300097F2FFFF9382421673901234730020308B
:10354000EFC2FFFDB727014093870740631EF500D8
:10355000854513050020EF1000008145130500206C
:10356000EF00707F6FC0FFFDB73701409387078082
:10357000E31AF5FE854513050040EF00D07D814537
:1035800013050040F1BF5C413707F1E01307F7EF87
:10359000944D7D8F9C41D58FD44DD58FD441A206BB
:1035A000D58FD98F5CC11C4537F7F1FF1307D77F43
:1035B000D4457D8F9C49D58F94458606D58FD98F6C
:1035C0001CC55C55370710FF7D177D8FDC29FD1763
:1035D00093F7F70FD207D98F5CD582801C4589C538
:1035E00093E717001CC58280F99BEDBF1C4589C578
:1035F00093E707101CC5828093F7F7EFE5BF1C45E2
:1036000093E787001CC5828008450D81058982806B
:103610001C4593E747001CC5828008450981058940
:1036200082801C4591C537075000D98F1CC5828008
:103630003707B0FF7D17F98FD5BFA54763F7B704EC
:103640008D47138765FF3307F7020328C5009D47A1
:10365000B397E70093C7F7FFB3F70701B396E60008
:10366000DD8E54C5994763E3C70495477D1633063D
:10367000F6025859FD47B397C70093C7F7FFF98F74
:103680003396C5005D8E50D982800D473387E502A1
:10369000032805019D47B397E70093C7F7FFB3F7EA
:1036A0000701B396E600DD8E14C96DBFB14763E232
:1036B000C702954765163306F6021859FD47B397BA
:1036C000C70093C7F7FFF98F3396C5005D8E10D9F9
:1036D000828095474D163306F6025855FD47B3973D
:1036E000C70093C7F7FFF98FB395C500DD8D4CD5A3
:1036F00082801C4591C537071000D98F1CC5828078
:103700003707F0FF7D17F98FD5BF5841144193D784
:103710008500F58F99C713F5F50F798D3335A00026
:10372000828001458280A18193C5F5FF0CC1828012
:103730005C4191C537070004D98F5CC1828037078F
:1037400000FC7D17F98FD5BFEFC27FDD01112A8400
:1037500023030100A5441C8363FAF406230301003C
:10376000A54621461C8363F0F60A231401002315A5
:103770000100230301009546130600601C8363FECD
:10378000F60E1C8393F7F70F6384071238841483B3
:103790003C840C8310833347D702B3E7B702860714
:1037A000B3C7C702BA97C207C1837C8418839947FD
:1037B0009546998F93F7F70FDC839C8393F7F70F68
:1037C000639C07108567938707800DAA1C4493E7C5
:1037D00087001CC42285EFF03FE36DFD1C4493E796
:1037E00047001CC42285EFF05FE36DFD78441C8325
:1037F00014108607B6972396E7FE1C83850793F778
:10380000F70F5C8389BFA30301009C836378F600F4
:103810001C83850793F7F70F5C83A9B798839C8374
:103820000C100607850786072E97AE970357C7FE2D
:1038300083D7C7FE63FDE7029C838607AE9783D7D5
:10384000C7FE7C849C83988385078607AE9783D5C3
:10385000C7FE931717001810BA972396B7FE9C83DC
:1038600038840C1085078607AE972396E7FE9C8365
:10387000850793F7F70FDC8349BF1C83181089076E
:103880008607BA9783D7C7FEE36DF6EE1C830C104C
:10389000388489078607AE9783D7C7FEBA97C207D1
:1038A000C1837C841C83850793F7F70F5C83F9B58C
:1038B00093070040DDBD1C831010388589078607FB
:1038C000B29783D7C7FEBA97C207C1837C851C8392
:1038D000850793F7F70F5C831C83E3FEF6FC3885BE
:1038E00094833C858C8390833347D702B3E7B70238
:1038F0008607B3C7C702BA97C207C1837C852884ED
:1039000034852C84308505679307004013070780B2
:103910003385A740B306D7408D8F118F4205C2066D
:10392000C2074207C18641874185C1873695BA974C
:1039300089463345D5020561B3E7D7023E95420576
:1039400041856FC01FC0EFC29FBD0545EF007044A9
:103950000145EF0010446FC0DFBE1841AA87759B78
:1039600018C118411367170018C14167D443858AED
:1039700099E27D1765FFD8430145058B49CF9445F2
:103980000547639BE608984313670708D44598C327
:1039900005476397E608984313670704944998C35B
:1039A00005476393E608984313670702D44998C311
:1039B0000547639FE606984313670701944D98C334
:1039C0000547639AE606984313678700D44D98C36A
:1039D00005476395E60698431367470098C3B821E7
:1039E000B4317A07E206558FD421C206558FD431FF
:1039F000D206558F9621FD16558FD8CF9843799BC7
:103A000098C34167D443858A99C27D1765FFC8432F
:103A10001345F5FF0589828098431377F7F7BDB703
:103A200098431377F7FB9DBF98431377F7FDBDBF0E
:103A300098433D9B61B798435D9B49BF98436D9BFD
:103A400071BF3767004013070740832607203C25D6
:103A5000054893E616002320D7208325C721331677
:103A6000F8009346F6FFF58D232EB7204C25C5E5CB
:103A70008325C720035825008E07F58D2326B72000
:103A80006E21BA975A21C205B3E5050123A0B724D8
:103A90000E2142074D8F23A2E724B7270240985BEF
:103AA000B707000FF98F99EF37670040930707308A
:103AB000130707408E239107C205C181239EB7EEED
:103AC000E39AE7FE3835B7670040938707402DEB50
:103AD00003A74720758F23A2E7201A25B767004068
:103AE0009387074035E303A74721F98E23AAD72000
:103AF000184985476319F700B767004003A7C761F6
:103B0000598E23AEC760B767004003A70760799B53
:103B100023A0E7608280E39205F98325C72003583C
:103B200025008E07D18D2326B7200E21BA975A2162
:103B3000C205B3E5050123A0B72442076E2199BF52
:103B400003A74720518F41BF8546E313D7FA03A748
:103B50004721518F23AAE72061BF1C4513975700C7
:103B6000634E07081C4513974700634B07081C4525
:103B7000914613973700635107088946939746008B
:103B8000AA9703A70718058B23A0E7189025883567
:103B900035EA984103A607185607498F518F23A08D
:103BA000E718B8253D8BB8A503A64718419A23A26C
:103BB000C71803A64718518F23A2E718D025B83598
:103BC0002206598ED8354207598EF8256207518F43
:103BD00023A4E7189029F8352206598E9839420710
:103BE000598EB8296207518F23A6E71803A7071833
:103BF0001367170023A0E718368582808146BDBF72
:103C00008546ADBFD84103A807180E07498F518FCD
:103C10003367070169B793974500AA9703A7071B66
:103C2000118B18A62DE703A7071B558318C203A7FE
:103C3000071B098B18B603A7471B3D8B38A603A7A4
:103C4000471B218338BA03A7871B38B603A7871BF6
:103C5000218358A603A7871B418358B603A7871B58
:103C6000618378A603A7C71B78B603A7C71B218368
:103C700018AA03A7C71B418318BA83A7C71BE183F0
:103C80003CAA99E95C4593E707025CC5828003A7DB
:103C9000071B0D8358C261BF1C4993E707021CC96B
:103CA00082808DE51C418546F19B93E717001CC17E
:103CB000C16758410D8B6304D700FD17FDFB5C41C4
:103CC0008D8BFD1793B717003E8582808547639ED5
:103CD000F5001C41F19B1CC1C16758410D8B19C3F4
:103CE000FD17E5FF5C418D8BF1BF09478147E39DDF
:103CF000E5FC1C418946F19B93E727001CC1C16785
:103D000058410D8B6304D700FD17FDFB5C418D8B83
:103D1000F9174DBF5C4901C6DD8D4CC9828093C542
:103D2000F5FFFD8DDDBFB707F000ED8F89CB104D9E
:103D30003375B600320531813335A0008280939708
:103D4000750063D60700544133F5B600E5B7939785
:103D5000450063D5070008456D8DE9BFB706100023
:103D600093976500FD1663D7070058453375B70074
:103D7000758DD9B71C4933F5B700DDBFB707F030F3
:103D8000938707076395F500232C0500828093979E
:103D9000C50013976500B183635407005CC582803A
:103DA00013975500635407001CC982801397450080
:103DB000635407001CC582805CC182809307001099
:103DC0006386F50663E7B702A1476388F50663E9F2
:103DD000B7000547638EE50411476381E5068280DD
:103DE00013070002638FE50493070004638AF50458
:103DF0008280938705808DCB85679387078063EBEF
:103E0000B700930700206383F50293070040638F98
:103E1000F5008280C1676388F502B70702006387F7
:103E2000F502A1676393F502232C0500914729A8A9
:103E3000C167938717101CC58280C1475CC582800B
:103E4000C1471CC98280A1475CC18280C147EDBFC8
:103E50001C4161773D0794517D8F9C45D58F9449D6
:103E6000D58FD449D58F944DD58FD44DD58FD4517E
:103E7000D58F9455D58FD98F1CC1DC455CC19C4131
:103E80001CC5DC415CC582801C4189C593E71700D5
:103E90001CC1828041677917F98FDDBF1C4101C6C3
:103EA000DD8D0CC1828093C5F5FFFD8DDDBF4CC15A
:103EB0008280B70702409C437D8D3335A00082800D
:103EC000EFC2EFE5EFF0FFFE6FC0AFE7B7070240CC
:103ED000C8C382809C4513F7070113F8F70001C798
:103EE000D8413368E80037270240145B3707000FDA
:103EF000758F5DEB370700208546230AD762371799
:103F000001406315E5009A2135839AA18E2113F7AC
:103F1000F50F39C318418146854E3D4F930F8002FE
:103F200093028004214E3396DE00B3F8C50063117E
:103F300016039398260033131F011343F3FF3377BF
:103F4000E300B318180133E7E8006399F70750C995
:103F50008506E39AC6FD18C11307F00F6375B70411
:103F600054412146854E3D4F930F800293028004B9
:103F7000414EB398CE0033F715016392E802131750
:103F8000260001173313EF001343F3FFB376D3007A
:103F90003317E800D98E6397F703232A1501050626
:103FA000E319C6FD54C1828037170140E310E5F6DE
:103FB000370700200347476331DBB1B7E39A57F86F
:103FC00010C979B7E39D57FC23281501C9BFB7175E
:103FD00001406318F500B707002083C7476391C30A
:103FE000B58108456D8D3335A0008280B71701403B
:103FF0006318F500B707002083C7476391C3B581F5
:104000000CC98280B71701406318F500B70700207C
:1040100083C7476391C3B5814CC98280B70701400C
:10402000635A0504DC4F9356050113180501370741
:10403000300013F6F60013580801B376E500635E0E
:1040400005066399E604930606010D46B316D600ED
:1040500093C6F6FFF58F99C9135755011377F73FAC
:1040600012073317E800D98F63550506370701405B
:104070005CCF828037270240145BDC433707000F98
:10408000758F55F313D71700F976CE07758FCD834B
:10409000D98F51BF1317B500635607008D46B396ED
:1040A000C6007DB7135755011377F73F1207331733
:1040B000E8001347F7FFF98F79BF6390E6023706F0
:1040C00001405442370700F17D17F98F758F58C2B0
:1040D000C1F5370701405CC382801317B500635CEC
:1040E00007008D46B396C60093C6F6FFFD8EB70750
:1040F000000FD58FF1BF1357550112073317E80092
:104100001347F7FF7D8FB707000FD98FD1B7EFC2E5
:104110000FC179712A84462168082EC60D26925750
:1041200037470F001307072433D7E702C204C180C3
:1041300093F404FCC204C180B24561651305056AAD
:10414000131607014182D18C46A01620C206C182F7
:10415000F99AC206C18216A094416369D504860605
:10416000B3D7D7029146139707014183BA87637388
:10417000D700914705064206C2074182C18312B0AB
:104180005EAC1E20DA21B62593E717001EA01E2084
:10419000558FC207C18393F757BFD98F1EA09A25A9
:1041A000DE25D98F1EA445616FC0AFB9EA21316603
:1041B0007D16631DC5020D46B386C602B3D7D7026E
:1041C000C207C1839396470199E293E71700A1665E
:1041D000D58F9306C0123307D7029306803E33472C
:1041E000D7020507420741831AB059BF6546B38617
:1041F000C602B3D7D7029166C207C183D58FD9B79C
:104200001E2189C593E717001EA18280C207C183C2
:10421000F99BC207C183CDBF1E2189C593E7071053
:104220001EA18280C207C18393F7F7EFC207C18343
:10423000C5BF1E2189C593E707201EA18280C20742
:10424000C18393F7F7DFC207C183C5BF1E2189C5AC
:1042500093E707401EA18280C207C18393F7F7BF8F
:10426000C207C183C5BF5E2589C593E717005EA558
:104270008280C207C183F99BC207C183CDBF5E2183
:1042800001C6DD8D4EA1828093C5F5FFFD8DDDBF9A
:104290000EA982800A291375F50F828093F7E50F26
:1042A00019C293E71500C207C1831EA9828041117C
:1042B00002C62AC6B247BE952EC6B2478A2341011E
:1042C0008280411102C402C693D7C5012AC63EC4EA
:1042D000A247A205A18199CBB247D1073EC6B247FA
:1042E000884341016D8D3335A0008280B247C18182
:1042F000E107EDB793C5F5FFC205C1814EA98280E4
:10430000AD67373700409387A7AA1CC38280B707E1
:10431000002023ACA7628280B707002093878763C1
:104320009443182181E63C21920721A89443054635
:10433000639FC6023C21103192076314D60093E7B5
:1043400007F8B7E600E093F7F70FBA962380F64038
:104350008546935757003397E6005441A5C293878B
:1043600007048A07B7E600E0B69798C382808C43BB
:1043700089466391D50214313C216365D6008A06D3
:10438000B6975DB79386E6038A06B69793F7F70F5D
:10439000920775B790438D46631CD60014313C21BB
:1043A0006364D6008606E9BF9386C6078606F1BF1A
:1043B00094439147E39EF6F81C31BDB793870706F7
:1043C0004DB7377700401C4309C593E707101CC35E
:1043D000828093F7F7EFE5BFB7160240DC425177D2
:1043E0007D17F98F5D8DC8C28280B7170240238088
:1043F00007022380070205476306E50011476306AD
:10440000E50082802380A702828015472380E7028F
:104410008280371702401C535D8D08D3828001C90A
:10442000371702401C53A166D58F1CD38280B71664
:1044300002409C5261777D17F98F9CD2828037179A
:1044400002405C439146B18B6385D700A1466382ED
:10445000D706B7177A00938707201CC1371602408A
:104460005C4237070020130707019183BD8BBA9781
:1044700094231C41B3D7D7005CC15442A1829D8ACA
:10448000BA969422B3D6D70014C55442AD829D8A01
:1044900036971823B3D7E7005CC558423983937623
:1044A00037001387418036971823B3D7E7021CC91A
:1044B00082805C435843C166C983BD8B758F890771
:1044C000C5466393D700C94701EF3747024003272A
:1044D0000780418B09CF37177A001307072021A8DF
:1044E0003717024058439316E700E3D606FE371706
:1044F0003D0013070790B387E70285B799C53717C3
:1045000002405C4B5D8D48CB8280B7170240D84B90
:104510001345F5FF798DC8CB828099C537170240C6
:104520001C4F5D8D08CF8280B7170240984F13450E
:10453000F5FF798D88CF828099C5371702405C4F8F
:104540005D8D48CF8280B7170240D84F1345F5FFE5
:10455000798DC8CF828099C5371702405C475D8D41
:1045600048C78280B7170240D8471345F5FF798DB9
:10457000C8C7828099C5371702401C4B5D8D08CB98
:104580008280B7170240984B1345F5FF798D88CB91
:10459000828001C9371702401C53C166D58F1CD3D6
:1045A0008280B71602409C5241777D17F98F9CD2CA
:1045B00082809357550005476399E700B71702407B
:1045C0009C4333D5A7000589828009476396E7009D
:1045D000B71702409C53F5B7B7170240DC53D5B765
:1045E000B737004003D7078089C5598D2390A7802E
:1045F00082801345F5FF798DD5BFB737004003D7CB
:104600004780136707012392E78082803737004095
:1046100083574780C207C183BD9BC207C183231252
:10462000F7808280EFB2BFEF41112AC6EFF0FFFCA6
:104630003245B7370040135705013D8B420523949F
:10464000E78041812396A780EFF05FFC41016FB0C6
:104650005FEF373700408357478093F70702E5DF66
:1046600082803737004083574780C207C183DD9B74
:10467000C207C1832312F780373700408357478032
:10468000A18BEDDF8280B737004003D74780134509
:10469000F5FF798D2392A7808280373700408357BA
:1046A000478003570780C207698FC18309C77D8D83
:1046B0003335A000828001458280EFB25FE6EFF0E3
:1046C0009FFC6FB01FE81A218D6793870704B621FE
:1046D0007D8F9E21D58FD621D58FF621D58F96251A
:1046E000D58FB625D58FD625D58FF625D58FD98FE1
:1046F0001EA15A2DFD779387F77FF98F5EAD9E2916
:104700001EA982801E2189C593E707041EA182800D
:10471000C207C18393F7F7FBC207C183C5BF5E2100
:1047200001C6DD8D4EA1828093C5F5FFFD8DDDBFF5
:104730000A256D8D3335A00082801E319206558E7C
:10474000C207C183F99BC207C1831EB11E2D1A3156
:10475000B7360140C207C18393F7C7F0D18F420734
:10476000C207938606C04183C1836304D502B7069E
:1047700000406300D50293860640630CD500B7164F
:104780000040138606806306C500938606C0631941
:10479000D500759BD98D93E515001EAD0EB18280B5
:1047A000559BCDBF1E31B2062206C207C183BD9BF9
:1047B000C207C1831EB18358850185671A3193876B
:1047C000F7CFD18EB3F71701D58F13984500B736C1
:1047D000014042074208C207938606C0418313582E
:1047E0000801C1836304D502B70600406300D50207
:1047F00093860640630CD500B716004013860680EA
:104800006306C500938606C0631BD5001377F7FDCA
:104810003367E800136707011EAD1AB18280137772
:10482000F7F54D8FC5BFEFB29FCFB73701409387E4
:1048300007C0631FF5000564854513050480EFF08C
:104840009FD1814513050480EFF0FFD06FB07FCF7B
:10485000B7070040631BF50085450545EFF09FD184
:1048600081450545EFF01FD1D5B793870740631900
:10487000F50085450945EFF0FFCF81450945DDB7D6
:10488000B7170040138707806319E5008545114578
:10489000EFF05FCE81451145F1B7938707C0E3176D
:1048A000F5FA85452145EFF0FFCC814521455DBFF7
:1048B0001E2137370140130707C0C207C1836304B5
:1048C000E502370700406300E50213070740630C69
:1048D000E50037170040930607806306D5001307ED
:1048E00007C06316E500BA2193F7F7F8D98FFA21CC
:1048F00093F7F7CFC207C183D98F1EA1DE215EB522
:104900009E211EB5B7370140938707C06314F50099
:104910009C251EB985475EA982801E31922103D84D
:104920002500C207C183F99BC207C1831EB11E3196
:1049300056211A2DC207C183420741831377C7F856
:10494000518F9225F59BC20633660601D18F37360B
:104950000140130606C0C1826310C502B225DD9B6B
:1049600003D8E500D18FD221ED9B93F6F6CFD18FFE
:10497000D22533660601D18E56A11AADFA215AB955
:104980001EB182801E3165771307F7CFC207C1833E
:10499000BD9BC207C1831EB11E31562103D88500BD
:1049A000C20713960601162DC18393F7F7FD758F85
:1049B00096214182A206558FB62142074183B3E674
:1049C00006019206D58FB7360140C207938606C00E
:1049D000C183631ED502B62593F7F7F703D8C50048
:1049E0009206D58FD621C207C183920693F7F7FBB3
:1049F000D58FFD769386F63FF18EF225C207C183EF
:104A0000336606010A06D18E13960601418252A131
:104A10001AADFA211ABD1EB182801E3103D885005D
:104A2000C207C18393F7F7EFC207C1831EB11E31DE
:104A300056215A2DC207139606014207962141833B
:104A40001377C7F8558FB621C18393F7F7DFB3E625
:104A50000601A206D58FB7360140C207938606C06D
:104A60004182C183631FD502FD769386F67FF58F61
:104A7000B62503D8C500A206D58FD621C207C183AB
:104A8000A20693F7F7BFD58FF576FD16F18EF225C6
:104A9000C207C183336606011206D18E1396060142
:104AA000418252A15AADFA215ABD1EB182801A31FB
:104AB000FD77FD17F98F1EB10358050256215E2DB3
:104AC000657792211307F7CF7D8FF9772206FD17BF
:104AD000518FB3F70701B22103D88500C206420700
:104AE000336606013206D18F37360140C2071306FE
:104AF00006C0C1824183C183631AC50071767D16E9
:104B0000F18ED2251A06D18EC206C18256A15AADA7
:104B1000FA212310E5041EB18280FD575EA1231007
:104B200005002313050023110500230405008280DE
:104B30001E2189C593E717001EA18280C207C18389
:104B4000F99BC207C183CDBF8357450491C5216737
:104B5000D98F2312F5048280C607C583DDBF5E2589
:104B600001C6DD8D4EA5828093C5F5FFFD8DDDBFAD
:104B7000EFB2FF9AEFF0BFFE6FB0BF9C1E25C207D9
:104B8000C183E19BC207C1831EA582801E2189C506
:104B900093E707081EA18280C207C18393F7F7F746
:104BA000C207C183C5BF1E2DC207C183DD9BDD8D3A
:104BB0000EAD82801A2DFD779387F77FF98FA205BE
:104BC000CD8FC207C1831EAD82805E2DC207C18317
:104BD000DD9BDD8D4EAD82805A2DFD779387F77F6B
:104BE000F98FA205CD8FC207C1835EAD82801E2DD5
:104BF000C207C183CD9BC207C1831EAD1E2DDD8DB3
:104C00000EAD82801A2DFD779387F73FF98F1EAD89
:104C10001E2DA205DD8DC205C1810EAD82805E2DE7
:104C2000C207C183CD9BC207C1835EAD5E2DDD8D02
:104C30004EAD82805A2DFD779387F73FF98F5EAD99
:104C40005E2DA205DD8DC205C1814EAD8280EFB221
:104C50001F8D9A212A84AE84BE21D221962511EB84
:104C6000BE85EFF09FADEE202285EFF05FF86FB0CC
:104C70005F8D9145631AB700BE85EFF0BFB2EE209D
:104C80002285EFF03FF8E5B72145EE206318A7082D
:104C90001A30920613988700420741831377F7EF83
:104CA000420741831AB04A2C1A304208420541811A
:104CB0001375C5F0518D558DB73601404207420539
:104CC000938606C041831358080141816304D402CE
:104CD000B70600406300D40293860640630CD400FC
:104CE000B7160040138606806306C400938606C08C
:104CF000631ED4001377F7DF3367E800936707106C
:104D00004AAC1EB02285EFF09FF195B7FD769386F1
:104D1000F65F758FD98F93E70710DDB70A307D777F
:104D20007D17698F1AB04A2C05671307F7CF698F73
:104D300003580402131586001396C600498E9398F3
:104D4000C700518FB73601404208C2084207938618
:104D500006C01358080193D8080141836304D402A4
:104D6000B70600406300D40293860640630CD4006B
:104D7000B7160040138606806306C400938606C0FB
:104D80006311D402F977FD173378F80033E808018E
:104D90008567B367F8005AAC1EB02285EFF09FE933
:104DA000F9B5A1669386F6DF3378D800B3E707013B
:104DB0008566D58FCDB74A3D828003550504828034
:104DC0000A296D8D3335A000828093C5F5FFC20599
:104DD000C1810EA982801E294A25ED8F420541819D
:104DE00089C76D8D3335A00082800145828093C5CF
:104DF000F5FFC205C1810EA9828093F5F51F4EA172
:104E000082800A216D8D3335A0008280B737002063
:104E10009387C79823A0070023A2070023940700C5
:104E2000B73700209387C79723A0070023A2070066
:104E300023A4070023960700B7070020239E0762DC
:104E40008280EFB22FEC91479304000063E4A7083F
:104E500093171500373500201305C5983E958349F3
:104E60000500AE8463880906003137390020130934
:104E70008999A299139A0901135A0A01B14A931701
:104E80000401C18363E64703930400006314FA043A
:104E90001384F7FFB1473304F402B7370020938738
:104EA00087993E940C404840EF70C07C0C4405A0AC
:104EB000228BCE87631334033147B387E7022685FD
:104EC0003E9983254900EF70E07A83258900EF70D1
:104ED0008007AA8426856FB02FE60504B307540324
:104EE0002685CA9783A547FFEF700070E349A0F8B5
:104EF000DA87D9B785476381F504B73700200605FF
:104F00009387C798AA97982315E3370700201307BC
:104F1000C7631223130840060545B306B600634E67
:104F2000D8008CA390B316A301458280FD150145DE
:104F30006305B700094582800D458280EFB28FDCA2
:104F40004111AA892E893A85BE853684B2843EC62F
:104F50003AC4EF70301B2A8AA2852685EF70901A1A
:104F6000AA855285EF70C034224723A0A900A285EC
:104F70003A85EF702070B247AA89A6853E85EF700A
:104F8000606FAA854E85EF70F017AA89A6852285E5
:104F9000EF705017AA854E85EF7080312320A9004D
:104FA00041016FB06FD993171500373500201305F5
:104FB000C5983E951C216378F604EFB24FD60031B8
:104FC000B1472E8922961314060141803304F4025E
:104FD00003270900832789008326C9000326490087
:104FE000B73400209384849993058400130544000A
:104FF0002695A695EFF09FF48327C90026940145D6
:105000001CC06FB00FD409458280373500201305CE
:10501000C595828093173500370500201305056478
:105020003E95DC41230005005CC101458280B70745
:1050300000200E0593870764AA978CA30145828000
:10504000F1473305F502B7370020938747E8D84189
:105050003E959C4958C17D171CC9DC451337170084
:1050600058A95CC59C4D78A9232405001CCD014599
:105070008280F1473305F502B7370020938747E870
:10508000AA97C82B8280EFB28FC9F1473305F5028A
:10509000B7370020938747E809473D46AA9713058D
:1050A000C0023385A502D8C3373700201307C7E0F5
:1050B000239A0700238B070081453304A7000905C5
:1050C00080C3232204023A95EFB06FC8B7E700000F
:1050D00083A787572320040205451CD46FB06FC6F1
:1050E000EFB2EFC3F146B306D502B73700201387FE
:1050F00047E8AA843D650146138447E8130505A6E1
:105100003697144323A0060213872600F906035896
:1051100027001E23B305F84063D60500B307F5400A
:10512000B385070109072E96E393E6FE3D45335507
:10513000A602B7370020938747E693954400BE95B3
:10514000EF400015F147B387F4020547A2979C434F
:1051500088D3D8D36FB0EFBEF1473305F502B73728
:105160000020938747E8AA97884309058280EFB219
:105170000FBBF1473305F502B7370020938747E8A7
:105180003E95004129CC5841894701456317F704F2
:105190001C50A1C73E85EF705047B7E7000083A5BC
:1051A0000757EF70204DB7E70000AA8503A5875782
:1051B000EF700010B7E7000083A54757EF70804BF2
:1051C000EF70F03242054181EF70D0370C54EF7030
:1051D000604AEF70D031420541816FB08FB6014512
:1051E000EDBFEFB22FB27144330585023734002092
:1051F000130444E82A94832904001C480D4583A421
:1052000009026387F40426852E89EF701040B7E702
:10521000000083A50757EF70E045B7E70000AA85B7
:1052200003A58757EF70C008EF70702C9307C00379
:105230003305F50242054181EF70D03083A5890224
:10524000EF704043EF70B02A2310A90004C809454D
:105250006FB08FAEEFB20FAB37340020130444E8C9
:1052600081448949130A3006854A11495C40638BA1
:1052700037051C4C2685829778286302A7041C44B6
:1052800085071CC41DEB18486379F7005C4068A8CB
:1052900093C7F7FF858BA98F5CA8850493F4F40F5F
:1052A0007104E39524FDB707002093870764D84372
:1052B0008C23014502976FB02FA85844F1B72324DF
:1052C0000400E1BF5C28850793F7F70F6364FA00D9
:1052D0005CA8E1B71C40230A0400D85363155701AA
:1052E00023A207025DBF23A0070245BF3735002078
:1052F000130545EF828085673307C50093870780D4
:1053000063C0E70AEFB22F9F2A8C4111328409450E
:1053100015C6373B00208547AE89368A130B4BEF05
:105320000149C14A631FF60003280B02B6872E8687
:1053300029478546E2851305000A029841016FB0AE
:105340000F9F9377FC00B387FA40C207C183A28402
:1053500063F38700BE84C204C180994BB38C2901DA
:1053600003280B02D2872947A6866686E2851305A5
:10537000000A029801C92AC6FD1BEF1050113245E0
:10538000E3900BFE058C26994204E2944209139C9B
:105390000401418013590901135C0C015DF079BFD0
:1053A0000945828085673307C5009387078063C3FB
:1053B000E702EFB2CF9637370020032807F1B68710
:1053C00013074006B2862E86AA851305000A0298A6
:1053D0006FB02F9709458280EFB26F944111AE866E
:1053E00005469305F100EFF0FFFB888741016FB0A0
:1053F0004F95B70700200397876481472A97634F2B
:10540000070009CD05669306F6FFB6876358C70007
:10541000AA876305D50093170701C1833E85828063
:10542000EFB2EF8F3165EFE03FFB6FB08F91EFB2DE
:105430006F8DB727014093870740AE8901112A84F9
:10544000328A85456311F50A13050020EFF0EF8CD1
:10545000EFF01FFD2285EFE0AF8E85473EC23EC4D0
:10546000B7070E003EC68A8595472285230AF100BC
:1054700002C002C802CC02CEB964EFE0CF908147EF
:105480009384C45763943707372501408545130536
:105490000540EFE00FA685452285EFE02F95854575
:1054A0002285EFE0AF9322858145EFE06FA822854A
:1054B000EFE0EF942285EFE02F956DFD2285EFE080
:1054C0002F952285EFE06F956DFD2285EFE0CFA748
:1054D000B70700202394A76485452285EFE04FA5F8
:1054E00005616FB06F85130500408DB713891700F4
:1054F000D2979C239D461376F90FA6978C2322857D
:10550000EFE0AF93CA87BDBF5D7122DE3724014053
:105510002ADC2EDA130504409305001486C696C4CF
:105520009AC29EC032D836D63AD43ED242D046CE67
:1055300072CC76CA7AC87EC6EFE02F9D01CD930566
:10554000001413050440EFE00F9EB707002083A767
:10555000C76482977254B640A6421643864362558A
:10556000D2554256B256225792570258F248624ECE
:10557000D24E424FB24F616173002030B7370020E6
:1055800023AEA7F08280B737002023ACA7F082803B
:10559000B737002023A0A7F28280EFA25FF87971CD
:1055A0002A84AE843289814513060002080802C4A9
:1055B00002C6EFA0DFF9B7170240D44FB7050002CB
:1055C000370600FECD8ED4CFD44F7D16F18ED4CFCA
:1055D000D84F4D8FD8CF8D47A309F1009307B04026
:1055E000FC8285473ECE3ED2930740066308F40C0A
:1055F00063EF8700D1476308F40C9307200363012E
:10560000F40CA947631AF40A9307802505A09307B1
:10561000401F6301F40A9307803E6308F400930778
:10562000A00F631BF408A14711A08947376400400D
:105630000C0813050440FC80EFE02FB21305044072
:1056400093050040EFE08FF7130504408545EFE038
:10565000EFF6130504408945EFE04FF613050440CB
:10566000C145EFE0AFF50546930530411305044011
:10567000EFE04FEA930740025C84280085473EC66E
:1056800023052101C484EFE03FC99307500228009D
:105690005C84EFE07FC89307300228005C84EFE071
:1056A000BFC79307600228005C84EFE0FFC6456136
:1056B0006FA03FE991479DBFC1478DBFD147BDB79F
:1056C00093078007A5B79307C0128DB7EFA23FE5F8
:1056D00037650040814513050540EFE08FDC6FA082
:1056E0005FE6EFA2DFE3376500408545130505401F
:1056F000EFE02FDB6FA0FFE4EFA27FE21C4101117E
:10570000542113D7E70002CA098B93F7F77FA30A46
:10571000E10078003EC602C802CC02CE230BD100C5
:105720008147BA85050763CBD7003765004013056D
:105730000540EFE08FC205616FA0BFE03306F500C2
:105740005032850730A7F9BFEFA27FDD0111B337D3
:10575000F00005489605960616061607FC82230BF0
:10576000A10085476800A30B01016C877486F08156
:10577000F8803ECE230C0100EFE0AFAC05616FA0D6
:105780005FDCEFA2DFD901112E84B335A0003765AD
:105790000040700013050540EFE0EFC7B247034635
:1057A0005101894693F7F77F01476313D6002167BC
:1057B000D98F1CC083476101930571012317040031
:1057C0005CA0214613055400EF7040790145056146
:1057D0006FA03FD75D7122DE26DC37640040B7043E
:1057E00000382ADA2ED813050440938514003ED0E1
:1057F00086C696C49AC29EC032D636D43AD242CE1B
:1058000046CC72CA76C87AC67EC4EFE0CFD185474F
:105810006318F5009385140013050440EFE00FD6DC
:10582000B704003837640040938504101305044022
:10583000EFE06FCF85476318F500938504101305DB
:105840000440EFE0AFD337640040B70501381305DB
:105850000440EFE04FCD85476318F500B7050138E8
:1058600013050440EFE08FD1B737002083A7C7F1BD
:10587000829737650040854513050540EFE00FD45A
:105880007254B640A64216438643E2545255C2555E
:105890003256A256125782577248E248524EC24EB2
:1058A000324FA24F61617300203039713ECCB7375F
:1058B000002083A787F106DE16DC1ADA1ED82AD666
:1058C0002ED432D236D03ACE42CA46C872C676C438
:1058D0007AC27EC001458297376500409145130525
:1058E0000540EFE0AFCDF250E2525253C253325571
:1058F000A255125682567247E2475248C248324E6B
:10590000A24E124F824F21617300203039713ECC7C
:10591000B737002083A787F106DE16DC1ADA1ED817
:105920002AD62ED432D236D03ACE42CA46C872C611
:1059300076C47AC27EC005458297376500409305DC
:10594000000213050540EFE06FC7F250E2525253D8
:10595000C2533255A255125682567247E2475248F8
:10596000C248324EA24E124F824F21617300203046
:1059700039712AD6376500402ED4130505409305AA
:10598000004006DE16DC1ADA1ED832D236D03ACE05
:105990003ECC42CA46C872C676C47AC27EC0EFE028
:1059A000EFC1B737002083A707F28297F250E25287
:1059B0005253C2533255A255125682567247E2478D
:1059C0005248C248324EA24E124F824F216173009C
:1059D00020301C4141677917F98F1CC182804CC16E
:1059E0001C4193E717001CC18280EFA2BFB15D711B
:1059F0002A842E8A0545854532C636C43AC2428B72
:105A0000C68AC65902CE02D0EFE05FAF1247A24667
:105A10003246630E0A0685476314FA00C1473ED634
:105A20008547630BF60635C68947630EF606B7074A
:105A3000024013868700631FC406B737002023A2E5
:105A400037F3ED440549930700083EDC4C108567A9
:105A5000228536D23AD4BEC402DA82C282C6EFE0D0
:105A60002FBF054689452285EFE04FC34A85EFE009
:105A7000EFC585476808230E9100A30E6101230F2F
:105A800051013ED0EFE05F8961616FA0FFAA02D6AD
:105A900041BF82C002DE61BF93070040BEC09307D2
:105AA00000103EDE69B7856793870780BEC0930705
:105AB0000020C5BF1386C7016319C400B737002093
:105AC00023A437F3F1444149BDBF13860703631A8A
:105AD000C400B737002023A637F3F544130900109C
:105AE0009DB7138647046319C400B737002023A865
:105AF00037F3F944056981BF138687056319C4002C
:105B0000B737002023AA37F3FD4441692DBF138620
:105B1000C706631BC400B737002023AC37F39304D8
:105B200000023709100005B713860708631BC4007D
:105B3000B737002023AE37F3930410023709000172
:105B400019B793874709E310F4F0B737002023A073
:105B500037F59304E00337090010F5B5EFA23F9C39
:105B600041112A8405452EC632C4EFE02FB62246E5
:105B7000B245B724014050C04CC41385044085454C
:105B8000EFD0DFA61385044093050022EFD0BFB904
:105B9000054622858945EFE06FB01C40138504401F
