:100000006F10D03813000000130000001300000030
:100010001300000013000000130000001300000094
:100020001300000013000000130000001300000084
:08003000130000007300100032
:100038000000000000000000EA0A0000EC0A0000CE
:1000480000000000241B0000000000000000000069
:10005800261B0000281B0000000000000000000014
:10006800F24500000000000000020000000000004F
:100078002E1B0000301B0000321B0000803F0000D8
:10008800361B0000381B00003A1B00003C1B000018
:100098003E1B0000401B0000421B00000836000009
:1000A800461B00006C3600003A370000D4360000CA
:1000B8004E1B00009E370000520B00000832000063
:1000C800DE32000040330000A43300005C1B000057
:1000D8005E1B0000601B0000621B0000641B000028
:1000E800D24100005E410000EA400000A03D00004F
:1000F800EC3D0000383E0000843E0000741B000008
:10010800761B0000781B00007A1B00007C1B000097
:100118007E1B0000801B0000821B0000841B000067
:10012800861B0000881B00008A1B000000000000DE
:080138000000000000000000BF
:10020000130181F806C216C41AC61EC822CA26CC1B
:100210002ACE2ED032D236D43AD63ED842DA46DC76
:100220004ADECEC0D2C2D6C4DAC6DEC8E2CAE6CC46
:10023000EACEEED0F2D2F6D4FAD6FED8F3220030CF
:1002400096DA9702002083A2E23C23A02200F32545
:1002500010342EC003A10183EF50400C170300207F
:100260000323433B03210300824273901234D6528E
:10027000739002309240A2423243C2435244E2445D
:10028000724582551256A2563257C2575258E258FA
:1002900072598649164AA64A364BC64B564CE64C0E
:1002A000764D865D165EA65E365FC65F13018107DA
:1002B0007300203013000000130000001300000042
:1002C00013000000130000001300000013000000E2
:1002D00013000000130000001300000013000000D2
:1002E00013000000130000001300000013000000C2
:1002F00013000000130000001300000013000000B2
:1003000083A20183938202E07390023417010020DC
:1003100003214130024182403243C2435244E2440D
:10032000724582551256A2563257C2575258E25859
:1003300072598649164AA64A364BC64B564CE64C6D
:10034000764D865D165EA65E365FC65FD652A1020A
:1003500073900230A24213018107828013000000D3
:100360001300000013000000130000001300000041
:100370001300000013000000130000001300000031
:100380001300000013000000130000001300000021
:100390001300000013000000130000001300000011
:1003A0001300000013000000130000001300000001
:1003B00013000000130000001300000013000000F1
:1003C00013000000130000001300000013000000E1
:1003D00013000000130000001300000013000000D1
:1003E00013000000130000001300000013000000C1
:1003F00013000000130000001300000013000000B1
:10040000F322003093F272FF130380181203B3E259
:100410006200711523205500130585FA10C12115BE
:10042000232005009302000063870200711523203A
:100430000500FD12D5BF71150CC1828000000000BF
:1004400000000000000000000000000000000000AC
:10045000000000000000000000000000000000009C
:10046000000000000000000000000000000000008C
:10047000000000000000000000000000000000007C
:10048000000000000000000000000000000000006C
:10049000000000000000000000000000000000005C
:1004A000000000000000000000000000000000004C
:1004B000000000000000000000000000000000003C
:1004C000000000000000000000000000000000002C
:1004D000000000000000000000000000000000001C
:1004E0000000000000000000000000000000397162
:1004F00001436EC619A0397141536AC866CA62CCFD
:100500005ECE19A0397101535AD056D252D44ED66C
:100510004AD826DA22DC06DE3301614082824111AC
:100520004AC026C222C406C68282B24D4101024D93
:10053000924C224CB24B4101024B924A224AB249A0
:100540004101024992442244B240410182803D432C
:100550002A876373C3029377F700BDEFADE5937607
:1005600006FF3D8ABA960CC34CC30CC74CC7410763
:10057000E36BD7FE11E28280B306C3408A0697027E
:10058000000096966780A6002307B700A306B70071
:100590002306B700A305B7002305B700A304B700DF
:1005A0002304B700A303B7002303B700A302B700D7
:1005B0002302B700A301B7002301B700A300B700CF
:1005C0002300B700828093F5F50F93968500D58DB3
:1005D00093960501D58D61B7939627009702000089
:1005E00096968682E78086FA9680C1171D8F3E9682
:1005F000E374C3F8A5B7B7070020938747663E9515
:1006000093D785000CA11CB193D70501E1813CA1D2
:100610002CB18280B7070020938747663E950CA1D6
:10062000A1810CB18280EFF21FED37090020130683
:10063000C021814513054966193F81461306602094
:10064000930549660145EF20D027631C053A130442
:1006500049661820930740076307F724856493874A
:1006600044F71EA0BD473CA089475EA0D947A30B15
:10067000F41C8967938717407EA4B70700051CC840
:10068000B70700245CC8930700501CCC230C041C43
:10069000B7070002232E04002320040223220402B1
:1006A000232404022326040223280402232A04020A
:1006B000232C0402232E04022320040423220404F6
:1006C000232404042326040423280404232A0404E2
:1006D000232C0404232E04042320040623220406CE
:1006E000232404062326040623280406232A0406BA
:1006F000232C0406938607102324F40A232AF40AE1
:10070000B7073603938707102328F40CB707F302C3
:100710009387F703232AF40CB70706009387370F54
:10072000232CF40CB707CF009387B70D232EF40CBE
:10073000B707ED00130700209387670E8145154525
:100740002320F40E2326D40A2328E40A232CD40AD7
:10075000232EE40A232E040623200408232204085F
:10076000232404082326040823280408232A040831
:10077000232C0408232E04082320040A2322040A1D
:100780002320040C2322040C2324040C2326040C11
:100790009D3581452545853593843431CD47216A82
:1007A0002312940E2303F40E130A0A079304700E07
:1007B000A94B130B301383590A002685110AB389FC
:1007C0007903C20993D90901CE85A935835AEAFF75
:1007D000138524004205D68541812D3D13850405EE
:1007E0004205CE8541813D35138524054205D685D8
:1007F00041810D351385040A4205CE854181193D9D
:100800001385240A91044205C204D6854181C18022
:100810001135E39264FBB707E8039387873E814570
:100820001305C01D232CF41CF93381451305001E4C
:10083000D93381451305401E7D3B81451305801E3C
:100840005D3B81451305C01E7D3381451305001FA7
:100850005D3381451305401F793B81451305801F9A
:10086000593B81451305C01F79338145130500208D
:10087000593393070010814613066020930549669B
:1008800001452312F420EF20C07813066020814533
:10089000130549666D398146130660209305496644
:1008A0000145EF201002B707002005472380E75CD1
:1008B00083A7418105478546C84313064400814507
:1008C00013054526EF5030199309240D09492D4A87
:1008D00083A74181CA850509C8434E8605478946D5
:1008E000130505181379F90FEF50F0168909E31174
:1008F00049FF83A7418105478946C8431306F40091
:10090000994513050524EF50101583A7418105472C
:100910008946C84313061401954513050524EF5075
:10092000901383A7418105478946C84313063401C4
:10093000854513050524EF50101283A74181054713
:100940008946C84313065401894513050524EF5011
:10095000901083A7418105478946C8431306740157
:100960008D4513050524EF50100F83A741810547DE
:100970008946C84313069401914513050524EF5099
:10098000900D0549930B240C314C9D4C3D4BB30A03
:10099000890383A7418105478546C84333862B01D8
:1009A0009375F90F1305C518EF50F00A130AB40137
:1009B000938ACA18854983A74181528693F5F90F16
:1009C000C8430547894656958509EF50D008090A5E
:1009D000E39399FF0509E31C69FB83A74181054760
:1009E0008546C8431306140DBD451305C518EF50C1
:1009F00090060C300145EF0050252C200545EF00F6
:100A0000D02435B6B7070020938747663E950CA1E2
:100A1000828089476301F60291476308F6028547A1
:100A20006319F6009821B7070020938747663E9523
:100A300018A1014582809A21B70700209387476655
:100A40003E9518A1218318B1EDB79841B707002052
:100A5000938747663E959357870018A11CB193571B
:100A6000070161833CA138B1E9B7B707002093873C
:100A70004766AA97983388232207598D8280B70743
:100A8000002093874766AA978823B823498F883325
:100A90002205498FA8336205598D8280B70700204F
:100AA000938747663E9508218280EFF25FA7154540
:100AB000F9379305150015453D3E61B4EFF23FA6A9
:100AC000B705002093854566A384050023850500AE
:100AD000A385050023860500814621469505154519
:100AE000EF202053B9BC0145828001A039712AD67C
:100AF000378500001305050C06DE16DC1ADA1ED851
:100B000032D236D03ACE3ECC42CA46C872C676C43D
:100B10007AC27EC02ED4EF60805CEF50C058AA85A8
:100B2000378500001305450DEF60204AEF5000584F
:100B3000AA85378500001305450EEF600049EF5088
:100B40004057AA85378500001305450FEF60E04741
:100B500001A0EFF2DF9C3724014093050014130538
:100B60000440EF10602801C9913F9305001413055C
:100B70000440EF102029F1B2370500201305855CF1
:100B800082809307F5FF6D476360F70CEFF23F99A2
:100B900021678A0713074710BA979C434111828740
:100BA0001305752042054181D53D410159BA130510
:100BB000752042054181553DCDBF3915EF0080704C
:100BC000A9473345F50242054181C5B79305E100C8
:100BD0000145EF20C03A1305801D413DAA842887B6
:100BE000EF50307A2A842685EF600006B787000030
:100BF00083A54717EF50B01FAA852285EF50104AF2
:100C0000B787000083A58717EF505049EF50107247
:100C10005DBF9305E1000545EF2060361305A01D7B
:100C20006DBF9305E1000945EF2020330887B5BF6C
:100C30005D3DA5BF1545A1358DBFB707002003A5B4
:100C4000475CA5B7014595B701458280EFF23F8D1E
:100C5000014689452A84EF00607F228501468D4543
:100C6000EF00C07E014685452285EF00207E6FF0B3
:100C70005F8DEFF2DF8A41112A8432C42EC6F5332C
:100C8000B2458AA11305240042054181F93B224661
:100C90000AA241016FF0FF8AEFF27F8831493309E0
:100CA000250341117000AA842E849305E1001305E9
:100CB000B901C13738863C870146B366F70089CE53
:100CC00063E9E700636AE40033B687001346160061
:100CD00021A00546E36AE4FE89452685EF000077FA
:100CE00070009305E1001305F901613738863C87F0
:100CF0000146B366F70089CE63E9E700636AE40062
:100D000033B687001346160021A00546E36AE4FEC9
:100D100085452685EF00807370009305E10013057B
:100D20003902813F38863C870146B366F70089CE99
:100D300063E9E700636AE40033B6870013461600F0
:100D400021A00546E36AE4FE8D452685EF0000708C
:100D500041016FF00FFFEFF20FFA4111AA8AAE8442
:100D60003D456C00B2891306E10036893A8C3E8B12
:100D7000428DC68C03544104ED3D2886835BE1001F
:100D800033057541EF50F05FB787000083A5C717A3
:100D9000EF50D0302A8A636E340333857941EF50A7
:100DA000505ED285EF50B004EF5050582300AD0094
:100DB000330534416374890033053941420541816B
:100DC000EF509068D285EF509002EF50305623805C
:100DD000AC00636D540333857A41EF50905AD2854D
:100DE000EF50F000EF5090542300AC0063E3840216
:100DF00033045441131504014181EF50F064D2854E
:100E0000EF50E07EEF5090522300AB0041016FF0B5
:100E10000FF233845441F9BF03480100388263F66E
:100E2000A5026374A70063E6E6006379B700637FF9
:100E3000E602238008012380070182806364D700D3
:100E4000E37BE6FE2380080182806377E600E362AD
:100E5000B7FEE379D7FE19A06375D700E36BE5FC15
:100E6000D5B7E371B7FEE368E5FCE9BFE36CD7FCF7
:100E7000D9B7EFF2CFEA79712A892E84B2846C1047
:100E80001306E1023D4536CE3ACC3ECA42C846C6BC
:100E9000CD33F246B2484248D247624763F48602F5
:100EA00063EB260163E9280163E9160123000701CA
:100EB0002380070129A0E3FD16FF230007014561F8
:100EC0006FF02FE86367940063E59800E36214FF16
:100ED000F1BFE37414FFE9BFEFF2CFE2B787000080
:100EE00003AAC717416979717D192945EF40A03CD4
:100EF0000144B9491305340C420541819374F40F40
:100F0000713E6310050E268591330504E31434FF0A
:100F10001305100D613623000102A3000102230115
:100F20000102A30101022DCDA93993190501130670
:100F3000E1026C102A8B3D452D3B30109305A10238
:100F40004D45053B5010930561025D451D338357A8
:100F5000E1020355C10293D909011D8DEF50704282
:100F6000D285EF50B013AA8A39450D3E035681024F
:100F700003544102835461028356A10235E963E4BC
:100F8000840063FFC6004EC256C0930811021308C6
:100F900001029307310213072102A6852285653BD2
:100FA00083461102034601028345310203452102B3
:100FB000A9211545E934AA85116513054544612B1E
:100FC000130560205D349377F50F014589CB1385B8
:100FD000F7FF1375F50F13059506060579342125DE
:100FE00029B7453693150501C1812685753131BF75
:100FF00033752B0136CE32CCEF50B038D685EF505A
:10100000005FEF50B0321378F50F6246F24663E4AA
:10101000840063F0C60242C04EC293081102130856
:1010200001029307310213072102A6852285ED33C1
:1010300085BFCE889307110213073102A68522854A
:101040000D3DB9BFEFF2AFCD37140140EF20A07BCB
:101050001305048093050010EF205013130504C0FE
:10106000C145EF20D0068564938504C2130504C0F2
:10107000EF20D00A37061800130504C0E146130616
:101080000610A145EF20100C938504801305048001
:10109000E1460146EF20100BE1460146130504C06E
:1010A0008D45EF20300A130504809305F004EF20EE
:1010B000900413050480E14601469305000AEF20E1
:1010C0007008E1460146130504C0A965EF209007AA
:1010D00013050480C145EF20807F130504C085659A
:1010E000EF20E07E130504C09306800437461D0000
:1010F00093050010EF201005130504C0E1463746A4
:101100001D0093050020EF20F003F146130504C0F5
:1011100001469305000CEF20F00205468545373562
:101120000140EF20306C37450040054685451305EA
:101130000580EF20306B37150000154685451305F7
:10114000A5AAEF20F058B7160000B7450F00938608
:10115000A6661306803E938505240D45EF300013E7
:10116000E165B1461306803E9385056A0945EF3077
:10117000801C95450545EF10B067C145130504C0B7
:10118000EF2010006FF0EFBBEFF26FB93725014091
:10119000814513050540EF00503237050020032537
:1011A000C55CB70700201384475D01479387475DFF
:1011B0008D460546894523200400EF40207F1C40D2
:1011C00091C7B7E700E0116723A0E7206FF06FB782
:1011D000370500201305C55C8280EFF24FB403A7EA
:1011E000818393878183DC230111372401403008F8
:1011F0009545130504403ACC230EF100EF107073AF
:10120000EF101055B71700002A8793878718370506
:1012100002403EC08D48054881479306C4440546B8
:1012200081452105EF20E020EF10304F05616FF080
:101230004FB1EFF22FADEF10B0512A841309E50141
:10124000AA84039504008904EF10F06A239FA4FE8A
:10125000E31999FEB787000003AA0718B7870000B3
:1012600083AA4718B787000003AB8718138901B01A
:1012700081449389C1B03E244A28CA853E951E20E8
:101280003E958D473355F50242054181EF40D04BE5
:101290009147639FF400EF50301BD285EF50006000
:1012A000D685EF50A05FDA85EF40D07D23A8A90056
:1012B000850493F4F40F954709040909E39DF4FAB2
:1012C0006FF08FA70A059387C1B0AA9788438280E1
:1012D000EFF2EFA4EF400036B707002023A8A75C89
:1012E000B707002003A5C75C01478D46114681451D
:1012F000EF4080506FF0EFA4EFF2CFA0B7040240B0
:10130000411105440549B7090020A104630A2401DD
:1013100015C489476305F4042945EF30D079FDB73A
:101320007D5774001306F00F81450145EF40603E84
:10133000B247918BF5D355350144F9BF03A5095D3B
:101340000147894601468145EF40004BEF10504070
:10135000AA853D462685EF20E024094475BF014754
:1013600074001306F00F81450945EF40803A058966
:1013700045D5C135EF10D03DAA853D462685EF20E5
:10138000602259BFEFF2AF993705024013050503FC
:10139000EF20400837350140EF20504E05443735E7
:1013A0000140EF20B04EE30C85FE37150140C145EA
:1013B00013050580EF20C05C6FF0AF98EFF22F9619
:1013C0003705024013058505EF20C004374400406F
:1013D00013050480EF20904A13040480854422857D
:1013E000EF20D04AE30D95FE3715014085651305C2
:1013F00005C0EF20E0586FF0CF948547060633967E
:10140000C700060589473395A70001478147631246
:10141000B702139507014181C1838145014763905C
:10142000D502598D4183938601B2D98FEAA29EA637
:1014300082800507C98F1377F70F0A05C9BF850595
:10144000518F93F5F50F0A06D9BF8280B5468147C3
:10145000014763ECA6002167931725001307C718FF
:10146000BA979C438287254789478D4611456387F4
:10147000D500894609456383D5000545938601B2A9
:101480003315E5008607B6974205054783960700A2
:1014900041856319E604558D8AA382808D47330503
:1014A000F5021377F50FC9B78D473305F5026915B6
:1014B0001377F50F854755BF8D473305F502511555
:1014C0001377F50F814755B7194779BF3547DDB712
:1014D0002947CDB73147FDB72547EDB72A8769B70B
:1014E0001947CDB71345F5FF758D7DB7854763085F
:1014F000F50209C58947630FF5028280B70700200E
:101500009387875D9A2393D65500AE05719B558FBF
:101510009AA3BA231377F77FD98DAEA382803707BA
:1015200000201307875D3E238E0593F737C0DD8DBE
:101530002EA38280370700201307875D3E2393D6B2
:101540004500B205E19BD58F3EA35E23D207D18330
:10155000DD8D4EA38280EFE2FFFAB7470F0093873D
:10156000F7232E899D4463E8B702E1679387F76903
:10157000994463E2B70289679387F770954463ECF7
:10158000B7009307703E914463E7B70093043006B9
:10159000B3B4B4008904B7090020216A01449389D7
:1015A000895D130A4A1CA94A83D7290022850504AC
:1015B00093E707402391F900B37759031374F40FAD
:1015C000D2978C23253733595903E39F84FC9D44DC
:1015D000631494006FE05FF6228581450504393776
:1015E0001374F40FF5B7370700201307875D1E2328
:1015F0000A058D8BC98F1EA38280EFE25FF2B717B9
:1016000000004111370402409387C73B3707002091
:10161000B74600403EC01305840589480548814708
:101620001307875D9386C68005468545EF10706079
:10163000B717000093874738B73601403EC0894846
:1016400005488147138701B2B10605461305040317
:101650008545EF10105E37050040854513050540B0
:10166000EF10007041016FE0DFEDEFE25FEB371448
:10167000014013050480C145EF204031130504C02B
:10168000856537040240EF206030914513058405DD
:10169000EF10305913058405EF10F05695451305EA
:1016A0000403EF10105813050403EF10D0556FE03A
:1016B0005FE9EFE2DFE60545EF0070731D22EF40C2
:1016C000B00B716513050520EF40D0113785000080
:1016D0001305051DEF50B020EFF0DF9637840000B2
:1016E0003D292D29552EEF3070001305841DEF5034
:1016F000101FE5BFB71702409843B706FFF8411126
:101700001367170098C3D84337060200758FD8C3F4
:101710009843B706F7FEFD16758F98C39843B70632
:10172000FCFFFD16758F98C3D843B70681FFFD16E1
:10173000758FD8C337079F0098C702C402C6984365
:10174000C166558F98C3B716024005679C42F18F5A
:101750003EC6A24785073EC4B24781E7A247E3974A
:10176000E7FEB71702409C431397E700635907064B
:1017700085473EC6324785476311F706B7170240D3
:10178000D843B706C1FFFD1613670708D8C3D8436F
:10179000D8C3D84313670740D8C3D843758FD8C37D
:1017A000D843B7063D00558FD8C39843B70600010C
:1017B000558F98C3984393166700E3DD06FED84320
:1017C000B7160240719BD8C3D84313672700D8C30C
:1017D0002147DC42B18BE39EE7FE4101828002C6D5
:1017E00051BFB7160240DC42370700201146B18BCB
:1017F000130707586385C70021466388C702B717D8
:101800007A00938707201CC3B7170240DC439183FB
:1018100093F6F700B707002093870700B697942345
:101820001C43B3D7D7001CC38280DC42D44241663C
:10183000C983BD8BF18E890745466393C700C947AD
:1018400081EEB746024083A60680C18A89CEB716CC
:101850007A009386062021A8B7160240D442139638
:10186000E600E35606FEB7163D0093860690B38762
:10187000D70251BFEFE23FC84111C16423150100F7
:101880000144370900200D4BB78A00008D4BFD1431
:101890008327095E9309095E094A638C47176387AA
:1018A0006715E5FFEFE03FD8930580163D45EFE073
:1018B0007FD681454545EFE0FFD5930560094D454D
:1018C000EFE05FD59305600E5545EFE0BFD493057B
:1018D000E0105D45EFE01FD49305E0066545EFE0BD
:1018E0007FD385453945EFF0EF919305E00B130564
:1018F000B004EFE03FD29305E0061305D004EFE01B
:101900007FD1930540061305F004EFE0BFD09305A7
:10191000800C13051005EFE0FFCF8145130530055E
:10192000EFE05FCF814513055005EFE0BFCE854561
:101930001305700CEFF00F8D9305E00B1305B00746
:10194000EFE05FCD9305E0061305D007EFE09FCCF5
:10195000930540061305F007EFE0DFCB9305800CFD
:1019600013051008EFE01FCB814513053008EFE0A9
:101970007FCA814513055008EFE0DFC9854513058F
:10198000B00CEFF02F889305E00B1305700BEFE020
:101990007FC89305E0061305900BEFE0BFC79305E2
:1019A00040061305B00BEFE0FFC69305800C13054E
:1019B000D00BEFE03FC681451305F00BEFE09FC56C
:1019C00081451305100CEFE0FFC485451305000D9C
:1019D000EFF04F8381451305F00CEFF0AF82EFF08D
:1019E000DFC1EFF0FF8E23A079015DB57D57740054
:1019F000014681450145EF30D05132478547E31913
:101A0000F7E8268681450145EF40801923A049016A
:101A100041B509469305A10013056020EFE07FFF63
:101A20009375F40F13058020EFE0DFFD1305401FD1
:101A3000EF3070083C8525478507C207C183636284
:101A4000F7027C852904420441809307101763F351
:101A500087000144EF20B01D13850A1FEF50206856
:101A600005BD23150100F9BFB71700209387075C58
:101A70001CC1938701449CC1930700081CC282804B
:101A8000B71700209387C7611CC1938701649CC16D
:101A9000930700081CC28280EFE27FA8EFF0CF8D91
:101AA0002A84B785000037150000138881189387B2
:101AB00081D829478546130600109385C51F130555
:101AC00085EDEF30403808C0EFF08FF02A84B785FD
:101AD0000000371500001388C1D29387C1B20D47AB
:101AE000854613060008938585201305852FEF3062
:101AF000803508C0B7850000372500001388413EB7
:101B00009387411E0D47854613060008938545219E
:101B100013054587EF3020336FE0BFA282808280BB
:101B200001A001A001A001A001A001A001A001A0AD
:101B300001A001A001A001A001A001A001A001A09D
:101B400001A001A001A001A001A001A001A001A08D
:101B500001A001A001A001A001A001A001A001A07D
:101B600001A001A001A001A001A001A001A001A06D
:101B700001A001A001A001A001A001A001A001A05D
:101B800001A001A001A001A001A001A097F1FF1FE9
:101B90009381411F173100201301C14617750000C2
:101BA0001305C50C97E5FF1F9385C5451386018472
:101BB00063FAC5008322050023A055001105910595
:101BC000E3EAC5FE17F5FF1F1305C59F9705002023
:101BD000938585E56377B500232005001105E36D46
:101BE000B5FEFD42739002BC894273904280B722D9
:101BF00000009382028073A0023097E2FFFF93827D
:101C0000E24393E2320073905230EFF0BFAE97029E
:101C10000000938242AA7390123473002030EFE2E6
:101C20001F90B727014093870740631EF500854545
:101C300013050020EF003040814513050020EF0020
:101C4000903F6FE01F90B737014093870780E31AFA
:101C5000F5FE854513050040EF00F03D8145130575
:101C60000040F1BF5C413707F1E01307F7EF944DF7
:101C70007D8F9C41D58FD44DD58FD441A206D58F71
:101C8000D98F5CC11C4537F7F1FF1307D77FD445C7
:101C90007D8F9C49D58F94458606D58FD98F1CC5DD
:101CA0005C55370710FF7D177D8FDC29FD1793F7F3
:101CB000F70FD207D98F5CD582801C4589C593E781
:101CC00017001CC58280F99BEDBF1C4589C593E7B1
:101CD00007101CC5828093F7F7EFE5BF1C4593E71B
:101CE00087001CC5828008450D81058982801C45BE
:101CF00093E747001CC582800845098105898280D9
:101D00001C4591C537075000D98F1CC58280370705
:101D1000B0FF7D17F98FD5BFA54763F7B7048D478F
:101D2000138765FF3307F7020328C5009D47B39764
:101D3000E70093C7F7FFB3F70701B396E600DD8E20
:101D400054C5994763E3C70495477D163306F602E9
:101D50005859FD47B397C70093C7F7FFF98F3396DC
:101D6000C5005D8E50D982800D473387E502032878
:101D700005019D47B397E70093C7F7FFB3F7070146
:101D8000B396E600DD8E14C96DBFB14763E2C702AA
:101D9000954765163306F6021859FD47B397C700F5
:101DA00093C7F7FFF98F3396C5005D8E10D98280F7
:101DB00095474D163306F6025855FD47B397C700B1
:101DC00093C7F7FFF98FB395C500DD8D4CD58280A1
:101DD0001C4591C537071000D98F1CC58280370775
:101DE000F0FF7D17F98FD5BF5841144193D7850077
:101DF000F58F99C713F5F50F798D3335A0008280E3
:101E000001458280A18193C5F5FF0CC182805C41B0
:101E100091C537070004D98F5CC18280370700FC69
:101E20007D17F98FD5BFEFE28FEF01112A842303CD
:101E30000100A5441C8363FAF40623030100A546B0
:101E400021461C8363FEF6082314010023150100BC
:101E5000230301009546130600601C8363FCF60E05
:101E60001C8393F7F70F63820712388414833C8432
:101E70000C8310833347D702B3E7B7028607B3C793
:101E8000C702BA97C207C1837C84188399479546D5
:101E9000998F93F7F70FDC839C8393F7F70F639A7F
:101EA00007108567938707803DA21C4493E787004E
:101EB0001CC422850D3D75FD1C4493E747001CC4DE
:101EC00022851D3D75FD78441C8314108607B69746
:101ED0002396E7FE1C83850793F7F70F5C8399BF72
:101EE000A30301009C836378F6001C83850793F7A6
:101EF000F70F5C83B9B798839C830C10060785079E
:101F000086072E97AE970357C7FE83D7C7FE63FD9C
:101F1000E7029C838607AE9783D7C7FE7C849C83A9
:101F2000988385078607AE9783D5C7FE931717005A
:101F30001810BA972396B7FE9C8338840C10850737
:101F40008607AE972396E7FE9C83850793F7F70FE6
:101F5000DC8349BF1C83181089078607BA9783D78B
:101F6000C7FEE36FF6EE1C830C10388489078607E2
:101F7000AE9783D7C7FEBA97C207C1837C841C8300
:101F8000850793F7F70F5C83C9BD93070040EDBD4C
:101F90001C831010388589078607B29783D7C7FE40
:101FA000BA97C207C1837C851C83850793F7F70F17
:101FB0005C831C83E3FEF6FC388594833C858C832C
:101FC00090833347D702B3E7B7028607B3C7C70288
:101FD000BA97C207C1837C85288434852C843085D8
:101FE000056793070040130707803385A740B306B2
:101FF000D7408D8F118F4205C206C2074207C186A6
:1020000041874185C1873695BA9789463345D502C0
:102010000561B3E7D7023E95420541856FE06FD277
:10202000EFE2EFCF0545EF00D0040145EF0070046B
:102030006FE02FD1B707F000ED8F89CB104D3375CE
:10204000B600320531813335A00082809397750048
:1020500063D60700544133F5B600E5B793974500C2
:1020600063D5070008456D8DE9BFB706100093974B
:102070006500FD1663D7070058453375B700758DA9
:10208000D9B71C4933F5B700DDBFB707F0309387E8
:1020900007076395F500232C050082809397C50000
:1020A00013976500B183635407005CC58280139762
:1020B0005500635407001CC9828013974500635480
:1020C00007001CC582805CC1828093070010638674
:1020D000F50663E7B702A1476388F50663E9B70031
:1020E0000547638EE50411476381E5068280130787
:1020F0000002638FE50493070004638AF50482807D
:10210000938705808DCB85679387078063EBB70046
:10211000930700206383F50293070040638FF50067
:102120008280C1676388F502B70702006387F50202
:10213000A1676393F502232C0500914729A8C16785
:10214000938717101CC58280C1475CC58280C14738
:102150001CC98280A1475CC18280C147EDBF1C4180
:1021600061773D0794517D8F9C45D58F9449D58FDC
:10217000D449D58F944DD58FD44DD58FD451D58F8B
:102180009455D58FD98F1CC1DC455CC19C411CC5C1
:10219000DC415CC582801C4189C593E717001CC1E6
:1021A000828041677917F98FDDBF1C4101C6DD8D43
:1021B0000CC1828093C5F5FFFD8DDDBF4CC18280CF
:1021C000B70702409C437D8D3335A0008280EFE24B
:1021D0000FB5FD376FE0EFB6B7070240C8C3828086
:1021E0009C4513F7070113F8F70001C7D84133687E
:1021F000E80037270240145B3707000F758F5DEB4F
:102200003707002085462302D75E37170140631544
:10221000E5009A2135839AA18E2113F7F50F39C372
:1022200018418146854E3D4F930F800293028004F2
:10223000214E3396DE00B3F8C50063111603939860
:10224000260033131F011343F3FF3377E300B31862
:10225000180133E7E8006399F70750C98506E39A48
:10226000C6FD18C11307F00F6375B704544121462A
:10227000854E3D4F930F800293028004414EB398E8
:10228000CE0033F715016392E802131726000117F9
:102290003313EF001343F3FFB376D3003317E80093
:1022A000D98E6397F703232A15010506E319C6FDA6
:1022B00054C1828037170140E310E5F6370700204C
:1022C0000347475E31DBB1B7E39A57F810C979B7D6
:1022D000E39D57FC23281501C9BFB71701406318B8
:1022E000F500B707002083C7475E91C3B5810CC9CD
:1022F0008280B71701406318F500B707002083C735
:10230000475E91C3B5814CC98280B7070140635ACB
:102310000504DC4F935605011318050137073000FB
:1023200013F6F60013580801B376E500635E050660
:102330006399E604930606010D46B316D60093C6CC
:10234000F6FFF58F99C9135755011377F73F120719
:102350003317E800D98F63550506370701405CCF76
:10236000828037270240145BDC433707000F758FEC
:1023700055F313D71700F976CE07758FCD83D98F14
:1023800051BF1317B500635607008D46B396C600BC
:102390007DB7135755011377F73F12073317E8003E
:1023A0001347F7FFF98F79BF6390E60237060140C4
:1023B0005442370700F17D17F98F758F58C2C1F568
:1023C000370701405CC382801317B500635C0700C8
:1023D0008D46B396C60093C6F6FFFD8EB707000F75
:1023E000D58FF1BF1357550112073317E800134774
:1023F000F7FF7D8FB707000FD98FD1B7EFE22F928C
:1024000079712A84462168082EC6112E92573747C3
:102410000F001307072433D7E702C204C18093F4E7
:1024200004FCC204C180B24561651305056A131638
:1024300007014182D18C46A01620C206C182F99ABA
:10244000C206C18216A094416369D5048606B3D73B
:10245000D7029146139707014183BA876373D70068
:10246000914705064206C2074182C18312B05EACA5
:102470001E20DA21B62593E717001EA01E20558FD7
:10248000C207C18393F757BFD98F1EA09A25DE25B7
:10249000D98F1EA445616FE0CF8AEA2131667D168F
:1024A000631DC5020D46B386C602B3D7D702C20765
:1024B000C1839396470199E293E71700A166D58FF0
:1024C0009306C0123307D7029306803E3347D702E4
:1024D0000507420741831AB059BF6546B386C60255
:1024E000B3D7D7029166C207C183D58FD9B71E2152
:1024F00089C593E717001EA18280C207C183F99B9B
:10250000C207C183CDBF1E2189C593E707101EA155
:102510008280C207C18393F7F7EFC207C183C5BFAB
:102520001E2189C593E707201EA18280C207C183AF
:1025300093F7F7DFC207C183C5BF1E2189C593E7A3
:1025400007401EA18280C207C18393F7F7BFC2076D
:10255000C183C5BF5E2589C593E717005EA582804C
:10256000C207C183F99BC207C183CDBF5E2101C6EB
:10257000DD8D4EA1828093C5F5FFFD8DDDBF0EA9D7
:1025800082800A291375F50F828093F7E50F19C22F
:1025900093E71500C207C1831EA98280411102C6BC
:1025A0002AC6B247BE952EC6B2478A234101828011
:1025B000411102C402C693D7C5012AC63EC4A24730
:1025C000A205A18199CBB247D1073EC6B247884345
:1025D00041016D8D3335A0008280B247C181E10792
:1025E000EDB793C5F5FFC205C1814EA98280B7073B
:1025F000002023A4A75E8280B70700209387875E10
:102600009443182181E63C21920721A89443054672
:10261000639FC6023C21103192076314D60093E7F2
:1026200007F8B7E600E093F7F70FBA962380F64075
:102630008546935757003397E6005441A5C29387C8
:1026400007048A07B7E600E0B69798C382808C43F8
:1026500089466391D50214313C216365D6008A0610
:10266000B6975DB79386E6038A06B69793F7F70F9A
:10267000920775B790438D46631CD60014313C21F8
:102680006364D6008606E9BF9386C6078606F1BF57
:1026900094439147E39EF6F81C31BDB79387070634
:1026A0004DB7377700401C4309C593E707101CC39B
:1026B000828093F7F7EFE5BFB7160240DC4251770F
:1026C0007D17F98F5D8DC8C28280B71702402380C5
:1026D00007022380070205476306E50011476306EA
:1026E000E50082802380A702828015472380E702CD
:1026F0008280371702401C535D8D08D3828001C948
:10270000371702401C53A166D58F1CD38280B716A1
:1027100002409C5261777D17F98F9CD282803717D7
:1027200002405C439146B18B6385D700A14663822A
:10273000D706B7177A00938707201CC137160240C7
:102740005C4237070020130707019183BD8BBA97BE
:1027500094231C41B3D7D7005CC15442A1829D8A07
:10276000BA969422B3D6D70014C55442AD829D8A3E
:1027700036971823B3D7E7005CC558423983937660
:1027800037001387418036971823B3D7E7021CC957
:1027900082805C435843C166C983BD8B758F8907AE
:1027A000C5466393D700C94701EF37470240032767
:1027B0000780418B09CF37177A001307072021A81C
:1027C0003717024058439316E700E3D606FE371743
:1027D0003D0013070790B387E70285B799C5371700
:1027E00002405C4B5D8D48CB8280B7170240D84BCE
:1027F0001345F5FF798DC8CB828099C53717024004
:102800001C4F5D8D08CF8280B7170240984F13454B
:10281000F5FF798D88CF828099C5371702405C4FCC
:102820005D8D48CF8280B7170240D84F1345F5FF22
:10283000798DC8CF828099C5371702405C475D8D7E
:1028400048C78280B7170240D8471345F5FF798DF6
:10285000C8C7828099C5371702401C4B5D8D08CBD5
:102860008280B7170240984B1345F5FF798D88CBCE
:10287000828001C9371702401C53C166D58F1CD313
:102880008280B71602409C5241777D17F98F9CD207
:1028900082809357550005476399E700B7170240B8
:1028A0009C4333D5A7000589828009476396E700DA
:1028B000B71702409C53F5B7B7170240DC53D5B7A2
:1028C000B737004003D7078089C5598D2390A7806B
:1028D00082801345F5FF798DD5BFB737004003D708
:1028E0004780136707012392E780828037370040D3
:1028F00083574780C207C183BD9BC207C183231290
:10290000F7808280EFD2BFC141112AC6F937324524
:10291000B7370040135705013D8B42052394E780EC
:1029200041812396A780D93741016FD09FC13737A6
:1029300000408357478093F70702E5DF82803737EF
:10294000004083574780C207C183DD9BC207C18314
:102950002312F7803737004083574780A18BEDDF84
:102960008280B737004003D747801345F5FF798D44
:102970002392A780828037370040835747800357D0
:102980000780C207698FC18309C77D8D3335A000D9
:10299000828001458280EFD29FB8E1376FD07FBA45
:1029A000EFD2FFB7B7370140631AF50085450565DB
:1029B00059358145056541356FD0BFB8B7470040EF
:1029C00093870780E31AF5FE8545116561358145DA
:1029D00011654935D5B71A218D6793870704B6214C
:1029E0007D8F9E21D58FD621D58FF621D58F962527
:1029F000D58FB625D58FD625D58FF625D58FD98FEE
:102A00001EA15A2DFD779387F77FF98F5EAD9E2922
:102A10001EA982801E2189C593E707041EA182801A
:102A2000C207C18393F7F7FBC207C183C5BF5E210D
:102A300001C6DD8D4EA1828093C5F5FFFD8DDDBF02
:102A40000A256D8D3335A000828093C5F5FFC20540
:102A5000C1810EA58280EFD29FACB737014093872A
:102A600007C0631FF5000564854513050480EFF07A
:102A70009FDC814513050480EFF0FFDB6FD07FAC56
:102A8000B7070040631BF50085450545EFF09FDC67
:102A900081450545EFF01FDCD5B7938707406319E3
:102AA000F50085450945EFF0FFDA81450945DDB7B9
:102AB000B7170040138707806319E5008545114566
:102AC000EFF05FD981451145F1B7938707C0E31750
:102AD000F5FA85452145EFF0FFD7814521455DBFDA
:102AE0001E2137370140130707C0C207C1836304A3
:102AF000E502370700406300E50213070740630C57
:102B0000E50037170040930607806306D5001307DA
:102B100007C06316E500BA2193F7F7F8D98FFA21B9
:102B200093F7F7CFC207C183D98F1EA1DE215EB50F
:102B30009E211EB5B7370140938707C06314F50087
:102B40009C251EB985475EA982801E31922103D83B
:102B50002500C207C183F99BC207C1831EB11E3184
:102B600056211A2DC207C183420741831377C7F844
:102B7000518F9225F59BC20633660601D18F3736F9
:102B80000140130606C0C1826310C502B225DD9B59
:102B900003D8E500D18FD221ED9B93F6F6CFD18FEC
:102BA000D22533660601D18E56A11AADFA215AB943
:102BB0001EB182801E3165771307F7CFC207C1832C
:102BC000BD9BC207C1831EB11E31562103D88500AB
:102BD000C20713960601162DC18393F7F7FD758F73
:102BE00096214182A206558FB62142074183B3E662
:102BF00006019206D58FB7360140C207938606C0FC
:102C0000C183631ED502B62593F7F7F703D8C50035
:102C10009206D58FD621C207C183920693F7F7FBA0
:102C2000D58FFD769386F63FF18EF225C207C183DC
:102C3000336606010A06D18E13960601418252A11F
:102C40001AADFA211ABD1EB182801E3103D885004B
:102C5000C207C18393F7F7EFC207C1831EB11E31CC
:102C600056215A2DC2071396060142079621418329
:102C70001377C7F8558FB621C18393F7F7DFB3E613
:102C80000601A206D58FB7360140C207938606C05B
:102C90004182C183631FD502FD769386F67FF58F4F
:102CA000B62503D8C500A206D58FD621C207C18399
:102CB000A20693F7F7BFD58FF576FD16F18EF225B4
:102CC000C207C183336606011206D18E1396060130
:102CD000418252A15AADFA215ABD1EB182801A31E9
:102CE000FD77FD17F98F1EB10358050256215E2DA1
:102CF000657792211307F7CF7D8FF9772206FD17AD
:102D0000518FB3F70701B22103D88500C2064207ED
:102D1000336606013206D18F37360140C2071306EB
:102D200006C0C1824183C183631AC50071767D16D6
:102D3000F18ED2251A06D18EC206C18256A15AAD95
:102D4000FA212310E5041EB18280FD575EA12310F5
:102D500005002313050023110500230405008280CC
:102D60001E2189C593E717001EA18280C207C18377
:102D7000F99BC207C183CDBF8357450491C5216725
:102D8000D98F2312F5048280C607C583DDBF5E2577
:102D900001C6DD8D4EA5828093C5F5FFFD8DDDBF9B
:102DA0001E25C207C183E19BC207C1831EA5828085
:102DB0001E2189C593E707081EA18280C207C1832F
:102DC00093F7F7F7C207C183C5BF1E2DC207C183A2
:102DD000DD9BDD8D0EAD82801A2DFD779387F77F09
:102DE000F98FA205CD8FC207C1831EAD82805E2DF3
:102DF000C207C183DD9BDD8D4EAD82805A2DFD77EC
:102E00009387F77FF98FA205CD8FC207C1835EAD8F
:102E100082801E294A25ED8F4205418189C76D8D2B
:102E20003335A00082800145828093C5F5FFC2053D
:102E3000C1810EA98280EFD28FEE1629F577FD179A
:102E4000F58FF621DA257971D58F1EA95625FD77E4
:102E50009387379FF58FD6212A842EC6D58F962546
:102E6000D58FB625D58F5EA55E29C207C18393F79E
:102E7000F7CFD98F5EA96808EFF07F8AB747014086
:102E800093870780B245631AF404A2575624654716
:102E9000B387E702C206C186984163D206040607DB
:102EA00052244206B3D7E702130740064186B3D641
:102EB000E702B3F7E7029206635506028E0793878F
:102EC0002703B3D7E70213F77700B367D700C2072A
:102ED000C1831EA445616FD0CFE6925745BF0A0754
:102EE000C1B7920793872703B3D7E702BD8BD58F6E
:102EF000F9BF91C55E250967D98F5EA582805A25E5
:102F0000F977FD17F98FD5BF93F5F51F4EA1828094
:102F10000A216D8D3335A0008280B717002093877A
:102F2000876A23A0070023A2070023940700B7178E
:102F300000209387876923A0070023A2070023A40A
:102F4000070023960700B70700202396075E8280BC
:102F500037150020130585678280F1473305F50298
:102F6000B71700209387476B3E955C295839630655
:102F7000F7005CB99CA1094582800D458280EFD2A3
:102F80006FD8714433058502371400201304446B55
:102F90002A94832904001C480D4583A4C902638731
:102FA000F40426852E89EF30304AB787000083A5C8
:102FB000C721EF30B00EB7870000AA8503A507220E
:102FC000EF30E062EF3090369307C0033305F5022F
:102FD00042054181EF30F03A83A54903EF30100CF0
:102FE000EF30D0342310A90004C809456FD0CFD4E6
:102FF000EFD2EFD22E86AA85375500401305054043
:10300000EF00F0496FD0EFD337150020130585701E
:10301000828085673307C5009387078063C1E70A0D
:10302000EFD26FCD2A8C4111328409451DC6371B62
:1030300000208547AE89368A130B8B700149C14A3F
:103040006310F60203284B02B6872E86130740064C
:103050008946E2851305000A029841016FD02FCD01
:103060009377FC00B387FA40C207C183BE846373C1
:10307000F400A284C204C180994BB38C29010328B7
:103080004B02D2872947A6866686E2851305000A89
:10309000029801C92AC6FD1BEF1060393245E39042
:1030A0000BFE058C26994204E2944209139C04010C
:1030B000418013590901135C0C015DF079BF09458A
:1030C000828085673307C5009387078063C3E70263
:1030D000EFD2EFC43717002003288772B687130793
:1030E0004006B2862E86AA851305000A02986FD084
:1030F0004FC509458280B70700200397E75E8147E7
:103100002A97634F070009CD05669306F6FFB68739
:103110006358C700AA876305D50093170701C183C9
:103120003E858280EFD2AFBF3165EFF0EFD86FD030
:103130004FC1EFD22FBDB7270140938707402E899B
:1031400001112A84328A8545631FF5081305002082
:10315000EFF0AFEAC13F2285EFE07FAC85473EC28A
:103160003EC48A85B7070E0022853EC602C002C84B
:10317000230A210102CC02CEA164EFE0BFAE814759
:10318000938444226394270737250140854513051E
:103190000540EFE0FFC385452285EFE01FB385457D
:1031A0002285EFE09FB122858145EFE05FC6228551
:1031B000EFE0DFB22285EFE01FB36DFD2285EFE087
:1031C0001FB32285EFE05FB36DFD2285EFE0BFC541
:1031D000B70700202397A75E85452285EFE03FC310
:1031E00005616FD06FB5130500409DB79389170037
:1031F000D2979C239D4613F6F90FA6978C23228520
:10320000EFE09FB1CE87BDBF5D7122DE26DC376463
:103210000040B70400382ADA2ED8130504409385FD
:1032200014003ED086C696C49AC29EC032D636D40A
:103230003AD242CE46CC72CA76C87AC67EC4EFE095
:103240007FDF85476318F50093851400130504405C
:10325000EFE0BFE3B7040038376400409385041003
:1032600013050440EFE01FDD85476318F5009385E3
:10327000041013050440EFE05FE137640040B70538
:10328000013813050440EFE0FFDA85476318F500C5
:10329000B705013813050440EFE03FDFB717002002
:1032A00083A747738297376500408545130505401E
:1032B000EFE0BFE17254B640A64216438643E254A3
:1032C0005255C2553256A256125782577248E2489A
:1032D000524EC24E324FA24F61617300203039719D
:1032E0003ECCB717002083A7077306DE16DC1ADA78
:1032F0001ED82AD62ED432D236D03ACE42CA46C8AA
:1033000072C676C47AC27EC0014582973765004096
:10331000914513050540EFE05FDBF250E252525356
:10332000C2533255A255125682567247E24752484E
:10333000C248324EA24E124F824F2161730020309C
:1033400039713ECCB717002083A7077306DE16DC61
:103350001ADA1ED82AD62ED432D236D03ACE42CA63
:1033600046C872C676C47AC27EC005458297376564
:1033700000409305000213050540EFE01FD5F25011
:10338000E2525253C2533255A255125682567247D8
:10339000E2475248C248324EA24E124F824F21613C
:1033A0007300203039712AD6376500402ED41305BA
:1033B00005409305004006DE16DC1ADA1ED832D22C
:1033C00036D03ACE3ECC42CA46C872C676C47AC21D
:1033D0007EC0EFE09FCFB717002083A78773829747
:1033E000F250E2525253C2533255A25512568256EF
:1033F0007247E2475248C248324EA24E124F824FA5
:10340000216173002030EFD28F918545EFE0BFD866
:103410006FD02F93EFD2AF908145EFE0DFD76FD021
:103420004F92EFD2CF8FC205C181EFE03FD96FD06D
:103430004F91EFD22F8D5D712A842E8A05458545E7
:1034400032C636C43AC2428BC68AC65902CE02D0B0
:10345000EFF0CFB81247A2463246630E0A06854700
:103460006314FA00C1473ED68547630BF60635C69E
:103470008947630EF606B707024013868700631F6D
:10348000C406B717002023AE3773ED4405499307F0
:1034900000083EDC4C108567228536D23AD4BEC483
:1034A00002DA82C282C6EFE09FCB054689452285BB
:1034B000EFE0BFCF4A85EFE03FD285476808230E93
:1034C0009100A30E6101230F51013ED0EFF0CF9286
:1034D00061616FD06F8602D641BF82C002DE61BFDC
:1034E00093070040BEC0930700103EDE69B78567B2
:1034F00093870780BEC093070020C5BF1386C7010E
:103500006319C400B717002023A03775F14441495F
:10351000BDBF13860703631AC400B717002023A298
:103520003775F544130900109DB7138647046319D6
:10353000C400B717002023A43775F944056981BF7B
:10354000138687056319C400B717002023A63775B3
:10355000FD4441692DBF1386C706631BC400B7171E
:10356000002023A83775930400023709100005B71F
:1035700013860708631BC400B717002023AA3775FA
:10358000930410023709000119B793874709E31024
:10359000F4F0B717002023AC37759304E003370924
:1035A0000010F5B5EFC2BFF74111AA8405452E847E
:1035B00032C6EFE07FC232462685B285EFE01FC0FB
:1035C000C0C437240140130504408545EFE0EFEF08
:1035D0001305044093050022EFE0DF8205462685AF
:1035E0008945EFE09FBC26858545EFE0DFBA1305EE
:1035F00004408545EFE06FEC854513050440EFE09E
:103600002FF041016FC0FFF339712AD609453ECC36
:1036100006DE16DC1ADA1ED82ED432D236D03ACED6
:1036200042CA46C872C676C47AC27EC0EFE03FBACC
:103630008547631AF500B717002083A7C7738297E1
:103640000545EFE07FB9F250E2525253C253325572
:10365000A255125682567247E2475248C248324E2D
:10366000A24E124F824F21617300203039712AD649
:10367000130500203ECC06DE16DC1ADA1ED82ED446
:1036800032D236D03ACE42CA46C872C676C47AC260
:103690007EC0EFE0DFB38547631BF500B71700205E
:1036A00083A74774829713050010EFE0FFB2F25032
:1036B000E2525253C2533255A255125682567247A5
:1036C000E2475248C248324EA24E124F824F216109
:1036D0007300203039712AD6370502003ECC06DE51
:1036E00016DC1ADA1ED82ED432D236D03ACE42CADE
:1036F00046C872C676C47AC27EC0EFE05FAD854729
:10370000631AF500B717002083A7C7748297416535
:10371000EFE09FACF250E2525253C2533255A255E1
:10372000125682567247E2475248C248324EA24E63
:10373000124F824F21617300203039712AD60965FA
:103740003ECC06DE16DC1ADA1ED82ED432D236D0A3
:103750003ACE42CA46C872C676C47AC27EC0EFE08C
:103760001FA78547631AF500B717002083A7877442
:1037700082970565EFE05FA6F250E2525253C253C2
:103780003255A255125682567247E2475248C248F5
:10379000324EA24E124F824F216173002030397198
:1037A0002AD6370500023ECC06DE16DC1ADA1ED811
:1037B0002ED432D236D03ACE42CA46C872C676C469
:1037C0007AC27EC0EFE0BFA08547631BF500B71744
:1037D000002083A74775829737050001EFE0DF9F40
:1037E000F250E2525253C2533255A25512568256EB
:1037F0007247E2475248C248324EA24E124F824FA1
:10380000216173002030B71700209387877523A0AC
:10381000070023A207008280EFC27FD03717014044
:10382000930607C08547630AD50289476307E50207
:10383000130707408D476302E502372701409306CF
:1038400007809147630BD500930607C09547630631
:10385000D50081476313E500994737170020930689
:10386000877513942700B38786009C43930487755C
:1038700099EFB717014013870780631CE500854562
:103880001145EFE09FF7B3878400054798C36FC0E9
:103890005FCB138707C06315E50085452145D5B784
:1038A0006315F50085454145E9BF938707406316D9
:1038B000F500854513050002E9B7B7270140938756
:1038C0000780E312F5FC8545130500045DBFEFC2D8
:1038D0001FC501112A842EC6EFF01FF4B245C1475F
:1038E0003ECEEC8289474C0822853ECCEFE05F8FCC
:1038F00005616FC01FC5EFC29FC201112A842EC689
:10390000EFF09FF1B2458D472285EC824C083ECC0A
:1039100002CEEFE0FF8C05616FC0BFC2EFC23FC0B7
:1039200001112A842EC6EFF03FEFB24591473ECEFB
:10393000EC828D474C0822853ECCEFE07F8A056102
:103940006FC03FC0EFC21FBC41113284AA84AE8950
:103950003689EFF07FEC09C885450545EFE0FFE9C2
:1039600085452285EFE07F9A8D474C0026852312FE
:1039700031014AC63EC4EFE0BF8641016FC0DFBBE4
:10398000EFC2FFB9EFE07F956FC0BFBBEFC23FB999
:10399000EFE03F966FC0FFBAEFC2DFB637040020FA
:1039A0001309045F83240900BA89054798B09CA0D5
:1039B00096A4D0C4EEA023950400C8B0EF109047A1
:1039C00083270900C8C81D47884BD8CF01469305F7
:1039D0000070EFE0BFB91304045F1C40B70502009C
:1039E000884BEFE0FFBC75F91C408545884BEFE044
:1039F0009FB11C40054693050070884BEFE01FB750
:103A00001C404E86FD558823EF1030451C40AA848B
:103A10000146884B93050070EFE05FB5014591E0EA
:103A20000D456FC07FB1EFC2FFAD37040020130911
:103A3000045F83240900BA89054798B09CA096A426
:103A4000D0C4EEA023950400C8B0EF10B03E832789
:103A50000900C8C80547884BD8CF014693050070B8
:103A6000EFE0DFB01304045F1C40B7050200884B91
:103A7000EFE01FB475F91C408545884BEFE0FFABC4
:103A80001C408545884BEFE01FA81C400546930568
:103A90000070884BEFE09FAD1C404E86FD5588239B
:103AA000EF10B03B1C40AA840146884B9305007080
:103AB000EFE0DFAB854701456383F40011451C400F
:103AC000A38007006FC05FA7EFC27FA53704002067
:103AD0009304045F9C404111D145884B02C6EFE03E
:103AE000FFAB9C40AD46D84F7D1763E5E602A1666B
:103AF0000A0793868623369718431304045F0287C8
:103B0000058909C9CC33884B0146EFE01FA81C404A
:103B10000947D8CF41016FC0DFA2098965DD884B15
:103B2000E145EFE0BFA71C40EE23884BA181FD8952
:103B3000EFE0FFA41C402D47E9BF1375050879D9B4
:103B4000EC23884BEFE0BFA31C400D47D9B713759A
:103B5000050869D1884B8545EFE0FF9A1C40114765
:103B60004DBF058945D9CC33884B0546EFE0FFA111
:103B70001C40154779BF098951DD884BE145EFE0CD
:103B8000FFA11C40194771B71375050441D596274D
:103B9000BA27884BFD16635BD700C0479306170012
:103BA000B6A73A94EFE0FF9D08A0ADB78145EFE0DE
:103BB000DF981C40BA27C447884B93061700B6A766
:103BC000BA94EFE01F9C88A01C40884B8545EFE02D
:103BD0003F9508407C0001470C2148498D46054629
:103BE000EF10D05CB24791C7B7E700E0116723A0A0
:103BF000E7201C4023AE070031BF0589E30C05F028
:103C0000CC33884B0146EFE05F981C40214711B749
:103C10001377054005C3884BB70500109385054011
:103C2000EFE03F9C1C408545884BEFE0DF8D1C405A
:103C30001D47C5B50989E30F05EC884BE145EFE069
:103C4000FF951C40EE23884BA181FD89EFE03F9357
:103C50001C4031477DBD13750508E30D05EAEC23D3
:103C6000884BEFE0DF911C40254765B513750508CB
:103C7000E30205EAB6279A2763FDE600D847884B9A
:103C800036970C23EFE0BF8F18403E2785073EA7ED
:103C900051B52947BDBD1189E30E05E63DB7EFC219
:103CA0007F860111B757004002C402C693870740C0
:103CB0002A84AE8932896316F50A854537052000C6
:103CC000EFE09FB5E1679387076A1307004002CAD8
:103CD00002CC02CE3EC80C0891672285FC83FC868C
:103CE000F885EFE0AFF185452285EFE05F80EFF0EA
:103CF000AFB1B7470000938767A21CD1B747000058
:103D0000B70400209387879923A8A45E5CD1B75796
:103D1000004000C9A3000500938707409384045F17
:103D2000631BF4049307F0025C84280085473EC6B9
:103D3000A304310123052101EFE01F8C9307000349
:103D400028005C84EFE05F8B9C408145884BEFE06E
:103D50007F809C408545884BEFE06FF905616FC01F
:103D6000AFFDB767004093870780E31DF5F48545F5
:103D700037054000B1B7B767004093870780E31568
:103D8000F4FC930710035C84280085473EC6A30417
:103D9000310123052101EFE03F86930720034DB752
:103DA000397106DE16DC1ADA1ED82AD62ED432D2A3
:103DB00036D03ACE3ECC42CA46C872C676C47AC223
:103DC0007EC0EFF07FD0F250E2525253C2533255D0
:103DD000A255125682567247E2475248C248324EA6
:103DE000A24E124F824F216173002030397106DEDE
:103DF00016DC1ADA1ED82AD62ED432D236D03ACED3
:103E00003ECC42CA46C872C676C47AC27EC0EFF0C3
:103E1000BFCBF250E2525253C2533255A255125602
:103E200082567247E2475248C248324EA24E124F63
:103E3000824F216173002030397106DE16DC1ADAF8
:103E40001ED82AD62ED432D236D03ACE3ECC42CA52
:103E500046C872C676C47AC27EC0EFF0FFC6F25082
:103E6000E2525253C2533255A255125682567247ED
:103E7000E2475248C248324EA24E124F824F216151
:103E800073002030397106DE16DC1ADA1ED82AD605
:103E90002ED432D236D03ACE3ECC42CA46C872C6B2
:103EA00076C47AC27EC0EFF03FC2F250E252525363
:103EB000C2533255A255125682567247E2475248B3
:103EC000C248324EA24E124F824F21617300203001
:103ED000EFC24FE34111AA84AE893705001885452A
:103EE000328902C402C6EFE03F930545EFE06FFB65
:103EF000EFE00F930545EFE04FFD0144130AA00FDB
:103F000013051004EFE0FF9809ED6315440141012A
:103F10006FC08FE2050451451374F40FEF20E008E1
:103F2000C5B79307A00FE304F4FE13050010EFE0FC
:103F30004FFC0545EFE0AFFCEFE07F9FEFE03FA0D7
:103F400085450545EFE0DF97EFE07F9EEFE0FF98C6
:103F500021657D15EFE01F9BEFE07F9DEFE01F994E
:103F6000CD475C84280085473EC6A3043101230564
:103F70002101EFE06FE8B707002023AA975E41BF59
:103F800039712AD605453ECC06DE16DC1ADA1ED873
:103F90002ED432D236D03ACE42CA46C872C676C481
:103FA0007AC27EC0EFE03F9D8547631AF500B707F0
:103FB000002083A7475F82970545EFE0DF9DF25021
:103FC000E2525253C2533255A2551256825672478C
:103FD000E2475248C248324EA24E124F824F2161F0
:103FE00073002030EFC2AFD3011102C602C802CA6B
:103FF00002CC231E0100B73701402A842E89B284E7
:104000006313F50685450565EFE02FFF2285EFE098
:104010003F99B7C704013EC681476305090085671C
:1040200093870780FC8023190100231A01000547AC
:10403000930700206383E4008147FC836C009307AF
:10404000800222853ECC231E0100EFE0DF9805466A
:1040500022858945EFE0BF9D85452285EFE09F9B46
:1040600005616FC00FCEB747004093870780E31FFD
:10407000F5F885451165EFE02FFA49BFEFC22FCA69
:1040800093050004EFE07F9C6FC0AFCBEFC22FC958
:1040900093050008EFE0DF9A7D15133515006FC01A
:1040A0004FCA994763E2A704EFC26FC7A16793871E
:1040B00087260A053E951C418545828705651305BF
:1040C0000580EFE08FF36FC0CFC70545EFE0CFF479
:1040D000DDBF0945E5BF1145D5BF2145C5BF4145F8
:1040E000F5B713050002DDB782805D7122DE37145B
:1040F00000402ADC2EDA1305048085453ED286C6B0
:1041000096C49AC29EC032D836D63AD442D046CE51
:1041100072CC76CA7AC87EC6EFE0BFCF8547631CF3
:10412000F500B717002083A7477A829785451305C6
:104130000480EFE09FCF7254B640A64216438643F8
:104140006255D2554256B256225792570258F248FB
:10415000624ED24E424FB24F6161730020305D71AA
:1041600022DE370400402ADC2EDA130504408545A0
:104170003ED286C696C49AC29EC032D836D63AD4AB
:1041800042D046CE72CC76CA7AC87EC6EFE07FC8EF
:104190008547631CF500B717002083A787798297AE
:1041A000854513050440EFE05FC87254B640A6424F
:1041B000164386436255D2554256B25622579257FD
:1041C0000258F248624ED24E424FB24F61617300C4
:1041D000203039712AD62ED43705004085453ECC93
:1041E00006DE16DC1ADA1ED832D236D03ACE42CAF1
:1041F00046C872C676C47AC27EC0EFE09FC18547CA
:10420000631CF500B717002083A7C7788297854500
:1042100037050040EFE07FC1F250E2525253C253E3
:104220003255A255125682567247E2475248C2484A
:10423000324EA24E124F824F216173002030EFC2E6
:104240000FAEA1671317250093874728BA978443B9
:1042500041112A842685EFE01F802685EFE05FB4B8
:104260004800EFE09FAE31453304A402371500202B
:10427000130585774C0022951E217C843E212685DE
:104280007C82EFE0FF8541016FC0AFABEFC22FA989
:10429000011102CC02CE99472A840149814463E688
:1042A000A700B7A44A0493840420228536C632C4EA
:1042B0002EC2EFF01FDF9245B1473307F4022246CA
:1042C000B246B7170020938787772285B3D4B4020C
:1042D000BA9792A394C7A6A3EFF07FF6A16713172E
:1042E000240093874728BA97844385457D14268503
:1042F000EFE0BFB3054685452685EFE05FA9894716
:1043000063E787009387C1823E9403490400854791
:10431000A30CF1008D47230DF100280885473ECE00
:10432000230C2101EFE04FAD85452685EFE05FA32B
:1043300005616FC00FA1EFC2EF9C011102C802CA54
:1043400002CC02CE99472A8A3289B684814963E633
:10435000A700B7A94A0493890920A16713172A0067
:1043600093874728BA9780432EC642092285EFE0FB
:104370008FEE2285EFE0DFA25285EFF09FD2B245AB
:10438000B1473307FA02B71700209387877713598D
:1043900009015285B3D9B902BA97239027011309AD
:1043A00089F323913701EFF09FE9C16793870706EF
:1043B0003EC8231B2101231C010093F7140089CB65
:1043C0000C082285EFE06FF881452285EFE0FF9F22
:1043D00093F7240089CB0C082285EFE0AFFD8145DF
:1043E0002285EFE07F9F93F7440089CB0C0822855C
:1043F000EFE0BF8581452285EFE07F9FA18889C8D6
:104400000C082285EFE0BF8D81452285EFE01F9FDC
:1044100022858545EFE0DF9922858545EFE0DF9530
:1044200085452285EFE0DF9305616FC0EF908280C4
:10443000B7070020938787609843636FA702D04334
:10444000B386C7006316D50054413E85B296D4C3E7
:104450005041B306C500631CD700B706002083A6F1
:10446000865F6306D70054431843B29654C118C1FF
:104470006303F50088C38280BA877DBF5DC1EFC248
:104480000F8AB7070020032745FF83A7C75F2A8449
:10449000B376F7009DE289679387078073900730B2
:1044A00037860000378500001306862993054012E1
:1044B0001305052CEF20703101A0832605FF9DC256
:1044C00089679387078073900730378600003785A8
:1044D000000013068629930550121305052CEF20C2
:1044E000D02E01A093C7F7FFF98F232AF5FEEF0026
:1044F000B029B7070020938707609443032744FF40
:10450000130504FF369798C3EFF09FF2B70700201A
:10451000938747609843050798C3EF0050436FC0E7
:104520004F828280B7E700E041572387E740238628
:10453000E740B7F700E023A0070023A20700814669
:1045400094C70147D8C737070020832507581307AA
:10455000803E814633D6E5023D4790CBD4CB98C30D
:104560008280EFB2DFFB411102C6F32750303EC616
:10457000B2470D478D8B6384E70289679387078075
:104580007390073037860000378500001306462EEB
:104590009305600B1305052CEF20302301A0B757BE
:1045A000002093870700BD8B9DC389679387078091
:1045B0007390073037860000378500001306462EBB
:1045C0009305B00B1305052CEF20302001A0EFF070
:1045D0007FF5B7E700E0116723A0E710056723A088
:1045E000E71023A40180EFB0BFD1014541016FB0B6
:1045F0005FF5397106DE16DC1ADA1ED82AD62ED4FB
:1046000032D236D03ACE3ECC42CA46C872C676C402
:104610007AC27EC0731101348967938707807390D3
:104620000730B7F700E023A20700EF00901711C58D
:10463000B7E700E0116723A0E720896793878788A1
:104640007390073073110134F250E2525253C25347
:104650003255A255125682567247E2475248C24816
:10466000324EA24E124F824F216173002030896773
:10467000938707807390073093878180984305075D
:1046800098C38280138781801C438DE7EFB23FE996
:1046900089679387078073900730378600003785D6
:1046A00000001306462E930530101305052CEF204D
:1046B000D01101A0FD171CC391E7896793878788F4
:1046C00073900730828009651305058073150530E6
:1046D0008280731005308280930785007D575CC10E
:1046E00018C55CC51CC9232005008280232805004D
:1046F00082809841FD5693078500631ED7001C49B0
:10470000D843D8C10CC79CC5CCC31C4188C98507F8
:104710001CC18280B687D4439042E37DC7FECDB7EB
:10472000544118451C4998C654C3D4436393A6000A
:10473000D8C39843232805007D1798C388438280F7
:10474000EFB2FFDD41112AC6EFF07FF23245005D86
:10475000EFF05FF31335140041016FB09FDE30417D
:1047600015C2EFB2DFDB58451445AA87329758C50A
:104770006364D700184158C52E85CC47EF20806070
:104780006FB03FDC8280EFB29FD92A84EFF03FEE1A
:104790008344540413094402E204E1846348900210
:1047A000FD57A302F404EFF0FFEDEFF05FEC83445C
:1047B000440413090401E204E18463459002FD57B7
:1047C0002302F404EFF01FEC6FB0BFD75C50E9DBBD
:1047D0004A85EF00304A19C1EF001065FD14E2046C
:1047E000E1846DBF1C48E1DF4A85EF00B04819C184
:1047F000EF009063FD14E204E184C1B7EFB23FD251
:1048000041111DE1896793870780739007303786D0
:104810000000378500001306C6309305001113050C
:10482000052CEF20807A01A05C5D2EC62A84BDC7CE
:104830003841B3B7E702BDE3EFF07FE33040585CA7
:104840001440232C0402B307E602B24554C0338758
:10485000F600918FB6975CC4FD572302F40418C488
:10486000A302F4049DE11C4899CB13050401EF0059
:10487000704011C5B7E700E0116723A0E720EFF013
:104880007FE0054541016FB0DFCB13050401EFF078
:10489000BFE413054402EFF03FE4D5B7896793877F
:1048A00007807390073037860000378500001306B5
:1048B000C630930550141305052CEF20007101A09C
:1048C000EFB2FFC501119DE289679387078073905E
:1048D000073037860000378500001306C630930581
:1048E00090151305052CEF20406E01A019C105C6D7
:1048F00085E58967938707807390073037860000C6
:10490000378500001306C630930520181305052CC3
:10491000EF20A06B01A0F1FD930780043ECE72470B
:104920006304F7028967938707807390073037869F
:104930000000378500001306C6309305B016130536
:10494000052CEF20806801A0F24785472383F604F9
:1049500091E1368690C2C8DEACC23685854536C642
:10496000EFF0DFE9B246056136856FB09FBDEFB26B
:104970009FB8011132C61DE1896793870780739044
:10498000073037860000378500001306C6309305D0
:1049900010551305052CEF20406301A02A84AE8931
:1049A0008DE53C419DC389679387078073900730ED
:1049B00037860000378500001306C6309305505532
:1049C0001305052CEF20606001A0EF00504715E5AE
:1049D000B247014985C7896793870780739007307D
:1049E00037860000378500001306C6309305A055B2
:1049F0001305052CEF20605D01A001497D5A930A43
:104A0000440237EB00E0916B8DA8B24789E7EFF0E5
:104A10007FC7014561A8631509002808EF005034DD
:104A2000EFF05FC69523EFF09FC483474404E2078D
:104A3000E187639447012302040483475404E20797
:104A4000E18763944701A3020404EFF0BFC36C0045
:104A50002808EF0050323DE12285EFF07FCE31C9CA
:104A6000B2455685EF0030152285EFF0DFD1EF001B
:104A7000006E19E123207B210549EFF05FBF045C44
:104A8000C9D4CE852285FD14EFF07FCD04DC1C480F
:104A900099CB13050401EF00F01D11C5B7E700E045
:104AA000116723A0E720EFF0FFBD054505616FB05A
:104AB0001FA82285EFF03FCD592D7DBF2285EFF055
:104AC0009FCC71252285EFF0BFC75DD599B715E55D
:104AD000EFB2FFA48967938707807390073037860A
:104AE00000008565378500001306C630938585ACC8
:104AF0001305052CEF20604D01A09DCD3716002039
:104B00009306467B814701471306467B214883A8CD
:104B100046006398A80093173700B2978CC3C8C3A8
:104B200021A891E783A8060063930800B6870507CC
:104B3000A106E31E07FDFDF38280EFB25F9E4111E7
:104B40002A842EC632C4EFF09FB2834744047D57B7
:104B50002246E207E187B2456394E700230204049A
:104B6000834754047D57E207E1876394E700A3027B
:104B7000040432C62EC4EFF0FFB01C5CA2453246DE
:104B800089E713054402EF0090072285EFF0BFBFCD
:104B900041016FB01F9B01A0EFB2DF962A84EFF0B6
:104BA0001FADB70700209387C7619843B704002063
:104BB000B7190020050798C313870461184393842D
:104BC00004611389497F61EB80C098438547631076
:104BD000F7069389497F130AC9124E85D109EFF070
:104BE000BFAFE31C3AFF37250020130A05921305D7
:104BF0000592EFF07FAE372500209309459313050A
:104C00004593EFF07FAD3725002013058594EFF035
:104C1000BFAC372500201305C595EFF0FFABB707F4
:104C2000002023AA4761B707002023AC3761B707EC
:104C30000020938747629843050798C337070020F1
:104C4000130787625C54144363F3F6001CC3514797
:104C5000B387E702CA97D843144718C454C410470F
:104C60009306440054C214C798435CC8050798C310
:104C7000EFF05FA1B707002083A7876399CB9C4023
:104C8000D8575C546377F700B7E700E0116723A0BB
:104C9000E7206FB07F8AB707002083A78763C1FB37
:104CA0009C40D8575C54E3E4E7F880C049B7370725
:104CB0000020130747611C439443B70700209387E4
:104CC000C76281E67D5798C38280184358471843CE
:104CD000DDBFEFB23F834111AA89B2844284032928
:104CE0000803B1C5014641483385C50003050500E9
:104CF000B308C400238AA80201C50506E31606FF0F
:104D0000A301040439466377E60289679387078025
:104D1000739007303786000037850000130686340D
:104D2000930570391305052CEF20202A01A0230AD2
:104D30000802C9BF58D478C01305440023240404D2
:104D40003EC636C43AC2EFF07F9A13058401EFF0F5
:104D5000FF9912473D4681453307E64018CC31465E
:104D600000C840D01305C404EFB06FFEA2461395EF
:104D7000240071154A95230C0404A30C0404230D8C
:104D800004043686CE854199EFB08FE7B24708C05C
:104D900091C380C341016FB02FFAEFB2AFF6B704F1
:104DA0000020B70700201389046183A9C7632A8400
:104DB0000325090041112EC61105EFF07F967D579E
:104DC00093870461B2456311E4049DCDB7270020A9
:104DD0009387C79583260900D84398C61047832632
:104DE0000900D0C6832609001047910654C28326C5
:104DF0000900910614C7032709005CCB98430507F7
:104E000098C341016FB04FF398434E9440C3637B06
:104E1000340137070020032587618C439105EFF0AB
:104E20005F8DC5B737070020032547618C43910587
:104E3000EFF03F8CB70700209387C7629843E37277
:104E4000E4FC80C37DBFEFB28FED41119DE3896724
:104E500093870780739007303786000037850000FE
:104E6000130686349305A0241305052CEF20E015C6
:104E700001A04284631408028967938707807390B6
:104E80000730378600003785000013068634930507
:104E9000B0241305052CEF20401301A09308C00592
:104EA00046C6324363041303896793870780739070
:104EB00007303786000037850000130686349305D7
:104EC00030251305052CEF20401001A0B2482328FF
:104ED000F8028947A30DF8043C00EFF09FDF22851C
:104EE000EFF09FCB224541016FB0AFE5EFB22FE36A
:104EF000411170002C00480002C202C4EFC0DFB6AE
:104F00001248A2473246B7850000375500000147D6
:104F100081469385C535130565B9EFF0DFF215C9F4
:104F2000EF00307B8547631BF50289679387078015
:104F300073900730B70700207D5723A6E762B707B5
:104F4000002023ACA762B707002023AE0762EFF072
:104F50004FE183A7C18041016FB0AFDEFD57E31A77
:104F6000F5FE8967938707807390073037860000C6
:104F700085653785000013068634938505841305FF
:104F8000052CEF20800401A0B7070020938707625B
:104F90009843050798C38280B707002003A5C7631D
:104FA0008280B707002083A7076263990718EFB2D2
:104FB0000FD7B70700209387C7638043050480C3DA
:104FC00021ECB7070020938747619843184305C732
:104FD000896793870780739007303786000085655F
:104FE0003785000013068634938575AC1305052CB0
:104FF000EF10B07D01A037070020130787619443AD
:10500000104390C3B707002014C3938707639843E6
:10501000050798C3EFF0BFC9370600209307C662A3
:105020009C4337170020B70500201306C6621307FC
:10503000477F9385056101456375F4029C41D14624
:10504000DC57B387D7023E971843854763F3E700E1
:105050000545B707002083A7076491C305456FB0D6
:105060004FCE370E0020B70E0020514F93074E61F0
:105070009443944281E6FD571CC2C9B79C43DC4768
:10508000DC47D4436374D40014C24DBF83A88700A7
:1050900003A8C700D44B1383470023A4080123228D
:1050A000180183A846006394680023A2060103A8A0
:1050B000060023AA07007D1823A00601945795CA6D
:1050C00003A8C70183A8070283AF46002324180161
:1050D00083A8070223A208011388870163940F01A4
:1050E00023A2160103A8060023A407027D1823A00B
:1050F000060193868E6203A8C70283A8060063F4A4
:10510000080123A00601B306E803BA9683A8460067
:1051100083AF880023A4170123A6F70183AF88007B
:1051200023A26F0023A46800D4CB9C4285079CC2B5
:105130009C41DC57E36CF8F205450DBFB707002032
:105140009387476398430145050798C38280EFB270
:105150006FBB37040020130404621C40411185E733
:1051600089679387078073900730378600008565CD
:1051700037850000130686349385358B1305052C7F
:10518000EF10B06401A0EFF08FCE1C40FD171CC0E3
:105190001C4089CB01452AC6EFF0CFCE32454101F4
:1051A0006FB08FB9B707002083A7C761E5D7B726CF
:1051B000002037150020814793868694370F002002
:1051C0001305457FD14837030020370E0020854E58
:1051D00059A8DC46DC47CC4F9053985790C503A89C
:1051E00007022322B8000328470093858701631331
:1051F000B80050C3104323A407027D1610C38C4788
:10520000D047D84B1388470090C54CC24C4363939A
:10521000050150C3104323AA07007D1610C31307CE
:105220008F62D0570C4363F3C50010C333071603D6
:105230002A974C4383AF85008CC723A6F70183AF21
:10524000850023A20F0123A405010C43D8CB8505BB
:105250000CC313070361184358576366E60013072E
:105260000E642320D70198422DF799C3EFF03FA495
:10527000B70700201387476304431384476399CC1F
:10528000370900208549EFF0DFD109C5930709648C
:1052900023A03701FD14E5F823200400B707002000
:1052A00083A70764E38807EEB7E700E0116723A050
:1052B000E7200545CDB519E5B7E700E0116723A064
:1052C000E7208280EFB2AFA5B707002083A707626F
:1052D00041119DC389679387078073900730378694
:1052E000000037850000130686349305905413059B
:1052F000052CEF10904D01A02AC6EFF0FFC83245F3
:105300008145EFF09FA9EFF09FE411E5B7E700E0DA
:10531000116723A0E72041016FB0AFA2B7070020BB
:1053200003A70762B70700209387076401C70547F3
:1053300098C3828023A00700B707002013878762E5
:10534000184313868762B71700209387477F514819
:10535000B3060703B385D700884115C5C841A10628
:10536000BE964841C8C16314D5005441D4C1D1464A
:10537000B306D702B697DC43D447B707002023A86B
:10538000D76018C2828015E7EFB26F99896793875B
:1053900007807390073037860000856537850000E9
:1053A00013068634938525C01305052CEF10F041B4
:1053B00001A07D1771BFEFB28F9605E589679387CE
:1053C00007807390073037860000856537850000B9
:1053D000130686349385C5C11305052CEF10F03EE6
:1053E00001A0B70700202E8483A50761E105EFF037
:1053F0004FB085452285EFF05F9A6FB08F94EFB282
:105400000F922A8705E58967938707807390073095
:10541000378600008565378500001306863493853E
:1054200025C51305052CEF10503A01A0B707002041
:105430009387076154432E858C4303A88600D4CDFF
:105440008C4323A0050303A807008C46610823A210
:10545000050103A807009C43610823A4060198D70F
:105460001C4385071CC311C27D55B285EFF0FF9226
:105470006FB02F8D5C45DC4795E7EFB24F8A8967A7
:1054800093870780739007303786000085653785DE
:10549000000013068634938525C81305052CEF10EC
:1054A000D03201A0D04F945398579385870114C6EA
:1054B000D0C250436313B60054C3144323A407025D
:1054C000FD1614C33707002003270762D45725EFC2
:1054D0008C47D047D84B90C5D04748434CC29385A2
:1054E00047006313B50050C3104323AA07007D167D
:1054F00010C3370700201307876210436373D60079
:1055000014C351473386E602371700201307477F3D
:1055100032975043084690C7C8C708464CC10CC6CE
:10552000D8CB1C43014585071CC3B707002083A7C0
:105530000761DC5763F8D700B7070020054723A0B1
:10554000E76405458280372700201307879450437E
:105550000846D0CF88D308464CC10CC698D7D1B7DF
:10556000B707002083A707631CC1B707002083A7E4
:10557000C7635CC18280EFA29FFA411105E589678C
:1055800093870780739007303786000085653785DD
:105590000000130686349385D5CF1305052CEF1034
:1055A000D02201A085E58967938707807390073033
:1055B000378600008565378500001306863493859D
:1055C000E5CF1305052CEF10502001A02EC62AC4EC
:1055D000EFF0EF89B245B707002083A6C7639C416F
:1055E0007D5701446381E7022245370600200326E8
:1055F0000663032805005841630DC80063EBE6000D
:1056000023A005000544EFF0EF87228541016FA03C
:105610005FF33386E640E375F6FE958FBA979CC13B
:10562000EFF01FF40144C5B7B7070020054723A0DA
:10563000E7648280B707002003A507618280B7076F
:10564000002083A78763054581CBB707002003A50A
:1056500007621335150006058280EFA2BFEA89476D
:10566000411163F5A702896793870780739007301C
:1056700037860000856537850000130686349385DC
:1056800065261305052CEF10501401A02A89370454
:105690000020AE8932C6EFE09FFD930704619C4372
:1056A0009304090113972400BA97DC47130404619B
:1056B0008DE31C4032460547CA97238CE70411CA84
:1056C00085453285EFF06FEDB7E700E0116723A065
:1056D000E720EFE03FFBEFE09FF9184093972400AD
:1056E0003E97484719C5184063800902BA9723A618
:1056F00007001C402AC63E99230C0904EFE09FF8DE
:10570000324541016FA05FE39306F5FFBA97D4C716
:10571000CDB7EFA23FDF094A41116375AA0289673D
:10572000938707807390073037860000856537853B
:105730000000130686349385052B1305052CEF1006
:10574000D00801A0AA84370400203289B6893AC65D
:105750002EC4EFE0DFF1930704619C43130404615E
:10576000A69783C78705630CFA021C409396240012
:10577000A245B697F44793C5F5FF3247F58DECC7C0
:105780001C408546A697238CD70411CB3A858545C6
:10579000EFF0AFE0B7E700E0116723A0E720EFE00C
:1057A0007FEEEFE0DFEC638A09001C401387040101
:1057B0000A07BA97DC4723A0F9001C4009470145B6
:1057C000A69783C78705631EF7001C401397240024
:1057D0001349F9FFBA97F84705453379E90023A63D
:1057E00027051C402AC4BE94238C0404EFE09FE9E3
:1057F000224541016FA05FD4EFA27FD289470111FA
:1058000063F5B702896793870780739007303786FF
:105810000000856537850000130686349385853042
:105820001305052CEF10607A01A005E589679387C1
:105830000780739007303786000085653785000044
:1058400013068634938595301305052CEF10E07709
:1058500001A03ACE36CC32CA2EC82AC6EFE03FE1CC
:1058600072473245C2455246E24619C79387050141
:105870008A07AA97DC471CC33307B500834787050F
:105880000948230C0705114793F7F70F6367D704FF
:105890002167130707328A06BA96984202878A055B
:1058A000AA95F845598EF0C505476380E70605457A
:1058B0002AC6EFE03FDD324505616FA09FC88A052B
:1058C000AA95F8450507F8C5C5B70947638EE70CE3
:1058D000C1058A05AA95D0C5C1BF37070020032797
:1058E000C76379D3896793870780739007303786BA
:1058F0000000856537850000130686349385E533FF
:105900001305052CEF10606C01A0144558455C4947
:105910001306450098C6584554C3D4436393C60044
:10592000D8C39843232A05007D1798C3B7070020E2
:10593000938787625855944363F3E60098C3D14731
:10594000B306F702B71700209387477FB697D44373
:105950008C4614C54CC58C46D0C190C694435CC9D6
:10596000850694C31C5585C7896793870780739004
:1059700007303786000085653785000013068634BA
:105980009385D5341305052CEF10206401A0B707CB
:10599000002083A70761DC57E3FBE7F0B7E700E0EF
:1059A000116723A0E72021B7014519B7EFA23FB740
:1059B000011105E589679387078073900730378663
:1059C00000008565378500001306863493855538B9
:1059D0001305052CEF10605F01A02A84094563754B
:1059E000B502896793870780739007303786000078
:1059F0008565378500001306863493856538130561
:105A0000052CEF10805C01A03ECE3ACC36CA32C8DD
:105A10002EC6EFE05FCB6247B2454246D246F24720
:105A200009CB138805010A0822980328C8002320FF
:105A300007013308B400034788058948230C18057B
:105A400011481377F70F6366D80421688A06130894
:105A50004833C296944282868A05A295F445558EB3
:105A6000F0C58546630FD7040544EFE09FC6228545
:105A700005616FA01FAD8A05A295F4458506F4C5A2
:105A8000CDB78946630CD710C1058A05A295D0C54C
:105A9000C9BFB706002083A6C663E1D6896793878E
:105AA00007807390073037860000856537850000D2
:105AB000130686349385D53C1305052CEF10E05072
:105AC00001A0185405C78967938707807390073032
:105AD0003786000085653785000013068634938578
:105AE000853D1305052CEF10404E01A0370700201F
:105AF00003270762505451E30C445444584894C55A
:105B0000544403284700CCC2930544006313B800F3
:105B100054C31443232A0400FD1614C3370700207E
:105B200013078762144363F3C60010C35147B306DB
:105B3000E602371700201307477F3697544303A820
:105B4000860014C42326040103A886002322B8007B
:105B50008CC658C81443850614C337070020032792
:105B600007615857E372C7F099C3054798C3B70751
:105B70000020054723A0E764C5BD37270020130791
:105B8000879454438C4654CC0CD003A886009305CC
:105B900084012322B8008CC618D46DBF0144F1B52E
