:100000006F30403D1300000013000000130000009B
:100010001300000013000000130000001300000094
:100020001300000013000000130000001300000084
:08003000130000007300100032
:1000380000000000000000002E0E0000300E00003E
:10004800000000006C330000000000000000000009
:100058006E33000070330000000000000000000054
:10006800685B0000000000000002000000000000C3
:1000780076330000783300007A3300009453000090
:100088007E33000080330000823300008433000098
:1000980086330000883300008A330000364A0000A7
:1000A8008E330000844A0000D24A0000204B000032
:1000B800963300006E4B00009A3300005E47000044
:1000C800BE4700001C4800007A480000A433000026
:1000D800A6330000A8330000AA330000AC330000A8
:1000E800AE330000B03300009E5400000E520000F2
:1000F8005A520000B8330000BA330000BC33000085
:10010800BE330000C0330000C2330000C433000017
:10011800C6330000C8330000CA330000CC330000E7
:10012800CE330000D0330000D233000000000000BE
:080138000000000000000000BF
:10020000130181F806C216C41AC61EC822CA26CC1B
:100210002ACE2ED032D236D43AD63ED842DA46DC76
:100220004ADECEC0D2C2D6C4DAC6DEC8E2CAE6CC46
:10023000EACEEED0F2D2F6D4FAD6FED8F3220030CF
:1002400096DA83A2819023A02200F32510342EC0D9
:1002500003A14186EF60102903A3819003210300CD
:10026000824273901234D652739002309240A2426E
:100270003243C2435244E244724582551256A2565A
:100280003257C2575258E25872598649164AA64AFE
:10029000364BC64B564CE64C764D865D165EA65EDA
:1002A000365FC65F13018107730020301300000022
:1002B00013000000130000001300000013000000F2
:1002C00013000000130000001300000013000000E2
:1002D00013000000130000001300000013000000D2
:1002E00013000000130000001300000013000000C2
:1002F00013000000130000001300000013000000B2
:1003000083A24186938202E07390023403A181901C
:10031000024182403243C2435244E2447245825514
:100320001256A2563257C2575258E258725986494D
:10033000164AA64A364BC64B564CE64C764D865D61
:10034000165EA65E365FC65FD652A102739002307B
:10035000A2421301810782801300000013000000F5
:100360001300000013000000130000001300000041
:100370001300000013000000130000001300000031
:100380001300000013000000130000001300000021
:100390001300000013000000130000001300000011
:1003A0001300000013000000130000001300000001
:1003B00013000000130000001300000013000000F1
:1003C00013000000130000001300000013000000E1
:1003D00013000000130000001300000013000000D1
:1003E00013000000130000001300000013000000C1
:1003F00013000000130000001300000013000000B1
:10040000F322003093F272FF130380181203B3E259
:100410006200711523205500130585FA10C12115BE
:10042000232005009302000063870200711523203A
:100430000500FD12D5BF71150CC1828000000000BF
:1004400000000000000000000000000000000000AC
:10045000000000000000000000000000000000009C
:10046000000000000000000000000000000000008C
:10047000000000000000000000000000000000007C
:10048000000000000000000000000000000000006C
:10049000000000000000000000000000000000005C
:1004A000000000000000000000000000000000004C
:1004B000000000000000000000000000000000003C
:1004C000000000000000000000000000000000002C
:1004D000000000000000000000000000000000001C
:1004E0000000000000000000000000000000397162
:1004F00001436EC619A0397141536AC866CA62CCFD
:100500005ECE19A0397101535AD056D252D44ED66C
:100510004AD826DA22DC06DE3301614082824111AC
:100520004AC026C222C406C68282B24D4101024D93
:10053000924C224CB24B4101024B924A224AB249A0
:100540004101024992442244B240410182803D432C
:100550002A876373C3029377F700BDEFADE5937607
:1005600006FF3D8ABA960CC34CC30CC74CC7410763
:10057000E36BD7FE11E28280B306C3408A0697027E
:10058000000096966780A6002307B700A306B70071
:100590002306B700A305B7002305B700A304B700DF
:1005A0002304B700A303B7002303B700A302B700D7
:1005B0002302B700A301B7002301B700A300B700CF
:1005C0002300B700828093F5F50F93968500D58DB3
:1005D00093960501D58D61B7939627009702000089
:1005E00096968682E78086FA9680C1171D8F3E9682
:1005F000E374C3F8A5B7370500201305C5628280F0
:1006000037050020130585628280B707002023A8E4
:10061000A7628280EFF23FEEB70500203971938523
:100620004562014537040020EF9030302320A4625A
:100630001304046219E1EF10F0791C403707002021
:1006400003270763DC4398C3EF704042EF70004517
:10065000EF00A0702313A10202D6EF0000731C402C
:10066000A302A102DC43884323AA0700EF70E04500
:100670001C40C843EF7020590840035661025C419A
:100680008C43EF90B03A19C1EF10D074B707002037
:100690009387074098530840930661023AD8D8538D
:1006A000130651020C183ADA9857DC573ADC3EDE52
:1006B000EF90303B19C1EF10F07183A6C18103495F
:1006C0005102032A040036CEEF00C06B9307401F8F
:1006D0003EC0F24689679309C102C507C98F4EC65D
:1006E0004AC402C29308803E1308401F01470146D6
:1006F00081455285EF90103A11C5B5576304F50056
:10070000EF10506D084003A6C1814E874C49CA8640
:10071000EF90D04319C1EF10F06B1C409C4399C37C
:10072000EF10506B1C40B70400208969C843130ABE
:10073000803EEF70803A23AA0462EF70A037EF602A
:1007400060272A8902D493844463938909719C4069
:1007500089CBB707EFBE37E700E0938707083CC7B0
:10076000FDBFA25503A54194B3D54503EF50903A80
:10077000EF70C0324ED4EF60E023330625413306DC
:100780004603AA8A0840341081455689EF90B04A42
:1007900088C003A58194814601468145EF505004ED
:1007A000EF7040316DB7EFF2FFD54111EF70002FC0
:1007B000EF60402089692A8402C6130A803E93892B
:1007C0000971370B0020EF70E02EB24503A581942C
:1007D00013090B62B3D54503A284EF50B033EF7019
:1007E000E02B832709004EC695CFDC43DC4B9DCB25
:1007F000EF60401CAA84032509001C4185E75C4189
:10080000DC4B8DC33384844033044403740081453E
:100810002286EF90304A0325090074002286814524
:10082000EF90504D268445B73705002013058563AA
:100830008280EFF2DFCE3704002013048463084087
:100840004111EF50B04B11CD08407D566C00EF5078
:10085000F01828871086938581958946AA95EF30F0
:10086000900B4101F9B9938781953E9593D7850007
:100870000CA11CB193D70501E1813CA12CB1828070
:10088000938781953E950CA1A1810CB182809387BD
:1008900081953E950CA18280EFF27FC8AE8693854C
:1008A00081950946AA95EF30100761B99387819524
:1008B000AA97983388232207598D82809387819540
:1008C000AA979833A82322074205498F8823498F86
:1008D000A8336205598D8280EFF2DFC20111130641
:1008E00060228145138581959D318946130600213B
:1008F000938581950145EF30300B631105321384E8
:1009000081951820930770076308F72E9387C1839A
:100910009843DE23B706000118C05EA09947A30FD5
:10092000F408B7270001938707402320F40AB7276C
:100930000006938707402322F40A896737070003DC
:1009400093870740930507102314F40A9307400286
:100950007CB44CD4B7070005B70500781CC86CC43C
:10096000B70700242CD0B74505015CC893855560B6
:1009700093070050138606101CCC6CD09307001010
:100980002965B785050054CC1CD054D01CD874C838
:100990007CCC2305040A10D4232A0402232C04024D
:1009A000232E040223200404232204042324040409
:1009B00028C830CC938505802CD47CD82316F40A23
:1009C000231CF40AD14738DC2307F40C1307072053
:1009D000E14778DCA301F40C3707001AB7070015CC
:1009E00089072322E40837F70301130747802322EE
:1009F000F40CB7170503938717202324E40837273F
:100A00000400130707A02324F40C93073051232676
:100A1000E4082316F40C3707000291472328E40862
:100A2000A307F40C13070720856774D4232AE4086E
:100A300093060020054793873740B56930D82320B7
:100A4000D408232CD408231E0408230F0408A3056C
:100A5000E40A2307040AA30BE40A230D040A23185B
:100A6000F40C9389C9809304200D130A400E83D59A
:100A7000090026858904C204C18019358909E398D3
:100A800044FFDD47856529457CA4F13BB7970112FA
:100A9000C9072322F40E930700192314F40EB16939
:100AA00091472305F40E9389497B9304D00E130BD1
:100AB000501383DA090026859109D685D13303DAEC
:100AC000E9FF138524004205D2854181553B1385FA
:100AD00004054205D68541816533138524059104BB
:100AE0004205C204D2854181C180593BE39364FD34
:100AF00081451305D018693381451305F018493332
:100B0000D14513051019AD3BE545130530198D3B53
:100B1000E54513055019AD339305200313057019EE
:100B20008533F94513059019A13B9305700813050A
:100B3000B019B93393078002A30EF41CB705003E29
:100B40008567938707A0D5051305501E231FF41C46
:100B50002300041E093BB7050076ED051305901E22
:100B60001933B7053F78CD051305D01EED39B7050C
:100B70000071D1051305101FFD31B7057978C9053E
:100B80001305501FCD31B7057350D9051305101E3D
:100B9000D939B705006DDD051305901FE931B7059B
:100BA000003FE9051305D01F7D39F14513051020DD
:100BB0005D398145130550207D319D478946A30449
:100BC000F42013060021954793858195014523154F
:100BD000F420EF30405413060021814513858195A0
:100BE000BD322945EF60E00989461306002193854F
:100BF00081950145EF30405B138A418381490D4B5C
:100C0000834A440E4E85FD1A93F5FA0FEF30C00962
:100C100059C185090D04090AE39469FFB70700204B
:100C2000239E0762056109BA03550A0013160901DC
:100C3000418293142600AA94C204C180268532C63C
:100C4000B53142054185EFA0C06E2AC81385240046
:100C500042054181A139EFA0207A2ACA13854400B8
:100C600042054181A13142054185EFA0806C2ACC2B
:100C700013856400420541811539EFA0E0773246C3
:100C80002ACE0C084E850509EF30200D1379F90F97
:100C9000E34C59F9BDBF0149E5BF938781953E9566
:100CA00008218280EFF2BF8741112A842800B28494
:100CB000EFA0B0098947638FF40291476380F40481
:100CC00085476397F400188493878195A29798A32A
:100CD0009307F02063ED8700B707002003A5876323
:100CE00081467D566C0060874486EF50602F41013D
:100CF0006FF03F852C8422856136D9BFA2452285BD
:100D00009D36F9B7EFF2BF8141112A846800B284A1
:100D1000EFA0B0038947638AF4029147638BF40222
:100D200085476397F400188693878195A29798A3C7
:100D30009307F02063E88700894626866C002285A9
:100D4000EF30603D41016FF0CFFF2C8622850D3ED4
:100D5000C5B7B2452285013EE1BFEFF24FFC8945A0
:100D60000545EF30A04721479307401F6369A7005F
:100D70009317150031651305C57F3E951E213E85ED
:100D80006FF02FFC13050010828003C5C19582808F
:100D9000EFF2EFF8370400201304C4631E2013079A
:100DA00070168507C207C1831EA0637AF700194534
:100DB00031369305150019457D342310040029456B
:100DC000F53CAA8403C561968145D928EFA06056F9
:100DD000B7D7000083A50782EF90702CB7D700002B
:100DE00083A54782EF90B02B2A842685EFA0C060B0
:100DF000AA852285EF900074EFA0404EAA85294570
:100E00009D346FF00FF4EFF28FF121469385E19559
:100E10001945EF3040286FF0CFF2EFF24FF029453F
:100E2000713C930740063355F5026FF08FF101A036
:100E300001A0EFF2CFEE01112E84AA85194542C61A
:100E40003EC83ACA36CC32CEEF104040A285154596
:100E5000EF10C03F72461145B285EF10203FE246C9
:100E60000D45B685EF10803E52470945BA85EF1013
:100E7000E03DC2470545BE85EF10403D3248014583
:100E8000C285EF10A03C05616FF0AFEB3705002085
:100E90001305C5648280B707002023A0A764828061
:100EA000EFF2EFE79307F5FF7147636FF7103567D0
:100EB0008A0713078782BA979C432E898287130576
:100EC000152142054181D13B2A8422856FF06FE7CD
:100ED0001305152142054181EFF05F9DF5B73915E6
:100EE0009374F50F2685EF00F077AA852685EF200D
:100EF0007051B7D7000083A50782EF909056EFA0FE
:100F0000C0372A84E30309FC0D453385A402130589
:100F1000550EEFF0BF992A944DBF0D45EF00907428
:100F2000B7D7000083A50782EF90B053EFA0E0345D
:100F300061BF0145EF20B07DAA841305D01DEFF0FD
:100F4000FF96EFA0604BB7D7000083A5078FEF9007
:100F500010152A842685EFA0C03DAA852285EF9032
:100F60005050EFA0A037EFA020495DBF0545EF200E
:100F7000107AAA841305F01DD9B70945EF20B0698E
:100F8000A1B7613D91B71945EFF05F9335BFB70742
:100F9000002003A4076415BF1305C020EFF01F92C3
:100FA00013548540930740061374F40F3304F4027E
:100FB0009377F50F41851375F50F3E9489679387F5
:100FC00007713305F50281BF014401B7138701BAE8
:100FD00083468702938701BA1396260032971043FF
:100FE0007147631EE60203C7970315CBC85B05C9AB
:100FF00003C7170309C7A38C0702A388070203C707
:10100000970393080002054805071377F70F9375B8
:10101000F70F63F5B802A38C0702A38807021387B2
:10102000160083C687031377F70F2384E7026364F0
:10103000D7002384070223A6070282803316E80024
:10104000698E050769D6A38CB7028280938701BA9F
:1010500003C7970223A607022384E7028280EFF2E8
:101060000FCC938501BA83C7850205469385950207
:101070009CA11305902079316FF0AFCC03C581BCE2
:101080008280A94763E6A7002384A1BC0145828032
:1010900005458280A94763E1A702EFF24FC8938517
:1010A00001BAA384A50205469385950213059020F5
:1010B000D53E01456FF0EFC805458280938701BAA0
:1010C00083C6870203C797026385E60203C7170337
:1010D0000DE3D8573A95C8D783C7A7021307803EB8
:1010E000B387E7026367F500EFF26FC385376FF0F0
:1010F0004FC5828001C9F147630AF500A147014548
:1011000063F5B700238CB1BC054582802388B1BC50
:1011100001458280EFF20FBF138501B8EF60607266
:1011200013059020938401BA8D3EA384A402130575
:10113000A020EFF09FB683C794022385A402238CDE
:1011400004022384F402138901BA8144138401BA8E
:10115000054AA949139524001305151E420541812E
:10116000EFF0CFF52320A90093F5F40F1375F50FD9
:1011700051376306450185041109E39D34FD232A97
:101180000402A30C0402232E0402230004046FF0C3
:10119000AFBA138701BA5C5FA9C3834707049306FC
:1011A0008002850793F7F70F2300F70463F5F60035
:1011B00023000704828055476371F702EFF22FB6D0
:1011C00001449D442285050481451374F40FEF10FA
:1011D000E007E31994FE6FF0CFB68280138701BA5F
:1011E000585B938701BA6309A70483C60703A9C69E
:1011F0001347F7FF698FC8DBA38C0702014601453F
:10120000854813080002B395C800F98D9376F60F50
:1012100081C919C1A38CD7020547A388E702828040
:101220008506050693F6F60F0545E31E06FDA38C1D
:10123000D7027DF3A38807028280138701BA834611
:1012400017030547938701BA6396E60003C70703B0
:101250002384E70203C787020A07BA97884382807C
:10126000EFF2EFAB41112A8432C42EC6EFF00FE447
:10127000B2458AA11305240042054181EFF00FE336
:1012800022460AA241016FF0CFABEFF24FA9411104
:101290002E841306E1006C00E1373887014505C351
:1012A0003C86014589CF63E9E700636AE400B3B790
:1012B000870013C5170021A00545E36AE4FE41013C
:1012C0006FF02FA8EFF2AFA52A848DE10146894582
:1012D000EF00F07201468D452285EF005072014605
:1012E00085452285EF00B0716FF0AFA5B144B3041E
:1012F0009402AE873E858545EFF09FBA131905012C
:1013000013590901CA851385B40141372A868945D5
:101310002285EF00D06ECA851385F401BD372A8679
:1013200085452285EF00B06DCA8513853402B13F33
:101330002A868D457DB7EFF20F9C4111AA8AAE84B3
:101340003D456C00B2891306E10036893A8C3E8B2C
:10135000428DC68C0354410421372886835BE1000B
:1013600033057541EF90F07CB7D7000083A5478F18
:10137000EF90300F2A8A636E340333857941EF9002
:10138000507BD285EF90A051EF9050752300AD00B7
:101390003305344163748900330539414205418185
:1013A000EFA08005D285EF90804FEF9030732380BF
:1013B000AC00636D540333857A41EF909077D2850A
:1013C000EF90E04DEF9090712300AC0063E3840256
:1013D00033045441131504014181EFA0E001D2858B
:1013E000EF90E04BEF90906F2300AB0041016FF066
:1013F0000F9433845441F9BF03480100388263F6E7
:10140000A5026374A70063E6E6006379B700637F13
:10141000E602238008012380070182806364D700ED
:10142000E37BE6FE2380080182806377E600E362C7
:10143000B7FEE379D7FE19A06375D700E36BE5FC2F
:10144000D5B7E371B7FEE368E5FCE9BFE36CD7FC11
:10145000D9B7EFF2CF8C79712A892E84B2846C10BF
:101460001306E1023D4536CE3ACC3ECA42C846C6D6
:10147000C53BF246B2484248D247624763F486020F
:1014800063EB260163E9280163E9160123000701E4
:101490002380070129A0E3FD16FF23000701456112
:1014A0006FF02F8A6367940063E59800E36214FF8E
:1014B000F1BFE37414FFE9BFEFF26F86EF5010370E
:1014C000B707002023A8A764B707002003A5C764B7
:1014D00001478D4611468145EF50F0746FF06F86DD
:1014E000EFF26F8139717D5774181306F00F814543
:1014F0000145EF503065F257918BF5D7EFF09FC162
:10150000938701B923A0070023A2070023940700B3
:1015100023A60700B707002003A5076501478946F2
:1015200001468145EF503070B7D7000083AB478F3D
:101530008149138401B9370B0020138901BA138A3A
:101540004184938A81842945EF50A07385653715BE
:10155000014093850580130505C0EF30807905476C
:101560006310E50C5C4091C708C0232204002314DB
:101570000400930C4B6403A50C004444130C4B640F
:1015800063160524854789E483471903B337F000C0
:101590002945232EF902EFF07FB21C4005476395E1
:1015A000E700E9E4EFF09FA2B707002003AC07646F
:1015B0006285EFF0BFC25131AA84F1471375F50F70
:1015C000631CF51E63060C0C8326490383479903AD
:1015D00001468545130500023397F500758F45C315
:1015E00019C2A30CF9028347990329463567850779
:1015F00093F7F70FB3F6C702130747959305000556
:1016000013059007B3D7C702BA9603C8060013069E
:1016100000058146BA979C230147EFF09F81DDA228
:101620001E2454408507C207C1831EA485E291464B
:10163000E3F1F6F458C013077025637CF7008D477B
:101640005CC485471CC089475CC025B7E393E6F2BC
:10165000DDB71307F0186375F70089475CC411BF45
:101660001307700CE377F7F08547CDBF0D476395FF
:10167000E4002320FC000DBFEFF07F9E35B7850707
:1016800093F7F70F6373F50081470546B1F691BFF5
:10169000EFF0DF93EFF0FFAF184085476316F700D8
:1016A0002320040023260400850993F9F90FCD4770
:1016B000E3FB37E98144B9491385340C4205418184
:1016C000EFF0AFDDAA8513F5F40F8504EFF09FBFAF
:1016D000E39434FF1305100DEFF02FDC2306010215
:1016E000A306010223070102A307010249C585459C
:1016F000EFF00FFB131C05011306A1032C182A8D14
:101700003D45EFF0FFB55018930561034D45EFF0EF
:101710003FB51018930521035D45EFF07FB4835763
:10172000A10303558103135C0C011D8DEF907040E4
:10173000DE85EF900053AA8C1545EFF00FD60356C7
:1017400041038354010383592103835661036315C5
:10175000052A63E4990063F0C60262C266C093087A
:10176000D1021308C1029307F1021307E102CE85EB
:101770002685EFF05FBC8346D1020346C102834554
:10178000F1020345E102EF00902213050021EFF082
:10179000EF919377F50F014591CB1385F7FF137503
:1017A000F50F130595060605EFF04F90EF00F04793
:1017B0008149EF00305041BB8145EFF06FEEAA85C3
:1017C000054613D50401EF005034E9B5054D63100B
:1017D000A50D93B71400232EF9021C40370C0020EE
:1017E000130C8C646398A70083470C0085E0850781
:1017F0002300FC0003450C00A14763FEA7048547B6
:101800002300FC000145EF00302E69B519476387BE
:10181000E702636DF700F9DFFD1735678A071307E5
:10182000C789BA979C4323A0FC00E9B72147E393FB
:10183000E7FCEFF0BF8123A00C006DBF89451305C5
:10184000D01DEFF06F8589451305F01DEFF0CF84B3
:1018500023000C0045B79D47631CF5008145754585
:10186000EFF00FE4AA8501461565EF00102A59BF75
:10187000B307F50235651305058B3E9503486500F2
:101880005C315821343130210C31082179B39387F0
:10189000F4FF93B71700232EF902994763FCA702C0
:1018A00065151375F50F131715009387C184BA9743
:1018B0008623EF00205BEF90501CA945B305B502CD
:1018C00005462685EF0070241C40E38507DC23A035
:1018D000AC01C9B3B70C002003C79C641C40938CB7
:1018E0009C64631CA705E38707DA2320EC002380B0
:1018F0000C008D476394F40483260C0085472380F5
:10190000FC00F51693B7260093C71700139717002E
:1019100093874185BA9786238547014563F3D700AE
:1019200009451305D51D42054181EFE03FF8AA8521
:1019300001462685EF00701D11A0C5FF83C70C006E
:10194000E39A07D483240C0093F71400B9CFF5145D
:101950003335900093141500B3879A0083DC070099
:1019600081455905EFF0CFD3AA8505466685EF007E
:10197000D0191C40E38007D25C4405476398E70018
:1019800083270C0085072320FC0029B3E39407D0AC
:101990009384D41D2685EFE07FF193051500C205E1
:1019A000C1812685EFE0DFEDF5B1F114B33490008D
:1019B00093971400D29783DC070081451385640157
:1019C000EFF00FCEAA8505466685EF0010141C4087
:1019D000E38207CC5C4405476396E70083270C004D
:1019E000FD1755B7E39807CA9384D41D2685EFE009
:1019F000FFEB9305F5FF65B713150D01418136CE59
:101A000032CCEF901013E685EF807069EF90100DE7
:101A10001378F50F6246F24663E4990063F1C6025B
:101A200042C062C29308D1021308C1029307F102B7
:101A30001307E102CE852685EFF01F9C2DBBE288BF
:101A40009307D1021307F102CE852685EFF07FA020
:101A50001DB3EFE2DFAC37150000154685451305D1
:101A600005D9EF309007EF30E0298965371501403F
:101A700037140140EF30A0238564938504C2130519
:101A800004C0EF30C0223706180091461306061036
:101A9000A145130504C0EF3080229146014693858D
:101AA000048013050480EF3080219305F0041305B2
:101AB0000480EF30C01EE14601469305000A13057D
:101AC0000480EF30C01FA965E14601468D0513056E
:101AD00004C0EF30C01EC14513050480EF30201B49
:101AE00093850401130504C0EF30601AE1463746C0
:101AF0001D0093050020130504C0EF30401C930621
:101B0000800437461D0093050010130504C0EF3014
:101B1000001BF14601469305000C130504C0EF308D
:101B2000001AB7450F00B1461306803E9385052481
:101B30000945EF3090310945EF30701D8145014571
:101B4000EF00F00F81450545EF00700F930404C0CE
:101B5000930500022685EF30C0197DD9EF202007BC
:101B60008564938504800145EF30500A9385048095
:101B70000545EF30B009B7260000B7E516008D47E0
:101B800005479386264D13064006938505360D4579
:101B9000EF30B0250D45EF309017EF30F05037554E
:101BA00000400546854513050540EF306051C145AD
:101BB000130504C0EF30801437650040130505405D
:101BC000EFE0BFA46FE0FF97EFE27F95814501450D
:101BD000EF00F00681450545EF0070060D45EF303A
:101BE00070140545EF30B0120145EF3050126FE030
:101BF0005F9537F700E0832707D1B7060080D58FC0
:101C00002328F7D08280EFE29F913725014081455C
:101C100013050540EF103005370500200325056644
:101C2000B7070020138487660147938787668D4630
:101C30000546894523200400EF5070191C4091C7C8
:101C4000B7E700E0116723A0E7206FE09F8FEFE286
:101C50001F8D0D45EF20504DBD450D45EF2090598E
:101C60000145EF20E0210D45EF20904A6FE07F8D88
:101C7000EFE2FF8A1945EF20304BBD451945EF20B3
:101C800070570545EF20C01F1945EF2070486FE0E1
:101C90005F8BEFE2DF8889476308F5008D476300BB
:101CA000F50201456FE0FF899305004037150140BB
:101CB000130505C0EF30E0031375F50FE5B7930585
:101CC0000002EDB7EFE2BF8591E937150140C1454C
:101CD000130505C0EF3080026FE0BF863715014065
:101CE000C145130505C0EF30A001FDB73705002041
:101CF000130505668280EFE29F82EF502033B7071D
:101D0000002023A2A766B707002003A507660147A6
:101D10008D4611468145EF5000716FE09F82EFE2E2
:101D20001F8003A7018793870187DC2341113000BF
:101D3000954501453AC45C86EF202053EF202008EA
:101D4000B7280000B72601402A87938868C00D484D
:101D500085479386C644054681450145EF20703E80
:101D600041016FE00FFEEFE28FF84111EF202005F7
:101D70002A841309E501AA84039504008904EF204D
:101D80008047239FA4FEE39924FFB7D70000B7D96B
:101D9000000037DA000083AB0790B7D70000832A32
:101DA0008A8F03ABC98F03AC4790938441BE01492E
:101DB0003E244A288D4DA6853E951E20137DF90FA1
:101DC0003E953355B503938C01BF42054181EF50D9
:101DD000B0216307BD0791476309FD04EF90C0611F
:101DE00083258A8F131D2900669DEF80906783A548
:101DF000C98FEF801067DE852AC6EF809066B247F4
:101E0000AA8D03A50C01BE85EF90A00EAA856E8554
:101E1000EF80F0282320AD000509954709048904C7
:101E2000E318F9F841016FE04FF0EF90E05CD685E0
:101E3000EF803063DA85EF80D06223A8AC00E9BF81
:101E4000EF90805BE285EF80D06183A5C98FEF8042
:101E50005061B7D7000083A58790EF80A06D23A6BF
:101E6000AC005DBF0A05938701BFAA9788438280B3
:101E7000EFE2EFE783A7C18179718149D8438147B8
:101E80009306471491C60327C71419C39307C700C5
:101E9000370A0020232EFA64B7D7000003ABC7909F
:101EA000B7D7000083AB0791B7D7000003AC4791C9
:101EB00081440544130ACA65B72C0000628D0549A8
:101EC00009479147630E2403630B04166305E41866
:101ED000E31AF4FEEFF05FCFEF10A034EFE0BFF2B3
:101EE0002945EF40105A37150140C145130505C07B
:101EF000EF2010610544EFF0DFCFD1B71144C1B737
:101F00007D5734001306F00F81450145EF508043A3
:101F1000A247918BCDD7EFF09FE0A9474C083ED266
:101F20003ED00D4593872CC93ED622CCEF10706B66
:101F30001305B020EFE07FD67D15133515002ACCB0
:101F40004C080945EF10F069B7270000938747CC8C
:101F50006C0001453EC822CCEF101067138441C3CA
:101F6000138541C3EF50F00D13050401EF50700DC0
:101F7000138441C0DA85138541C0EF50F009130581
:101F80008400DA85EF505009138441C1DE85138542
:101F900041C1EF50900A13050401DE85EF50F009AE
:101FA00081450145EF10706885450545EF10F067E4
:101FB0003D64130604A6A1469305007D0145EF305C
:101FC000E074130604A689469305007D0545EF30AD
:101FD000E0730145EF105072B7280000B73601409A
:101FE0002A879388E8C40D488547938606C405462A
:101FF00081450D45EF20F0140545EF10F06FB7282F
:102000000000B70600402A87938808C70D48854717
:1020100093868603054681451945EF209012BD45FC
:102020001945EF20B01FBD450D45EF20301F01457C
:10203000EF30E04D0545EF30804D014449B5B7071D
:10204000002003A547660147894601468145EF50B8
:10205000803D0944ADB5BD450145EF20202FEFE09F
:102060004FFD0545EF40F041014734001306F00FE6
:1020700081450945EF50002D0589E30205E4EFF0A5
:102080009FCEEF103077638A2409ADC8E39984E2CC
:102090003709002013094965C94AD94D8545568538
:1020A000EFE01FE083570900420541816385A700E7
:1020B0002310A9008549850A0909E391BAFF03A500
:1020C000C1BFEA85EF80D028E35AA0E20D45EF10AA
:1020D0009054E30505E24C080145EF10906A8947EA
:1020E0006313F50085494C080545EF109069894751
:1020F000630AF504639809048149D1B30D45EF10D3
:102100009051E30E05DA03A5C1BFE285EF805024AC
:102110001345F5FF9354F5015DB30945EFE0FFB7B3
:10212000AA850145292E0D45EFE03FB7AA85054553
:10213000392637150140C145130505C0EF20103C75
:102140008944B5BB83270A00C5DB9823759B98A3F8
:1021500065B7EFE2CFBC0945EF20007D0145EF30C8
:10216000E03105440145EF308032E30D85FE37153F
:102170000140C14513050580EF2050386FE06FBC6A
:10218000EFE2EFB91145EF20207A0545EF30002F3F
:102190000545EF30C02F8547E30CF5FE37150140AC
:1021A0008565130505C0EF2070356FE08FB9854751
:1021B00006063396C700060589473395A7000147F1
:1021C00081476312B702139507014181C18381459D
:1021D00001476390D502598D4183938641C5D98FBC
:1021E000EAA29EA682800507C98F1377F70F0A051A
:1021F000C9BF8505518F93F5F50F0A06D9BF35671D
:10220000130707962A971423B567938707971397A1
:102210001600938641C5BA9613878185BA95AA9709
:102220009C2303C7F5FF039806003317F7009317A5
:1022300007010547C1876316E600B367F8009EA251
:10224000828093C7F7FFB377F800D5BF994763EC57
:10225000A708B567938787910A053E951841B70788
:1022600000209387C76602879A2393D65500AE0550
:10227000719B558F9AA3BA231377F77F4D8FBAA31B
:102280008280BA238E05137737C0CDBFBA2393D689
:102290004500B205619B558FBAA3DA2352075183DB
:1022A0004D8FDAA38280DA23FD76FD06758F9605C1
:1022B000C5BFDA2393D62500FD8A019B558FDAA38B
:1022C000FA23BA054A0749834D8FFAA38280FA237D
:1022D000F1769386F607758F9E05FDB7FA2313777F
:1022E00007F8D98DEEA38280370700209307C766D1
:1022F000BE231307C76609C593E707403EA3828044
:1023000093F7F7BFC207C183D5BFEFE2CF9E41115C
:102310002A89AE84014B63D50500B304B040054B58
:10232000B7470F009387F72337871E00A697130739
:10233000E7476365F704E1679387F7693717030099
:10234000A6971307E7D3636FF70A89679387F77038
:102350001567A6971307E7E16369F70A9387743E49
:102360001307E07C6366F70A938734061307600C53
:1023700089498D4A6366F700894A19A081499D4AB7
:10238000B56B014A938B4B95294CB3E78403528577
:1023900013041A0032C61374F40FDE978C23EFF087
:1023A000FFEA3246B3C4840363978A063285EFF0AE
:1023B000BFF3630B0B0022859305000413042A006E
:1023C000EFF0DFE81374F40F994463F8840489474D
:1023D0006397F902B70700209387C766EA237177EE
:1023E000798D135789001377F707598D11671E09E7
:1023F000130707F83379E90033652501EAA34101A2
:102400006FE0EF928549994AA5BF8949954A8DBFEA
:102410008949914AB5B7228A8DBF22858145050435
:10242000EFF0DFE21374F40F4DB737070020130706
:10243000C7661E230A058D8BC98F1EA38280EFE21B
:102440000F8E2E87A14511E19145B5670607938749
:102450004793BA9792230945EF30003A0945EF3088
:1024600020426FE00F8EEFE28F8BB7280000370716
:102470000020B7460040938808180948854713078D
:10248000C7669386C6800546C1451145EF20604B5F
:10249000B7280000B73601409388281509488547BA
:1024A000138701C6B1060546C1450945EF206049BD
:1024B0006FE02F89EFE2AF86371501408565130580
:1024C00005C0EF20F00391451145EF2020556FE046
:1024D0004F87EFE2CF842946938541C5138501C616
:1024E000EF90A006B707002003D747679306700C4C
:1024F0009387476705074207418363E9E6089AA384
:102500008A239307700C63F6A708938701C6962762
:102510006D771307A7AA758F94433776F6DB1306FA
:1025200066DBF18E94C3D4433776AAAA130666DB22
:10253000F18ED4C39AA7938701C683D88700956686
:10254000904313885655337818013717C927B76851
:10255000EDB79388D8B613079724718F3376160199
:1025600090C3D043B76855559388D8B633761601D3
:10257000CE2323940701D0C313065009637FA6001E
:1025800093869624ED8E98C3D6A301A823900700C6
:1025900085BF9307F004E3E0A7FA37150140C14572
:1025A00013050580EF20C07595450945EF200047CC
:1025B0006FD03FF9EFD2BFF6EF007033EF506030CD
:1025C000EFF02FC9EF00B057EF007047EF40003831
:1025D00001A0828099677390078001A0EFD23FF439
:1025E0009C2141116147DC876360F70285479CC2EB
:1025F000482905469305F1001305250CEFE08FEA05
:10260000014541016FD0FFF34145E5BFEFD23FF1F6
:1026100085479CC2C829411132C61305250CEFE03D
:10262000CFE7324608A2014541016FD09FF1EFD2BA
:102630001FEF85479CC248292E8481456105EFE044
:102640003F8608A001456FD0DFEFEFD25FED054672
:102650009C2190C258294111DC87630DC70089462F
:102660006304D70205469305F1001305A020EFE0AF
:102670006FE329A03E85EFE0DFA019E1014511A03D
:10268000414541016FD0FFEB3E85EFE0BFA0F5B7BC
:10269000EFD25FE79C2123A0060040294111DC878F
:1026A0000549B684630C240331C40D476364870471
:1026B000AA893D456361F50285451305E4FFEFF006
:1026C0001FD803C5490105469305F100EFE08FDDF2
:1026D00023A02401014541016FD01FE61D473D4560
:1026E000E36BF7FE05469305F1000545EFE08FDB50
:1026F00080C0CDB705443D45E36FF4FC0546930526
:10270000F1001305B020DDB71C2141115C871C319D
:10271000DC87288741018280EFD27FE001112A8483
:102720002E8536C6EFF05FFEB2468947E8879CC229
:102730005C280547639BE700AA8513050021EFE0AD
:102740002F94014505616FD0DFDF138577060946B9
:102750009305E1010605EFE0EFD4E5B7EFD23FDCEA
:1027600001112A842E8536C6EFF01FFAB24689473A
:10277000E8879CC248289305E101094606054505FE
:10278000EFE04FD2014505616FD0BFDBEFD23FD9FB
:1027900001112A842E8536C6EFF01FF7B24689470D
:1027A0001375F50F9CC2E88748289305E101094697
:1027B00006051305B51DEFE0EFCE014505616FD0AD
:1027C0005FD8EFD2DFD54111AA8511466800EF80AE
:1027D000D057324541016FD0DFD6EFD25FD401111F
:1027E0002A842E8536C6EFF0DFFDB24691472ACE09
:1027F0009CC248286C081146130585070A05EFE0BE
:102800006FCA014505616FD0DFD3EFD25FD1AA84D3
:10281000DC283D472E853684636DF70085478C2183
:102820009CC2C82813051521EFE06F8601456FD0C3
:102830005FD14547636FF700EFF01FED89471CC07C
:10284000DC28AA859387F71013951700EFE04F83D4
:10285000F1BFEFF01FF791471CC0EFE0CFE3F9B7EE
:10286000EFD2FFCB91479CC25C290D474111639F7A
:10287000E7002E85EFF0FFF4488605466C003945E9
:10288000EFE04FC2014541016FD0BFCB1145E39C42
:10289000A7FE2E85EFF0FFF22AC611466C00130545
:1028A000C020F9BFEFD2BFC701112A8432852EC6DE
:1028B00036C4EFF07FE5A246B24589479CC2E8875F
:1028C000882109469305E1017D15060522954205FB
:1028D0004181EFE02FBD014505616FD09FC6EFD26A
:1028E0001FC42E86930545016D45EFF0BFFB6FD0E9
:1028F0005FC5EFD2DFC22E86930545011305700236
:10290000EFF05FFA6FD0FFC3EFD27FC12E86930541
:10291000450113053003EFF0FFF86FD09FC2EFD2EF
:102920001FC02E86930545011305F003EFF09FF7B6
:102930006FD03FC1EFD2BFBE2E8693054501130570
:10294000B004EFF03FF66FD0DFBFEFD25FBD2E8651
:102950009305450113057005EFF0DFF46FD07FBEDE
:10296000EFD2FFBB2E869305450113053006EFF02D
:102970007FF36FD01FBDEFD29FBA2E86930545011E
:102980001305F006EFF01FF26FD0BFBBEFD23FB9D7
:102990002E86930545011305B007EFF0BFF06FD009
:1029A0005FBAEFD2DFB72E86930545011305700895
:1029B000EFF05FEF6FD0FFB8EFD27FB62E869305B2
:1029C000450113053009EFF0FFED6FD09FB7EFD24F
:1029D0001FB52E86930545011305F009EFF09FEC16
:1029E0006FD03FB6EFD2BFB32E86930545011305D6
:1029F000B00AEFF03FEB6FD0DFB4EFD25FB28547A4
:102A00009CC2482991472E84631AF5001305B02013
:102A1000EFE0AFA808A001456FD0BFB23305A040DA
:102A200042054181F5B7EFD29FAF1C210547411107
:102A30002E846391E7020D453306A6029CC213055E
:102A4000460E42054181EFE04FA508A00145410136
:102A50006FD03FAF09476391E7020D453306A602E9
:102A60009CC21305560E42054181EFD03FE49357B7
:102A7000850008A01CB0D9BF91479CC20821B707A8
:102A80000040F5173E95D1473306F60232950A0508
:102A90001305D50E42054181EFD05FE22AC61146EB
:102AA0006C002285EF80702A55B7EFD25FA70146F0
:102AB0005105EFF05FF76FD0DFA8EFD25FA60546B4
:102AC0005105EFF05FF66FD0DFA7EFD25FA50946A3
:102AD0005105EFF05FF56FD0DFA6EFD25FA4054799
:102AE00098C25C292E84638CE70009471305902067
:102AF0006384E7001305A020EFE02F9A19A0EFE010
:102B0000EFD708A001456FD0DFA3EFD2BF9F0349E5
:102B1000050085474111AE843284368A631CF90270
:102B20008C213285EF104018BD470DE10D4533056E
:102B3000A4029C20054623202A015C841305450E2F
:102B400042052C004181EFE0EF9581473E85410130
:102B50006FD09F9E8947631FF9002E85EFF0DFBA83
:102B600068840D453305A40223202A010946130574
:102B7000550EF9B7AA892E85EFF0BFC491472320DF
:102B8000FA002AC203C50900B7070040F5173E95B1
:102B9000D147B307F40211464C003E950A051305D0
:102BA000D50E42054181EFE0EF8F92441395040169
:102BB0004181EF8070042AC613D50401EF80D00351
:102BC000B7D7000083A50782EF70704D03C60900D8
:102BD0002AC42C007D16420641822285EF10E017A0
:102BE00081472DD5BD479DB7EFD27F930146510553
:102BF000EFF0BFF16FD0FF94EFD27F920546510501
:102C0000EFF0BFF06FD0FF93EFD27F9109465105EF
:102C1000EFF0BFEF6FD0FF92EFD27F9089470111A5
:102C20001CC22EC6EFD09FC8B2459357850088A11D
:102C30009CB1014505616FD0DF90EFD25F8E368683
:102C40006D45EFF07FFD6FD0DF8FEFD25F8D368661
:102C500013057002EFF05FFC6FD0BF8EEFD23F8C98
:102C6000368613053003EFF03FFB6FD09F8DEFD218
:102C70001F8B36861305F003EFF01FFA6FD07F8CA1
:102C8000EFD2FF8936861305B004EFF0FFF86FD05E
:102C90005F8BEFD2DF88368613057005EFF0DFF724
:102CA0006FD03F8AEFD2BF87368613053006EFF02C
:102CB000BFF66FD01F89EFD29F8636861305F006C8
:102CC000EFF09FF56FD0FF87EFD27F853686130533
:102CD000B007EFF07FF46FD0DF86EFD25F843686E7
:102CE00013057008EFF05FF36FD0BF85EFD23F831D
:102CF000368613053009EFF03FF26FD09F84EFD294
:102D00001F8236861305F009EFF01FF16FD07F8325
:102D1000EFD2FF8036861305B00AEFF0FFEF6FD0D9
:102D20005F82EFD2CFFF89479CC248292E84411190
:102D300085454505EFE0CF969357850008A01CB068
:102D4000014541016FD0EFFFEFD26FFD91479CC26B
:102D5000482941112E84130585070A05EFD01FB6B7
:102D60002AC66C0011462285EF80207E0145410174
:102D70006FD02FFDEFD2AFFA89479CC248290111CD
:102D80002EC606051305B51DEFD05FB2B2459357A9
:102D9000850088A19CB1014505616FD08FFAEFD203
:102DA0000FF889479CC2482901112EC60605450522
:102DB000EFD0DFAFB2459357850088A19CB10145A4
:102DC00005616FD00FF8EFD28FF591479CC25C2957
:102DD000094741112E846386E7020D476387E702A6
:102DE00005471305C020639FE700EFE00F832AC665
:102DF0006C0011462285EF804075014541016FD07E
:102E00004FF41945EFD09FABDDB73945EFD0FFE860
:102E1000F9BFEFD2CFF089479CC2482985474111BD
:102E20002E84631EF50013050021EFD03FA89357B1
:102E3000850008A01CB0014541016FD08FF013053B
:102E400075060605DDB783A7C181DC431387C7126A
:102E500071EB35671307079E23A0E7141387471408
:102E600071EB35671307079F23ACE7141387C7156A
:102E700071EB3567130707AF23A8E71613874717CA
:102E800071EB3567130707A723A4E7181387C71843
:102E900071EB3567130707A923A0E71A1387471AB1
:102EA00071EB3567130707AB23ACE71A1387C71B12
:102EB00071EB3567130707AD23A8E71C1387471D80
:102EC00071EB3567130707A223A4E71E1387C71EFC
:102ED00071EB3567130707A423A0E720138747206A
:102EE00071EB35671307079C23A2E722138787221C
:102EF00071EB3567130707A123AEE7221387072479
:102F000071EB35671307079823AAE72413878725F2
:102F100071EB35671307079A23A6E7261387072760
:102F200071EB82803567130707B223AAE712138774
:102F3000871305F335671307079B23A6E714138749
:102F4000071505F33567130707B123A2E7161387A3
:102F5000871605F33567130707A623AEE716138711
:102F6000071805F33567130707A823AAE71813877F
:102F7000871905F33567130707AA23A6E71A1387EE
:102F8000071B05F33567130707AC23A2E71C13875C
:102F9000871C05F33567130707AE23AEE71C1387BD
:102FA000071E05F33567130707A323AAE71E138738
:102FB000871F05F33567130707A523A6E7201387A7
:102FC000C72105F33567130707A023A8E722138756
:102FD000472305F335671307079D23A4E7241387C9
:102FE000C72405F335671307079923A0E72613873E
:102FF000472605F33567130707B023ACE72615B757
:10300000B71702409843B706FFF84111136717003E
:1030100098C3D84337060200758FD8C39843B706C4
:10302000F7FEFD16758F98C39843B706FCFFFD1693
:10303000758F98C3D843B70681FFFD16758FD8C327
:1030400037079F0098C702C402C69843C166558FD0
:1030500098C3B716024005679C42F18F3EC6A2474F
:1030600085073EC4B24781E7A247E397E7FEB7175B
:1030700002409C431397E7006359070685473EC605
:10308000324785476311F706B7170240D843B706A2
:10309000C1FFFD1613670708D8C3D843D8C3D84368
:1030A00013670740D8C3D843758FD8C3D843B70632
:1030B0003D00558FD8C39843B7060001558F98C37C
:1030C000984393166700E3DD06FED843B716024027
:1030D000719BD8C3D84313672700D8C32147DC426C
:1030E000B18BE39EE7FE4101828002C651BFB71655
:1030F0000240DC42370700201146B18B1307875A84
:103100006385C70021466388C702B7177A00938793
:1031100007201CC3B7170240DC43918393F6F700E6
:10312000B707002093870700B69794231C43B3D7B3
:10313000D7001CC38280DC42D4424166C983BD8B68
:10314000F18E890745466393C700C94781EEB746AC
:10315000024083A60680C18A89CEB7167A0093867C
:10316000062021A8B7160240D4421396E600E35683
:1031700006FEB7163D0093860690B387D70251BF6F
:10318000EFD24FB8C16441113709002009440D4AFC
:103190008D4AFD148327896793098967638E8704A5
:1031A00063804703E5FFEFD02FF3EFF0CFABEFE005
:1031B0009FB4EFE06FB0EFF01FC923A05901D9BF52
:1031C0007D577400014681450145EF40A017B24785
:1031D000E39287FC268681450145EF40405DEFD0B4
:1031E0008FC10841EF30606CEFD08FC10841EF30E4
:1031F000C06B23A0890079BF1305401FEF307028F2
:10320000EF20A06941BFB72700209387C7681CC182
:10321000B72700209387C7489CC1930700081CC2AA
:103220008280EFD2CFAFEFD0AFBD0841EF30303466
:10323000EFD06FBC0841EF3090336FD08FB0EFD23A
:103240000FAEEFD0BFC42A8437280020B727002054
:10325000B7D50000371500001308C8199387C7D9E0
:103260001947854613060010938505B31305054ECF
:10327000EF30405908C0EFD0AFB82A84B7D500006E
:10328000370500001388C1069387C1C611478546DC
:10329000130600109385C5B31305657AEF30805689
:1032A00008C0EFD04FB52A8437280020B717002078
:1032B000B7D50000370500001308C8AE9387C7E6EE
:1032C00015478546130600329385C5B4130545613D
:1032D000EF30405308C0EFE07FA12A843728002058
:1032E000B7270020B7D5000037250000130848D4C1
:1032F000938747B42147854613060008938505B692
:10330000130505E7EF30005008C037280020B72725
:103310000020B7D50000373500001308483F9387D9
:10332000471F25478546130600089385C5B6130534
:103330000518EF30204DEFF0DFEE6FD08FA0EFD209
:103340000F9EEFD06FCEB7260020372600202A84AC
:1033500001479386466E1306C64491454145EF20CA
:10336000303608C06FD0EF9D01A001A001A001A0E0
:1033700001A001A001A001A001A001A001A001A045
:1033800001A001A001A001A001A001A001A001A035
:1033900001A001A001A001A001A001A001A001A025
:1033A00001A001A001A001A001A001A001A001A015
:1033B00001A001A001A001A001A001A001A001A005
:1033C00001A001A001A001A001A001A001A001A0F5
:1033D00001A001A097E1FF1F9381419D17210020CB
:1033E000130141C217A500001305857197D5FF1F72
:1033F000938545C11386818763FAC5008322050042
:1034000023A0550011059105E3EAC5FE17D5FF1F5E
:103410001305452197050020938585CA6377B5007C
:10342000232005001105E36DB5FEFD42739002BC3B
:10343000894273904280B72200009382028073A079
:10344000023097D2FFFF938262BF93E23200739003
:103450005230EFF0FFBA97F2FFFF9382E2157390BC
:103460001234730020301C4589C593E717001CC532
:103470008280F99BEDBF08450D8105898280084552
:10348000098105898280EFD28F8901112A84230363
:103490000100A5441C8363FAF40623030100A5463A
:1034A00021461C8363F0F60A231401002315010052
:1034B000230301009546130600601C8363FEF60E8D
:1034C0001C8393F7F70F63840712388414833C84BA
:1034D0000C8310833347D702B3E7B7028607B3C71D
:1034E000C702BA97C207C1837C841883994795465F
:1034F000998F93F7F70FDC839C8393F7F70F639C07
:1035000007108567938707800DAA1C4493E78700FF
:103510001CC42285EFF03FF66DFD1C4493E7470085
:103520001CC42285EFF0BFF56DFD78441C83141098
:103530008607B6972396E7FE1C83850793F7F70F58
:103540005C8389BFA30301009C836378F6001C831E
:10355000850793F7F70F5C83A9B798839C830C10BA
:103560000607850786072E97AE970357C7FE83D7B2
:10357000C7FE63FDE7029C838607AE9783D7C7FE2D
:103580007C849C83988385078607AE9783D5C7FE86
:10359000931717001810BA972396B7FE9C833884A8
:1035A0000C1085078607AE972396E7FE9C83850758
:1035B00093F7F70FDC8349BF1C8318108907860730
:1035C000BA9783D7C7FEE36DF6EE1C830C103884E0
:1035D00089078607AE9783D7C7FEBA97C207C1830C
:1035E0007C841C83850793F7F70F5C83F9B59307F9
:1035F0000040DDBD1C831010388589078607B2970F
:1036000083D7C7FEBA97C207C1837C851C83850711
:1036100093F7F70F5C831C83E3FEF6FC38859483F5
:103620003C858C8390833347D702B3E7B702860784
:10363000B3C7C702BA97C207C1837C852884348583
:103640002C84308505679307004013070780338576
:10365000A740B306D7408D8F118F4205C206C2071F
:103660004207C18641874185C1873695BA97894609
:103670003345D5020561B3E7D7023E954205418542
:103680006FC03FECB70702409C437D8D3335A000EF
:103690008280EFC2DFE8EFF0FFFE6FC09FEAB7075E
:1036A0000240C8C38280B7070140635A0504DC4F5B
:1036B00093560501131805013707300013F6F6007D
:1036C00013580801B376E500635E05066399E604C6
:1036D000930606010D46B316D60093C6F6FFF58F86
:1036E00099C9135755011377F73F12073317E800AD
:1036F000D98F63550506370701405CCF8280372795
:103700000240145BDC433707000F758F55F313D766
:103710001700F976CE07758FCD83D98F51BF131758
:10372000B500635607008D46B396C6007DB71357A4
:1037300055011377F73F12073317E8001347F7FFD8
:10374000F98F79BF6390E60237060140544237078C
:1037500000F17D17F98F758F58C2C1F53707014009
:103760005CC382801317B500635C07008D46B39677
:10377000C60093C6F6FFFD8EB707000FD58FF1BFC9
:103780001357550112073317E8001347F7FF7D8FD2
:10379000B707000FD98FD1B75E2589C593E717000A
:1037A0005EA58280C207C183F99BC207C183CDBFDA
:1037B00093C5F5FFC205C1814EA98280B7170240AB
:1037C000238007022380070205476306E5001147AF
:1037D0006306E50082802380A7028280154723804C
:1037E000E7028280371702405C439146B18B6385C4
:1037F000D700A1466382D706B7177A0093870720C0
:103800001CC1371602405C4237070020130707012E
:103810009183BD8BBA9794231C41B3D7D7005CC169
:103820005442A1829D8ABA969422B3D6D70014C579
:103830005442AD829D8A36971823B3D7E7005CC502
:10384000584239839376370013874180369718237F
:10385000B3D7E7021CC982805C435843C166C98361
:10386000BD8B758F8907C5466393D700C94701EFA4
:103870003747024003270780418B09CF37177A006B
:103880001307072021A83717024058439316E70073
:10389000E3D606FE37173D0013070790B387E7020C
:1038A00085B79357550005476399E700B71702405E
:1038B0009C4333D5A7000589828009476396E700BA
:1038C000B71702409C53F5B7B7170240DC53D5B782
:1038D000B737004003D74780136707012392E7807B
:1038E00082803737004083574780C207C183BD9B22
:1038F000C207C1832312F7808280EFC25FC24111E9
:103900002AC6EFF0FFFC3245B737004013570501D8
:103910003D8B42052394E78041812396A780EFF0F9
:103920005FFC41016FC0FFC13737004083574780BC
:1039300093F70702E5DF82803737004083574780DF
:10394000C207C183DD9BC207C1832312F7803737CB
:10395000004083574780A18BEDDF82801E3192218A
:1039600003D82500C207C183F99BC207C1831EB1DA
:103970001E3156211A2DC207C18342074183137796
:10398000C7F8518F9225F59BC20633660601D18F89
:1039900037360140130606C0C1826310C502B22546
:1039A000DD9B03D8E500D18FD221ED9B93F6F6CFB6
:1039B000D18FD22533660601D18E56A11AADFA21D8
:1039C0005AB91EB182801E3165771307F7CFC2073F
:1039D000C183BD9BC207C1831EB11E31562103D8CE
:1039E0008500C20713960601162DC18393F7F7FDD4
:1039F000758F96214182A206558FB62142074183D9
:103A0000B3E606019206D58FB7360140C20793860A
:103A100006C0C183631ED502B62593F7F7F703D816
:103A2000C5009206D58FD621C207C183920693F7AF
:103A3000F7FBD58FFD769386F63FF18EF225C20710
:103A4000C183336606010A06D18E139606014182B0
:103A500052A11AADFA211ABD1EB182801E3103D8BF
:103A60008500C207C18393F7F7EFC207C1831EB178
:103A70001E3156215A2DC207139606014207962180
:103A800041831377C7F8558FB621C18393F7F7DFCA
:103A9000B3E60601A206D58FB7360140C20793866A
:103AA00006C04182C183631FD502FD769386F67FEF
:103AB000F58FB62503D8C500A206D58FD621C2073B
:103AC000C183A20693F7F7BFD58FF576FD16F18E69
:103AD000F225C207C183336606011206D18E139602
:103AE0000601418252A15AADFA215ABD1EB182800F
:103AF0001A31FD77FD17F98F1EB1035805025621C3
:103B00005E2D657792211307F7CF7D8FF977220617
:103B1000FD17518FB3F70701B22103D88500C20604
:103B20004207336606013206D18F37360140C2079D
:103B3000130606C0C1824183C183631AC500717632
:103B40007D16F18ED2251A06D18EC206C18256A1EB
:103B50005AADFA212310E5041EB182801E2DC20742
:103B6000C183DD9BDD8D0EAD82801A2DFD7793879D
:103B7000F77FF98FA205CD8FC207C1831EAD82806A
:103B80005E2DC207C183DD9BDD8D4EAD82805A2D37
:103B9000FD779387F77FF98FA205CD8FC207C18389
:103BA0005EAD82801E294A25ED8F4205418189C77D
:103BB0006D8D3335A00082800145828093F5F51F1D
:103BC0004EA182800A216D8D3335A0008280B727F7
:103BD00000209387C77523A0070023A20700239422
:103BE0000700B72700209387C77423A0070023A2EC
:103BF000070023A4070023960700B7070020239E91
:103C000007668280EFC21F909317150037250020AA
:103C10001305C5753E95834905002E8963860906FF
:103C20000031B724002093848476A299139A090165
:103C3000135A0A01B14A93170401C18363E647038B
:103C4000130900006312FA041384F7FFB147330429
:103C5000F402B7270020938787763E940C404840B3
:103C6000EF7020000C4431A8228BCE8763113403FF
:103C70003147B387E7024A85BE94CC40EF60707E3F
:103C80008C44EF60300B2A894A856FC0FF8A050497
:103C9000B30754034A85A69783A547FFEF60B07327
:103CA000E34BA0F8DA87E9B785476381F504B727C6
:103CB000002006059387C775AA97982315E3370751
:103CC00000201307C7671223130840060545B306F3
:103CD000B600634ED8008CA390B316A30145828032
:103CE000FD1501456305B700094582800D458280B9
:103CF000EFC25F814111AA892E893A85BE8536843B
:103D0000B2843EC63AC4EF70C01E2A8AA2852685B8
:103D1000EF70201EAA855285EF607038224723A0DD
:103D2000A900A2853A85EF60D073B247AA89A6851B
:103D30003E85EF601073AA854E85EF70801BAA89BF
:103D4000A6852285EF70E01AAA854E85EF60303592
:103D50002320A90041016FC02FFE931715003725BE
:103D600000201305C5753E951C216378F604EFC24B
:103D70000FFB0031B1472E892296131406014180B2
:103D80003304F40203270900832789008326C9002E
:103D900003264900B7240020938484769305840089
:103DA000130544002695A695EFF09FF48327C900DC
:103DB000269401451CC06FC0CFF809458280372585
:103DC00000201305C5728280931735003705002047
:103DD000130505683E95DC41230005005CC10145E3
:103DE0008280F1473305F502B7370020938747C536
:103DF000D8413E959C4958C17D171CC9DC453337D5
:103E0000E0005AA95CC59C4DA30B050023240500C6
:103E10001CCD01458280F1473305F502B7370020FC
:103E2000938747C5AA97C82B8280EFC24FEFF1470F
:103E30003305F502B7370020938747C509473D464C
:103E4000AA971305C0023385A502D8C337370020CF
:103E50001307C7BD23AA070081453304A70009053E
:103E600080C3232204023A95EFC06FEEB7D700005B
:103E700083A7C7B72320040205451CD46FC06FEC8D
:103E8000EFC2EFE9F146B306D502B737002013873A
:103E900047C5AA843D650146138447C5130505A699
:103EA0003697144323A0060213872600F906035809
:103EB00027001E23B305F84063D60500B307F5407D
:103EC000B385070109072E96E393E6FE3D4533557A
:103ED000A602B7370020938747C393954400BE9549
:103EE000EF305017F147B387F4020547A2979C4380
:103EF00088D3D8D36FC0EFE4F1473305F502B73765
:103F00000020938747C5AA97884309058280EFC29E
:103F10000FE1F1473305F502B7370020938747C516
:103F20003E95004129CC5841894701456317F70464
:103F30001C50A1C73E85EF70204CB7D7000083A569
:103F400047B7EF601052B7D70000AA8503A5C7B7DF
:103F5000EF60F014B7D7000083A587B7EF6070500B
:103F6000EF70C03742054181EF70A03C0C54EF6008
:103F7000504FEF70A036420541816FC08FDC014584
:103F8000EDBFEFC22FD871443305850237340020CE
:103F9000130444C52A94832904001C480D4583A4B6
:103FA00009026387F40426852E89EF70E044B7D7B1
:103FB000000083A547B7EF60D04AB7D70000AA85B5
:103FC00003A5C7B7EF60B00DEF7040319307C00392
:103FD0003305F50242054181EF70A03583A58902C2
:103FE000EF603048EF70802F2310A90004C8094506
:103FF0006FC08FD4EFC20FD137340020130444C5F3
:1040000081448949130A703E854A11495C40638B9B
:1040100037051C4C2685829778386302A7041C4418
:1040200085071CC41DEB18486379F7005C4068B82D
:1040300093C7F7FF858BA98F5EA8850493F4F40FCF
:104040007104E39524FDB707002093870768D843E0
:104050008C23014502976FC02FCE5844F1B723241B
:104060000400E1BF5E288507C207C1836364FA00CC
:104070005EA8E1B71C40231A0400D853631557010A
:1040800023A207025DBF23A0070245BF37350020EA
:10409000130545CC828085673307C5009387078069
:1040A00063C9E706EFC20FC6AA843284094525C258
:1040B000373A0020AE8A8149414B130A4ACC93F724
:1040C000F400B307FB40C207C183228963F3870072
:1040D0003E8983274A0242091359090133863A016E
:1040E000A685CA861305000A330424418297CA991B
:1040F0004204CA941545C209C2044180EF207038B9
:1041000093D90901EF106079C18055F801456FC05E
:10411000AFC20945828085673307C5009387078052
:1041200063C2E708EFC22FBDAA844111328409455A
:104130003DC6B73900202E8AB68A814B414B938900
:1041400049CC93F7F400B307FB40C207C18322892F
:1041500063F387003E89420913590901194CB30CD6
:104160007A0103A80902D6872947CA866686A685EA
:104170001305000A029801C92AC67D1CEF10E071E0
:104180003245E3100CFE33042441CA9B4204CA9416
:10419000C20BC204418093DB0B01C1805DF0410181
:1041A0006FC0EFB80945828085673307C5009387E4
:1041B000078063C3E702EFC28FB6373700200328BA
:1041C00007CEB68713074006B2862E86AA8513054A
:1041D000000A02986FC0EFB609458280EFC22FB483
:1041E0004111AE8605469305F100EFF0FFFB88878D
:1041F00041016FC00FB5B70700200397876881475B
:104200002A97634F070009CD05669306F6FFB68728
:104210006358C700AA876305D50093170701C183B8
:104220003E8582808D47B387F502032805011D472F
:104230003317F7001347F7FFB396F60033770701FC
:10424000D98E14C9994763E1C70295477D16330695
:10425000F6025859FD47B397C70093C7F7FFF98F88
:104260003396C500D18F5CD98280EFC2AFA92E8969
:10427000B28919EDB7170240984F1367072098CFFE
:10428000D84713670720D8C7D8471377F7DFD8C7B1
:10429000B7160240DC4251777D17F98F3167D98F0D
:1042A000DCC2931725001385C1853E950041930715
:1042B0000010B5645CC0B7070E0089071CC4B707BF
:1042C00040005CD4938404B881476313F9061C440E
:1042D00037071000D98F1CC41C44370700FC7D171A
:1042E00093E707101CC41C4493E717001CC45C40F0
:1042F000F98F5CC01C4493E787001CC42285EFF053
:104300008F976DFD1C4493E747001CC42285EFF096
:104310000F976DFD2285EFF00F97B70700202394CC
:10432000A7685C4037070004D98F5CC06FC0CFA07E
:10433000138A1700CE979C239D461376FA0FA697F3
:104340008C232285EFF01FEED28741B7EFC22F9D5D
:10435000AA844D2537270140832787408945268534
:1043600093E707102324F740F5572320F740130461
:104370000740512D2685692B1C443707500093E7D1
:1043800017001CC41C44D98F1CC46FC08F9BB73747
:10439000002023A8A7CE8280B737002023A6A7CE6F
:1043A0008280B737002023AAA7CE8280B7170240A9
:1043B000D44F37080002B3E60601D4CF984BB706B6
:1043C00000FEFD163367070198CB984B758F98CB8D
:1043D0009307400651476305F50263E7A70ED147EF
:1043E0001307C012630EF50093072003130780071D
:1043F0006308F500A947130780256303F5004147CB
:10440000B767004083A607404165F59A23A0D740CF
:1044100083A6074093E6160023A0D7409386074063
:10442000DC42858B99E37D1565FDC842B767004086
:1044300005894DC903A507407D179387074013756C
:10444000F5F788C388431365050488C3884313754B
:10445000F5FD88C388431365050188C388435D99CA
:1044600088C388436D9988C337054B03498FD8CEDD
:104470009843799B98C34167D443858A99C27D1735
:1044800065FFD843058B39EFEFC26F89D84B130511
:1044900040022E8413673741D8CBB284EF00B0605E
:1044A0002686A28513055002EF00F05F2686A285BE
:1044B00013053002EF00305F2686A28513056002E7
:1044C000EF00705E6FC0EF879307401F1147E3094D
:1044D000F5F29307803E0947E304F5F29307A00F36
:1044E000214721BF8280B767004003A707400546E8
:1044F00093870740719B1367170098C34167D443A4
:104500008D8A6384C6007D177DFBC8430D897D15A8
:10451000133515008280B767004003A707409387D3
:104520000740719B98C34167D4438D8A99C27D1718
:1045300065FFC8430D89133515008280EFB23FFE39
:104540004421411100419305550026862800EF6063
:10455000D07FB767004003A787401359E400137961
:1045600029009316570063CE0606938707409847A5
:104570009316470063C906069C47114513973700F9
:10458000635E070409453767004013070740931728
:104590004500BA9703A70718560433642401058B16
:1045A00023A0E71803A70718BD88598C23A08718F4
:1045B00003A74718419B23A2E71803A74718D98CE4
:1045C000224723A2971823A4E718324723A6E71807
:1045D00003A707181367170023A0E71841016FB05E
:1045E0005FF601454DB7054579BFB76800401388B0
:1045F0000840032E082005433313A300136E1E004A
:104600002320C821832EC821134EF3FF9605B3FE45
:10461000CE01232ED821832EC820C2059606B37E54
:10462000DE015606C1810E05C2062326D821429519
:10463000C1824D8E5607558F2320C5242322E524A1
:1046400037270240145B3707000F758F19EB13876C
:10465000083016231107C206C182231ED7EEE31AC3
:1046600007FF376700401307074083264720B3E65C
:1046700066002322D7208DE783274721337EFE0063
:10468000232AC721B767004003A7C76133636700C8
:1046900023AE676003A70760799B23A0E760828051
:1046A00083274721B3E76700232AF720E1BF376755
:1046B00000409317450013070740BA9783A6071BCE
:1046C00013F6460059EA83A6071B03A8071B83A815
:1046D000471BD5821378280093F8F8002382150130
:1046E00083A8871BA382150183A8871B93D8880002
:1046F0002383150183A8871B93D80801A383150181
:1047000083A8871B93D888012384150183A8C71B1E
:10471000A384150183A8C71B93D88800238515019E
:1047200083A8C71B93D80801A385150183A7C71BBE
:10473000E183DCA511ED5C4793E707025CC76303E7
:1047400008002166D18E94C123970500014582801F
:104750001C4B93E707021CCBDDB7054582803971FE
:104760003ACE41673ECC06DE16DC1ADA1ED82AD6CF
:104770002ED432D236D042CA46C872C676C47AC265
:104780007EC013071710B767004023A4E740B73770
:10479000002083A707CF8297F250E2525253C253B0
:1047A0003255A255125682567247E2475248C248C5
:1047B000324EA24E124F824F216173002030397168
:1047C0003ECCB737002083A7C7CE2AD63ACE06DE26
:1047D00016DC1ADA1ED82ED432D236D042CA46C8D7
:1047E00072C676C47AC27EC001458297B767004020
:1047F000214723A6E740F250E2525253C2533255AA
:10480000A255125682567247E2475248C248324E6B
:10481000A24E124F824F21617300203039713ECC7D
:10482000B737002083A7C7CE2AD63ACE06DE16DCDD
:104830001ADA1ED82ED432D236D042CA46C872C630
:1048400076C47AC27EC005458297B767004021478B
:1048500023A8E740F250E2525253C2533255A255B8
:10486000125682567247E2475248C248324EA24E12
:10487000124F824F21617300203039713ACE3ECC05
:1048800006DE16DC1ADA1ED82AD62ED432D236D05C
:1048900042CA46C872C676C47AC27EC01147B7679C
:1048A000004023A2E740B737002083A747CF829775
:1048B000F250E2525253C2533255A255125682560A
:1048C0007247E2475248C248324EA24E124F824FC0
:1048D000216173002030EFB29FC4131425000945F5
:1048E000411133158500EFE0DFDA8547631FF500DE
:1048F000B7370020938787CFA2979C432AC6829719
:10490000324533158500EFE09FD941016FB07FC379
:10491000B70700200A0593870702AA9798431C430C
:1049200093E717001CC38280B70700200A0593870E
:104930000702AA979443416779179C42F98F9CC25A
:104940008280EFB2DFBD371E024003234E0101110A
:104950002ECE32CC36CA3AC83EC642C413631300C8
:10496000232A6E003733002093142500130383CFCE
:104970002693232013012A84EFF01FFB3705002024
:10498000130505022695832805006246617303A579
:1049900008003D03224833756500B2474247D246BE
:1049A000F24511C60543631166041365055005639E
:1049B000130303084D8D3365650023A0A80023A2CF
:1049C000080023A4D80023A6E80003A70800428615
:1049D000BE851367270023A0E8001305B401EF008C
:1049E000900C05616FB0FFB50563130303A0336539
:1049F000650075BFB70700200A0593870702AA97CD
:104A00009C43CCC38280B70700200A059387070226
:104A1000AA9798431C43DD8D0CC38280B707002002
:104A20000A0593870702AA979C43CCC39843136750
:104A3000170098C3828039712AD6014506DE16DC3C
:104A40001ADA1ED82ED432D236D03ACE3ECC42CA52
:104A500046C872C676C47AC27EC0EFF0DFE7F25075
:104A6000E2525253C2533255A255125682567247E1
:104A7000E2475248C248324EA24E124F824F216145
:104A80007300203039712AD6094506DE16DC1ADAA1
:104A90001ED82ED432D236D03ACE3ECC42CA46C8E8
:104AA00072C676C47AC27EC0EFF0FFE2F250E252E4
:104AB0005253C2533255A255125682567247E2479C
:104AC0005248C248324EA24E124F824F21617300AB
:104AD000203039712AD60D4506DE16DC1ADA1ED8CA
:104AE0002ED432D236D03ACE3ECC42CA46C872C656
:104AF00076C47AC27EC0EFF01FDEF250E25252530B
:104B0000C2533255A255125682567247E247524856
:104B1000C248324EA24E124F824F216173002030A4
:104B200039712AD6114506DE16DC1ADA1ED82ED4C3
:104B300032D236D03ACE3ECC42CA46C872C676C4CD
:104B40007AC27EC0EFF03FD9F250E2525253C253C4
:104B50003255A255125682567247E2475248C24811
:104B6000324EA24E124F824F2161730020303971B4
:104B70002AD6194506DE16DC1ADA1ED82ED432D211
:104B800036D03ACE3ECC42CA46C872C676C47AC245
:104B90007EC0EFF05FD4F250E2525253C25332550E
:104BA000A255125682567247E2475248C248324EC8
:104BB000A24E124F824F21617300203093F70601FD
:104BC00013F8F60099C33368C800B7170140631A99
:104BD000F500B7270240985BB707000FF98F91E304
:104BE000B58193F7F50FB9C31C410147854E3D4F81
:104BF000930F800293028004214E3396EE00B3F8A7
:104C0000C500631116039318270033131F011343C4
:104C1000F3FFB377F300B3181801B3E7F800639F0D
:104C2000F60550C90507E31AC7FD1CC19307F00F2D
:104C300063F5B70458412146854E3D4F930F8002DE
:104C400093028004414EB398CE00B3F715016392EE
:104C5000F8029317260081173313FF001343F3FF65
:104C60003377E300B317F8005D8F639DF601232AC5
:104C700015010506E319C6FD58C18280E39456FA72
:104C800010C94DB7E39756FE23281501DDB7EFB2E3
:104C90001F89C1460946EFF07FF26FB09F8AEFB2DD
:104CA0001F8881460D46EFF07FF16FB09F89EFB20C
:104CB0001F8791460D46EFF07FF06FB09F88EFB2EF
:104CC0001F8641112A84AE8409CE371702401C4F3B
:104CD00036C6854593E717001CCF3285EFE0BF9CB1
:104CE000B2460D46A6852285EFF05FED41016FB01B
:104CF0005F8508456D8D3335A00082800CC98280A8
:104D00004CC98280B567938747B99385C700B716AA
:104D100002409843904E9107598E90CED046598EBE
:104D2000D0C6D0461347F7FF718FD8C6E393B7FEBE
:104D30008280B707002083A7C768984B1E2393E79C
:104D400017001EA38280B707002083A7C768984B6F
:104D50001E2393E707201EA38280B707002083A7A6
:104D6000C768984B1E2393E707101EA38280B707DE
:104D7000002083A7C7689C4B8AAB8280EFB28FF874
:104D8000B70400201389C46803240900BA899384F6
:104D9000C4681CA076A050C44EA02314040028B000
:104DA000EF20C0288327090048C8054798CFEFF0B7
:104DB0005FF8832709009C4B962F898AF5FE96237E
:104DC00093E6064096A3EFF05FF994404E86FD55BA
:104DD000984A5E2393E707705EA38822EF20404B3A
:104DE0009C40984B5E23C207C18393F7F78FC2079D
:104DF000C1835EA31E23C207C183F99BC207C1837F
:104E00001EA3054781476303E50091473E856FB0C8
:104E1000AFF2EFB22FEFB70400201389C468032468
:104E20000900BA899384C4681CA076A050C44EA01F
:104E30002314040028B0EF20601F8327090048C80E
:104E40001D4798CFEFF0FFEE832709009C4B962F6C
:104E5000898AF5FED62393E60670D6A3EFF0FFEF1E
:104E60009C404E86FD558823EF2080429C40984B05
:104E70005E23C207C18393F7F78FC207C1835EA386
:104E80001E23C207C183F99BC207C1831EA38147AA
:104E900011E18D473E856FB02FEAEFB2AFE63704E0
:104EA0000020AE84B2893689EFF0BFE88327C4685A
:104EB0001304C468984B1E2F898BF5FFEFF0FFE9B0
:104EC00014409C4ADA2B058B75DFB8321377E70F55
:104ED0009AABDA2B098B75DF9E2F13D584007D8961
:104EE000EFF0FFE81C40984B5E2B93F70708EDDFCF
:104EF00013F5F40FEFF0BFE71C40984B5E2B93F7D0
:104F00000708EDDF814463E72401EFF0DFE30145AB
:104F10006FB08FE2B38799008823EFF05FE51C4004
:104F2000984B5E2B93F70708EDDF850493F4F40F9D
:104F3000D9BFEFB2CFDE370400200327C468411188
:104F400002C6084B144F2D465E29FD166361D60438
:104F500035668A06130606BAB2969442C207C18322
:104F60001304C4688286858B9DC33C3393F7E70F97
:104F70001EA989471CCF21A8898B91CB1E2D4A23BE
:104F800021817D89EFF0BFDE1C402D4798CF410184
:104F90006FB02FDB93F70708FDDB4823EFF03FDD11
:104FA0001C400D47E5B793F70708F5D3EFF0FFDA9C
:104FB0001C401147E1BF858BF9DB3C3393E71700B9
:104FC00093F7F70F1EA9954775B7898BE9D31E2D67
:104FD00099474DB793F70704DDDB0E277E2354472F
:104FE000138615004206FD174182AE9663D6F50082
:104FF0001E2912A79CA261BF1E21C207C18393F77D
:10500000F7BFC207C1831EA11E2912A79CA2EFF001
:105010009FD308407C0001470C2148498D46054636
:10502000EF20E05AB24791C7B7E700E0116723A02D
:10503000E7201C4023AC070099BF858BA9DB3C33DC
:1050400093F7E70F1EA9A14735B793F6074081CE26
:10505000B705001093850540EFE08FF5EFF0FFCF27
:105060001C401D4725B7898B9DD31E2D4A232181C6
:105070007D89EFF0DFCF1C40314709BF93F7070868
:10508000E38707F04823EFF09FCE1C402547FDBD86
:1050900093F70708E38D07EE16277E2363FCF600DF
:1050A0005C47B6978823EFF09FCC18401E278507F2
:1050B0001EA7F1BDA9477DBD918BE38A07EC81BF97
:1050C000EFB24FC4B75700409387074001112A84BD
:1050D000AE8432896312F502B7170240944BB705CC
:1050E00020003706E0FFCD8E94CB944B7D16F18ED9
:1050F00094CBD84F4D8FD8CF680083594400EFE050
:105100006FEED24737470F001307072433D7E70264
:10511000C20993D9090193F909FCC20993D909017C
:10512000B3E9E900C20993D9090123123401162019
:10513000C206C182F99AC206C18216A0B79698002B
:105140001386F667637AF60A93860668B3D7D702A2
:105150009166C207C183D58FA166D58F9306C01211
:105160003307D7029306803E3347D702050742072D
:1051700041831AB05EAC1E2093E717001EA01E20CC
:10518000C207C18393F757BF93E707401EA09167FB
:105190001EA4EFE0BFEF375700001307C7D758CD65
:1051A00037570000130727E118D1375700001307BE
:1051B000A7E9B707002058D13757004023A6A768B2
:1051C00000C9130707409389C7684A86A6856318F4
:1051D000E4021305F002C1284A86A68513050003E0
:1051E000D92083A709008145884BEFE0EFDAEFF083
:1051F0005FB405616FB04FB491678507B1BF130508
:10520000100355204A86A68513052003D1BF3971A6
:1052100006DE16DC1ADA1ED82AD62ED432D236D0C2
:105220003ACE3ECC42CA46C872C676C47AC27EC066
:10523000EFF03FD0F250E2525253C2533255A255D2
:10524000125682567247E2475248C248324EA24E28
:10525000124F824F216173002030397106DE16DC57
:105260001ADA1ED82AD62ED432D236D03ACE3ECC36
:1052700042CA46C872C676C47AC27EC0EFF07FCBFF
:10528000F250E2525253C2533255A2551256825630
:105290007247E2475248C248324EA24E124F824FE6
:1052A000216173002030854712066394F500136670
:1052B00006F8B7E700E0AA971376F60F2380C740F9
:1052C000935755000547938707043315A7008A07AE
:1052D00037E700E0BA9788C38280EFB2AFA2B71772
:1052E0000240D84FB7060018AA84558FD8CFB7769A
:1052F0000040984205452E891367071098C29853BD
:10530000C166B289558F98D39853C176FD16758FB3
:1053100098D3EFE0AFCA0144130AA00F130510049D
:10532000EFE02FD801ED631444016FB0EFA0050446
:1053300051451374F40FEF20605BCDB79307A00FB6
:10534000E305F4FEB7170240985321641367071072
:1053500098D39853418F98D3EFE00FDDEFE0CFDD86
:10536000373700408357078093E717002310F780F3
:10537000EFE08FDB1305F4FFEFE02FD8EFE0CFDA9B
:105380004E86CA854D45EFF01FF2B707002023A8CF
:10539000976861BF5D713ED2B737004022DE13844B
:1053A000078083D7078086C696C49AC29EC02ADC2F
:1053B0002EDA32D836D63AD442D046CE72CC76CA1D
:1053C0007AC87EC6858B89CFB707002083A7076977
:1053D00082975E20C207C183F99BC207C1835EA08A
:1053E000EFE08FD47254B640A6421643864362550E
:1053F000D2554256B256225792570258F248624E40
:10540000D24E424FB24F616173002030B717024055
:1054100029E9944F0566D18E94CFD847FD76FD16C5
:10542000518FD8C7D847758FD8C7F1779387C730C2
:10543000DD8D93172500138581803E951C41C205A3
:10544000C1818EA3DA2F13774710DAAF23980700B4
:10545000DA2313672700DAA39A23136707049AA3B2
:105460008280D44F1166D18ED4CF984BF176FD1641
:10547000518F98CB984B758F98CB45BF0A05938772
:105480008180AA979C431307F0FB9AA782800A05A4
:1054900093878180AA979C4301459E2782805D71F6
:1054A00022DE371400402ADC2EDA130504808545FD
:1054B0003ED286C696C49AC29EC032D836D63AD458
:1054C00042D046CE72CC76CA7AC87EC6EFE08FED67
:1054D0008547631AF500B737002083A7C7D28297A4
:1054E000F9572318F4807254B640A64216438643F7
:1054F0006255D2554256B256225792570258F24838
:10550000624ED24E424FB24F616173002030B56798
:105510000A05938707BDAA9798431E2393E71700B0
:105520001EA38280B5670A05938707BDAA97984393
:105530001E23C207C183F99BC207C1831EA38280B9
:1055400085476309F5060DC189476303F508B71759
:105550000240984B1367470098CB984B6D9B98CBB4
:10556000D84F136747009DA0B7170240D44705677F
:1055700013070780D98ED4C7D4477D761306F67FEC
:10558000F18ED4C7944F558F98CFB5671317250068
:10559000938707BDBA979C43DA219AA39A21DAB779
:1055A000BA219AB709E537370140231807C20547E2
:1055B000DAAB8280B7170240984B1367170098CB7D
:1055C000984B799B98CBD84F13671700D8CF75BFEE
:1055D000B7170240984B1367270098CB984B759BE1
:1055E00098CBD84F13672700D5B7EFA25FF301110F
:1055F000F08437A64A0413060620B355B6023736A0
:105600000020130646D12A843AC63EC4231E010058
:105610000A04EC85931535002E9614C22C08EFF081
:105620003FF23565130505BD22951041A24732476B
:1056300056261305E002BA8593E6160056A63E8666
:10564000EFF07FC605616FA0DFEFEFA25FEDB7A7B8
:105650004A0493870720B3D5B70201111319060135
:10566000135909012A84B68402C802CA02CC02CEA8
:1056700023142101231601000A046C852C00EFF08D
:105680003FECC167356593870707130505BD3EC825
:105690002295231B2101231C010093F714000041D4
:1056A00089CB0C082285EFE06FAB81452285EFE0C6
:1056B000EFCA93F7240089CB0C082285EFE0AFB046
:1056C00081452285EFE06FCA93F7440089CB0C082F
:1056D0002285EFE0AFB881452285EFE06FCAA1884F
:1056E00089C80C082285EFE0AFC081452285EFE034
:1056F0000FCA1E20216793E707081EA083574404A2
:10570000D98F2312F40405616FA0BFE3EFA23FE13C
:10571000B7A74A0493870720B3D5B702011136C64D
:105720002A84F084231E0100EC852C08EFF05FE151
:10573000B24689476392F606B567938707BD0A04A8
:105740003E941C4085669386F6CF9A334207418388
:105750003D9B420741839AB3922F9A33F18E4207C1
:105760001166418313060610D18E1377F7FD96AFAD
:10577000136707019AB3962F7D771307F73F758F4D
:105780009AAF9A2F420741839AAFDA2713674740AF
:10579000DAA705616FA0FFDAA147E39CF6FEB567C3
:1057A000938707BD0A043E941C407D761307F6FFDD
:1057B0009633116513050510758F9AB3DA2F856638
:1057C00003D807029385F6CFF98D79777D17C98DB8
:1057D000337707010565CEAF498F9AB3DA2F1306E9
:1057E000F63FC106798ED2AFDA2F42074183DAAF96
:1057F000DA27D98ED6A771BFEFA27FD2B5670A0587
:10580000938707BDAA978043A167FD1703574404F8
:10581000411102C27D8F2312E4040357440402C4E1
:1058200002C6F98F2312F404C167938707063EC0AE
:1058300089477C84708393F71500AE8489C78A8575
:105840002285EFE0AF9193F7240089C78A852285EE
:10585000EFE06F9793F7440089C78A852285EFE0D0
:10586000EF9FA18889C48A852285EFE06FA88357BE
:1058700044042167D98F2312F40441016FA07FCC27
:10588000B5670A05938707BDAA979843A166835712
:105890004704D58F2312F7048280AD673737004065
:1058A0009387A7AA1CC382801567B73700401307E8
:1058B000575598C31147D8C31307102798C72D67AA
:1058C0001307A7AA98C335671307C7CC98C382806C
:1058D000938701909843636FA702D043B386C700B4
:1058E0006316D50054413E85B296D4C35041B306E9
:1058F000C500631CD700B706002083A6466963066F
:10590000D70054431843B29654C118C16303F5003D
:1059100088C38280BA877DBFEFA2DFBE41112AC64D
:10592000EF108008B706002083A7466937060020DD
:1059300093864669130686693245A9EB37370020FE
:105940009307C7D393F5F7001307C7D381C5138710
:10595000F700419B938501909387071FC19B23A26A
:10596000050098C123A2070023A00700B385E740E4
:105970009CC21CC3B707002023A0B76AB70700204A
:1059800023AEB768B70700804CC31CC2032A0600C9
:10599000B377AA0085E39307F5FF3957636CF700E7
:1059A0009307050113F7F70049C313F707FF4107F2
:1059B00063ECE706814491A022872E8459A058C148
:1059C0005CC0EFF0FFF05840B70600209386066AEF
:1059D0009042B307E94023A0F90063F3C7009CC2DB
:1059E000B70700203367EA009387476A58C0984397
:1059F000C10423200400050798C3EF10001493F797
:105A0000F400C1CB8967938707807390073037D63E
:105A1000000037D50000130646BE9305001113059C
:105A2000C5C0EF50905B01A0BA873707002003295B
:105A3000C7699309C769E36FF9F603A40190138757
:105A4000019050406374F6000C40BDF59442E3832E
:105A500086F61440044314C33307F640930600024D
:105A6000E3F3E6F63305F4009376F500A9DA8967E7
:105A7000938707807390073037D6000037D5000032
:105A8000130646BE9305F00C1305C5C0EF50F05445
:105A900001A0268541016FA03FAAB7E700E041576A
:105AA0002387E7402386E740B7F700E023A00700FD
:105AB00023A20700814694C70147D8C737070020B3
:105AC0008325875A1307803E814633D6E5023D473A
:105AD00090CBD4CB98C38280EFA27FA4411102C6A1
:105AE000F32750303EC6B2470D478D8B6384E702E3
:105AF0008967938707807390073037D6000037D5C2
:105B00000000130606C39305600B1305C5C0EF50D4
:105B1000D04C01A0B757002093870700BD8B9DC3D1
:105B20008967938707807390073037D6000037D591
:105B30000000130606C39305B00B1305C5C0EF5054
:105B4000D04901A0EFF07FF5B7E700E0116723A08F
:105B5000E710056723A0E71023A80180EFA04FFA04
:105B6000014541016FA0FF9D397106DE16DC1ADA8E
:105B70001ED82AD62ED432D236D03ACE3ECC42CA05
:105B800046C872C676C47AC27EC073110134896772
:105B90009387078073900730B7F700E023A20700D0
