:100000006F30C04213000000130000001300000016
:100010001300000013000000130000001300000094
:100020001300000013000000130000001300000084
:08003000130000007300100032
:100038000000000000000000FE0D0000000E00009F
:1000480000000000C43300000000000000000000B1
:10005800C6330000C83300000000000000000000A4
:10006800BC6000000000000000020000000000006A
:10007800CE330000D0330000D233000060570000B8
:10008800D6330000D8330000DA330000DC33000038
:10009800DE330000E0330000E2330000AE4D000024
:1000A800E6330000FC4D00004A4E0000984E000068
:1000B800EE330000E64E0000F2330000AA4A0000CA
:1000C8000A4B0000684B0000C64B0000FC330000E0
:1000D800FE33000000340000023400000434000045
:1000E800063400000834000022590000DA550000E8
:1000F80026560000103400001234000014340000AA
:1001080016340000183400001A3400001C340000B3
:100118001E34000020340000223400002434000083
:1001280026340000283400002A34000000000000B3
:080138000000000000000000BF
:10020000130181F806C216C41AC61EC822CA26CC1B
:100210002ACE2ED032D236D43AD63ED842DA46DC76
:100220004ADECEC0D2C2D6C4DAC6DEC8E2CAE6CC46
:10023000EACEEED0F2D2F6D4FAD6FED8F3220030CF
:1002400096DA83A2419123A02200F32510342EC018
:1002500003A10187EF70E01603A34191032103007E
:10026000824273901234D652739002309240A2426E
:100270003243C2435244E244724582551256A2565A
:100280003257C2575258E25872598649164AA64AFE
:10029000364BC64B564CE64C764D865D165EA65EDA
:1002A000365FC65F13018107730020301300000022
:1002B00013000000130000001300000013000000F2
:1002C00013000000130000001300000013000000E2
:1002D00013000000130000001300000013000000D2
:1002E00013000000130000001300000013000000C2
:1002F00013000000130000001300000013000000B2
:1003000083A20187938202E07390023403A141919A
:10031000024182403243C2435244E2447245825514
:100320001256A2563257C2575258E258725986494D
:10033000164AA64A364BC64B564CE64C764D865D61
:10034000165EA65E365FC65FD652A102739002307B
:10035000A2421301810782801300000013000000F5
:100360001300000013000000130000001300000041
:100370001300000013000000130000001300000031
:100380001300000013000000130000001300000021
:100390001300000013000000130000001300000011
:1003A0001300000013000000130000001300000001
:1003B00013000000130000001300000013000000F1
:1003C00013000000130000001300000013000000E1
:1003D00013000000130000001300000013000000D1
:1003E00013000000130000001300000013000000C1
:1003F00013000000130000001300000013000000B1
:10040000F322003093F272FF130380181203B3E259
:100410006200711523205500130585FA10C12115BE
:10042000232005009302000063870200711523203A
:100430000500FD12D5BF71150CC1828000000000BF
:1004400000000000000000000000000000000000AC
:10045000000000000000000000000000000000009C
:10046000000000000000000000000000000000008C
:10047000000000000000000000000000000000007C
:10048000000000000000000000000000000000006C
:10049000000000000000000000000000000000005C
:1004A000000000000000000000000000000000004C
:1004B000000000000000000000000000000000003C
:1004C000000000000000000000000000000000002C
:1004D000000000000000000000000000000000001C
:1004E0000000000000000000000000000000397162
:1004F00001436EC619A0397141536AC866CA62CCFD
:100500005ECE19A0397101535AD056D252D44ED66C
:100510004AD826DA22DC06DE3301614082824111AC
:100520004AC026C222C406C68282B24D4101024D93
:10053000924C224CB24B4101024B924A224AB249A0
:100540004101024992442244B240410182803D432C
:100550002A876373C3029377F700BDEFADE5937607
:1005600006FF3D8ABA960CC34CC30CC74CC7410763
:10057000E36BD7FE11E28280B306C3408A0697027E
:10058000000096966780A6002307B700A306B70071
:100590002306B700A305B7002305B700A304B700DF
:1005A0002304B700A303B7002303B700A302B700D7
:1005B0002302B700A301B7002301B700A300B700CF
:1005C0002300B700828093F5F50F93968500D58DB3
:1005D00093960501D58D61B7939627009702000089
:1005E00096968682E78086FA9680C1171D8F3E9682
:1005F000E374C3F8A5B73705002013054561828071
:1006000037050020130505618280B707002023AC61
:10061000A7608280EFF23FEEB70500203971938525
:10062000C560014537040020EFA080592324A46051
:100630001304846019E1EF10B07D1C4037070020DF
:1006400003278761DC4398C3EF70B06BEF70706E67
:10065000EF00A06D2313A10202D6EF0000701C4032
:10066000A302A102DC43884323AA0700EF70506F66
:100670001C40C843EF8080020840035661025C4181
:100680008C43EFA0006419C1EF109078B7070020E9
:100690009387473E98530840930661023AD8D8534F
:1006A000130651020C183ADA9857DC573ADC3EDE52
:1006B000EFA0806419C1EF10B07583A6C181034912
:1006C0005102032A040036CEEF00C0689307401F92
:1006D0003EC0F24689679309C102C507C98F4EC65D
:1006E0004AC402C29308803E1308401F01470146D6
:1006F00081455285EFA0606311C5B5576304F500CD
:10070000EF101071084003A6C1814E874C49CA867C
:10071000EFA0206D19C1EF10B06F1C409C4399C32E
:10072000EF10106F1C40B70400208969C843130AFA
:10073000803EEF70F06323AE0460EF701061EF60F5
:1007400050152A8902D49384C461938909719C400D
:1007500089CBB707EFBE37E700E0938707083CC7B0
:10076000FDBFA25503A54196B3D54503EF60A01583
:10077000EF70305C4ED4EF60D01133062541330664
:100780004603AA8A0840341081455689EFA00074B8
:1007900088C003A58196814601468145EF50905956
:1007A000EF70B05A6DB7EFF2FFD54111EF7070588E
:1007B000EF60300E89692A8402C6130A803E93894D
:1007C0000971370B0020EF705058B24503A5819690
:1007D00013098B60B3D54503A284EF60C00EEF70A0
:1007E0005055832709004EC695CFDC43DC4B9DCB8B
:1007F000EF60300AAA84032509001C4185E75C41AB
:10080000DC4B8DC33384844033044403740081453E
:100810002286EFA08073032509007400228681459B
:10082000EFA0A076268445B73705002013050562A2
:100830008280EFF2DFCE3704002013040462084008
:100840004111EF60C02911CD08407D566C00EF507A
:10085000307128871086938581978946AA95EF3055
:1008600050404101F9B9938781973E9593D7850010
:100870000CA11CB193D70501E1813CA12CB1828070
:10088000938781973E950CA1A1810CB182809387BB
:1008900081973E950CA18280EFF27FC8AE8693854A
:1008A00081970946AA95EF30D03B61B9938781972C
:1008B000AA97983388232207598D8280938781973E
:1008C000AA979833A82322074205498F8823498F86
:1008D000A8336205598D8280EFF2DFC20111130641
:1008E00060228145138581979D3189461306002139
:1008F000938581970145EF30B0416319052E13842C
:1009000081971820930740046300F72C9387C183D5
:100910009843DE23B706000318C03707000113060B
:1009200007105EA0930740027CB410D4B7070005FF
:1009300030CC70D0374605011CC813065660B70787
:100940000024938506105CC830D893070050378682
:1009500005001CCC4CD493070010B7050078130693
:100960000680296558CC1CD058D01CD878C87CCCBF
:1009700038D03CD470D834DC232A04029386062075
:10098000232C0402232E0402232004042322040423
:10099000232404046CC428C86CD474DC2316F40A21
:1009A000231CF40AE147A301F40CB7070015B706AE
:1009B000001A89072328D4082322F40CB7F6030170
:1009C000B70712039386468093871750232AD408CB
:1009D0002324F40CB7260400B7170504938606A059
:1009E00093870730232CD4082326F40CB706000283
:1009F000856713060020232ED4082324E40A938657
:100A00000620054793873740B5692320C408232271
:100A1000040823240408232604082320D40A2322BC
:100A2000C40A2307040AA30BE40A230D040A2318AB
:100A3000F40C9389092A9304200D130A400E83D5E0
:100A4000090026858904C204C1801D3D8909E398F7
:100A500044FFDD47856529457CA43135B7970112F0
:100A6000C9072322F40E930700192314F40EB56965
:100A700091472305F40E938989249304D00E130B18
:100A8000501383DA090026859109D685D53B03DA10
:100A9000E9FF138524004205D2854181D5331385B2
:100AA00004054205D6854181E13B13852405910467
:100AB0004205C204D2854181C180D933E39364FDEC
:100AC00081451305D0186D3B81451305F0184D3B4A
:100AD000D145130510196D33E545130530194D3314
:100AE000E54513055019693B93052003130570195B
:100AF000413BF945130590196133930570081305BF
:100B0000B019BD3B93078002A30EF41CB705003E4D
:100B10008567938707A0D5051305501E231FF41C76
:100B20002300041E8933B7050076ED051305901EDA
:100B30001D3BB7053F78CD051305D01E2D33B705F6
:100B40000071D1051305101F393BB7057978C90528
:100B50001305501F093BB7057350D9051305101E27
:100B60001933B705006DDD051305901FED39B70585
:100B7000003FE9051305D01FFD31F1451305102095
:100B8000DD31814513055020F9399D478946A3047D
:100B9000F42013060021954793858197014523157D
:100BA000F420EF30100C1306002181451385819746
:100BB000793A2945EF60C07A89461306002193856A
:100BC00081970145EF30D014138A418381490D4B41
:100BD000834A440E4E85FD1A93F5FA0FEF3000401C
:100BE00059C185090D04090AE39469FFB70700207C
:100BF00023920762056189B203550A0013160901A1
:100C0000418293142600AA94C204C180268532C66C
:100C1000713942054185EFB0201B2AC81385240095
:100C2000420541816131EFB080262ACA1385440014
:100C300042054181A53942054185EFB0E0182ACC33
:100C400013856400420541819531EFB0402432465E
:100C50002ACE0C084E850509EF3060431379F90F51
:100C6000E34C59F9BDBF0149E5BF938781973E9594
:100C700008218280EFF2BF8A41112A842800B284C1
:100C8000EFB000368947638FF40291476380F40424
:100C900085476397F400188493878197A29798A358
:100CA0009307F02063ED8700B707002003A50762D4
:100CB00081467D566C0060874486EF50B007410145
:100CC0006FF03F882C842285653ED9BFA2452285DE
:100CD000593EF9B7EFF2BF8441112A846800B2840B
:100CE000EFB000308947638AF4029147638BF402C6
:100CF00085476397F400188693878197A29798A3F6
:100D00009307F02063E88700894626866C002285D9
:100D1000EF30207541016FF0DF822C8622858D3601
:100D2000C5B7B24522858136E1BFEFF24FFF894555
:100D30000545EF30300121479307401F6369A70045
:100D4000931715003565130505293E951E213E852F
:100D50006FF02FFF13050010828003C5C1978280BA
:100D6000EFF2EFFB37040020130444621E20130748
:100D700070168507C207C1831EA0637AF700194564
:100D8000353E930515001945F93C2310040029450B
:100D90003536AA8403C561988145D928EFB0C002D1
:100DA000B7D7000083A5472BEFA0C058B7D70000E6
:100DB00083A5872BEFA000582A842685EFB0200D4D
:100DC000AA852285EFA06020EFA0B07AAA852945E8
:100DD000593C6FF00FF7EFF28FF421469385E197BE
:100DE0001945EF30805E6FF0CFF5EFF24FF32945F4
:100DF000F134930740063355F5026FF08FF401A0EC
:100E000001A0EFF2CFF101112E84AA85194542C647
:100E10003EC83ACA36CC32CEEF10E044A285154522
:100E2000EF10604472461145B285EF10C043E246B0
:100E30000D45B685EF10204352470945BA85EF109E
:100E40008042C2470545BE85EF10E041324801456A
:100E5000C285EF10404105616FF0AFEE370500200D
:100E6000130545638280B707002023A4A762828010
:100E7000EFF2EFEA9307F5FF7147636FF7103567FD
:100E80008A071307C72BBA979C432E8982871305BD
:100E9000152142054181D13B2A8422856FF06FEAFA
:100EA0001305152142054181EFF05FA0F5B7391513
:100EB0009374F50F2685EF00B078AA852685EF306C
:100EC000A007B7D7000083A5472BEFA0F002EFA043
:100ED00030642A84E30309FC0D453385A40213051D
:100EE000550EEFF0BF9C2A944DBF0D45EF00507595
:100EF000B7D7000083A5472BEFA01000EFA05061EB
:100F000061BF0145EF30E033AA841305D01DEFF037
:100F1000FF99EFA0D077B7D7000083A54738EFA09F
:100F200060412A842685EFA0306AAA852285EFA039
:100F3000A07CEFA01064EFA090755DBF0545EF3079
:100F40004030AA841305F01DD9B70945EF30E01FE2
:100F5000A1B7613D91B71945EFF05F9635BFB7076F
:100F6000002003A4876215BF1305C020EFF01F9572
:100F700013548540930740061374F40F3304F402AE
:100F80009377F50F41851375F50F3E948967938725
:100F900007713305F50281BF014401B7138701BC16
:100FA00083468702938701BC13962600329710432D
:100FB0007147631EE60203C7970315CBC85B05C9DB
:100FC00003C7170309C7A38C0702A388070203C737
:100FD000970393080002054805071377F70F9375E9
:100FE000F70F63F5B802A38C0702A38807021387E3
:100FF000160083C687031377F70F2384E702636421
:10100000D7002384070223A6070282803316E80054
:10101000698E050769D6A38CB7028280938701BCCD
:1010200003C7970223A607022384E7028280EFF218
:101030000FCF938501BC83C7850205469385950232
:101040009CA11305902079316FF0AFCF03C581BE0D
:101050008280A94763E6A7002384A1BE0145828060
:1010600005458280A94763E1A702EFF24FCB938544
:1010700001BCA384A5020546938595021305902023
:10108000D53E01456FF0EFCB05458280938701BCCB
:1010900083C6870203C797026385E60203C7170367
:1010A0000DE3D8573A95C8D783C7A7021307803EE8
:1010B000B387E7026367F500EFF26FC685376FF01D
:1010C0004FC8828001C9F147630AF500A147014575
:1010D00063F5B700238CB1BE054582802388B1BE7D
:1010E00001458280EFF20FC2138501BAEF70C01E76
:1010F00013059020938401BC8D3EA384A4021305A4
:10110000A020EFF09FB683C794022385A402238C0E
:1011100004022384F402138901BC8144138401BCBA
:10112000054AA949139524001305151E420541815E
:10113000EFF0CFF82320A90093F5F40F1375F50F06
:1011400051376306450185041109E39D34FD232AC7
:101150000402A30C0402232E0402230004046FF0F3
:10116000AFBD138701BC5C5FA9C383470704930627
:101170008002850793F7F70F2300F70463F5F60065
:1011800023000704828055476371F702EFF22FB9FD
:1011900001449D442285050481451374F40FEF102A
:1011A000800CE31994FE6FF0CFB98280138701BCE5
:1011B000585B938701BC6309A70483C60703A9C6CC
:1011C0001347F7FF698FC8DBA38C0702014601456F
:1011D000854813080002B395C800F98D9376F60F81
:1011E00081C919C1A38CD7020547A388E702828071
:1011F0008506050693F6F60F0545E31E06FDA38C4E
:10120000D7027DF3A38807028280138701BC83463F
:1012100017030547938701BC6396E60003C70703DE
:101220002384E70203C787020A07BA9788438280AC
:10123000EFF2EFAE41112A8432C42EC6EFF00FE771
:10124000B2458AA11305240042054181EFF00FE663
:1012500022460AA241016FF0CFAEEFF24FAC41112E
:101260002E841306E1006C00E1373887014505C381
:101270003C86014589CF63E9E700636AE400B3B7C0
:10128000870013C5170021A00545E36AE4FE41016C
:101290006FF02FABEFF2AFA82A848DE101468945AC
:1012A000EF00907701468D452285EF00F0760146EC
:1012B00085452285EF0050766FF0AFA8B144B304A6
:1012C0009402AE873E858545EFF09FBA131905015C
:1012D00013590901CA851385B40141372A86894506
:1012E0002285EF007073CA851385F401BD372A8605
:1012F00085452285EF005072CA8513853402B13FBF
:101300002A868D457DB7EFF20F9F4111AA8AAE84E0
:101310003D456C00B2891306E10036893A8C3E8B5C
:10132000428DC68C0354410421372886835BE1003B
:1013300033057541EFA05029B7D7000083A5873842
:10134000EFA0803B2A8A636E340333857941EFA096
:10135000B027D285EF90107EEFA0B0212300AD0022
:1013600033053441637489003305394142054181B5
:10137000EFA0F031D285EF90F07BEFA0901F23809B
:10138000AC00636D540333857A41EFA0F023D2851E
:10139000EF90507AEFA0F01D2300AC0063E38402CD
:1013A00033045441131504014181EFA0502ED2851E
:1013B000EF905078EFA0F01B2300AB0041016FF0DD
:1013C0000F9733845441F9BF03480100388263F614
:1013D000A5026374A70063E6E6006379B700637F44
:1013E000E602238008012380070182806364D7001E
:1013F000E37BE6FE2380080182806377E600E362F8
:10140000B7FEE379D7FE19A06375D700E36BE5FC5F
:10141000D5B7E371B7FEE368E5FCE9BFE36CD7FC41
:10142000D9B7EFF2CF8F79712A892E84B2846C10EC
:101430001306E1023D4536CE3ACC3ECA42C846C606
:10144000C53BF246B2484248D247624763F486023F
:1014500063EB260163E9280163E916012300070114
:101460002380070129A0E3FD16FF23000701456142
:101470006FF02F8D6367940063E59800E36214FFBB
:10148000F1BFE37414FFE9BFEFF26F89EF60002F43
:10149000B707002023ACA762B707002003A5476366
:1014A00001478D4611468145EF60206E6FF06F89D0
:1014B000EFF26F8439717D5774181306F00F814570
:1014C0000145EF60605EF257918BF5D7EFF09FC159
:1014D000938701BB23A0070023A2070023940700E2
:1014E00023A60700B707002003A5876301478946A5
:1014F00001468145EF606069B7D7000083AB87384C
:101500008149138401BB370B0020138901BC138A66
:101510004184938A81842945EF509064856537150D
:10152000014093850580130505C0EF305030054715
:101530006310E50C5C4091C708C02322040023140B
:101540000400930CCB6203A50C004444130CCB6243
:1015500063160524854789E483471903B337F000F0
:101560002945232EF902EFF07FB21C400547639511
:10157000E700E9E4EFF09FA2B707002003AC876221
:101580006285EFF0BFC25131AA84F1471375F50FA0
:10159000631CF51E63060C0C8326490383479903DD
:1015A00001468545130500023397F500758F45C345
:1015B00019C2A30CF90283479903294635678507A9
:1015C00093F7F70FB3F6C7021307873E930500059D
:1015D00013059007B3D7C702BA9603C806001306CF
:1015E00000058146BA979C230147EFF09F81DDA259
:1015F0001E2454408507C207C1831EA485E291467C
:10160000E3F1F6F458C013077025637CF7008D47AB
:101610005CC485471CC089475CC025B7E393E6F2EC
:10162000DDB71307F0186375F70089475CC411BF75
:101630001307700CE377F7F08547CDBF0D4763952F
:10164000E4002320FC000DBFEFF07F9E35B7850737
:1016500093F7F70F6373F50081470546B1F691BF25
:10166000EFF0DF93EFF0FFAF184085476316F70008
:101670002320040023260400850993F9F90FCD47A0
:10168000E3FB37E98144B9491385340C42054181B4
:10169000EFF0AFDDAA8513F5F40F8504EFF09FBFDF
:1016A000E39434FF1305100DEFF02FDC2306010245
:1016B000A306010223070102A307010249C58545CC
:1016C000EFF00FFB131C05011306A1032C182A8D44
:1016D0003D45EFF0FFB55018930561034D45EFF020
:1016E0003FB51018930521035D45EFF07FB4835794
:1016F000A10303558103135C0C011D8DEFA0C06C89
:10170000DE85EF90707FAA8C1545EFF00FD603565B
:1017100041038354010383592103835661036315F5
:10172000052A63E4990063F0C60262C266C09308AA
:10173000D1021308C1029307F1021307E102CE851B
:101740002685EFF05FBC8346D1020346C102834584
:10175000F1020345E102EF00302713050021EFF00D
:10176000EF949377F50F014591CB1385F7FF137530
:10177000F50F130595060605EFF04F93EF00904C1B
:101780008149EF00305641BB8145EFF06FEEAA85ED
:10179000054613D50401EF00F038E9B5054D631097
:1017A000A50D93B71400232EF9021C40370C00201E
:1017B000130C0C636398A70083470C0085E0850732
:1017C0002300FC0003450C00A14763FEA7048547E6
:1017D0002300FC000145EF00D03269B5194763874B
:1017E000E702636DF700F9DFFD1735678A07130716
:1017F0000733BA979C4323A0FC00E9B72147E39342
:10180000E7FCEFF0BF8123A00C006DBF89451305F5
:10181000D01DEFF06F8889451305F01DEFF0CF87DD
:1018200023000C0045B79D47631CF50081457545B5
:10183000EFF00FE4AA8501461565EF00B02E59BF01
:10184000B307F5023565130545343E950348650039
:101850005C315821343130210C31082179B3938720
:10186000F4FF93B71700232EF902994763FCA702F0
:1018700065151375F50F131715009387C184BA9773
:101880008623EF00E05BEFA0A048A945B305B502B1
:1018900005462685EF0010291C40E38507DC23A0C0
:1018A000AC01C9B3B70C002003C71C631C40938C68
:1018B0001C63631CA705E38707DA2320EC00238061
:1018C0000C008D476394F40483260C008547238025
:1018D000FC00F51693B7260093C71700139717005F
:1018E00093874185BA9786238547014563F3D700DF
:1018F00009451305D51D42054181EFE03FFBAA854F
:1019000001462685EF00102211A0C5FF83C70C00F9
:10191000E39A07D483240C0093F71400B9CFF5148D
:101920003335900093141500B3879A0083DC0700C9
:1019300081455905EFF0CFD3AA8505466685EF00AE
:10194000701E1C40E38007D25C4405476398E700A3
:1019500083270C0085072320FC0029B3E39407D0DC
:101960009384D41D2685EFE07FF493051500C2050E
:10197000C1812685EFE0DFF0F5B1F114B3349000BA
:1019800093971400D29783DC070081451385640187
:10199000EFF00FCEAA8505466685EF00B0181C4013
:1019A000E38207CC5C4405476396E70083270C007D
:1019B000FD1755B7E39807CA9384D41D2685EFE039
:1019C000FFEE9305F5FF65B713150D01418136CE86
:1019D00032CCEFA0603FE685EF90D015EFA06039E4
:1019E0001378F50F6246F24663E4990063F1C6028C
:1019F00042C062C29308D1021308C1029307F102E8
:101A00001307E102CE852685EFF01F9C2DBBE288EF
:101A10009307D1021307F102CE852685EFF07FA050
:101A20001DB3EFE2DFAF37150000154685451305FE
:101A300005D637140140EF3010478564938504C202
:101A4000130504C0EF30605837061800914613069E
:101A50000610A145130504C0EF30A0599146014678
:101A60009385048013050480EF30A0589305F0049B
:101A700013050480EF300053E14601469305000A48
:101A800013050480EF30E056A965E14601468D0557
:101A9000130504C0EF30E055C14513050480EF3055
:101AA000E04D93850401130504C0EF30204DE1465D
:101AB00037461D0093050020130504C0EF30605326
:101AC0009306800437461D0093050010130504C0DB
:101AD000EF302052F14601469305000C130504C077
:101AE000EF302051B7450F00B1461306803E938575
:101AF00005240945EF30107B0945EF309069814599
:101B00000145EF00701581450545EF00F014930481
:101B100004C0930500022685EF3060517DD9EF2087
:101B2000403E85450145EF30304B85450545EF305A
:101B3000B04AB7260000B7450F008D47054793868A
:101B4000865013064006938505240D45EF30D06C72
:101B50000D45EF301064EF40E02005468545014516
:101B6000EF30B011C145130504C0EF30004D3765AB
:101B7000004013050540EFE05FA96FE09F9CEFE296
:101B80001F9A81450145EF00300D81450545EF0065
:101B9000B00C0D45EF3050610545EF30905F0145C9
:101BA000EF30305F6FE0FF9937F700E0832707D110
:101BB000B7060080D58F2328F7D08280EFE23F96CA
:101BC00037250140814513050540EF10B014370556
:101BD000002003258564B7070020138407650147AB
:101BE000938707658D460546894523200400EF60ED
:101BF00040141C4091C7B7E700E0116723A0E7201D
:101C00006FE03F94EFE2BF913704024013054404B4
:101C10008145EF10B041BD4513054404EF1050421B
:101C20000145EF202059854513054404EF1010406D
:101C30006FE03F91EFE2BF8E3704024013050408C6
:101C40008145EF10B03EBD4513050408EF10503F2D
:101C50000545EF202056854513050408EF10103D7B
:101C60006FE03F8EEFE2BF8B89476308F5008D4739
:101C70006300F50201456FE0DF8C930500403715E6
:101C80000140130505C0EF30803A1375F50FE5B735
:101C900093050002EDB7EFE29F8891E93715014007
:101CA000C145130505C0EF3040396FE09F893715F6
:101CB0000140C145130505C0EF30E038FDB73705D9
:101CC0000020130585648280EFE27F85EF50102BA2
:101CD000B707002023A6A764B707002003A58764E1
:101CE00001478D4611468145EF50306A6FE07F8590
:101CF000EFE2FF8203A7818793878187DC230111AD
:101D00003008954501453ACC230EF100EF20F00C48
:101D1000EF20203EB72700002A879387C7BBB7264E
:101D20000140370502403EC08D48054881479386F3
:101D3000C644054681452105EF20F07305616FE03B
:101D40005F80EFE2CFFA4111EF20A03A2A84130915
:101D5000E501AA84039504008904EF205000239F25
:101D6000A4FEE39924FFB7D70000B7D9000037DA03
:101D7000000083AB4739B7D70000832ACA3803ABCA
:101D8000093903AC8739938441C001493E244A286C
:101D90008D4DA6853E951E20137DF90F3E9533553A
:101DA000B503938C01C142054181EF60404D63074B
:101DB000BD0791476309FD04EFA0600D8325CA3874
:101DC000131D2900669DEF90301383A50939EF900C
:101DD000B012DE852AC6EF903012B247AA8D03A555
:101DE0000C01BE85EF90503AAA856E85EF90805425
:101DF0002320AD000509954709048904E318F9F883
:101E000041016FE08FF2EFA08008D685EF90D00EF1
:101E1000DA85EF90700E23A8AC00E9BFEFA0200791
:101E2000E285EF90700D83A50939EF90F00CB7D7DC
:101E3000000083A5C739EF90401923A6AC005DBF11
:101E40000A05938701C1AA9788438280EFE22FEAAF
:101E500083A7C18139718149D843814793064714CB
:101E600091C60327C71419C39307C700370A002078
:101E70002322FA64B7D7000083AA073AB7D7000035
:101E800003AB473AB7D7000083AB873A8144054498
:101E9000130A4A64372C0000DE8C05490947914734
:101EA000630E2403630F04186309E41AE31AF4FEB3
:101EB000EFF0FFCCEF10603CEFE0FFF12945EF5071
:101EC000204A37150140C145130505C0EF30A01762
:101ED0000544EFF07FCDD1B71144C1B77D57340829
:101EE0001306F00F81450145EF50103CE247918BFE
:101EF000CDD7EFF0FFDFA9474C103EDA3ED80D45B5
:101F000093074CC63EDE22D4EF20E0201305B0201C
:101F1000EFE0BFD57D15133515002AD44C100945C7
:101F2000EF20601FB7270000938767C96C08014541
:101F30003ED022D4EF20801C138441C5138541C5B7
:101F4000EF60803913050401EF600039138441C24A
:101F5000D685138541C2EF60803513058400D68590
:101F6000EF60E034138441C3DA85138541C3EF6029
:101F7000203613050401DA85EF608035814501457F
:101F8000EF20E01D85450545EF20601D3D641306EB
:101F900004A6A1469305007D0145EF30103F1306CE
:101FA00004A689469305007D0545EF30103E0145A6
:101FB000EF20C027B727000037040240938747C0AF
:101FC000B73601402A878D480548938606C40546E2
:101FD0008145130544043EC08147EF20D0490545A3
:101FE000EF20C024B7270000938747C3B7060040FF
:101FF0002A878D48054893868603054613050408FD
:102000003EC081458147EF20104713050408BD45B8
:10201000EF10100313054404BD45EF1070021305C3
:1020200044048545EF109000854513050408EF1022
:10203000E07F0145EF30F0150545EF309015014484
:10204000A9BDB707002003A5C7640147894601461B
:102050008145EF509033094489B5EF208009AA8566
:10206000370502403D462105EF20B050EFE06FFC00
:102070000545EF50E02E014734081306F00F814567
:102080000945EF5070220589E30905E0EFF07FCBA9
:10209000EF208029638A2409ADC8E39084E03709E2
:1020A00000201309C963494DD94D85456A85EFE084
:1020B0003FDC83570900420541816385A700231057
:1020C000A9008549050D0909E311BDFF03A5C1C19B
:1020D000E685EF904051E351A0E00D45EF20E0068A
:1020E000E30C05DE4C100145EF20E01C894763132B
:1020F000F50085494C100545EF20E01B8947630A30
:10210000F50463980904814949BB0D45EF20E003BC
:10211000E30505D803A5C1C1DE85EF90C04C13458A
:10212000F5FF9354F50195BB0945EFE01FB4AA856F
:1021300001451D260D45EFE05FB3AA850545292E13
:1021400037150140C145130505C0EF20106F8944C4
:10215000A9B383270A00C5DB9823759B98A365B7AD
:10216000EFE2EFBB3705024013050503EF20302FE8
:102170000145EF30C06E05440145EF30606FE30D5F
:1021800085FE37150140C14513050580EF20F06A33
:102190006FE02FBBEFE2AFB83705024013058505AE
:1021A000EF20F02B0545EF30806B0545EF30406C9C
:1021B0008547E30CF5FE371501408565130505C01D
:1021C000EF20B0676FE0EFB7854706063396C7008C
:1021D000060589473395A700014781476312B70277
:1021E000139507014181C183814501476390D50261
:1021F000598D4183938641C7D98FEAA29EA68280DA
:102200000507C98F1377F70F0A05C9BF8505518FD9
:1022100093F5F50F0A06D9BF35671307473F2A978D
:102220001423B5679387474013971600938641C7D9
:10223000BA9613878185BA95AA979C2303C7F5FFA1
:10224000039806003317F700931707010547C18766
:102250006316E600B367F8009EA2828093C7F7FF7B
:10226000B377F800D5BF994763ECA708B5679387A4
:10227000C73A0A053E951841B7070020938747657E
:1022800002879A2393D65500AE05719B558F9AA36A
:10229000BA231377F77F4D8FBAA38280BA238E05B6
:1022A000137737C0CDBFBA2393D64500B205619BE3
:1022B000558FBAA3DA23520751834D8FDAA3828058
:1022C000DA23FD76FD06758F9605C5BFDA2393D612
:1022D0002500FD8A019B558FDAA3FA23BA054A0728
:1022E00049834D8FFAA38280FA23F1769386F6070D
:1022F000758F9E05FDB7FA23137707F8D98DEEA3E6
:1023000082803707002093074765BE231307476580
:1023100009C593E707403EA3828093F7F7BFC20742
:10232000C183D5BFEFE22F9D41112A89AE84014BB5
:1023300063D50500B304B040054BB7470F00938742
:10234000F72337871E00A6971307E7476365F7044F
:10235000E1679387F76937170300A6971307E7D359
:10236000636FF70A89679387F7701567A697130756
:10237000E7E16369F70A9387743E1307E07C6366BD
:10238000F70A938734061307600C89498D4A636600
:10239000F700894A19A081499D4AB56B014A938B80
:1023A0008B3E294CB3E78403528513041A0032C6CE
:1023B0001374F40FDE978C23EFF0FFEA3246B3C4B8
:1023C000840363978A063285EFF0BFF3630B0B003B
:1023D00022859305000413042A00EFF0DFE813744C
:1023E000F40F994463F8840489476397F902B707A7
:1023F000002093874765EA237177798D1357890009
:102400001377F707598D11671E09130707F83379FA
:10241000E90033652501EAA341016FE04F91854949
:10242000994AA5BF8949954A8DBF8949914AB5B74F
:10243000228A8DBF228581450504EFF0DFE2137407
:10244000F40F4DB737070020130747651E230A0511
:102450008D8BC98F1EA38280EFE26F8C2E87A145E2
:1024600011E19145B56706079387873CBA97922398
:102470000945EF30500481450945EF30300C6FE0DD
:102480004F8CEFE2CF89B72700004111370402409B
:102490009387471937070020B74600403EC0130511
:1024A0008405894805488147130747659386C68098
:1024B00005468545EF20207CB72700009387071647
:1024C000B73601403EC0894805488147138701C897
:1024D000B1060546854513050403EF20C079410187
:1024E0006FE02F86EFE2AF83371501408565130556
:1024F00005C0EF205035370502409145130585058D
:10250000EF20A0766FE0EF83EFE26F81294693859D
:1025100041C7138501C8EF90B02CB707002003D73F
:10252000C7659306700C9387C7650507420741830B
:1025300063E9E6089AA38A239307700C63F6A70859
:10254000938701C896276D771307A7AA758F9443C1
:102550003776F6DB130666DBF18E94C3D443377609
:10256000AAAA130666DBF18ED4C39AA7938701C883
:1025700083D88700956690431388565533781801A1
:102580003717C927B768EDB79388D8B613079724CC
:10259000718F3376160190C3D043B7685555938831
:1025A000D8B633761601CE2323940701D0C3130681
:1025B0005009637FA60093869624ED8E98C3D6A318
:1025C00001A82390070085BF9307F004E3E0A7FA72
:1025D00037150140C14513050580EF20D02637058A
:1025E0000240954513050503EF2020686FD07FF565
:1025F000EFD2FFF2EF007033EF501056EFF06FC2E2
:10260000EF007059EF003049EF40F01E01A08280CA
:1026100099677390078001A0EFD27FF09C21411150
:102620006147DC876360F70285479CC248290546FD
:102630009305F1001305250CEFE0CFE301454101BF
:102640006FD03FF04145E5BFEFD27FED85479CC29B
:10265000C829411132C61305250CEFE00FE13246BF
:1026600008A2014541016FD0DFEDEFD25FEB854756
:102670009CC248292E8481456105EFE06FFF08A0C8
:1026800001456FD01FECEFD29FE905469C2190C217
:1026900058294111DC87630DC70089466304D702BE
:1026A00005469305F1001305A020EFE0AFDC29A05B
:1026B0003E85EFE01F9A19E1014511A04145410116
:1026C0006FD03FE83E85EFE0FF99F5B7EFD29FE38B
:1026D0009C2123A0060040294111DC870549B684CE
:1026E000630C240331C40D4763648704AA893D4504
:1026F0006361F50285451305E4FFEFF0FFD503C5DF
:10270000490105469305F100EFE0CFD623A024014F
:10271000014541016FD05FE21D473D45E36BF7FE88
:1027200005469305F1000545EFE0CFD480C0CDB755
:1027300005443D45E36FF4FC05469305F1001305A0
:10274000B020DDB71C2141115C871C31DC87288754
:1027500041018280EFD2BFDC01112A842E8536C66A
:10276000EFF05FFEB2468947E8879CC25C280547C8
:10277000639BE700AA8513050021EFE06F900145F8
:1027800005616FD01FDC1385770609469305E101CB
:102790000605EFE02FCEE5B7EFD27FD801112A84EE
:1027A0002E8536C6EFF01FFAB2468947E8879CC2ED
:1027B00048289305E101094606054505EFE08FCB62
:1027C000014505616FD0FFD7EFD27FD501112A8473
:1027D0002E8536C6EFF01FF7B24689471375F50F01
:1027E0009CC2E88748289305E101094606051305C0
:1027F000B51DEFE02FC8014505616FD09FD4EFD222
:102800001FD24111AA8511466800EF90607D3245C4
:1028100041016FD01FD3EFD29FD001112A842E85A2
:1028200036C6EFF0DFFDB24691472ACE9CC248285B
:102830006C081146130585070A05EFE0AFC3014593
:1028400005616FD01FD0EFD29FCDAA84DC283D4711
:102850002E853684636DF70085478C219CC2C8287D
:1028600013051521EFE0AF8201456FD09FCD45479D
:10287000636FF700EFF01FED89471CC0DC28AA85C5
:102880009387F71013951700EFD09FFFF1BFEFF07C
:102890001FF791471CC0EFE00FDDF9B7EFD23FC83B
:1028A00091479CC25C290D474111639FE7002E852B
:1028B000EFF0FFF4488605466C003945EFE08FBB2A
:1028C000014541016FD0FFC71145E39CA7FE2E854E
:1028D000EFF0FFF22AC611466C001305C020F9BFC5
:1028E000EFD2FFC301112A8432852EC636C4EFF021
:1028F0007FE5A246B24589479CC2E8878821094600
:102900009305E1017D150605229542054181EFE021
:102910006FB6014505616FD0DFC2EFD25FC02E8672
:10292000930545016D45EFF0BFFB6FD09FC1EFD21E
:102930001FBF2E869305450113057002EFF05FFA65
:102940006FD03FC0EFD2BFBD2E8693054501130562
:102950003003EFF0FFF86FD0DFBEEFD25FBC2E8602
:10296000930545011305F003EFF09FF76FD07FBD8E
:10297000EFD2FFBA2E86930545011305B004EFF0A0
:102980003FF66FD01FBCEFD29FB92E86930545014D
:1029900013057005EFF0DFF46FD0BFBAEFD23FB888
:1029A0002E869305450113053006EFF07FF36FD0B7
:1029B0005FB9EFD2DFB62E86930545011305F00609
:1029C000EFF01FF26FD0FFB7EFD27FB52E869305E1
:1029D00045011305B007EFF0BFF06FD09FB6EFD2FF
:1029E0001FB42E869305450113057008EFF05FEFC5
:1029F0006FD03FB5EFD2BFB22E86930545011305C8
:102A00003009EFF0FFED6FD0DFB3EFD25FB12E866C
:102A1000930545011305F009EFF09FEC6FD07FB2ED
:102A2000EFD2FFAF2E86930545011305B00AEFF0F4
:102A30003FEB6FD01FB1EFD29FAE85479CC24829B4
:102A400091472E84631AF5001305B020EFE0EFA143
:102A500008A001456FD0FFAE3305A040420541817B
:102A6000F5B7EFD2DFAB1C21054741112E846391EE
:102A7000E7020D453306A6029CC21305460E420529
:102A80004181EFE08F9E08A0014541016FD07FABEF
:102A900009476391E7020D453306A6029CC2130560
:102AA000560E42054181EFD07FE09357850008A084
:102AB0001CB0D9BF91479CC20821B7070040F51749
:102AC0003E95D1473306F60232950A051305D50E19
:102AD00042054181EFD09FDE2AC611466C00228557
:102AE000EF90005055B7EFD29FA301465105EFF08C
:102AF0005FF76FD01FA5EFD29FA205465105EFF0FB
:102B00005FF66FD01FA4EFD29FA109465105EFF0E9
:102B10005FF56FD01FA3EFD29FA0054798C25C2935
:102B20002E84638CE7000947130590206384E70037
:102B30001305A020EFE06F9319A0EFE02FD108A0BC
:102B400001456FD01FA0EFD2FF9B034905008547C9
:102B50004111AE843284368A631CF9028C2132859D
:102B6000EF10C047BD470DE10D453305A4029C2081
:102B7000054623202A015C841305450E42052C00DE
:102B80004181EFE02F8F81473E8541016FD0DF9A71
:102B90008947631FF9002E85EFF0DFBA68840D4581
:102BA0003305A40223202A0109461305550EF9B75F
:102BB000AA892E85EFF0BFC491472320FA002AC2CC
:102BC00003C50900B7070040F5173E95D147B30785
:102BD000F40211464C003E950A051305D50E420538
:102BE0004181EFE02F899244139504014181EF90D8
:102BF000002A2AC613D50401EF906029B7D7000038
:102C000083A5472BEF80007303C609002AC42C005C
:102C10007D16420641822285EF10604781472DD5FF
:102C2000BD479DB7EFD2BF8F01465105EFF0BFF111
:102C30006FD03F91EFD2BF8E05465105EFF0BFF048
:102C40006FD03F90EFD2BF8D09465105EFF0BFEF37
:102C50006FD03F8FEFD2BF8C894701111CC22EC6A7
:102C6000EFD0DFC4B2459357850088A19CB10145E0
:102C700005616FD01F8DEFD29F8A36866D45EFF0CC
:102C80007FFD6FD01F8CEFD29F89368613057002AF
:102C9000EFF05FFC6FD0FF8AEFD27F883686130596
:102CA0003003EFF03FFB6FD0DF89EFD25F873686CE
:102CB0001305F003EFF01FFA6FD0BF88EFD23F8605
:102CC00036861305B004EFF0FFF86FD09F87EFD280
:102CD0001F85368613057005EFF0DFF76FD07F860E
:102CE000EFD2FF83368613053006EFF0BFF66FD0C4
:102CF0005F85EFD2DF8236861305F006EFF09FF591
:102D00006FD03F84EFD2BF8136861305B007EFF056
:102D10007FF46FD01F83EFD29F8036861305700833
:102D2000EFF05FF36FD0FF81EFD26FFF36861305B0
:102D30003009EFF03FF26FD0DF80EFD24FFE3686E2
:102D40001305F009EFF01FF16FD0AFFFEFD22FFDA9
:102D500036861305B00AEFF0FFEF6FD08FFEEFD28B
:102D60000FFC89479CC248292E84411185454505A1
:102D7000EFE00F909357850008A01CB0014541017A
:102D80006FD02FFCEFD2AFF991479CC24829411177
:102D90002E84130585070A05EFD05FB22AC66C00A2
:102DA00011462285EF90C023014541016FD06FF994
:102DB000EFD2EFF689479CC2482901112EC60605BD
:102DC0001305B51DEFD09FAEB2459357850088A17E
:102DD0009CB1014505616FD0CFF6EFD24FF4894722
:102DE0009CC2482901112EC606054505EFD01FAC2F
:102DF000B2459357850088A19CB1014505616FD00C
:102E00004FF4EFD2CFF191479CC25C2909474111A1
:102E10002E846386E7020D476387E70205471305A3
:102E2000C020639FE700EFD05FFC2AC66C0011460C
:102E30002285EF90E01A014541016FD08FF01945CE
:102E4000EFD0DFA7DDB73945EFD03FE2F9BFEFD2D2
:102E50000FED89479CC24829854741112E84631E86
:102E6000F50013050021EFD07FA49357850008A03B
:102E70001CB0014541016FD0CFEC13057506060566
:102E8000DDB783A7C181DC431387C71271EB3567B8
:102E90001307474723A0E7141387471471EB3567DF
:102EA0001307474823ACE7141387C71571EB356741
:102EB0001307475823A8E7161387471771EB3567A1
:102EC0001307475023A4E7181387C71871EB35671A
:102ED0001307475223A0E71A1387471A71EB356788
:102EE0001307475423ACE71A1387C71B71EB3567E9
:102EF0001307475623A8E71C1387471D71EB356757
:102F00001307474B23A4E71E1387C71E71EB3567D2
:102F10001307474D23A0E7201387472071EB356740
:102F20001307474523A2E7221387872271EB3567F2
:102F30001307474A23AEE7221387072471EB35674F
:102F40001307474123AAE7241387872571EB3567C9
:102F50001307474323A6E7261387072771EB8280D1
:102F600035671307475B23AAE7121387871305F317
:102F700035671307474423A6E7141387071505F39E
:102F800035671307475A23A2E7161387871605F3F9
:102F900035671307474F23AEE7161387071805F366
:102FA00035671307475123AAE7181387871905F3D5
:102FB00035671307475323A6E71A1387071B05F343
:102FC00035671307475523A2E71C1387871C05F3B2
:102FD00035671307475723AEE71C1387071E05F312
:102FE00035671307474C23AAE71E1387871F05F38E
:102FF00035671307474E23A6E7201387C72105F33C
:1030000035671307474923A8E7221387472305F3AA
:1030100035671307474623A4E7241387C72405F31E
:1030200035671307474223A0E7261387472605F392
:1030300035671307475923ACE72615B7B717024082
:103040009843B706FFF841111367170098C3D84398
:1030500037060200758FD8C39843B706F7FEFD16F2
:10306000758F98C39843B706FCFFFD16758F98C3FC
:10307000D843B70681FFFD16758FD8C337079F0069
:1030800098C702C402C69843C166558F98C3B71645
:10309000024005679C42F18F3EC6A24785073EC4A9
:1030A000B24781E7A247E397E7FEB71702409C4388
:1030B0001397E7006359070685473EC632478547A1
:1030C0006311F706B7170240D843B706C1FFFD16D4
:1030D00013670708D8C3D843D8C3D843136707403A
:1030E000D8C3D843758FD8C3D843B7063D00558F92
:1030F000D8C39843B7060001558F98C398439316D9
:103100006700E3DD06FED843B7160240719BD8C3C3
:10311000D84313672700D8C32147DC42B18BE39E15
:10312000E7FE4101828002C651BFB7160240DC4271
:10313000370700201146B18B130787586385C700F6
:1031400021466388C702B7177A00938707201CC3FC
:10315000B7170240DC43918393F6F700B7070020CE
:1031600093870700B69794231C43B3D7D7001CC39B
:103170008280DC42D4424166C983BD8BF18E8907CF
:1031800045466393C700C94781EEB746024083A610
:103190000680C18A89CEB7167A009386062021A8B8
:1031A000B7160240D4421396E600E35606FEB71661
:1031B0003D0093860690B387D70251BFEFD28FB4FC
:1031C000C16441113709002009440D4A8D4AFD149C
:1031D0008327096693090966638E87046380470322
:1031E000E5FFEFD06FEFEFF0CFA9EFE0FFADEFE03D
:1031F000AFA9EFF01FC923A05901D9BF7D577400B3
:10320000014681450145EF40300AB247E39287FC11
:10321000268681450145EF40D04FEFD0CFBD084114
:10322000EF305053EFD0CFBD0841EF30B05223A064
:10323000890079BF1305401FEF408012EF20B031A5
:1032400041BFB73700209387C7881CC1B72700202C
:103250009387C7489CC1930700081CC28280B73778
:1032600000209387C7921CC1B72700209387C768A7
:103270009CC1930700081CC28280EFD24FAAEFD0F6
:103280002FB80841EF40801CEFD0EFB60841EF4067
:10329000E01B6FD00FABEFD28FA8EFD03FBC2A84DA
:1032A00037280020B7270020B7D5000037150000C9
:1032B0001308C8199387C7D9194785461306001004
:1032C0009385455C1305054BEF30703E08C0EFD089
:1032D0002FB32A84B7D50000370500001388C10832
:1032E0009387C1C811478546130600109385055D75
:1032F0001305657AEF30B03B08C0EFD0CFAF2A841A
:1033000037280020B7170020B7D500003705000088
:103310001308C8AE9387C7E61547854613060032E3
:103320009385055E13054561EF30703808C0EFE006
:103330001F992A8437280020B7270020B7D500001E
:1033400037250000130848D4938747B421478546A2
:10335000130600089385455F1305C5E4EF3030354B
:1033600008C037280020B7270020B7D50000373520
:1033700000001308483F9387471F254785461306DB
:103380000008938505601305C51BEF305032EFF040
:10339000DFEE6FD00F9BEFD28F98EFD0EFC8B7362C
:1033A0000020372600202A8401479386468E130684
:1033B000C64491454145EF30E00508C06FD06F9895
:1033C00001A001A001A001A001A001A001A001A0F5
:1033D00001A001A001A001A001A001A001A001A0E5
:1033E00001A001A001A001A001A001A001A001A0D5
:1033F00001A001A001A001A001A001A001A001A0C5
:1034000001A001A001A001A001A001A001A001A0B4
:1034100001A001A001A001A001A001A001A001A0A4
:1034200001A001A001A001A001A001A097E1FF1F40
:103430009381C195172100201301C1BC17B500006D
:103440001305051997D5FF1F9385C5BB1386018802
:1034500063FAC5008322050023A0550011059105DC
:10346000E3EAC5FE17D5FF1F1305451A970500208F
:10347000938505FC6377B500232005001105E36DF6
:10348000B5FEFD42739002BC894273904280B72220
:1034900000009382028073A0023097D2FFFF9382D4
:1034A000E2B993E2320073905230EFF03FB997F2F5
:1034B000FFFF9382221473901234730020305C411A
:1034C0003707F1E01307F7EF944D7D8F9C41D58FBF
:1034D000D44DD58FD441A206D58FD98F5CC11C4560
:1034E00037F7F1FF1307D77FD4457D8F9C49D58FE0
:1034F00094458606D58FD98F1CC55C55370710FFBC
:103500007D177D8FDC29FD1793F7F70FD207D98F31
:103510005CD582801C4589C593E717001CC5828055
:10352000F99BEDBF08450D81058982800845098119
:1035300005898280A54763F7B7048D47138765FF28
:103540003307F7020328C5009D47B397E70093C7E9
:10355000F7FFB3F70701B396E600DD8E54C5994730
:1035600063E3C70495477D163306F6025859FD47B5
:10357000B397C70093C7F7FFF98F3396C5005D8EE9
:1035800050D982800D473387E502032805019D4706
:10359000B397E70093C7F7FFB3F70701B396E600C9
:1035A000DD8E14C96DBFB14763E2C702954765164A
:1035B0003306F6021859FD47B397C70093C7F7FFC4
:1035C000F98F3396C5005D8E10D9828095474D16D0
:1035D0003306F6025855FD47B397C70093C7F7FF68
:1035E000F98FB395C500DD8D4CD58280A18193C53F
:1035F000F5FF0CC18280EFC29FF201112A842303E0
:103600000100A5441C8363FAF40623030100A546C8
:1036100021461C8363F0F60A2314010023150100E0
:10362000230301009546130600601C8363FEF60E1B
:103630001C8393F7F70F63840712388414833C8448
:103640000C8310833347D702B3E7B7028607B3C7AB
:10365000C702BA97C207C1837C84188399479546ED
:10366000998F93F7F70FDC839C8393F7F70F639C95
:1036700007108567938707800DAA1C4493E787008E
:103680001CC42285EFF01FEA6DFD1C4493E7470040
:103690001CC42285EFF09FE96DFD78441C83141053
:1036A0008607B6972396E7FE1C83850793F7F70FE7
:1036B0005C8389BFA30301009C836378F6001C83AD
:1036C000850793F7F70F5C83A9B798839C830C1049
:1036D0000607850786072E97AE970357C7FE83D741
:1036E000C7FE63FDE7029C838607AE9783D7C7FEBC
:1036F0007C849C83988385078607AE9783D5C7FE15
:10370000931717001810BA972396B7FE9C83388436
:103710000C1085078607AE972396E7FE9C838507E6
:1037200093F7F70FDC8349BF1C83181089078607BE
:10373000BA9783D7C7FEE36DF6EE1C830C1038846E
:1037400089078607AE9783D7C7FEBA97C207C1839A
:103750007C841C83850793F7F70F5C83F9B5930787
:103760000040DDBD1C831010388589078607B2979D
:1037700083D7C7FEBA97C207C1837C851C838507A0
:1037800093F7F70F5C831C83E3FEF6FC3885948384
:103790003C858C8390833347D702B3E7B702860713
:1037A000B3C7C702BA97C207C1837C852884348512
:1037B0002C84308505679307004013070780338505
:1037C000A740B306D7408D8F118F4205C206C207AE
:1037D0004207C18641874185C1873695BA97894698
:1037E0003345D5020561B3E7D7023E9542054185D1
:1037F0006FC03FD51C4161773D0794517D8F9C453B
:10380000D58F9449D58FD449D58F944DD58FD44D2C
:10381000D58FD451D58F9455D58FD98F1CC1DC4508
:103820005CC19C411CC5DC415CC582801C4189C5D2
:1038300093E717001CC1828041677917F98FDDBFBC
:103840004CC18280B70702409C437D8D3335A00078
:103850008280EFC2DFCCEFF0FFFE6FC09FCEB707D4
:103860000240C8C382809C4513F7070113F8F70094
:1038700001C7D8413368E80037270240145B370797
:10388000000F758F5DEB3707002085462302D76652
:10389000371701406315E5009A2135839AA18E21DF
:1038A00013F7F50F39C318418146854E3D4F930FED
:1038B000800293028004214E3396DE00B3F8C500E7
:1038C000631116039398260033131F011343F3FF6C
:1038D0003377E300B318180133E7E8006399F7077B
:1038E00050C98506E39AC6FD18C11307F00F63752A
:1038F000B70454412146854E3D4F930F80029302F9
:103900008004414EB398CE0033F715016392E8026C
:103910001317260001173313EF001343F3FFB37699
:10392000D3003317E800D98E6397F703232A1501D4
:103930000506E319C6FD54C1828037170140E31024
:10394000E5F6370700200347476631DBB1B7E39A56
:1039500057F810C979B7E39D57FC23281501C9BF53
:10396000B71701406318F500B707002083C7476603
:1039700091C3B58108456D8D3335A0008280B7179E
:1039800001406318F500B707002083C7476691C35D
:10399000B5810CC98280B71701406318F500B707DD
:1039A000002083C7476691C3B5814CC98280B707A1
:1039B0000140635A0504DC4F9356050113180501B5
:1039C0003707300013F6F60013580801B376E50008
:1039D000635E05066399E604930606010D46B31679
:1039E000D60093C6F6FFF58F99C913575501137783
:1039F000F73F12073317E800D98F635505063707DD
:103A000001405CCF828037270240145BDC433707DC
:103A1000000F758F55F313D71700F976CE07758F02
:103A2000CD83D98F51BF1317B500635607008D465C
:103A3000B396C6007DB7135755011377F73F1207AA
:103A40003317E8001347F7FFF98F79BF6390E60259
:103A5000370601405442370700F17D17F98F758F03
:103A600058C2C1F5370701405CC382801317B50007
:103A7000635C07008D46B396C60093C6F6FFFD8EC5
:103A8000B707000FD58FF1BF135755011207331732
:103A9000E8001347F7FF7D8FB707000FD98FD1B725
:103AA000B7160240DC4251777D17F98F5D8DC8C291
:103AB0008280B71702402380070223800702054750
:103AC0006306E50011476306E50082802380A702B4
:103AD000828015472380E7028280371702405C43CB
:103AE0009146B18B6385D700A1466382D706B7178D
:103AF0007A00938707201CC1371602405C423707C3
:103B00000020130707019183BD8BBA9794231C41B2
:103B1000B3D7D7005CC15442A1829D8ABA96942241
:103B2000B3D6D70014C55442AD829D8A3697182368
:103B3000B3D7E7005CC558423983937637001387C3
:103B4000418036971823B3D7E7021CC982805C43B3
:103B50005843C166C983BD8B758F8907C54663937A
:103B6000D700C94701EF3747024003270780418B41
:103B700009CF37177A001307072021A8371702400B
:103B800058439316E700E3D606FE37173D001307A8
:103B90000790B387E70285B799C5371702401C4FD6
:103BA0005D8D08CF8280B7170240984F1345F5FF0F
:103BB000798D88CF82809357550005476399E70038
:103BC000B71702409C4333D5A70005898280094777
:103BD0006396E700B71702409C53F5B7B71702404A
:103BE000DC53D5B7B737004003D7478013670701C9
:103BF0002392E78082803737004083574780C2078F
:103C0000C183BD9BC207C1832312F7808280EFC2AC
:103C10001F9141112AC6EFF0FFFC3245B737004033
:103C2000135705013D8B42052394E780418123967C
:103C3000A780EFF05FFC41016FC0BF9037370040B5
:103C40008357478093F70702E5DF828037370040CC
:103C500083574780C207C183DD9BC207C1832312FC
:103C6000F7803737004083574780A18BEDDF828094
:103C7000373700408357478003570780C207698F53
:103C8000C18309C77D8D3335A000828001458280C4
:103C90001E31922103D82500C207C183F99BC207B8
:103CA000C1831EB11E3156211A2DC207C18342079E
:103CB00041831377C7F8518F9225F59BC20633666F
:103CC0000601D18F37360140130606C0C18263104A
:103CD000C502B225DD9B03D8E500D18FD221ED9B33
:103CE00093F6F6CFD18FD22533660601D18E56A139
:103CF0001AADFA215AB91EB182801E3165771307B9
:103D0000F7CFC207C183BD9BC207C1831EB11E315D
:103D1000562103D88500C20713960601162DC183CC
:103D200093F7F7FD758F96214182A206558FB62134
:103D300042074183B3E606019206D58FB7360140AC
:103D4000C207938606C0C183631ED502B62593F7CA
:103D5000F7F703D8C5009206D58FD621C207C183D5
:103D6000920693F7F7FBD58FFD769386F63FF18E9B
:103D7000F225C207C183336606010A06D18E139667
:103D80000601418252A11AADFA211ABD1EB18280EC
:103D90001E3103D88500C207C18393F7F7EFC2072E
:103DA000C1831EB11E3156215A2DC207139606013A
:103DB0004207962141831377C7F8558FB621C183F7
:103DC00093F7F7DFB3E60601A206D58FB7360140B9
:103DD000C207938606C04182C183631FD502FD7668
:103DE0009386F67FF58FB62503D8C500A206D58F3A
:103DF000D621C207C183A20693F7F7BFD58FF57608
:103E0000FD16F18EF225C207C18333660601120644
:103E1000D18E13960601418252A15AADFA215ABDA4
:103E20001EB182801A31FD77FD17F98F1EB103583C
:103E3000050256215E2D657792211307F7CF7D8FFE
:103E4000F9772206FD17518FB3F70701B22103D886
:103E50008500C2064207336606013206D18F373627
:103E60000140C207130606C0C1824183C183631AA1
:103E7000C50071767D16F18ED2251A06D18EC20646
:103E8000C18256A15AADFA212310E5041EB18280E9
:103E90001E2DC207C183DD9BDD8D0EAD82801A2DE4
:103EA000FD779387F77FF98FA205CD8FC207C18376
:103EB0001EAD82805E2DC207C183DD9BDD8D4EADC0
:103EC00082805A2DFD779387F77FF98FA205CD8FDA
:103ED000C207C1835EAD82801E294A25ED8F42054F
:103EE000418189C76D8D3335A00082800145828074
:103EF00093F5F51F4EA182800A216D8D3335A00008
:103F00008280B73700209387479B23A0070023A216
:103F1000070023940700B73700209387479A23A010
:103F2000070023A2070023A4070023960700B70772
:103F30000020239307668280EFC2CFDC9317150021
:103F4000373500201305459B3E95834905002E8992
:103F5000638609060031B73400209384049CA2993B
:103F6000139A0901135A0A01B14A93170401C18334
:103F700063E64703130900006312FA041384F7FF92
:103F8000B1473304F402B73700209387079C3E946F
:103F90000C404840EF7040760C4431A8228BCE870D
:103FA000631134033147B387E7024A85BE94CC409E
:103FB000EF7080748C44EF7040012A894A856FC08D
:103FC000AFD70504B30754034A85A69783A547FFD7
:103FD000EF70C069E34BA0F8DA87E9B785476381E2
:103FE000F504B737002006059387479BAA979823C7
:103FF00015E33707002013076766122313084006EE
:104000000545B306B600634ED8008CA390B316A343
:1040100001458280FD1501456305B7000945828091
:104020000D458280EFC20FCE4111AA892E893A85B3
:10403000BE853684B2843EC63AC4EF70F0142A8A34
:10404000A2852685EF705014AA855285EF70802EC8
:10405000224723A0A900A2853A85EF70E069B24704
:10406000AA89A6853E85EF702069AA854E85EF70E6
:10407000B011AA89A6852285EF701011AA854E85F8
:10408000EF70402B2320A90041016FC0EFCA9317A6
:104090001500373500201305459B3E951C2163789C
:1040A000F604EFC2CFC70031B1472E892296131410
:1040B000060141803304F4020327090083278900A5
:1040C0008326C90003264900B73400209384049C4A
:1040D00093058400130544002695A695EFF09FF400
:1040E0008327C900269401451CC06FC08FC50945B0
:1040F000828037350020130545988280931735005C
:1041000037050020130585663E95DC412300050038
:104110005CC101458280F1473305F502B7370020C5
:104120009387C7EAD8413E959C4958C17D171CC961
:10413000DC453337E0005AA95CC59C4DA30B050054
:10414000232405001CCD01458280F1473305F5028B
:10415000B73700209387C7EAAA97C82B8280EFC29F
:104160000FBCF1473305F502B73700209387C7EA44
:1041700009473D46AA971305C0023385A502D8C357
:1041800037370020130747E323AA0700814533048C
:10419000A700090580C3232204023A95EFC02FBB74
:1041A000B7D7000083A707612320040205451CD46C
:1041B0006FC02FB9EFC2AFB6F146B306D502B7371D
:1041C00000201387C7EAAA843D6501461384C7EA25
:1041D000130505A63697144323A00602138726006D
:1041E000F906035827001E23B305F84063D60500DF
:1041F000B307F540B385070109072E96E393E6FE62
:104200003D453355A602B73700209387C7E89395FD
:104210004400BE95EF40600DF147B387F4020547B7
:10422000A2979C4388D3D8D36FC0AFB1F147330571
:10423000F502B73700209387C7EAAA978843090594
:104240008280EFC2CFADF1473305F502B7370020CA
:104250009387C7EA3E95004129CC584189470145DB
:104260006317F7041C50A1C73E85EF705042B7D7C3
:10427000000083A58760EF702048B7D70000AA85AB
:1042800003A50761EF70000BB7D7000083A5C760D7
:10429000EF708046EF70F02D42054181EF70D03213
:1042A0000C54EF706045EF70D02C420541816FC017
:1042B0004FA90145EDBFEFC2EFA47144330585025C
:1042C000373400201304C4EA2A94832904001C48CC
:1042D0000D4583A409026387F40426852E89EF70B7
:1042E000103BB7D7000083A58760EF70E040B7D7D9
:1042F0000000AA8503A50761EF70C003EF70702767
:104300009307C0033305F50242054181EF70D02BBE
:1043100083A58902EF70403EEF70B0252310A900FD
:1043200004C809456FC04FA1EFC2CF9D37340020AC
:104330001304C4EA81448949130A703E854A11492D
:104340005C40638B37051C4C268582977838630266
:10435000A7041C4485071CC41DEB18486379F700AB
:104360005C4068B893C7F7FF858BA98F5EA885046A
:1043700093F4F40F7104E39524FDB70700209387AD
:104380008766D8438C23014502976FC0EF9A584443
:10439000F1B723240400E1BF5E288507C207C1836B
:1043A0006364FA005EA8E1B71C40231A0400D853E6
:1043B0006315570123A207025DBF23A0070245BF73
:1043C000373500201305C5F1828085673307C500A6
:1043D0009387078063C5E708EFC2CF92AA8432842F
:1043E000094505C6373A00208547AE8A130ACAF147
:1043F0008149414B631DF60083274A022E8685467C
:10440000A6851305000A829701456FC0EF9293F7C6
:10441000F400B307FB40C207C183228963F387001E
:104420003E8983274A0242091359090133863A011A
:10443000A685CA861305000A330424418297CA99C7
:104440004204CA941545C209C2044180EF2050714C
:1044500093D90901EF103010C18055F875B709459F
:10446000828085673307C5009387078063C0E70AAA
:10447000EFC26F882A8C41113284094515C6373B3B
:1044800000208547AE89368A130BCBF10149C14A1A
:10449000631FF60003280B02B6872E862947854640
:1044A000E2851305000A029841016FC04F88937797
:1044B000FC00B387FA40C207C183A28463F387007C
:1044C000BE84C204C180994BB38C290103280B021E
:1044D000D2872947A6866686E2851305000A0298D8
:1044E00001C92AC6FD1BEF1010073245E3900BFEF1
:1044F000058C26994204E2944209139C04014180F0
:1045000013590901135C0C015DF079BF09458280E4
:1045100085673307C5009387078063C3E702EFC24F
:104520000F8037370020032887F3B687130740062C
:10453000B2862E86AA851305000A02986FC06F8086
:1045400009458280EFB2BFFD4111AE860546930555
:10455000F100EFF0FFFB888741016FB09FFEB707C6
:1045600000200397076781472A97634F070009CD0B
:1045700005669306F6FFB6876358C700AA876305EA
:10458000D50093170701C1833E8582800A05938772
:10459000C185AA979C43B706500098471367170038
:1045A00098C79847558F98C78280EFB25FF70A0582
:1045B0009387C185AA978843930500221C4593E7FA
:1045C00007101CC5EFF08F826FB0BFF7EFB23FF559
:1045D0003165EFF0EFCC6FB0DFF6EFB2BFF2B71797
:1045E0000240D8477971AE8432895DED13670720A8
:1045F000D8C7D8471377F7DFD8C7984F1367072076
:1046000098CF2AC6EFF09FFC854732453ECA3ECC84
:10461000B7070E003ECE95472302F10293172500FF
:104620001385C1853E9500410C0802C8228502D041
:1046300002D402D6B569EFE09FE8814793894961CA
:10464000639FF4061C4437071000D98F1CC41C4418
:10465000370700FC7D1793E707101CC41C4493E741
:1046600017001CC45C40F98F5CC01C4493E78700B2
:104670001CC42285EFE01FEB6DFD1C4493E747004F
:104680001CC42285EFE09FEA6DFD2285EFE0BFF6B6
:10469000B70700202398A7665C4037070004D98F2E
:1046A0005CC045616FB05FE913670740D8C7D84762
:1046B0001377F7BFD8C7984F1367074091B7138A8E
:1046C0001700CA979C239D461376FA0FCE978C232A
:1046D0002285EFE03FE6D287A5B7B737002023A4B5
:1046E000A7F48280B737002023A2A7F48280B737CF
:1046F000002023A6A7F48280B7170240944BB70886
:104700000002370800FEB3E6160194CB944B7D18E7
:10471000B3F6060194CBD84F33671701D8CF930770
:10472000400651476305F50263E7A70ED14713071B
:10473000C012630EF5009307200313078007630878
:10474000F500A947130780256303F5004147B767C4
:10475000004083A607404165F59A23A0D74083A671
:10476000074093E6160023A0D74093860740DC421B
:10477000858B99E37D1565FDC842B76700400589C3
:104780004DC903A507407D17938707401375F5F7BB
:1047900088C388431365050488C388431375F5FDF2
:1047A00088C388431365050188C388435D9988C31E
:1047B00088436D9988C337054B03498FD8CE9843FA
:1047C000799B98C34167D443858A99C27D1765FF59
:1047D000D843058B39EFEFB29FD4D84B1305400275
:1047E0002E8413673741D8CBB284EF0090682686B9
:1047F000A28513055002EF00D0672686A285130517
:104800003002EF0010672686A28513056002EF00D4
:1048100050666FB01FD39307401F1147E309F5F2AD
:104820009307803E0947E304F5F29307A00F214761
:1048300021BF8280B767004003A7074005469387E2
:104840000740719B1367170098C34167D4438D8A53
:104850006384C6007D177DFBC8430D897D15133524
:1048600015008280B767004003A707409387074081
:10487000719B98C34167D4438D8A99C27D1765FFA8
:10488000C8430D89133515008280EFB25FC94421FA
:10489000411100419305550026862800EF704074B1
:1048A000B767004003A787401359E4001379290034
:1048B0009316570063CE06069387074098479316D2
:1048C000470063C906069C47114513973700635E8E
:1048D0000704094537670040130707409317450051
:1048E000BA9703A70718560433642401058B23A045
:1048F000E71803A70718BD88598C23A0871803A7BA
:104900004718419B23A2E71803A74718D98C2247D1
:1049100023A2971823A4E718324723A6E71803A772
:1049200007181367170023A0E71841016FB07FC174
:1049300001454DB7054579BFB76800401388084069
:10494000032E082005433313A300136E1E002320FB
:10495000C821832EC821134EF3FF9605B3FECE0166
:10496000232ED821832EC820C2059606B37EDE01F1
:104970005606C1810E05C2062326D8214295C18262
:104980004D8E5607558F2320C5242322E524372733
:104990000240145B3707000F758F19EB138708303F
:1049A00016231107C206C182231ED7EEE31A07FFA2
:1049B000376700401307074083264720B3E66600A9
:1049C0002322D7208DE783274721337EFE00232A29
:1049D000C721B767004003A7C7613363670023AEF1
:1049E000676003A70760799B23A0E7608280832725
:1049F0004721B3E76700232AF720E1BFB337A000C0
:104A0000B7660040920793860640B69703A7071B38
:104A1000118B51EB03A6071B03A7071B03A8471B1A
:104A20005582098B1378F8002382050103A8871BA0
:104A3000A382050103A8871B13588800238305015F
:104A400003A8871B13580801A383050103A8871B2C
:104A5000135888012384050103A8C71BA3840501FB
:104A600003A8C71B135888002385050103A8C71B8B
:104A700013580801A385050183A7C71BE183DCA5A3
:104A800011EDDC4693E70702DCC6B337E000BE0752
:104A9000D18F9CC123970500014582809C4A93E7F2
:104AA00007029CCADDB70545828039713ACE41675D
:104AB0003ECC06DE16DC1ADA1ED82AD62ED432D226
:104AC00036D042CA46C872C676C47AC27EC01307C0
:104AD0001710B767004023A4E740B737002083A72B
:104AE00087F48297F250E2525253C2533255A25584
:104AF000125682567247E2475248C248324EA24E80
:104B0000124F824F21617300203039713ECCB7378C
:104B1000002083A747F42AD63ACE06DE16DC1ADA3E
:104B20001ED82ED432D236D042CA46C872C676C4F7
:104B30007AC27EC001458297B7670040214723A60D
:104B4000E740F250E2525253C2533255A255125628
:104B500082567247E2475248C248324EA24E124F26
:104B6000824F21617300203039713ECCB73700206D
:104B700083A747F42AD63ACE06DE16DC1ADA1ED808
:104B80002ED432D236D042CA46C872C676C47AC251
:104B90007EC005458297B7670040214723A8E740BC
:104BA000F250E2525253C2533255A2551256825617
:104BB0007247E2475248C248324EA24E124F824FCD
:104BC00021617300203039713ACE3ECC06DE16DC0E
:104BD0001ADA1ED82AD62ED432D236D042CA46C8C5
:104BE00072C676C47AC27EC01147B767004023A25E
:104BF000E740B737002083A7C7F48297F250E2520C
:104C00005253C2533255A255125682567247E2474A
:104C10005248C248324EA24E124F824F2161730059
:104C20002030EFB2DF8F13142500094541113315F1
:104C30008500EFE01FC285476310F502B7370020FB
:104C4000938707F5A2979C432AC682973245B707F8
:104C5000024033158500C8C341016FB09F8E1C41CF
:104C600041677917F98F1CC182804CC11C4193E7C1
:104C700017001CC18280EFB29F8A3713024083273E
:104C8000430139712A8493E717004645232AF3002C
:104C90000543814763936500C1473ECE19CA8547E6
:104CA000630AF6068567938707803ED8930700203E
:104CB000BDA002D802D6B7050240B7370020138640
:104CC0008500938707F5631EC40488C3ED449307EA
:104CD00000083ED485673EDC1C403ACC416779171A
:104CE000F98F1CC04C08228536CA46C642C402D27F
:104CF00002DA02DEEFE01FB01C40B248224893E720
:104D000027001CC04686C2852685EF0090162161CB
:104D10006FB03F83930700403ED8930700103ED604
:104D200059BF1386C5016315C400C8C3F14445B714
:104D3000138605036315C40088C7F54449BF13866D
:104D400045046315C400C8C7F94451B713868505E7
:104D50006315C40088CBFD449DBF9385C5066316CB
:104D6000B400C8CB930400029DB788CF930410020F
:104D7000B9BFEFB2CFFA41112A8405452EC632C41D
:104D8000EFE0FFAD2246B245014550C04CC4EFF004
:104D9000DF811C40014593E727001CC01C4093E7BE
:104DA00017001CC0EFF08FFE41016FB08FF9397111
:104DB0002AD6014506DE16DC1ADA1ED82ED432D2E7
:104DC00036D03ACE3ECC42CA46C872C676C47AC203
:104DD0007EC0EFF01FE5F250E2525253C2533255FB
:104DE000A255125682567247E2475248C248324E86
:104DF000A24E124F824F21617300203039712AD6A2
:104E0000094506DE16DC1ADA1ED82ED432D236D088
:104E10003ACE3ECC42CA46C872C676C47AC27EC07A
:104E2000EFF03FE0F250E2525253C2533255A255D6
:104E3000125682567247E2475248C248324EA24E3C
:104E4000124F824F21617300203039712AD60D45EF
:104E500006DE16DC1ADA1ED82ED432D236D03ACE7E
:104E60003ECC42CA46C872C676C47AC27EC0EFF053
:104E70005FDBF250E2525253C2533255A2551256E2
:104E800082567247E2475248C248324EA24E124FF3
:104E9000824F21617300203039712AD6114506DE18
:104EA00016DC1ADA1ED82ED432D236D03ACE3ECC08
:104EB00042CA46C872C676C47AC27EC0EFF07FD6B8
:104EC000F250E2525253C2533255A25512568256F4
:104ED0007247E2475248C248324EA24E124F824FAA
:104EE00021617300203039712AD6194506DE16DC9F
:104EF0001ADA1ED82ED432D236D03ACE3ECC42CA9E
:104F000046C872C676C47AC27EC0EFF09FD1F25016
:104F1000E2525253C2533255A2551256825672472C
:104F2000E2475248C248324EA24E124F824F216190
:104F300073002030B717014093860780114763063E
:104F4000D502938607C021476301D5024147630E0E
:104F5000F500938707406300F502B7270140938768
:104F600007806314F50013070004B71602409C4E37
:104F70005D8F98CE828013070002C5BFEFB22FDA93
:104F800001112A842EC6EFF0FFFAB245C1473ECE8A
:104F9000EC8289474C0822853ECCEFE0DF8C05612E
:104FA0006FB02FDAEFB2AFD701112A842EC6EFF01F
:104FB0007FF8B2458D472285EC824C083ECC02CE6C
:104FC000EFE07F8A05616FB0CFD7EFB24FD5011107
:104FD0002A842EC6EFF01FF6B24591473ECEEC82F2
:104FE0008D474C0822853ECCEFE0FF8705616FB00E
:104FF0004FD5EFB22FD141113284AA84AE893689C0
:10500000EFF05FF309C885450545EFE0FFB885453A
:105010002285EFE0DF998D474C0026852312310170
:105020004AC63EC4EFE03F8441016FB0EFD0EFB21B
:105030000FCFEFE0FF926FB0CFD0EFB24FCEEFE0E7
:105040001F946FB00FD0EFB28FCDEFE0DF946FB051
:105050004FCFB707002083A747679C4B13972700C4
:1050600093874186BA9798431E2393E717001EA3A0
:105070008280B707002083A747679C4B13972700C0
:1050800093874186BA9798431E2393E707201EA370
:105090008280B707002083A747679C4B13972700A0
:1050A00093874186BA979C438AAB8280B7070020DA
:1050B00083A747679C4B1397270093874186BA972E
:1050C00098431E2393E707101EA38280EFB28FC37D
:1050D000B7040020AA8A2E89328AB689EFF07FF7BA
:1050E00003A7446793874186184B138441869384B2
:1050F00044670A07BA9798431E2F898BF5FFEFF094
:10510000FFFA9C409C4B8A07A29798435E2B858BA5
:10511000F5DF93FAEA0F231857015E2B898BF5DF31
:10512000135589007D89EFF0DFF69C409C4B8A0780
:10513000A29798435E2B93F70708EDDF1375F90FDD
:10514000EFF03FF59C409C4B8A07A29798435E2B5B
:1051500093F70708EDDF0149636F39019C409C4BD1
:105160008A073E9418405E2B918BF5DFEFF07FF0BD
:1051700001456FB06FBCB3072A018823EFF07FF1C0
:105180009C409C4B8A07A29798435E2B93F7070895
:10519000EDDF05091379F90FC1B7EFB24FB8370446
:1051A000002003274467411102C61C4B104FAD4538
:1051B0009396270093874186B69794437D16DE2AFF
:1051C00063E1C504B5650A06938585622E96104293
:1051D000C207C183130444670286858B9DC33C3399
:1051E00093F7E70F9EAA89471CCF21A8898B91CB03
:1051F0004A239E2E21817D89EFF0BFE91C402D4777
:1052000098CF41016FB0EFB393F70708FDDB482358
:10521000EFF03FE81C400D47E5B793F70708F5D3DB
:10522000EFF0DFE81C401147E1BF858BF9DB3C3331
:1052300093E7170093F7F70F9EAA954775B7898BE9
:10524000E9D39E2E99474DB793F70704DDDB0A2774
:105250007E23504793051500C205FD17C1812A968C
:105260006356F5009E2A0EA71CA261BF9E22C207AC
:10527000C18393F7F7BFC207C1839EA29E2A0EA7E0
:105280001CA2EFF01FDF08407C0001470C214849B9
:105290008D460546EF20F029B24791C7B7E700E0F9
:1052A000116723A0E7201C4023AC070099BF858B22
:1052B000A9DB3C3393F7E70F9EAAA14735B713F656
:1052C000074009CA9307F0BFDEAAEFF03FDE1C409B
:1052D0001D473DB7898B95D74A239E2E21817D8915
:1052E000EFF03FDB1C40314721BF93F70708E38A0B
:1052F00007F04823EFF0FFD91C40254711B793F77B
:105300000708E38007F016277E2363FCF6005C475E
:10531000B6978823EFF0FFD718401E2785071EA7F2
:10532000CDB5A947D1B5918BE38D07EC99BFEFB20D
:105330006F9DB70400209389446703A409003A894C
:10534000938444671CA076A050C44EA0231404008C
:1053500028B0EF20A04283A7090048C8054798CF8E
:10536000EFF03FCF03A7090093874186184B1384C2
:1053700041860A07BA979C439A2F098B75FF96239B
:1053800093E6064096A3EFF07FD298404A86FD55FB
:105390001C4B8A07A2979443DE2293E70770DEA294
:1053A0000823EF2020659C409C4B8A073E941840C0
:1053B0005E23C207C18393F7F78FC207C1835EA341
:1053C0001E23C207C183F99BC207C1831EA30547E1
:1053D00081476303E50091473E856FB0EF95EFB2DB
:1053E0006F92B70400209389446703A409003A89A7
:1053F0009384446776A01CA050C44EA023140400DC
:1054000028B0EF20A03783A7090048C81D4798CFD0
:10541000EFF03FC403A7090093864186184B13841D
:1054200041860A07BA9694429E2E898BF5FFDE22AA
:1054300093E70770DEA2EFF07FC79C404A86FD55D8
:105440008823EF20205B9C409C4B8A07A2979843BF
:105450005E23C207C18393F7F78FC207C1835EA3A0
:105460001E23C207C183F99BC207C1831EA38147C4
:1054700011E18D473E856FB02F8CEFB2AF889387D7
:10548000418613172500BA970111AA8AAE84328982
:1054900083A90700138441860DE1B7170240944B9E
:1054A000B70520003706E0FFCD8E94CB944B7D16D8
:1054B000F18E94CBD84F4D8FD8CF680003DA4900D6
:1054C000EFE0AFE1D24737470F001307072433D788
:1054D000E702420A135A0A01137A0AFC420A135AD3
:1054E0000A01336AEA00420A135A0A012392490167
:1054F00083D60900C206C182F99AC206C1822390EE
:10550000D900B79698001386F6676375F60C9386F4
:105510000668B3D7D7029166C207C183D58FA1664B
:10552000D58F9306C0123307D7029306803E3347C8
:10553000D7020507420741832390E902239EF90021
:1055400083D7090093E717002390F90083D7090058
:10555000C207C18393F757BF93E707402390F90031
:1055600091672394F900EFE0BFE537570000130778
:10557000E73258CD375700001307E73D18D13757AA
:105580000000B70700201307C70C23AAA76623282B
:10559000550158D193894767639C0A004A86A685BE
:1055A0001305F002F9204A86A68513050003D120D1
:1055B00083A709009C4B8A073E9418405E27C207C8
:1055C000C183F99BC207C1835EA7EFF09FA8056165
:1055D0006FA09FF69167850799B7397106DE16DCD3
:1055E0001ADA1ED82AD62ED432D236D03ACE3ECCB3
:1055F00042CA46C872C676C47AC27EC0EFF0FFB90E
:10560000F250E2525253C2533255A25512568256AC
:105610007247E2475248C248324EA24E124F824F62
:10562000216173002030397106DE16DC1ADA1ED8CB
:105630002AD62ED432D236D03ACE3ECC42CA46C832
:1056400072C676C47AC27EC0EFF03FB5F250E25225
:105650005253C2533255A255125682567247E247F0
:105660005248C248324EA24E124F824F21617300FF
:105670002030854712066394F500136606F8B7E7F5
:1056800000E0AA971376F60F2380C7409357550082
:105690000547938707043315A7008A0737E700E01B
:1056A000BA9788C38280EFA2FFE5B7170240D84FB0
:1056B000B7060018AA84558FD8CFB7760040984215
:1056C00005452E891367071098C29853C166B289A1
:1056D000558F98D39853C176FD16758F98D3EFE008
:1056E0004FBD0144130AA00F13051004EFE0AFCC27
:1056F00001ED631444016FA03FE4050451451374A8
:10570000F40FEF201048CDB79307A00FE305F4FE88
:10571000B7170240985321641367071098D3985322
:10572000418F98D3EFE08FD1EFE04FD23737004071
:105730008357078093E717002310F780EFE00FD01F
:105740001305F4FFEFE0AFCCEFE04FCF4E86CA85F4
:105750004D45EFF01FF2B707002023AC976661BFFD
:1057600039712AD605453ECC06DE16DC1ADA1ED87B
:105770002ED432D236D03ACE42CA46C872C676C489
:105780007AC27EC0EFE0CFCE85476312F502B7073D
:10579000002083A787678297373700408357478069
:1057A000C207C183F99BC207C1832312F780EFE0D0
:1057B000EFC8F250E2525253C2533255A25512561C
:1057C00082567247E2475248C248324EA24E124FAA
:1057D000824F216173002030B717024025E1D44782
:1057E00005657D76C98ED4C7D4477D16F18ED4C7A2
:1057F000984F498F98CFB7370140014781C505675A
:105800001307078092238D6693860604F18E558FC9
:10581000F1769386C630558F420741839AA3DA2FDB
:1058200013774710DAAF23980700DA2313672700AE
:10583000DAA39A23136707049AA38280944B116515
:105840007176C98E94CB944B7D16F18E94CBD84F44
:10585000498FD8CFB74700409387078079BF0A05A3
:1058600093878180AA979C431307F0FB9AA78280B5
:105870000A0593878180AA979C4301459E278280D1
:1058800085476308F50405C589476302F5068D471A
:10589000630CF506B7170240984B1367870098CB47
:1058A000984B5D9B98CBD84F136787003DA8B717DF
:1058B0000240D447056713070780D98ED4C7D44761
:1058C0007D761306F67FF18ED4C7944F558F98CF0F
:1058D0008280B7170240984B1367170098CB984BFC
:1058E000799B98CBD84F13671700D8CF8280B71712
:1058F0000240984B1367270098CB984B759B98CB29
:10590000D84F13672700D5B7B7170240984B1367D6
:10591000470098CB984B6D9B98CBD84F13674700A7
:10592000E9B75D7122DE371400402ADC2EDA130558
:10593000048085453ED286C696C49AC29EC032D89F
:1059400036D63AD442D046CE72CC76CA7AC87EC613
:10595000EFE08FD88547631AF500B737002083A79B
:1059600047FB8297F9572318F4807254B640A64239
:10597000164386436255D2554256B2562257925725
:105980000258F248624ED24E424FB24F61617300EC
:105990002030B5670A0593878765AA9798431E2329
:1059A00093E717001EA38280B5670A059387876572
:1059B000AA9798431E23C207C183F99BC207C183DC
:1059C0001EA38280B5671317250093878765BA9752
:1059D0009C439A2742074183619B420741839AA7D0
:1059E00051473306E5029623373700201307C7F6E1
:1059F000C206C18293F6F6C832975223D18E96A37F
:105A000016233A23D6B79AB709E53737014023184A
:105A100007C20547DAAB8280EFA27FB02A84114526
:105A20000111814463668500B7A44A04938404206D
:105A300022853ECE3ACC36CA32C82EC6EFF05FE49D
:105A4000B24551453308A4024246D24637350020BC
:105A50001305C5F6B3D4B402429512A154C526A1CC
:105A60002285EFF03FF63565130585659316240012
:105A7000AA9694427956624792AACA26F2471365BB
:105A80001500CAA689461305E00263E686009386E0
:105A9000C186369408203E86BA85EFF09FBD056129
:105AA0006FA03FAAEFA21FA6011102C802CA02CC32
:105AB00002CE91472A84B289B684014963E6A700E1
:105AC00037A94A041309092022852EC6EFF05FDBAF
:105AD000B245D1473307F402B7370020C209938794
:105AE000C7F693D9090122850A043359B902BA9736
:105AF000239037012392070023912701EFF09FECB9
:105B0000C167938707073EC8B567938787653E944B
:105B1000231B3101231C010093F71400004089CBA3
:105B20000C082285EFE0CF9681452285EFE04FB645
:105B300093F7240089CB0C082285EFE00F9C814568
:105B40002285EFE0CFB593F7440089CB0C0822857E
:105B5000EFE00FA481452285EFE0CFB5A18889C889
:105B60000C082285EFE00FAC81452285EFE06FB590
:105B70001E20216793E707081EA083574404D98F8E
:105B80002312F40405616FA03F9BEFA25F99914738
:105B900041112A84814463E6A700B7A44A04938490
