:100000006F30E03313000000130000001300000005
:100010001300000013000000130000001300000094
:100020001300000013000000130000001300000084
:08003000130000007300100032
:100038000000000000000000F00D0000F20D0000BC
:1000480000000000D63200000000000000000000A0
:10005800D8320000DA320000000000000000000082
:10006800946D000000000000000200000000000085
:10007800E0320000E2320000E4320000A06200003A
:10008800E8320000EA320000EC320000EE320000F4
:10009800F0320000F2320000F43200008E59000005
:1000A800F8320000F2590000C05A00005A5A000005
:1000B80000330000245B0000F2520000F0550000FD
:1000C800C6560000285700008C5700000E33000069
:1000D80010330000E064000014330000F6630000F1
:1000E8003C660000C865000054650000C060000060
:1000F8000C61000058610000A46100002633000074
:10010800283300002A3300002C3300002E3300006F
:10011800303300003233000034330000363300003F
:10012800383300003A3300003C3300000000000080
:080138000000000000000000BF
:10020000130181F806C216C41AC61EC822CA26CC1B
:100210002ACE2ED032D236D43AD63ED842DA46DC76
:100220004ADECEC0D2C2D6C4DAC6DEC8E2CAE6CC46
:10023000EACEEED0F2D2F6D4FAD6FED8F3220030CF
:1002400096DA83A2819023A02200F32510342EC0D9
:1002500003A18185EF70706403A3819003210300E3
:10026000824273901234D652739002309240A2426E
:100270003243C2435244E244724582551256A2565A
:100280003257C2575258E25872598649164AA64AFE
:10029000364BC64B564CE64C764D865D165EA65EDA
:1002A000365FC65F13018107730020301300000022
:1002B00013000000130000001300000013000000F2
:1002C00013000000130000001300000013000000E2
:1002D00013000000130000001300000013000000D2
:1002E00013000000130000001300000013000000C2
:1002F00013000000130000001300000013000000B2
:1003000083A28185938202E07390023403A18190DD
:10031000024182403243C2435244E2447245825514
:100320001256A2563257C2575258E258725986494D
:10033000164AA64A364BC64B564CE64C764D865D61
:10034000165EA65E365FC65FD652A102739002307B
:10035000A2421301810782801300000013000000F5
:100360001300000013000000130000001300000041
:100370001300000013000000130000001300000031
:100380001300000013000000130000001300000021
:100390001300000013000000130000001300000011
:1003A0001300000013000000130000001300000001
:1003B00013000000130000001300000013000000F1
:1003C00013000000130000001300000013000000E1
:1003D00013000000130000001300000013000000D1
:1003E00013000000130000001300000013000000C1
:1003F00013000000130000001300000013000000B1
:10040000F322003093F272FF130380181203B3E259
:100410006200711523205500130585FA10C12115BE
:10042000232005009302000063870200711523203A
:100430000500FD12D5BF71150CC1828000000000BF
:1004400000000000000000000000000000000000AC
:10045000000000000000000000000000000000009C
:10046000000000000000000000000000000000008C
:10047000000000000000000000000000000000007C
:10048000000000000000000000000000000000006C
:10049000000000000000000000000000000000005C
:1004A000000000000000000000000000000000004C
:1004B000000000000000000000000000000000003C
:1004C000000000000000000000000000000000002C
:1004D000000000000000000000000000000000001C
:1004E0000000000000000000000000000000397162
:1004F00001436EC619A0397141536AC866CA62CCFD
:100500005ECE19A0397101535AD056D252D44ED66C
:100510004AD826DA22DC06DE3301614082824111AC
:100520004AC026C222C406C68282B24D4101024D93
:10053000924C224CB24B4101024B924A224AB249A0
:100540004101024992442244B240410182803D432C
:100550002A876373C3029377F700BDEFADE5937607
:1005600006FF3D8ABA960CC34CC30CC74CC7410763
:10057000E36BD7FE11E28280B306C3408A0697027E
:10058000000096966780A6002307B700A306B70071
:100590002306B700A305B7002305B700A304B700DF
:1005A0002304B700A303B7002303B700A302B700D7
:1005B0002302B700A301B7002301B700A300B700CF
:1005C0002300B700828093F5F50F93968500D58DB3
:1005D00093960501D58D61B7939627009702000089
:1005E00096968682E78086FA9680C1171D8F3E9682
:1005F000E374C3F8A5B7370500201305C55F8280F3
:10060000370500201305855F8280B707002023A0EF
:10061000A7608280EFF23FEEB70500203971938525
:10062000455F014537040020EFB000212328A45E78
:100630001304045F19E1EF10906E1C40370700208F
:1006400003270760DC4398C3EF803033EF80F03539
:10065000EF00806C2313A10202D6EF00E06E1C4075
:10066000A302A102DC43884323AA0700EF80D0360F
:100670001C40C843EF80104A0840035661025C41A9
:100680008C43EFB0802B19C1EF107069B7070020C1
:100690009387473E98530840930661023AD8D8534F
:1006A000130651020C183ADA9857DC573ADC3EDE52
:1006B000EFB0002C19C1EF10906683A64181034969
:1006C0005102032A040036CEEF00A0679307401FB3
:1006D0003EC0F24689679309C102C507C98F4EC65D
:1006E0004AC402C29308803E1308401F01470146D6
:1006F00081455285EFB0E02A11C5B5576304F50076
:10070000EF10F061084003A641814E874C49CA862C
:10071000EFB0A03419C1EF1090601C409C4399C306
:10072000EF10F05F1C40B70400208969C843130A2A
:10073000803EEF80702B23A20460EF809028EF7042
:10074000C0622A8902D493844460938909719C40D1
:1007500089CBB707EFBE37E700E0938707083CC7B0
:10076000FDBFA25503A54195B3D54503EF603063A6
:10077000EF80B0234ED4EF70405F3306254133063F
:100780004603AA8A0840341081455689EFB0803B61
:1007900088C003A58195814601468145EF601027F9
:1007A000EF8030226DB7EFF2FFD54111EF80F01FDF
:1007B000EF70A05B89692A8402C6130A803E938980
:1007C0000971370B0020EF80D01FB24503A581953A
:1007D00013090B5FB3D54503A284EF60505CEF8033
:1007E000D01C832709004EC695CFDC43DC4B9DCB44
:1007F000EF70A057AA84032509001C4185E75C41DE
:10080000DC4B8DC33384844033044403740081453E
:100810002286EFB0003B0325090074002286814543
:10082000EFB0203E268445B7370500201305C5608C
:100830008280EFF2DFCE370400201304C46008404A
:100840004111EF60507711CD08407D566C00EF608C
:10085000B03E28871086938581968946AA95EF40F9
:1008600030084101F9B9938781963E9593D7850069
:100870000CA11CB193D70501E1813CA12CB1828070
:10088000938781963E950CA1A1810CB182809387BC
:1008900081963E950CA18280EFF27FC8AE8693854B
:1008A00081960946AA95EF40B00361B99387819676
:1008B000AA97983388232207598D8280EFF29FC42C
:1008C00001111306602281451385819649318946BD
:1008D00013060021938581960145EF40500B63106C
:1008E000052E138481961820930720026307F72AA8
:1008F000938741839843DE23B706000318C0370768
:100900000001130607105EA0930740027CB410D4C8
:10091000B707000530CC70D0374605011CC8130658
:100920005660B7070024938506105CC830D893073B
:100930000050378605001CCC4CD493070010B70537
:10094000007813060680296558CC1CD058D01CD8D6
:1009500078C87CCC38D03CD470D834DC232A04024C
:1009600093860620232C0402232E04022320040451
:1009700023220404232404046CC428C86CD474DC2B
:100980002316F40A231CF40AE147A301F40CB70769
:100990000015B706001A89072328D4082322F40C6F
:1009A000B7F60301B7071203938646809387175063
:1009B000232AD4082324F40CB7260400B71705040F
:1009C000938606A093870730232CD4082326F40CA3
:1009D000B7060002856713060020232ED4082324BF
:1009E000E40A93860620054793873740B969232098
:1009F000C4082322040823240408232604082320EF
:100A0000D40A2322C40A2307040AA30BE40A230DF1
:100A1000040A2318F40C938989F19304200D130A16
:100A2000400E83D5090026858904C204C180893D12
:100A30008909E39844FFB7970112C9072322F40EEE
:100A4000930700192314F40EB96991472305F40E96
:100A5000938909EC9304D00E130B501383DA090029
:100A600026859109D685293D03DAE9FF13852400FF
:100A70004205D28541812935138504054205D68575
:100A80004181FD3B1385240591044205C204D285B2
:100A90004181C180F533E39364FD81451305D0188E
:100AA000C53381451305F018E13BD14513051019F5
:100AB000C13BE54513053019E133E54513055019F0
:100AC000C13393052003130570195D3BF9451305E8
:100AD00090197D33930570081305B01955339307AA
:100AE0008002A30EF41CB705003EE577231FF41C1B
:100AF000D50585471305501E2300F41EAD33B705F9
:100B00000076ED051305901EB93BB7053F78CD057E
:100B10001305D01E893BB7050071D1051305101FC1
:100B20009933B7057978C9051305501F2D3BB705D3
:100B30007350D9051305101E3D33B705006DDD0553
:100B40001305901F0D33F1451305D01F293B814537
:100B500013051020093B8145130550202933954783
:100B60008946130600219385819601452315F420BB
:100B7000A3040420EF40C0561306002181451385CD
:100B80008196F1322945EF70204B894613060021EA
:100B9000938581960145EF40805F138AC182814928
:100BA0000D4B834A440E4E85FD1A93F5FA0FEF4024
:100BB000E01259C185090D04090AE39469FFB707DA
:100BC000002023980760056185BA03550A001316B3
:100BD0000901418293142600AA94C204C18026858B
:100BE00032C6E93142054185EFB090652AC81385C8
:100BF0002400420541815D39EFB0F0702ACA1385A7
:100C00004400420541815D3142054185EFB05063AA
:100C10002ACC13856400420541814939EFB0B06E9A
:100C200032462ACE0C084E850509EF40401613794E
:100C3000F90FE34C59F9BDBF0149E5BF9387819690
:100C4000AA979833A82322074205498F8823498F02
:100C5000A8336205598D8280938781963E9508213D
:100C60008280EFF2DF8B41112A842800B284EFB03A
:100C7000B07E8947638FF40291476380F40485470F
:100C80006397F400188493878196A29798A393079B
:100C9000F02063ED8700B707002003A5C7608146F9
:100CA0007D566C0060874486EF60405641016FF0CE
:100CB0005F892C842285E936D9BFA2452285653615
:100CC000F9B7EFF2DF8541112A846800B284EFB0F2
:100CD000B0788947638AF4029147638BF4028547B1
:100CE0006397F400188693878196A29798A3930739
:100CF000F02063E88700894626866C002285EF4055
:100D0000203E41016FF0FF832C862285953EC5B7BA
:100D1000B2452285893EE1BFEFF27F8089450545D6
:100D2000EF40204A21479307401F6369A7009317AC
:100D300015003965130585F03E951E213E856FF03F
:100D40005F8013050010828003C5C1968280EFF298
:100D50000FFD37040020130404611E2013077016D2
:100D60008507C207C1831EA0637AF7001945F935CC
:100D7000930515001945C53C2310040037040020D5
:100D8000130484600840EFB01058AA8403C561972B
:100D90008145C128EFB0D04AB7E7000083A5C7F26C
:100DA000EFB0C020A685EFA0D069EFB0104408C016
:100DB0006FF02FF9EFF2AFF6B707002083A5876039
:100DC000930740062945B3D5F502713C814621467B
:100DD0009385E1961945EF40A0306FF08FF6B70785
:100DE000002003A58760930740063355F5028280F3
:100DF00001A001A0EFF2AFF201112E84AA851945DE
:100E000042C63EC83ACA36CC32CEEF108036A285F2
:100E10001545EF10003672461145B285EF1060356A
:100E2000E2460D45B685EF10C03452470945BA85F4
:100E3000EF102034C2470545BE85EF10803332489D
:100E40000145C285EF10E03205616FF08FEF370585
:100E50000020130505628280B707002023AAA7603F
:100E60008280EFF2CFEB9307F5FF71476361F712D2
:100E700039678A07130707F3BA979C432E8982873D
:100E80001305152142054181C13B2A8422856FF05B
:100E90004FEB1305152142054181EFF03FA1F5B756
:100EA00039159374F50F2685EF007070AA85268595
:100EB000EF309058B7E7000083A587FFEFB0404BB5
:100EC000EFB0902C2A84E30309FC0D453385A4027E
:100ED0001305550EEFF09F9D2A944DBF0D45EF0071
:100EE000106DB7E7000083A587FFEFB06048EFB053
:100EF000B02961BF0145EF402006AA841305D01D2B
:100F0000EFF0DF9AEFB03040B7E7000083A5C7FFEE
:100F1000EFB0C0092A842685EFB09032AA852285D9
:100F2000EFB00045B7E7000083A587FFEFB040446E
:100F3000EFB0B02B99BF0545EF400002AA8413051E
:100F4000F01D7DBF0945EF30707181B7493D35BF58
:100F50001945ED311DBFB707002003A447613DB718
:100F60001305C020E13913548540930740061374DC
:100F7000F40F3304F4029377F50F41851375F50FE1
:100F80003E948967938707713305F502B1B7014431
:100F9000F5BD138701BB83464702938701BB1396B8
:100FA0002600329710437147631EE60203C75703BA
:100FB00015CB885B05C903C7D70209C7A38A0702F7
:100FC000A386070203C757039308000205480507D5
:100FD0001377F70F9375F70F63F5B802A38A07022B
:100FE000A38607021387160083C647031377F70FFC
:100FF0002382E7026364D7002382070223A4070247
:1010000082803316E800698E050769D6A38AB70285
:101010008280938701BB03C7570223A40702238260
:10102000E7028280EFF2AFCF938501BB83C7450211
:101030000546938555029CA11305902059316FF008
:101040004FD003C541BD8280A54763E6A700238A30
:10105000A1BC0145828005458280A54763E1A702C6
:10106000EFF2EFCB938501BBA382A50205469385E2
:10107000550213059020F53601456FF08FCC0545DC
:101080008280938701BB83C6470203C757026385EB
:10109000E60203C7D7020DE398573A9588D783C76E
:1010A00067021307803EB387E7026367F500EFF23C
:1010B0000FC785376FF0EFC8828001C9F147630A17
:1010C000F5009D47014563F5B7002382B1BE054594
:1010D0008280238EB1BC01458280EFF2AFC21385BE
:1010E00001B9EF70F06C13059020938401BBAD360D
:1010F000A382A4021305A020853683C7540223834C
:10110000A402238A04022382F402138901BB8144CE
:10111000138401BB054AA549139524001305151E28
:1011200042054181EFF09FB12320A90093F5F40F10
:101130001375F50F59376306450185041109E39DC1
:1011400034FD23280402A30A0402232C0402230EE4
:1011500004026FF06FBE138701BB1C5FA9C38347F6
:10116000C70393068002850793F7F70F230EF70254
:1011700063F5F600230E0702828055476371F7027C
:10118000EFF2EFB901449D442285050481451374B3
:10119000F40FEF00107EE31994FE6FF08FBA828097
:1011A000138701BB185B938701BB6309A70483C640
:1011B000C702A9C61347F7FF698F88DBA38A070216
:1011C00001460145854813080002B395C800F98D12
:1011D0009376F60F81C919C1A38AD7020547A38662
:1011E000E70282808506050693F6F60F0545E31EA5
:1011F00006FDA38AD7027DF3A386070282801387A8
:1012000001BB8346D7020547938701BB6396E6007F
:1012100003C7C7022382E70203C747020A07BA9738
:1012200088438280EFF2AFAF41112A8432C42EC6C8
:10123000EFF0CFE7B2458AA11305240042054181B2
:10124000EFF0CFE622460AA241016FF08FAFEFF236
:101250000FAD41112E841306E1006C00E137388791
:10126000014505C33C86014589CF63E9E700636A10
:10127000E400B3B7870013C5170021A00545E36A52
:10128000E4FE41016FF0EFABEFF26FA92A848DE12C
:1012900001468945EF00106901468D452285EF0022
:1012A0007068014685452285EF00D0676FF06FA911
:1012B000B144B3049402AE873E858545EFF07FBA12
:1012C0001319050113590901CA851385B401413762
:1012D0002A8689452285EF00F064CA851385F401CA
:1012E000BD372A8685452285EF00D063CA851385E0
:1012F0003402B13F2A868D457DB7EFF2CF9F411171
:10130000AA8AAE843D456C00B2891306E100368995
:101310003A8C3E8B428DC68C03544104213728867B
:10132000835BE10033057541EFB08071B7E70000E2
:1013300083A50700EFB0C0032A8A636E34033385A8
:101340007941EFB0E06FD285EFA05046EFB0E06991
:101350002300AD00330534416374890033053941FE
:1013600042054181EFB0207AD285EFA03044EFB042
:10137000C0672380AC00636D540333857A41EFB0BE
:10138000206CD285EFA09042EFB020662300AC0025
:1013900063E3840233045441131504014181EFB027
:1013A0008076D285EFA09040EFB020642300AB00A0
:1013B00041016FF0CF9733845441F9BF03480100D6
:1013C000388263F6A5026374A70063E6E6006379DA
:1013D000B700637FE6022380080123800701828033
:1013E0006364D700E37BE6FE238008018280637795
:1013F000E600E362B7FEE379D7FE19A06375D70074
:10140000E36BE5FCD5B7E371B7FEE368E5FCE9BF44
:10141000E36CD7FCD9B7EFF28F9079712A892E84CB
:10142000B2846C101306E1023D4536CE3ACC3ECA7A
:1014300042C846C6C53BF246B2484248D247624718
:1014400063F4860263EB260163E9280163E9160170
:10145000230007012380070129A0E3FD16FF2300D5
:10146000070145616FF0EF8D6367940063E59800B5
:10147000E36214FFF1BFE37414FFE9BFEFF22F8AB8
:10148000EF60507DB707002023A2A762B7070020B6
:1014900003A5076201478D4611468145EF70603C08
:1014A0006FF02F8AEFF22F8537E70000032A07003D
:1014B00039718547138401BA138901BB9389C183AC
:1014C00009476382E7047D5774181306F00F8145BE
:1014D0000145EF70E02A72578547118B75D3EFF005
:1014E000DFBFB707002003A54762014789460146D1
:1014F0008145232004002322040023140400232612
:101500000400EF7000362945EF601033856537150C
:10151000014093850580130505C0EF40C07605475F
:101520006312E50C5C4091C708C023220400231419
:101530000400B70A0020138B8A6103250B00444482
:10154000938A8A6163100524854789E48347D90219
:10155000B337F0002945232CF902EFF09FB21C406D
:1015600005476395E700E9E4EFF0BFA2B707002065
:1015700083AA47615685EFF0BFC25131AA84F14773
:101580001375F50F6316F51E63860A0C832609038F
:101590008347590301468545130500023397F5003B
:1015A000758F45C319C2A30AF90283475903294617
:1015B0003967850793F7F70FB3F6C70213070706D6
:1015C0009305000513059007B3D7C702BA9603C861
:1015D0000600130600058146BA979C230147EFF0E9
:1015E0007F81E9AA1E2454408507C207C1831EA437
:1015F00085E29146E3FFF6F258C013077025637C3D
:10160000F7008D475CC485471CC089475CC015B78F
:10161000E391E6F2DDB71307F0186375F700894729
:101620005CC401BF1307700CE375F7F08547CDBFAD
:101630000D476395E40023A0FA000DBFEFF09F9ED5
:1016400035B7850793F7F70F6373F50081470546B4
:10165000B1F691BFEFF0FF93EFF0FFAF1840854771
:101660006316F70023200400232604008144B94AAE
:101670001385340C42054181EFF00FDEAA8513F586
:10168000F40F8504EFF05FC0E39454FF1305100DD1
:10169000EFF08FDC23060102A306010223070102FB
:1016A000A307010249C58545EFF0AFFB131B0501F8
:1016B0001306A1032C182A8C3D45EFF0BFB6501835
:1016C000930561034D45EFF0FFB510189305210315
:1016D0005D45EFF03FB58357A10303558103135BCD
:1016E0000B011D8DEFB0C035D285EFA07048AA8BDD
:1016F0001545EFF06FD60356410383540103835A17
:10170000210383566103631B052863E49A0063F099
:10171000C6025AC25EC09308D1021308C1029307E1
:10172000F1021307E102D6852685EFF01FBD83463F
:10173000D1020346C1028345F1020345E102EF00F5
:10174000701913050021EFF06F969377F50F01459F
:1017500091CB1385F7FF1375F50F13059506060555
:10176000EFF0CF94EF00D03EEF009048894789BB5F
:101770008145EFF00FEFAA85054613D50401EF0070
:10178000302BD9BD854B6310750D93B71400232CF6
:10179000F9021C40B70A0020938ACA616398A70027
:1017A00083C70A0085E085072380FA0003C50A0085
:1017B000A14763FEA70485472380FA000145EF0097
:1017C000102559BD19476387E702636DF700F9DFFC
:1017D000FD1739678A07130747FABA979C432320F6
:1017E000FB00E9B72147E393E7FCEFF09F8223205A
:1017F0000B006DBF89451305D01DEFF0EF898945BA
:101800001305F01DEFF04F8923800A0045B79D476F
:10181000631CF50081457545EFF0AFE4AA850146EC
:101820001565EF00F02059BFB307F50239651305C0
:1018300085FB3E95034865005C31582134313021E9
:101840000C31082169BB9387F4FF93B71700232C51
:10185000F902994763FBA70265151375F50F131776
:10186000150093874184BA9786239123EFB0C01166
:10187000A945B305B50205462685EF00701B1C403F
:10188000E38C07DC23207B01C1BB370B002003471F
:10189000DB611C40130BDB6163127705E38E07DA13
:1018A00023A0EA0023000B008D47639AF40203A5EE
:1018B0000A0085472300FB001345F5FF058906054F
:1018C0009387C184AA9786231305D51DEFE01FFED9
:1018D000AA8501462685EF00B01511A0F1F78347D0
:1018E0000B00E39B07D683A40A0093F71400A5C35B
:1018F000F514333590009314150093870184A6974F
:1019000003DB070081455905EFF0AFD5AA850546F1
:101910005A85EF00F0111C40E38007D45C44054772
:101920006398E70083A70A00850723A0FA002DB378
:10193000E39407D29384D41D2685EFE03FF7930507
:101940001500C205C1812685EFE09FF331B3F11484
:10195000B334900093971400CE9703DB07008145C2
:1019600013856401EFF0EFCFAA8505465A85EF0095
:10197000300C1C40E38207CE5C4405476396E700C9
:1019800083A70A00FD1755B7E39807CC9384D41DAD
:101990002685EFE0BFF19305F5FF65B713150C0140
:1019A000418136CE32CCEFB0A009DE85EFA00060D9
:1019B000EFB0A0031378F50F6246F24663E49A0095
:1019C00063F1C60242C05AC29308D1021308C10291
:1019D0009307F1021307E102D6852685EFF01F9EDB
:1019E000B9B3DA889307D1021307F102D6852685A9
:1019F000EFF07FA22DBBEFE29FB237140140856468
:101A0000938504C2130504C0EF40A02137061800D7
:101A1000130504C0914613060610A145EF40E022CD
:101A2000914601469385048013050480EF40E02130
:101A3000130504809305F004EF40401C1305048057
:101A4000E14601469305000AEF402020A965E146E2
:101A50000146130504C08D05EF40201F13050480C7
:101A6000C145EF40201793850401130504C0EF40E2
:101A70006016130504C0E14637461D00930500209B
:101A8000EF40A01C130504C09306800437461D00D8
:101A900093050010EF40601BF1460146130504C09A
:101AA0009305000CEF40601AEF30A01585453735DF
:101AB0000140EF407005374500408545130505801E
:101AC000EF409004B7440F00B72600008D4705474C
:101AD0009385042493864641130640060D45EF4046
:101AE00070440D45EF40503CB146938504241306E5
:101AF000803E0945EF40504D0945EF40F03A3755DB
:101B000000400546854513050540EF40404BC14563
:101B1000130504C0EF40E01737650040130505408A
:101B2000EFE0BFAE6FE0FFA1EFE27F9F37250140FE
:101B3000814513050540EF1070133705002003257C
:101B40000563B70700201384876301479387876382
:101B50008D460546894523200400EF60106B1C402C
:101B600091C7B7E700E0116723A0E7206FE07F9DF2
:101B7000EFE2FF9A37040240130544048145EF2049
:101B8000E010BD4513054404EF20A0120145EF30DD
:101B9000C033854513054404EF20400F6FE07F9A62
:101BA000EFE2FF9737040240130504088145EF2058
:101BB000E00DBD4513050408EF20A00F0545EF30EB
:101BC000C030854513050408EF20400C6FE07F9777
:101BD000EFE2FF9489476308F5008D476300F50243
:101BE00001456FE01F96930500403715014013052E
:101BF00005C0EF4040091375F50FE5B793050002E6
:101C0000EDB7EFE2DF9191E937150140C1451305CA
:101C100005C0EF4000086FE0DF9237150140C14575
:101C2000130505C0EF40A007FDB7370500201305D9
:101C300005638280EFE2BF8EEF60D001B70700201E
:101C400023AAA762B707002003A5076301478D46B3
:101C500011468145EF60F0406FE0BF8EEFE23F8CB0
:101C600003A7018693870186DC23011137240140F5
:101C700030089545130504403ACC230EF100EF30AF
:101C8000A059EF300017B72700002A87938787B243
:101C9000370502403EC08D48054881479306C4443D
:101CA000054681452105EF30103605616FE07F89DB
:101CB000EFE2FF834111EF30C0132A841309E501DD
:101CC000AA84039504008904EF304051239FA4FEA9
:101CD000E39924FFB7E70000B7E9000037EA000006
:101CE00083ABC700B7E70000832A4A0003AB890033
:101CF00003AC0701938401BF01493E244A288D4D5E
:101D0000A6853E951E20137DF90F3E953355B503EC
:101D1000938CC1BF42054181EF70E0236307BD078B
:101D200091476309FD04EFA0105E83254A00131D4F
:101D30002900669DEFA0C06383A58900EFA04063E2
:101D4000DE852AC6EFA0C062B247AA8D03A50C01AA
:101D5000BE85EFA0F00AAA856E85EFA0202523207E
:101D6000AD000509954709048904E318F9F8410114
:101D70006FE0AFFBEFA03059D685EFA0605FDA854A
:101D8000EFA0005F23A8AC00E9BFEFA0D057E28529
:101D9000EFA0005E83A58900EFA0805DB7E700009B
:101DA00083A54701EF90F06923A6AC005DBF0A054B
:101DB0009387C1BFAA9788438280EFE2CFF339713E
:101DC0007D5734081306F00F81450145EF60501B25
:101DD000E247918BF5D75935A9473EDA3ED8B72768
:101DE0000000938707BD05444C100D453EDE22D40C
:101DF000EF3080031305B020EFE01FE67D151335AB
:101E000015002AD44C100945EF300002B727000016
:101E1000938727C06C0801453ED022D4EF20107E66
:101E2000138401C4138501C4EF70801813050401E5
:101E3000EF700018B7E7000003A48701938401C185
:101E4000A285138501C1EF700014A285138584005B
:101E5000EF706013B7E7000003A4C701938401C2C9
:101E6000A285138501C2EF702014A2851385040199
:101E7000EF70801381450145EF20907F8545054532
:101E8000EF20107F3D64130604A6A1469305007D54
:101E90000145EF403022130604A689469305007DD4
:101EA0000545EF4030210145EF30A009B72700007C
:101EB000B7040240938707B7B73601402A878D4899
:101EC0000548938606C405468145138544043EC0F3
:101ED0008147EF3050130545EF30A006B7270000CB
:101EE000938707BAB70600402A878D48054893862E
:101EF00086030546138504083EC081458147EF30BF
:101F0000901013850408BD45EF10B05A13854404A2
:101F1000BD45EF10105A138544048545EF10105746
:101F2000854513850408EF1070560145EF40C077D2
:101F30000545EF406077B707002003A547630147D9
:101F4000894601468145EF60D011B7E7000003AA3A
:101F500007020144A104854A1389C1BF370B002041
:101F6000D28BEF201069AA853D462685EF30301CC4
:101F7000EFE03F8C2945EF60200C01473408130641
:101F8000F00F81450945EF60A07F058979D9EFF011
:101F90003FD2EF30C00A630554050DC4894763037F
:101FA000F4068D47E31FF4FA81450145652E81450E
:101FB00005454D2EEFE01FE081450145EF20B0655E
:101FC000014445B70D45EF20706941DD0325C90087
:101FD000D285EFA0C0281345F5FF1354F50151B782
:101FE0000945EFE07FC7AA850145AD2E0D45EFE01D
:101FF000BFC6AA850545BD2685450145EF20B061D0
:10200000094485B793098B624944594C854522851B
:10201000EFE03FE583D70900420541816384A700D3
:102020002390A90005048909E31284FF0325C90050
:10203000DE85EFA0C0226352A0020D45EF201062A2
:1020400011C94C100145EF2070784C100545EF2068
:10205000F0777DB78545EF20105C0D4419B7EFE2AE
:102060000FCC3705024013050503EF3040783735B4
:102070000140EF408032054437350140EF40603287
:10208000E30C85FE37150140C14513050580EF308F
:1020900050406FE00FCBEFE28FC8370502401305C9
:1020A0008505EF30C0743744004013050480EF40CD
:1020B000C02E1304048085442285EF40802EE30D5A
:1020C00095FE371501408565130505C0EF30703C5E
:1020D0006FE02FC7854706063396C7000605894778
:1020E0003395A700014781476312B7021395070193
:1020F0004181C183814501476390D502598D418358
:10210000938601C6D98FEAA29EA682800507C98F51
:102110001377F70F0A05C9BF8505518F93F5F50FA2
:102120000A06D9BF39671307C7062A971423B96768
:102130009387C70713971600938601C6BA9613872D
:102140000185BA95AA979C2303C7F5FF039806005B
:102150003317F700931707010547C1876316E60099
:10216000B367F8009EA2828093C7F7FFB377F800A9
:10217000D5BF994763ECA708B967938747020A055B
:102180003E951841B70700209387C76302879A23BB
:1021900093D65500AE05719B558F9AA3BA2313773A
:1021A000F77F4D8FBAA38280BA238E05137737C08D
:1021B000CDBFBA2393D64500B205619B558FBAA314
:1021C000DA23520751834D8FDAA38280DA23FD761A
:1021D000FD06758F9605C5BFDA2393D62500FD8AC7
:1021E000019B558FDAA3FA23BA054A0749834D8F1D
:1021F000FAA38280FA23F1769386F607758F9E05FF
:10220000FDB7FA23137707F8D98DEEA3828037073D
:1022100000209307C763BE231307C76309C593E76D
:1022200007403EA3828093F7F7BFC207C183D5BFA3
:10223000EFE26FAC41112A89AE84014B63D50500F2
:10224000B304B040054BB7470F009387F723378798
:102250001E00A6971307E7476365F704E1679387B6
:10226000F76937170300A6971307E7D3636FF70AD9
:1022700089679387F7701567A6971307E7E1636986
:10228000F70A9387743E1307E07C6366F70A938727
:1022900034061307600C89498D4A6366F700894A42
:1022A00019A081499D4AB96B014A938B0B06294CB1
:1022B000B3E78403528513041A0032C61374F40F73
:1022C000DE978C23EFF0FFEA3246B3C484036397B2
:1022D0008A063285EFF0BFF3630B0B00228593056E
:1022E000000413042A00EFF0DFE81374F40F99449C
:1022F00063F8840489476397F902B707002093873E
:10230000C763EA237177798D135789001377F7072D
:10231000598D11671E09130707F83379E9003365F2
:102320002501EAA341016FE08FA08549994AA5BF25
:102330008949954A8DBF8949914AB5B7228A8DBF8F
:10234000228581450504EFF0DFE21374F40F4DB7E9
:10235000370700201307C7631E230A058D8BC98F1B
:102360001EA38280EFE2AF9B2E87A14511E191452C
:10237000B967060793870704BA9792230945EF4088
:10238000806381450945EF40006B6FE08F9BEFE272
:102390000F99B7270000411137040240938767095E
:1023A00037070020B74600403EC013058405894822
:1023B000054881471307C7639386C6800546854550
:1023C000EF306044B72700009387E705B736014038
:1023D0003EC08948054881471387C1C6B1060546F6
:1023E000854513050403EF30004241016FE06F950E
:1023F000EFE2EF92371501408565130505C0EF3018
:10240000100A37050240914513058505EF30E03E7F
:102410006FE02F93EFE2AF902946938501C61385B5
:10242000C1C6EFA07003B707002003D74764930627
:10243000700C9387476405074207418363E9E60808
:102440009AA38A239307700C63F6A7089387C1C6E3
:1024500096276D771307A7AA758F94433776F6DB17
:10246000130666DBF18E94C3D4433776AAAA13060B
:1024700066DBF18ED4C39AA79387C1C683D8870041
:102480009566904313885655337818013717C92736
:10249000B768EDB79388D8B613079724718F337652
:1024A000160190C3D043B76855559388D8B6337694
:1024B0001601CE2323940701D0C313065009637F6E
:1024C000A60093869624ED8E98C3D6A301A82390E8
:1024D000070085BF93073006E3E0A7FA37150140F0
:1024E000C14513050580EF30807B370502409545D7
:1024F00013050503EF3060306FE0AF84EFE22F8209
:102500000545EF103040EF003033EFF0CFCEEF0055
:10251000B059EF007048EF50807B01A0828099672E
:102520007390078001A0EFD29FFF9C21411161476A
:10253000DC876360F70285479CC2482905469305FE
:10254000F1001305250CEFE0CFF1014541016FD0FB
:102550005FFF4145E5BFEFD29FFC85479CC2C8297C
:10256000411132C61305250CEFE00FEF324608A2E9
:10257000014541016FD0FFFCEFD27FFA85479CC235
:1025800048292E8481456105EFE0BF8D08A00145F3
:102590006FD03FFBEFD2BFF805469C2190C258296F
:1025A0004111DC87630DC70089466304D7020546E5
:1025B0009305F1001305A020EFE0AFEA29A03E85C6
:1025C000EFE09FA819E1014511A0414541016FD0FD
:1025D0005FF73E85EFE07FA8F5B7EFD2BFF29C2111
:1025E00023A0060040294111DC870549B684630C0D
:1025F000240331C40D4763648704AA893D456361A0
:10260000F50285451305E4FFEFF0DFD503C5490169
:1026100005469305F100EFE0CFE423A02401014536
:1026200041016FD07FF11D473D45E36BF7FE054645
:102630009305F1000545EFE0CFE280C0CDB705443A
:102640003D45E36FF4FC05469305F1001305B0200A
:10265000DDB71C2141115C871C31DC8728874101D3
:102660008280EFD2DFEB01112A842E8536C6EFF08F
:102670005FFEB2468947E8879CC25C280547639B9A
:10268000E700AA8513050021EFE08F9F0145056152
:102690006FD03FEB1385770609469305E1010605E8
:1026A000EFE02FDCE5B7EFD29FE701112A842E85FA
:1026B00036C6EFF01FFAB2468947E8879CC2482821
:1026C0009305E101094606054505EFE08FD901456F
:1026D00005616FD01FE7EFD29FE401112A842E8598
:1026E00036C6EFF01FF7B24689471375F50F9CC247
:1026F000E88748289305E101094606051305B51D3D
:10270000EFE02FD6014505616FD0BFE3EFD23FE187
:102710004111AA8511466800EFA0005432454101DD
:102720006FD03FE2EFD2BFDF01112A842E8536C67B
:10273000EFF0DFFDB24691472ACE9CC248286C08D4
:102740001146130585070A05EFE0AFD10145056184
:102750006FD03FDFEFD2BFDCAA84DC283D472E8557
:102760003684636DF70085478C219CC2C828130509
:102770001521EFE0CF9101456FD0BFDC4547636F76
:10278000F700EFF01FED89471CC0DC28AA8593876E
:10279000F71013951700EFE0AF8EF1BFEFF01FF7C2
:1027A00091471CC0EFE04FEBF9B7EFD25FD79147ED
:1027B0009CC25C290D474111639FE7002E85EFF015
:1027C000FFF4488605466C003945EFE08FC90145A6
:1027D00041016FD01FD71145E39CA7FE2E85EFF076
:1027E000FFF22AC611466C001305C020F9BFEFD2D4
:1027F0001FD301112A8432852EC636C4EFF07FE53F
:10280000A246B24589479CC2E887882109469305BC
:10281000E1017D150605229542054181EFE06FC477
:10282000014505616FD0FFD1EFD27FCF2E86930592
:1028300045016D45EFF0BFFB6FD0BFD0EFD23FCE6B
:102840002E869305450113057002EFF05FFA6FD0F5
:102850005FCFEFD2DFCC2E86930545011305300301
:10286000EFF0FFF86FD0FFCDEFD27FCB2E86930530
:1028700045011305F003EFF09FF76FD09FCCEFD227
:102880001FCA2E86930545011305B004EFF03FF6ED
:102890006FD03FCBEFD2BFC82E86930545011305FD
:1028A0007005EFF0DFF46FD0DFC9EFD25FC72E867F
:1028B0009305450113053006EFF07FF36FD07FC815
:1028C000EFD2FFC52E86930545011305F006EFF004
:1028D0001FF26FD01FC7EFD29FC42E86930545010C
:1028E0001305B007EFF0BFF06FD0BFC5EFD23FC305
:1028F0002E869305450113057008EFF05FEF6FD04A
:102900005FC4EFD2DFC12E86930545011305300960
:10291000EFF0FFED6FD0FFC2EFD27FC02E869305A0
:1029200045011305F009EFF09FEC6FD09FC1EFD286
:102930001FBF2E86930545011305B00AEFF03FEB4C
:102940006FD03FC0EFD2BFBD85479CC24829914799
:102950002E84631AF5001305B020EFE0EFAF08A056
:1029600001456FD01FBE3305A04042054181F5B738
:10297000EFD2FFBA1C21054741112E846391E70273
:102980000D453306A6029CC21305460E4205418141
:10299000EFE08FAC08A0014541016FD09FBA094715
:1029A0006391E7020D453306A6029CC21305560E3D
:1029B00042054181EFD09FEF9357850008A01CB0DE
:1029C000D9BF91479CC20821B7070040F5173E9533
:1029D000D1473306F60232950A051305D50E420596
:1029E0004181EFE0AFA52AC611466C002285EFA019
:1029F000A02655B7EFD2BFB201465105EFF05FF701
:102A00006FD03FB4EFD2BFB105465105EFF05FF68E
:102A10006FD03FB3EFD2BFB009465105EFF05FF57D
:102A20006FD03FB2EFD2BFAF054798C25C292E846A
:102A3000638CE7000947130590206384E7001305C2
:102A4000A020EFE06FA119A0EFE0AFDF08A00145E3
:102A50006FD03FAFEFD21FAB03490500854741114F
:102A6000AE843284368A631CF9028C213285EF20D1
:102A7000E026BD470DE10D453305A4029C20054627
:102A800023202A015C841305450E42052C00418158
:102A9000EFE02F9D81473E8541016FD0FFA9894717
:102AA000631FF9002E85EFF0DFBA68840D4533050A
:102AB000A40223202A0109461305550EF9B7AA8955
:102AC0002E85EFF0BFC491472320FA002AC203C528
:102AD0000900B7070040F5173E95D147B307F40248
:102AE00011464C003E950A051305D50E420541815D
:102AF000EFE02F979244139504014181EFA0A000CD
:102B00002AC613D50401EFA00000B7E7000083A593
:102B100087FFEF90A04903C609002AC42C007D1648
:102B2000420641822285EF20802681472DD5BD4770
:102B30009DB7EFD2DF9E01465105EFF0BFF16FD098
:102B40005FA0EFD2DF9D05465105EFF0BFF06FD0DB
:102B50005F9FEFD2DF9C09465105EFF0BFEF6FD0CA
:102B60005F9EEFD2DF9B894701111CC22EC6EFD0BA
:102B7000FFD3B2459357850088A19CB101450561FB
:102B80006FD03F9CEFD2BF9936866D45EFF07FFD49
:102B90006FD03F9BEFD2BF98368613057002EFF0DF
:102BA0005FFC6FD01F9AEFD29F97368613053003D4
:102BB000EFF03FFB6FD0FF98EFD27F96368613057C
:102BC000F003EFF01FFA6FD0DF97EFD25F953686F4
:102BD0001305B004EFF0FFF86FD0BF96EFD23F942B
:102BE000368613057005EFF0DFF76FD09F95EFD2B3
:102BF0001F93368613053006EFF0BFF66FD07F9433
:102C0000EFD2FF9136861305F006EFF09FF56FD0F7
:102C10005F93EFD2DF9036861305B007EFF07FF4B5
:102C20006FD03F92EFD2BF8F368613057008EFF05A
:102C30005FF36FD01F91EFD29F8E36861305300958
:102C4000EFF03FF26FD0FF8FEFD27F8D3686130506
:102C5000F009EFF01FF16FD0DF8EEFD25F8C368678
:102C60001305B00AEFF0FFEF6FD0BF8DEFD23F8BAF
:102C700089479CC248292E84411185454505EFE0CE
:102C80004F9E9357850008A01CB0014541016FD0AD
:102C90005F8BEFD2DF8891479CC2482941112E8477
:102CA000130585070A05EFD07FF92AC66C00114687
:102CB0002285EF90707A014541016FD09F88EFD255
:102CC0001F8689479CC2482901112EC60605130597
:102CD000B51DEFD0BFBDB2459357850088A19CB10B
:102CE000014505616FD0FF85EFD27F8389479CC284
:102CF000482901112EC606054505EFD03FBBB24558
:102D00009357850088A19CB1014505616FD07F83F1
:102D1000EFD2FF8091479CC25C29094741112E8464
:102D20006386E7020D476387E70205471305C02066
:102D3000639FE700EFE0AF8A2AC66C001146228548
:102D4000EF909071014541016FD0AFFF1945EFD071
:102D5000FFEEDDB73945EFD03FF0F9BFEFD22FFCE2
:102D600089479CC24829854741112E84631EF5007E
:102D700013050021EFD09FB39357850008A01CB026
:102D8000014541016FD0EFFB130575060605DDB760
:102D900083A74181DC431387C71271EB396713079F
:102DA000C70E23A0E7141387471471EB3967130785
:102DB000C70F23ACE7141387C71571EB39671307E7
:102DC000C71F23A8E7161387471771EB3967130747
:102DD000C71723A4E7181387C71871EB39671307C0
:102DE000C71923A0E71A1387471A71EB396713072E
:102DF000C71B23ACE71A1387C71B71EB396713078F
:102E0000C71D23A8E71C1387471D71EB39671307FC
:102E1000C71223A4E71E1387C71E71EB3967130778
:102E2000C71423A0E7201387472071EB39671307E6
:102E3000C70C23A2E7221387872271EB3967130798
:102E4000C71123AEE7221387072471EB39671307F5
:102E5000C70823AAE7241387872571EB396713076F
:102E6000C70A23A6E7261387072771EB82803967F5
:102E70001307C72223AAE7121387871305F33967BD
:102E80001307C70B23A6E7141387071505F3396744
:102E90001307C72123A2E7161387871605F339679F
:102EA0001307C71623AEE7161387071805F339670C
:102EB0001307C71823AAE7181387871905F339677B
:102EC0001307C71A23A6E71A1387071B05F33967E9
:102ED0001307C71C23A2E71C1387871C05F3396758
:102EE0001307C71E23AEE71C1387071E05F33967B8
:102EF0001307C71323AAE71E1387871F05F3396734
:102F00001307C71523A6E7201387C72105F33967E1
:102F10001307C71023A8E7221387472305F3396750
:102F20001307C70D23A4E7241387C72405F33967C4
:102F30001307C70923A0E7261387472605F3396738
:102F40001307C72023ACE72615B7B71702409843ED
:102F5000B706FFF841111367170098C3D843370627
:102F60000200758FD8C39843B706F7FEFD16758F1C
:102F700098C39843B706FCFFFD16758F98C3D843D6
:102F8000B70681FFFD16758FD8C337079F0098C716
:102F900002C402C69843C166558F98C3B716024053
:102FA00005679C42F18F3EC6A24785073EC4B247E3
:102FB00081E7A247E397E7FEB71702409C431397C8
:102FC000E7006359070685473EC6324785476311C8
:102FD000F706B7170240D843B706C1FFFD161367BF
:102FE0000708D8C3D843D8C3D84313670740D8C30A
:102FF000D843758FD8C3D843B7063D00558FD8C383
:103000009843B7060001558F98C3984393166700FD
:10301000E3DD06FED843B7160240719BD8C3D84300
:1030200013672700D8C32147DC42B18BE39EE7FE3C
:103030004101828002C651BFB7160240DC42370709
:1030400000201146B18B130787586385C7002146BE
:103050006388C702B7177A00938707201CC3B71786
:103060000240DC43918393F6F700B7070020938773
:103070000700B69794231C43B3D7D7001CC38280A4
:10308000DC42D4424166C983BD8BF18E8907454637
:103090006393C700C94781EEB746024083A6068006
:1030A000C18A89CEB7167A009386062021A8B71662
:1030B0000240D4421396E600E35606FEB7163D00E2
:1030C00093860690B387D70251BFEFD2AFC3C164D6
:1030D00041113709002009440D4A8D4AFD14371B60
:1030E0000000832789649309896463848706638663
:1030F0004703E5FF154685451305EBD4EF30400F38
:10310000EFD0CFFBEFF0AFA8EFE0DFB2EFE00FB70B
:10311000EFF01FC823A05901E9B77D57740001469D
:1031200081450145EF50C065B247E39C87FA26868A
:1031300081450145EF50702BEFD0EFCB0841EF40B8
:10314000F02EEFD0EFCB0841EF40502E23A08900A6
:1031500049BF1305401FEF40306EEF30900F51B75D
:10316000B7370020938787871CC1B7270020938734
:1031700087479CC1930700081CC28280B737002094
:10318000938787911CC1B7270020938787679CC1CD
:10319000930700081CC28280EFD26FB8EFD03FCBFC
:1031A0002A8437280020B7270020B7E5000037150C
:1031B000000013088818938787D819478546130697
:1031C00000109385C5231305454AEF40D01B08C066
:1031D000EFD00FC32A84B7E500003705000013883D
:1031E0008107938781C71147854613060010938591
:1031F00085241305657AEF40101908C0EFD0AFBFE2
:103200002A8437280020B7170020B7E500003705CB
:103210000000130888AD938787E515478546130698
:1032200000329385852513054561EF40D01508C010
:10323000EFE0BF9F2A8437280020B7270020B7E59A
:10324000000037250000130808D3938707B32147F0
:103250008546130600089385C5261305A5DBEF40B8
:10326000901208C037280020B7270020B7E50000DB
:10327000373500001308083E9387071E254785460B
:1032800013060008938585271305A50CEF40B00FA2
:10329000EFD00FB70841EF40F068EFD0CFB508414D
:1032A000EF4050686FD0EFA9EFD26FA7EFD0CFD724
:1032B000B7360020372600202A8401479386068DE2
:1032C0001306864391454145EF30506208C06FD0E8
:1032D0004FA701A001A001A001A001A001A001A091
:1032E00001A001A001A001A001A001A001A001A0D6
:1032F00001A001A001A001A001A001A001A001A0C6
:1033000001A001A001A001A001A001A001A001A0B5
:1033100001A001A001A001A001A001A001A001A0A5
:1033200001A001A001A001A001A001A001A001A095
:1033300001A001A001A001A001A001A001A097E1AE
:10334000FF1F9381A1A4172100201301A1CB17C552
:1033500000001305E5F097D5FF1F9385A5CA1386D6
:10336000818663FAC5008322050023A0550011055C
:103370009105E3EAC5FE17D5FF1F1305A52797059D
:1033800000209385A50A6377B50023200500110569
:10339000E36DB5FEFD42739002BC8942739042809A
:1033A000B72200009382028073A0023097D2FFFF01
:1033B0009382C2C893E2320073905230EFF0FFB8AC
:1033C00097F2FFFF9382C213739012347300203080
:1033D000EFD2EF94B727014093870740631EF500B3
:1033E000854513050020EF00707681451305002008
:1033F000EF00D0756FD0EF94B73701409387078007
:10340000E31AF5FE854513050040EF003074814551
:1034100013050040F1BF5C413707F1E01307F7EFF8
:10342000944D7D8F9C41D58FD44DD58FD441A2062C
:10343000D58FD98F5CC11C4537F7F1FF1307D77FB4
:10344000D4457D8F9C49D58F94458606D58FD98FDD
:103450001CC55C55370710FF7D177D8FDC29FD17D4
:1034600093F7F70FD207D98F5CD582801C4589C5A9
:1034700093E717001CC58280F99BEDBF1C4589C5E9
:1034800093E707101CC5828093F7F7EFE5BF1C4553
:1034900093E787001CC5828008450D8105898280DD
:1034A0001C4593E747001CC58280084509810589B2
:1034B00082801C4591C537075000D98F1CC582807A
:1034C0003707B0FF7D17F98FD5BFA54763F7B7045E
:1034D0008D47138765FF3307F7020328C5009D4713
:1034E000B397E70093C7F7FFB3F70701B396E6007A
:1034F000DD8E54C5994763E3C70495477D163306AF
:10350000F6025859FD47B397C70093C7F7FFF98FE5
:103510003396C5005D8E50D982800D473387E50212
:10352000032805019D47B397E70093C7F7FFB3F75B
:103530000701B396E600DD8E14C96DBFB14763E2A3
:10354000C702954765163306F6021859FD47B3972B
:10355000C70093C7F7FFF98F3396C5005D8E10D96A
:10356000828095474D163306F6025855FD47B397AE
:10357000C70093C7F7FFF98FB395C500DD8D4CD514
:1035800082801C4591C537071000D98F1CC58280E9
:103590003707F0FF7D17F98FD5BF5841144193D7F6
:1035A0008500F58F99C713F5F50F798D3335A00098
:1035B000828001458280A18193C5F5FF0CC1828084
:1035C0005C4191C537070004D98F5CC18280370701
:1035D00000FC7D17F98FD5BFEFC27FF401112A845B
:1035E00023030100A5441C8363FAF40623030100AE
:1035F000A54621461C8363F0F60A23140100231517
:103600000100230301009546130600601C8363FE3E
:10361000F60E1C8393F7F70F638407123884148324
:103620003C840C8310833347D702B3E7B702860785
:10363000B3C7C702BA97C207C1837C84188399476E
:103640009546998F93F7F70FDC839C8393F7F70FD9
:10365000639C07108567938707800DAA1C4493E736
:1036600087001CC42285EFF03FE36DFD1C4493E707
:1036700047001CC42285EFF05FE36DFD78441C8396
:1036800014108607B6972396E7FE1C83850793F7E9
:10369000F70F5C8389BFA30301009C836378F60066
:1036A0001C83850793F7F70F5C83A9B798839C83E6
:1036B0000C100607850786072E97AE970357C7FE9F
:1036C00083D7C7FE63FDE7029C838607AE9783D747
:1036D000C7FE7C849C83988385078607AE9783D535
:1036E000C7FE931717001810BA972396B7FE9C834E
:1036F00038840C1085078607AE972396E7FE9C83D7
:10370000850793F7F70FDC8349BF1C8318108907DF
:103710008607BA9783D7C7FEE36DF6EE1C830C10BD
:10372000388489078607AE9783D7C7FEBA97C20742
:10373000C1837C841C83850793F7F70F5C83F9B5FD
:1037400093070040DDBD1C8310103885890786076C
:10375000B29783D7C7FEBA97C207C1837C851C8303
:10376000850793F7F70F5C831C83E3FEF6FC38852F
:1037700094833C858C8390833347D702B3E7B702A9
:103780008607B3C7C702BA97C207C1837C8528845E
:1037900034852C8430850567930700401307078024
:1037A0003385A740B306D7408D8F118F4205C206DF
:1037B000C2074207C18641874185C1873695BA97BE
:1037C00089463345D5020561B3E7D7023E954205E8
:1037D00041856FC01FD7EFC29FD40545EF00D03A97
:1037E0000145EF00703A6FC0DFD51841AA87759B7D
:1037F00018C118411367170018C14167D443858A5F
:1038000099E27D1765FFD8430145058B49CF944563
:103810000547639BE608984313670708D44598C398
:1038200005476397E608984313670704944998C3CC
:1038300005476393E608984313670702D44998C382
:103840000547639FE606984313670701944D98C3A5
:103850000547639AE606984313678700D44D98C3DB
:1038600005476395E60698431367470098C3B82158
:10387000B4317A07E206558FD421C206558FD43170
:10388000D206558F9621FD16558FD8CF9843799B38
:1038900098C34167D443858A99C27D1765FFC843A1
:1038A0001345F5FF0589828098431377F7F7BDB775
:1038B00098431377F7FB9DBF98431377F7FDBDBF80
:1038C00098433D9B61B798435D9B49BF98436D9B6F
:1038D00071BF3767004013070740832607203C2548
:1038E000054893E616002320D7208325C7213316E9
:1038F000F8009346F6FFF58D232EB7204C25C5E53D
:103900008325C720035825008E07F58D2326B72071
:103910006E21BA975A21C205B3E5050123A0B72449
:103920000E2142074D8F23A2E724B7270240985B60
:10393000B707000FF98F99EF3767004093070730FB
:10394000130707408E239107C205C181239EB7EE5E
:10395000E39AE7FE3835B7670040938707402DEBC1
:1039600003A74720758F23A2E7201A25B7670040D9
:103970009387074035E303A74721F98E23AAD72071
:10398000184985476319F700B767004003A7C76167
:10399000598E23AEC760B767004003A70760799BC5
:1039A00023A0E7608280E39205F98325C7200358AE
:1039B00025008E07D18D2326B7200E21BA975A21D4
:1039C000C205B3E5050123A0B72442076E2199BFC4
:1039D00003A74720518F41BF8546E313D7FA03A7BA
:1039E0004721518F23AAE72061BF1C451397570039
:1039F000634E07081C4513974700634B07081C4597
:103A000091461397370063510708894693974600FC
:103A1000AA9703A70718058B23A0E71890258835D8
:103A200035EA984103A607185607498F518F23A0FE
:103A3000E718B8253D8BB8A503A64718419A23A2DD
:103A4000C71803A64718518F23A2E718D025B83509
:103A50002206598ED8354207598EF8256207518FB4
:103A600023A4E7189029F8352206598E9839420781
:103A7000598EB8296207518F23A6E71803A70718A4
:103A80001367170023A0E718368582808146BDBFE3
:103A90008546ADBFD84103A807180E07498F518F3F
:103AA0003367070169B78DE51C418546F19B93E7B4
:103AB00017001CC1C16758410D8B6304D700FD1767
:103AC000FDFB5C418D8BFD1793B717003E8582800F
:103AD0008547639EF5001C41F19B1CC1C16758419D
:103AE0000D8B19C3FD17E5FF5C418D8BF1BF0947B5
:103AF0008147E39DE5FC1C418946F19B93E7270044
:103B00001CC1C16758410D8B6304D700FD17FDFB35
:103B10005C418D8BF9174DBF5C4901C6DD8D4CC9E9
:103B2000828093C5F5FFFD8DDDBFB707F000ED8FF7
:103B300089CB104D3375B600320531813335A00085
:103B400082809397750063D60700544133F5B60021
:103B5000E5B79397450063D5070008456D8DE9BF2C
:103B6000B706100093976500FD1663D70700584508
:103B70003375B700758DD9B71C4933F5B700DDBF74
:103B8000B707F030938707076395F500232C0500EE
:103B900082809397C50013976500B1836354070033
:103BA0005CC5828013975500635407001CC982804E
:103BB00013974500635407001CC582805CC1828056
:103BC000930700106386F50663E7B702A147638891
:103BD000F50663E9B7000547638EE5041147638185
:103BE000E506828013070002638FE5049307000453
:103BF000638AF5048280938705808DCB85679387E0
:103C0000078063EBB700930700206383F5029307F7
:103C10000040638FF5008280C1676388F502B707B3
:103C200002006387F502A1676393F502232C050068
:103C3000914729A8C167938717101CC58280C14787
:103C40005CC58280C1471CC98280A1475CC182805B
:103C5000C147EDBF1C4161773D0794517D8F9C4565
:103C6000D58F9449D58FD449D58F944DD58FD44DC8
:103C7000D58FD451D58F9455D58FD98F1CC1DC45A4
:103C80005CC19C411CC5DC415CC582801C4189C56E
:103C900093E717001CC1828041677917F98FDDBF58
:103CA0001C4101C6DD8D0CC1828093C5F5FFFD8DE1
:103CB000DDBF4CC18280B70702409C437D8D333508
:103CC000A0008280EFC2BF85EFF0FFFE6FC07F874C
:103CD000B7070240C8C382809C4513F7070113F859
:103CE000F70001C7D8413368E80037270240145B6A
:103CF0003707000F758F5DEB3707002085462306D9
:103D0000D764371701406315E5009A2135839AA1DE
:103D10008E2113F7F50F39C318418146854E3D4F6B
:103D2000930F800293028004214E3396DE00B3F895
:103D3000C500631116039398260033131F01134324
:103D4000F3FF3377E300B318180133E7E800639912
:103D5000F70750C98506E39AC6FD18C11307F00F8F
:103D60006375B70454412146854E3D4F930F800241
:103D700093028004414EB398CE0033F7150163924D
:103D8000E8021317260001173313EF001343F3FF64
:103D9000B376D3003317E800D98E6397F703232A4D
:103DA00015010506E319C6FD54C18280371701408D
:103DB000E310E5F6370700200347C76431DBB1B7EE
:103DC000E39A57F810C979B7E39D57FC23281501EA
:103DD000C9BFB71701406318F500B707002083C7B4
:103DE000C76491C3B58108456D8D3335A0008280CD
:103DF000B71701406318F500B707002083C7C764F1
:103E000091C3B5810CC98280B71701406318F500D2
:103E1000B707002083C7C76491C3B5814CC98280AE
:103E2000B7070140635A0504DC4F93560501131888
:103E300005013707300013F6F60013580801B37672
:103E4000E500635E05066399E604930606010D46E8
:103E5000B316D60093C6F6FFF58F99C913575501CF
:103E60001377F73F12073317E800D98F635505061C
:103E7000370701405CCF828037270240145BDC4368
:103E80003707000F758F55F313D71700F976CE0754
:103E9000758FCD83D98F51BF1317B50063560700B7
:103EA0008D46B396C6007DB7135755011377F73F7C
:103EB00012073317E8001347F7FFF98F79BF6390B4
:103EC000E602370601405442370700F17D17F98FAB
:103ED000758F58C2C1F5370701405CC38280131744
:103EE000B500635C07008D46B396C60093C6F6FF27
:103EF000FD8EB707000FD58FF1BF1357550112077D
:103F00003317E8001347F7FF7D8FB707000FD98FEE
:103F1000D1B7EFC2CFE079712A84462168082EC656
:103F2000112E925737470F001307072433D7E702A4
:103F3000C204C18093F404FCC204C180B24561652F
:103F40001305056A131607014182D18C46A016207D
:103F5000C206C182F99AC206C18216A09441636961
:103F6000D5048606B3D7D70291461397070141833C
:103F7000BA876373D700914705064206C20741829C
:103F8000C18312B05EAC1E20DA21B62593E717007C
:103F90001EA01E20558FC207C18393F757BFD98F2C
:103FA0001EA09A25DE25D98F1EA445616FC06FD94A
:103FB000EA2131667D16631DC5020D46B386C60231
:103FC000B3D7D702C207C1839396470199E293E71B
:103FD0001700A166D58F9306C0123307D702930648
:103FE000803E3347D7020507420741831AB059BFC5
:103FF0006546B386C602B3D7D7029166C207C183AE
:10400000D58FD9B71E2189C593E717001EA18280DD
:10401000C207C183F99BC207C183CDBF1E2189C5D9
:1040200093E707101EA18280C207C18393F7F7EFC1
:10403000C207C183C5BF1E2189C593E707201EA102
:104040008280C207C18393F7F7DFC207C183C5BF70
:104050001E2189C593E707401EA18280C207C18344
:1040600093F7F7BFC207C183C5BF5E2589C593E734
:1040700017005EA58280C207C183F99BC207C18376
:10408000CDBF5E2101C6DD8D4EA1828093C5F5FFB7
:10409000FD8DDDBF0EA982800A291375F50F828080
:1040A00093F7E50F19C293E71500C207C1831EA954
:1040B0008280411102C62AC6B247BE952EC6B247BB
:1040C0008A2341018280411102C402C693D7C501EF
:1040D0002AC63EC4A247A205A18199CBB247D10707
:1040E0003EC6B247884341016D8D3335A0008280C2
:1040F000B247C181E107EDB793C5F5FFC205C181A4
:104100004EA98280B707002023A8A7648280B70742
:104110000020938707659443182181E63C2192078C
:1041200021A894430546639FC6023C2110319207A3
:104130006314D60093E707F8B7E600E093F7F70FAC
:10414000BA962380F6408546935757003397E6008A
:104150005441A5C2938707048A07B7E600E0B697E3
:1041600098C382808C4389466391D50214313C21E7
:104170006365D6008A06B6975DB79386E6038A061E
:10418000B69793F7F70F920775B790438D46631C68
:10419000D60014313C216364D6008606E9BF9386BD
:1041A000C6078606F1BF94439147E39EF6F81C319B
:1041B000BDB7938707064DB7377700401C4309C545
:1041C00093E707101CC3828093F7F7EFE5BFB7169C
:1041D0000240DC4251777D17F98F5D8DC8C2828025
:1041E000B7170240238007022380070205476306B2
:1041F000E50011476306E50082802380A7028280E4
:1042000015472380E7028280371702401C535D8DDB
:1042100008D3828001C9371702401C53A166D58F8D
:104220001CD38280B71602409C5261777D17F98FAC
:104230009CD28280371702405C439146B18B6385E4
:10424000D700A1466382D706B7177A009387072065
:104250001CC1371602405C423707002013070701D4
:104260009183BD8BBA9794231C41B3D7D7005CC10F
:104270005442A1829D8ABA969422B3D6D70014C51F
:104280005442AD829D8A36971823B3D7E7005CC5A8
:104290005842398393763700138741803697182325
:1042A000B3D7E7021CC982805C435843C166C98307
:1042B000BD8B758F8907C5466393D700C94701EF4A
:1042C0003747024003270780418B09CF37177A0011
:1042D0001307072021A83717024058439316E70019
:1042E000E3D606FE37173D0013070790B387E702B2
:1042F00085B799C5371702405C4B5D8D48CB8280EE
:10430000B7170240D84B1345F5FF798DC8CB828093
:1043100099C5371702401C4F5D8D08CF8280B717B3
:104320000240984F1345F5FF798D88CF828099C55B
:10433000371702405C4F5D8D48CF8280B71702402F
:10434000D84F1345F5FF798DC8CF828099C53717AF
:1043500002405C475D8D48C78280B7170240D8474E
:104360001345F5FF798DC8C7828099C5371702407C
:104370001C4B5D8D08CB8280B7170240984B1345CC
:10438000F5FF798D88CB828001C9371702401C5315
:10439000C166D58F1CD38280B71602409C524177EC
:1043A0007D17F98F9CD282809357550005476399FA
:1043B000E700B71702409C4333D5A70005898280E8
:1043C00009476396E700B71702409C53F5B7B71744
:1043D0000240DC53D5B7B737004003D7078089C503
:1043E000598D2390A78082801345F5FF798DD5BF25
:1043F000B737004003D74780136707012392E78050
:1044000082803737004083574780C207C183BD9BF6
:10441000C207C1832312F7808280EFC24F904111FF
:104420002AC6EFF0FFFC3245B737004013570501AD
:104430003D8B42052394E78041812396A780EFF0CE
:104440005FFC41016FC0EF8F3737004083574780D3
:1044500093F70702E5DF82803737004083574780B4
:10446000C207C183DD9BC207C1832312F7803737A0
:10447000004083574780A18BEDDF8280B737004033
:1044800003D747801345F5FF798D2392A78082805B
:10449000373700408357478003570780C207698F2B
:1044A000C18309C77D8D3335A0008280014582809C
:1044B000EFC2EF86EFF09FFC6FC0AF881A218D67C7
:1044C00093870704B6217D8F9E21D58FD621D58F66
:1044D000F621D58F9625D58FB625D58FD625D58FA4
:1044E000F625D58FD98F1EA15A2DFD779387F77F9B
:1044F000F98F5EAD9E291EA982801E2189C593E792
:1045000007041EA18280C207C18393F7F7FBC2078D
:10451000C183C5BF5E2101C6DD8D4EA1828093C5DA
:10452000F5FFFD8DDDBF0A256D8D3335A00082803E
:104530001E319206558EC207C183F99BC207C18303
:104540001EB11E2D1A31B7360140C207C18393F741
:10455000C7F0D18F4207C207938606C04183C1834B
:104560006304D502B70600406300D5029386064077
:10457000630CD500B7160040138606806306C5009D
:10458000938606C06319D500759BD98D93E51500F8
:104590001EAD0EB18280559BCDBF1E31B2062206E4
:1045A000C207C183BD9BC207C1831EB18358850169
:1045B00085671A319387F7CFD18EB3F71701D58F5F
:1045C00013984500B736014042074208C207938658
:1045D00006C0418313580801C1836304D502B7069E
:1045E00000406300D50293860640630CD500B716E1
:1045F0000040138606806306C500938606C0631BD1
:10460000D5001377F7FD3367E800136707011EAD88
:104610001AB182801377F7F54D8FC5BFEFB23FF027
:10462000B7370140938707C0631FF50005648545D0
:1046300013050480EFF09FD1814513050480EFF04E
:10464000FFD06FB01FF0B7070040631BF500854532
:104650000545EFF09FD181450545EFF01FD1D5B756
:10466000938707406319F50085450945EFF0FFCFB3
:1046700081450945DDB7B7170040138707806319E7
:10468000E50085451145EFF05FCE81451145F1B755
:10469000938707C0E317F5FA85452145EFF0FFCC76
:1046A000814521455DBF1E2137370140130707C0F3
:1046B000C207C1836304E502370700406300E502D7
:1046C00013070740630CE500371700409306078087
:1046D0006306D500130707C06316E500BA2193F7F8
:1046E000F7F8D98FFA2193F7F7CFC207C183D98F93
:1046F0001EA1DE215EB59E211EB5B737014093870E
:1047000007C06314F5009C251EB985475EA9828009
:104710001E31922103D82500C207C183F99BC2072D
:10472000C1831EB11E3156211A2DC207C183420713
:1047300041831377C7F8518F9225F59BC2063366E4
:104740000601D18F37360140130606C0C1826310BF
:10475000C502B225DD9B03D8E500D18FD221ED9BA8
:1047600093F6F6CFD18FD22533660601D18E56A1AE
:104770001AADFA215AB91EB182801E31657713072E
:10478000F7CFC207C183BD9BC207C1831EB11E31D3
:10479000562103D88500C20713960601162DC18342
:1047A00093F7F7FD758F96214182A206558FB621AA
:1047B00042074183B3E606019206D58FB736014022
:1047C000C207938606C0C183631ED502B62593F740
:1047D000F7F703D8C5009206D58FD621C207C1834B
:1047E000920693F7F7FBD58FFD769386F63FF18E11
:1047F000F225C207C183336606010A06D18E1396DD
:104800000601418252A11AADFA211ABD1EB1828061
:104810001E3103D88500C207C18393F7F7EFC207A3
:10482000C1831EB11E3156215A2DC20713960601AF
:104830004207962141831377C7F8558FB621C1836C
:1048400093F7F7DFB3E60601A206D58FB73601402E
:10485000C207938606C04182C183631FD502FD76DD
:104860009386F67FF58FB62503D8C500A206D58FAF
:10487000D621C207C183A20693F7F7BFD58FF5767D
:10488000FD16F18EF225C207C183336606011206BA
:10489000D18E13960601418252A15AADFA215ABD1A
:1048A0001EB182801A31FD77FD17F98F1EB10358B2
:1048B000050256215E2D657792211307F7CF7D8F74
:1048C000F9772206FD17518FB3F70701B22103D8FC
:1048D0008500C2064207336606013206D18F37369D
:1048E0000140C207130606C0C1824183C183631A17
:1048F000C50071767D16F18ED2251A06D18EC206BC
:10490000C18256A15AADFA212310E5041EB182805E
:10491000FD575EA123100500231305002311050098
:104920002304050082801E2189C593E717001EA17C
:104930008280C207C183F99BC207C183CDBF835761
:10494000450491C52167D98F2312F5048280C607DB
:10495000C583DDBF5E2501C6DD8D4EA5828093C572
:10496000F5FFFD8DDDBFEFB29FBBEFF0BFFE6FB077
:104970005FBD1E25C207C183E19BC207C1831EA57F
:1049800082801E2189C593E707081EA18280C20785
:10499000C18393F7F7F7C207C183C5BF1E2DC207B6
:1049A000C183DD9BDD8D0EAD82801A2DFD7793874F
:1049B000F77FF98FA205CD8FC207C1831EAD82801C
:1049C0005E2DC207C183DD9BDD8D4EAD82805A2DE9
:1049D000FD779387F77FF98FA205CD8FC207C1833B
:1049E0005EAD82801E2DC207C183CD9BC207C183ED
:1049F0001EAD1E2DDD8D0EAD82801A2DFD779387A5
:104A0000F73FF98F1EAD1E2DA205DD8DC205C181B8
:104A10000EAD82805E2DC207C183CD9BC207C183CC
:104A20005EAD5E2DDD8D4EAD82805A2DFD77938774
:104A3000F73FF98F5EAD5E2DA205DD8DC205C18108
:104A40004EAD8280EFB2BFAD9A212A84AE84BE21E2
:104A5000D221962511EBBE85EFF09FADEE20228589
:104A6000EFF05FF86FB0FFAD9145631AB700BE85F8
:104A7000EFF0BFB2EE202285EFF03FF8E5B7214519
:104A8000EE206318A7081A30920613988700420791
:104A900041831377F7EF420741831AB04A2C1A304B
:104AA0004208420541811375C5F0518D558DB736C9
:104AB000014042074205938606C04183135808010E
:104AC00041816304D402B70600406300D402938698
:104AD0000640630CD400B7160040138606806306B8
:104AE000C400938606C0631ED4001377F7DF3367D4
:104AF000E800936707104AAC1EB02285EFF09FF1E3
:104B000095B7FD769386F65F758FD98F93E707107B
:104B1000DDB70A307D777D17698F1AB04A2C05679B
:104B20001307F7CF698F03580402131586001396F5
:104B3000C600498E9398C700518FB736014042088E
:104B4000C2084207938606C01358080193D808018B
:104B500041836304D402B70600406300D402938605
:104B60000640630CD400B716004013860680630627
:104B7000C400938606C06311D402F977FD17337819
:104B8000F80033E808018567B367F8005AAC1EB037
:104B90002285EFF09FE9F9B5A1669386F6DF3378B9
:104BA000D800B3E707018566D58FCDB74A3D82802F
:104BB0000355050482800A296D8D3335A00082805B
:104BC00093C5F5FFC205C1810EA982801E294A2521
:104BD000ED8F4205418189C76D8D3335A0008280FC
:104BE0000145828093C5F5FFC205C1810EA982806F
:104BF00093F5F51F4EA182800A216D8D3335A000FB
:104C00008280B73700209387079A23A0070023A24A
:104C1000070023940700B73700209387079923A044
:104C2000070023A2070023A4070023960700B70765
:104C30000020239A07648280EFB2DF8C931715005F
:104C4000373500201305059A3E95834905002E89C6
:104C5000638609060031B73400209384C49AA29970
:104C6000139A0901135A0A01B14A93170401C18327
:104C700063E64703130900006312FA041384F7FF85
:104C8000B1473304F402B73700209387C79A3E94A4
:104C90000C404840EF70C06D0C4431A8228BCE8789
:104CA000631134033147B387E7024A85BE94CC4091
:104CB000EF70006C8C44EF60D0782A894A856FB021
:104CC000BF870504B30754034A85A69783A547FF0A
:104CD000EF704061E34BA0F8DA87E9B7854763815D
:104CE000F504B737002006059387079AAA979823FB
:104CF00015E3370700201307476512231308400602
:104D00000545B306B600634ED8008CA390B316A336
:104D100001458280FD1501456305B7000945828084
:104D20000D458280EFB20FFE4111AA892E893A8586
:104D3000BE853684B2843EC63AC4EF70700C2A8AAF
:104D4000A2852685EF70D00BAA855285EF700026CC
:104D5000224723A0A900A2853A85EF706061B2477F
:104D6000AA89A6853E85EF70A060AA854E85EF7062
:104D70003009AA89A6852285EF709008AA854E85FC
:104D8000EF70C0222320A90041016FB0EFFA931702
:104D90001500373500201305059A3E951C216378D0
:104DA000F604EFB2CFF70031B1472E8922961314E3
:104DB000060141803304F402032709008327890098
:104DC0008326C90003264900B73400209384C49A7F
:104DD00093058400130544002695A695EFF09FF4F3
:104DE0008327C900269401451CC06FB08FF5094583
:104DF0008280373500201305059782809317350090
:104E000037050020130585653E95DC41230005002C
:104E10005CC101458280B70700200E059387876536
:104E2000AA978CA301458280F1473305F502B73775
:104E30000020938787E9D8413E959C4958C17D174A
:104E40001CC9DC453337E00058A95CC59C4D230BD9
:104E50000500232405001CCD01458280F147330560
:104E6000F502B7370020938787E9AA97C82B82807D
:104E7000EFB2EFEAF1473305F502B7370020938729
:104E800087E909473D46AA971305C0023385A50265
:104E9000D8C337370020130707E2239A0700238B74
:104EA000070081453304A700090580C323220402BB
:104EB0003A95EFB0CFE9B7E7000083A78728232012
:104EC000040205451CD46FB0CFE7EFB24FE5F146C1
:104ED000B306D502B7370020138787E9AA843D655A
:104EE0000146138487E9130505A63697144323A0CA
:104EF000060213872600F906035827001E23B30570
:104F0000F84063D60500B307F540B38507010907EC
:104F10002E96E393E6FE3D453355A602B7370020B3
:104F2000938787E793954400BE95EF408009F1474A
:104F3000B387F4020547A2979C4388D3D8D36FB0B8
:104F40004FE0F1473305F502B7370020938787E933
:104F5000AA97884309058280EFB26FDCF1473305D9
:104F6000F502B7370020938787E93E95004129CCA9
:104F70005841894701456317F7041C50A1C73E8576
:104F8000EF707038B7E7000083A50728EF70403E48
:104F9000B7E70000AA8503A58728EF702001B7E7CF
:104FA000000083A54728EF70A03CEF701024420555
:104FB0004181EF70F0280C54EF70803BEF70F022CD
:104FC000420541816FB0EFD70145EDBFEFB28FD3FE
:104FD00071443305850237340020130484E92A9490
:104FE000832904001C480D4583A409026387F40447
:104FF00026852E89EF703031B7E7000083A507289A
:10500000EF700037B7E70000AA8503A58728EF6097
:10501000F079EF70901D9307C0033305F502420548
:105020004181EF70F02183A58902EF706034EF7049
:10503000D01B2310A90004C809456FB0EFCFEFB211
:105040006FCC37340020130484E981448949130A62
:105050003006854A11495C40638B37051C4C268518
:10506000829778286302A7041C4485071CC41DEBA3
:1050700018486379F7005C4068A893C7F7FF858BF1
:10508000A98F5CA8850493F4F40F7104E39524FDC3
:10509000B707002093878765D8438C230145029783
:1050A0006FB08FC95844F1B723240400E1BF5C28D6
:1050B000850793F7F70F6364FA005CA8E1B71C401B
:1050C000230A0400D8536315570123A207025DBFCA
:1050D00023A0070245BF37350020130585F08280E5
:1050E00085673307C5009387078063C0E70AEFB27F
:1050F0008FC02A8C41113284094515C6373B0020E8
:105100008547AE89368A130B8BF00149C14A631F6C
:10511000F60003280B02B6872E8629478546E285CE
:105120001305000A029841016FB06FC09377FC002D
:10513000B387FA40C207C183A28463F38700BE84A9
:10514000C204C180994BB38C290103280B02D2877A
:105150002947A6866686E2851305000A029801C9DA
:105160002AC6FD1BEF10F00E3245E3900BFE058CB6
:1051700026994204E2944209139C04014180135988
:105180000901135C0C015DF079BF094582808567D8
:105190003307C5009387078063C3E702EFB22FB8D8
:1051A00037370020032847F2B68713074006B28638
:1051B0002E86AA851305000A02986FB08FB809459C
:1051C0008280EFB2CFB54111AE8605469305F1005E
:1051D000EFF0FFFB888741016FB0AFB6B707002043
:1051E0000397076681472A97634F070009CD056635
:1051F0009306F6FFB6876358C700AA876305D500F4
:1052000093170701C1833E858280EFB24FB13165AC
:10521000EFE0FFFB6FB0EFB2EFB2CFAEB7270140C8
:1052200093870740AE8901112A84328A854563112C
:10523000F50A13050020EFF0AF8DEFF01FFD22857A
:10524000EFE00F9985473EC23EC4B7070E003EC649
:105250008A8595472285230AF10002C002C802CC44
:1052600002CEB964EFE02F9B81479384C4286394F6
:10527000370737250140854513050540EFE06FB03E
:1052800085452285EFE08F9F85452285EFE00F9EC3
:1052900022858145EFE0CFB22285EFE04F9F228546
:1052A000EFE08F9F6DFD2285EFE08F9F2285EFE07D
:1052B000CF9F6DFD2285EFE02FB2B707002023902E
:1052C000A76685452285EFE0AFAF05616FB0CFA639
:1052D000130500408DB713891700D2979C239D4674
:1052E0001376F90FA6978C232285EFE00F9ECA87CD
:1052F000BDBF5D7122DE372401402ADC2EDA1305A2
:1053000004409305001486C696C49AC29EC032D843
:1053100036D63AD43ED242D046CE72CC76CA7AC87D
:105320007EC6EFE08FA701CD93050014130504405E
:10533000EFE06FA8B707002083A7476682977254F3
:10534000B640A642164386436255D2554256B256DF
:10535000225792570258F248624ED24E424FB24FF5
:10536000616173002030B737002023A8A7F2828044
:10537000B737002023A6A7F28280B737002023AAE0
:10538000A7F28280EFB2AF9979712A84AE84328914
:10539000814513060002080802C402C6EFB02F9B25
:1053A000B7170240D44FB7050002370600FECD8E76
:1053B000D4CFD44F7D16F18ED4CFD84F4D8FD8CFC8
:1053C0008D47A309F1009307B040FC8285473ECE8C
:1053D0003ED2930740066303F40A63EF8700D14788
:1053E0006303F40A93072003630CF408A9476315C9
:1053F000F4089307802505A09307401F630CF4066B
:105400009307803E6308F4009307A00F6316F40629
:10541000A14711A08947376400400C0813050440D8
:10542000FC80EFE08FBC0546930530411305044036
:10543000EFE08FEE930740025C84280085473EC66C
:1054400023052101C484EFE09FCC9307500228007C
:105450005C84EFE0DFCB9307300228005C84EFE050
:105460001FCB9307600228005C84EFE05FCA4561B0
:105470006FB02F8D914745B7C14771BFD14761BF0D
:105480009307800749BF9307C01271B7EFB22F8906
:1054900037650040814513050540EFE0CFE06FB070
:1054A0004F8AEFB2CF873765004085451305054029
:1054B000EFE06FDF6FB0EF88EFB26F861C41011134
:1054C000542113D7E70002CA098B93F7F77FA30A89
:1054D000E10078003EC602C802CC02CE230BD10008
:1054E0008147BA85050763CBD700376500401305B0
:1054F0000540EFE08FCF05616FB0AF843306F50054
:105500005032850730A7F9BFEFB26F810111B33771
:10551000F00005489605960616061607FC82230B32
:10552000A10085476800A30B01016C877486F08198
:10553000F8803ECE230C0100EFE0AFB905616FB0FB
:105540004F80B337A000B7660040920793860640AD
:10555000B69703A7071B118B51EB03A6071B03A7E5
:10556000071B03A8471B5582098B1378F800238279
:10557000050103A8871BA382050103A8871B1358F5
:1055800088002383050103A8871B13580801A38300
:10559000050103A8871B135888012384050103A86C
:1055A000C71BA384050103A8C71B135888002385C4
:1055B000050103A8C71B13580801A385050183A78C
:1055C000C71BE183DCA511EDDC4693E70702DCC6CF
:1055D000B337E000BE07D18F9CC12397050001457A
:1055E00082809C4A93E707029CCADDB7054582800A
:1055F0005D7122DE26DC37640040B70400382ADA09
:105600002ED813050440938514003ED086C696C458
:105610009AC29EC032D636D43AD242CE46CC72CA54
:1056200076C87AC67EC4EFE04FD085476318F50090
:105630009385140013050440EFE08FD4B7040038BD
:10564000376400409385041013050440EFE0EFCD6C
:1056500085476318F5009385041013050440EFE0B7
:105660002FD237640040B705013813050440EFE03E
:10567000CFCB85476318F500B70501381305044003
:10568000EFE00FD0B737002083A707F38297376585
:105690000040854513050540EFE08FD27254B640B7
:1056A000A64216438643E2545255C2553256A2567C
:1056B000125782577248E248524EC24E324FA24FA2
:1056C00061617300203039713ECCB737002083A769
:1056D000C7F206DE16DC1ADA1ED82AD62ED432D24B
:1056E00036D03ACE42CA46C872C676C47AC27EC0A6
:1056F0000145829737650040914513050540EFE06D
:105700002FCCF250E2525253C2533255A255125688
:1057100082567247E2475248C248324EA24E124F5A
:10572000824F21617300203039713ECCB7370020A1
:1057300083A7C7F206DE16DC1ADA1ED82AD62ED4C4
:1057400032D236D03ACE42CA46C872C676C47AC27F
:105750007EC005458297376500409305000213051A
:105760000540EFE0EFC5F250E2525253C2533255BA
:10577000A255125682567247E2475248C248324EEC
:10578000A24E124F824F21617300203039712AD608
:10579000376500402ED4130505409305004006DE12
:1057A00016DC1ADA1ED832D236D03ACE3ECC42CAF5
:1057B00046C872C676C47AC27EC0EFE06FC0B73703
:1057C000002083A747F38297F250E2525253C2530C
:1057D0003255A255125682567247E2475248C24885
:1057E000324EA24E124F824F2161730020301C4175
:1057F00041677917F98F1CC182804CC11C4193E726
:1058000017001CC18280EFA2FFCF5D712A842E8910
:105810000545854532C636C43AC2428AC689C65451
:1058200002CE02D0EFE0FFAC85451247A2463246D9
:1058300081476313B900C1473ED68547630AF60620
:105840002DC68947630DF60637060240B73700209C
:1058500093058600938787F3631AB40684C30549CA
:10586000ED44930700083EDC4C108567228536D254
:105870003AD4BEC402DA82C282C6EFE0AFBD0546AA
:1058800089452285EFE0CFC14A85EFE06FC48547A7
:105890006808230E9100A30E4101230F31013ED071
:1058A000EFE0FF8661616FA03FC982C002DE69BF81
:1058B00093070040BEC0930700103EDE71B78567B6
:1058C00093870780BEC093070020C5BF9305C6011C
:1058D0006316B400C4C34149F14461B7930506039C
:1058E0006317B40084C713090010F5449DBF9305E6
:1058F00046046316B400C4C70569F9449DB793050F
:1059000086056316B40084CB4169FD4499BF130634
:10591000C6066318C400C4CB370910009304000204
:1059200089B784CF37090001930410021DBFEFA28D
:105930001FBF41112A8405452EC632C4EFE04FB97E
:105940002246B245B724014050C04CC413850440E0
:105950008545EFD0BFB21385044093050022EFD0F8
:105960009FC5054622858945EFE08FB31C4013850E
:105970000440854593E717001CC0EFD03FAF854535
:1059800013850440EFD0FFB241016FA09FBB397176
:105990002AD609453ECC06DE16DC1ADA1ED82ED4ED
:1059A00032D236D03ACE42CA46C872C676C47AC21D
:1059B0007EC0EFE02FB18547631AF500B7370020AE
:1059C00083A787F382970545EFE08FB0F250E2524C
:1059D0005253C2533255A255125682567247E2476D
:1059E0005248C248324EA24E124F824F216173007C
:1059F000203039712AD6130500203ECC06DE16DC95
:105A00001ADA1ED82ED432D236D03ACE42CA46C87E
:105A100072C676C47AC27EC0EFE0CFAA8547631B08
:105A2000F500B737002083A707F48297130500100D
:105A3000EFE00FAAF250E2525253C2533255A25530
:105A4000125682567247E2475248C248324EA24E20
:105A5000124F824F21617300203039712AD63705E9
:105A600002003ECC06DE16DC1ADA1ED82ED432D264
:105A700036D03ACE42CA46C872C676C47AC27EC012
:105A8000EFE04FA48547631AF500B737002083A7DE
:105A900087F482974165EFE0AFA3F250E252525390
:105AA000C2533255A255125682567247E2475248A7
:105AB000C248324EA24E124F824F216173002030F5
:105AC00039712AD609653ECC06DE16DC1ADA1ED8F4
:105AD0002ED432D236D03ACE42CA46C872C676C426
:105AE0007AC27EC0EFE00F9E8547631AF500B73794
:105AF000002083A747F482970565EFE06F9DF25081
:105B0000E2525253C2533255A25512568256724730
:105B1000E2475248C248324EA24E124F824F216194
:105B20007300203039712AD6370500023ECC06DEDC
:105B300016DC1ADA1ED82ED432D236D03ACE42CA69
:105B400046C872C676C47AC27EC0EFE0AF9785477A
:105B5000631BF500B737002083A707F58297370549
:105B60000001EFE0EF96F250E2525253C253325529
:105B7000A255125682567247E2475248C248324EE8
:105B8000A24E124F824F216173002030B71701409F
:105B90009386078011476306D502938607C0214785
