:100000006F30804313000000130000001300000055
:100010001300000013000000130000001300000094
:100020001300000013000000130000001300000084
:08003000130000007300100032
:100038000000000000000000FE0D0000000E00009F
:1000480000000000D03300000000000000000000A5
:10005800D2330000D433000000000000000000008C
:1000680038620000000000000002000000000000EC
:10007800DA330000DC330000DE3300001A590000D8
:10008800E2330000E4330000E6330000E833000008
:10009800EA330000EC330000EE330000F24F0000BA
:1000A800F2330000405000008E500000DC50000089
:1000B800FA3300002A510000FE330000BE4C000055
:1000C8001E4D00007C4D0000DA4D00000834000091
:1000D8000A3400000C3400000E3400001034000014
:1000E8001234000014340000BC5A00009457000079
:1000F800E05700001C3400001E34000020340000CB
:100108002234000024340000263400002834000083
:100118002A3400002C3400002E3400003034000053
:10012800323400003434000036340000000000008F
:080138000000000000000000BF
:10020000130181F806C216C41AC61EC822CA26CC1B
:100210002ACE2ED032D236D43AD63ED842DA46DC76
:100220004ADECEC0D2C2D6C4DAC6DEC8E2CAE6CC46
:10023000EACEEED0F2D2F6D4FAD6FED8F3220030CF
:1002400096DA83A2419123A02200F32510342EC018
:1002500003A18186EF70A02E03A341910321030027
:10026000824273901234D652739002309240A2426E
:100270003243C2435244E244724582551256A2565A
:100280003257C2575258E25872598649164AA64AFE
:10029000364BC64B564CE64C764D865D165EA65EDA
:1002A000365FC65F13018107730020301300000022
:1002B00013000000130000001300000013000000F2
:1002C00013000000130000001300000013000000E2
:1002D00013000000130000001300000013000000D2
:1002E00013000000130000001300000013000000C2
:1002F00013000000130000001300000013000000B2
:1003000083A28186938202E07390023403A141911B
:10031000024182403243C2435244E2447245825514
:100320001256A2563257C2575258E258725986494D
:10033000164AA64A364BC64B564CE64C764D865D61
:10034000165EA65E365FC65FD652A102739002307B
:10035000A2421301810782801300000013000000F5
:100360001300000013000000130000001300000041
:100370001300000013000000130000001300000031
:100380001300000013000000130000001300000021
:100390001300000013000000130000001300000011
:1003A0001300000013000000130000001300000001
:1003B00013000000130000001300000013000000F1
:1003C00013000000130000001300000013000000E1
:1003D00013000000130000001300000013000000D1
:1003E00013000000130000001300000013000000C1
:1003F00013000000130000001300000013000000B1
:10040000F322003093F272FF130380181203B3E259
:100410006200711523205500130585FA10C12115BE
:10042000232005009302000063870200711523203A
:100430000500FD12D5BF71150CC1828000000000BF
:1004400000000000000000000000000000000000AC
:10045000000000000000000000000000000000009C
:10046000000000000000000000000000000000008C
:10047000000000000000000000000000000000007C
:10048000000000000000000000000000000000006C
:10049000000000000000000000000000000000005C
:1004A000000000000000000000000000000000004C
:1004B000000000000000000000000000000000003C
:1004C000000000000000000000000000000000002C
:1004D000000000000000000000000000000000001C
:1004E0000000000000000000000000000000397162
:1004F00001436EC619A0397141536AC866CA62CCFD
:100500005ECE19A0397101535AD056D252D44ED66C
:100510004AD826DA22DC06DE3301614082824111AC
:100520004AC026C222C406C68282B24D4101024D93
:10053000924C224CB24B4101024B924A224AB249A0
:100540004101024992442244B240410182803D432C
:100550002A876373C3029377F700BDEFADE5937607
:1005600006FF3D8ABA960CC34CC30CC74CC7410763
:10057000E36BD7FE11E28280B306C3408A0697027E
:10058000000096966780A6002307B700A306B70071
:100590002306B700A305B7002305B700A304B700DF
:1005A0002304B700A303B7002303B700A302B700D7
:1005B0002302B700A301B7002301B700A300B700CF
:1005C0002300B700828093F5F50F93968500D58DB3
:1005D00093960501D58D61B7939627009702000089
:1005E00096968682E78086FA9680C1171D8F3E9682
:1005F000E374C3F8A5B7370500201305C5608280F2
:1006000037050020130585608280B707002023A8E6
:10061000A7608280EFF23FEEB70500203971938525
:100620004560014537040020EFA040712320A460FD
:100630001304046019E1EF10707E1C40370700209E
:1006400003270761DC4398C3EF806003EF80200637
:10065000EF00A06D2313A10202D6EF0000701C4032
:10066000A302A102DC43884323AA0700EF8000070E
:100670001C40C843EF80401A0840035661025C41A9
:100680008C43EFA0C07B19C1EF105079B707002051
:100690009387473E98530840930661023AD8D8534F
:1006A000130651020C183ADA9857DC573ADC3EDE52
:1006B000EFA0407C19C1EF10707683A6C181034979
:1006C0005102032A040036CEEF00C0689307401F92
:1006D0003EC0F24689679309C102C507C98F4EC65D
:1006E0004AC402C29308803E1308401F01470146D6
:1006F00081455285EFA0207B11C5B5576304F500F5
:10070000EF10D071084003A6C1814E874C49CA86BC
:10071000EFA0F00419C1EF1070701C409C4399C306
:10072000EF10D06F1C40B70400208969C843130A3A
:10073000803EEF70B07B23AA0460EF70D078EF604A
:10074000102D2A8902D493844461938909719C40B5
:1007500089CBB707EFBE37E700E0938707083CC7B0
:10076000FDBFA25503A54196B3D54503EF60602DAB
:10077000EF70F0734ED4EF609029330625413306B5
:100780004603AA8A0840341081455689EFA0D00B51
:1007900088C003A58196814601468145EF5050717E
:1007A000EF7070726DB7EFF2FFD54111EF703070DE
:1007B000EF60F02589692A8402C6130A803E938976
:1007C0000971370B0020EF701070B24503A58196B8
:1007D00013090B60B3D54503A284EF608026EF7048
:1007E000106D832709004EC695CFDC43DC4B9DCBB3
:1007F000EF60F021AA84032509001C4185E75C41D4
:10080000DC4B8DC33384844033044403740081453E
:100810002286EFA0500B0325090074002286814533
:10082000EFA0700E268445B73705002013058561BB
:100830008280EFF2DFCE3704002013048461084089
:100840004111EF60804111CD08407D566C00EF6092
:10085000E00828871086938581978946AA95EF300E
:1008600070654101F9B9938781973E9593D78500CB
:100870000CA11CB193D70501E1813CA12CB1828070
:10088000938781973E950CA1A1810CB182809387BB
:1008900081973E950CA18280EFF27FC8AE8693854A
:1008A00081970946AA95EF30F06061B993878197E7
:1008B000AA97983388232207598D8280938781973E
:1008C000AA979833A82322074205498F8823498F86
:1008D000A8336205598D8280EFF2DFC20111130641
:1008E00060228145138581979D3189461306002139
:1008F000938581970145EF3010656319052E1384A8
:1009000081971820930740046300F72C9387C183D5
:100910009843DE23B706000318C03707000113060B
:1009200007105EA0930740027CB410D4B7070005FF
:1009300030CC70D0374605011CC813065660B70787
:100940000024938506105CC830D893070050378682
:1009500005001CCC4CD493070010B7050078130693
:100960000680296558CC1CD058D01CD878C87CCCBF
:1009700038D03CD470D834DC232A04029386062075
:10098000232C0402232E0402232004042322040423
:10099000232404046CC428C86CD474DC2316F40A21
:1009A000231CF40AE147A301F40CB7070015B706AE
:1009B000001A89072328D4082322F40CB7F6030170
:1009C000B70712039386468093871750232AD408CB
:1009D0002324F40CB7260400B7170504938606A059
:1009E00093870730232CD4082326F40CB706000283
:1009F000856713060020232ED4082324E40A938657
:100A00000620054793873740B5692320C408232271
:100A1000040823240408232604082320D40A2322BC
:100A2000C40A2307040AA30BE40A230D040A2318AB
:100A3000F40C9389C9419304200D130A400E83D509
:100A4000090026858904C204C1801D3D8909E398F7
:100A500044FFDD47856529457CA43135B7970112F0
:100A6000C9072322F40E930700192314F40EB56965
:100A700091472305F40E9389493C9304D00E130B40
:100A8000501383DA090026859109D685D53B03DA10
:100A9000E9FF138524004205D2854181D5331385B2
:100AA00004054205D6854181E13B13852405910467
:100AB0004205C204D2854181C180D933E39364FDEC
:100AC00081451305D0186D3B81451305F0184D3B4A
:100AD000D145130510196D33E545130530194D3314
:100AE000E54513055019693B93052003130570195B
:100AF000413BF945130590196133930570081305BF
:100B0000B019BD3B93078002A30EF41CB705003E4D
:100B10008567938707A0D5051305501E231FF41C76
:100B20002300041E8933B7050076ED051305901EDA
:100B30001D3BB7053F78CD051305D01E2D33B705F6
:100B40000071D1051305101F393BB7057978C90528
:100B50001305501F093BB7057350D9051305101E27
:100B60001933B705006DDD051305901FED39B70585
:100B7000003FE9051305D01FFD31F1451305102095
:100B8000DD31814513055020F9399D478946A3047D
:100B9000F42013060021954793858197014523157D
:100BA000F420EF3030311306002181451385819701
:100BB000793A2945EF609012894613060021938502
:100BC00081970145EF303038138A418381490D4BBD
:100BD000834A440E4E85FD1A93F5FA0FEF30A06656
:100BE00059C185090D04090AE39469FFB70700207C
:100BF000239E0760056189B203550A001316090197
:100C0000418293142600AA94C204C180268532C66C
:100C1000713942054185EFB0E0322AC813852400BE
:100C2000420541816131EFB0403E2ACA138544003C
:100C300042054181A53942054185EFB0A0302ACC5B
:100C400013856400420541819531EFB0003C324686
:100C50002ACE0C084E850509EF30006A1379F90F8A
:100C6000E34C59F9BDBF0149E5BF938781973E9594
:100C700008218280EFF2BF8A41112A842800B284C1
:100C8000EFB0C04D8947638FF40291476380F4044D
:100C900085476397F400188493878197A29798A358
:100CA0009307F02063ED8700B707002003A5876155
:100CB00081467D566C0060874486EF50701F41016D
:100CC0006FF03F882C842285653ED9BFA2452285DE
:100CD000593EF9B7EFF2BF8441112A846800B2840B
:100CE000EFB0C0478947638AF4029147638BF402EF
:100CF00085476397F400188693878197A29798A3F6
:100D00009307F02063E88700894626866C002285D9
:100D1000EF30501A41016FF0DF822C8622858D362C
:100D2000C5B7B24522858136E1BFEFF24FFF894555
:100D30000545EF30902421479307401F6369A700C2
:100D40009317150035651305C5403E951E213E8558
:100D50006FF02FFF13050010828003C5C1978280BA
:100D6000EFF2EFFB370400201304C4611E201307C9
:100D700070168507C207C1831EA0637AF700194564
:100D8000353E930515001945F93C2310040029450B
:100D90003536AA8403C561988145D928EFB0801AF9
:100DA000B7D7000083A50743EFA08070B7D7000036
:100DB00083A54743EFA0C06F2A842685EFB0E024C7
:100DC000AA852285EFA02038EFB06012AA852945B8
:100DD000593C6FF00FF7EFF28FF421469385E197BE
:100DE0001945EF3030056FF0CFF5EFF24FF329459D
:100DF000F134930740063355F5026FF08FF401A0EC
:100E000001A0EFF2CFF101112E84AA85194542C647
:100E10003EC83ACA36CC32CEEF104045A2851545C1
:100E2000EF10C04472461145B285EF102044E246EF
:100E30000D45B685EF10804352470945BA85EF103E
:100E4000E042C2470545BE85EF10404232480145A9
:100E5000C285EF10A04105616FF0AFEE37050020AD
:100E60001305C5628280B707002023A0A762828095
:100E7000EFF2EFEA9307F5FF7147636FF7103567FD
:100E80008A0713078743BA979C432E8982871305E5
:100E9000152142054181D13B2A8422856FF06FEAFA
:100EA0001305152142054181EFF05FA0F5B7391513
:100EB0009374F50F2685EF001079AA852685EF300B
:100EC000402EB7D7000083A50743EFA0B01AEFA0CC
:100ED000F07B2A84E30309FC0D453385A402130546
:100EE000550EEFF0BF9C2A944DBF0D45EF00B07535
:100EF000B7D7000083A50743EFA0D017EFA0107964
:100F000061BF0145EF30805AAA841305D01DEFF070
:100F1000FF99EFB0800FB7D7000083A50750EFA06F
:100F200020592A842685EFB0E001AA852285EFA00A
:100F30007014EFA0D07BEFB0400D5DBF0545EF30E2
:100F4000E056AA841305F01DD9B70945EF30804655
:100F5000A1B7613D91B71945EFF05F9635BFB7076F
:100F6000002003A4076215BF1305C020EFF01F95F2
:100F700013548540930740061374F40F3304F402AE
:100F80009377F50F41851375F50F3E948967938725
:100F900007713305F50281BF014401B7138701BC16
:100FA00083468702938701BC13962600329710432D
:100FB0007147631EE60203C7970315CBC85B05C9DB
:100FC00003C7170309C7A38C0702A388070203C737
:100FD000970393080002054805071377F70F9375E9
:100FE000F70F63F5B802A38C0702A38807021387E3
:100FF000160083C687031377F70F2384E702636421
:10100000D7002384070223A6070282803316E80054
:10101000698E050769D6A38CB7028280938701BCCD
:1010200003C7970223A607022384E7028280EFF218
:101030000FCF938501BC83C7850205469385950232
:101040009CA11305902079316FF0AFCF03C581BE0D
:101050008280A94763E6A7002384A1BE0145828060
:1010600005458280A94763E1A702EFF24FCB938544
:1010700001BCA384A5020546938595021305902023
:10108000D53E01456FF0EFCB05458280938701BCCB
:1010900083C6870203C797026385E60203C7170367
:1010A0000DE3D8573A95C8D783C7A7021307803EE8
:1010B000B387E7026367F500EFF26FC685376FF01D
:1010C0004FC8828001C9F147630AF500A147014575
:1010D00063F5B700238CB1BE054582802388B1BE7D
:1010E00001458280EFF20FC2138501BAEF7080369E
:1010F00013059020938401BC8D3EA384A4021305A4
:10110000A020EFF09FB683C794022385A402238C0E
:1011100004022384F402138901BC8144138401BCBA
:10112000054AA949139524001305151E420541815E
:10113000EFF0CFF82320A90093F5F40F1375F50F06
:1011400051376306450185041109E39D34FD232AC7
:101150000402A30C0402232E0402230004046FF0F3
:10116000AFBD138701BC5C5FA9C383470704930627
:101170008002850793F7F70F2300F70463F5F60065
:1011800023000704828055476371F702EFF22FB9FD
:1011900001449D442285050481451374F40FEF102A
:1011A000E00CE31994FE6FF0CFB98280138701BC85
:1011B000585B938701BC6309A70483C60703A9C6CC
:1011C0001347F7FF698FC8DBA38C0702014601456F
:1011D000854813080002B395C800F98D9376F60F81
:1011E00081C919C1A38CD7020547A388E702828071
:1011F0008506050693F6F60F0545E31E06FDA38C4E
:10120000D7027DF3A38807028280138701BC83463F
:1012100017030547938701BC6396E60003C70703DE
:101220002384E70203C787020A07BA9788438280AC
:10123000EFF2EFAE41112A8432C42EC6EFF00FE771
:10124000B2458AA11305240042054181EFF00FE663
:1012500022460AA241016FF0CFAEEFF24FAC41112E
:101260002E841306E1006C00E1373887014505C381
:101270003C86014589CF63E9E700636AE400B3B7C0
:10128000870013C5170021A00545E36AE4FE41016C
:101290006FF02FABEFF2AFA82A848DE101468945AC
:1012A000EF00F07701468D452285EF00507701462B
:1012B00085452285EF00B0766FF0AFA8B144B30446
:1012C0009402AE873E858545EFF09FBA131905015C
:1012D00013590901CA851385B40141372A86894506
:1012E0002285EF00D073CA851385F401BD372A86A5
:1012F00085452285EF00B072CA8513853402B13F5F
:101300002A868D457DB7EFF20F9F4111AA8AAE84E0
:101310003D456C00B2891306E10036893A8C3E8B5C
:10132000428DC68C0354410421372886835BE1003B
:1013300033057541EFA01041B7D7000083A5475092
:10134000EFA040532A8A636E340333857941EFA0BE
:10135000703FD285EFA0C015EFA070392300AD001B
:1013600033053441637489003305394142054181B5
:10137000EFA0B049D285EFA0A013EFA05037238093
:10138000AC00636D540333857A41EFA0B03BD28546
:10139000EFA00012EFA0B0352300AC0063E384029D
:1013A00033045441131504014181EFA01046D28546
:1013B000EFA00010EFA0B0332300AB0041016FF0AD
:1013C0000F9733845441F9BF03480100388263F614
:1013D000A5026374A70063E6E6006379B700637F44
:1013E000E602238008012380070182806364D7001E
:1013F000E37BE6FE2380080182806377E600E362F8
:10140000B7FEE379D7FE19A06375D700E36BE5FC5F
:10141000D5B7E371B7FEE368E5FCE9BFE36CD7FC41
:10142000D9B7EFF2CF8F79712A892E84B2846C10EC
:101430001306E1023D4536CE3ACC3ECA42C846C606
:10144000C53BF246B2484248D247624763F486023F
:1014500063EB260163E9280163E916012300070114
:101460002380070129A0E3FD16FF23000701456142
:101470006FF02F8D6367940063E59800E36214FFBB
:10148000F1BFE37414FFE9BFEFF26F89EF60C0466C
:10149000B707002023A8A762B707002003A5C762EB
:1014A00001478D4611468145EF60F0056FF06F8969
:1014B000EFF26F8439717D5774181306F00F814570
:1014C0000145EF602076F257918BF5D7EFF09FC181
:1014D000938701BB23A0070023A2070023940700E2
:1014E00023A60700B707002003A507630147894625
:1014F00001468145EF603001B7D7000083AB47500C
:101500008149138401BB370B0020138901BC138A66
:101510004184938A81842945EF50507C8565371535
:10152000014093850580130505C0EF3090540547B1
:101530006310E50C5C4091C708C02322040023140B
:101540000400930C4B6203A50C004444130C4B6243
:1015500063160524854789E483471903B337F000F0
:101560002945232EF902EFF07FB21C400547639511
:10157000E700E9E4EFF09FA2B707002003AC0762A1
:101580006285EFF0BFC25131AA84F1471375F50FA0
:10159000631CF51E63060C0C8326490383479903DD
:1015A00001468545130500023397F500758F45C345
:1015B00019C2A30CF90283479903294635678507A9
:1015C00093F7F70FB3F6C7021307475693050005C5
:1015D00013059007B3D7C702BA9603C806001306CF
:1015E00000058146BA979C230147EFF09F81DDA259
:1015F0001E2454408507C207C1831EA485E291467C
:10160000E3F1F6F458C013077025637CF7008D47AB
:101610005CC485471CC089475CC025B7E393E6F2EC
:10162000DDB71307F0186375F70089475CC411BF75
:101630001307700CE377F7F08547CDBF0D4763952F
:10164000E4002320FC000DBFEFF07F9E35B7850737
:1016500093F7F70F6373F50081470546B1F691BF25
:10166000EFF0DF93EFF0FFAF184085476316F70008
:101670002320040023260400850993F9F90FCD47A0
:10168000E3FB37E98144B9491385340C42054181B4
:10169000EFF0AFDDAA8513F5F40F8504EFF09FBFDF
:1016A000E39434FF1305100DEFF02FDC2306010245
:1016B000A306010223070102A307010249C58545CC
:1016C000EFF00FFB131C05011306A1032C182A8D44
:1016D0003D45EFF0FFB55018930561034D45EFF020
:1016E0003FB51018930521035D45EFF07FB4835794
:1016F000A10303558103135C0C011D8DEFA0900421
:10170000DE85EFA02017AA8C1545EFF00FD6035603
:1017100041038354010383592103835661036315F5
:10172000052A63E4990063F0C60262C266C09308AA
:10173000D1021308C1029307F1021307E102CE851B
:101740002685EFF05FBC8346D1020346C102834584
:10175000F1020345E102EF00902713050021EFF0AD
:10176000EF949377F50F014591CB1385F7FF137530
:10177000F50F130595060605EFF04F93EF00F04CBB
:101780008149EF00905641BB8145EFF06FEEAA858D
:10179000054613D50401EF005039E9B5054D631036
:1017A000A50D93B71400232EF9021C40370C00201E
:1017B000130C8C626398A70083470C0085E08507B3
:1017C0002300FC0003450C00A14763FEA7048547E6
:1017D0002300FC000145EF00303369B519476387EA
:1017E000E702636DF700F9DFFD1735678A07130716
:1017F000C74ABA979C4323A0FC00E9B72147E3936B
:10180000E7FCEFF0BF8123A00C006DBF89451305F5
:10181000D01DEFF06F8889451305F01DEFF0CF87DD
:1018200023000C0045B79D47631CF50081457545B5
:10183000EFF00FE4AA8501461565EF00102F59BFA0
:10184000B307F50235651305054C3E950348650061
:101850005C315821343130210C31082179B3938720
:10186000F4FF93B71700232EF902994763FCA702F0
:1018700065151375F50F131715009387C184BA9773
:101880008623EF00405CEFA06060A945B305B50278
:1018900005462685EF0070291C40E38507DC23A060
:1018A000AC01C9B3B70C002003C79C621C40938CE9
:1018B0009C62631CA705E38707DA2320EC002380E2
:1018C0000C008D476394F40483260C008547238025
:1018D000FC00F51693B7260093C71700139717005F
:1018E00093874185BA9786238547014563F3D700DF
:1018F00009451305D51D42054181EFE03FFBAA854F
:1019000001462685EF00702211A0C5FF83C70C0099
:10191000E39A07D483240C0093F71400B9CFF5148D
:101920003335900093141500B3879A0083DC0700C9
:1019300081455905EFF0CFD3AA8505466685EF00AE
:10194000D01E1C40E38007D25C4405476398E70043
:1019500083270C0085072320FC0029B3E39407D0DC
:101960009384D41D2685EFE07FF493051500C2050E
:10197000C1812685EFE0DFF0F5B1F114B3349000BA
:1019800093971400D29783DC070081451385640187
:10199000EFF00FCEAA8505466685EF0010191C40B2
:1019A000E38207CC5C4405476396E70083270C007D
:1019B000FD1755B7E39807CA9384D41D2685EFE039
:1019C000FFEE9305F5FF65B713150D01418136CE86
:1019D00032CCEFA02057E685EF90902DEFA020515C
:1019E0001378F50F6246F24663E4990063F1C6028C
:1019F00042C062C29308D1021308C1029307F102E8
:101A00001307E102CE852685EFF01F9C2DBBE288EF
:101A10009307D1021307F102CE852685EFF07FA050
:101A20001DB3EFE2DFAF37150000154685451305FE
:101A300005D637140140EF30B0628564938504C247
:101A4000130504C0EF30A07C37061800914613063A
:101A50000610A145130504C0EF30E07D9146014614
:101A60009385048013050480EF30E07C9305F00437
:101A700013050480EF304077E14601469305000AE4
:101A800013050480EF30207BA965E14601468D05F2
:101A9000130504C0EF30207AC14513050480EF30F0
:101AA000207293850401130504C0EF306071E14694
:101AB00037461D0093050020130504C0EF30A077C2
:101AC0009306800437461D0093050010130504C0DB
:101AD000EF306076F14601469305000C130504C013
:101AE000EF306075B7450F00B1461306803E938511
:101AF00005240945EF4020140945EF4020038145A6
:101B00000145EF00D01581450545EF0050159304C0
:101B100004C0930500022685EF30A0757DD9EF2023
:101B2000E06485450145EF30D06685450545EF30D9
:101B30005066B7260000B7450F008D4705479386CE
:101B4000E65013064006938505240D45EF406006D8
:101B50000D45EF30B07DEF40A038375500400546C9
:101B6000854513050540EF30D032C145130504C04B
:101B7000EF30E0703765004013050540EFE0FFA847
:101B80006FE03F9CEFE2BF9981450145EF00300DCA
:101B900081450545EF00B00C0D45EF30907A0545C5
:101BA000EF30D0780145EF3070786FE09F9937F7CC
:101BB00000E0832707D1B7060080D58F2328F7D010
:101BC0008280EFE2DF95372501408145130505400E
:101BD000EF10B00F3705002003250564B70700207C
:101BE000138487640147938787648D46054689453A
:101BF00023200400EF60A02B1C4091C7B7E700E052
:101C0000116723A0E7206FE0DF93EFE25F913704D5
:101C10000240130544048145EF10503FBD451305B4
:101C20004404EF10F03F0145EF20607F8545130528
:101C30004404EF10B03D6FE0DF90EFE25F8E3704B9
:101C40000240130504088145EF10503CBD451305C3
:101C50000408EF10F03C0545EF20607C8545130536
:101C60000408EF10B03A6FE0DF8DEFE25F8B894739
:101C70006308F5008D476300F50201456FE07F8C36
:101C80009305004037150140130505C0EF30605E35
:101C90001375F50FE5B793050002EDB7EFE23F8846
:101CA00091E937150140C145130505C0EF30205DAE
:101CB0006FE03F8937150140C145130505C0EF307E
:101CC000C05CFDB737050020130505648280EFE294
:101CD0001F85EF507042B707002023A2A764B70703
:101CE000002003A5076401478D4611468145EF603A
:101CF00080016FE01F85EFE29F8203A70187938732
:101D00000187DC2301113008954501453ACC230EAB
:101D1000F100EF20502CEF206064B72700002A87E5
:101D2000938727BCB7260140370502403EC08D4847
:101D3000054881479386C644054681452105EF3015
:101D4000A01405616FE0EFFFEFE26FFA4111EF20A1
:101D5000E0602A841309E501AA840395040089043C
:101D6000EF205023239FA4FEE39924FFB7D7000060
:101D7000B7D9000037DA000083AB0751B7D70000AE
:101D8000832A8A5003ABC95003AC4751938441C0A6
:101D900001493E244A288D4DA6853E951E20137D7F
:101DA000F90F3E953355B503938C01C1420541812E
:101DB000EF60A0646307BD0791476309FD04EFA0CE
:101DC000C02483258A50131D2900669DEF90902A18
:101DD00083A5C950EF90102ADE852AC6EF9090297E
:101DE000B247AA8D03A50C01BE85EF90B051AA851C
:101DF0006E85EF90E06B2320AD000509954709043F
:101E00008904E318F9F841016FE02FF2EFA0E01F19
:101E1000D685EF903026DA85EF90D02523A8AC0048
:101E2000E9BFEFA0801EE285EF90D02483A5C950C2
:101E3000EF905024B7D7000083A58751EF90A030D2
:101E400023A6AC005DBF0A05938701C1AA9788430A
:101E50008280EFE2CFE983A7C18139718149D843FC
:101E600081479306471491C60327C71419C39307E4
:101E7000C700370A0020232EFA62B7D7000083AAD2
:101E8000C751B7D7000003AB0752B7D7000083ABE9
:101E9000475281440544130ACA63372C0000DE8C84
:101EA000054909479147630E2403630F041863092A
:101EB000E41AE31AF4FEEFF0FFCCEF10C03CEFE0C1
:101EC0009FF12945EF50806137150140C145130549
:101ED00005C0EF30803B0544EFF07FCDD1B7114412
:101EE000C1B77D5734081306F00F81450145EF5007
:101EF0007053E247918BCDD7EFF0FFDFA9474C102D
:101F00003EDA3ED80D459307ACC63EDE22D4EF2024
:101F100020471305B020EFE05FD57D151335150080
:101F20002AD44C100945EF20A045B727000093871D
:101F3000C7C96C0801453ED022D4EF20C0421384AB
:101F400041C5138541C5EF60E05013050401EF6002
:101F50006050138441C2D685138541C2EF60E04CC6
:101F600013058400D685EF60404C138441C3DA85A5
:101F7000138541C3EF60804D13050401DA85EF60DE
:101F8000E04C81450145EF20204485450545EF2083
:101F9000A0433D64130604A6A1469305007D0145B8
:101FA000EF301057130604A689469305007D0545BA
:101FB000EF3010560145EF20004EB72700003704E0
:101FC00002409387A7C0B73601402A878D4805484D
:101FD000938606C405468145130544043EC08147E7
:101FE000EF20906A0545EF20004BB727000093874C
:101FF000A7C3B70600402A878D4805489386860305
:102000000546130504083EC081458147EF20D0678F
:1020100013050408BD45EF10B00013054404BD4589
:10202000EF101000130544048545EF10207E854510
:1020300013050408EF10807D0145EF30302F054572
:10204000EF30D02E0144A9BDB707002003A5476497
:102050000147894601468145EF50F04A094489B558
:10206000EF20C02FAA85370502403D462105EF200D
:102070007072EFE00FFC0545EF5040460147340811
:102080001306F00F81450945EF50D0390589E30962
:1020900005E0EFF07FCBEF20C04F638A2409ADC885
:1020A000E39084E03709002013094963494DD94D75
:1020B00085456A85EFE0DFDB8357090042054181F2
:1020C0006385A7002310A9008549050D0909E311BF
:1020D000BDFF03A5C1C1E685EF90A068E351A0E074
:1020E0000D45EF20202DE30C05DE4C100145EF20BF
:1020F000204389476313F50085494C100545EF20BF
:1021000020428947630AF50463980904814949BB61
:102110000D45EF20202AE30505D803A5C1C1DE85C2
:10212000EF9020641345F5FF9354F50195BB0945E5
:10213000EFE0BFB3AA8501451D260D45EFE0FFB2D4
:10214000AA850545292E37150140C145130505C04F
:10215000EF30E0128944A9B383270A00C5DB982336
:10216000759B98A365B7EFE28FBB37050240130557
:102170000503EF20F04F0145EF30100A05440145FB
:10218000EF30B00AE30D85FE37150140C145130558
:102190000580EF30C00E6FE0CFBAEFE24FB83705E1
:1021A000024013058505EF20B04C0545EF30D00601
:1021B0000545EF3090078547E30CF5FE37150140E4
:1021C0008565130505C0EF30800B6FE08FB785473D
:1021D00006063396C700060589473395A7000147D1
:1021E00081476312B702139507014181C18381457D
:1021F00001476390D502598D4183938641C7D98F9A
:10220000EAA29EA682800507C98F1377F70F0A05F9
:10221000C9BF8505518F93F5F50F0A06D9BF3567FC
:10222000130707572A971423B567938707581397FF
:102230001600938641C7BA9613878185BA95AA97E7
:102240009C2303C7F5FF039806003317F700931785
:1022500007010547C1876316E600B367F8009EA231
:10226000828093C7F7FFB377F800D5BF994763EC37
:10227000A708B567938787520A053E951841B707A7
:1022800000209387C76402879A2393D65500AE0532
:10229000719B558F9AA3BA231377F77F4D8FBAA3FB
:1022A0008280BA238E05137737C0CDBFBA2393D669
:1022B0004500B205619B558FBAA3DA2352075183BB
:1022C0004D8FDAA38280DA23FD76FD06758F9605A1
:1022D000C5BFDA2393D62500FD8A019B558FDAA36B
:1022E000FA23BA054A0749834D8FFAA38280FA235D
:1022F000F1769386F607758F9E05FDB7FA2313775F
:1023000007F8D98DEEA38280370700209307C764B2
:10231000BE231307C76409C593E707403EA3828025
:1023200093F7F7BFC207C183D5BFEFE2CF9C41113E
:102330002A89AE84014B63D50500B304B040054B38
:10234000B7470F009387F72337871E00A697130719
:10235000E7476365F704E1679387F7693717030079
:10236000A6971307E7D3636FF70A89679387F77018
:102370001567A6971307E7E16369F70A9387743E29
:102380001307E07C6366F70A938734061307600C33
:1023900089498D4A6366F700894A19A081499D4A97
:1023A000B56B014A938B4B56294CB3E78403528596
:1023B00013041A0032C61374F40FDE978C23EFF067
:1023C000FFEA3246B3C4840363978A063285EFF08E
:1023D000BFF3630B0B0022859305000413042A004E
:1023E000EFF0DFE81374F40F994463F8840489472D
:1023F0006397F902B70700209387C764EA237177D0
:10240000798D135789001377F707598D11671E09C6
:10241000130707F83379E90033652501EAA3410181
:102420006FE0EF908549994AA5BF8949954A8DBFCC
:102430008949914AB5B7228A8DBF22858145050415
:10244000EFF0DFE21374F40F4DB7370700201307E6
:10245000C7641E230A058D8BC98F1EA38280EFE2FD
:102460000F8C2E87A14511E19145B567060793872B
:102470004754BA9792230945EF30B01B814509456F
:10248000EF3090236FE0EF8BEFE26F89B72700000A
:102490004111370402409387A71937070020B74638
:1024A00000403EC01305840589480548814713074D
:1024B000C7649386C68005468545EF20F01CB72784
:1024C000000093876716B73601403EC0894805482B
:1024D0008147138701C8B1060546854513050403E6
:1024E000EF20901A41016FE0CF85EFE24F8337155F
:1024F00001408565130505C0EF20305937050240BE
:10250000914513058505EF2070176FE08F83EFE28B
:102510000F812946938541C7138501C8EF90104468
:10252000B707002003D747659306700C938747656C
:1025300005074207418363E9E6089AA38A239307C4
:10254000700C63F6A708938701C896276D77130769
:10255000A7AA758F94433776F6DB130666DBF18EF8
:1025600094C3D4433776AAAA130666DBF18ED4C38C
:102570009AA7938701C883D88700956690431388EC
:102580005655337818013717C927B768EDB79388C0
:10259000D8B613079724718F3376160190C3D043B2
:1025A000B76855559388D8B633761601CE23239451
:1025B0000701D0C313065009637FA60093869624B3
:1025C000ED8E98C3D6A301A82390070085BF93077B
:1025D000F004E3E0A7FA37150140C1451305058073
:1025E000EF20B04A37050240954513050503EF205B
:1025F000F0086FD01FF5EFD29FF20545EF10C068CD
:10260000EF007033EF50106DEFF0AFC1EF00705975
:10261000EF003049EF40F03501A082809967739058
:10262000078001A0EFD2BFEF9C2141116147DC87F9
:102630006360F70285479CC2482905469305F1006F
:102640001305250CEFE00FE3014541016FD07FEF4B
:102650004145E5BFEFD2BFEC85479CC2C829411177
:1026600032C61305250CEFE04FE0324608A20145C3
:1026700041016FD01FEDEFD29FEA85479CC24829E8
:102680002E8481456105EFE0AFFE08A001456FD0C3
:102690005FEBEFD2DFE805469C2190C2582941113B
:1026A000DC87630DC70089466304D702054693059E
:1026B000F1001305A020EFE0EFDB29A03E85EFE05D
:1026C0005F9919E1014511A0414541016FD07FE7B4
:1026D0003E85EFE03F99F5B7EFD2DFE29C2123A0E2
:1026E000060040294111DC870549B684630C2403A8
:1026F00031C40D4763648704AA893D456361F502CF
:1027000085451305E4FFEFF09FD503C54901054654
:102710009305F100EFE00FD623A02401014541010C
:102720006FD09FE11D473D45E36BF7FE05469305DE
:10273000F1000545EFE00FD480C0CDB705443D451D
:10274000E36FF4FC05469305F1001305B020DDB7F7
:102750001C2141115C871C31DC8728874101828064
:10276000EFD2FFDB01112A842E8536C6EFF05FFE23
:10277000B2468947E8879CC25C280547639BE7000F
:10278000AA8513050021EFE0AF8F014505616FD0E9
:102790005FDB1385770609469305E1010605EFE047
:1027A0006FCDE5B7EFD2BFD701112A842E8536C68B
:1027B000EFF01FFAB2468947E8879CC24828930584
:1027C000E101094606054505EFE0CFCA014505616F
:1027D0006FD03FD7EFD2BFD401112A842E8536C6E1
:1027E000EFF01FF7B24689471375F50F9CC2E887D3
:1027F00048289305E101094606051305B51DEFE0DC
:102800006FC7014505616FD0DFD3EFD25FD14111B2
:10281000AA8511466800EF907014324541016FD0CF
:102820005FD2EFD2DFCF01112A842E8536C6EFF0BA
:10283000DFFDB24691472ACE9CC248286C0811465B
:10284000130585070A05EFE0EFC2014505616FD06A
:102850005FCFEFD2DFCCAA84DC283D472E853684BB
:10286000636DF70085478C219CC2C828130515218C
:10287000EFE0EF8101456FD0DFCC4547636FF70094
:10288000EFF01FED89471CC0DC28AA859387F7105D
:1028900013951700EFD0DFFEF1BFEFF01FF7914760
:1028A0001CC0EFE04FDCF9B7EFD27FC791479CC265
:1028B0005C290D474111639FE7002E85EFF0FFF47F
:1028C000488605466C003945EFE0CFBA0145410125
:1028D0006FD03FC71145E39CA7FE2E85EFF0FFF2B6
:1028E0002AC611466C001305C020F9BFEFD23FC3C2
:1028F00001112A8432852EC636C4EFF07FE5A24648
:10290000B24589479CC2E887882109469305E101C1
:102910007D150605229542054181EFE0AFB50145E1
:1029200005616FD01FC2EFD29FBF2E869305450170
:102930006D45EFF0BFFB6FD0DFC0EFD25FBE2E86DC
:102940009305450113057002EFF05FFA6FD07FBF6A
:10295000EFD2FFBC2E869305450113053003EFF03F
:10296000FFF86FD01FBEEFD29FBB2E8693054501A7
:102970001305F003EFF09FF76FD0BFBCEFD23FBA63
:102980002E86930545011305B004EFF03FF66FD096
:102990005FBBEFD2DFB82E869305450113057005A6
:1029A000EFF0DFF46FD0FFB9EFD27FB72E8693053B
:1029B000450113053006EFF07FF36FD09FB8EFD2DB
:1029C0001FB62E86930545011305F006EFF01FF2A2
:1029D0006FD03FB7EFD2BFB42E86930545011305E4
:1029E000B007EFF0BFF06FD0DFB5EFD25FB32E8648
:1029F0009305450113057008EFF05FEF6FD07FB4CA
:102A0000EFD2FFB12E869305450113053009EFF093
:102A1000FFED6FD01FB3EFD29FB02E869305450117
:102A20001305F009EFF09FEC6FD0BFB1EFD23FAFCD
:102A30002E86930545011305B00AEFF03FEB6FD0EA
:102A40005FB0EFD2DFAD85479CC2482991472E8405
:102A5000631AF5001305B020EFE02FA108A001458F
:102A60006FD03FAE3305A04042054181F5B7EFD2AC
:102A70001FAB1C21054741112E846391E7020D45D0
:102A80003306A6029CC21305460E42054181EFE0C3
:102A9000CF9D08A0014541016FD0BFAA09476391AE
:102AA000E7020D453306A6029CC21305560E4205E9
:102AB0004181EFD0BFDF9357850008A01CB0D9BF7C
:102AC00091479CC20821B7070040F5173E95D147B2
:102AD0003306F60232950A051305D50E42054181EB
:102AE000EFD0DFDD2AC611466C002285EF9000672B
:102AF00055B7EFD2DFA201465105EFF05FF76FD077
:102B00005FA4EFD2DFA105465105EFF05FF66FD06D
:102B10005FA3EFD2DFA009465105EFF05FF56FD05C
:102B20005FA2EFD2DF9F054798C25C292E84638C99
:102B3000E7000947130590206384E7001305A020F0
:102B4000EFE0AF9219A0EFE06FD008A001456FD081
:102B50005F9FEFD23F9B0349050085474111AE843B
:102B60003284368A631CF9028C213285EF10A06D05
:102B7000BD470DE10D453305A4029C2005462320E9
:102B80002A015C841305450E42052C004181EFE0CB
:102B90006F8E81473E8541016FD01F9A8947631F21
:102BA000F9002E85EFF0DFBA68840D453305A402E5
:102BB00023202A0109461305550EF9B7AA892E8547
:102BC000EFF0BFC491472320FA002AC203C50900D1
:102BD000B7070040F5173E95D147B307F4021146F9
:102BE0004C003E950A051305D50E42054181EFE0E4
:102BF0006F889244139504014181EF9000412AC6E9
:102C000013D50401EF906040B7D7000083A50743B8
:102C1000EF80100A03C609002AC42C007D16420664
:102C200041822285EF10406D81472DD5BD479DB76C
:102C3000EFD2FF8E01465105EFF0BFF16FD07F90CC
:102C4000EFD2FF8D05465105EFF0BFF06FD07F8FBB
:102C5000EFD2FF8C09465105EFF0BFEF6FD07F8EAA
:102C6000EFD2FF8B894701111CC22EC6EFD01FC4C3
:102C7000B2459357850088A19CB1014505616FD08D
:102C80005F8CEFD2DF8936866D45EFF07FFD6FD028
:102C90005F8BEFD2DF88368613057002EFF05FFCA2
:102CA0006FD03F8AEFD2BF87368613053003EFF02F
:102CB0003FFB6FD01F89EFD29F8636861305F00346
:102CC000EFF01FFA6FD0FF87EFD27F8536861305AE
:102CD000B004EFF0FFF86FD0DF86EFD25F84368666
:102CE00013057005EFF0DFF76FD0BF85EFD23F839C
:102CF000368613053006EFF0BFF66FD09F84EFD213
:102D00001F8236861305F006EFF09FF56FD07F83A4
:102D1000EFD2FF8036861305B007EFF07FF46FD057
:102D20005F82EFD2CFFF368613057008EFF05FF3B6
:102D30006FD03F81EFD2AFFE368613053009EFF03A
:102D40003FF26FD01F80EFD28FFD36861305F0095A
:102D5000EFF01FF16FD0EFFEEFD26FFC3686130558
:102D6000B00AEFF0FFEF6FD0CFFDEFD24FFB8947F6
:102D70009CC248292E84411185454505EFE04F8FBF
:102D80009357850008A01CB0014541016FD06FFB2F
:102D9000EFD2EFF891479CC2482941112E841305C8
:102DA00085070A05EFD09FB12AC66C00114622851F
:102DB000EF90C03A014541016FD0AFF8EFD22FF646
:102DC00089479CC2482901112EC606051305B51D69
:102DD000EFD0DFADB2459357850088A19CB1014586
:102DE00005616FD00FF6EFD28FF389479CC2482957
:102DF00001112EC606054505EFD05FABB2459357CE
:102E0000850088A19CB1014505616FD08FF3EFD299
:102E10000FF191479CC25C29094741112E846386BA
:102E2000E7020D476387E70205471305C020639F4C
:102E3000E700EFD09FFB2AC66C0011462285EF9079
:102E4000E031014541016FD0CFEF1945EFD01FA709
:102E5000DDB73945EFD07FE1F9BFEFD24FEC8947BD
:102E60009CC24829854741112E84631EF500130535
:102E70000021EFD0BFA39357850008A01CB00145E7
:102E800041016FD00FEC130575060605DDB783A76A
:102E9000C181DC431387C71271EB35671307075FE6
:102EA00023A0E7141387471471EB356713070760F6
:102EB00023ACE7141387C71571EB35671307077049
:102EC00023A8E7161387471771EB356713070768C1
:102ED00023A4E7181387C71871EB35671307076A30
:102EE00023A0E71A1387471A71EB35671307076C9E
:102EF00023ACE71A1387C71B71EB35671307076EFF
:102F000023A8E71C1387471D71EB35671307076379
:102F100023A4E71E1387C71E71EB356713070765E8
:102F200023A0E7201387472071EB35671307075D60
:102F300023A2E7221387872271EB35671307076205
:102F400023AEE7221387072471EB35671307075970
:102F500023AAE7241387872571EB35671307075BDF
:102F600023A6E7261387072771EB828035671307AF
:102F7000077323AAE7121387871305F3356713072F
:102F8000075C23A6E7141387071505F335671307B6
:102F9000077223A2E7161387871605F33567130711
:102FA000076723AEE7161387071805F3356713077E
:102FB000076923AAE7181387871905F335671307ED
:102FC000076B23A6E71A1387071B05F3356713075B
:102FD000076D23A2E71C1387871C05F335671307CA
:102FE000076F23AEE71C1387071E05F3356713072A
:102FF000076423AAE71E1387871F05F335671307A6
:10300000076623A6E7201387C72105F33567130753
:10301000076123A8E7221387472305F335671307C2
:10302000075E23A4E7241387C72405F33567130736
:10303000075A23A0E7261387472605F335671307AA
:10304000077123ACE72615B7B71702409843B706B8
:10305000FFF841111367170098C3D84337060200E1
:10306000758FD8C39843B706F7FEFD16758F98C3C2
:103070009843B706FCFFFD16758F98C3D843B70673
:1030800081FFFD16758FD8C337079F0098C702C40C
:1030900002C69843C166558F98C3B71602400567AC
:1030A0009C42F18F3EC6A24785073EC4B24781E7E6
:1030B000A247E397E7FEB71702409C431397E70048
:1030C0006359070685473EC6324785476311F706B1
:1030D000B7170240D843B706C1FFFD1613670708AC
:1030E000D8C3D843D8C3D84313670740D8C3D843FD
:1030F000758FD8C3D843B7063D00558FD8C39843C2
:10310000B7060001558F98C3984393166700E3DD17
:1031100006FED843B7160240719BD8C3D843136745
:103120002700D8C32147DC42B18BE39EE7FE410173
:10313000828002C651BFB7160240DC42370700202A
:103140001146B18B130787586385C70021466388F2
:10315000C702B7177A00938707201CC3B71702402E
:10316000DC43918393F6F700B707002093870700AD
:10317000B69794231C43B3D7D7001CC38280DC428C
:10318000D4424166C983BD8BF18E8907454663935E
:10319000C700C94781EEB746024083A60680C18AB0
:1031A00089CEB7167A009386062021A8B71602406A
:1031B000D4421396E600E35606FEB7163D0093860A
:1031C0000690B387D70251BFEFD2CFB3C16441118C
:1031D0003709002009440D4A8D4AFD14832789656B
:1031E00093098965638E870463804703E5FFEFD009
:1031F000AFEEEFF06FA9EFE09FADEFE0EFA8EFF0DB
:103200001FC923A05901D9BF7D57740001468145CC
:103210000145EF403021B247E39287FC2686814585
:103220000145EF40D066EFD00FBD0841EF30506A46
:10323000EFD00FBD0841EF30B06923A0890079BFFE
:103240001305401FEF408029EF20B04841BFB7373A
:1032500000209387C7881CC1B72700209387C748E1
:103260009CC1930700081CC28280B7370020938757
:10327000C7921CC1B72700209387C7689CC19307DA
:1032800000081CC28280EFD28FA9EFD06FB708412F
:10329000EF408033EFD02FB60841EF40E0326FD0DF
:1032A0004FAAEFD2CFA7EFD07FBB2A8437280020C8
:1032B000B7270020B7D50000371500001308C8193C
:1032C0009387C7D91947854613060010938505745F
:1032D0001305054BEF30705508C0EFD06FB22A844C
:1032E000B7D50000370500001388C1089387C1C80F
:1032F00011478546130600109385C5741305657A3A
:10330000EF30B05208C0EFD00FAF2A84372800202A
:10331000B7170020B7D50000370500001308C8AE66
:103320009387C7E615478546130600329385C57512
:1033300013054561EF30704F08C0EFE0BF982A8455
:1033400037280020B7270020B7D500003725000018
:10335000130848D4938747B42147854613060008CD
:1033600093850577130525E5EF30304C08C03728E5
:103370000020B7270020B7D500003735000013081C
:10338000483F9387471F25478546130600089385C6
:10339000C5771305851CEF305049EFF0DFEE6FD095
:1033A0004F9AEFD2CF97EFD02FC8B73600203726ED
:1033B00000202A8401479386468E1306C644914511
:1033C0004145EF30E01C08C06FD0AF9701A001A0CD
:1033D00001A001A001A001A001A001A001A001A0E5
:1033E00001A001A001A001A001A001A001A001A0D5
:1033F00001A001A001A001A001A001A001A001A0C5
:1034000001A001A001A001A001A001A001A001A0B4
:1034100001A001A001A001A001A001A001A001A0A4
:1034200001A001A001A001A001A001A001A001A094
:1034300001A001A001A001A097E1FF1F93810195C8
:1034400017210020130101BC17B50000130505303A
:1034500097D5FF1F938505BB1386818763FAC50047
:103460008322050023A0550011059105E3EAC5FE5E
:1034700017D5FF1F1305051997050020938545FBF8
:103480006377B500232005001105E36DB5FEFD420D
:10349000739002BC894273904280B72200009382ED
:1034A000028073A0023097D2FFFF938222B993E289
:1034B000320073905230EFF03FB997F2FFFF9382E2
:1034C000C21373901234730020301C4589C593E7F2
:1034D00017001CC58280F99BEDBF1C4589C593E789
:1034E00007101CC5828093F7F7EFE5BF08450D81F3
:1034F0000589828008450981058982801C4591C51E
:1035000037075000D98F1CC582803707B0FF7D1761
:10351000F98FD5BFA54763F7B7048D47138765FFBC
:103520003307F7020328C5009D47B397E70093C709
:10353000F7FFB3F70701B396E600DD8E54C5994750
:1035400063E3C70495477D163306F6025859FD47D5
:10355000B397C70093C7F7FFF98F3396C5005D8E09
:1035600050D982800D473387E502032805019D4726
:10357000B397E70093C7F7FFB3F70701B396E600E9
:10358000DD8E14C96DBFB14763E2C702954765166A
:103590003306F6021859FD47B397C70093C7F7FFE4
:1035A000F98F3396C5005D8E10D9828095474D16F0
:1035B0003306F6025855FD47B397C70093C7F7FF88
:1035C000F98FB395C500DD8D4CD58280A18193C55F
:1035D000F5FF0CC18280EFC29FF401112A842303FE
:1035E0000100A5441C8363FAF40623030100A546E9
:1035F00021461C8363F0F60A231401002315010001
:10360000230301009546130600601C8363FEF60E3B
:103610001C8393F7F70F63840712388414833C8468
:103620000C8310833347D702B3E7B7028607B3C7CB
:10363000C702BA97C207C1837C841883994795460D
:10364000998F93F7F70FDC839C8393F7F70F639CB5
:1036500007108567938707800DAA1C4493E78700AE
:103660001CC42285EFF09FE86DFD1C4493E74700E2
:103670001CC42285EFF01FE86DFD78441C831410F4
:103680008607B6972396E7FE1C83850793F7F70F07
:103690005C8389BFA30301009C836378F6001C83CD
:1036A000850793F7F70F5C83A9B798839C830C1069
:1036B0000607850786072E97AE970357C7FE83D761
:1036C000C7FE63FDE7029C838607AE9783D7C7FEDC
:1036D0007C849C83988385078607AE9783D5C7FE35
:1036E000931717001810BA972396B7FE9C83388457
:1036F0000C1085078607AE972396E7FE9C83850707
:1037000093F7F70FDC8349BF1C83181089078607DE
:10371000BA9783D7C7FEE36DF6EE1C830C1038848E
:1037200089078607AE9783D7C7FEBA97C207C183BA
:103730007C841C83850793F7F70F5C83F9B59307A7
:103740000040DDBD1C831010388589078607B297BD
:1037500083D7C7FEBA97C207C1837C851C838507C0
:1037600093F7F70F5C831C83E3FEF6FC38859483A4
:103770003C858C8390833347D702B3E7B702860733
:10378000B3C7C702BA97C207C1837C852884348532
:103790002C84308505679307004013070780338525
:1037A000A740B306D7408D8F118F4205C206C207CE
:1037B0004207C18641874185C1873695BA978946B8
:1037C0003345D5020561B3E7D7023E9542054185F1
:1037D0006FC03FD71C4161773D0794517D8F9C4559
:1037E000D58F9449D58FD449D58F944DD58FD44D4D
:1037F000D58FD451D58F9455D58FD98F1CC1DC4529
:103800005CC19C411CC5DC415CC582801C4189C5F2
:1038100093E717001CC1828041677917F98FDDBFDC
:103820004CC18280B70702409C437D8D3335A00098
:103830008280EFC2DFCEEFF0FFFE6FC09FD0B707F0
:103840000240C8C382809C4513F7070113F8F700B4
:1038500001C7D8413368E80037270240145B3707B7
:10386000000F758F5DEB370700208546230ED76468
:10387000371701406315E5009A2135839AA18E21FF
:1038800013F7F50F39C318418146854E3D4F930F0D
:10389000800293028004214E3396DE00B3F8C50007
:1038A000631116039398260033131F011343F3FF8C
:1038B0003377E300B318180133E7E8006399F7079B
:1038C00050C98506E39AC6FD18C11307F00F63754A
:1038D000B70454412146854E3D4F930F8002930219
:1038E0008004414EB398CE0033F715016392E8028D
:1038F0001317260001173313EF001343F3FFB376BA
:10390000D3003317E800D98E6397F703232A1501F4
:103910000506E319C6FD54C1828037170140E31044
:10392000E5F6370700200347C76531DBB1B7E39AF7
:1039300057F810C979B7E39D57FC23281501C9BF73
:10394000B71701406318F500B707002083C7C765A4
:1039500091C3B58108456D8D3335A0008280B717BE
:1039600001406318F500B707002083C7C76591C3FE
:10397000B5810CC98280B71701406318F500B707FD
:10398000002083C7C76591C3B5814CC98280B70742
:103990000140635A0504DC4F9356050113180501D5
:1039A0003707300013F6F60013580801B376E50028
:1039B000635E05066399E604930606010D46B31699
:1039C000D60093C6F6FFF58F99C9135755011377A3
:1039D000F73F12073317E800D98F635505063707FD
:1039E00001405CCF828037270240145BDC433707FD
:1039F000000F758F55F313D71700F976CE07758F23
:103A0000CD83D98F51BF1317B500635607008D467C
:103A1000B396C6007DB7135755011377F73F1207CA
:103A20003317E8001347F7FFF98F79BF6390E60279
:103A3000370601405442370700F17D17F98F758F23
:103A400058C2C1F5370701405CC382801317B50027
:103A5000635C07008D46B396C60093C6F6FFFD8EE5
:103A6000B707000FD58FF1BF135755011207331752
:103A7000E8001347F7FF7D8FB707000FD98FD1B745
:103A8000EFC2FFA979712A84462168082EC6D92C75
:103A9000925737470F001307072433D7E702C204B2
:103AA000C18093F404FCC204C180B2456165130572
:103AB000056A131607014182D18C46A01620C20662
:103AC000C182F99AC206C18216A094416369D504E5
:103AD0008606B3D7D7029146139707014183BA8769
:103AE0006373D700914705064206C2074182C1832E
:103AF00012B05EAC1E20DA21B62593E717001EA097
:103B00001E20558FC207C18393F757BFD98F1EA0C0
:103B10009A25DE25D98F1EA445616FC09FA2EA2198
:103B200031667D16631DC5020D46B386C602B3D746
:103B3000D702C207C1839396470199E293E7170022
:103B4000A166D58F9306C0123307D7029306803E35
:103B50003347D7020507420741831AB059BF65466C
:103B6000B386C602B3D7D7029166C207C183D58F89
:103B7000D9B71E2189C593E717001EA18280C2070D
:103B8000C183F99BC207C183CDBF1E2189C593E7BD
:103B900007101EA18280C207C18393F7F7EFC20707
:103BA000C183C5BF1E2189C593E707201EA182805E
:103BB000C207C18393F7F7DFC207C183C5BF1E21C8
:103BC00089C593E707401EA18280C207C18393F78E
:103BD000F7BFC207C183C5BF5E2589C593E717003C
:103BE0005EA58280C207C183F99BC207C183CDBF96
:103BF0005E2101C6DD8D4EA1828093C5F5FFFD8D4E
:103C0000DDBF0EA982800A291375F50F828093F714
:103C1000E50F19C293E71500C207C1831EA9828070
:103C2000411102C62AC6B247BE952EC6B2478A23A4
:103C3000410182805E290A2D42055D8D6D8D220530
:103C400021810D8D133515008280411102C402C6F9
:103C500093D7C5012AC63EC4A247A205A18199CB2C
:103C6000B247D1073EC6B247884341016D8D333517
:103C7000A0008280B247C181E107EDB793C5F5FF8F
:103C8000C205C1814EA98280B707002023A0A76684
:103C90008280B7070020938707669443182181E646
:103CA0003C21920721A894430546639FC6023C210C
:103CB000103192076314D60093E707F8B7E600E0E7
:103CC00093F7F70FBA962380F6408546935757002F
:103CD0003397E6005441A5C2938707048A07B7E6E5
:103CE00000E0B69798C382808C4389466391D502E1
:103CF00014313C216365D6008A06B6975DB793867A
:103D0000E6038A06B69793F7F70F920775B79043C5
:103D10008D46631CD60014313C216364D6008606B0
:103D2000E9BF9386C6078606F1BF94439147E39E99
:103D3000F6F81C31BDB7938707064DB7B717024099
:103D4000238007022380070205476306E500114729
:103D50006306E50082802380A702828015472380C6
:103D6000E7028280371702405C439146B18B63853E
:103D7000D700A1466382D706B7177A00938707203A
:103D80001CC1371602405C423707002013070701A9
:103D90009183BD8BBA9794231C41B3D7D7005CC1E4
:103DA0005442A1829D8ABA969422B3D6D70014C5F4
:103DB0005442AD829D8A36971823B3D7E7005CC57D
:103DC00058423983937637001387418036971823FA
:103DD000B3D7E7021CC982805C435843C166C983DC
:103DE000BD8B758F8907C5466393D700C94701EF1F
:103DF0003747024003270780418B09CF37177A00E6
:103E00001307072021A83717024058439316E700ED
:103E1000E3D606FE37173D0013070790B387E70286
:103E200085B799C5371702401C4F5D8D08CF82803A
:103E3000B7170240984F1345F5FF798D88CF8280E0
:103E40009357550005476399E700B71702409C4315
:103E500033D5A7000589828009476396E700B71725
:103E600002409C53F5B7B7170240DC53D5B7B737BC
:103E7000004003D74780136707012392E7808280C1
:103E80003737004083574780C207C183BD9BC207B5
:103E9000C1832312F7808280EFC26FE841112AC6E6
:103EA000EFF0FFFC3245B7370040135705013D8B5B
:103EB00042052394E78041812396A780EFF05FFCC1
:103EC00041016FC00FE8373700408357478093F7B1
:103ED0000702E5DF82803737004083574780C207FB
:103EE000C183DD9BC207C1832312F78037370040AF
:103EF00083574780A18BEDDF82801E31922103D84A
:103F00002500C207C183F99BC207C1831EB11E31C0
:103F100056211A2DC207C183420741831377C7F880
:103F2000518F9225F59BC20633660601D18F373635
:103F30000140130606C0C1826310C502B225DD9B95
:103F400003D8E500D18FD221ED9B93F6F6CFD18F28
:103F5000D22533660601D18E56A11AADFA215AB97F
:103F60001EB182801E3165771307F7CFC207C18368
:103F7000BD9BC207C1831EB11E31562103D88500E7
:103F8000C20713960601162DC18393F7F7FD758FAF
:103F900096214182A206558FB62142074183B3E69E
:103FA00006019206D58FB7360140C207938606C038
:103FB000C183631ED502B62593F7F7F703D8C50072
:103FC0009206D58FD621C207C183920693F7F7FBDD
:103FD000D58FFD769386F63FF18EF225C207C18319
:103FE000336606010A06D18E13960601418252A15C
:103FF0001AADFA211ABD1EB182801E3103D8850088
:10400000C207C18393F7F7EFC207C1831EB11E3108
:1040100056215A2DC2071396060142079621418365
:104020001377C7F8558FB621C18393F7F7DFB3E64F
:104030000601A206D58FB7360140C207938606C097
:104040004182C183631FD502FD769386F67FF58F8B
:10405000B62503D8C500A206D58FD621C207C183D5
:10406000A20693F7F7BFD58FF576FD16F18EF225F0
:10407000C207C183336606011206D18E139606016C
:10408000418252A15AADFA215ABD1EB182801A3125
:10409000FD77FD17F98F1EB10358050256215E2DDD
:1040A000657792211307F7CF7D8FF9772206FD17E9
:1040B000518FB3F70701B22103D88500C20642072A
:1040C000336606013206D18F37360140C207130628
:1040D00006C0C1824183C183631AC50071767D1613
:1040E000F18ED2251A06D18EC206C18256A15AADD2
:1040F000FA212310E5041EB182801E2DC207C18360
:10410000DD9BDD8D0EAD82801A2DFD779387F77FC5
:10411000F98FA205CD8FC207C1831EAD82805E2DAF
:10412000C207C183DD9BDD8D4EAD82805A2DFD77A8
:104130009387F77FF98FA205CD8FC207C1835EAD4C
:1041400082801E294A25ED8F4205418189C76D8DE8
:104150003335A00082800145828093F5F51F4EA182
:1041600082800A216D8D3335A0008280B737002010
:104170009387479B23A0070023A2070023940700EF
:10418000B73700209387479A23A0070023A2070090
:1041900023A4070023960700B70700202392076691
:1041A0008280EFC22FB69317150037350020130514
:1041B000459B3E95834905002E896386090600319B
:1041C000B73400209384049CA299139A0901135ACE
:1041D0000A01B14A93170401C18363E64703130937
:1041E00000006312FA041384F7FFB1473304F402AA
:1041F000B73700209387079C3E940C404840EF70EF
:1042000060670C4431A8228BCE8763113403314799
:10421000B387E7024A85BE94CC40EF70A0658C441A
:10422000EF6070722A894A856FC00FB10504B30729
:1042300054034A85A69783A547FFEF70E05AE34BE6
:10424000A0F8DA87E9B785476381F504B73700201E
:1042500006059387479BAA97982315E33707002005
:10426000130747661223130840060545B306B60038
:10427000634ED8008CA390B316A301458280FD1530
:1042800001456305B700094582800D458280EFC274
:104290006FA74111AA892E893A85BE853684B284DA
:1042A0003EC63AC4EF7010062A8AA2852685EF70B2
:1042B0007005AA855285EF70A01F224723A0A90090
:1042C000A2853A85EF70005BB247AA89A6853E8534
:1042D000EF70405AAA854E85EF70D002AA89A68554
:1042E0002285EF703002AA854E85EF70601C232076
:1042F000A90041016FC04FA4931715003735002066
:104300001305459B3E951C216378F604EFC22FA14F
:104310000031B1472E8922961314060141803304DF
:10432000F40203270900832789008326C900032696
:104330004900B73400209384049C9305840013053E
:1043400044002695A695EFF09FF48327C900269494
:1043500001451CC06FC0EF9E0945828037350020A3
:104360001305459882809317350037050020130503
:1043700085663E95DC41230005005CC101458280D5
:10438000F1473305F502B73700209387C7EAD841D4
:104390003E959C4958C17D171CC9DC453337E00068
:1043A0005AA95CC59C4DA30B0500232405001CCD18
:1043B00001458280F1473305F502B7370020938726
:1043C000C7EAAA97C82B8280EFC26F95F1473305E1
:1043D000F502B73700209387C7EA09473D46AA97F9
:1043E0001305C0023385A502D8C337370020130751
:1043F00047E323AA070081453304A700090580C3CA
:10440000232204023A95EFC08F94B7D7000083A708
:10441000C7782320040205451CD46FC08F92EFC2D9
:104420000F90F146B306D502B73700201387C7EACD
:10443000AA843D6501461384C7EA130505A636978D
:10444000144323A0060213872600F9060358270009
:104450001E23B305F84063D60500B307F540B385C6
:10446000070109072E96E393E6FE3D453355A60264
:10447000B73700209387C7E893954400BE95EF3087
:10448000907EF147B387F4020547A2979C4388D3F7
:10449000D8D36FC00F8BF1473305F502B737002033
:1044A0009387C7EAAA97884309058280EFC22F87BE
:1044B000F1473305F502B73700209387C7EA3E95E9
:1044C000004129CC5841894701456317F7041C5026
:1044D000A1C73E85EF707033B7D7000083A547783A
:1044E000EF704039B7D70000AA8503A5C778EF6001
:1044F000307CB7D7000083A58778EF70A037EF70C6
:10450000101F42054181EF70F0230C54EF7080368C
:10451000EF70F01D420541816FC0AF820145EDBFD4
:10452000EFB25FFE71443305850237340020130477
:10453000C4EA2A94832904001C480D4583A4090277
:104540006387F40426852E89EF70302CB7D70000DE
:1045500083A54778EF700032B7D70000AA8503A57E
:10456000C778EF60F074EF7090189307C0033305BD
:10457000F50242054181EF70F01C83A58902EF70BE
:10458000602FEF70D0162310A90004C809456FB042
:10459000BFFAEFB23FF7373400201304C4EA814476
:1045A0008949130A703E854A11495C40638B37057F
:1045B0001C4C2685829778386302A7041C44850723
:1045C0001CC41DEB18486379F7005C4068B893C7BA
:1045D000F7FF858BA98F5EA8850493F4F40F71040F
:1045E000E39524FDB707002093878766D8438C2383
:1045F000014502976FB05FF45844F1B723240400DB
:10460000E1BF5E288507C207C1836364FA005EA824
:10461000E1B71C40231A0400D8536315570123A2A5
:1046200007025DBF23A0070245BF373500201305F1
:10463000C5F1828085673307C5009387078063C90A
:10464000E706EFB23FECAA843284094525C2373A27
:104650000020AE8A8149414B130ACAF193F7F40056
:10466000B307FB40C207C183228963F387003E89F9
:1046700083274A0242091359090133863A01A68564
:10468000CA861305000A330424418297CA9942045A
:10469000CA941545C209C2044180EF20306493D901
:1046A0000901EF101003C18055F801456FB0DFE834
:1046B0000945828085673307C5009387078063C2F9
:1046C000E708EFB25FE3AA844111328409453DC691
:1046D000B73900202E8AB68A814B414B9389C9F1A4
:1046E00093F7F400B307FB40C207C183228963F349
:1046F00087003E89420913590901194CB30C7A010C
:1047000003A80902D6872947CA866686A6851305A7
:10471000000A029801C92AC67D1CEF10807B324531
:10472000E3100CFE33042441CA9B4204CA94C20B1A
:10473000C204418093DB0B01C1805DF041016FB089
:104740001FDF0945828085673307C500938707808F
:1047500063C3E702EFB2BFDC37370020032887F3DB
:10476000B68713074006B2862E86AA851305000A6F
:1047700002986FB01FDD09458280EFB25FDA411108
:10478000AE8605469305F100EFF0FFFB88874101F7
:104790006FB03FDBB70700200397076781472A9771
:1047A000634F070009CD05669306F6FFB687635889
:1047B000C700AA876305D50093170701C1833E850B
:1047C0008280B7160240DC4251777D17F98F31673E
:1047D000D98FDCC28280EFB2FFD2B7170240D84730
:1047E0004111AE84328979E913670720D8C7D847C9
:1047F0001377F7DFD8C7984F1367072098CF2AC6DB
:10480000EFF03FFC32453707F1E01307F7EF93175E
:1048100025001385C1853E950041B56993890979C5
:104820005C40F98F93E707105CC01C4437F7F1FF39
:104830001307D77FF98F37070E000907D98F1CC4DC
:104840005C54370710FF7D17F98F37074000D98F69
:104850005CD48147639FF4061C4437071000D98F4E
:104860001CC41C44370700FC7D1793E707101CC4C9
:104870001C4493E717001CC45C40F98F5CC01C44C7
:1048800093E787001CC42285EFE05FC66DFD1C44E2
:1048900093E747001CC42285EFE0DFC56DFD22854C
:1048A000EFE07FD3B70700202398A7665C40370767
:1048B0000004D98F5CC041016FB01FC81367074067
:1048C000D8C7D8471377F7BFD8C7984F13670740A3
:1048D00035B7138A1700CA979C239D461376FA0FA3
:1048E000CE978C232285EFE0FFC2D287A5B7B737DA
:1048F000002023A4A7F48280B737002023A2A7F4C6
:104900008280B737002023A6A7F48280B717024021
:10491000944BB7080002370800FEB3E6160194CBAB
:10492000944B7D18B3F6060194CBD84F336717012B
:10493000D8CF9307400651476305F50263E7A70EFA
:10494000D1471307C012630EF50093072003130726
:1049500080076308F500A947130780256303F50066
:104960004147B767004083A607404165F59A23A0F9
:10497000D74083A6074093E6160023A0D74093862E
:104980000740DC42858B99E37D1565FDC842B7671A
:10499000004005894DC903A507407D17938707404F
:1049A0001375F5F788C388431365050488C38843E6
:1049B0001375F5FD88C388431365050188C38843D3
:1049C0005D9988C388436D9988C337054B03498F28
:1049D000D8CE9843799B98C34167D443858A99C2BE
:1049E0007D1765FFD843058B39EFEFB25FB3D84B26
:1049F000130540022E8413673741D8CBB284EF00F1
:104A0000F0622686A28513055002EF0030622686EA
:104A1000A28513053002EF0070612686A28513057A
:104A20006002EF00B0606FB0DFB19307401F114725
:104A3000E309F5F29307803E0947E304F5F2930793
:104A4000A00F214721BF8280B767004003A707401E
:104A5000054693870740719B1367170098C341670A
:104A6000D4438D8A6384C6007D177DFBC8430D89BE
:104A70007D15133515008280B767004003A70740F6
:104A800093870740719B98C34167D4438D8A99C22D
:104A90007D1765FFC8430D89133515008280EFB27D
:104AA0001FA8442141110041930555002686280086
:104AB000EF70C06AB767004003A787401359E4004E
:104AC000137929009316570063CE06069387074093
:104AD00098479316470063C906069C4711451397EC
:104AE0003700635E07040945376700401307074036
:104AF00093174500BA9703A7071856043364240197
:104B0000058B23A0E71803A70718BD88598C23A09D
:104B1000871803A74718419B23A2E71803A7471844
:104B2000D98C224723A2971823A4E718324723A63B
:104B3000E71803A707181367170023A0E718410118
:104B40006FB03FA001454DB7054579BFB76800403C
:104B500013880840032E082005433313A300136E67
:104B60001E002320C821832EC821134EF3FF960573
:104B7000B3FECE01232ED821832EC820C20596066F
:104B8000B37EDE015606C1810E05C2062326D8215A
:104B90004295C1824D8E5607558F2320C52423226E
:104BA000E52437270240145B3707000F758F19EB98
:104BB0001387083016231107C206C182231ED7EEC1
:104BC000E31A07FF37670040130707408326472093
:104BD000B3E666002322D7208DE783274721337E63
:104BE000FE00232AC721B767004003A7C7613363CC
:104BF000670023AE676003A70760799B23A0E76087
:104C0000828083274721B3E76700232AF720E1BF8B
:104C1000B337A000B7660040920793860640B69768
:104C200003A7071B118B51EB03A6071B03A7071B49
:104C300003A8471B5582098B1378F80023820501CE
:104C400003A8871BA382050103A8871B13588800AC
:104C50002383050103A8871B13580801A3830501BB
:104C600003A8871B135888012384050103A8C71BC9
:104C7000A384050103A8C71B1358880023850501D9
:104C800003A8C71B13580801A385050183A7C71BE9
:104C9000E183DCA511EDDC4693E70702DCC6B33700
:104CA000E000BE07D18F9CC123970500014582809B
:104CB0009C4A93E707029CCADDB70545828039719B
:104CC0003ACE41673ECC06DE16DC1ADA1ED82AD66A
:104CD0002ED432D236D042CA46C872C676C47AC200
:104CE0007EC013071710B767004023A4E740B7370B
:104CF000002083A787F48297F250E2525253C253A6
:104D00003255A255125682567247E2475248C2485F
:104D1000324EA24E124F824F216173002030397102
:104D20003ECCB737002083A747F42AD63ACE06DE1A
:104D300016DC1ADA1ED82ED432D236D042CA46C871
:104D400072C676C47AC27EC001458297B7670040BA
:104D5000214723A6E740F250E2525253C253325544
:104D6000A255125682567247E2475248C248324E06
:104D7000A24E124F824F21617300203039713ECC18
:104D8000B737002083A747F42AD63ACE06DE16DCD2
:104D90001ADA1ED82ED432D236D042CA46C872C6CB
:104DA00076C47AC27EC005458297B7670040214726
:104DB00023A8E740F250E2525253C2533255A25553
:104DC000125682567247E2475248C248324EA24EAD
:104DD000124F824F21617300203039713ACE3ECCA0
:104DE00006DE16DC1ADA1ED82AD62ED432D236D0F7
:104DF00042CA46C872C676C47AC27EC01147B76737
:104E0000004023A2E740B737002083A7C7F482976A
:104E1000F250E2525253C2533255A25512568256A4
:104E20007247E2475248C248324EA24E124F824F5A
:104E3000216173002030EFB28FEE13142500094575
:104E4000411133158500EFE0DF9E8547631FF500B4
:104E5000B7370020938707F5A2979C432AC682970D
:104E6000324533158500EFE09F9D41016FB06FED36
:104E70001C4141677917F98F1CC182804CC11C41CC
:104E800093E717001CC18280EFB26FE9371302402D
:104E9000832743015D7102CE93E7170002D02A8475
:104EA0000655232AF3000543814763936500C147F4
:104EB0003ED619CA85476300F60885679387078041
:104EC000BEC093070020ADA882C002DE37060240B4
:104ED000B737002093058600938707F56314B4065F
:104EE00088C3ED44930700083EDC8567BEC41C40C0
:104EF0003AD441677917F98F4C101CC0228536D2FD
:104F000046C642C402DA82C282C6EFE0BF8C1C40B1
:104F10002248B24893E727001CC068088547230E43
:104F20009100A30E0101230F11013ED0EFE07FD6C7
:104F300061616FB00FE193070040BEC0930700109E
:104F40003EDE69B79305C6016315B400C8C3F144DA
:104F500051BF930506036315B40088C7F54459B7DC
:104F6000930546046315B400C8C7F944A5BF93056B
:104F700086056315B40088CBFD44ADB71306C6069D
:104F80006316C400C8CB93040002A9BF88CF930462
:104F9000100289BFEFB2AFD841112A8405452EC651
:104FA00032C4EFE0DF892246B245B724014050C049
:104FB0004CC4138504408545EFE02FD2138504408F
:104FC00093050022EFE08FE01C40138504408545E7
:104FD00093E727001CC01C4093E717001CC0EFE0BC
:104FE000CFCE854513850440EFE04FD141016FB02E
:104FF0004FD539712AD6014506DE16DC1ADA1ED8DD
:105000002ED432D236D03ACE3ECC42CA46C872C630
:1050100076C47AC27EC0EFF01FE2F250E2525253E1
:10502000C2533255A255125682567247E247524831
:10503000C248324EA24E124F824F2161730020307F
:1050400039712AD6094506DE16DC1ADA1ED82ED4A6
:1050500032D236D03ACE3ECC42CA46C872C676C4A8
:105060007AC27EC0EFF03FDDF250E2525253C2539B
:105070003255A255125682567247E2475248C248EC
:10508000324EA24E124F824F21617300203039718F
:105090002AD60D4506DE16DC1ADA1ED82ED432D2F8
:1050A00036D03ACE3ECC42CA46C872C676C47AC220
:1050B0007EC0EFF05FD8F250E2525253C2533255E5
:1050C000A255125682567247E2475248C248324EA3
:1050D000A24E124F824F21617300203039712AD6BF
:1050E000114506DE16DC1ADA1ED82ED432D236D09E
:1050F0003ACE3ECC42CA46C872C676C47AC27EC098
:10510000EFF07FD3F250E2525253C2533255A255C0
:10511000125682567247E2475248C248324EA24E59
:10512000124F824F21617300203039712AD6194500
:1051300006DE16DC1ADA1ED82ED432D236D03ACE9B
:105140003ECC42CA46C872C676C47AC27EC0EFF070
:105150009FCEF250E2525253C2533255A2551256CC
:1051600082567247E2475248C248324EA24E124F10
:10517000824F216173002030B7170140938607806A
:1051800011476306D502938607C021476301D50204
:105190004147630EF500938707406300F502B72788
:1051A0000140938707806314F50013070004B716C6
:1051B00002409C4E5D8F98CE828013070002C5BFCF
:1051C000EFB2EFB501112A842EC6EFF0FFFAB24517
:1051D000C1473ECEEC8289474C0822853ECCEFE0A9
:1051E0008FE605616FB0EFB5EFB26FB301112A849E
:1051F0002EC6EFF07FF8B2458D472285EC824C0831
:105200003ECC02CEEFE02FE405616FB08FB3EFB27A
:105210000FB101112A842EC6EFF01FF6B245914757
:105220003ECEEC828D474C0822853ECCEFE0AFE1CC
:1052300005616FB00FB1EFB2EFAC41113284AA84B7
:10524000AE893689EFF05FF309C885450545EFE083
:105250005FBD85452285EFE08FF38D474C002685A5
:10526000231231014AC63EC4EFE0EFDD41016FB0C9
:10527000AFACEFB2CFAAEFE0AFEC6FB08FACEFB254
:105280000FAAEFE0CFED6FB0CFABEFB24FA9EFE0D9
:105290008FEE6FB00FABEFB2EFA63704002083277D
:1052A0004467AA8A2E89884B8545328AB6891304B9
:1052B0004467EFE01F8C1C40B7050200884BEFE00D
:1052C000DF9875F91C408545B7040300884B8504B9
:1052D000EFE0BF8B1C40A685884BEFE0BF957DD9E2
:1052E0001C400146D685884BB704070093842408E8
:1052F000EFE0FF911C40A685884BEFE0BF937DD97E
:105300001C4093558900FD89884BB704070093849E
:105310004408EFE01F8F1C40A685884BEFE09F916B
:105320007DD91C409375F90FB7040700884B93840F
:105330004408EFE01F8D1C40A685884BEFE09F8F4F
:105340007DD9370907008144130949081C40884B5F
:1053500063E834018545EFE0FF8401456FB0CF9DE0
:10536000B3079A008C23EFE0DF891C40CA85884B85
:10537000EFE05F8C7DD9850493F4F40FC1BFEFB2E9
:105380006F98370400201309446783240900BA8901
:1053900013044467F6A0D0C49CA0CEA023940400BC
:1053A000A8B0EF20605583270900C8C81D47884B67
:1053B00098CF8545EFE0EFFB832709000146930571
:1053C0000070884BEFE0DF821C40B7050200884B7D
:1053D000EFE0BF8775F91C40054693050070884BC8
:1053E000EFE01F811C408545884BEFE00FFA1C4021
:1053F0004E86FD558823EF20A0771C40AA840146E5
:10540000884B93050070EFE0AFFE1C408145884B50
:10541000EFE02FF6014591E00D456FB0EF91EFB24F
:105420006F8E370400201309446783240900BA896A
:10543000130444679CA0F6A0D0C4CEA0239404001B
:10544000A8B0EF20604B83270900C8C80547884BE8
:1054500098CF8545EFE0EFF11C40B7050200884B7F
:10546000EFE0AFFE75F91C408545884BEFE02FF566
:105470001C408545884BEFE04FF11C4005469305E5
:105480000070884BEFE0CFF61C404E86FD55882318
:10549000EF20006E1C40AA840146884B93050070E3
:1054A000EFE00FF51C408145884BEFE08FEC85471E
:1054B00001456383F40011456FB00F88EFB22F866A
:1054C00037040020930444679C404111D145884B28
:1054D00002C6EFE0EFF49C40AD46984F7D1763E5C0
:1054E000E602B5660A079386467A36971843130490
:1054F00044670287058909C9AC33884B0146EFE050
:105500000FF11C40094798CF41016FB08F83098983
:1055100065DD884BE145EFE0AFF01C40CE23884BC2
:10552000A181FD89EFE0EFED1C402D47E9BF137528
:10553000050879D9CC23884BEFE0AFEC1C400D4730
:10554000D9B71375050869D1884B8545EFE0EFE3BE
:105550001C4011474DBF058945D9AC33884B0546E2
:10556000EFE0EFEA1C40154779BF098951DD884B10
:10557000E145EFE0EFEA1C40194771B713750504E8
:1055800041D5F6239A27884BFD16635BD700C047A9
:105590009306170096A73A94EFE0EFE608A0ADB7A0
:1055A0008145EFE0CFE11C409A27C447884B930622
:1055B000170096A7BA94EFE00FE588A01C40884B2F
:1055C0008545EFE02FDE08407C0001470C2148496B
:1055D0008D460546EF20B00DB24791C7B7E700E012
:1055E000116723A0E7201C4023AC070031BF0589C9
:1055F000E30C05F0AC33884B0146EFE04FE11C4073
:10560000214711B71377054005C3884BB705001034
:1056100093850540EFE08FE61C408545884BEFE021
:10562000CFD61C401D47C5B50989E30F05EC884B53
:10563000E145EFE0EFDE1C40CE23884BA181FD89E0
:10564000EFE02FDC1C4031477DBD13750508E30DED
:1056500005EACC23884BEFE0CFDA1C40254765B53F
:1056600013750508E30205EA9627FA2363FDE600B1
:10567000D847884B36970C23EFE0AFD818401E2749
:1056800085071EA751B52947BDBD1189E30E05E663
:105690003DB7EFA2DFE87971B757004002CC02CEE8
:1056A00093870740AA842E896312F502B717024038
:1056B000944B37052000B705E0FFC98E94CB944B7F
:1056C000FD15ED8E94CBD84F498FD8CFB727060064
:1056D000938707A81307004002D202D402D63ED017
:1056E0000C109167268532C62313F1022316F102AE
:1056F0002315E102EFE0CFB885452685EFE06FC7BF
:10570000EFE0BFF2B75700009387E7415CCDB75792
:1057100000009387E7371CD1B757000093876729AC
:1057200032465CD18547370400203ECEB757004053
:10573000232AA46604C9A30C2101230DC100938769
:10574000074013044467639DF4029307F00228089E
:10575000230CF100EFE0EFD3930700032808230C9C
:10576000F100EFE00FD31C408145884BEFE0CFC63E
:105770001C408545884BEFE0CFBF45616FA07FDCC3
:10578000930710032808230CF100EFE08FD0930754
:105790002003E9B7397106DE16DC1ADA1ED82AD6DC
:1057A0002ED432D236D03ACE3ECC42CA46C872C689
:1057B00076C47AC27EC0EFF07FD0F250E2525253EC
:1057C000C2533255A255125682567247E24752488A
:1057D000C248324EA24E124F824F216173002030D8
:1057E000397106DE16DC1ADA1ED82AD62ED432D249
:1057F00036D03ACE3ECC42CA46C872C676C47AC2C9
:105800007EC0EFF0BFCBF250E2525253C25332553A
:10581000A255125682567247E2475248C248324E4B
:10582000A24E124F824F216173002030854712062D
:105830006394F500136606F8B7E700E0AA971376BD
:10584000F60F2380C74093575500054793870704F9
:105850003315A7008A0737E700E0BA9788C382802C
:10586000EFA25FCAB7170240D84FB7060018AA8444
:10587000558FD8CFB7760040984205452E891367DB
:10588000071098C29853C166B289558F98D3985320
:10589000C176FD16758F98D3EFE04FCA0144130A05
:1058A000A00F13051004EFE0AFD901ED631444011C
:1058B0006FA09FC8050451451374F40FEF203044C6
:1058C000CDB79307A00FE305F4FEB7170240985336
:1058D00021641367071098D39853418F98D3EFE052
:1058E0008FDEEFE04FDF373700408357078093E7C5
:1058F00017002310F780EFE00FDD1305F4FFEFE052
:10590000AFD9EFE04FDC4E86CA854D45EFF01FF270
:10591000B707002023AC976661BF5D713ED2B737F1
:10592000004022DE1384078083D7078086C696C492
:105930009AC29EC02ADC2EDA32D836D63AD442D069
:1059400046CE72CC76CA7AC87EC6858B89CFB70719
:10595000002083A7876782975E20C207C183F99BD7
:10596000C207C1835EA0EFE00FD67254B640A642D4
:10597000164386436255D2554256B2562257925725
:105980000258F248624ED24E424FB24F61617300EC
:105990002030B717024025E1D44705657D76C98ED2
:1059A000D4C7D4477D16F18ED4C7984F498F98CF6E
:1059B000B7370140014781C5056713070780922368
:1059C0008D6693860604F18E558FF1769386C630E8
:1059D000558F420741839AA3DA2F13774710DAAF26
:1059E00023980700DA2313672700DAA39A231367A3
:1059F00007049AA38280944B11657176C98E94CB6B
:105A0000944B7D16F18E94CBD84F498FD8CFB747A2
:105A100000409387078079BF0A0593878180AA9702
:105A20009C431307F0FB9AA782800A059387818025
:105A3000AA979C4301459E27828085476305F5040C
:105A40000DC18947630FF504B7170240984B1367E0
:105A5000470098CB984B6D9B98CBD84F1367470066
:105A60003DA8B7170240D447056713070780D98EB2
:105A7000D4C7D4477D761306F67FF18ED4C7944FF2
:105A8000558F98CF8280B7170240984B1367170045
:105A900098CB984B799B98CBD84F13671700D8CFEA
:105AA0008280B7170240984B1367270098CB984B1A
:105AB000759B98CBD84F13672700D5B75D7122DE51
:105AC000371400402ADC2EDA1305048085453ED2C7
:105AD00086C696C49AC29EC032D836D63AD442D030
:105AE00046CE72CC76CA7AC87EC6EFE08FE585478F
:105AF000631AF500B737002083A747FB8297F95751
:105B00002318F4807254B640A64216438643625569
:105B1000D2554256B256225792570258F248624E18
:105B2000D24E424FB24F616173002030B5670A0513
:105B30009387477DAA9798431E2393E717001EA3D8
:105B40008280B5670A059387477DAA9798431E23ED
:105B5000C207C183F99BC207C1831EA38280B567B8
:105B6000131725009387477DBA979C439A274207CE
:105B70004183619B420741839AA751473306E5025F
:105B80009623373700201307C7F6C206C18293F663
:105B9000F6C832975223D18E96A316233A23D6B74E
