:100000006F30603B1300000013000000130000007D
:100010001300000013000000130000001300000094
:100020001300000013000000130000001300000084
:08003000130000007300100032
:100038000000000000000000FE0D0000000E00009F
:10004800000000004E330000000000000000000027
:100058005033000052330000000000000000000090
:10006800DE5C00000000000000020000000000004C
:10007800583300005A3300005C330000DC530000A2
:100088006033000062330000643300006633000010
:10009800683300006A3300006C330000444A0000F3
:1000A80070330000924A0000E04A00002E4B000026
:1000B800783300007C4B00007C330000664700006A
:1000C800C64700002448000082480000863300002C
:1000D800883300008A3300008C3300008E33000020
:1000E80090330000923300007E5500005652000005
:1000F800A25200009A3300009C3300009E33000097
:10010800A0330000A2330000A4330000A63300008F
:10011800A8330000AA330000AC330000AE3300005F
:10012800B0330000B2330000B43300000000000018
:080138000000000000000000BF
:10020000130181F806C216C41AC61EC822CA26CC1B
:100210002ACE2ED032D236D43AD63ED842DA46DC76
:100220004ADECEC0D2C2D6C4DAC6DEC8E2CAE6CC46
:10023000EACEEED0F2D2F6D4FAD6FED8F3220030CF
:1002400096DA83A2C19023A02200F32510342EC099
:1002500003A14186EF60105903A3C190032103005D
:10026000824273901234D652739002309240A2426E
:100270003243C2435244E244724582551256A2565A
:100280003257C2575258E25872598649164AA64AFE
:10029000364BC64B564CE64C764D865D165EA65EDA
:1002A000365FC65F13018107730020301300000022
:1002B00013000000130000001300000013000000F2
:1002C00013000000130000001300000013000000E2
:1002D00013000000130000001300000013000000D2
:1002E00013000000130000001300000013000000C2
:1002F00013000000130000001300000013000000B2
:1003000083A24186938202E07390023403A1C190DC
:10031000024182403243C2435244E2447245825514
:100320001256A2563257C2575258E258725986494D
:10033000164AA64A364BC64B564CE64C764D865D61
:10034000165EA65E365FC65FD652A102739002307B
:10035000A2421301810782801300000013000000F5
:100360001300000013000000130000001300000041
:100370001300000013000000130000001300000031
:100380001300000013000000130000001300000021
:100390001300000013000000130000001300000011
:1003A0001300000013000000130000001300000001
:1003B00013000000130000001300000013000000F1
:1003C00013000000130000001300000013000000E1
:1003D00013000000130000001300000013000000D1
:1003E00013000000130000001300000013000000C1
:1003F00013000000130000001300000013000000B1
:10040000F322003093F272FF130380181203B3E259
:100410006200711523205500130585FA10C12115BE
:10042000232005009302000063870200711523203A
:100430000500FD12D5BF71150CC1828000000000BF
:1004400000000000000000000000000000000000AC
:10045000000000000000000000000000000000009C
:10046000000000000000000000000000000000008C
:10047000000000000000000000000000000000007C
:10048000000000000000000000000000000000006C
:10049000000000000000000000000000000000005C
:1004A000000000000000000000000000000000004C
:1004B000000000000000000000000000000000003C
:1004C000000000000000000000000000000000002C
:1004D000000000000000000000000000000000001C
:1004E0000000000000000000000000000000397162
:1004F00001436EC619A0397141536AC866CA62CCFD
:100500005ECE19A0397101535AD056D252D44ED66C
:100510004AD826DA22DC06DE3301614082824111AC
:100520004AC026C222C406C68282B24D4101024D93
:10053000924C224CB24B4101024B924A224AB249A0
:100540004101024992442244B240410182803D432C
:100550002A876373C3029377F700BDEFADE5937607
:1005600006FF3D8ABA960CC34CC30CC74CC7410763
:10057000E36BD7FE11E28280B306C3408A0697027E
:10058000000096966780A6002307B700A306B70071
:100590002306B700A305B7002305B700A304B700DF
:1005A0002304B700A303B7002303B700A302B700D7
:1005B0002302B700A301B7002301B700A300B700CF
:1005C0002300B700828093F5F50F93968500D58DB3
:1005D00093960501D58D61B7939627009702000089
:1005E00096968682E78086FA9680C1171D8F3E9682
:1005F000E374C3F8A5B7370500201305C5628280F0
:1006000037050020130585628280B707002023A8E4
:10061000A7628280EFF23FEEB70500203971938523
:100620004562014537040020EFA0A01B2320A462EF
:100630001304046219E1EF1050761C4037070020C4
:1006400003270763DC4398C3EF70D02DEF70903021
:10065000EF00A06D2313A10202D6EF0000701C4032
:10066000A302A102DC43884323AA0700EF70703184
:100670001C40C843EF70B0440840035661025C411F
:100680008C43EFA0202619C1EF103071B70700206E
:100690009387074098530840930661023AD8D8538D
:1006A000130651020C183ADA9857DC573ADC3EDE52
:1006B000EFA0A02619C1EF10506E83A6C181034997
:1006C0005102032A040036CEEF00C0689307401F92
:1006D0003EC0F24689679309C102C507C98F4EC65D
:1006E0004AC402C29308803E1308401F01470146D6
:1006F00081455285EFA0802511C5B5576304F500EB
:10070000EF10B069084003A6C1814E874C49CA86E4
:10071000EFA0402F19C1EF1050681C409C4399C3B3
:10072000EF10B0671C40B70400208969C843130A62
:10073000803EEF70102623AA0462EF703023EF6032
:1007400060572A8902D493844463938909719C4039
:1007500089CBB707EFBE37E700E0938707083CC7B0
:10076000FDBFA25503A5C195B3D54503EF50D057A2
:10077000EF70501E4ED4EF60E05333062541330630
:100780004603AA8A0840341081455689EFA02036D6
:1007900088C003A50196814601468145EF50B01BF4
:1007A000EF70D01C6DB7EFF2FFD54111EF70901ACA
:1007B000EF60405089692A8402C6130A803E9389FB
:1007C0000971370B0020EF70701AB24503A501962E
:1007D00013090B62B3D54503A284EF50F050EF70BC
:1007E0007017832709004EC695CFDC43DC4B9DCBA9
:1007F000EF60404CAA84032509001C4185E75C4159
:10080000DC4B8DC33384844033044403740081453E
:100810002286EFA0A03503250900740022868145B9
:10082000EFA0C038268445B737050020130585633F
:100830008280EFF2DFCE3704002013048463084087
:100840004111EF50F06B11CD08407D566C00EF5018
:10085000503328871086938501978946AA95EF30F3
:10086000B0094101F9B9938701973E9593D7850067
:100870000CA11CB193D70501E1813CA12CB1828070
:10088000938701973E950CA1A1810CB1828093873B
:1008900001973E950CA18280EFF27FC8AE869385CA
:1008A00001970946AA95EF30300561B99387019702
:1008B000AA97983388232207598D828093870197BE
:1008C000AA979833A82322074205498F8823498F86
:1008D000A8336205598D8280EFF2DFC20111130641
:1008E00060228145138501979D31894613060021B9
:1008F000938501970145EF3050096319052E138444
:1009000001971820930740046300F72C9387C18355
:100910009843DE23B706000318C03707000113060B
:1009200007105EA0930740027CB410D4B7070005FF
:1009300030CC70D0374605011CC813065660B70787
:100940000024938506105CC830D893070050378682
:1009500005001CCC4CD493070010B7050078130693
:100960000680296558CC1CD058D01CD878C87CCCBF
:1009700038D03CD470D834DC232A04029386062075
:10098000232C0402232E0402232004042322040423
:10099000232404046CC428C86CD474DC2316F40A21
:1009A000231CF40AE147A301F40CB7070015B706AE
:1009B000001A89072328D4082322F40CB7F6030170
:1009C000B70712039386468093871750232AD408CB
:1009D0002324F40CB7260400B7170504938606A059
:1009E00093870730232CD4082326F40CB706000283
:1009F000856713060020232ED4082324E40A938657
:100A00000620054793873740B5692320C408232271
:100A1000040823240408232604082320D40A2322BC
:100A2000C40A2307040AA30BE40A230D040A2318AB
:100A3000F40C938949EC9304200D130A400E83D5DE
:100A4000090026858904C204C1801D3D8909E398F7
:100A500044FFDD47856529457CA43135B7970112F0
:100A6000C9072322F40E930700192314F40EB56965
:100A700091472305F40E9389C9E69304D00E130B16
:100A8000501383DA090026859109D685D53B03DA10
:100A9000E9FF138524004205D2854181D5331385B2
:100AA00004054205D6854181E13B13852405910467
:100AB0004205C204D2854181C180D933E39364FDEC
:100AC00081451305D0186D3B81451305F0184D3B4A
:100AD000D145130510196D33E545130530194D3314
:100AE000E54513055019693B93052003130570195B
:100AF000413BF945130590196133930570081305BF
:100B0000B019BD3B93078002A30EF41CB705003E4D
:100B10008567938707A0D5051305501E231FF41C76
:100B20002300041E8933B7050076ED051305901EDA
:100B30001D3BB7053F78CD051305D01E2D33B705F6
:100B40000071D1051305101F393BB7057978C90528
:100B50001305501F093BB7057350D9051305101E27
:100B60001933B705006DDD051305901FED39B70585
:100B7000003FE9051305D01FFD31F1451305102095
:100B8000DD31814513055020F9399D478946A3047D
:100B9000F4201306002195479385019701452315FD
:100BA000F420EF306055130600218145138501972D
:100BB000793A2945EF60E03C894613060021938588
:100BC00001970145EF30605C138A418381490D4BE9
:100BD000834A440E4E85FD1A93F5FA0FEF30E00A72
:100BE00059C185090D04090AE39469FFB70700207C
:100BF000239E0762056189B203550A001316090195
:100C0000418293142600AA94C204C180268532C66C
:100C1000713942054185EFA0505D2AC81385240033
:100C2000420541816131EFA0B0682ACA13854400B2
:100C300042054181A53942054185EFA0105B2ACCD0
:100C400013856400420541819531EFA070663246FC
:100C50002ACE0C084E850509EF30400E1379F90FA6
:100C6000E34C59F9BDBF0149E5BF938701973E9514
:100C700008218280EFF2BF8A41112A842800B284C1
:100C8000EFA030788947638FF40291476380F404C2
:100C900085476397F400188493870197A29798A3D8
:100CA0009307F02063ED8700B707002003A5876353
:100CB00081467D566C0060874486EF50C0494101F3
:100CC0006FF03F882C842285653ED9BFA2452285DE
:100CD000593EF9B7EFF2BF8441112A846800B2840B
:100CE000EFA030728947638AF4029147638BF40264
:100CF00085476397F400188693870197A29798A376
:100D00009307F02063E88700894626866C002285D9
:100D1000EF30803E41016FF0DF822C8622858D36D8
:100D2000C5B7B24522858136E1BFEFF24FFF894555
:100D30000545EF30C04821479307401F6369A7006E
:100D4000931715003565130545EB3E951E213E852D
:100D50006FF02FFF13050010828003C5419782803A
:100D6000EFF2EFFB370400201304C4631E201307C7
:100D700070168507C207C1831EA0637AF700194564
:100D8000353E930515001945F93C2310040029450B
:100D90003536AA8403C5E1978145D928EFA0F044F0
:100DA000B7D7000083A587EDEFA0E01AB7D7000002
:100DB00083A5C7EDEFA0201A2A842685EFA0504F07
:100DC000AA852285EF909062EFA0D03CAA852945A4
:100DD000593C6FF00FF7EFF28FF42146938561973E
:100DE0001945EF3060296FF0CFF5EFF24FF3294549
:100DF000F134930740063355F5026FF08FF401A0EC
:100E000001A0EFF2CFF101112E84AA85194542C647
:100E10003EC83ACA36CC32CEEF10A03FA285154567
:100E2000EF10203F72461145B285EF10803EE2463A
:100E30000D45B685EF10E03D52470945BA85EF10E4
:100E4000403DC2470545BE85EF10A03C32480145F4
:100E5000C285EF10003C05616FF0AFEE3705002052
:100E60001305C5648280B707002023A0A764828091
:100E7000EFF2EFEA9307F5FF7147636FF7103567FD
:100E80008A07130707EEBA979C432E8982871305BA
:100E9000152142054181D13B2A8422856FF06FEAFA
:100EA0001305152142054181EFF05FA0F5B7391513
:100EB0009374F50F2685EF005077AA852685EF20DD
:100EC0009052B7D7000083A587EDEFA00045EFA0B3
:100ED00050262A84E30309FC0D453385A40213053B
:100EE000550EEFF0BF9C2A944DBF0D45EF00F073F7
:100EF000B7D7000083A587EDEFA02042EFA07023B5
:100F000061BF0145EF20D07EAA841305D01DEFF00C
:100F1000FF99EFA0F039B7D7000083A587FAEFA0BB
:100F200080032A842685EFA0502CAA852285EFA075
:100F3000C03EEFA03026EFA0B0375DBF0545EF20E3
:100F4000307BAA841305F01DD9B70945EF20D06A7C
:100F5000A1B7613D91B71945EFF05F9635BFB7076F
:100F6000002003A4076415BF1305C020EFF01F95F0
:100F700013548540930740061374F40F3304F402AE
:100F80009377F50F41851375F50F3E948967938725
:100F900007713305F50281BF014401B7138781BB97
:100FA00083468702938781BB1396260032971043AE
:100FB0007147631EE60203C7970315CBC85B05C9DB
:100FC00003C7170309C7A38C0702A388070203C737
:100FD000970393080002054805071377F70F9375E9
:100FE000F70F63F5B802A38C0702A38807021387E3
:100FF000160083C687031377F70F2384E702636421
:10100000D7002384070223A6070282803316E80054
:10101000698E050769D6A38CB7028280938781BB4E
:1010200003C7970223A607022384E7028280EFF218
:101030000FCF938581BB83C78502054693859502B3
:101040009CA11305902079316FF0AFCF03C501BE8D
:101050008280A94763E6A7002380A1BE0145828064
:1010600005458280A94763E1A702EFF24FCB938544
:1010700081BBA384A50205469385950213059020A4
:10108000D53E01456FF0EFCB05458280938781BB4C
:1010900083C6870203C797026385E60203C7170367
:1010A0000DE3D8573A95C8D783C7A7021307803EE8
:1010B000B387E7026367F500EFF26FC685376FF01D
:1010C0004FC8828001C9F147630AF500A147014575
:1010D00063F5B7002388B1BE054582802384B1BE85
:1010E00001458280EFF20FC2138581B9EF60F06095
:1010F00013059020938481BB8D3EA384A402130525
:10110000A020EFF09FB683C794022385A402238C0E
:1011100004022384F402138981BB8144138481BBBC
:10112000054AA949139524001305151E420541815E
:10113000EFF0CFF82320A90093F5F40F1375F50F06
:1011400051376306450185041109E39D34FD232AC7
:101150000402A30C0402232E0402230004046FF0F3
:10116000AFBD138781BB5C5FA9C3834707049306A8
:101170008002850793F7F70F2300F70463F5F60065
:1011800023000704828055476371F702EFF22FB9FD
:1011900001449D442285050481451374F40FEF102A
:1011A0004007E31994FE6FF0CFB98280138781BBAB
:1011B000585B938781BB6309A70483C60703A9C64D
:1011C0001347F7FF698FC8DBA38C0702014601456F
:1011D000854813080002B395C800F98D9376F60F81
:1011E00081C919C1A38CD7020547A388E702828071
:1011F0008506050693F6F60F0545E31E06FDA38C4E
:10120000D7027DF3A38807028280138781BB8346C0
:1012100017030547938781BB6396E60003C707035F
:101220002384E70203C787020A07BA9788438280AC
:10123000EFF2EFAE41112A8432C42EC6EFF00FE771
:10124000B2458AA11305240042054181EFF00FE663
:1012500022460AA241016FF0CFAEEFF24FAC41112E
:101260002E841306E1006C00E1373887014505C381
:101270003C86014589CF63E9E700636AE400B3B7C0
:10128000870013C5170021A00545E36AE4FE41016C
:101290006FF02FABEFF2AFA82A848DE101468945AC
:1012A000EF00507201468D452285EF00B071014676
:1012B00085452285EF0010716FF0AFA8B144B304EB
:1012C0009402AE873E858545EFF09FBA131905015C
:1012D00013590901CA851385B40141372A86894506
:1012E0002285EF00306ECA851385F401BD372A864A
:1012F00085452285EF00106DCA8513853402B13F04
:101300002A868D457DB7EFF20F9F4111AA8AAE84E0
:101310003D456C00B2891306E10036893A8C3E8B5C
:10132000428DC68C0354410421372886835BE1003B
:1013300033057541EFA0606BB7D7000083A5C7FAEE
:10134000EF90B07D2A8A636E340333857941EFA034
:10135000C069D285EF903040EFA0C0632300AD009C
:1013600033053441637489003305394142054181B5
:10137000EFA00074D285EF90103EEFA0A061238013
:10138000AC00636D540333857A41EFA00066D285CB
:10139000EF90703CEFA000602300AC0063E3840298
:1013A00033045441131504014181EFA06070D285CC
:1013B000EF90703AEFA0005E2300AB0041016FF0A8
:1013C0000F9733845441F9BF03480100388263F614
:1013D000A5026374A70063E6E6006379B700637F44
:1013E000E602238008012380070182806364D7001E
:1013F000E37BE6FE2380080182806377E600E362F8
:10140000B7FEE379D7FE19A06375D700E36BE5FC5F
:10141000D5B7E371B7FEE368E5FCE9BFE36CD7FC41
:10142000D9B7EFF2CF8F79712A892E84B2846C10EC
:101430001306E1023D4536CE3ACC3ECA42C846C606
:10144000C53BF246B2484248D247624763F486023F
:1014500063EB260163E9280163E916012300070114
:101460002380070129A0E3FD16FF23000701456142
:101470006FF02F8D6367940063E59800E36214FFBB
:10148000F1BFE37414FFE9BFEFF26F89EF503071E1
:10149000B707002023A8A764B707002003A5C764E7
:1014A00001478D4611468145EF6040306FF06F89EE
:1014B000EFF26F8439717D5774181306F00F814570
:1014C0000145EF608020F257918BF5D7EFF09FC177
:1014D000938781BA23A0070023A207002394070063
:1014E00023A60700B707002003A507650147894623
:1014F00001468145EF60802BB7D7000083ABC7FA68
:101500008149138481BA370B0020138981BB138A68
:101510004184938A81842945EF50B026856537152B
:10152000014093850580130505C0EF30F0030547A2
:101530006310E50C5C4091C708C02322040023140B
:101540000400930C4B6403A50C004444130C4B643F
:1015500063160524854789E483471903B337F000F0
:101560002945232EF902EFF07FB21C400547639511
:10157000E700E9E4EFF09FA2B707002003AC07649F
:101580006285EFF0BFC25131AA84F1471375F50FA0
:10159000631CF51E63060C0C8326490383479903DD
:1015A00001468545130500023397F500758F45C345
:1015B00019C2A30CF90283479903294635678507A9
:1015C00093F7F70FB3F6C7021307C700930500059B
:1015D00013059007B3D7C702BA9603C806001306CF
:1015E00000058146BA979C230147EFF09F81DDA259
:1015F0001E2454408507C207C1831EA485E291467C
:10160000E3F1F6F458C013077025637CF7008D47AB
:101610005CC485471CC089475CC025B7E393E6F2EC
:10162000DDB71307F0186375F70089475CC411BF75
:101630001307700CE377F7F08547CDBF0D4763952F
:10164000E4002320FC000DBFEFF07F9E35B7850737
:1016500093F7F70F6373F50081470546B1F691BF25
:10166000EFF0DF93EFF0FFAF184085476316F70008
:101670002320040023260400850993F9F90FCD47A0
:10168000E3FB37E98144B9491385340C42054181B4
:10169000EFF0AFDDAA8513F5F40F8504EFF09FBFDF
:1016A000E39434FF1305100DEFF02FDC2306010245
:1016B000A306010223070102A307010249C58545CC
:1016C000EFF00FFB131C05011306A1032C182A8D44
:1016D0003D45EFF0FFB55018930561034D45EFF020
:1016E0003FB51018930521035D45EFF07FB4835794
:1016F000A10303558103135C0C011D8DEFA0E02EA7
:10170000DE85EF909041AA8C1545EFF00FD6035679
:1017100041038354010383592103835661036315F5
:10172000052A63E4990063F0C60262C266C09308AA
:10173000D1021308C1029307F1021307E102CE851B
:101740002685EFF05FBC8346D1020346C102834584
:10175000F1020345E102EF00F02113050021EFF053
:10176000EF949377F50F014591CB1385F7FF137530
:10177000F50F130595060605EFF04F93EF00504760
:101780008149EF00904F41BB8145EFF06FEEAA8594
:10179000054613D50401EF00B033E9B5054D6310DC
:1017A000A50D93B71400232EF9021C40370C00201E
:1017B000130C8C646398A70083470C0085E08507B1
:1017C0002300FC0003450C00A14763FEA7048547E6
:1017D0002300FC000145EF00902D69B51947638790
:1017E000E702636DF700F9DFFD1735678A07130716
:1017F00047F5BA979C4323A0FC00E9B72147E39340
:10180000E7FCEFF0BF8123A00C006DBF89451305F5
:10181000D01DEFF06F8889451305F01DEFF0CF87DD
:1018200023000C0045B79D47631CF50081457545B5
:10183000EFF00FE4AA8501461565EF00702959BF46
:10184000B307F5023565130585F63E950348650037
:101850005C315821343130210C31082179B3938720
:10186000F4FF93B71700232EF902994763FCA702F0
:1018700065151375F50F131715009387C184BA9773
:101880008623EF00805AEFA0C00AA945B305B50230
:1018900005462685EF00D0231C40E38507DC23A006
:1018A000AC01C9B3B70C002003C79C641C40938CE7
:1018B0009C64631CA705E38707DA2320EC002380E0
:1018C0000C008D476394F40483260C008547238025
:1018D000FC00F51693B7260093C71700139717005F
:1018E00093874185BA9786238547014563F3D700DF
:1018F00009451305D51D42054181EFE03FFBAA854F
:1019000001462685EF00D01C11A0C5FF83C70C003F
:10191000E39A07D483240C0093F71400B9CFF5148D
:101920003335900093141500B3879A0083DC0700C9
:1019300081455905EFF0CFD3AA8505466685EF00AE
:1019400030191C40E38007D25C4405476398E700E8
:1019500083270C0085072320FC0029B3E39407D0DC
:101960009384D41D2685EFE07FF493051500C2050E
:10197000C1812685EFE0DFF0F5B1F114B3349000BA
:1019800093971400D29783DC070081451385640187
:10199000EFF00FCEAA8505466685EF0070131C4058
:1019A000E38207CC5C4405476396E70083270C007D
:1019B000FD1755B7E39807CA9384D41D2685EFE039
:1019C000FFEE9305F5FF65B713150D01418136CE86
:1019D00032CCEFA08001E685EF90E057EF90907B4E
:1019E0001378F50F6246F24663E4990063F1C6028C
:1019F00042C062C29308D1021308C1029307F102E8
:101A00001307E102CE852685EFF01F9C2DBBE288EF
:101A10009307D1021307F102CE852685EFF07FA050
:101A20001DB3EFE2DFAF37150000154685451305FE
:101A300005D6EF30100F8965371501403714014086
:101A4000EF30A02C8564938504C2130504C0EF30E9
:101A5000C02B37061800914613060610A145130542
:101A600004C0EF30802C9146014693850480130515
:101A70000480EF30802B9305F00413050480EF30D1
:101A8000C026E14601469305000A13050480EF30A5
:101A9000C029A965E14601468D05130504C0EF3054
:101AA000C028C14513050480EF302022938504012E
:101AB000130504C0EF306021E14637461D00930551
:101AC0000020130504C0EF304026930680043746FB
:101AD0001D0093050010130504C0EF300025F146EA
:101AE00001469305000C130504C0EF300024B745F0
:101AF0000F00B1461306803E938505240945EF305B
:101B0000B03E0945EF30B02E81450145EF00900F02
:101B100081450545EF00100F930404C093050002B2
:101B20002685EF3060247DD9EF208008854501456A
:101B3000EF30501285450545EF30D011B726000033
:101B4000B7450F008D470547938686491306400623
:101B5000938505240D45EF30F0310D45EF303029E8
:101B6000EF30B06137550040054685451305054007
:101B7000EF308059C145130504C0EF30801F376531
:101B8000004013050540EFE05FA86FE09F9BEFE288
:101B90001F9981450145EF00F00681450545EF009D
:101BA00070060D45EF3010260545EF3050240145F5
:101BB000EF30F0236FE0FF9837F700E0832707D17D
:101BC000B7060080D58F2328F7D08280EFE23F95BB
:101BD00037250140814513050540EF10F006370514
:101BE000002003250566B707002013848766014798
:101BF000938787668D460546894523200400EF506C
:101C000070551C4091C7B7E700E0116723A0E7209B
:101C10006FE03F93EFE2BF900D45EF207051BD455F
:101C20000D45EF20105E0145EF20A0230D45EF206C
:101C3000B04E6FE01F91EFE29F8E1945EF20504F9D
:101C4000BD451945EF20F05B0545EF208021194582
:101C5000EF20904C6FE0FF8EEFE27F8C89476308A6
:101C6000F5008D476300F50201456FE09F8D9305F8
:101C7000004037150140130505C0EF30E00E137525
:101C8000F50FE5B793050002EDB7EFE25F8991E943
:101C900037150140C145130505C0EF30800D6FE0D9
:101CA0005F8A37150140C145130505C0EF30A00C10
:101CB000FDB737050020130505668280EFE23F86F9
:101CC000EF50E06DB707002023A2A766B7070020FA
:101CD00003A5076601478D4611468145EF50102D3B
:101CE0006FE03F86EFE2BF8303A7018793870187F9
:101CF000DC2341113000954501453AC45C86EF2054
:101D0000E054EF20E009B7280000B72601402A87F9
:101D10009388C8BC0D4885479386C64405468145CF
:101D20000145EF20904241016FE0BF81EFE22FFCBF
:101D30004111EF20E0062A841309E501AA840395E6
:101D400004008904EF204049239FA4FEE39924FF67
:101D5000B7D70000B7D9000037DA000083AB87FBA4
:101D6000B7D70000832A0AFB03AB49FB03ACC7FBD0
:101D70009384C1BF01493E244A288D4DA6853E95D6
:101D80001E20137DF90F3E953355B503938C81C00A
:101D900042054181EF60C0106307BD0791476309A9
:101DA000FD04EF90F05083250AFB131D2900669D6A
:101DB000EF90A05683A549FBEF902056DE852AC6FA
:101DC000EF90A055B247AA8D03A50C01BE85EF90F8
:101DD000C07DAA856E85EF9000182320AD0005090F
:101DE000954709048904E318F9F841016FE0EFF31E
:101DF000EF90104CD685EF904052DA85EF90E0518D
:101E000023A8AC00E9BFEF90B04AE285EF90E05024
:101E100083A549FBEF906050B7D7000083A507FC6E
:101E2000EF80D05C23A6AC005DBF0A05938781C01C
:101E3000AA9788438280EFE28FEB83A7C1817971F3
:101E40008149D84381479306471491C60327C71495
:101E500019C39307C700370A0020232EFA64B7D7A7
:101E6000000003AB47FCB7D7000083AB87FCB7D7B4
:101E7000000003ACC7FC81440544130ACA65B72CB3
:101E80000000628D054909479147630E2403630BE7
:101E900004166305E418E31AF4FEEFF05FCFEF10C9
:101EA0006036EFE05FF32945EF50A00D3715014094
:101EB000C145130505C0EF20106C0544EFF0DFCFDE
:101EC000D1B71144C1B77D5734001306F00F8145D7
:101ED0000145EF50807FA247918BCDD7EFF09FE077
:101EE000A9474C083ED23ED00D4593878CC53ED6BF
:101EF00022CCEF10306D1305B020EFE01FD77D1519
:101F0000133515002ACC4C080945EF10B06BB727E4
:101F100000009387A7C86C0001453EC822CCEF1093
:101F2000D0681384C1C41385C1C4EF50107D13055C
:101F30000401EF50907C1384C1C1DA851385C1C1BF
:101F4000EF50107913058400DA85EF507078138410
:101F5000C1C2DE851385C1C2EF50B07913050401FB
:101F6000DE85EF50107981450145EF10306A8545D7
:101F70000545EF10B0693D64130604A6A14693051C
:101F8000007D0145EF30F003130604A68946930552
:101F9000007D0545EF30F0020145EF101074B728C1
:101FA0000000B73601402A87938848C10D4885470D
:101FB000938606C4054681450D45EF201019054559
:101FC000EF10B071B7280000B70600402A87938849
:101FD00068C30D48854793868603054681451945A4
:101FE000EF20B016BD451945EF203024BD450D4505
:101FF000EF20B0230145EF30805F0545EF30205FD3
:10200000014449B5B707002003A547660147894643
:1020100001468145EF5080790944ADB5BD45014584
:10202000EF204033EFE0FF800545EF40907501471A
:1020300034001306F00F81450945EF50006905890A
:10204000E30205E4EFF09FCEEF10F078638A2409F5
:10205000ADC8E39984E23709002013094965C94AEC
:10206000D94D85455685EFE0BFE08357090042050D
:1020700041816385A7002310A9008549850A0909C4
:10208000E391BAFF03A541C1EA85EF90E017E35A57
:10209000A0E20D45EF105056E30505E24C0801455E
:1020A000EF10506C89476313F50085494C080545CE
:1020B000EF10506B8947630AF5046398090481495E
:1020C000D1B30D45EF105053E30E05DA03A541C11E
:1020D000E285EF9060131345F5FF9354F5015DB36E
:1020E0000945EFE09FB8AA850145292E0D45EFE08F
:1020F000DFB7AA850545392637150140C1451305C7
:1021000005C0EF2010478944B5BB83270A00C5DB13
:102110009823759B98A365B7EFE26FC00945EF2040
:1021200030010145EF30603B05440145EF30003C94
:10213000E30D85FE37150140C14513050580EF20ED
:1021400050436FE00FC0EFE28FBD1145EF20407E9E
:102150000545EF3080380545EF3040398547E30CC1
:10216000F5FE371501408565130505C0EF20704069
:102170006FE02FBD854706063396C70006058947E1
:102180003395A700014781476312B70213950701F2
:102190004181C183814501476390D502598D4183B7
:1021A0009386C1C6D98FEAA29EA682800507C98FF1
:1021B0001377F70F0A05C9BF8505518F93F5F50F02
:1021C0000A06D9BF3567130787012A971423B56715
:1021D00093878702139716009386C1C6BA96138712
:1021E0008185BA95AA979C2303C7F5FF039806003B
:1021F0003317F700931707010547C1876316E600F9
:10220000B367F8009EA2828093C7F7FFB377F80008
:10221000D5BF994763ECA708B567938707FD0A0503
:102220003E951841B70700209387C76602879A2317
:1022300093D65500AE05719B558F9AA3BA23137799
:10224000F77F4D8FBAA38280BA238E05137737C0EC
:10225000CDBFBA2393D64500B205619B558FBAA373
:10226000DA23520751834D8FDAA38280DA23FD7679
:10227000FD06758F9605C5BFDA2393D62500FD8A26
:10228000019B558FDAA3FA23BA054A0749834D8F7C
:10229000FAA38280FA23F1769386F607758F9E055E
:1022A000FDB7FA23137707F8D98DEEA3828037079D
:1022B00000209307C766BE231307C76609C593E7C7
:1022C00007403EA3828093F7F7BFC207C183D5BF03
:1022D000EFE26FA241112A89AE84014B63D505005C
:1022E000B304B040054BB7470F009387F7233787F8
:1022F0001E00A6971307E7476365F704E167938716
:10230000F76937170300A6971307E7D3636FF70A38
:1023100089679387F7701567A6971307E7E16369E5
:10232000F70A9387743E1307E07C6366F70A938786
:1023300034061307600C89498D4A6366F700894AA1
:1023400019A081499D4AB56B014A938BCB00294C5A
:10235000B3E78403528513041A0032C61374F40FD2
:10236000DE978C23EFF0FFEA3246B3C48403639711
:102370008A063285EFF0BFF3630B0B0022859305CD
:10238000000413042A00EFF0DFE81374F40F9944FB
:1023900063F8840489476397F902B707002093879D
:1023A000C766EA237177798D135789001377F7078A
:1023B000598D11671E09130707F83379E900336552
:1023C0002501EAA341016FE08F968549994AA5BF8F
:1023D0008949954A8DBF8949914AB5B7228A8DBFEF
:1023E000228581450504EFF0DFE21374F40F4DB749
:1023F000370700201307C7661E230A058D8BC98F78
:102400001EA38280EFE2AF912E87A14511E1914595
:10241000B56706079387C7FEBA9792230945EF3041
:10242000C04A0945EF30E0526FE0AF91EFE22F8FE5
:10243000B728000037070020B7460040938868148B
:10244000094885471307C7669386C68005468545B4
:102450001145EF20804FB7280000B7360140938820
:10246000881109488547138781C7B1060546854508
:102470000945EF20804D6FE0CF8CEFE24F8A371592
:1024800001408565130505C0EF20F00E914511450B
:10249000EF20A0596FE0EF8AEFE26F88294693851D
:1024A000C1C6138581C7EF90C075B707002003D759
:1024B00047679306700C9387476705074207418378
:1024C00063E9E6089AA38A239307700C63F6A708CA
:1024D000938781C796276D771307A7AA758F9443B3
:1024E0003776F6DB130666DBF18E94C3D44337767A
:1024F000AAAA130666DBF18ED4C39AA7938781C775
:1025000083D8870095669043138856553378180111
:102510003717C927B768EDB79388D8B6130797243C
:10252000718F3376160190C3D043B76855559388A1
:10253000D8B633761601CE2323940701D0C31306F1
:102540005009637FA60093869624ED8E98C3D6A388
:1025500001A82390070085BF9307F004E3E0A7FAE2
:1025600037150140C14513050580EF20D000954582
:102570000945EF20804B6FD0DFFCEFD25FFAEF0010
:102580007033EF50901FEFF0CFC9EF007059EF009C
:102590003049EF40606801A082809967739007809E
:1025A00001A0EFD2DFF79C2141116147DC87636016
:1025B000F70285479CC2482905469305F10013059B
:1025C000250CEFE02FEB014541016FD09FF741450E
:1025D000E5BFEFD2DFF485479CC2C829411132C65E
:1025E0001305250CEFE06FE8324608A201454101D2
:1025F0006FD03FF5EFD2BFF285479CC248292E84A9
:1026000081456105EFE0DF8608A001456FD07FF3CB
:10261000EFD2FFF005469C2190C258294111DC877A
:10262000630DC70089466304D70205469305F10090
:102630001305A020EFE00FE429A03E85EFE07FA185
:1026400019E1014511A0414541016FD09FEF3E8541
:10265000EFE05FA1F5B7EFD2FFEA9C2123A00600CF
:1026600040294111DC870549B684630C240331C439
:102670000D4763648704AA893D456361F50285457A
:102680001305E4FFEFF01FD803C549010546930584
:10269000F100EFE02FDE23A02401014541016FD0BE
:1026A000BFE91D473D45E36BF7FE05469305F10085
:1026B0000545EFE02FDC80C0CDB705443D45E36F15
:1026C000F4FC05469305F1001305B020DDB71C218D
:1026D00041115C871C31DC87288741018280EFD261
:1026E0001FE401112A842E8536C6EFF05FFEB24644
:1026F0008947E8879CC25C280547639BE700AA8559
:1027000013050021EFE0CF97014505616FD07FE30E
:102710001385770609469305E1010605EFE08FD59D
:10272000E5B7EFD2DFDF01112A842E8536C6EFF040
:102730001FFAB2468947E8879CC248289305E10101
:10274000094606054505EFE0EFD2014505616FD06A
:102750005FDFEFD2DFDC01112A842E8536C6EFF071
:102760001FF7B24689471375F50F9CC2E8874828C2
:102770009305E101094606051305B51DEFE08FCF6E
:10278000014505616FD0FFDBEFD27FD94111AA85EA
:1027900011466800EF90E046324541016FD07FDA84
:1027A000EFD2FFD701112A842E8536C6EFF0DFFD68
:1027B000B24691472ACE9CC248286C0811461305A0
:1027C00085070A05EFE00FCB014505616FD07FD784
:1027D000EFD2FFD4AA84DC283D472E853684636D72
:1027E000F70085478C219CC2C82813051521EFE00E
:1027F0000F8A01456FD0FFD44547636FF700EFF0B4
:102800001FED89471CC0DC28AA859387F710139514
:102810001700EFE0EF86F1BFEFF01FF791471CC004
:10282000EFE06FE4F9B7EFD29FCF91479CC25C29EC
:102830000D474111639FE7002E85EFF0FFF44886B6
:1028400005466C003945EFE0EFC2014541016FD00C
:102850005FCF1145E39CA7FE2E85EFF0FFF22AC65D
:1028600011466C001305C020F9BFEFD25FCB0111F8
:102870002A8432852EC636C4EFF07FE5A246B245E3
:1028800089479CC2E887882109469305E1017D15A7
:102890000605229542054181EFE0CFBD0145056166
:1028A0006FD03FCAEFD2BFC72E86930545016D4555
:1028B000EFF0BFFB6FD0FFC8EFD27FC62E86930527
:1028C000450113057002EFF05FFA6FD09FC7EFD29A
:1028D0001FC52E869305450113053003EFF0FFF861
:1028E0006FD03FC6EFD2BFC32E86930545011305B7
:1028F000F003EFF09FF76FD0DFC4EFD25FC22E86F8
:10290000930545011305B004EFF03FF66FD07FC388
:10291000EFD2FFC02E869305450113057005EFF039
:10292000DFF46FD01FC2EFD29FBF2E869305450103
:1029300013053006EFF07FF36FD0BFC0EFD23FBE7C
:102940002E86930545011305F006EFF01FF26FD0B8
:102950005FBFEFD2DFBC2E86930545011305B0079C
:10296000EFF0BFF06FD0FFBDEFD27FBB2E86930597
:10297000450113057008EFF05FEF6FD09FBCEFD2F9
:102980001FBA2E869305450113053009EFF0FFEDC0
:102990006FD03FBBEFD2BFB82E869305450113051C
:1029A000F009EFF09FEC6FD0DFB9EFD25FB72E8662
:1029B000930545011305B00AEFF03FEB6FD07FB8E8
:1029C000EFD2FFB585479CC2482991472E84631AF0
:1029D000F5001305B020EFE04FA908A001456FD026
:1029E0005FB63305A04042054181F5B7EFD23FB352
:1029F0001C21054741112E846391E7020D453306E2
:102A0000A6029CC21305460E42054181EFE0EFA5E8
:102A100008A0014541016FD0DFB209476391E70289
:102A20000D453306A6029CC21305560E4205418190
:102A3000EFD0DFE79357850008A01CB0D9BF9147BE
:102A40009CC20821B7070040F5173E95D1473306D1
:102A5000F60232950A051305D50E42054181EFD0E5
:102A6000FFE52AC611466C002285EF90801955B704
:102A7000EFD2FFAA01465105EFF05FF76FD07FACB0
:102A8000EFD2FFA905465105EFF05FF66FD07FAB9F
:102A9000EFD2FFA809465105EFF05FF56FD07FAA8E
:102AA000EFD2FFA7054798C25C292E84638CE7000C
:102AB0000947130590206384E7001305A020EFE089
:102AC000CF9A19A0EFE08FD808A001456FD07FA75B
:102AD000EFD25FA30349050085474111AE843284DC
:102AE000368A631CF9028C213285EF10001ABD472B
:102AF0000DE10D453305A4029C20054623202A0143
:102B00005C841305450E42052C004181EFE08F9651
:102B100081473E8541016FD03FA28947631FF9007D
:102B20002E85EFF0DFBA68840D453305A40223201B
:102B30002A0109461305550EF9B7AA892E85EFF02B
:102B4000BFC491472320FA002AC203C50900B70772
:102B50000040F5173E95D147B307F40211464C00EB
:102B60003E950A051305D50E42054181EFE08F9091
:102B70009244139504014181EF8090732AC613D5C6
:102B80000401EF80F072B7D7000083A587EDEF80D6
:102B9000803C03C609002AC42C007D1642064182EF
:102BA0002285EF10A01981472DD5BD479DB7EFD2E3
:102BB0001F9701465105EFF0BFF16FD09F98EFD2FC
:102BC0001F9605465105EFF0BFF06FD09F97EFD2EB
:102BD0001F9509465105EFF0BFEF6FD09F96EFD2DA
:102BE0001F94894701111CC22EC6EFD03FCCB245BD
:102BF0009357850088A19CB1014505616FD07F94F2
:102C0000EFD2FF9136866D45EFF07FFD6FD07F9359
:102C1000EFD2FF90368613057002EFF05FFC6FD0A5
:102C20005F92EFD2DF8F368613053003EFF03FFB64
:102C30006FD03F91EFD2BF8E36861305F003EFF0D1
:102C40001FFA6FD01F90EFD29F8D36861305B00408
:102C5000EFF0FFF86FD0FF8EEFD27F8C3686130532
:102C60007005EFF0DFF76FD0DF8DEFD25F8B368628
:102C700013053006EFF0BFF66FD0BF8CEFD23F8A5E
:102C800036861305F006EFF09FF56FD09F8BEFD2DD
:102C90001F8936861305B007EFF07FF46FD07F8A67
:102CA000EFD2FF87368613057008EFF05FF36FD021
:102CB0005F89EFD2DF86368613053009EFF03FF2E9
:102CC0006FD03F88EFD2BF8536861305F009EFF04D
:102CD0001FF16FD01F87EFD29F8436861305B00A8D
:102CE000EFF0FFEF6FD0FF85EFD27F8389479CC263
:102CF00048292E84411185454505EFE06F9793578C
:102D0000850008A01CB0014541016FD09F83EFD220
:102D10001F8191479CC2482941112E8413058507C4
:102D20000A05EFD0BFB92AC66C0011462285EF8094
:102D3000506D014541016FD0DF80EFD24FFE8947D2
:102D40009CC2482901112EC606051305B51DEFD0FA
:102D5000FFB5B2459357850088A19CB10145056137
:102D60006FD02FFEEFD2AFFB89479CC248290111DB
:102D70002EC606054505EFD07FB3B24593578500B3
:102D800088A19CB1014505616FD0AFFBEFD22FF94F
:102D900091479CC25C29094741112E846386E70252
:102DA0000D476387E70205471305C020639FE700CF
:102DB000EFE0AF832AC66C0011462285EF80706475
:102DC000014541016FD0EFF71945EFD03FAFDDB7B7
:102DD0003945EFD09FE9F9BFEFD26FF489479CC224
:102DE0004829854741112E84631EF50013050021F3
:102DF000EFD0DFAB9357850008A01CB0014541011F
:102E00006FD02FF4130575060605DDB783A7C181C2
:102E1000DC431387C71271EB35671307870923A0BB
:102E2000E7141387471471EB35671307870A23AC40
:102E3000E7141387C71571EB35671307871A23A8A3
:102E4000E7161387471771EB35671307871223A41B
:102E5000E7181387C71871EB35671307871423A08A
:102E6000E71A1387471A71EB35671307871623ACE8
:102E7000E71A1387C71B71EB35671307871823A859
:102E8000E71C1387471D71EB35671307870D23A4D4
:102E9000E71E1387C71E71EB35671307870F23A043
:102EA000E7201387472071EB35671307870723A2B5
:102EB000E7221387872271EB35671307870C23AE50
:102EC000E7221387072471EB35671307870323AACB
:102ED000E7241387872571EB35671307870523A63A
:102EE000E7261387072771EB828035671307871D55
:102EF00023AAE7121387871305F33567130787069D
:102F000023A6E7141387071505F335671307871CF6
:102F100023A2E7161387871605F335671307871172
:102F200023AEE7161387071805F3356713078713D2
:102F300023AAE7181387871905F335671307871541
:102F400023A6E71A1387071B05F3356713078717AF
:102F500023A2E71C1387871C05F33567130787191E
:102F600023AEE71C1387071E05F335671307870E8B
:102F700023AAE71E1387871F05F3356713078710FA
:102F800023A6E7201387C72105F335671307870BAF
:102F900023A8E7221387472305F33567130787081C
:102FA00023A4E7241387C72405F335671307870491
:102FB00023A0E7261387472605F335671307871BEA
:102FC00023ACE72615B7B71702409843B706FFF8BA
:102FD00041111367170098C3D84337060200758F55
:102FE000D8C39843B706F7FEFD16758F98C398436C
:102FF000B706FCFFFD16758F98C3D843B70681FF4F
:10300000FD16758FD8C337079F0098C702C402C644
:103010009843C166558F98C3B716024005679C4216
:10302000F18F3EC6A24785073EC4B24781E7A2475B
:10303000E397E7FEB71702409C431397E7006359F5
:10304000070685473EC6324785476311F706B7171F
:103050000240D843B706C1FFFD1613670708D8C35F
:10306000D843D8C3D84313670740D8C3D843758F14
:10307000D8C3D843B7063D00558FD8C39843B70689
:103080000001558F98C3984393166700E3DD06FE51
:10309000D843B7160240719BD8C3D84313672700A3
:1030A000D8C32147DC42B18BE39EE7FE4101828019
:1030B00002C651BFB7160240DC4237070020114656
:1030C000B18B1307875A6385C70021466388C702FF
:1030D000B7177A00938707201CC3B7170240DC4359
:1030E000918393F6F700B707002093870700B69700
:1030F00094231C43B3D7D7001CC38280DC42D44244
:103100004166C983BD8BF18E890745466393C7002D
:10311000C94781EEB746024083A60680C18A89CEA0
:10312000B7167A009386062021A8B7160240D4422B
:103130001396E600E35606FEB7163D00938606900A
:10314000B387D70251BFEFD2EFBBC164411137093A
:10315000002009440D4A8D4AFD148327896793098D
:103160008967638E870463804703E5FFEFD0CFF65E
:10317000EFF0CFABEFE09FB4EFE00FB1EFF01FC97E
:1031800023A05901D9BF7D577400014681450145EF
:10319000EF40A053B247E39287FC26868145014564
:1031A000EF405019EFD02FC50841EF30D01CEFD0C1
:1031B0002FC50841EF30301C23A0890079BF1305CB
:1031C000401FEF30105CEF20607A41BFB73700201E
:1031D0009387478A1CC1B72700209387474A9CC121
:1031E000930700081CC28280B7370020938747945A
:1031F0001CC1B72700209387476A9CC1930700082A
:103200001CC28280EFD2AFB1EFD08FBF0841EF3048
:103210001066EFD04FBE0841EF3070656FD06FB2CF
:10322000EFD2EFAFEFD09FC32A8437280020B72713
:103230000020B7D50000371500001308481B9387FE
:1032400047DB19478546130600109385851E130535
:10325000054BEF30F00708C0EFD08FBA2A84B7D5FE
:1032600000003705000013884108938741C81147C3
:103270008546130600109385451F1305657AEF30C8
:10328000300508C0EFD02FB72A8437280020B717A1
:103290000020B7D5000037050000130848B0938719
:1032A00047E81547854613060032938545201305E8
:1032B0004561EF30F00108C0EFE0BF9F2A84372856
:1032C0000020B7270020B7D50000372500001308DD
:1032D000C8D59387C7B5214785461306000893854F
:1032E0008521130565E3EF30A07E08C03728002054
:1032F000B7270020B7D50000373500001308C840B5
:103300009387C720254785461306000893854522E5
:1033100013056514EF30C07BEFF0DFEE6FD06FA2C6
:10332000EFD2EF9FEFD04FD0B736002037260020E6
:103330002A8401479386C68F130646469145414528
:10334000EF20704F08C06FD0CF9F01A001A001A057
:1033500001A001A001A001A001A001A001A001A065
:1033600001A001A001A001A001A001A001A001A055
:1033700001A001A001A001A001A001A001A001A045
:1033800001A001A001A001A001A001A001A001A035
:1033900001A001A001A001A001A001A001A001A025
:1033A00001A001A001A001A001A001A001A001A015
:1033B00001A001A001A097E1FF1F9381219F172188
:1033C0000020130121C417B500001305A5E297D50D
:1033D000FF1F938525C31386818763FAC500832267
:1033E000050023A0550011059105E3EAC5FE17D598
:1033F000FF1F13052523970500209385E5046377B8
:10340000B500232005001105E36DB5FEFD42739064
:1034100002BC894273904280B722000093820280EE
:1034200073A0023097D2FFFF938242C193E2320031
:1034300073905230EFF03FB997F2FFFF938222145E
:1034400073901234730020301C4589C593E7170030
:103450001CC58280F99BEDBF08450D8105898280DE
:103460000845098105898280EFD26F8B01112A847A
:1034700023030100A5441C8363FAF406230301001F
:10348000A54621461C8363F0F60A23140100231588
:103490000100230301009546130600601C8363FEB0
:1034A000F60E1C8393F7F70F638407123884148396
:1034B0003C840C8310833347D702B3E7B7028607F7
:1034C000B3C7C702BA97C207C1837C8418839947E0
:1034D0009546998F93F7F70FDC839C8393F7F70F4B
:1034E000639C07108567938707800DAA1C4493E7A8
:1034F00087001CC42285EFF03FF66DFD1C4493E766
:1035000047001CC42285EFF0BFF56DFD78441C8395
:1035100014108607B6972396E7FE1C83850793F75A
:10352000F70F5C8389BFA30301009C836378F600D7
:103530001C83850793F7F70F5C83A9B798839C8357
:103540000C100607850786072E97AE970357C7FE10
:1035500083D7C7FE63FDE7029C838607AE9783D7B8
:10356000C7FE7C849C83988385078607AE9783D5A6
:10357000C7FE931717001810BA972396B7FE9C83BF
:1035800038840C1085078607AE972396E7FE9C8348
:10359000850793F7F70FDC8349BF1C831810890751
:1035A0008607BA9783D7C7FEE36DF6EE1C830C102F
:1035B000388489078607AE9783D7C7FEBA97C207B4
:1035C000C1837C841C83850793F7F70F5C83F9B56F
:1035D00093070040DDBD1C831010388589078607DE
:1035E000B29783D7C7FEBA97C207C1837C851C8375
:1035F000850793F7F70F5C831C83E3FEF6FC3885A1
:1036000094833C858C8390833347D702B3E7B7021A
:103610008607B3C7C702BA97C207C1837C852884CF
:1036200034852C8430850567930700401307078095
:103630003385A740B306D7408D8F118F4205C20650
:10364000C2074207C18641874185C1873695BA972F
:1036500089463345D5020561B3E7D7023E95420559
:1036600041856FC01FEEB70702409C437D8D333507
:10367000A0008280EFC2BFEAEFF0FFFE6FC07FECD8
:10368000B7070240C8C38280B7070140635A0504E8
:10369000DC4F93560501131805013707300013F668
:1036A000F60013580801B376E500635E05066399DA
:1036B000E604930606010D46B316D60093C6F6FF40
:1036C000F58F99C9135755011377F73F1207331731
:1036D000E800D98F63550506370701405CCF82802B
:1036E00037270240145BDC433707000F758F55F313
:1036F00013D71700F976CE07758FCD83D98F51BFB9
:103700001317B500635607008D46B396C6007DB704
:10371000135755011377F73F12073317E800134784
:10372000F7FFF98F79BF6390E602370601405442F4
:10373000370700F17D17F98F758F58C2C1F537072C
:1037400001405CC382801317B500635C07008D469F
:10375000B396C60093C6F6FFFD8EB707000FD58F50
:10376000F1BF1357550112073317E8001347F7FF4E
:103770007D8FB707000FD98FD1B75E2589C593E735
:1037800017005EA58280C207C183F99BC207C1836F
:10379000CDBF93C5F5FFC205C1814EA98280B71781
:1037A0000240238007022380070205476306E500E5
:1037B00011476306E50082802380A70282801547B7
:1037C0002380E7028280371702405C439146B18B29
:1037D0006385D700A1466382D706B7177A0093871F
:1037E00007201CC1371602405C4237070020130730
:1037F00007019183BD8BBA9794231C41B3D7D7009F
:103800005CC15442A1829D8ABA969422B3D6D70055
:1038100014C55442AD829D8A36971823B3D7E7006A
:103820005CC55842398393763700138741803697B9
:103830001823B3D7E7021CC982805C435843C16692
:10384000C983BD8B758F8907C5466393D700C94768
:1038500001EF3747024003270780418B09CF371715
:103860007A001307072021A8371702405843931600
:10387000E700E3D606FE37173D0013070790B3872E
:10388000E70285B79357550005476399E700B717D7
:1038900002409C4333D5A70005898280094763967F
:1038A000E700B71702409C53F5B7B7170240DC5347
:1038B000D5B7B737004003D7478013670701239276
:1038C000E78082803737004083574780C207C18333
:1038D000BD9BC207C1832312F7808280EFC23FC421
:1038E00041112AC6EFF0FFFC3245B73700401357AD
:1038F00005013D8B42052394E78041812396A780F3
:10390000EFF05FFC41016FC0DFC3373700408357E2
:10391000478093F70702E5DF8280373700408357FF
:103920004780C207C183DD9BC207C1832312F78092
:103930003737004083574780A18BEDDF82801E31EF
:10394000922103D82500C207C183F99BC207C18316
:103950001EB11E3156211A2DC207C1834207418371
:103960001377C7F8518F9225F59BC206336606017F
:10397000D18F37360140130606C0C1826310C502DD
:10398000B225DD9B03D8E500D18FD221ED9B93F6C4
:10399000F6CFD18FD22533660601D18E56A11AAD4E
:1039A000FA215AB91EB182801E3165771307F7CF0D
:1039B000C207C183BD9BC207C1831EB11E31562100
:1039C00003D88500C20713960601162DC18393F70D
:1039D000F7FD758F96214182A206558FB6214207C9
:1039E0004183B3E606019206D58FB7360140C20780
:1039F000938606C0C183631ED502B62593F7F7F7F9
:103A000003D8C5009206D58FD621C207C18392067E
:103A100093F7F7FBD58FFD769386F63FF18EF2256F
:103A2000C207C183336606010A06D18E13960601CA
:103A3000418252A11AADFA211ABD1EB182801E31F7
:103A400003D88500C207C18393F7F7EFC207C1838C
:103A50001EB11E3156215A2DC20713960601420788
:103A6000962141831377C7F8558FB621C18393F709
:103A7000F7DFB3E60601A206D58FB7360140C207CD
:103A8000938606C04182C183631FD502FD7693866B
:103A9000F67FF58FB62503D8C500A206D58FD621AF
:103AA000C207C183A20693F7F7BFD58FF576FD163F
:103AB000F18EF225C207C183336606011206D18E4C
:103AC00013960601418252A15AADFA215ABD1EB188
:103AD00082801A31FD77FD17F98F1EB10358050258
:103AE00056215E2D657792211307F7CF7D8FF977E9
:103AF0002206FD17518FB3F70701B22103D88500C5
:103B0000C2064207336606013206D18F37360140BE
:103B1000C207130606C0C1824183C183631AC50070
:103B200071767D16F18ED2251A06D18EC206C1821B
:103B300056A15AADFA212310E5041EB182801E2D34
:103B4000C207C183DD9BDD8D0EAD82801A2DFD770E
:103B50009387F77FF98FA205CD8FC207C1831EAD72
:103B600082805E2DC207C183DD9BDD8D4EAD8280DC
:103B70005A2DFD779387F77FF98FA205CD8FC20766
:103B8000C1835EAD82801E294A25ED8F42054181A9
:103B900089C76D8D3335A00082800145828093F501
:103BA000F51F4EA182800A216D8D3335A0008280E1
:103BB000B73700209387C79C23A0070023A20700E4
:103BC00023940700B73700209387C79B23A00700E3
:103BD00023A2070023A4070023960700B7070020AD
:103BE000239E07668280EFC2FF9193171500373539
:103BF00000201305C59C3E95834905002E896386E8
:103C000009060031B73400209384849DA299139A49
:103C10000901135A0A01B14A93170401C18363E6EB
:103C20004703130900006312FA041384F7FFB14736
:103C30003304F402B73700209387879D3E940C40ED
:103C40004840EF70806D0C4431A8228BCE87631101
:103C500034033147B387E7024A85BE94CC40EF7006
:103C6000C06B8C44EF6090782A894A856FC0DF8CE6
:103C70000504B30754034A85A69783A547FFEF7051
:103C80000061E34BA0F8DA87E9B785476381F50463
:103C9000B737002006059387C79CAA97982315E39A
:103CA000370700201307C76712231308400605458E
:103CB000B306B600634ED8008CA390B316A301459B
:103CC0008280FD1501456305B700094582800D45D9
:103CD0008280EFC23F834111AA892E893A85BE8531
:103CE0003684B2843EC63AC4EF70300C2A8AA2856C
:103CF0002685EF70900BAA855285EF70C02522476C
:103D000023A0A900A2853A85EF702061B247AA8955
:103D1000A6853E85EF706060AA854E85EF70F0083D
:103D2000AA89A6852285EF705008AA854E85EF7076
:103D300080222320A90041016FC01F809317150026
:103D4000373500201305C59C3E951C216378F60489
:103D5000EFC2EFFC0031B1472E8922961314060101
:103D600041803304F4020327090083278900832656
:103D7000C90003264900B73400209384849D93052D
:103D80008400130544002695A695EFF09FF4832741
:103D9000C900269401451CC06FC0AFFA0945828056
:103DA000373500201305C5998280931735003705F4
:103DB0000020130505683E95DC41230005005CC129
:103DC00001458280F1473305F502B737002093871C
:103DD00047ECD8413E959C4958C17D171CC9DC452C
:103DE0003337E0005AA95CC59C4DA30B0500232482
:103DF00005001CCD01458280F1473305F502B73738
:103E00000020938747ECAA97C82B8280EFC22FF13E
:103E1000F1473305F502B7370020938747EC094790
:103E20003D46AA971305C0023385A502D8C337378C
:103E300000201307C7E423AA070081453304A70025
:103E4000090580C3232204023A95EFC04FF0B7D78B
:103E5000000083A747232320040205451CD46FC01C
:103E60004FEEEFC2CFEBF146B306D502B7370020D5
:103E7000138747ECAA843D650146138447EC13057C
:103E800005A63697144323A0060213872600F906D9
:103E9000035827001E23B305F84063D60500B30777
:103EA000F540B385070109072E96E393E6FE3D45ED
:103EB0003355A602B7370020938747EA939544000D
:103EC000BE95EF40A004F147B387F4020547A297DF
:103ED0009C4388D3D8D36FC0CFE6F1473305F502B2
:103EE000B7370020938747ECAA978843090582805B
:103EF000EFC2EFE2F1473305F502B73700209387B1
:103F000047EC3E95004129CC58418947014563174C
:103F1000F7041C50A1C73E85EF709039B7D7000059
:103F200083A5C722EF70603FB7D70000AA8503A51D
:103F30004723EF704002B7D7000083A50723EF7037
:103F4000C03DEF70302542054181EF70102A0C54BE
:103F5000EF70A03CEF701024420541816FC06FDE0E
:103F60000145EDBFEFC20FDA7144330585023734E6
:103F70000020130444EC2A94832904001C480D45B6
:103F800083A409026387F40426852E89EF705032DA
:103F9000B7D7000083A5C722EF702038B7D700003D
:103FA000AA8503A54723EF60107BEF70B01E93072F
:103FB000C0033305F50242054181EF70102383A54C
:103FC0008902EF708035EF70F01C2310A90004C83F
:103FD00009456FC06FD6EFC2EFD23734002013040B
:103FE00044EC81448949130A703E854A11495C407A
:103FF000638B37051C4C2685829778386302A704AB
:104000001C4485071CC41DEB18486379F7005C400D
:1040100068B893C7F7FF858BA98F5EA8850493F4D2
:10402000F40F7104E39524FDB70700209387076818
:10403000D8438C23014502976FC00FD05844F1B785
:1040400023240400E1BF5E288507C207C18363649F
:10405000FA005EA8E1B71C40231A0400D853631588
:10406000570123A207025DBF23A0070245BF3735D2
:104070000020130545F3828085673307C5009387C9
:10408000078063C9E706EFC2EFC7AA8432840945F7
:1040900025C2373A0020AE8A8149414B130A4AF3C0
:1040A00093F7F400B307FB40C207C183228963F38F
:1040B00087003E8983274A02420913590901338642
:1040C0003A01A685CA861305000A33042441829763
:1040D000CA994204CA941545C209C2044180EF201E
:1040E000506A93D90901EF107008C18055F8014555
:1040F0006FC08FC40945828085673307C5009387E9
:10410000078063C2E708EFC20FBFAA84411132845F
:1041100009453DC6B73900202E8AB68A814B414BEE
:10412000938949F393F7F400B307FB40C207C183B7
:10413000228963F387003E89420913590901194C0A
:10414000B30C7A0103A80902D6872947CA86668676
:10415000A6851305000A029801C92AC67D1CEF1026
:10416000F0003245E3100CFE33042441CA9B4204A4
:10417000CA94C20BC204418093DB0B01C1805DF085
:1041800041016FC0CFBA0945828085673307C500FA
:104190009387078063C3E702EFC26FB83737002009
:1041A000032807F5B68713074006B2862E86AA8530
:1041B0001305000A02986FC0CFB809458280EFC28C
:1041C0000FB64111AE8605469305F100EFF0FFFBF7
:1041D000888741016FC0EFB6B70700200397876853
:1041E00081472A97634F070009CD05669306F6FFBE
:1041F000B6876358C700AA876305D50093170701E0
:10420000C1833E8582808D47B387F502032805016F
:104210001D473317F7001347F7FFB396F6003377C0
:104220000701D98E14C9994763E1C70295477D16E6
:104230003306F6025859FD47B397C70093C7F7FFF7
:10424000F98F3396C500D18F5CD98280EFC28FABD6
:10425000AE84328919EDB7170240D847136707209B
:10426000D8C7D8471377F7DFD8C7984F1367072009
:1042700098CFB7160240DC4251777D17F98F31672E
:10428000D98FDCC2931725001385C1853E95004167
:104290003707F1E01307F7EF5C40B569938989238D
:1042A000F98F93E707105CC01C4437F7F1FF130741
:1042B000D77FF98F37070E000907D98F1CC45C54CC
:1042C000370710FF7D17F98F37074000D98F5CD46F
:1042D00081476393F4061C4437071000D98F1CC430
:1042E0001C44370700FC7D1793E707101CC41C44CF
:1042F00093E717001CC45C40F98F5CC01C4493E733
:1043000087001CC42285EFF02F956DFD1C4493E7B8
:1043100047001CC42285EFF0AF946DFD2285EFF0BD
:10432000AF94B70700202394A7685C4037070004C8
:10433000D98F5CC06FC04FA0138A1700CA979C2307
:104340009D461376FA0FCE978C232285EFF0BFEBB4
:10435000D28741B7EFC2AF9CAA84652537270140B9
:10436000832787408945268593E707102324F74054
:10437000F5572320F74013040740692D2685692B44
:104380001C443707500093E717001CC41C44D98F06
:104390001CC46FC00F9BB737002023A0A7F68280F4
:1043A000B737002023AEA7F48280B737002023A2BE
:1043B000A7F68280B7170240944BB708000237086F
:1043C00000FEB3E6160194CB944B7D18B3F60601BC
:1043D00094CBD84F33671701D8CF93074006514786
:1043E0006305F50263E7A70ED1471307C012630EFA
:1043F000F50093072003130780076308F500A9471A
:10440000130780256303F5004147B767004083A683
:1044100007404165F59A23A0D74083A6074093E65D
:10442000160023A0D74093860740DC42858B99E392
:104430007D1565FDC842B767004005894DC903A5D4
:1044400007407D17938707401375F5F788C38843A6
:104450001365050488C388431375F5FD88C3884335
:104460001365050188C388435D9988C388436D99A6
:1044700088C337054B03498FD8CE9843799B98C39F
:104480004167D443858A99C27D1765FFD843058B60
:1044900039EFEFC2CF88D84B130540022E84136743
:1044A0003741D8CBB284EF0090642686A2851305ED
:1044B0005002EF00D0632686A28513053002EF007C
:1044C00010632686A28513056002EF0050626FC05C
:1044D0004F879307401F1147E309F5F29307803E8A
:1044E0000947E304F5F29307A00F214721BF82801B
:1044F000B767004003A70740054693870740719BB5
:104500001367170098C34167D4438D8A6384C6003C
:104510007D177DFBC8430D897D15133515008280FD
:10452000B767004003A7074093870740719B98C374
:104530004167D4438D8A99C27D1765FFC8430D89B1
:10454000133515008280EFB29FFD442141110041D7
:104550009305550026862800EF70A06AB7670040D3
:1045600003A787401359E4001379290093165700D5
:1045700063CE06069387074098479316470063C9A2
:1045800006069C47114513973700635E07040945EB
:10459000376700401307074093174500BA9703A7F2
:1045A0000718560433642401058B23A0E71803A7DA
:1045B0000718BD88598C23A0871803A74718419B6B
:1045C00023A2E71803A74718D98C224723A29718DC
:1045D00023A4E718324723A6E71803A70718136791
:1045E000170023A0E71841016FB0BFF501454DB793
:1045F000054579BFB768004013880840032E08209E
:1046000005433313A300136E1E002320C821832EFD
:10461000C821134EF3FF9605B3FECE01232ED821F9
:10462000832EC820C2059606B37EDE015606C181E0
:104630000E05C2062326D8214295C1824D8E56070B
:10464000558F2320C5242322E52437270240145BFD
:104650003707000F758F19EB1387083016231107E2
:10466000C206C182231ED7EEE31A07FF3767004058
:104670001307074083264720B3E666002322D7208E
:104680008DE783274721337EFE00232AC721B767A2
:10469000004003A7C7613363670023AE676003A7C9
:1046A0000760799B23A0E760828083274721B3E7D7
:1046B0006700232AF720E1BFB337A000B7660040A8
:1046C000920793860640B69703A7071B118B51EB01
:1046D00003A6071B03A7071B03A8471B5582098BCB
:1046E0001378F8002382050103A8871BA382050124
:1046F00003A8871B135888002383050103A8871B81
:1047000013580801A383050103A8871B13588801C8
:104710002384050103A8C71BA384050103A8C71BA5
:10472000135888002385050103A8C71B13580801E7
:10473000A385050183A7C71BE183DCA511EDDC463A
:1047400093E70702DCC6B337E000BE07D18F9CC1F8
:1047500023970500014582809C4A93E707029CCA83
:10476000DDB70545828039713ACE41673ECC06DE21
:1047700016DC1ADA1ED82AD62ED432D236D042CA45
:1047800046C872C676C47AC27EC013071710B767D0
:10479000004023A4E740B737002083A707F682979D
:1047A000F250E2525253C2533255A255125682561B
:1047B0007247E2475248C248324EA24E124F824FD1
:1047C00021617300203039713ECCB737002083A7B8
:1047D000C7F52AD63ACE06DE16DC1ADA1ED82ED453
:1047E00032D236D042CA46C872C676C47AC27EC0B9
:1047F00001458297B7670040214723A6E740F25062
:10480000E2525253C2533255A25512568256724743
:10481000E2475248C248324EA24E124F824F2161A7
:104820007300203039713ECCB737002083A7C7F51D
:104830002AD63ACE06DE16DC1ADA1ED82ED432D2AA
:1048400036D042CA46C872C676C47AC27EC0054512
:104850008297B7670040214723A8E740F250E25211
:104860005253C2533255A255125682567247E247EE
:104870005248C248324EA24E124F824F21617300FD
:10488000203039713ACE3ECC06DE16DC1ADA1ED85C
:104890002AD62ED432D236D042CA46C872C676C480
:1048A0007AC27EC01147B767004023A2E740B737FE
:1048B000002083A747F68297F250E2525253C25328
:1048C0003255A255125682567247E2475248C248A4
:1048D000324EA24E124F824F216173002030EFB250
:1048E0001FC4131425000945411133158500EFE05D
:1048F0007FD88547631FF500B7370020938787F679
:10490000A2979C432AC68297324533158500EFE073
:104910003FD741016FB0FFC2B70700200A05938758
:104920000702AA9798431C4393E717001CC3828091
:10493000B70700200A0593870702AA9794434167A7
:1049400079179C42F98F9CC28280EFB2BFBB3713AC
:104950000240AA84032543014111814913651500D2
:10496000232AA30005456393A500C14959C2854583
:104970006304B60885651309002013840580373564
:104980000020139A2400130585F652952320150163
:10499000268542C63EC43AC236C0EFF07FF93705DD
:1049A0000020130505025295084161763D060C4131
:1049B000856893880808F18DB3E52501B3E53501D5
:1049C000C18DB3E5150182460CC1124723220500B3
:1049D00014C558C518413248A2471367270018C1AB
:1049E0004286BE851385B401EF00701041016FB09F
:1049F000BFB40149014461B713090010130400401A
:104A0000BDBFB70700200A0593870702AA979C43FA
:104A1000CCC38280B70700200A0593870702AA97B4
:104A200098431C43DD8D0CC38280B70700200A0524
:104A300093870702AA979C43CCC398431367170038
:104A400098C3828039712AD6014506DE16DC1ADA4F
:104A50001ED82ED432D236D03ACE3ECC42CA46C828
:104A600072C676C47AC27EC0EFF07FE7F250E2529F
:104A70005253C2533255A255125682567247E247DC
:104A80005248C248324EA24E124F824F21617300EB
:104A9000203039712AD6094506DE16DC1ADA1ED80E
:104AA0002ED432D236D03ACE3ECC42CA46C872C696
:104AB00076C47AC27EC0EFF09FE2F250E2525253C7
:104AC000C2533255A255125682567247E247524897
:104AD000C248324EA24E124F824F216173002030E5
:104AE00039712AD60D4506DE16DC1ADA1ED82ED408
:104AF00032D236D03ACE3ECC42CA46C872C676C40E
:104B00007AC27EC0EFF0BFDDF250E2525253C25380
:104B10003255A255125682567247E2475248C24851
:104B2000324EA24E124F824F2161730020303971F4
:104B30002AD6114506DE16DC1ADA1ED82ED432D259
:104B400036D03ACE3ECC42CA46C872C676C47AC285
:104B50007EC0EFF0DFD8F250E2525253C2533255CA
:104B6000A255125682567247E2475248C248324E08
:104B7000A24E124F824F21617300203039712AD624
:104B8000194506DE16DC1ADA1ED82ED432D236D0FB
:104B90003ACE3ECC42CA46C872C676C47AC27EC0FD
:104BA000EFF0FFD3F250E2525253C2533255A255A6
:104BB000125682567247E2475248C248324EA24EBF
:104BC000124F824F216173002030B71701401387C5
:104BD00007806319E500371702401C4F93E7470031
:104BE0001CCF8280938707C0E31DF5FE3717024074
:104BF0001C4F93E78700EDB793F7060113F8F60013
:104C000099C33368C800B7170140631AF500B72786
:104C10000240985BB707000FF98F91E3B58193F7D6
:104C2000F50FB9C31C410147854E3D4F930F8002DC
:104C300093028004214E3396EE00B3F8C500631151
:104C400016039318270033131F011343F3FFB377A1
:104C5000F300B3181801B3E7F800639FF60550C9D5
:104C60000507E31AC7FD1CC19307F00F63F5B704EE
:104C700058412146854E3D4F930F80029302800498
:104C8000414EB398CE00B3F715016392F802931723
:104C9000260081173313FF001343F3FF3377E3003C
:104CA000B317F8005D8F639DF601232A15010506F1
:104CB000E319C6FD58C18280E39456FA10C94DB776
:104CC000E39756FE23281501DDB7EFB25F8541114A
:104CD0002A842EC6EFF07FEFB245C14609462285F1
:104CE000EFF09FF141016FB0DF85EFB25F834111BB
:104CF0002A842EC6EFF07FEDB24581460D4622850F
:104D0000EFF09FEF41016FB0DF83EFB25F814111A0
:104D10002A842EC6EFF07FEBB24591460D462285E0
:104D2000EFF09FED41016FB0DF81EFB24FFF411116
:104D300032C636C42A84AE84EFF03FE93246A2463A
:104D400001CE371702401C4F8545328593E7170087
:104D50001CCFEFE07F93A2460D46A6852285EFF09B
:104D6000BFE941016FB0EFFD08456D8D3335A000FF
:104D700082800CC982804CC98280B707002083A73B
:104D8000C768984B1E2393E717001EA38280B707BE
:104D9000002083A7C768984B1E2393E707201EA314
:104DA0008280B707002083A7C768984B1E2393E72C
:104DB00007101EA38280B707002083A7C7689C4BFB
:104DC0008AAB8280EFB20FF4B70400201389C46865
:104DD00003240900BA899384C4681CA076A050C437
:104DE0004EA02314040028B0EF20605B8327090045
:104DF00048C8054798CFEFF05FF8832709009C4B20
:104E0000962F898AF5FE962393E6064096A3EFF047
:104E10005FF994404E86FD55984A5E2393E70770EC
:104E20005EA38822EF20207F9C40984B5E23C20720
:104E3000C18393F7F78FC207C1835EA31E23C20706
:104E4000C183F99BC207C1831EA305478147630342
:104E5000E50091473E856FB02FEEEFB2AFEAB704A1
:104E600000201389C46803240900BA899384C468A4
:104E70001CA076A050C44EA02314040028B0EF203C
:104E800000528327090048C81D4798CFEFF0FFEE76
:104E9000832709009C4B962F898AF5FED62393E63B
:104EA0000670D6A3EFF0FFEF9C404E86FD55882399
:104EB000EF2060769C40984B5E23C207C18393F736
:104EC000F78FC207C1835EA31E23C207C183F99B6C
:104ED000C207C1831EA3814711E18D473E856FB094
:104EE000AFE5EFB22FE237040020AE84B2893689F5
:104EF000EFF0BFE88327C4681304C468984B1E2FE3
:104F0000898BF5FFEFF0FFE914409C4ADA2B058B03
:104F100075DFB8321377E70F9AABDA2B098B75DFA1
:104F20009E2F13D584007D89EFF0FFE81C40984B3D
:104F30005E2B93F70708EDDF13F5F40FEFF0BFE7F3
:104F40001C40984B5E2B93F70708EDDF814463E725
:104F50002401EFF0DFE301456FB00FDEB387990066
:104F60008823EFF05FE51C40984B5E2B93F7070812
:104F7000EDDF850493F4F40FD9BFEFB24FDA3704B5
:104F800000200327C468411102C6084B144F2D4668
:104F90005E29FD166361D60435668A061306C624AB
:104FA000B2969442C207C1831304C4688286858B7B
:104FB0009DC33C3393F7E70F1EA989471CCF21A857
:104FC000898B91CB1E2D4A2321817D89EFF0BFDE95
:104FD0001C402D4798CF41016FB0AFD693F707081B
:104FE000FDDB4823EFF03FDD1C400D47E5B793F7AD
:104FF0000708F5D3EFF0FFDA1C401147E1BF858BBE
:10500000F9DB3C3393E7170093F7F70F1EA9954799
:1050100075B7898BE9D31E2D99474DB793F70704D0
:10502000DDDB0E277E235447138615004206FD174D
:105030004182AE9663D6F5001E2912A79CA261BFDD
:105040001E21C207C18393F7F7BFC207C1831EA108
:105050001E2912A79CA2EFF09FD308407C000147B5
:105060000C2148498D460546EF20D00EB24791C726
:10507000B7E700E0116723A0E7201C4023AC07003E
:1050800099BF858BA9DB3C3393F7E70F1EA9A14796
:1050900035B793F6074081CEB705001093850540DC
:1050A000EFE02FEFEFF0FFCF1C401D4725B7898BB6
:1050B0009DD31E2D4A2321817D89EFF0DFCF1C4037
:1050C000314709BF93F70708E38707F04823EFF05C
:1050D0009FCE1C402547FDBD93F70708E38D07EEE3
:1050E00016277E2363FCF6005C47B6978823EFF013
:1050F0009FCC18401E2785071EA7F1BDA9477DBD7F
:10510000918BE38A07EC81BFEFB2CFBFB757004066
:105110009387074001112A84AE8432896312F50215
:10512000B7170240944BB70520003706E0FFCD8E3D
:1051300094CB944B7D16F18E94CBD84F4D8FD8CF16
:10514000680083594400EFE00FE8D24737470F006B
:105150001307072433D7E702C20993D9090193F94A
:1051600009FCC20993D90901B3E9E900C20993D93D
:105170000901231234011620C206C182F99AC2061F
:10518000C18216A0B79698001386F667637AF60A6E
:1051900093860668B3D7D7029166C207C183D58FBD
:1051A000A166D58F9306C0123307D7029306803EBF
:1051B0003347D7020507420741831AB05EAC1E2071
:1051C00093E717001EA01E20C207C18393F757BFA5
:1051D00093E707401EA091671EA4EFE05FE93757F1
:1051E0000000130747DC58CD375700001307A7E529
:1051F00018D137570000130727EEB707002058D102
:105200003757004023A6A76800C9130707409389B2
:10521000C7684A86A6856318E4021305F002C12810
:105220004A86A68513050003D92083A70900814576
:10523000884BEFE08FD4EFF05FB405616FB0CFAF74
:1052400091678507B1BF1305100355204A86A685CF
:1052500013052003D1BF397106DE16DC1ADA1ED819
:105260002AD62ED432D236D03ACE3ECC42CA46C806
:1052700072C676C47AC27EC0EFF03FD0F250E252DE
:105280005253C2533255A255125682567247E247C4
:105290005248C248324EA24E124F824F21617300D3
:1052A0002030397106DE16DC1ADA1ED82AD62ED442
:1052B00032D236D03ACE3ECC42CA46C872C676C446
:1052C0007AC27EC0EFF07FCBF250E2525253C2530B
:1052D0003255A255125682567247E2475248C2488A
:1052E000324EA24E124F824F21617300203085470B
:1052F00012066394F500136606F8B7E700E0AA9774
:105300001376F60F2380C7409357550005479387C0
:1053100007043315A7008A0737E700E0BA9788C368
:105320008280EFB22F9EB7170240D84FB706001801
:10533000AA84558FD8CFB7760040984205452E896C
:105340001367071098C29853C166B289558F98D3D6
:105350009853C176FD16758F98D3EFE04FC4014482
:10536000130AA00F13051004EFE0CFD101ED631471
:1053700044016FB06F9C050451451374F40FEF2086
:105380007042CDB79307A00FE305F4FEB7170240B4
:10539000985321641367071098D39853418F98D37B
:1053A000EFE0AFD6EFE06FD7373700408357078085
:1053B00093E717002310F780EFE02FD51305F4FFD4
:1053C000EFE0CFD1EFE06FD44E86CA854D45EFF0C8
:1053D0001FF2B707002023A8976861BF5D713ED216
:1053E000B737004022DE1384078083D7078086C644
:1053F00096C49AC29EC02ADC2EDA32D836D63AD467
:1054000042D046CE72CC76CA7AC87EC6858B89CF0A
:10541000B707002083A7076982975E20C207C18370
:10542000F99BC207C1835EA0EFE02FCE7254B64055
:10543000A642164386436255D2554256B25622576B
:1054400092570258F248624ED24E424FB24F6161BB
:1054500073002030B717024025E1D44705657D76FB
:10546000C98ED4C7D4477D16F18ED4C7984F498FC3
:1054700098CFB7370140014781C5056713070780FB
:1054800092238D6693860604F18E558FF17693866E
:10549000C630558F420741839AA3DA2F13774710FE
:1054A000DAAF23980700DA2313672700DAA39A23D9
:1054B000136707049AA38280944B11657176C98E95
:1054C00094CB944B7D16F18E94CBD84F498FD8CF87
:1054D000B74700409387078079BF0A05938781808B
:1054E000AA979C431307F0FB9AA782800A0593872B
:1054F0008180AA979C4301459E278280854763054A
:10550000F5040DC18947630FF504B7170240984BA6
:105510001367470098CB984B6D9B98CBD84F136778
:1055200047003DA8B7170240D44705671307078017
:10553000D98ED4C7D4477D761306F67FF18ED4C7B3
:10554000944F558F98CF8280B7170240984B1367BE
:10555000170098CB984B799B98CBD84F13671700BF
:10556000D8CF8280B7170240984B1367270098CB9B
:10557000984B759B98CBD84F13672700D5B75D71B3
:1055800022DE371400402ADC2EDA1305048085451C
:105590003ED286C696C49AC29EC032D836D63AD477
:1055A00042D046CE72CC76CA7AC87EC6EFE0AFDD76
:1055B0008547631AF500B737002083A7C7FC829799
:1055C000F9572318F4807254B640A6421643864316
:1055D0006255D2554256B256225792570258F24857
:1055E000624ED24E424FB24F616173002030B567B8
:1055F0000A059387C727AA9798431E2393E71700A6
:105600001EA38280B5670A059387C727AA97984388
:105610001E23C207C183F99BC207C1831EA38280D8
:10562000B567131725009387C727BA979C439A2716
:1056300042074183619B420741839AA75147330642
:10564000E502962337370020130747F8C206C182C8
:1056500093F6F6C832975223D18E96A316233A2397
:10566000D6B79AB709E537370140231807C205476F
:10567000DAAB8280EFA2BFEA01112A843AC83EC6A3
:105680002ECE32CC36CAEFF07FE7F24537A84A0477
:10569000130808203358B80251456246D246B30871
:1056A000A40237350020130545F84695231105015E
:1056B00012A154C52285EFF0BFF635650A04130523
:1056C000C527229514417956B24792AACA26424765
:1056D0003E8613651500CAA6BA851305E002EFF0F1
:1056E0001FC105616FA0FFE5EFA27FE301112A84CE
:1056F0003289B6842EC602C802CA02CC02CEEFF0AE
:10570000FFDFB24537A74A04130707203357B70214
:10571000D1474209135909012285B306F402B7376C
:105720000020938747F80A04B69723902701BAA36D
:1057300023920700EFF0DFEEC16735659387070717
:105740001305C5273EC82295231B2101231C0100F8
:1057500093F71400004189CB0C082285EFE02F9EBF
:1057600081452285EFE0AFBD93F7240089CB0C087B
:105770002285EFE06FA381452285EFE02FBD93F7EF
:10578000440089CB0C082285EFE06FAB8145228570
:10579000EFE02FBDA18889C80C082285EFE06FB328
:1057A00081452285EFE0CFBC1E20216793E70708E3
:1057B0001EA083574404D98F2312F40405616FA0FF
:1057C0005FD8EFA2DFD541112A8436C22EC632C47B
:1057D000EFF0DFD2B24537A74A041307072033574B
:1057E000B702D14722463305F402B737002093872A
:1057F00047F8AA9792A3BAA3239207002285EFF055
:105800003FE2924689476392F606B5679387C727BA
:105810000A043E941C4085669386F6CF9A3342076D
:1058200041833D9B420741839AB3922F9A33F18E75
:1058300042071166418313060610D18E1377F7FDD8
:1058400096AF136707019AB3962F7D771307F73F3B
:10585000758F9AAF9A2F420741839AAFDA27136761
:105860004740DAA741016FA0DFCDA147E39CF6FED8
:10587000B5679387C7270A043E941C407D761307BB
:10588000F6FF9633116513050510758F9AB3DA2F5D
:10589000856603D807029385F6CFF98D79777D1752
:1058A000C98D337707010565CEAF498F9AB3DA2FDB
:1058B0001306F63FC106798ED2AFDA2F4207418335
:1058C000DAAFDA27D98ED6A771BFEFA25FC5B56769
:1058D0000A059387C727AA978043A167FD17035737
:1058E0004404411102C27D8F2312E404035744048F
:1058F00002C402C6F98F2312F404C1679387070616
:105900003EC089477C84708393F71500AE8489C7B5
:105910008A852285EFE0AF8293F7240089C78A85C4
:105920002285EFE06F8893F7440089C78A85228536
:10593000EFE0EF90A18889C48A852285EFE06F9916
:10594000835744042167D98F2312F40441016FA0C7
:105950005FBFB5670A059387C727AA979843A166D3
:1059600083574704D58F2312F7048280AD673737FA
:1059700000409387A7AA1CC382801567B7370040F1
:105980001307575598C31147D8C31307102798C753
:105990002D671307A7AA98C335671307C7CC98C309
:1059A0008280938741909843636FA702D043B38668
:1059B000C7006316D50054413E85B296D4C350410A
:1059C000B306C500631CD700B706002083A646694E
:1059D0006306D70054431843B29654C118C16303F9
:1059E000F50088C38280BA877DBFEFA2BFB14111A5
:1059F0002AC6EF10602BB706002083A7466937063A
:105A0000002093864669130686693245A9EB37372D
:105A10000020930747FD93F5F700130747FD81C565
:105A20001387F700419B938541909387071FC19B84
:105A300023A2050098C123A2070023A00700B38575
:105A4000E7409CC21CC3B707002023A0B76AB70772
:105A5000002023AEB768B70700804CC31CC2032ADE
:105A60000600B377AA0085E39307F5FF3957636C07
:105A7000F7009307050113F7F70049C313F707FF72
:105A8000410763ECE706814491A022872E8459A048
:105A900058C15CC0EFF0FFF05840B7060020938675
:105AA000066A9042B307E94023A0F90063F3C700F8
:105AB0009CC2B70700203367EA009387476A58C043
:105AC0009843C10423200400050798C3EF10E03673
:105AD00093F7F400C1CB89679387078073900730F1
:105AE00037D6000037D500001306C62893050011ED
:105AF0001305452BEF60E03901A0BA873707002076
:105B00000329C7699309C769E36FF9F603A44190B4
:105B10001387419050406374F6000C40BDF59442E9
:105B2000E38386F61440044314C33307F640930618
:105B30000002E3F3E6F63305F4009376F500A9DA04
:105B40008967938707807390073037D6000037D571
:105B500000001306C6289305F00C1305452BEF60D3
:105B6000403301A0268541016FA01F9D4DC1EFA2CA
:105B70001F9BB7070020032745FF83A787692A8457
:105B8000B376F7009DE289679387078073900730AB
:105B900037D6000037D500001306C62893054012FB
