:100000006F30003D130000001300000013000000DB
:100010001300000013000000130000001300000094
:100020001300000013000000130000001300000084
:08003000130000007300100032
:1000380000000000000000002E0E0000300E00003E
:10004800000000006833000000000000000000000D
:100058006A3300006C33000000000000000000005C
:10006800405C0000000000000002000000000000EA
:10007800723300007433000076330000F853000038
:100088007A3300007C3300007E33000080330000A8
:10009800823300008433000086330000604A000089
:1000A8008A330000AE4A0000FC4A00004A4B0000B8
:1000B80092330000984B00009633000082470000FE
:1000C800E2470000404800009E480000A0330000BE
:1000D800A2330000A4330000A6330000A8330000B8
:1000E800AA330000AC3300008455000072520000AF
:1000F800BE520000B4330000B6330000B83300002D
:10010800BA330000BC330000BE330000C033000027
:10011800C2330000C4330000C6330000C8330000F7
:10012800CA330000CC330000CE33000000000000CA
:080138000000000000000000BF
:10020000130181F806C216C41AC61EC822CA26CC1B
:100210002ACE2ED032D236D43AD63ED842DA46DC76
:100220004ADECEC0D2C2D6C4DAC6DEC8E2CAE6CC46
:10023000EACEEED0F2D2F6D4FAD6FED8F3220030CF
:1002400096DA83A2819023A02200F32510342EC0D9
:1002500003A14186EF60903603A381900321030040
:10026000824273901234D652739002309240A2426E
:100270003243C2435244E244724582551256A2565A
:100280003257C2575258E25872598649164AA64AFE
:10029000364BC64B564CE64C764D865D165EA65EDA
:1002A000365FC65F13018107730020301300000022
:1002B00013000000130000001300000013000000F2
:1002C00013000000130000001300000013000000E2
:1002D00013000000130000001300000013000000D2
:1002E00013000000130000001300000013000000C2
:1002F00013000000130000001300000013000000B2
:1003000083A24186938202E07390023403A181901C
:10031000024182403243C2435244E2447245825514
:100320001256A2563257C2575258E258725986494D
:10033000164AA64A364BC64B564CE64C764D865D61
:10034000165EA65E365FC65FD652A102739002307B
:10035000A2421301810782801300000013000000F5
:100360001300000013000000130000001300000041
:100370001300000013000000130000001300000031
:100380001300000013000000130000001300000021
:100390001300000013000000130000001300000011
:1003A0001300000013000000130000001300000001
:1003B00013000000130000001300000013000000F1
:1003C00013000000130000001300000013000000E1
:1003D00013000000130000001300000013000000D1
:1003E00013000000130000001300000013000000C1
:1003F00013000000130000001300000013000000B1
:10040000F322003093F272FF130380181203B3E259
:100410006200711523205500130585FA10C12115BE
:10042000232005009302000063870200711523203A
:100430000500FD12D5BF71150CC1828000000000BF
:1004400000000000000000000000000000000000AC
:10045000000000000000000000000000000000009C
:10046000000000000000000000000000000000008C
:10047000000000000000000000000000000000007C
:10048000000000000000000000000000000000006C
:10049000000000000000000000000000000000005C
:1004A000000000000000000000000000000000004C
:1004B000000000000000000000000000000000003C
:1004C000000000000000000000000000000000002C
:1004D000000000000000000000000000000000001C
:1004E0000000000000000000000000000000397162
:1004F00001436EC619A0397141536AC866CA62CCFD
:100500005ECE19A0397101535AD056D252D44ED66C
:100510004AD826DA22DC06DE3301614082824111AC
:100520004AC026C222C406C68282B24D4101024D93
:10053000924C224CB24B4101024B924A224AB249A0
:100540004101024992442244B240410182803D432C
:100550002A876373C3029377F700BDEFADE5937607
:1005600006FF3D8ABA960CC34CC30CC74CC7410763
:10057000E36BD7FE11E28280B306C3408A0697027E
:10058000000096966780A6002307B700A306B70071
:100590002306B700A305B7002305B700A304B700DF
:1005A0002304B700A303B7002303B700A302B700D7
:1005B0002302B700A301B7002301B700A300B700CF
:1005C0002300B700828093F5F50F93968500D58DB3
:1005D00093960501D58D61B7939627009702000089
:1005E00096968682E78086FA9680C1171D8F3E9682
:1005F000E374C3F8A5B7370500201305C5628280F0
:1006000037050020130585628280B707002023A8E4
:10061000A7628280EFF23FEEB70500203971938523
:100620004562014537040020EF90B03D2320A462CD
:100630001304046219E1EF10B0791C403707002061
:1006400003270763DC4398C3EF70C04FEF708052FD
:10065000EF00A0702313A10202D6EF0000731C402C
:10066000A302A102DC43884323AA0700EF70605372
:100670001C40C843EF70A0660840035661025C410D
:100680008C43EF90304819C1EF109074B7070020E9
:100690009387074098530840930661023AD8D8538D
:1006A000130651020C183ADA9857DC573ADC3EDE52
:1006B000EF90B04819C1EF10B07183A6C181034912
:1006C0005102032A040036CEEF00C06B9307401F8F
:1006D0003EC0F24689679309C102C507C98F4EC65D
:1006E0004AC402C29308803E1308401F01470146D6
:1006F00081455285EF90904711C5B5576304F500C9
:10070000EF10106D084003A6C1814E874C49CA8680
:10071000EF90505119C1EF10B06B1C409C4399C32E
:10072000EF10106B1C40B70400208969C843130AFE
:10073000803EEF70004823AA0462EF702045EF600E
:10074000E0342A8902D493844463938909719C40DC
:1007500089CBB707EFBE37E700E0938707083CC7B0
:10076000FDBFA25503A54194B3D54503EF501048F2
:10077000EF7040404ED4EF606031330625413306C0
:100780004603AA8A0840341081455689EF903058B4
:1007900088C003A58194814601468145EF50D01160
:1007A000EF70C03E6DB7EFF2FFD54111EF70803CA6
:1007B000EF60C02D89692A8402C6130A803E93899E
:1007C0000971370B0020EF70603CB24503A581949E
:1007D00013090B62B3D54503A284EF503041EF708B
:1007E0006039832709004EC695CFDC43DC4B9DCB97
:1007F000EF60C029AA84032509001C4185E75C41FC
:10080000DC4B8DC33384844033044403740081453E
:100810002286EF90B0570325090074002286814597
:10082000EF90D05A268445B737050020130585631D
:100830008280EFF2DFCE3704002013048463084087
:100840004111EF50305911CD08407D566C00EF50EA
:10085000702628871086938581958946AA95EF3062
:10086000500B4101F9B9938781953E9593D7850047
:100870000CA11CB193D70501E1813CA12CB1828070
:10088000938781953E950CA1A1810CB182809387BD
:1008900081953E950CA18280EFF27FC8AE8693854C
:1008A00081950946AA95EF30D00661B99387819565
:1008B000AA97983388232207598D82809387819540
:1008C000AA979833A82322074205498F8823498F86
:1008D000A8336205598D8280EFF2DFC20111130641
:1008E00060228145138581959D318946130600213B
:1008F000938581950145EF30F00A63110532138429
:1009000081951820930770076308F72E9387C1839A
:100910009843DE23B706000118C05EA09947A30FD5
:10092000F408B7270001938707402320F40AB7276C
:100930000006938707402322F40A896737070003DC
:1009400093870740930507102314F40A9307400286
:100950007CB44CD4B7070005B70500781CC86CC43C
:10096000B70700242CD0B74505015CC893855560B6
:1009700093070050138606101CCC6CD09307001010
:100980002965B785050054CC1CD054D01CD874C838
:100990007CCC2305040A10D4232A0402232C04024D
:1009A000232E040223200404232204042324040409
:1009B00028C830CC938505802CD47CD82316F40A23
:1009C000231CF40AD14738DC2307F40C1307072053
:1009D000E14778DCA301F40C3707001AB7070015CC
:1009E00089072322E40837F70301130747802322EE
:1009F000F40CB7170503938717202324E40837273F
:100A00000400130707A02324F40C93073051232676
:100A1000E4082316F40C3707000291472328E40862
:100A2000A307F40C13070720856774D4232AE4086E
:100A300093060020054793873740B56930D82320B7
:100A4000D408232CD408231E0408230F0408A3056C
:100A5000E40A2307040AA30BE40A230D040A23185B
:100A6000F40C9389498E9304200D130A400E83D50C
:100A7000090026858904C204C18019358909E398D3
:100A800044FFDD47856529457CA4F13BB7970112FA
:100A9000C9072322F40E930700192314F40EB56935
:100AA00091472305F40E9389C9889304D00E130B44
:100AB000501383DA090026859109D685D13303DAEC
:100AC000E9FF138524004205D2854181553B1385FA
:100AD00004054205D68541816533138524059104BB
:100AE0004205C204D2854181C180593BE39364FD34
:100AF00081451305D018693381451305F018493332
:100B0000D14513051019AD3BE545130530198D3B53
:100B1000E54513055019AD339305200313057019EE
:100B20008533F94513059019A13B9305700813050A
:100B3000B019B93393078002A30EF41CB705003E29
:100B40008567938707A0D5051305501E231FF41C46
:100B50002300041E093BB7050076ED051305901E22
:100B60001933B7053F78CD051305D01EED39B7050C
:100B70000071D1051305101FFD31B7057978C9053E
:100B80001305501FCD31B7057350D9051305101E3D
:100B9000D939B705006DDD051305901FE931B7059B
:100BA000003FE9051305D01F7D39F14513051020DD
:100BB0005D398145130550207D319D478946A30449
:100BC000F42013060021954793858195014523154F
:100BD000F420EF30005413060021814513858195E0
:100BE000BD322945EF6060178946130600219385C1
:100BF00081950145EF30005B138A418381490D4B9C
:100C0000834A440E4E85FD1A93F5FA0FEF308009A2
:100C100059C185090D04090AE39469FFB70700204B
:100C2000239E0762056109BA03550A0013160901DC
:100C3000418293142600AA94C204C180268532C63C
:100C4000B53142054185EFA0407C2AC813852400B8
:100C500042054181A139EFA0B0072ACA138544009B
:100C600042054181A13142054185EFA0007A2ACC9D
:100C700013856400420541811539EFA070053246A5
:100C80002ACE0C084E850509EF30E00C1379F90FD8
:100C9000E34C59F9BDBF0149E5BF938781953E9566
:100CA00008218280EFF2BF8741112A842800B28494
:100CB000EFA030178947638FF40291476380F404F3
:100CC00085476397F400188493878195A29798A32A
:100CD0009307F02063ED8700B707002003A5876323
:100CE00081467D566C0060874486EF50E03C4101B0
:100CF0006FF03F852C8422856136D9BFA2452285BD
:100D00009D36F9B7EFF2BF8141112A846800B284A1
:100D1000EFA030118947638AF4029147638BF40294
:100D200085476397F400188693878195A29798A3C7
:100D30009307F02063E88700894626866C002285A9
:100D4000EF30203D41016FF0CFFF2C8622850D3E14
:100D5000C5B7B2452285013EE1BFEFF24FFC8945A0
:100D60000545EF30604721479307401F6369A7009F
:100D70009317150035651305458D3E951E213E855B
:100D80006FF02FFC13050010828003C5C19582808F
:100D9000EFF2EFF8370400201304C4631E2013079A
:100DA00070168507C207C1831EA0637AF700194534
:100DB00031369305150019457D342310040029456B
:100DC000F53CAA8403C561968145D928EFA0E0636C
:100DD000B7D7000083A5878FEF90F039B7D7000011
:100DE00083A5C78FEF9030392A842685EFA0406E07
:100DF000AA852285EF909001EFA0C05BAA852945C6
:100E00009D346FF00FF4EFF28FF121469385E19559
:100E10001945EF3000286FF0CFF2EFF24FF029457F
:100E2000713C930740063355F5026FF08FF101A036
:100E300001A0EFF2CFEE01112E84AA85194542C61A
:100E40003EC83ACA36CC32CEEF100040A2851545D6
:100E5000EF10803F72461145B285EF10E03EE2464A
:100E60000D45B685EF10403E52470945BA85EF1053
:100E7000A03DC2470545BE85EF10003D3248014503
:100E8000C285EF10603C05616FF0AFEB37050020C5
:100E90001305C5648280B707002023A0A764828061
:100EA000EFF2EFE79307F5FF7147636FF7103567D0
:100EB0008A0713070790BA979C432E8982871305E8
:100EC000152142054181D13B2A8422856FF06FE7CD
:100ED0001305152142054181EFF05F9DF5B73915E6
:100EE0009374F50F2685EF00B077AA852685EF204D
:100EF0003051B7D7000083A5878FEF901064EFA023
:100F000040452A84E30309FC0D453385A4021305FB
:100F1000550EEFF0BF992A944DBF0D45EF00507468
:100F2000B7D7000083A5878FEF903061EFA06042B4
:100F300061BF0145EF20707DAA841305D01DEFF03D
:100F4000FF96EFA0E058B7D7000083A5879CEF90ED
:100F500090222A842685EFA0404BAA852285EF9017
:100F6000D05DEFA02045EFA0A0565DBF0545EF2066
:100F7000D079AA841305F01DD9B70945EF2070690F
:100F8000A1B7613D91B71945EFF05F9335BFB70742
:100F9000002003A4076415BF1305C020EFF01F92C3
:100FA00013548540930740061374F40F3304F4027E
:100FB0009377F50F41851375F50F3E9489679387F5
:100FC00007713305F50281BF014401B7138701BAE8
:100FD00083468702938701BA1396260032971043FF
:100FE0007147631EE60203C7970315CBC85B05C9AB
:100FF00003C7170309C7A38C0702A388070203C707
:10100000970393080002054805071377F70F9375B8
:10101000F70F63F5B802A38C0702A38807021387B2
:10102000160083C687031377F70F2384E7026364F0
:10103000D7002384070223A6070282803316E80024
:10104000698E050769D6A38CB7028280938701BA9F
:1010500003C7970223A607022384E7028280EFF2E8
:101060000FCC938501BA83C7850205469385950207
:101070009CA11305902079316FF0AFCC03C581BCE2
:101080008280A94763E6A7002384A1BC0145828032
:1010900005458280A94763E1A702EFF24FC8938517
:1010A00001BAA384A50205469385950213059020F5
:1010B000D53E01456FF0EFC805458280938701BAA0
:1010C00083C6870203C797026385E60203C7170337
:1010D0000DE3D8573A95C8D783C7A7021307803EB8
:1010E000B387E7026367F500EFF26FC385376FF0F0
:1010F0004FC5828001C9F147630AF500A147014548
:1011000063F5B700238CB1BC054582802388B1BC50
:1011100001458280EFF20FBF138501B8EF60E07FD9
:1011200013059020938401BA8D3EA384A402130575
:10113000A020EFF09FB683C794022385A402238CDE
:1011400004022384F402138901BA8144138401BA8E
:10115000054AA949139524001305151E420541812E
:10116000EFF0CFF52320A90093F5F40F1375F50FD9
:1011700051376306450185041109E39D34FD232A97
:101180000402A30C0402232E0402230004046FF0C3
:10119000AFBA138701BA5C5FA9C3834707049306FC
:1011A0008002850793F7F70F2300F70463F5F60035
:1011B00023000704828055476371F702EFF22FB6D0
:1011C00001449D442285050481451374F40FEF10FA
:1011D000A007E31994FE6FF0CFB68280138701BA9F
:1011E000585B938701BA6309A70483C60703A9C69E
:1011F0001347F7FF698FC8DBA38C0702014601453F
:10120000854813080002B395C800F98D9376F60F50
:1012100081C919C1A38CD7020547A388E702828040
:101220008506050693F6F60F0545E31E06FDA38C1D
:10123000D7027DF3A38807028280138701BA834611
:1012400017030547938701BA6396E60003C70703B0
:101250002384E70203C787020A07BA97884382807C
:10126000EFF2EFAB41112A8432C42EC6EFF00FE447
:10127000B2458AA11305240042054181EFF00FE336
:1012800022460AA241016FF0CFABEFF24FA9411104
:101290002E841306E1006C00E1373887014505C351
:1012A0003C86014589CF63E9E700636AE400B3B790
:1012B000870013C5170021A00545E36AE4FE41013C
:1012C0006FF02FA8EFF2AFA52A848DE10146894582
:1012D000EF00B07201468D452285EF001072014685
:1012E00085452285EF0070716FF0AFA5B144B3045E
:1012F0009402AE873E858545EFF09FBA131905012C
:1013000013590901CA851385B40141372A868945D5
:101310002285EF00906ECA851385F401BD372A86B9
:1013200085452285EF00706DCA8513853402B13F73
:101330002A868D457DB7EFF20F9C4111AA8AAE84B3
:101340003D456C00B2891306E10036893A8C3E8B2C
:10135000428DC68C0354410421372886835BE1000B
:1013600033057541EFA0600AB7D7000083A5C79C7D
:10137000EF90B01C2A8A636E340333857941EFA065
:10138000C008D285EF90205FEFA0C0022300AD001F
:101390003305344163748900330539414205418185
:1013A000EFA00013D285EF90005DEFA0A000238096
:1013B000AC00636D540333857A41EFA00005D285FC
:1013C000EF90605BEF90107F2300AC0063E384023A
:1013D00033045441131504014181EFA0600FD285FD
:1013E000EF906059EF90107D2300AB0041016FF04A
:1013F0000F9433845441F9BF03480100388263F6E7
:10140000A5026374A70063E6E6006379B700637F13
:10141000E602238008012380070182806364D700ED
:10142000E37BE6FE2380080182806377E600E362C7
:10143000B7FEE379D7FE19A06375D700E36BE5FC2F
:10144000D5B7E371B7FEE368E5FCE9BFE36CD7FC11
:10145000D9B7EFF2CF8C79712A892E84B2846C10BF
:101460001306E1023D4536CE3ACC3ECA42C846C6D6
:10147000C53BF246B2484248D247624763F486020F
:1014800063EB260163E9280163E9160123000701E4
:101490002380070129A0E3FD16FF23000701456112
:1014A0006FF02F8A6367940063E59800E36214FF8E
:1014B000F1BFE37414FFE9BFEFF26F86EF50904481
:1014C000B707002023A8A764B707002003A5C764B7
:1014D00001478D4611468145EF6060026FF06F86CF
:1014E000EFF26F8139717D5774181306F00F814543
:1014F0000145EF50B072F257918BF5D7EFF09FC1D5
:10150000938701B923A0070023A2070023940700B3
:1015100023A60700B707002003A5076501478946F2
:1015200001468145EF50B07DB7D7000083ABC79C23
:101530008149138401B9370B0020138901BA138A3A
:101540004184938A81842945EF50300185653715A0
:10155000014093850580130505C0EF30B0020547B3
:101560006310E50C5C4091C708C0232204002314DB
:101570000400930C4B6403A50C004444130C4B640F
:1015800063160524854789E483471903B337F000C0
:101590002945232EF902EFF07FB21C4005476395E1
:1015A000E700E9E4EFF09FA2B707002003AC07646F
:1015B0006285EFF0BFC25131AA84F1471375F50F70
:1015C000631CF51E63060C0C8326490383479903AD
:1015D00001468545130500023397F500758F45C315
:1015E00019C2A30CF9028347990329463567850779
:1015F00093F7F70FB3F6C7021307C7A293050005C9
:1016000013059007B3D7C702BA9603C8060013069E
:1016100000058146BA979C230147EFF09F81DDA228
:101620001E2454408507C207C1831EA485E291464B
:10163000E3F1F6F458C013077025637CF7008D477B
:101640005CC485471CC089475CC025B7E393E6F2BC
:10165000DDB71307F0186375F70089475CC411BF45
:101660001307700CE377F7F08547CDBF0D476395FF
:10167000E4002320FC000DBFEFF07F9E35B7850707
:1016800093F7F70F6373F50081470546B1F691BFF5
:10169000EFF0DF93EFF0FFAF184085476316F700D8
:1016A0002320040023260400850993F9F90FCD4770
:1016B000E3FB37E98144B9491385340C4205418184
:1016C000EFF0AFDDAA8513F5F40F8504EFF09FBFAF
:1016D000E39434FF1305100DEFF02FDC2306010215
:1016E000A306010223070102A307010249C585459C
:1016F000EFF00FFB131C05011306A1032C182A8D14
:101700003D45EFF0FFB55018930561034D45EFF0EF
:101710003FB51018930521035D45EFF07FB4835763
:10172000A10303558103135C0C011D8DEF90F04D57
:10173000DE85EF908060AA8C1545EFF00FD603563A
:1017400041038354010383592103835661036315C5
:10175000052A63E4990063F0C60262C266C093087A
:10176000D1021308C1029307F1021307E102CE85EB
:101770002685EFF05FBC8346D1020346C102834554
:10178000F1020345E102EF00502213050021EFF0C2
:10179000EF919377F50F014591CB1385F7FF137503
:1017A000F50F130595060605EFF04F90EF00B047D3
:1017B0008149EF00F04F41BB8145EFF06FEEAA8504
:1017C000054613D50401EF001034E9B5054D63104B
:1017D000A50D93B71400232EF9021C40370C0020EE
:1017E000130C8C646398A70083470C0085E0850781
:1017F0002300FC0003450C00A14763FEA7048547B6
:101800002300FC000145EF00F02D69B519476387FF
:10181000E702636DF700F9DFFD1735678A071307E5
:101820004797BA979C4323A0FC00E9B72147E3936D
:10183000E7FCEFF0BF8123A00C006DBF89451305C5
:10184000D01DEFF06F8589451305F01DEFF0CF84B3
:1018500023000C0045B79D47631CF5008145754585
:10186000EFF00FE4AA8501461565EF00D02959BFB6
:10187000B307F5023565130585983E950348650065
:101880005C315821343130210C31082179B39387F0
:10189000F4FF93B71700232EF902994763FCA702C0
:1018A00065151375F50F131715009387C184BA9743
:1018B0008623EF00E05AEF90D029A945B305B50281
:1018C00005462685EF0030241C40E38507DC23A075
:1018D000AC01C9B3B70C002003C79C641C40938CB7
:1018E0009C64631CA705E38707DA2320EC002380B0
:1018F0000C008D476394F40483260C0085472380F5
:10190000FC00F51693B7260093C71700139717002E
:1019100093874185BA9786238547014563F3D700AE
:1019200009451305D51D42054181EFE03FF8AA8521
:1019300001462685EF00301D11A0C5FF83C70C00AE
:10194000E39A07D483240C0093F71400B9CFF5145D
:101950003335900093141500B3879A0083DC070099
:1019600081455905EFF0CFD3AA8505466685EF007E
:1019700090191C40E38007D25C4405476398E70058
:1019800083270C0085072320FC0029B3E39407D0AC
:101990009384D41D2685EFE07FF193051500C205E1
:1019A000C1812685EFE0DFEDF5B1F114B33490008D
:1019B00093971400D29783DC070081451385640157
:1019C000EFF00FCEAA8505466685EF00D0131C40C8
:1019D000E38207CC5C4405476396E70083270C004D
:1019E000FD1755B7E39807CA9384D41D2685EFE009
:1019F000FFEB9305F5FF65B713150D01418136CE59
:101A000032CCEF909020E685EF80F076EF90901A40
:101A10001378F50F6246F24663E4990063F1C6025B
:101A200042C062C29308D1021308C1029307F102B7
:101A30001307E102CE852685EFF01F9C2DBBE288BF
:101A40009307D1021307F102CE852685EFF07FA020
:101A50001DB3EFE2DFAC37150000154685451305D1
:101A600005D9EF30D00D8965371501403714014095
:101A7000EF30602B8564938504C2130504C0EF30FA
:101A8000802A37061800914613060610A145130553
:101A900004C0EF30402B9146014693850480130526
:101AA0000480EF30402A9305F00413050480EF30E2
:101AB0008025E14601469305000A13050480EF30B6
:101AC0008028A965E14601468D05130504C0EF3065
:101AD0008027C14513050480EF30E0209385040181
:101AE000130504C0EF302020E14637461D00930562
:101AF0000020130504C0EF3000259306800437460C
:101B00001D0093050010130504C0EF30C023F146FB
:101B100001469305000C130504C0EF30C022B74501
:101B20000F00B1461306803E938505240945EF302A
:101B3000103C0945EF30102C81450145EF00F00FB6
:101B400081450545EF00700F930404C09305000222
:101B50002685EF3020237DD9EF20200785649385EB
:101B600004800145EF30D010938504800545EF30A7
:101B70003010B7260000B7E516008D47054793865D
:101B8000E64C13064006938505360D45EF30F02EE2
:101B90000D45EF303026EF30B05E3755004005463A
:101BA000854513050540EF30E057C145130504C0D6
:101BB000EF30E01D3765004013050540EFE0FFA45E
:101BC0006FE03F98EFE2BF9581450145EF00F006D9
:101BD00081450545EF0070060D45EF3010230545A2
:101BE000EF3050210145EF30F0206FE09F9537F73F
:101BF00000E0832707D1B7060080D58F2328F7D0D0
:101C00008280EFE2DF9137250140814513050540D1
:101C1000EF1030053705002003250566B7070020C3
:101C2000138487660147938787668D4605468945F5
:101C300023200400EF5030271C4091C7B7E700E095
:101C4000116723A0E7206FE0DF8FEFE25F8D0D4586
:101C5000EF20D04FBD450D45EF20705C0145EF20D2
:101C6000E0210D45EF20104D6FE0BF8DEFE23F8B7F
:101C70001945EF20B04DBD451945EF20505A054597
:101C8000EF20C01F1945EF20F04A6FE09F8BEFE275
:101C90001F8989476308F5008D476300F5020145F8
:101CA0006FE03F8A9305004037150140130505C0DA
:101CB000EF30400D1375F50FE5B793050002EDB752
:101CC000EFE2FF8591E937150140C145130505C0D5
:101CD000EF30E00B6FE0FF8637150140C14513057B
:101CE00005C0EF30000BFDB7370500201305056672
:101CF0008280EFE2DF82EF50E040B707002023A2AE
:101D0000A766B707002003A5076601478D46114661
:101D10008145EF50C07E6FE0DF82EFE25F8003A776
:101D2000018793870187DC234111300095450145E8
:101D30003AC45C86EF202053EF202008B72800002B
:101D4000B72601402A87938828C00D488547938687
:101D5000C644054681450145EF20F04041016FE052
:101D60004FFEEFE2CFF84111EF2020052A8413093E
:101D7000E501AA84039504008904EF208047239F8E
:101D8000A4FEE39924FFB7D70000B7D9000037DAE3
:101D9000000083AB879DB7D70000832A0A9D03AB61
:101DA000499D03ACC79D938441BE01493E244A2806
:101DB0008D4DA6853E951E20137DF90F3E9533551A
:101DC000B503938C01BF42054181EF50702F63072B
:101DD000BD0791476309FD04EF90806F83250A9D3D
:101DE000131D2900669DEF80507583A5499DEF80E6
:101DF000D074DE852AC6EF805074B247AA8D03A541
:101E00000C01BE85EF90601CAA856E85EF80B03610
:101E10002320AD000509954709048904E318F9F862
:101E200041016FE08FF0EF90A06AD685EF80F070EF
:101E3000DA85EF80907023A8AC00E9BFEF9040698D
:101E4000E285EF80906F83A5499DEF80106FB7D733
:101E5000000083A5079EEF80607B23A6AC005DBFDA
:101E60000A05938701BFAA9788438280EFE22FE893
:101E700083A7C18179718149D8438147930647146B
:101E800091C60327C71419C39307C700370A002058
:101E9000232EFA64B7D7000003AB479EB7D70000E4
:101EA00083AB879EB7D7000003ACC79E814405442F
:101EB000130ACA65B72C0000628D0549094791478E
:101EC000630E2403630B04166305E418E31AF4FE9F
:101ED000EFF05FCFEF10A034EFE0FFF22945EF40C5
:101EE000D06737150140C145130505C0EF20706A62
:101EF0000544EFF0DFCFD1B71144C1B77D573400AF
:101F00001306F00F81450145EF504051A247918BD8
:101F1000CDD7EFF09FE0A9474C083ED23ED00D450B
:101F20009387ECC83ED622CCEF10706B1305B0201F
:101F3000EFE0BFD67D15133515002ACC4C080945B6
:101F4000EF10F069B7270000938707CC6C000145BC
:101F50003EC822CCEF101067138441C3138541C3E0
:101F6000EF50B01B13050401EF50301B138441C028
:101F7000DA85138541C0EF50B01713058400DA8568
:101F8000EF501017138441C1DE85138541C1EF5016
:101F9000501813050401DE85EF50B0178145014547
:101FA000EF10706885450545EF10F0673D64130636
:101FB00004A6A1469305007D0145EF30F00013060D
:101FC00004A689469305007D0545EF30E07F014575
:101FD000EF105072B7280000B73601402A87938867
:101FE000A8C40D488547938606C4054681450D451E
:101FF000EF2070170545EF10F06FB7280000B70607
:1020000000402A879388C8C60D4885479386860373
:10201000054681451945EF201015BD451945EF20AE
:102020009022BD450D45EF2010220145EF30805C28
:102030000545EF30205C014449B5B707002003A5F2
:1020400047660147894601468145EF50404B0944A8
:10205000ADB5BD450145EF208031EFE08FFD054571
:10206000EF40B04F014734001306F00F814509459A
:10207000EF50C03A0589E30205E4EFF09FCEEF1080
:102080003077638A2409ADC8E39984E237090020D8
:1020900013094965C94AD94D85455685EFE05FE08A
:1020A00083570900420541816385A7002310A900D9
:1020B0008549850A0909E391BAFF03A5C1BFEA85ED
:1020C000EF809036E35AA0E20D45EF109054E305FF
:1020D00005E24C080145EF10906A89476313F5004B
:1020E00085494C080545EF1090698947630AF50456
:1020F000639809048149D1B30D45EF109051E30E67
:1021000005DA03A5C1BFE285EF8010321345F5FF64
:102110009354F5015DB30945EFE03FB8AA85014549
:10212000292E0D45EFE07FB7AA85054539263715DD
:102130000140C145130505C0EF2070458944B5BB7A
:1021400083270A00C5DB9823759B98A365B7EFE248
:102150000FBD0945EF20807F0145EF306038054411
:102160000145EF300039E30D85FE37150140C145CB
:1021700013050580EF20B0416FE0AFBCEFE22FBA4E
:102180001145EF20A07C0545EF3080350545EF3047
:1021900040368547E30CF5FE37150140856513058C
:1021A00005C0EF20D03E6FE0CFB9854706063396D5
:1021B000C700060589473395A70001478147631289
:1021C000B702139507014181C1838145014763909F
:1021D000D502598D4183938641C5D98FEAA29EA627
:1021E00082800507C98F1377F70F0A05C9BF8505D8
:1021F000518F93F5F50F0A06D9BF3567130787A3EB
:102200002A971423B567938787A41397160093869C
:1022100041C5BA9613878185BA95AA979C2303C7AF
:10222000F5FF039806003317F700931707010547DA
:10223000C1876316E600B367F8009EA2828093C749
:10224000F7FFB377F800D5BF994763ECA708B567E8
:102250009387079F0A053E951841B707002093878B
:10226000C76602879A2393D65500AE05719B558F9A
:102270009AA3BA231377F77F4D8FBAA38280BA232C
:102280008E05137737C0CDBFBA2393D64500B2056C
:10229000619B558FBAA3DA23520751834D8FDAA37E
:1022A0008280DA23FD76FD06758F9605C5BFDA2399
:1022B00093D62500FD8A019B558FDAA3FA23BA0530
:1022C0004A0749834D8FFAA38280FA23F1769386D9
:1022D000F607758F9E05FDB7FA23137707F8D98D9A
:1022E000EEA38280370700209307C766BE2313073B
:1022F000C76609C593E707403EA3828093F7F7BFFF
:10230000C207C183D5BFEFE20F9F41112A89AE8476
:10231000014B63D50500B304B040054BB7470F0030
:102320009387F72337871E00A6971307E747636550
:10233000F704E1679387F76937170300A697130738
:10234000E7D3636FF70A89679387F7701567A697D6
:102350001307E7E16369F70A9387743E1307E07C8C
:102360006366F70A938734061307600C89498D4A20
:102370006366F700894A19A081499D4AB56B014AF5
:10238000938BCBA2294CB3E78403528513041A0024
:1023900032C61374F40FDE978C23EFF0FFEA324657
:1023A000B3C4840363978A063285EFF0BFF3630BEF
:1023B0000B0022859305000413042A00EFF0DFE8E8
:1023C0001374F40F994463F8840489476397F902FE
:1023D000B70700209387C766EA237177798D135773
:1023E00089001377F707598D11671E09130707F83E
:1023F0003379E90033652501EAA341016FE02F93AA
:102400008549994AA5BF8949954A8DBF8949914A0D
:10241000B5B7228A8DBF228581450504EFF0DFE242
:102420001374F40F4DB7370700201307C7661E2338
:102430000A058D8BC98F1EA38280EFE24F8E2E87F7
:10244000A14511E19145B56706079387C7A0BA97E3
:1024500092230945EF30C0470945EF30E04F6FE068
:102460004F8EEFE2CF8BB728000037070020B7462A
:1024700000409388C817094885471307C7669386A5
:10248000C6800546C1451145EF20E04DB728000044
:10249000B73601409388E81409488547138701C679
:1024A000B1060546C1450945EF20E04B6FE06F8955
:1024B000EFE2EF86371501408565130505C0EF2073
:1024C000500D91451145EF2000586FE08F87EFE2E6
:1024D0000F852946938541C5138501C6EF90601489
:1024E000B707002003D747679306700C93874767A9
:1024F00005074207418363E9E6089AA38A23930705
:10250000700C63F6A708938701C696276D771307AB
:10251000A7AA758F94433776F6DB130666DBF18E38
:1025200094C3D4433776AAAA130666DBF18ED4C3CC
:102530009AA7938701C683D887009566904313882E
:102540005655337818013717C927B768EDB7938800
:10255000D8B613079724718F3376160190C3D043F2
:10256000B76855559388D8B633761601CE23239491
:102570000701D0C313065009637FA60093869624F3
:10258000ED8E98C3D6A301A82390070085BF9307BB
:10259000F004E3E0A7FA37150140C14513050580B3
:1025A000EF20207F95450945EF20E0496FD07FF966
:1025B000EFD2FFF6EF007033EF50203EEFF06FC91F
:1025C000EF00B057EF007047EF40C04501A0828098
:1025D00099677390078001A0EFD27FF49C2141118D
:1025E0006147DC876360F70285479CC2482905463E
:1025F0009305F1001305250CEFE0CFEA01454101F9
:102600006FD03FF44145E5BFEFD27FF185479CC2D3
:10261000C829411132C61305250CEFE00FE83246F8
:1026200008A2014541016FD0DFF1EFD25FEF85478E
:102630009CC248292E8481456105EFE07F8608A071
:1026400001456FD01FF0EFD29FED05469C2190C24F
:1026500058294111DC87630DC70089466304D702FE
:1026600005469305F1001305A020EFE0AFE329A094
:102670003E85EFE01FA119E1014511A0414541014F
:102680006FD03FEC3E85EFE0FFA0F5B7EFD29FE7BC
:102690009C2123A0060040294111DC870549B6840E
:1026A000630C240331C40D4763648704AA893D4544
:1026B0006361F50285451305E4FFEFF01FD803C5FC
:1026C000490105469305F100EFE0CFDD23A0240189
:1026D000014541016FD05FE61D473D45E36BF7FEC5
:1026E00005469305F1000545EFE0CFDB80C0CDB78F
:1026F00005443D45E36FF4FC05469305F1001305E1
:10270000B020DDB71C2141115C871C31DC87288794
:1027100041018280EFD2BFE001112A842E8536C6A6
:10272000EFF05FFEB2468947E8879CC25C28054708
:10273000639BE700AA8513050021EFE06F94014534
:1027400005616FD01FE01385770609469305E10107
:102750000605EFE02FD5E5B7EFD27FDC01112A8423
:102760002E8536C6EFF01FFAB2468947E8879CC22D
:1027700048289305E101094606054505EFE08FD29B
:10278000014505616FD0FFDBEFD27FD901112A84AB
:102790002E8536C6EFF01FF7B24689471375F50F41
:1027A0009CC2E88748289305E10109460605130500
:1027B000B51DEFE02FCF014505616FD09FD8EFD257
:1027C0001FD64111AA8511466800EF8090653245F9
:1027D00041016FD01FD7EFD29FD401112A842E85DB
:1027E00036C6EFF0DFFDB24691472ACE9CC248289C
:1027F0006C081146130585070A05EFE0AFCA0145CD
:1028000005616FD01FD4EFD29FD1AA84DC283D4749
:102810002E853684636DF70085478C219CC2C828BD
:1028200013051521EFE0AF8601456FD09FD14547D5
:10283000636FF700EFF01FED89471CC0DC28AA8505
:102840009387F71013951700EFE08F83F1BFEFF038
:102850001FF791471CC0EFE00FE4F9B7EFD23FCC70
:1028600091479CC25C290D474111639FE7002E856B
:10287000EFF0FFF4488605466C003945EFE08FC263
:10288000014541016FD0FFCB1145E39CA7FE2E858A
:10289000EFF0FFF22AC611466C001305C020F9BF05
:1028A000EFD2FFC701112A8432852EC636C4EFF05D
:1028B0007FE5A246B24589479CC2E8878821094640
:1028C0009305E1017D150605229542054181EFE062
:1028D0006FBD014505616FD0DFC6EFD25FC42E86A4
:1028E000930545016D45EFF0BFFB6FD09FC5EFD25B
:1028F0001FC32E869305450113057002EFF05FFAA2
:102900006FD03FC4EFD2BFC12E869305450113059A
:102910003003EFF0FFF86FD0DFC2EFD25FC02E863A
:10292000930545011305F003EFF09FF76FD07FC1CA
:10293000EFD2FFBE2E86930545011305B004EFF0DC
:102940003FF66FD01FC0EFD29FBD2E869305450185
:1029500013057005EFF0DFF46FD0BFBEEFD23FBCC0
:102960002E869305450113053006EFF07FF36FD0F7
:102970005FBDEFD2DFBA2E86930545011305F00641
:10298000EFF01FF26FD0FFBBEFD27FB92E86930519
:1029900045011305B007EFF0BFF06FD09FBAEFD23B
:1029A0001FB82E869305450113057008EFF05FEF01
:1029B0006FD03FB9EFD2BFB62E8693054501130500
:1029C0003009EFF0FFED6FD0DFB7EFD25FB52E86A5
:1029D000930545011305F009EFF09FEC6FD07FB62A
:1029E000EFD2FFB32E86930545011305B00AEFF031
:1029F0003FEB6FD01FB5EFD29FB285479CC24829ED
:102A000091472E84631AF5001305B020EFE0EFA87C
:102A100008A001456FD0FFB23305A04042054181B7
:102A2000F5B7EFD2DFAF1C21054741112E8463912A
:102A3000E7020D453306A6029CC21305460E420569
:102A40004181EFE08FA508A0014541016FD07FAF24
:102A500009476391E7020D453306A6029CC21305A0
:102A6000560E42054181EFD07FE49357850008A0C0
:102A70001CB0D9BF91479CC20821B7070040F51789
:102A80003E95D1473306F60232950A051305D50E59
:102A900042054181EFD09FE22AC611466C00228593
:102AA000EF80303855B7EFD29FA701465105EFF0C0
:102AB0005FF76FD01FA9EFD29FA605465105EFF033
:102AC0005FF66FD01FA8EFD29FA509465105EFF022
:102AD0005FF56FD01FA7EFD29FA4054798C25C296E
:102AE0002E84638CE7000947130590206384E70078
:102AF0001305A020EFE06F9A19A0EFE02FD808A0EF
:102B000001456FD01FA4EFD2FF9F03490500854701
:102B10004111AE843284368A631CF9028C213285DD
:102B2000EF104018BD470DE10D453305A4029C2070
:102B3000054623202A015C841305450E42052C001E
:102B40004181EFE02F9681473E8541016FD0DF9EA6
:102B50008947631FF9002E85EFF0DFBA68840D45C1
:102B60003305A40223202A0109461305550EF9B79F
:102B7000AA892E85EFF0BFC491472320FA002AC20C
:102B800003C50900B7070040F5173E95D147B307C5
:102B9000F40211464C003E950A051305D50E420578
:102BA0004181EFE02F909244139504014181EF8021
:102BB00030122AC613D50401EF809011B7D7000058
:102BC00083A5878FEF70305B03C609002AC42C00F1
:102BD0007D16420641822285EF10E01781472DD5F0
:102BE000BD479DB7EFD2BF9301465105EFF0BFF14E
:102BF0006FD03F95EFD2BF9205465105EFF0BFF081
:102C00006FD03F94EFD2BF9109465105EFF0BFEF6F
:102C10006FD03F93EFD2BF90894701111CC22EC6DF
:102C2000EFD0DFC8B2459357850088A19CB101451C
:102C300005616FD01F91EFD29F8E36866D45EFF004
:102C40007FFD6FD01F90EFD29F8D368613057002E7
:102C5000EFF05FFC6FD0FF8EEFD27F8C36861305CE
:102C60003003EFF03FFB6FD0DF8DEFD25F8B368606
:102C70001305F003EFF01FFA6FD0BF8CEFD23F8A3D
:102C800036861305B004EFF0FFF86FD09F8BEFD2BC
:102C90001F89368613057005EFF0DFF76FD07F8A46
:102CA000EFD2FF87368613053006EFF0BFF66FD000
:102CB0005F89EFD2DF8636861305F006EFF09FF5C9
:102CC0006FD03F88EFD2BF8536861305B007EFF08F
:102CD0007FF46FD01F87EFD29F843686130570086C
:102CE000EFF05FF36FD0FF85EFD27F833686130559
:102CF0003009EFF03FF26FD0DF84EFD25F8236868B
:102D00001305F009EFF01FF16FD0BF83EFD23F81C1
:102D100036861305B00AEFF0FFEF6FD09F82EFD237
:102D20001F8089479CC248292E844111854545054D
:102D3000EFE00F979357850008A01CB001454101B3
:102D40006FD03F80EFD2AFFD91479CC2482941111F
:102D50002E84130585070A05EFD05FB62AC66C00DE
:102D600011462285EF80F00B014541016FD06FFDC8
:102D7000EFD2EFFA89479CC2482901112EC60605F9
:102D80001305B51DEFD09FB2B2459357850088A1BA
:102D90009CB1014505616FD0CFFAEFD24FF889475A
:102DA0009CC2482901112EC606054505EFD01FB06B
:102DB000B2459357850088A19CB1014505616FD04C
:102DC0004FF8EFD2CFF591479CC25C2909474111DA
:102DD0002E846386E7020D476387E70205471305E4
:102DE000C020639FE700EFE04F832AC66C001146C6
:102DF0002285EF801003014541016FD08FF4194502
:102E0000EFD0DFABDDB73945EFD03FE9F9BFEFD207
:102E10000FF189479CC24829854741112E84631EC2
:102E2000F50013050021EFD07FA89357850008A077
:102E30001CB0014541016FD0CFF0130575060605A2
:102E4000DDB783A7C181DC431387C71271EB3567F8
:102E5000130787AB23A0E7141387471471EB35677B
:102E6000130787AC23ACE7141387C71571EB3567DD
:102E7000130787BC23A8E7161387471771EB35673D
:102E8000130787B423A4E7181387C71871EB3567B6
:102E9000130787B623A0E71A1387471A71EB356724
:102EA000130787B823ACE71A1387C71B71EB356785
:102EB000130787BA23A8E71C1387471D71EB3567F3
:102EC000130787AF23A4E71E1387C71E71EB35676F
:102ED000130787B123A0E7201387472071EB3567DD
:102EE000130787A923A2E7221387872271EB35678F
:102EF000130787AE23AEE7221387072471EB3567EC
:102F0000130787A523AAE7241387872571EB356765
:102F1000130787A723A6E7261387072771EB82806D
:102F20003567130787BF23AAE7121387871305F3B3
:102F30003567130787A823A6E7141387071505F33A
:102F40003567130787BE23A2E7161387871605F395
:102F50003567130787B323AEE7161387071805F302
:102F60003567130787B523AAE7181387871905F371
:102F70003567130787B723A6E71A1387071B05F3DF
:102F80003567130787B923A2E71C1387871C05F34E
:102F90003567130787BB23AEE71C1387071E05F3AE
:102FA0003567130787B023AAE71E1387871F05F32A
:102FB0003567130787B223A6E7201387C72105F3D8
:102FC0003567130787AD23A8E7221387472305F347
:102FD0003567130787AA23A4E7241387C72405F3BB
:102FE0003567130787A623A0E7261387472605F32F
:102FF0003567130787BD23ACE72615B7B71702401F
:103000009843B706FFF841111367170098C3D843D8
:1030100037060200758FD8C39843B706F7FEFD1632
:10302000758F98C39843B706FCFFFD16758F98C33C
:10303000D843B70681FFFD16758FD8C337079F00A9
:1030400098C702C402C69843C166558F98C3B71685
:10305000024005679C42F18F3EC6A24785073EC4E9
:10306000B24781E7A247E397E7FEB71702409C43C8
:103070001397E7006359070685473EC632478547E1
:103080006311F706B7170240D843B706C1FFFD1614
:1030900013670708D8C3D843D8C3D843136707407A
:1030A000D8C3D843758FD8C3D843B7063D00558FD2
:1030B000D8C39843B7060001558F98C39843931619
:1030C0006700E3DD06FED843B7160240719BD8C304
:1030D000D84313672700D8C32147DC42B18BE39E56
:1030E000E7FE4101828002C651BFB7160240DC42B2
:1030F000370700201146B18B1307875A6385C70035
:1031000021466388C702B7177A00938707201CC33C
:10311000B7170240DC43918393F6F700B70700200E
:1031200093870700B69794231C43B3D7D7001CC3DB
:103130008280DC42D4424166C983BD8BF18E89070F
:1031400045466393C700C94781EEB746024083A650
:103150000680C18A89CEB7167A009386062021A8F8
:10316000B7160240D4421396E600E35606FEB716A1
:103170003D0093860690B387D70251BFEFD28FB838
:10318000C16441113709002009440D4A8D4AFD14DC
:103190008327896793098967638E87046380470360
:1031A000E5FFEFD06FF3EFF0CFABEFE09FB4EFE0D0
:1031B000AFB0EFF01FC923A05901D9BF7D577400EC
:1031C000014681450145EF406025B247E39287FC07
:1031D000268681450145EF40006BEFD0CFC1084105
:1031E000EF30207AEFD0CFC10841EF30807923A0B3
:1031F000890079BF1305401FEF303036EF2060772C
:1032000041BFB72700209387C7681CC1B72700209C
:103210009387C7489CC1930700081CC28280EFD2E5
:103220000FB0EFD0EFBD0841EF30F041EFD0AFBCB1
:103230000841EF3050416FD0CFB0EFD24FAEEFD05A
:10324000FFC42A8437280020B7270020B7D5000004
:10325000371500001308C8199387C7D91947854641
:1032600013060010938585C01305054EEF300067E7
:1032700008C0EFD0EFB82A84B7D5000037050000AA
:103280001388C1069387C1C61147854613060010EF
:10329000938545C11305657AEF30406408C0EFD0CF
:1032A0008FB52A8437280020B7170020B7D5000033
:1032B000370500001308C8AE9387C7E61547854653
:1032C00013060032938545C213054561EF30006156
:1032D00008C0EFE07FA12A8437280020B72700200C
:1032E000B7D5000037250000130848D4938747B4AA
:1032F0002147854613060008938585C31305C5E657
:10330000EF30C05D08C037280020B7270020B7D5B0
:103310000000373500001308483F9387471F2547B3
:10332000854613060008938545C41305C517EF307D
:10333000E05AEFF0DFEE6FD0CFA0EFD24F9EEFD08C
:10334000AFCEB7260020372600202A840147938677
:10335000466E1306C64491454145EF20F04308C030
:103360006FD02F9E01A001A001A001A001A001A08B
:1033700001A001A001A001A001A001A001A001A045
:1033800001A001A001A001A001A001A001A001A035
:1033900001A001A001A001A001A001A001A001A025
:1033A00001A001A001A001A001A001A001A001A015
:1033B00001A001A001A001A001A001A001A001A005
:1033C00001A001A001A001A001A001A001A001A0F5
:1033D00097E1FF1F9381819D17210020130181C276
:1033E00017A500001305857E97D5FF1F938585C11E
:1033F0001386818763FAC5008322050023A0550048
:1034000011059105E3EAC5FE17D5FF1F13058521B8
:1034100097050020938585CE6377B50023200500AE
:103420001105E36DB5FEFD42739002BC89427390B5
:103430004280B72200009382028073A0023097D2AC
:10344000FFFF9382A2BF93E2320073905230EFF0FD
:10345000FFBA97F2FFFF9382E21573901234730064
:1034600020301C4589C593E717001CC58280F99B55
:10347000EDBF08450D8105898280084509810589D0
:103480008280EFD2CF8901112A8423030100A54451
:103490001C8363FAF40623030100A54621461C831E
:1034A00063F0F60A23140100231501002303010031
:1034B0009546130600601C8363FEF60E1C8393F78B
:1034C000F70F63840712388414833C840C831083C1
:1034D0003347D702B3E7B7028607B3C7C702BA9725
:1034E000C207C1837C84188399479546998F93F7C7
:1034F000F70FDC839C8393F7F70F639C07108567B6
:10350000938707800DAA1C4493E787001CC422857B
:10351000EFF03FF66DFD1C4493E747001CC4228585
:10352000EFF0BFF56DFD78441C8314108607B69745
:103530002396E7FE1C83850793F7F70F5C8389BF0B
:10354000A30301009C836378F6001C83850793F72F
:10355000F70F5C83A9B798839C830C100607850737
:1035600086072E97AE970357C7FE83D7C7FE63FD26
:10357000E7029C838607AE9783D7C7FE7C849C8333
:10358000988385078607AE9783D5C7FE93171700E4
:103590001810BA972396B7FE9C8338840C108507C1
:1035A0008607AE972396E7FE9C83850793F7F70F70
:1035B000DC8349BF1C83181089078607BA9783D715
:1035C000C7FEE36DF6EE1C830C103884890786076E
:1035D000AE9783D7C7FEBA97C207C1837C841C838A
:1035E000850793F7F70F5C83F9B593070040DDBDBE
:1035F0001C831010388589078607B29783D7C7FECA
:10360000BA97C207C1837C851C83850793F7F70FA0
:103610005C831C83E3FEF6FC388594833C858C83B5
:1036200090833347D702B3E7B7028607B3C7C70211
:10363000BA97C207C1837C85288434852C84308561
:10364000056793070040130707803385A740B3063B
:10365000D7408D8F118F4205C206C2074207C1862F
:1036600041874185C1873695BA9789463345D5024A
:103670000561B3E7D7023E95420541856FC07FECF7
:10368000B70702409C437D8D3335A0008280EFC296
:103690001FE9EFF0FFFE6FC0DFEAB7070240C8C3C3
:1036A0008280B7070140635A0504DC4F9356050139
:1036B000131805013707300013F6F60013580801F8
:1036C000B376E500635E05066399E604930606019A
:1036D0000D46B316D60093C6F6FFF58F99C913575A
:1036E00055011377F73F12073317E800D98F635559
:1036F0000506370701405CCF828037270240145B04
:10370000DC433707000F758F55F313D71700F97691
:10371000CE07758FCD83D98F51BF1317B500635670
:1037200007008D46B396C6007DB713575501137732
:10373000F73F12073317E8001347F7FFF98F79BFF8
:103740006390E602370601405442370700F17D17C7
:10375000F98F758F58C2C1F5370701405CC382806D
:103760001317B500635C07008D46B396C60093C679
:10377000F6FFFD8EB707000FD58FF1BF1357550128
:1037800012073317E8001347F7FF7D8FB707000FC5
:10379000D98FD1B75E2589C593E717005EA58280D2
:1037A000C207C183F99BC207C183CDBF93C5F5FF93
:1037B000C205C1814EA98280B7170240238007024B
:1037C0002380070205476306E50011476306E5000D
:1037D00082802380A702828015472380E7028280AF
:1037E000371702405C439146B18B6385D700A146F1
:1037F0006382D706B7177A00938707201CC1371654
:1038000002405C4237070020130707019183BD8BFC
:10381000BA9794231C41B3D7D7005CC15442A1820C
:103820009D8ABA969422B3D6D70014C55442AD826D
:103830009D8A36971823B3D7E7005CC55842398371
:10384000937637001387418036971823B3D7E70262
:103850001CC982805C435843C166C983BD8B758F88
:103860008907C5466393D700C94701EF3747024030
:1038700003270780418B09CF37177A0013070720EA
:1038800021A83717024058439316E700E3D606FEF7
:1038900037173D0013070790B387E70285B79357A3
:1038A000550005476399E700B71702409C4333D59D
:1038B000A7000589828009476396E700B717024091
:1038C0009C53F5B7B7170240DC53D5B7B737004064
:1038D00003D74780136707012392E7808280373739
:1038E000004083574780C207C183BD9BC207C18385
:1038F0002312F7808280EFC29FC241112AC6EFF0E7
:10390000FFFC3245B7370040135705013D8B420598
:103910002394E78041812396A780EFF05FFC41016B
:103920006FC03FC2373700408357478093F7070285
:10393000E5DF82803737004083574780C207C18365
:10394000DD9BC207C1832312F780373700408357BE
:103950004780A18BEDDF82801E31922103D82500A4
:10396000C207C183F99BC207C1831EB11E31562114
:103970001A2DC207C183420741831377C7F8518FBD
:103980009225F59BC20633660601D18F373601407A
:10399000130606C0C1826310C502B225DD9B03D8A1
:1039A000E500D18FD221ED9B93F6F6CFD18FD225B2
:1039B00033660601D18E56A11AADFA215AB91EB14D
:1039C00082801E3165771307F7CFC207C183BD9B85
:1039D000C207C1831EB11E31562103D88500C2071C
:1039E00013960601162DC18393F7F7FD758F962167
:1039F0004182A206558FB62142074183B3E60601F4
:103A00009206D58FB7360140C207938606C0C183A0
:103A1000631ED502B62593F7F7F703D8C5009206C3
:103A2000D58FD621C207C183920693F7F7FBD58FB6
:103A3000FD769386F63FF18EF225C207C183336689
:103A400006010A06D18E13960601418252A11AADD3
:103A5000FA211ABD1EB182801E3103D88500C2072B
:103A6000C18393F7F7EFC207C1831EB11E31562100
:103A70005A2DC207139606014207962141831377F8
:103A8000C7F8558FB621C18393F7F7DFB3E6060178
:103A9000A206D58FB7360140C207938606C0418281
:103AA000C183631FD502FD769386F67FF58FB62519
:103AB00003D8C500A206D58FD621C207C183A206AE
:103AC00093F7F7BFD58FF576FD16F18EF225C20775
:103AD000C183336606011206D18E13960601418218
:103AE00052A15AADFA215ABD1EB182801A31FD771A
:103AF000FD17F98F1EB10358050256215E2D65771B
:103B000092211307F7CF7D8FF9772206FD17518F8A
:103B1000B3F70701B22103D88500C2064207336616
:103B200006013206D18F37360140C207130606C0A0
:103B3000C1824183C183631AC50071767D16F18EFF
:103B4000D2251A06D18EC206C18256A15AADFA21DB
:103B50002310E5041EB182801E2DC207C183DD9BA8
:103B6000DD8D0EAD82801A2DFD779387F77FF98F5B
:103B7000A205CD8FC207C1831EAD82805E2DC20714
:103B8000C183DD9BDD8D4EAD82805A2DFD779387FD
:103B9000F77FF98FA205CD8FC207C1835EAD82800A
:103BA0001E294A25ED8F4205418189C76D8D333528
:103BB000A00082800145828093F5F51F4EA182808E
:103BC0000A216D8D3335A0008280B72700209387AE
:103BD000C77523A0070023A2070023940700B72777
:103BE00000209387C77423A0070023A2070023A403
:103BF000070023960700B7070020239E07668280F0
:103C0000EFC25F9093171500372500201305C57587
:103C10003E95834905002E89638609060031B72445
:103C2000002093848476A299139A0901135A0A01F9
:103C3000B14A93170401C18363E6470313090000E7
:103C40006312FA041384F7FFB1473304F402B72771
:103C50000020938787763E940C404840EF70E00D3B
:103C60000C4431A8228BCE87631134033147B387CC
:103C7000E7024A85BE94CC40EF70200C8C44EF6084
:103C8000F0182A894A856FC03F8B0504B307540397
:103C90004A85A69783A547FFEF706001E34BA0F824
:103CA000DA87E9B785476381F504B7270020060561
:103CB0009387C775AA97982315E337070020130742
:103CC000C7671223130840060545B306B600634EC6
:103CD000D8008CA390B316A301458280FD15014541
:103CE0006305B700094582800D458280EFC29F8140
:103CF0004111AA892E893A85BE853684B2843EC692
:103D00003AC4EF70802C2A8AA2852685EF70E02BBA
:103D1000AA855285EF603046224723A0A900A285DC
:103D20003A85EF708001B247AA89A6853E85EF707B
:103D3000C000AA854E85EF704029AA89A6852285F4
:103D4000EF70A028AA854E85EF60F0422320A900DD
:103D500041016FC06FFE9317150037250020130532
:103D6000C5753E951C216378F604EFC24FFB003108
:103D7000B1472E8922961314060141803304F402C0
:103D800003270900832789008326C90003264900E9
:103D9000B72400209384847693058400130544009F
:103DA0002695A695EFF09FF48327C9002694014538
:103DB0001CC06FC00FF9094582803725002013050C
:103DC000C5728280931735003705002013050568FA
:103DD0003E95DC41230005005CC101458280F1472E
:103DE0003305F502B7370020938747C5D8413E9584
:103DF0009C4958C17D171CC9DC453337E0005AA9DE
:103E00005CC59C4DA30B0500232405001CCD01457A
:103E10008280F1473305F502B7370020938747C505
:103E2000AA97C82B8280EFC28FEFF1473305F502C6
:103E3000B7370020938747C509473D46AA97130522
:103E4000C0023385A502D8C3373700201307C7BD8A
:103E500023AA070081453304A700090580C3232254
:103E600004023A95EFC0AFEEB7D7000083A747C56D
:103E70002320040205451CD46FC0AFECEFC22FEA2B
:103E8000F146B306D502B7370020138747C5AA8489
:103E90003D650146138447C5130505A636971443AF
:103EA00023A0060213872600F906035827001E23C5
:103EB000B305F84063D60500B307F540B3850701A5
:103EC00009072E96E393E6FE3D453355A602B73724
:103ED0000020938747C393954400BE95EF3010258B
:103EE000F147B387F4020547A2979C4388D3D8D300
:103EF0006FC02FE5F1473305F502B73700209387F0
:103F000047C5AA97884309058280EFC24FE1F14770
:103F10003305F502B7370020938747C53E9500412A
:103F200029CC5841894701456317F7041C50A1C7A4
:103F30003E85EF70E059B7D7000083A5C7C4EF6096
:103F4000D05FB7D70000AA8503A547C5EF60B022B0
:103F5000B7D7000083A507C5EF60305EEF708045DE
:103F600042054181EF70604A0C54EF60105DEF70C4
:103F70006044420541816FC0CFDC0145EDBFEFC217
:103F80006FD871443305850237340020130444C5CB
:103F90002A94832904001C480D4583A409026387E1
:103FA000F40426852E89EF70A052B7D7000083A5B0
:103FB000C7C4EF609058B7D70000AA8503A547C5CE
:103FC000EF60701BEF70003F9307C0033305F502ED
:103FD00042054181EF70604383A58902EF60F0558F
:103FE000EF70403D2310A90004C809456FC0CFD42D
:103FF000EFC24FD137340020130444C581448949AE
:10400000130A703E854A11495C40638B37051C4C8E
:104010002685829778386302A7041C4485071CC450
:104020001DEB18486379F7005C4068B893C7F7FF49
:10403000858BA98F5EA8850493F4F40F7104E39532
:1040400024FDB707002093870768D8438C230145D8
:1040500002976FC06FCE5844F1B723240400E1BF2C
:104060005E288507C207C1836364FA005EA8E1B7D2
:104070001C40231A0400D8536315570123A20702DA
:104080005DBF23A0070245BF37350020130545CC8F
:10409000828085673307C5009387078063C9E70679
:1040A000EFC24FC6AA843284094525C2373A0020A0
:1040B000AE8A8149414B130A4ACC93F7F400B30707
:1040C000FB40C207C183228963F387003E898327AF
:1040D0004A0242091359090133863A01A685CA8664
:1040E0001305000A330424418297CA994204CA94F2
:1040F0001545C209C2044180EF20304693D9090119
:10410000EF103007C18055F801456FC0EFC2094577
:10411000828085673307C5009387078063C2E708FD
:10412000EFC26FBDAA844111328409453DC6B7393B
:1041300000202E8AB68A814B414B938949CC93F754
:10414000F400B307FB40C207C183228963F38700F1
:104150003E89420913590901194CB30C7A0103A88D
:104160000902D6872947CA866686A6851305000AEE
:10417000029801C92AC67D1CEF10A07F3245E310CA
:104180000CFE33042441CA9B4204CA94C20BC204ED
:10419000418093DB0B01C1805DF041016FC02FB9FD
:1041A0000945828085673307C5009387078063C30D
:1041B000E702EFC2CFB637370020032807CEB68715
:1041C00013074006B2862E86AA851305000A0298B8
:1041D0006FC02FB709458280EFC26FB44111AE8620
:1041E00005469305F100EFF0FFFB888741016FC0A2
:1041F0004FB5B70700200397876881472A97634F19
:10420000070009CD05669306F6FFB6876358C70019
:10421000AA876305D50093170701C1833E85828075
:104220008D47B387F502032805011D473317F700B3
:104230001347F7FFB396F60033770701D98E14C9F9
:10424000994763E1C70295477D163306F602585930
:10425000FD47B397C70093C7F7FFF98F3396C500A3
:10426000D18F5CD98280EFC2EFA9AE84328919ED7B
:10427000B7170240D84713670720D8C7D847137726
:10428000F7DFD8C7984F1367072098CFB7160240BB
:10429000DC4251777D17F98F3167D98FDCC29317D4
:1042A00025001385C1853E9500413707F1E01307CE
:1042B000F7EF5C40B569938989C5F98F93E70710DB
:1042C0005CC01C4437F7F1FF1307D77FF98F37071E
:1042D0000E000907D98F1CC45C54370710FF7D17E7
:1042E000F98F37074000D98F5CD481476393F40678
:1042F0001C4437071000D98F1CC41C44370700FC2E
:104300007D1793E707101CC41C4493E717001CC4D7
:104310005C40F98F5CC01C4493E787001CC4228575
:10432000EFF02F956DFD1C4493E747001CC42285D8
:10433000EFF0AF946DFD2285EFF0AF94B70700204A
:104340002394A7685C4037070004D98F5CC06FC016
:10435000AF9E138A1700CA979C239D461376FA0FC7
:10436000CE978C232285EFF0BFEBD28741B7EFC207
:104370000F9BAA846D2537270140832787408945F5
:10438000268593E707102324F740F5572320F740AD
:1043900013040740712D2685712B1C4437075000EC
:1043A00093E717001CC41C44D98F1CC46FC06F99BD
:1043B000B737002023A8A7CE8280B737002023A6D6
:1043C000A7CE8280B737002023AAA7CE8280B71756
:1043D0000240944BB7080002370800FEB3E616010E
:1043E00094CB944B7D18B3F6060194CBD84F33672A
:1043F0001701D8CF9307400651476305F50263E7DD
:10440000A70ED1471307C012630EF50093072003D0
:10441000130780076308F500A94713078025630386
:10442000F5004147B767004083A607404165F59A0C
:1044300023A0D74083A6074093E6160023A0D740C9
:1044400093860740DC42858B99E37D1565FDC84264
:10445000B767004005894DC903A507407D179387BD
:1044600007401375F5F788C388431365050488C3AF
:1044700088431375F5FD88C388431365050188C318
:1044800088435D9988C388436D9988C337054B037A
:10449000498FD8CE9843799B98C34167D443858A86
:1044A00099C27D1765FFD843058B39EFEFC22F877F
:1044B000D84B130540022E8413673741D8CBB28402
:1044C000EF00B0642686A28513055002EF00F0636A
:1044D0002686A28513053002EF0030632686A2856A
:1044E00013056002EF0070626FC0AF859307401F35
:1044F0001147E309F5F29307803E0947E304F5F21B
:104500009307A00F214721BF8280B767004003A710
:104510000740054693870740719B1367170098C3B0
:104520004167D4438D8A6384C6007D177DFBC843F1
:104530000D897D15133515008280B767004003A7EC
:10454000074093870740719B98C34167D4438D8A86
:1045500099C27D1765FFC8430D8913351500828008
:10456000EFB2FFFB4421411100419305550026861F
:104570002800EF70000BB767004003A7874013596E
:10458000E400137929009316570063CE060693873B
:10459000074098479316470063C906069C47114594
:1045A00013973700635E0704094537670040130718
:1045B000074093174500BA9703A7071856043364BA
:1045C0002401058B23A0E71803A70718BD88598C81
:1045D00023A0871803A74718419B23A2E71803A726
:1045E0004718D98C224723A2971823A4E7183247EB
:1045F00023A6E71803A707181367170023A0E718D7
:1046000041016FB01FF401454DB7054579BFB7684B
:10461000004013880840032E082005433313A300ED
:10462000136E1E002320C821832EC821134EF3FFD2
:104630009605B3FECE01232ED821832EC820C205B5
:104640009606B37EDE015606C1810E05C2062326FC
:10465000D8214295C1824D8E5607558F2320C524FF
:104660002322E52437270240145B3707000F758F9C
:1046700019EB1387083016231107C206C182231EC7
:10468000D7EEE31A07FF376700401307074083267A
:104690004720B3E666002322D7208DE783274721F2
:1046A000337EFE00232AC721B767004003A7C761F6
:1046B0003363670023AE676003A70760799B23A07D
:1046C000E760828083274721B3E76700232AF7202A
:1046D000E1BF376700409317450013070740BA97BB
:1046E00083A6071B13F6460059EA83A6071B03A8F7
:1046F000071B83A8471BD5821378280093F8F8007E
:104700002382150183A8871BA382150183A8871B19
:1047100093D888002383150183A8871B93D80801A9
:10472000A383150183A8871B93D8880123841501CF
:1047300083A8C71BA384150183A8C71B93D888002F
:104740002385150183A8C71B93D80801A3851501EC
:1047500083A7C71BE183DCA511ED5C4793E7070244
:104760005CC7630308002166D18E94C123970500BE
:10477000014582801C4B93E707021CCBDDB7054542
:10478000828039713ACE41673ECC06DE16DC1ADAF9
:104790001ED82AD62ED432D236D042CA46C872C6C5
:1047A00076C47AC27EC013071710B767004023A4EF
:1047B000E740B737002083A707CF8297F250E25235
:1047C0005253C2533255A255125682567247E2478F
:1047D0005248C248324EA24E124F824F216173009E
:1047E000203039713ECCB737002083A7C7CE2AD6F8
:1047F0003ACE06DE16DC1ADA1ED82ED432D236D0E5
:1048000042CA46C872C676C47AC27EC00145829743
:10481000B7670040214723A6E740F250E2525253C7
:10482000C2533255A255125682567247E247524839
:10483000C248324EA24E124F824F21617300203087
:1048400039713ECCB737002083A7C7CE2AD63ACEDF
:1048500006DE16DC1ADA1ED82ED432D236D042CA80
:1048600046C872C676C47AC27EC005458297B767CD
:104870000040214723A8E740F250E2525253C2536E
:104880003255A255125682567247E2475248C248E4
:10489000324EA24E124F824F216173002030397187
:1048A0003ACE3ECC06DE16DC1ADA1ED82AD62ED434
:1048B00032D236D042CA46C872C676C47AC27EC0E8
:1048C0001147B767004023A2E740B737002083A70E
:1048D00047CF8297F250E2525253C2533255A255FB
:1048E000125682567247E2475248C248324EA24E92
:1048F000124F824F216173002030EFB25FC2131458
:1049000025000945411133158500EFE05FD8854743
:10491000631FF500B7370020938787CFA2979C438A
:104920002AC68297324533158500EFE01FD7410133
:104930006FB03FC1B70700200A0593870702AA9707
:1049400098431C4393E717001CC38280B7070020DD
:104950000A0593870702AA979443416779179C42F7
:10496000F98F9CC28280EFB2FFB937130240AA844C
:10497000032543014111814913651500232AA30032
:1049800041456393A500C14959C285456304B608F2
:104990008565130900201384058037350020139A9C
:1049A0002400130585CF529523201501268542C684
:1049B0003EC43AC236C0EFF07FF937050020130538
:1049C00005025295084161763D060C418568938841
:1049D0000808F18DB3E52501B3E53501C18DB3E5D7
:1049E000150182460CC112472322050014C558C583
:1049F00018413248A2471367270018C14286BE8576
:104A00001385B401EF00701041016FB0FFB201498E
:104A1000014461B71309001013040040BDBFB7077C
:104A200000200A0593870702AA979C43CCC3828083
:104A3000B70700200A0593870702AA9798431C43EB
:104A4000DD8D0CC38280B70700200A05938707021B
:104A5000AA979C43CCC398431367170098C38280DE
:104A600039712AD6014506DE16DC1ADA1ED82ED494
:104A700032D236D03ACE3ECC42CA46C872C676C48E
:104A80007AC27EC0EFF07FE7F250E2525253C25337
:104A90003255A255125682567247E2475248C248D2
:104AA000324EA24E124F824F216173002030397175
:104AB0002AD6094506DE16DC1ADA1ED82ED432D2E2
:104AC00036D03ACE3ECC42CA46C872C676C47AC206
:104AD0007EC0EFF09FE2F250E2525253C253325581
:104AE000A255125682567247E2475248C248324E89
:104AF000A24E124F824F21617300203039712AD6A5
:104B00000D4506DE16DC1ADA1ED82ED432D236D087
:104B10003ACE3ECC42CA46C872C676C47AC27EC07D
:104B2000EFF0BFDDF250E2525253C2533255A2555C
:104B3000125682567247E2475248C248324EA24E3F
:104B4000124F824F21617300203039712AD61145EE
:104B500006DE16DC1ADA1ED82ED432D236D03ACE81
:104B60003ECC42CA46C872C676C47AC27EC0EFF056
:104B7000DFD8F250E2525253C2533255A255125668
:104B800082567247E2475248C248324EA24E124FF6
:104B9000824F21617300203039712AD6194506DE13
:104BA00016DC1ADA1ED82ED432D236D03ACE3ECC0B
:104BB00042CA46C872C676C47AC27EC0EFF0FFD33E
:104BC000F250E2525253C2533255A25512568256F7
:104BD0007247E2475248C248324EA24E124F824FAD
:104BE000216173002030B7170140138707806319D4
:104BF000E500371702401C4F93E747001CCF828027
:104C0000938707C0E31DF5FE371702401C4F93E75B
:104C10008700EDB793F7060113F8F60099C33368E0
:104C2000C800B7170140631AF500B7270240985B28
:104C3000B707000FF98F91E3B58193F7F50FB9C36B
:104C40001C410147854E3D4F930F80029302800423
:104C5000214E3396EE00B3F8C50063111603931886
:104C6000270033131F011343F3FFB377F300B31887
:104C70001801B3E7F800639FF60550C90507E31A6A
:104C8000C7FD1CC19307F00F63F5B70458412146D7
:104C9000854E3D4F930F800293028004414EB3989E
:104CA000CE00B3F715016392F8029317260081171F
:104CB0003313FF001343F3FF3377E300B317F80018
:104CC0005D8F639DF601232A15010506E319C6FDD4
:104CD00058C18280E39456FA10C94DB7E39756FE47
:104CE00023281501DDB7EFB29F8341112A842EC618
:104CF000EFF07FEFB245C14609462285EFF09FF104
:104D000041016FB01F84EFB29F8141112A842EC6EA
:104D1000EFF07FEDB24581460D462285EFF09FEF23
:104D200041016FB01F82EFB28FFF41112A842EC65E
:104D3000EFF07FEBB24591460D462285EFF09FEDF7
:104D400041016FB01F80EFB28FFD411132C636C4F2
:104D50002A84AE84EFF03FE93246A24601CE3717EF
:104D600002401C4F8545328593E717001CCFEFE0CA
:104D70005F93A2460D46A6852285EFF0BFE941016B
:104D80006FB02FFC08456D8D3335A00082800CC9B3
:104D900082804CC98280B707002083A7C768984BE0
:104DA0001E2393E717001EA38280B707002083A766
:104DB000C768984B1E2393E707201EA38280B7077E
:104DC000002083A7C768984B1E2393E707101EA3F4
:104DD0008280B707002083A7C7689C4B8AAB82807C
:104DE000EFB24FF2B70400201389C468032409000E
:104DF000BA899384C4681CA076A050C44EA0231422
:104E0000040028B0EF2000308327090048C8054778
:104E100098CFEFF05FF8832709009C4B962F898A83
:104E2000F5FE962393E6064096A3EFF05FF99440D3
:104E30004E86FD55984A5E2393E707705EA388224D
:104E4000EF2080529C40984B5E23C207C18393F7AA
:104E5000F78FC207C1835EA31E23C207C183F99BDC
:104E6000C207C1831EA3054781476303E50091473D
:104E70003E856FB06FECEFB2EFE8B7040020138906
:104E8000C46803240900BA899384C4681CA076A06E
:104E900050C44EA02314040028B0EF20A02683277E
:104EA000090048C81D4798CFEFF0FFEE832709009F
:104EB0009C4B962F898AF5FED62393E60670D6A3DF
:104EC000EFF0FFEF9C404E86FD558823EF20C04950
:104ED0009C40984B5E23C207C18393F7F78FC207AC
:104EE000C1835EA31E23C207C183F99BC207C1838E
:104EF0001EA3814711E18D473E856FB0EFE3EFB20E
:104F00006FE037040020AE84B2893689EFF0BFE845
:104F10008327C4681304C468984B1E2F898BF5FF40
:104F2000EFF0FFE914409C4ADA2B058B75DFB832AD
:104F30001377E70F9AABDA2B098B75DF9E2F13D50A
:104F400084007D89EFF0FFE81C40984B5E2B93F7BF
:104F50000708EDDF13F5F40FEFF0BFE71C40984BA7
:104F60005E2B93F70708EDDF814463E72401EFF040
:104F7000DFE301456FB04FDCB38799008823EFF082
:104F80005FE51C40984B5E2B93F70708EDDF850427
:104F900093F4F40FD9BFEFB28FD837040020032762
:104FA000C468411102C6084B144F2D465E29FD16F8
:104FB0006361D60435668A061306C6C6B296944265
:104FC000C207C1831304C4688286858B9DC33C33AA
:104FD00093F7E70F1EA989471CCF21A8898B91CB96
:104FE0001E2D4A2321817D89EFF0BFDE1C402D4715
:104FF00098CF41016FB0EFD493F70708FDDB48234A
:10500000EFF03FDD1C400D47E5B793F70708F5D3F8
:10501000EFF0FFDA1C401147E1BF858BF9DB3C3331
:1050200093E7170093F7F70F1EA9954775B7898B7C
:10503000E9D31E2D99474DB793F70704DDDB0E2703
:105040007E235447138615004206FD174182AE9613
:1050500063D6F5001E2912A79CA261BF1E21C207BC
:10506000C18393F7F7BFC207C1831EA11E2912A7F0
:105070009CA2EFF09FD308407C0001470C214849D7
:105080008D460546EF202062B24791C7B7E700E0A2
:10509000116723A0E7201C4023AC070099BF858B34
:1050A000A9DB3C3393F7E70F1EA9A14735B793F669
:1050B000074081CEB705001093850540EFE00FEF64
:1050C000EFF0FFCF1C401D4725B7898B9DD31E2DC8
:1050D0004A2321817D89EFF0DFCF1C40314709BF92
:1050E00093F70708E38707F04823EFF09FCE1C40B3
:1050F0002547FDBD93F70708E38D07EE16277E23AE
:1051000063FCF6005C47B6978823EFF09FCC18400D
:105110001E2785071EA7F1BDA9477DBD918BE38A98
:1051200007EC81BFEFB20FBEB7570040938707402F
:1051300001112A84AE8432896312F502B717024046
:10514000944BB70520003706E0FFCD8E94CB944BEF
:105150007D16F18E94CBD84F4D8FD8CF68008359F0
:105160004400EFE0EFE7D24737470F00130707246B
:1051700033D7E702C20993D9090193F909FCC2099F
:1051800093D90901B3E9E900C20993D909012312AE
:1051900034011620C206C182F99AC206C18216A045
:1051A000B79698001386F667637AF60A93860668C0
:1051B000B3D7D7029166C207C183D58FA166D58FB9
:1051C0009306C0123307D7029306803E3347D702B7
:1051D0000507420741831AB05EAC1E2093E7170013
:1051E0001EA01E20C207C18393F757BF93E7074055
:1051F0001EA091671EA4EFE03FE937570000130798
:1052000007DE58CD37570000130767E718D1375727
:1052100000001307E7EFB707002058D137570040C9
:1052200023A6A76800C9130707409389C7684A8661
:10523000A6856318E4021305F002C1284A86A685F4
:1052400013050003D92083A709008145884BEFE0AF
:105250006FD4EFF05FB405616FB00FAE9167850753
:10526000B1BF1305100355204A86A68513052003F8
:10527000D1BF397106DE16DC1ADA1ED82AD62ED432
:1052800032D236D03ACE3ECC42CA46C872C676C476
:105290007AC27EC0EFF03FD0F250E2525253C25376
:1052A0003255A255125682567247E2475248C248BA
:1052B000324EA24E124F824F21617300203039715D
:1052C00006DE16DC1ADA1ED82AD62ED432D236D012
:1052D0003ACE3ECC42CA46C872C676C47AC27EC0B6
:1052E000EFF07FCBF250E2525253C2533255A255E7
:1052F000125682567247E2475248C248324EA24E78
:10530000124F824F2161730020308547120663944B
:10531000F500136606F8B7E700E0AA971376F60FD4
:105320002380C740935755000547938707043315DB
:10533000A7008A0737E700E0BA9788C38280EFB2F8
:105340006F9CB7170240D84FB7060018AA84558F34
:10535000D8CFB7760040984205452E8913670710CD
:1053600098C29853C166B289558F98D39853C17625
:10537000FD16758F98D3EFE02FC40144130AA00FD8
:1053800013051004EFE0AFD101ED631444016FB0D9
:10539000AF9A050451451374F40FEF20A062CDB706
:1053A0009307A00FE305F4FEB7170240985321645A
:1053B0001367071098D39853418F98D3EFE08FD697
:1053C000EFE04FD7373700408357078093E7170048
:1053D0002310F780EFE00FD51305F4FFEFE0AFD116
:1053E000EFE04FD44E86CA854D45EFF01FF2B70768
:1053F000002023A8976861BF5D713ED2B737004097
:1054000022DE1384078083D7078086C696C49AC29B
:105410009EC02ADC2EDA32D836D63AD442D046CED6
:1054200072CC76CA7AC87EC6858B89CFB707002032
:1054300083A7076982975E20C207C183F99BC207D1
:10544000C1835EA0EFE00FCE7254B640A642164371
:1054500086436255D2554256B25622579257025849
:10546000F248624ED24E424FB24F6161730020301B
:10547000B717024029E9944F0566D18E94CFD847DB
:10548000FD76FD16518FD8C7D847758FD8C7F177ED
:105490009387C730DD8D93172500138581803E9556
:1054A0001C41C205C1818EA3DA2F13774710DAAFF2
:1054B00023980700DA2313672700DAA39A231367D8
:1054C00007049AA38280D44F1166D18ED4CF984B13
:1054D000F176FD16518F98CB984B758F98CB45BFC1
:1054E0000A0593878180AA979C431307F0FB9AA72C
:1054F00082800A0593878180AA979C4301459E2755
:10550000828085476305F5040DC18947630FF50463
:10551000B7170240984B1367470098CB984B6D9B89
:1055200098CBD84F136747003DA8B7170240D44720
:10553000056713070780D98ED4C7D4477D76130635
:10554000F67FF18ED4C7944F558F98CF8280B717CE
:105550000240984B1367170098CB984B799B98CBD8
:10556000D84F13671700D8CF8280B7170240984BE7
:105570001367270098CB984B759B98CBD84F136730
:105580002700D5B75D7122DE371400402ADC2EDA01
:105590001305048085453ED286C696C49AC29EC035
:1055A00032D836D63AD442D046CE72CC76CA7AC8F1
:1055B0007EC6EFE0EFDE8547631AF500B7370020BF
:1055C00083A7C7D58297F9572318F4807254B64041
:1055D000A642164386436255D2554256B2562257CA
:1055E00092570258F248624ED24E424FB24F61611A
:1055F00073002030B5670A059387C7C9AA979843F7
:105600001E2393E717001EA38280B5670A059387C0
:10561000C7C9AA9798431E23C207C183F99BC20733
:10562000C1831EA38280B567131725009387C7C95E
:10563000BA979C439A2742074183619B4207418363
:105640009AA751473306E502962337370020130700
:1056500047D1C206C18293F6F6C832975223D18E43
:1056600096A316233A23D6B79AB709E537370140F0
:10567000231807C20547DAAB8280EFA25FEA011167
:105680002A843AC83EC62ECE32CC36CAEFF07FE727
:10569000F24537A84A04130808203358B802514588
:1056A0006246D246B308A40237350020130545D11F
:1056B00046952311050112A154C52285EFF0BFF6CE
:1056C00035650A041305C5C9229514417956B247B8
:1056D00092AACA2642473E8613651500CAA6BA8515
:1056E0001305E002EFF07FC205616FA09FE5EFA216
:1056F0001FE301112A843289B6842EC602C802CA69
:1057000002CC02CEEFF0FFDFB24537A74A04130701
:1057100007203357B702D14742091359090122859F
:10572000B306F402B7370020938747D10A04B6972F
:1057300023902701BAA323920700EFF0DFEEC167A1
:105740003565938707071305C5C93EC82295231BF6
:105750002101231C010093F71400004189CB0C08A0
:105760002285EFE06F9F81452285EFE0EFBE93F742
:10577000240089CB0C082285EFE0AFA48145228567
:10578000EFE06FBE93F7440089CB0C082285EFE071
:10579000AFAC81452285EFE06FBEA18889C80C08B7
:1057A0002285EFE0AFB481452285EFE00FBE1E20D9
:1057B000216793E707081EA083574404D98F23125B
:1057C000F40405616FA0FFD7EFA27FD541112A84B1
:1057D00036C22EC632C4EFF0DFD2B24537A74A0434
:1057E000130707203357B702D14722463305F40287
:1057F000B7370020938747D1AA9792A3BAA32392E1
:1058000007002285EFF03FE2924689476392F60651
:10581000B5679387C7C90A043E941C408566938682
:10582000F6CF9A33420741833D9B420741839AB3A7
:10583000922F9A33F18E42071166418313060610A8
:10584000D18E1377F7FD96AF136707019AB3962FA2
:105850007D771307F73F758F9AAF9A2F42074183E1
:105860009AAFDA2713674740DAA741016FA07FCDCF
:10587000A147E39CF6FEB5679387C7C90A043E9427
:105880001C407D761307F6FF96331165130505104E
:10589000758F9AB3DA2F856603D807029385F6CF02
:1058A000F98D79777D17C98D337707010565CEAFFF
:1058B000498F9AB3DA2F1306F63FC106798ED2AF1D
:1058C000DA2F42074183DAAFDA27D98ED6A771BF24
:1058D000EFA2FFC4B5670A059387C7C9AA9780439B
:1058E000A167FD1703574404411102C27D8F2312A3
:1058F000E4040357440402C402C6F98F2312F404DB
:10590000C167938707063EC089477C84708393F7FD
:105910001500AE8489C78A852285EFE0EF8393F76F
:10592000240089C78A852285EFE0AF8993F7440078
:1059300089C78A852285EFE02F92A18889C48A854C
:105940002285EFE0AF9A835744042167D98F231251
:10595000F40441016FA0FFBEB5670A059387C7C96C
:10596000AA979843A16683574704D58F2312F7045B
:105970008280AD67373700409387A7AA1CC3828017
:105980001567B73700401307575598C31147D8C359
:105990001307102798C72D671307A7AA98C3356761
:1059A0001307C7CC98C38280938701909843636F95
:1059B000A702D043B386C7006316D50054413E8585
:1059C000B296D4C35041B306C500631CD700B706D6
:1059D000002083A646696306D70054431843B29655
:1059E00054C118C16303F50088C38280BA877DBFA4
:1059F000EFA25FB141112AC6EF108008B706002060
:105A000083A7466937060020938646691306866990
:105A10003245A9EB37370020930787D793F5F70076
:105A2000130787D781C51387F700419B93850190A2
:105A30009387071FC19B23A2050098C123A20700DB
:105A400023A00700B385E7409CC21CC3B707002012
:105A500023A0B76AB707002023AEB768B707008056
:105A60004CC31CC2032A0600B377AA0085E3930740
:105A7000F5FF3957636CF7009307050113F7F7003B
:105A800049C313F707FF410763ECE706814491A080
:105A900022872E8459A058C15CC0EFF0FFF0584017
:105AA000B70600209386066A9042B307E94023A018
:105AB000F90063F3C7009CC2B70700203367EA0010
:105AC0009387476A58C09843C10423200400050700
:105AD00098C3EF10001493F7F400C1CB8967938744
:105AE00007807390073037D6000037D500001306C3
:105AF00006CB93050011130585CDEF50905B01A0F7
:105B0000BA87370700200329C7699309C769E36F7C
:105B1000F9F603A401901387019050406374F600D6
:105B20000C40BDF59442E38386F61440044314C34D
:105B30003307F64093060002E3F3E6F63305F4007C
:105B40009376F500A9DA8967938707807390073009
:105B500037D6000037D50000130606CB9305F00CAE
:105B6000130585CDEF50F05401A0268541016FA0AB
:105B7000BF9CB7E700E041572387E7402386E74013
:105B8000B7F700E023A0070023A20700814694C7CF
:105B90000147D8C7370700208325875A1307803E5F
