:100000006F302043130000001300000013000000B5
:100010001300000013000000130000001300000094
:100020001300000013000000130000001300000084
:08003000130000007300100032
:100038000000000000000000FE0D0000000E00009F
:1000480000000000CA3300000000000000000000AB
:10005800CC330000CE330000000000000000000098
:1000680058610000000000000002000000000000CD
:10007800D4330000D6330000D8330000F057000016
:10008800DC330000DE330000E0330000E233000020
:10009800E4330000E6330000E83300000A4F0000B4
:1000A800EC330000584F0000A64F0000F44F00004A
:1000B800F433000042500000F8330000084C000000
:1000C800684C0000C64C0000244D000002340000BB
:1000D8000434000006340000083400000A3400002C
:1000E8000C3400000E340000B25900006A560000BB
:1000F800B656000016340000183400001A34000008
:100108001C3400001E34000020340000223400009B
:100118002434000026340000283400002A3400006B
:100128002C3400002E3400003034000000000000A1
:080138000000000000000000BF
:10020000130181F806C216C41AC61EC822CA26CC1B
:100210002ACE2ED032D236D43AD63ED842DA46DC76
:100220004ADECEC0D2C2D6C4DAC6DEC8E2CAE6CC46
:10023000EACEEED0F2D2F6D4FAD6FED8F3220030CF
:1002400096DA83A2C19023A02200F32510342EC099
:1002500003A18186EF70A02003A3C19003210300B6
:10026000824273901234D652739002309240A2426E
:100270003243C2435244E244724582551256A2565A
:100280003257C2575258E25872598649164AA64AFE
:10029000364BC64B564CE64C764D865D165EA65EDA
:1002A000365FC65F13018107730020301300000022
:1002B00013000000130000001300000013000000F2
:1002C00013000000130000001300000013000000E2
:1002D00013000000130000001300000013000000D2
:1002E00013000000130000001300000013000000C2
:1002F00013000000130000001300000013000000B2
:1003000083A28186938202E07390023403A1C1909C
:10031000024182403243C2435244E2447245825514
:100320001256A2563257C2575258E258725986494D
:10033000164AA64A364BC64B564CE64C764D865D61
:10034000165EA65E365FC65FD652A102739002307B
:10035000A2421301810782801300000013000000F5
:100360001300000013000000130000001300000041
:100370001300000013000000130000001300000031
:100380001300000013000000130000001300000021
:100390001300000013000000130000001300000011
:1003A0001300000013000000130000001300000001
:1003B00013000000130000001300000013000000F1
:1003C00013000000130000001300000013000000E1
:1003D00013000000130000001300000013000000D1
:1003E00013000000130000001300000013000000C1
:1003F00013000000130000001300000013000000B1
:10040000F322003093F272FF130380181203B3E259
:100410006200711523205500130585FA10C12115BE
:10042000232005009302000063870200711523203A
:100430000500FD12D5BF71150CC1828000000000BF
:1004400000000000000000000000000000000000AC
:10045000000000000000000000000000000000009C
:10046000000000000000000000000000000000008C
:10047000000000000000000000000000000000007C
:10048000000000000000000000000000000000006C
:10049000000000000000000000000000000000005C
:1004A000000000000000000000000000000000004C
:1004B000000000000000000000000000000000003C
:1004C000000000000000000000000000000000002C
:1004D000000000000000000000000000000000001C
:1004E0000000000000000000000000000000397162
:1004F00001436EC619A0397141536AC866CA62CCFD
:100500005ECE19A0397101535AD056D252D44ED66C
:100510004AD826DA22DC06DE3301614082824111AC
:100520004AC026C222C406C68282B24D4101024D93
:10053000924C224CB24B4101024B924A224AB249A0
:100540004101024992442244B240410182803D432C
:100550002A876373C3029377F700BDEFADE5937607
:1005600006FF3D8ABA960CC34CC30CC74CC7410763
:10057000E36BD7FE11E28280B306C3408A0697027E
:10058000000096966780A6002307B700A306B70071
:100590002306B700A305B7002305B700A304B700DF
:1005A0002304B700A303B7002303B700A302B700D7
:1005B0002302B700A301B7002301B700A300B700CF
:1005C0002300B700828093F5F50F93968500D58DB3
:1005D00093960501D58D61B7939627009702000089
:1005E00096968682E78086FA9680C1171D8F3E9682
:1005F000E374C3F8A5B7370500201305C5608280F2
:1006000037050020130585608280B707002023A8E6
:10061000A7608280EFF23FEEB70500203971938525
:100620004560014537040020EFA040632320A4600B
:100630001304046019E1EF10107E1C4037070020FE
:1006400003270761DC4398C3EF707075EF70307853
:10065000EF00A06D2313A10202D6EF0000701C4032
:10066000A302A102DC43884323AA0700EF7010799C
:100670001C40C843EF80400C0840035661025C41B7
:100680008C43EFA0C06D19C1EF10F078B7070020C0
:100690009387473E98530840930661023AD8D8534F
:1006A000130651020C183ADA9857DC573ADC3EDE52
:1006B000EFA0406E19C1EF10107683A6C1810349E7
:1006C0005102032A040036CEEF00C0689307401F92
:1006D0003EC0F24689679309C102C507C98F4EC65D
:1006E0004AC402C29308803E1308401F01470146D6
:1006F00081455285EFA0206D11C5B5576304F50003
:10070000EF107071084003A6C1814E874C49CA861C
:10071000EFA0E07619C1EF1010701C409C4399C304
:10072000EF10706F1C40B70400208969C843130A9A
:10073000803EEF70B06D23AA0460EF70D06AEF6066
:10074000101F2A8902D493844461938909719C40C3
:1007500089CBB707EFBE37E700E0938707083CC7B0
:10076000FDBFA25503A5C195B3D54503EF60601F3A
:10077000EF70F0654ED4EF60901B330625413306D1
:100780004603AA8A0840341081455689EFA0C07DEF
:1007900088C003A50196814601468145EF5050630C
:1007A000EF7070646DB7EFF2FFD54111EF703062FA
:1007B000EF60F01789692A8402C6130A803E938984
:1007C0000971370B0020EF701062B24503A5019646
:1007D00013090B60B3D54503A284EF608018EF7056
:1007E000105F832709004EC695CFDC43DC4B9DCBC1
:1007F000EF60F013AA84032509001C4185E75C41E2
:10080000DC4B8DC33384844033044403740081453E
:100810002286EFA0407D03250900740022868145D1
:10082000EFA07000268445B73705002013058561C9
:100830008280EFF2DFCE3704002013048461084089
:100840004111EF60803311CD08407D566C00EF50B0
:10085000F07A28871086938501978946AA95EF300C
:1008600030564101F9B9938701973E9593D785009A
:100870000CA11CB193D70501E1813CA12CB1828070
:10088000938701973E950CA1A1810CB1828093873B
:1008900001973E950CA18280EFF27FC8AE869385CA
:1008A00001970946AA95EF30B05161B99387019736
:1008B000AA97983388232207598D828093870197BE
:1008C000AA979833A82322074205498F8823498F86
:1008D000A8336205598D8280EFF2DFC20111130641
:1008E00060228145138501979D31894613060021B9
:1008F000938501970145EF3090576319052E1384B6
:1009000001971820930740046300F72C9387C18355
:100910009843DE23B706000318C03707000113060B
:1009200007105EA0930740027CB410D4B7070005FF
:1009300030CC70D0374605011CC813065660B70787
:100940000024938506105CC830D893070050378682
:1009500005001CCC4CD493070010B7050078130693
:100960000680296558CC1CD058D01CD878C87CCCBF
:1009700038D03CD470D834DC232A04029386062075
:10098000232C0402232E0402232004042322040423
:10099000232404046CC428C86CD474DC2316F40A21
:1009A000231CF40AE147A301F40CB7070015B706AE
:1009B000001A89072328D4082322F40CB7F6030170
:1009C000B70712039386468093871750232AD408CB
:1009D0002324F40CB7260400B7170504938606A059
:1009E00093870730232CD4082326F40CB706000283
:1009F000856713060020232ED4082324E40A938657
:100A00000620054793873740B5692320C408232271
:100A1000040823240408232604082320D40A2322BC
:100A2000C40A2307040AA30BE40A230D040A2318AB
:100A3000F40C9389C9339304200D130A400E83D517
:100A4000090026858904C204C1801D3D8909E398F7
:100A500044FFDD47856529457CA43135B7970112F0
:100A6000C9072322F40E930700192314F40EB56965
:100A700091472305F40E9389492E9304D00E130B4E
:100A8000501383DA090026859109D685D53B03DA10
:100A9000E9FF138524004205D2854181D5331385B2
:100AA00004054205D6854181E13B13852405910467
:100AB0004205C204D2854181C180D933E39364FDEC
:100AC00081451305D0186D3B81451305F0184D3B4A
:100AD000D145130510196D33E545130530194D3314
:100AE000E54513055019693B93052003130570195B
:100AF000413BF945130590196133930570081305BF
:100B0000B019BD3B93078002A30EF41CB705003E4D
:100B10008567938707A0D5051305501E231FF41C76
:100B20002300041E8933B7050076ED051305901EDA
:100B30001D3BB7053F78CD051305D01E2D33B705F6
:100B40000071D1051305101F393BB7057978C90528
:100B50001305501F093BB7057350D9051305101E27
:100B60001933B705006DDD051305901FED39B70585
:100B7000003FE9051305D01FFD31F1451305102095
:100B8000DD31814513055020F9399D478946A3047D
:100B9000F4201306002195479385019701452315FD
:100BA000F420EF30F02113060021814513850197D1
:100BB000793A2945EF609004894613060021938510
:100BC00001970145EF30B02A138A418381490D4BCB
:100BD000834A440E4E85FD1A93F5FA0FEF30E05527
:100BE00059C185090D04090AE39469FFB70700207C
:100BF000239E0760056189B203550A001316090197
:100C0000418293142600AA94C204C180268532C66C
:100C1000713942054185EFB0E0242AC813852400CC
:100C2000420541816131EFB040302ACA138544004A
:100C300042054181A53942054185EFB0A0222ACC69
:100C400013856400420541819531EFB0002E324694
:100C50002ACE0C084E850509EF3040591379F90F5B
:100C6000E34C59F9BDBF0149E5BF938701973E9514
:100C700008218280EFF2BF8A41112A842800B284C1
:100C8000EFB0C03F8947638FF40291476380F4045B
:100C900085476397F400188493870197A29798A3D8
:100CA0009307F02063ED8700B707002003A5876155
:100CB00081467D566C0060874486EF50701141017B
:100CC0006FF03F882C842285653ED9BFA2452285DE
:100CD000593EF9B7EFF2BF8441112A846800B2840B
:100CE000EFB0C0398947638AF4029147638BF402FD
:100CF00085476397F400188693870197A29798A376
:100D00009307F02063E88700894626866C002285D9
:100D1000EF30100B41016FF0DF822C8622858D367B
:100D2000C5B7B24522858136E1BFEFF24FFF894555
:100D30000545EF30101721479307401F6369A7004F
:100D40009317150035651305C5323E951E213E8566
:100D50006FF02FFF13050010828003C5419782803A
:100D6000EFF2EFFB370400201304C4611E201307C9
:100D700070168507C207C1831EA0637AF700194564
:100D8000353E930515001945F93C2310040029450B
:100D90003536AA8403C5E1978145D928EFB0800C88
:100DA000B7D7000083A50735EFA08062B7D7000052
:100DB00083A54735EFA0C0612A842685EFB0E016F1
:100DC000AA852285EFA0202AEFB06004AA852945D4
:100DD000593C6FF00FF7EFF28FF42146938561973E
:100DE0001945EF3060746FF0CFF5EFF24FF32945FE
:100DF000F134930740063355F5026FF08FF401A0EC
:100E000001A0EFF2CFF101112E84AA85194542C647
:100E10003EC83ACA36CC32CEEF104045A2851545C1
:100E2000EF10C04472461145B285EF102044E246EF
:100E30000D45B685EF10804352470945BA85EF103E
:100E4000E042C2470545BE85EF10404232480145A9
:100E5000C285EF10A04105616FF0AFEE37050020AD
:100E60001305C5628280B707002023A0A762828095
:100E7000EFF2EFEA9307F5FF7147636FF7103567FD
:100E80008A0713078735BA979C432E8982871305F3
:100E9000152142054181D13B2A8422856FF06FEAFA
:100EA0001305152142054181EFF05FA0F5B7391513
:100EB0009374F50F2685EF001079AA852685EF300B
:100EC000801DB7D7000083A50735EFA0B00CEFA0B9
:100ED000F06D2A84E30309FC0D453385A402130554
:100EE000550EEFF0BF9C2A944DBF0D45EF00B07535
:100EF000B7D7000083A50735EFA0D009EFA0106B8E
:100F000061BF0145EF30C049AA841305D01DEFF041
:100F1000FF99EFB08001B7D7000083A50742EFA08B
:100F2000204B2A842685EFA0F073AA852285EFA0A6
:100F30007006EFA0D06DEFA0507F5DBF0545EF308C
:100F40002046AA841305F01DD9B70945EF30C035F6
:100F5000A1B7613D91B71945EFF05F9635BFB7076F
:100F6000002003A4076215BF1305C020EFF01F95F2
:100F700013548540930740061374F40F3304F402AE
:100F80009377F50F41851375F50F3E948967938725
:100F900007713305F50281BF014401B7138781BB97
:100FA00083468702938781BB1396260032971043AE
:100FB0007147631EE60203C7970315CBC85B05C9DB
:100FC00003C7170309C7A38C0702A388070203C737
:100FD000970393080002054805071377F70F9375E9
:100FE000F70F63F5B802A38C0702A38807021387E3
:100FF000160083C687031377F70F2384E702636421
:10100000D7002384070223A6070282803316E80054
:10101000698E050769D6A38CB7028280938781BB4E
:1010200003C7970223A607022384E7028280EFF218
:101030000FCF938581BB83C78502054693859502B3
:101040009CA11305902079316FF0AFCF03C501BE8D
:101050008280A94763E6A7002380A1BE0145828064
:1010600005458280A94763E1A702EFF24FCB938544
:1010700081BBA384A50205469385950213059020A4
:10108000D53E01456FF0EFCB05458280938781BB4C
:1010900083C6870203C797026385E60203C7170367
:1010A0000DE3D8573A95C8D783C7A7021307803EE8
:1010B000B387E7026367F500EFF26FC685376FF01D
:1010C0004FC8828001C9F147630AF500A147014575
:1010D00063F5B7002388B1BE054582802384B1BE85
:1010E00001458280EFF20FC2138581B9EF7080282D
:1010F00013059020938481BB8D3EA384A402130525
:10110000A020EFF09FB683C794022385A402238C0E
:1011100004022384F402138981BB8144138481BBBC
:10112000054AA949139524001305151E420541815E
:10113000EFF0CFF82320A90093F5F40F1375F50F06
:1011400051376306450185041109E39D34FD232AC7
:101150000402A30C0402232E0402230004046FF0F3
:10116000AFBD138781BB5C5FA9C3834707049306A8
:101170008002850793F7F70F2300F70463F5F60065
:1011800023000704828055476371F702EFF22FB9FD
:1011900001449D442285050481451374F40FEF102A
:1011A000E00CE31994FE6FF0CFB98280138781BB06
:1011B000585B938781BB6309A70483C60703A9C64D
:1011C0001347F7FF698FC8DBA38C0702014601456F
:1011D000854813080002B395C800F98D9376F60F81
:1011E00081C919C1A38CD7020547A388E702828071
:1011F0008506050693F6F60F0545E31E06FDA38C4E
:10120000D7027DF3A38807028280138781BB8346C0
:1012100017030547938781BB6396E60003C707035F
:101220002384E70203C787020A07BA9788438280AC
:10123000EFF2EFAE41112A8432C42EC6EFF00FE771
:10124000B2458AA11305240042054181EFF00FE663
:1012500022460AA241016FF0CFAEEFF24FAC41112E
:101260002E841306E1006C00E1373887014505C381
:101270003C86014589CF63E9E700636AE400B3B7C0
:10128000870013C5170021A00545E36AE4FE41016C
:101290006FF02FABEFF2AFA82A848DE101468945AC
:1012A000EF00F07701468D452285EF00507701462B
:1012B00085452285EF00B0766FF0AFA8B144B30446
:1012C0009402AE873E858545EFF09FBA131905015C
:1012D00013590901CA851385B40141372A86894506
:1012E0002285EF00D073CA851385F401BD372A86A5
:1012F00085452285EF00B072CA8513853402B13F5F
:101300002A868D457DB7EFF20F9F4111AA8AAE84E0
:101310003D456C00B2891306E10036893A8C3E8B5C
:10132000428DC68C0354410421372886835BE1003B
:1013300033057541EFA01033B7D7000083A54742AE
:10134000EFA040452A8A636E340333857941EFA0CC
:101350007031D285EFA0C007EFA0702B2300AD0045
:1013600033053441637489003305394142054181B5
:10137000EFA0B03BD285EFA0A005EFA050292380BD
:10138000AC00636D540333857A41EFA0B02DD28554
:10139000EFA00004EFA0B0272300AC0063E38402B9
:1013A00033045441131504014181EFA01038D28554
:1013B000EFA00002EFA0B0252300AB0041016FF0C9
:1013C0000F9733845441F9BF03480100388263F614
:1013D000A5026374A70063E6E6006379B700637F44
:1013E000E602238008012380070182806364D7001E
:1013F000E37BE6FE2380080182806377E600E362F8
:10140000B7FEE379D7FE19A06375D700E36BE5FC5F
:10141000D5B7E371B7FEE368E5FCE9BFE36CD7FC41
:10142000D9B7EFF2CF8F79712A892E84B2846C10EC
:101430001306E1023D4536CE3ACC3ECA42C846C606
:10144000C53BF246B2484248D247624763F486023F
:1014500063EB260163E9280163E916012300070114
:101460002380070129A0E3FD16FF23000701456142
:101470006FF02F8D6367940063E59800E36214FFBB
:10148000F1BFE37414FFE9BFEFF26F89EF60C0387A
:10149000B707002023A8A762B707002003A5C762EB
:1014A00001478D4611468145EF60E0776FF06F8907
:1014B000EFF26F8439717D5774181306F00F814570
:1014C0000145EF602068F257918BF5D7EFF09FC18F
:1014D000938781BA23A0070023A207002394070063
:1014E00023A60700B707002003A507630147894625
:1014F00001468145EF602073B7D7000083AB4742B8
:101500008149138481BA370B0020138981BB138A68
:101510004184938A81842945EF50506E8565371543
:10152000014093850580130505C0EF30104605473F
:101530006310E50C5C4091C708C02322040023140B
:101540000400930C4B6203A50C004444130C4B6243
:1015500063160524854789E483471903B337F000F0
:101560002945232EF902EFF07FB21C400547639511
:10157000E700E9E4EFF09FA2B707002003AC0762A1
:101580006285EFF0BFC25131AA84F1471375F50FA0
:10159000631CF51E63060C0C8326490383479903DD
:1015A00001468545130500023397F500758F45C345
:1015B00019C2A30CF90283479903294635678507A9
:1015C00093F7F70FB3F6C7021307474893050005D3
:1015D00013059007B3D7C702BA9603C806001306CF
:1015E00000058146BA979C230147EFF09F81DDA259
:1015F0001E2454408507C207C1831EA485E291467C
:10160000E3F1F6F458C013077025637CF7008D47AB
:101610005CC485471CC089475CC025B7E393E6F2EC
:10162000DDB71307F0186375F70089475CC411BF75
:101630001307700CE377F7F08547CDBF0D4763952F
:10164000E4002320FC000DBFEFF07F9E35B7850737
:1016500093F7F70F6373F50081470546B1F691BF25
:10166000EFF0DF93EFF0FFAF184085476316F70008
:101670002320040023260400850993F9F90FCD47A0
:10168000E3FB37E98144B9491385340C42054181B4
:10169000EFF0AFDDAA8513F5F40F8504EFF09FBFDF
:1016A000E39434FF1305100DEFF02FDC2306010245
:1016B000A306010223070102A307010249C58545CC
:1016C000EFF00FFB131C05011306A1032C182A8D44
:1016D0003D45EFF0FFB55018930561034D45EFF020
:1016E0003FB51018930521035D45EFF07FB4835794
:1016F000A10303558103135C0C011D8DEFA08076BF
:10170000DE85EFA02009AA8C1545EFF00FD6035611
:1017100041038354010383592103835661036315F5
:10172000052A63E4990063F0C60262C266C09308AA
:10173000D1021308C1029307F1021307E102CE851B
:101740002685EFF05FBC8346D1020346C102834584
:10175000F1020345E102EF00902713050021EFF0AD
:10176000EF949377F50F014591CB1385F7FF137530
:10177000F50F130595060605EFF04F93EF00F04CBB
:101780008149EF00905641BB8145EFF06FEEAA858D
:10179000054613D50401EF005039E9B5054D631036
:1017A000A50D93B71400232EF9021C40370C00201E
:1017B000130C8C626398A70083470C0085E08507B3
:1017C0002300FC0003450C00A14763FEA7048547E6
:1017D0002300FC000145EF00303369B519476387EA
:1017E000E702636DF700F9DFFD1735678A07130716
:1017F000C73CBA979C4323A0FC00E9B72147E39379
:10180000E7FCEFF0BF8123A00C006DBF89451305F5
:10181000D01DEFF06F8889451305F01DEFF0CF87DD
:1018200023000C0045B79D47631CF50081457545B5
:10183000EFF00FE4AA8501461565EF00102F59BFA0
:10184000B307F50235651305053E3E95034865006F
:101850005C315821343130210C31082179B3938720
:10186000F4FF93B71700232EF902994763FCA702F0
:1018700065151375F50F131715009387C184BA9773
:101880008623EF00405CEFA06052A945B305B50286
:1018900005462685EF0070291C40E38507DC23A060
:1018A000AC01C9B3B70C002003C79C621C40938CE9
:1018B0009C62631CA705E38707DA2320EC002380E2
:1018C0000C008D476394F40483260C008547238025
:1018D000FC00F51693B7260093C71700139717005F
:1018E00093874185BA9786238547014563F3D700DF
:1018F00009451305D51D42054181EFE03FFBAA854F
:1019000001462685EF00702211A0C5FF83C70C0099
:10191000E39A07D483240C0093F71400B9CFF5148D
:101920003335900093141500B3879A0083DC0700C9
:1019300081455905EFF0CFD3AA8505466685EF00AE
:10194000D01E1C40E38007D25C4405476398E70043
:1019500083270C0085072320FC0029B3E39407D0DC
:101960009384D41D2685EFE07FF493051500C2050E
:10197000C1812685EFE0DFF0F5B1F114B3349000BA
:1019800093971400D29783DC070081451385640187
:10199000EFF00FCEAA8505466685EF0010191C40B2
:1019A000E38207CC5C4405476396E70083270C007D
:1019B000FD1755B7E39807CA9384D41D2685EFE039
:1019C000FFEE9305F5FF65B713150D01418136CE86
:1019D00032CCEFA02049E685EF90901FEFA0204386
:1019E0001378F50F6246F24663E4990063F1C6028C
:1019F00042C062C29308D1021308C1029307F102E8
:101A00001307E102CE852685EFF01F9C2DBBE288EF
:101A10009307D1021307F102CE852685EFF07FA050
:101A20001DB3EFE2DFAF37150000154685451305FE
:101A300005D637140140EF3010508564938504C2F9
:101A4000130504C0EF30206E3706180091461306C8
:101A50000610A145130504C0EF30606F91460146A2
:101A60009385048013050480EF30606E9305F004C5
:101A700013050480EF30C068E14601469305000A73
:101A800013050480EF30A06CA965E14601468D0581
:101A9000130504C0EF30A06BC14513050480EF307F
:101AA000A06393850401130504C0EF30E062E146B2
:101AB00037461D0093050020130504C0EF30206950
:101AC0009306800437461D0093050010130504C0DB
:101AD000EF30E067F14601469305000C130504C0A2
:101AE000EF30E066B7450F00B1461306803E9385A0
:101AF00005240945EF4000040945EF309072814507
:101B00000145EF00D01581450545EF0050159304C0
:101B100004C0930500022685EF3020677DD9EF20B1
:101B2000205485450145EF30305485450545EF305B
:101B3000B053B7260000B7450F008D470547938681
:101B4000E65013064006938505240D45EF30D07509
:101B50000D45EF30106DEF40E02937550040054648
:101B6000854513050540EF305021C145130504C0DC
:101B7000EF3060623765004013050540EFE0FFA8D5
:101B80006FE03F9CEFE2BF9981450145EF00300DCA
:101B900081450545EF00B00C0D45EF30F069054576
:101BA000EF3030680145EF30D0676FE09F9937F72D
:101BB00000E0832707D1B7060080D58F2328F7D010
:101BC0008280EFE2DF95372501408145130505400E
:101BD000EF10B0143705002003250564B707002077
:101BE000138487640147938787648D46054689453A
:101BF00023200400EF60A01D1C4091C7B7E700E060
:101C0000116723A0E7206FE0DF93EFE25F913704D5
:101C10000240130544048145EF10B041BD45130552
:101C20004404EF1050420145EF20A06E8545130596
:101C30004404EF1010406FE0DF90EFE25F8E370456
:101C40000240130504088145EF10B03EBD45130561
:101C50000408EF10503F0545EF20A06B85451305A4
:101C60000408EF10103D6FE0DF8DEFE25F8B8947D6
:101C70006308F5008D476300F50201456FE07F8C36
:101C80009305004037150140130505C0EF30E04FC4
:101C90001375F50FE5B793050002EDB7EFE23F8846
:101CA00091E937150140C145130505C0EF30A04E3D
:101CB0006FE03F8937150140C145130505C0EF307E
:101CC000404EFDB737050020130505648280EFE222
:101CD0001F85EF507034B707002023A2A764B70711
:101CE000002003A5076401478D4611468145EF504A
:101CF00090736FE01F85EFE29F8203A701879387B0
:101D00000187DC2301113008954501453ACC230EAB
:101D1000F100EF207022EF20A053B72700002A87A0
:101D2000938727BCB7260140370502403EC08D4847
:101D3000054881479386C644054681452105EF3015
:101D4000400905616FE0EFFFEFE26FFA4111EF200C
:101D500020502A841309E501AA840395040089040C
:101D6000EF20D015239FA4FEE39924FFB7D70000EE
:101D7000B7D9000037DA000083AB0743B7D70000BC
:101D8000832A8A4203ABC94203AC47439384C1BF51
:101D900001493E244A288D4DA6853E951E20137D7F
:101DA000F90F3E953355B503938C81C042054181AF
:101DB000EF60A0566307BD0791476309FD04EFA0DC
:101DC000C01683258A42131D2900669DEF90901C42
:101DD00083A5C942EF90101CDE852AC6EF90901BA8
:101DE000B247AA8D03A50C01BE85EF90B043AA852A
:101DF0006E85EF90E05D2320AD000509954709044D
:101E00008904E318F9F841016FE02FF2EFA0E01127
:101E1000D685EF903018DA85EF90D01723A8AC0064
:101E2000E9BFEFA08010E285EF90D01683A5C942EC
:101E3000EF905016B7D7000083A58743EF90A022FC
:101E400023A6AC005DBF0A05938781C0AA9788438B
:101E50008280EFE2CFE983A7C18139718149D843FC
:101E600081479306471491C60327C71419C39307E4
:101E7000C700370A0020232EFA62B7D7000083AAD2
:101E8000C743B7D7000003AB0744B7D7000083AB05
:101E9000474481440544130ACA63372C0000DE8C92
:101EA000054909479147630E2403630F041863092A
:101EB000E41AE31AF4FEEFF0FFCCEF10603CEFE021
:101EC0009FF12945EF50805337150140C145130557
:101ED00005C0EF30002D0544EFF07FCDD1B71144A0
:101EE000C1B77D5734081306F00F81450145EF5007
:101EF0007045E247918BCDD7EFF0FFDFA9474C103B
:101F00003EDA3ED80D459307ACC63EDE22D4EF2024
:101F100060361305B020EFE05FD57D151335150051
:101F20002AD44C100945EF20E034B72700009387EE
:101F3000C7C96C0801453ED022D4EF20003213847B
:101F4000C1C41385C1C4EF60E04213050401EF6012
:101F500060421384C1C1D6851385C1C1EF60E03EE4
:101F600013058400D685EF60403E1384C1C2DA8534
:101F70001385C1C2EF60803F13050401DA85EF606D
:101F8000E03E81450145EF20603385450545EF2062
:101F9000E0323D64130604A6A1469305007D014589
:101FA000EF30B047130604A689469305007D05452A
:101FB000EF30B0460145EF20403DB7270000370421
:101FC00002409387A7C0B73601402A878D4805484D
:101FD000938606C405468145130544043EC08147E7
:101FE000EF20305F0545EF20403AB7270000938788
:101FF000A7C3B70600402A878D4805489386860305
:102000000546130504083EC081458147EF20705CFA
:1020100013050408BD45EF10100313054404BD4526
:10202000EF107002130544048545EF1090008545BC
:1020300013050408EF10E07F0145EF30901E0545C1
:10204000EF30301E0144A9BDB707002003A5476447
:102050000147894601468145EF50F03C094489B566
:10206000EF20001FAA85370502403D462105EF20DD
:102070001066EFE00FFC0545EF504038014734088B
:102080001306F00F81450945EF50D02B0589E30970
:1020900005E0EFF07FCBEF20003F638A2409ADC855
:1020A000E39084E03709002013094963494DD94D75
:1020B00085456A85EFE0DFDB8357090042054181F2
:1020C0006385A7002310A9008549050D0909E311BF
:1020D000BDFF03A541C1E685EF90A05AE351A0E002
:1020E0000D45EF20601CE30C05DE4C100145EF2090
:1020F000603289476313F50085494C100545EF2090
:1021000060318947630AF50463980904814949BB32
:102110000D45EF206019E30505D803A541C1DE8513
:10212000EF9020561345F5FF9354F50195BB0945F3
:10213000EFE0BFB3AA8501451D260D45EFE0FFB2D4
:10214000AA850545292E37150140C145130505C04F
:10215000EF3060048944A9B383270A00C5DB9823C4
:10216000759B98A365B7EFE28FBB37050240130557
:102170000503EF2090440145EF30607705440145A9
:10218000EF300078E30D85FE37150140C14513059A
:102190000580EF3040006FE0CFBAEFE24FB837056F
:1021A000024013058505EF2050410545EF302074AE
:1021B0000545EF30E0748547E30CF5FE3715014027
:1021C0008565130505C0EF20107D6FE08FB785474B
:1021D00006063396C700060589473395A7000147D1
:1021E00081476312B702139507014181C18381457D
:1021F00001476390D502598D41839386C1C6D98F1B
:10220000EAA29EA682800507C98F1377F70F0A05F9
:10221000C9BF8505518F93F5F50F0A06D9BF3567FC
:10222000130707492A971423B5679387074A13971B
:1022300016009386C1C6BA9613878185BA95AA9768
:102240009C2303C7F5FF039806003317F700931785
:1022500007010547C1876316E600B367F8009EA231
:10226000828093C7F7FFB377F800D5BF994763EC37
:10227000A708B567938787440A053E951841B707B5
:1022800000209387C76402879A2393D65500AE0532
:10229000719B558F9AA3BA231377F77F4D8FBAA3FB
:1022A0008280BA238E05137737C0CDBFBA2393D669
:1022B0004500B205619B558FBAA3DA2352075183BB
:1022C0004D8FDAA38280DA23FD76FD06758F9605A1
:1022D000C5BFDA2393D62500FD8A019B558FDAA36B
:1022E000FA23BA054A0749834D8FFAA38280FA235D
:1022F000F1769386F607758F9E05FDB7FA2313775F
:1023000007F8D98DEEA38280370700209307C764B2
:10231000BE231307C76409C593E707403EA3828025
:1023200093F7F7BFC207C183D5BFEFE2CF9C41113E
:102330002A89AE84014B63D50500B304B040054B38
:10234000B7470F009387F72337871E00A697130719
:10235000E7476365F704E1679387F7693717030079
:10236000A6971307E7D3636FF70A89679387F77018
:102370001567A6971307E7E16369F70A9387743E29
:102380001307E07C6366F70A938734061307600C33
:1023900089498D4A6366F700894A19A081499D4A97
:1023A000B56B014A938B4B48294CB3E784035285A4
:1023B00013041A0032C61374F40FDE978C23EFF067
:1023C000FFEA3246B3C4840363978A063285EFF08E
:1023D000BFF3630B0B0022859305000413042A004E
:1023E000EFF0DFE81374F40F994463F8840489472D
:1023F0006397F902B70700209387C764EA237177D0
:10240000798D135789001377F707598D11671E09C6
:10241000130707F83379E90033652501EAA3410181
:102420006FE0EF908549994AA5BF8949954A8DBFCC
:102430008949914AB5B7228A8DBF22858145050415
:10244000EFF0DFE21374F40F4DB7370700201307E6
:10245000C7641E230A058D8BC98F1EA38280EFE2FD
:102460000F8C2E87A14511E19145B567060793872B
:102470004746BA9792230945EF30F00C814509454C
:10248000EF30D0146FE0EF8BEFE26F89B7270000D9
:102490004111370402409387A71937070020B74638
:1024A00000403EC01305840589480548814713074D
:1024B000C7649386C68005468545EF209011B727EF
:1024C000000093876716B73601403EC0894805482B
:1024D0008147138781C7B106054685451305040367
:1024E000EF20300F41016FE0CF85EFE24F833715CA
:1024F00001408565130505C0EF20B04A370502404D
:10250000914513058505EF20100C6FE08F83EFE2F6
:102510000F8129469385C1C6138581C7EF90103678
:10252000B707002003D747659306700C938747656C
:1025300005074207418363E9E6089AA38A239307C4
:10254000700C63F6A708938781C796276D771307EA
:10255000A7AA758F94433776F6DB130666DBF18EF8
:1025600094C3D4433776AAAA130666DBF18ED4C38C
:102570009AA7938781C783D887009566904313886D
:102580005655337818013717C927B768EDB79388C0
:10259000D8B613079724718F3376160190C3D043B2
:1025A000B76855559388D8B633761601CE23239451
:1025B0000701D0C313065009637FA60093869624B3
:1025C000ED8E98C3D6A301A82390070085BF93077B
:1025D000F004E3E0A7FA37150140C1451305058073
:1025E000EF20303C37050240954513050503EF20E9
:1025F000807D6FD01FF5EFD29FF2EF007033EF5068
:10260000705FEFF00FC2EF007059EF003049EF40FC
:10261000502801A0828099677390078001A0EFD2B3
:102620001FF09C2141116147DC876360F7028547F9
:102630009CC2482905469305F1001305250CEFE0DF
:102640006FE3014541016FD0DFEF4145E5BFEFD2B8
:102650001FED85479CC2C829411132C61305250CC0
:10266000EFE0AFE0324608A2014541016FD07FEDB7
:10267000EFD2FFEA85479CC248292E848145610537
:10268000EFE00FFF08A001456FD0BFEBEFD23FE9AD
:1026900005469C2190C258294111DC87630DC70073
:1026A00089466304D70205469305F1001305A0206F
:1026B000EFE04FDC29A03E85EFE0BF9919E101452D
:1026C00011A0414541016FD0DFE73E85EFE09F99C2
:1026D000F5B7EFD23FE39C2123A00600402941112A
:1026E000DC870549B684630C240331C40D47636459
:1026F0008704AA893D456361F50285451305E4FF1A
:10270000EFF0FFD503C5490105469305F100EFE061
:102710006FD623A02401014541016FD0FFE11D4781
:102720003D45E36BF7FE05469305F1000545EFE0F7
:102730006FD480C0CDB705443D45E36FF4FC05463A
:102740009305F1001305B020DDB71C2141115C8712
:102750001C31DC87288741018280EFD25FDC0111C8
:102760002A842E8536C6EFF05FFEB2468947E88799
:102770009CC25C280547639BE700AA8513050021DE
:10278000EFE00F90014505616FD0BFDB1385770641
:1027900009469305E1010605EFE0CFCDE5B7EFD29D
:1027A0001FD801112A842E8536C6EFF01FFAB246D3
:1027B0008947E8879CC248289305E1010946060538
:1027C0004505EFE02FCB014505616FD09FD7EFD2D4
:1027D0001FD501112A842E8536C6EFF01FF7B246A9
:1027E00089471375F50F9CC2E88748289305E101D6
:1027F000094606051305B51DEFE0CFC70145056184
:102800006FD03FD4EFD2BFD14111AA8511466800E5
:10281000EF90D006324541016FD0BFD2EFD23FD00A
:1028200001112A842E8536C6EFF0DFFDB2469147AE
:102830002ACE9CC248286C081146130585070A0554
:10284000EFE04FC3014505616FD0BFCFEFD23FCD61
:10285000AA84DC283D472E853684636DF7008547C2
:102860008C219CC2C82813051521EFE04F82014539
:102870006FD03FCD4547636FF700EFF01FED8947FD
:102880001CC0DC28AA859387F71013951700EFD09A
:102890003FFFF1BFEFF01FF791471CC0EFE0AFDC47
:1028A000F9B7EFD2DFC791479CC25C290D474111B0
:1028B000639FE7002E85EFF0FFF4488605466C0025
:1028C0003945EFE02FBB014541016FD09FC711454E
:1028D000E39CA7FE2E85EFF0FFF22AC611466C009E
:1028E0001305C020F9BFEFD29FC301112A8432859E
:1028F0002EC636C4EFF07FE5A246B24589479CC29A
:10290000E887882109469305E1017D150605229592
:1029100042054181EFE00FB6014505616FD07FC2EE
:10292000EFD2FFBF2E86930545016D45EFF0BFFB4B
:102930006FD03FC1EFD2BFBE2E8693054501130570
:102940007002EFF05FFA6FD0DFBFEFD25FBD2E866F
:102950009305450113053003EFF0FFF86FD07FBEFC
:10296000EFD2FFBB2E86930545011305F003EFF070
:102970009FF76FD01FBDEFD29FBA2E8693054501FA
:102980001305B004EFF03FF66FD0BFBBEFD23FB9F5
:102990002E869305450113057005EFF0DFF46FD027
:1029A0005FBAEFD2DFB72E869305450113053006D7
:1029B000EFF07FF36FD0FFB8EFD27FB62E8693058E
:1029C00045011305F006EFF01FF26FD09FB7EFD26D
:1029D0001FB52E86930545011305B007EFF0BFF034
:1029E0006FD03FB6EFD2BFB32E86930545011305D6
:1029F0007008EFF05FEF6FD0DFB4EFD25FB22E86DA
:102A00009305450113053009EFF0FFED6FD07FB35B
:102A1000EFD2FFB02E86930545011305F009EFF0C4
:102A20009FEC6FD01FB2EFD29FAF2E86930545016A
:102A30001305B00AEFF03FEB6FD0BFB0EFD23FAE5F
:102A400085479CC2482991472E84631AF5001305D7
:102A5000B020EFE08FA108A001456FD09FAE3305F5
:102A6000A04042054181F5B7EFD27FAB1C2105475D
:102A700041112E846391E7020D453306A6029CC2E4
:102A80001305460E42054181EFE02F9E08A0014547
:102A900041016FD01FAB09476391E7020D45330633
:102AA000A6029CC21305560E42054181EFD01FE0DD
:102AB0009357850008A01CB0D9BF91479CC208213C
:102AC000B7070040F5173E95D1473306F602329519
:102AD0000A051305D50E42054181EFD03FDE2AC617
:102AE00011466C002285EF90605955B7EFD23FA395
:102AF00001465105EFF05FF76FD0BFA4EFD23FA2C0
:102B000005465105EFF05FF66FD0BFA3EFD23FA1AE
:102B100009465105EFF05FF56FD0BFA2EFD23FA09D
:102B2000054798C25C292E84638CE700094713058A
:102B300090206384E7001305A020EFE00F9319A015
:102B4000EFE0CFD008A001456FD0BF9FEFD29F9B91
:102B50000349050085474111AE843284368A631CDF
:102B6000F9028C213285EF10405DBD470DE10D4526
:102B70003305A4029C20054623202A015C8413050A
:102B8000450E42052C004181EFE0CF8E81473E8506
:102B900041016FD07F9A8947631FF9002E85EFF0BE
:102BA000DFBA68840D453305A40223202A010946B3
:102BB0001305550EF9B7AA892E85EFF0BFC49147CA
:102BC0002320FA002AC203C50900B7070040F51701
:102BD0003E95D147B307F40211464C003E950A05D5
:102BE0001305D50E42054181EFE0CF88924413953D
:102BF00004014181EF9060332AC613D50401EF90A0
:102C0000C032B7D7000083A50735EF80607C03C6CC
:102C100009002AC42C007D16420641822285EF104D
:102C2000E05C81472DD5BD479DB7EFD25F8F014650
:102C30005105EFF0BFF16FD0DF90EFD25F8E054608
:102C40005105EFF0BFF06FD0DF8FEFD25F8D0946F7
:102C50005105EFF0BFEF6FD0DF8EEFD25F8C894769
:102C600001111CC22EC6EFD07FC4B2459357850018
:102C700088A19CB1014505616FD0BF8CEFD23F8A1E
:102C800036866D45EFF07FFD6FD0BF8BEFD23F8969
:102C9000368613057002EFF05FFC6FD09F8AEFD28B
:102CA0001F88368613053003EFF03FFB6FD07F8916
:102CB000EFD2FF8636861305F003EFF01FFA6FD0D0
:102CC0005F88EFD2DF8536861305B004EFF0FFF89A
:102CD0006FD03F87EFD2BF84368613057005EFF0C3
:102CE000DFF76FD01F86EFD29F833686130530063D
:102CF000EFF0BFF66FD0FF84EFD27F8236861305E8
:102D0000F006EFF09FF56FD0DF83EFD25F8136865C
:102D10001305B007EFF07FF46FD0BF82EFD23F8092
:102D2000368613057008EFF05FF36FD09F81EFD206
:102D30000FFF368613053009EFF03FF26FD07F802A
:102D4000EFD2EFFD36861305F009EFF01FF16FD0DB
:102D50004FFFEFD2CFFC36861305B00AEFF0FFEF3E
:102D60006FD02FFEEFD2AFFB89479CC248292E843B
:102D7000411185454505EFE0AF8F9357850008A0C9
:102D80001CB0014541016FD0CFFBEFD24FF9914705
:102D90009CC2482941112E84130585070A05EFD0EE
:102DA000FFB12AC66C0011462285EF90202D014507
:102DB00041016FD00FF9EFD28FF689479CC24829A5
:102DC00001112EC606051305B51DEFD03FAEB24565
:102DD0009357850088A19CB1014505616FD06FF6BE
:102DE000EFD2EFF389479CC2482901112EC6060590
:102DF0004505EFD0BFABB2459357850088A19CB184
:102E0000014505616FD0EFF3EFD26FF191479CC29E
:102E10005C29094741112E846386E7020D476387C9
:102E2000E70205471305C020639FE700EFD0FFFBD3
:102E30002AC66C0011462285EF90402401454101CD
:102E40006FD02FF01945EFD07FA7DDB73945EFD010
:102E5000DFE1F9BFEFD2AFEC89479CC24829854733
:102E600041112E84631EF50013050021EFD01FA42D
:102E70009357850008A01CB0014541016FD06FEC4D
:102E8000130575060605DDB783A7C181DC431387EB
:102E9000C71271EB35671307075123A0E714138797
:102EA000471471EB35671307075223ACE7141387F8
:102EB000C71571EB35671307076223A8E716138759
:102EC000471771EB35671307075A23A4E7181387D1
:102ED000C71871EB35671307075C23A0E71A138740
:102EE000471A71EB35671307075E23ACE71A1387A0
:102EF000C71B71EB35671307076023A8E71C13870F
:102F0000471D71EB35671307075523A4E71E138789
:102F1000C71E71EB35671307075723A0E7201387F8
:102F2000472071EB35671307074F23A2E72213876A
:102F3000872271EB35671307075423AEE722138707
:102F4000072471EB35671307074B23AAE724138780
:102F5000872571EB35671307074D23A6E7261387EF
:102F6000072771EB828035671307076523AAE712ED
:102F70001387871305F335671307074E23A6E71456
:102F80001387071505F335671307076423A2E716B0
:102F90001387871605F335671307075923AEE7161E
:102FA0001387071805F335671307075B23AAE7188C
:102FB0001387871905F335671307075D23A6E71AFB
:102FC0001387071B05F335671307075F23A2E71C69
:102FD0001387871C05F335671307076123AEE71CCA
:102FE0001387071E05F335671307075623AAE71E45
:102FF0001387871F05F335671307075823A6E720B4
:103000001387C72105F335671307075323A8E72262
:103010001387472305F335671307075023A4E724D5
:103020001387C72405F335671307074C23A0E7264A
:103030001387472605F335671307076323ACE72695
:1030400015B7B71702409843B706FFF84111136749
:10305000170098C3D84337060200758FD8C398432A
:10306000B706F7FEFD16758F98C39843B706FCFFA9
:10307000FD16758F98C3D843B70681FFFD16758F6F
:10308000D8C337079F0098C702C402C69843C166D9
:10309000558F98C3B716024005679C42F18F3EC614
:1030A000A24785073EC4B24781E7A247E397E7FE00
:1030B000B71702409C431397E700635907068547FB
:1030C0003EC6324785476311F706B7170240D8431B
:1030D000B706C1FFFD1613670708D8C3D843D8C386
:1030E000D84313670740D8C3D843758FD8C3D84394
:1030F000B7063D00558FD8C39843B7060001558FDA
:1031000098C3984393166700E3DD06FED843B716CD
:103110000240719BD8C3D84313672700D8C3214707
:10312000DC42B18BE39EE7FE4101828002C651BFC3
:10313000B7160240DC42370700201146B18B130757
:1031400087586385C70021466388C702B7177A008E
:10315000938707201CC3B7170240DC43918393F683
:10316000F700B707002093870700B69794231C4306
:10317000B3D7D7001CC38280DC42D4424166C983E6
:10318000BD8BF18E890745466393C700C94781EE21
:10319000B746024083A60680C18A89CEB7167A0058
:1031A0009386062021A8B7160240D4421396E60063
:1031B000E35606FEB7163D0093860690B387D70206
:1031C00051BFEFD22FB4C164411137090020094427
:1031D0000D4A8D4AFD148327896593098965638E9D
:1031E000870463804703E5FFEFD00FEFEFF0CFA92F
:1031F000EFE0FFADEFE04FA9EFF01FC923A05901A9
:10320000D9BF7D577400014681450145EF409013B9
:10321000B247E39287FC268681450145EF4030594D
:10322000EFD06FBD0841EF30B05CEFD06FBD08410B
:10323000EF30105C23A0890079BF1305401FEF40D9
:10324000E01BEF20503A41BFB737002093874788F3
:103250001CC1B7270020938747489CC193070008EB
:103260001CC28280B7370020938747921CC1B727C2
:103270000020938747689CC1930700081CC2828086
:10328000EFD2EFA9EFD0CFB70841EF40E025EFD064
:103290008FB60841EF4040256FD0AFAAEFD22FA8DC
:1032A000EFD0DFBB2A8437280020B7270020B7D50E
:1032B00000003715000013084819938747D91947AC
:1032C000854613060010938505661305054BEF3000
:1032D000D04708C0EFD0CFB22A84B7D50000370559
:1032E000000013884108938741C81147854613069B
:1032F00000109385C5661305657AEF30104508C048
:10330000EFD06FAF2A8437280020B7170020B7D539
:10331000000037050000130848AE938747E61547BD
:103320008546130600329385C56713054561EF3066
:10333000D04108C0EFE01F992A8437280020B72722
:103340000020B7D50000372500001308C8D39387A5
:10335000C7B3214785461306000893850569130501
:1033600025E5EF30903E08C037280020B727002021
:10337000B7D50000373500001308C83E9387C71E35
:1033800025478546130600089385C5691305251C46
:10339000EF30B03BEFF0DFEE6FD0AF9AEFD22F9867
:1033A000EFD08FC8B7360020372600202A84014787
:1033B0009386C68D1306464491454145EF30400F34
:1033C00008C06FD00F9801A001A001A001A001A02A
:1033D00001A001A001A001A001A001A001A001A0E5
:1033E00001A001A001A001A001A001A001A001A0D5
:1033F00001A001A001A001A001A001A001A001A0C5
:1034000001A001A001A001A001A001A001A001A0B4
:1034100001A001A001A001A001A001A001A001A0A4
:1034200001A001A001A001A001A001A001A001A094
:1034300001A097E1FF1F93816195172100201301DF
:1034400061BC17B500001305652297D5FF1F938552
:1034500065BB1386818763FAC5008322050023A01C
:10346000550011059105E3EAC5FE17D5FF1F1305A9
:10347000651997050020938525FB6377B500232008
:1034800005001105E36DB5FEFD42739002BC894253
:1034900073904280B72200009382028073A00230B2
:1034A00097D2FFFF938282B993E232007390523039
:1034B000EFF03FB997F2FFFF93822214739012341A
:1034C000730020305C413707F1E01307F7EF944DAC
:1034D0007D8F9C41D58FD44DD58FD441A206D58FF9
:1034E000D98F5CC11C4537F7F1FF1307D77FD4454F
:1034F0007D8F9C49D58F94458606D58FD98F1CC565
:103500005C55370710FF7D177D8FDC29FD1793F77A
:10351000F70FD207D98F5CD582801C4589C593E708
:1035200017001CC58280F99BEDBF08450D810589F8
:1035300082800845098105898280A54763F7B70421
:103540008D47138765FF3307F7020328C5009D47A2
:10355000B397E70093C7F7FFB3F70701B396E60009
:10356000DD8E54C5994763E3C70495477D1633063E
:10357000F6025859FD47B397C70093C7F7FFF98F75
:103580003396C5005D8E50D982800D473387E502A2
:10359000032805019D47B397E70093C7F7FFB3F7EB
:1035A0000701B396E600DD8E14C96DBFB14763E233
:1035B000C702954765163306F6021859FD47B397BB
:1035C000C70093C7F7FFF98F3396C5005D8E10D9FA
:1035D000828095474D163306F6025855FD47B3973E
:1035E000C70093C7F7FFF98FB395C500DD8D4CD5A4
:1035F0008280A18193C5F5FF0CC18280EFC23FF2AA
:1036000001112A8423030100A5441C8363FAF406F4
:1036100023030100A54621461C8363F0F60A231408
:1036200001002315010023030100954613060060E5
:103630001C8363FEF60E1C8393F7F70F6384071257
:10364000388414833C840C8310833347D702B3E758
:10365000B7028607B3C7C702BA97C207C1837C8483
:10366000188399479546998F93F7F70FDC839C83CE
:1036700093F7F70F639C07108567938707800DAA60
:103680001C4493E787001CC42285EFF01FEA6DFD00
:103690001C4493E747001CC42285EFF09FE96DFDB1
:1036A00078441C8314108607B6972396E7FE1C8384
:1036B000850793F7F70F5C8389BFA30301009C8301
:1036C0006378F6001C83850793F7F70F5C83A9B72F
:1036D00098839C830C100607850786072E97AE9764
:1036E0000357C7FE83D7C7FE63FDE7029C838607A7
:1036F000AE9783D7C7FE7C849C8398838507860713
:10370000AE9783D5C7FE931717001810BA97239664
:10371000B7FE9C8338840C1085078607AE972396E6
:10372000E7FE9C83850793F7F70FDC8349BF1C8373
:10373000181089078607BA9783D7C7FEE36DF6EEA0
:103740001C830C10388489078607AE9783D7C7FE81
:10375000BA97C207C1837C841C83850793F7F70F50
:103760005C83F9B593070040DDBD1C8310103885DC
:1037700089078607B29783D7C7FEBA97C207C18366
:103780007C851C83850793F7F70F5C831C83E3FE1E
:10379000F6FC388594833C858C8390833347D7022D
:1037A000B3E7B7028607B3C7C702BA97C207C18398
:1037B0007C85288434852C843085056793070040F8
:1037C000130707803385A740B306D7408D8F118F2D
:1037D0004205C206C2074207C18641874185C187AB
:1037E0003695BA9789463345D5020561B3E7D702C6
:1037F0003E95420541856FC0DFD41C4161773D078E
:1038000094517D8F9C45D58F9449D58FD449D58FC0
:10381000944DD58FD44DD58FD451D58F9455D58F08
:10382000D98F1CC1DC455CC19C411CC5DC415CC519
:1038300082801C4189C593E717001CC182804167C3
:103840007917F98FDDBF4CC18280B70702409C43D6
:103850007D8D3335A0008280EFC27FCCEFF0FFFE7C
:103860006FC03FCEB7070240C8C382809C4513F7A4
:10387000070113F8F70001C7D8413368E80037277C
:103880000240145B3707000F758F5DEB3707002090
:103890008546230ED764371701406315E5009A214A
:1038A00035839AA18E2113F7F50F39C3184181464C
:1038B000854E3D4F930F800293028004214E339634
:1038C000DE00B3F8C5006311160393982600331386
:1038D0001F011343F3FF3377E300B318180133E7F5
:1038E000E8006399F70750C98506E39AC6FD18C139
:1038F0001307F00F6375B70454412146854E3D4FC1
:10390000930F800293028004414EB398CE0033F7A8
:1039100015016392E8021317260001173313EF0015
:103920001343F3FFB376D3003317E800D98E6397C0
:10393000F703232A15010506E319C6FD54C1828049
:1039400037170140E310E5F6370700200347C76546
:1039500031DBB1B7E39A57F810C979B7E39D57FC4B
:1039600023281501C9BFB71701406318F500B70731
:10397000002083C7C76591C3B58108456D8D333578
:10398000A0008280B71701406318F500B707002038
:1039900083C7C76591C3B5810CC98280B717014041
:1039A0006318F500B707002083C7C76591C3B581C9
:1039B0004CC98280B7070140635A0504DC4F935617
:1039C0000501131805013707300013F6F6001358E8
:1039D0000801B376E500635E05066399E604930685
:1039E00006010D46B316D60093C6F6FFF58F99C9AA
:1039F000135755011377F73F12073317E800D98F94
:103A000063550506370701405CCF828037270240A7
:103A1000145BDC433707000F758F55F313D717007E
:103A2000F976CE07758FCD83D98F51BF1317B500A7
:103A3000635607008D46B396C6007DB713575501F0
:103A40001377F73F12073317E8001347F7FFF98F93
:103A500079BF6390E602370601405442370700F110
:103A60007D17F98F758F58C2C1F5370701405CC3C8
:103A700082801317B500635C07008D46B396C600BD
:103A800093C6F6FFFD8EB707000FD58FF1BF135712
:103A9000550112073317E8001347F7FF7D8FB7076B
:103AA000000FD98FD1B7EFC29FA779712A84462121
:103AB00068082EC65122925737470F001307072474
:103AC00033D7E702C204C18093F404FCC204C1806E
:103AD000B24561651305056A131607014182D18C51
:103AE00046A01620C206C182F99AC206C18216A05B
:103AF00094416369D5048606B3D7D70291461397DC
:103B000007014183BA876373D700914705064206D0
:103B1000C2074182C18312B05EAC1E20DA21B625F5
:103B200093E717001EA01E20558FC207C18393F78D
:103B300057BFD98F1EA09A25DE25D98F1EA44561B7
:103B40006FC03FA0EA2131667D16631DC5020D4698
:103B5000B386C602B3D7D702C207C1839396470183
:103B600099E293E71700A166D58F9306C012330739
:103B7000D7029306803E3347D702050742074183A9
:103B80001AB059BF6546B386C602B3D7D70291664D
:103B9000C207C183D58FD9B793F7E50F19C293E751
:103BA0001500C207C1831EA982805E290A2D420525
:103BB0005D8D6D8D220521810D8D1335150082805F
:103BC000411102C402C693D7C5012AC63EC4A2470A
:103BD000A205A18199CBB247D1073EC6B24788431F
:103BE00041016D8D3335A0008280B247C181E1076C
:103BF000EDB793C5F5FFC205C1814EA98280B71606
:103C00000240DC4251777D17F98F5D8DC8C28280FA
:103C1000B717024023800702238007020547630687
:103C2000E50011476306E50082802380A7028280B9
:103C300015472380E7028280371702405C43914694
:103C4000B18B6385D700A1466382D706B7177A0088
:103C5000938707201CC1371602405C4237070020BB
:103C6000130707019183BD8BBA9794231C41B3D7E7
:103C7000D7005CC15442A1829D8ABA969422B3D6E1
:103C8000D70014C55442AD829D8A36971823B3D706
:103C9000E7005CC55842398393763700138741802B
:103CA00036971823B3D7E7021CC982805C43584378
:103CB000C166C983BD8B758F8907C5466393D700DD
:103CC000C94701EF3747024003270780418B09CFDF
:103CD00037177A001307072021A8371702405843E7
:103CE0009316E700E3D606FE37173D00130707904B
:103CF000B387E70285B799C5371702401C4F5D8D22
:103D000008CF8280B7170240984F1345F5FF798D91
:103D100088CF82809357550005476399E700B7170E
:103D200002409C4333D5A7000589828009476396EA
:103D3000E700B71702409C53F5B7B7170240DC53B2
:103D4000D5B7B737004003D74780136707012392E1
:103D5000E78082803737004083574780C207C1839E
:103D6000BD9BC207C1832312F7808280EFC22FFB65
:103D700041112AC6EFF0FFFC3245B7370040135718
:103D800005013D8B42052394E78041812396A7805E
:103D9000EFF05FFC41016FC0CFFA37370040835727
:103DA000478093F70702E5DF82803737004083576B
:103DB0004780C207C183DD9BC207C1832312F780FE
:103DC0003737004083574780A18BEDDF828037373C
:103DD00000408357478003570780C207698FC1831C
:103DE00009C77D8D3335A0008280014582801E3158
:103DF000922103D82500C207C183F99BC207C18362
:103E00001EB11E3156211A2DC207C18342074183BC
:103E10001377C7F8518F9225F59BC20633660601CA
:103E2000D18F37360140130606C0C1826310C50228
:103E3000B225DD9B03D8E500D18FD221ED9B93F60F
:103E4000F6CFD18FD22533660601D18E56A11AAD99
:103E5000FA215AB91EB182801E3165771307F7CF58
:103E6000C207C183BD9BC207C1831EB11E3156214B
:103E700003D88500C20713960601162DC18393F758
:103E8000F7FD758F96214182A206558FB621420714
:103E90004183B3E606019206D58FB7360140C207CB
:103EA000938606C0C183631ED502B62593F7F7F744
:103EB00003D8C5009206D58FD621C207C1839206CA
:103EC00093F7F7FBD58FFD769386F63FF18EF225BB
:103ED000C207C183336606010A06D18E1396060116
:103EE000418252A11AADFA211ABD1EB182801E3143
:103EF00003D88500C207C18393F7F7EFC207C183D8
:103F00001EB11E3156215A2DC207139606014207D3
:103F1000962141831377C7F8558FB621C18393F754
:103F2000F7DFB3E60601A206D58FB7360140C20718
:103F3000938606C04182C183631FD502FD769386B6
:103F4000F67FF58FB62503D8C500A206D58FD621FA
:103F5000C207C183A20693F7F7BFD58FF576FD168A
:103F6000F18EF225C207C183336606011206D18E97
:103F700013960601418252A15AADFA215ABD1EB1D3
:103F800082801A31FD77FD17F98F1EB103580502A3
:103F900056215E2D657792211307F7CF7D8FF97734
:103FA0002206FD17518FB3F70701B22103D8850010
:103FB000C2064207336606013206D18F373601400A
:103FC000C207130606C0C1824183C183631AC500BC
:103FD00071767D16F18ED2251A06D18EC206C18267
:103FE00056A15AADFA212310E5041EB182801E2D80
:103FF000C207C183DD9BDD8D0EAD82801A2DFD775A
:104000009387F77FF98FA205CD8FC207C1831EADBD
:1040100082805E2DC207C183DD9BDD8D4EAD828027
:104020005A2DFD779387F77FF98FA205CD8FC207B1
:10403000C1835EAD82801E294A25ED8F42054181F4
:1040400089C76D8D3335A00082800145828093F54C
:10405000F51F4EA182800A216D8D3335A00082802C
:10406000B73700209387C79A23A0070023A2070031
:1040700023940700B73700209387C79923A0070030
:1040800023A2070023A4070023960700B7070020F8
:10409000239F07648280EFC2EFC693171500373560
:1040A00000201305C59A3E95834905002E89638635
:1040B00009060031B73400209384849BA299139A97
:1040C0000901135A0A01B14A93170401C18363E637
:1040D0004703130900006312FA041384F7FFB14782
:1040E0003304F402B73700209387879B3E940C403B
:1040F0004840EF70206A0C4431A8228BCE876311B0
:1041000034033147B387E7024A85BE94CC40EF7051
:1041100060688C44EF6030752A894A856FC0CFC1D2
:104120000504B30754034A85A69783A547FFEF709C
:10413000A05DE34BA0F8DA87E9B785476381F50412
:10414000B737002006059387C79AAA97982315E3E7
:10415000370700201307E7651223130840060545BB
:10416000B306B600634ED8008CA390B316A30145E6
:104170008280FD1501456305B700094582800D4524
:104180008280EFC22FB84111AA892E893A85BE8557
:104190003684B2843EC63AC4EF70D0082A8AA2851B
:1041A0002685EF703008AA855285EF70602222477D
:1041B00023A0A900A2853A85EF70C05DB247AA8905
:1041C000A6853E85EF70005DAA854E85EF7090054F
:1041D000AA89A6852285EF70F004AA854E85EF7026
:1041E000201F2320A90041016FC00FB593171500B0
:1041F000373500201305C59A3E951C216378F604D7
:10420000EFC2EFB10031B1472E8922961314060197
:1042100041803304F40203270900832789008326A1
:10422000C90003264900B73400209384849B93057A
:104230008400130544002695A695EFF09FF483278C
:10424000C900269401451CC06FC0AFAF09458280EC
:10425000373500201305C597828093173500370541
:104260000020130505663E95DC41230005005CC176
:1042700001458280F1473305F502B7370020938767
:1042800047EAD8413E959C4958C17D171CC9DC4579
:104290003337E0005AA95CC59C4DA30B05002324CD
:1042A00005001CCD01458280F1473305F502B73783
:1042B0000020938747EAAA97C82B8280EFC22FA6D7
:1042C000F1473305F502B7370020938747EA0947DE
:1042D0003D46AA971305C0023385A502D8C33737D8
:1042E00000201307C7E223AA070081453304A70073
:1042F000090580C3232204023A95EFC04FA5B7D722
:10430000000083A7C76A2320040205451CD46FC0A0
:104310004FA3EFC2CFA0F146B306D502B7370020B6
:10432000138747EAAA843D650146138447EA1305CB
:1043300005A63697144323A0060213872600F90624
:10434000035827001E23B305F84063D60500B307C2
:10435000F540B385070109072E96E393E6FE3D4538
:104360003355A602B7370020938747E8939544005A
:10437000BE95EF404001F147B387F4020547A2978D
:104380009C4388D3D8D36FC0CF9BF1473305F50248
:10439000B7370020938747EAAA97884309058280A8
:1043A000EFC2EF97F1473305F502B7370020938747
:1043B00047EA3E95004129CC58418947014563179A
:1043C000F7041C50A1C73E85EF703036B7D7000008
:1043D00083A5476AEF70003CB7D70000AA8503A504
:1043E000C76AEF60F07EB7D7000083A5876AEF70D9
:1043F000603AEF70D02142054181EF70B0260C5435
:10440000EF704039EF70B020420541816FC06F936B
:104410000145EDBFEFC20F8F71443305850237347C
:104420000020130444EA2A94832904001C480D4503
:1044300083A409026387F40426852E89EF70F02E89
:10444000B7D7000083A5476AEF70C034B7D7000024
:10445000AA8503A5C76AEF60B077EF70501B93077A
:10446000C0033305F50242054181EF70B01F83A5FB
:104470008902EF702032EF7090192310A90004C850
:1044800009456FC06F8BEFC2EF87373400201304EC
:1044900044EA81448949130A703E854A11495C40C7
:1044A000638B37051C4C2685829778386302A704F6
:1044B0001C4485071CC41DEB18486379F7005C4059
:1044C00068B893C7F7FF858BA98F5EA8850493F41E
:1044D000F40F7104E39524FDB70700209387076666
:1044E000D8438C23014502976FC00F855844F1B71C
:1044F00023240400E1BF5E288507C207C1836364EB
:10450000FA005EA8E1B71C40231A0400D8536315D3
:10451000570123A207025DBF23A0070245BF37351D
:104520000020130545F1828085673307C500938716
:10453000078063C5E708EFB2FFFCAA84328409450F
:1045400005C6373A00208547AE8A130A4AF18149E9
:10455000414B631DF60083274A022E868546A685B9
:104560001305000A829701456FB01FFD93F7F40011
:10457000B307FB40C207C183228963F387003E89EA
:1045800083274A0242091359090133863A01A68555
:10459000CA861305000A330424418297CA9942044B
:1045A000CA941545C209C2044180EF20306593D9F1
:1045B0000901EF105003C18055F875B70945828095
:1045C00085673307C5009387078063C0E70AEFB2AA
:1045D0009FF22A8C41113284094515C6373B0020D1
:1045E0008547AE89368A130B4BF10149C14A631FD7
:1045F000F60003280B02B6872E8629478546E285FA
:104600001305000A029841016FB07FF29377FC0016
:10461000B387FA40C207C183A28463F38700BE84D4
:10462000C204C180994BB38C290103280B02D287A5
:104630002947A6866686E2851305000A029801C905
:104640002AC6FD1BEF10207A3245E3900BFE058C45
:1046500026994204E2944209139C040141801359B3
:104660000901135C0C015DF079BF09458280856703
:104670003307C5009387078063C3E702EFB23FEAC1
:1046800037370020032807F3B68713074006B286A2
:104690002E86AA851305000A02986FB09FEA094585
:1046A0008280EFB2DFE74111AE8605469305F10047
:1046B000EFF0FFFB888741016FB0BFE8B70700202C
:1046C0000397876681472A97634F070009CD0566E0
:1046D0009306F6FFB6876358C700AA876305D5001F
:1046E00093170701C1833E8582800A059387C185A0
:1046F000AA979C43B706500098471367170098C7BE
:104700009847558F98C78280EFB27FE10A0593875B
:10471000C185AA978843930500221C4593E707109B
:104720001CC5EFE01FED6FB0DFE1EFB25FDF316579
:10473000EFF0EFCC6FB0FFE0EFB2DFDCB717024075
:10474000D8477971AE8432895DED13670720D8C7E9
:10475000D8471377F7DFD8C7984F1367072098CF4C
:104760002AC6EFF09FFC854732453ECA3ECCB707CC
:104770000E003ECE95472302F102931725001385C4
:10478000C1853E9500410C0802C8228502D002D4A2
:1047900002D6B569EFE01FD381479389096B639F08
:1047A000F4061C4437071000D98F1CC41C4437077B
:1047B00000FC7D1793E707101CC41C4493E7170007
:1047C0001CC45C40F98F5CC01C4493E787001CC488
:1047D0002285EFE09FD56DFD1C4493E747001CC484
:1047E0002285EFE01FD56DFD2285EFE03FE1B707A1
:1047F00000202394A7665C4037070004D98F5CC073
:1048000045616FB07FD313670740D8C7D847137788
:10481000F7BFD8C7984F1367074091B7138A17009F
:10482000CA979C239D461376FA0FCE978C23228538
:10483000EFE0BFD0D287A5B7B737002023A0A7F4F9
:104840008280B737002023AEA7F28280B7370020DE
:1048500023A2A7F48280B7170240944BB708000246
:10486000370800FEB3E6160194CB944B7D18B3F6DF
:10487000060194CBD84F33671701D8CF9307400672
:1048800051476305F50263E7A70ED1471307C0122E
:10489000630EF50093072003130780076308F500F4
:1048A000A947130780256303F5004147B767004018
:1048B00083A607404165F59A23A0D74083A6074009
:1048C00093E6160023A0D74093860740DC42858BF1
:1048D00099E37D1565FDC842B767004005894DC95C
:1048E00003A507407D17938707401375F5F788C325
:1048F00088431365050488C388431375F5FD88C391
:1049000088431365050188C388435D9988C388433C
:104910006D9988C337054B03498FD8CE9843799B4F
:1049200098C34167D443858A99C27D1765FFD843F0
:10493000058B39EFEFB2BFBED84B130540022E8472
:1049400013673741D8CBB284EF00B05B2686A285CF
:1049500013055002EF00F05A2686A2851305300297
:10496000EF00305A2686A28513056002EF007059C9
:104970006FB03FBD9307401F1147E309F5F293075E
:10498000803E0947E304F5F29307A00F214721BFBA
:104990008280B767004003A707400546938707401A
:1049A000719B1367170098C34167D4438D8A638452
:1049B000C6007D177DFBC8430D897D151335150095
:1049C0008280B767004003A7074093870740719B29
:1049D00098C34167D4438D8A99C27D1765FFC84348
:1049E0000D89133515008280EFB27FB34421411148
:1049F00000419305550026862800EF702068B767B0
:104A0000004003A787401359E40013792900931647
:104A1000570063CE060693870740984793164700D2
:104A200063C906069C47114513973700635E070468
:104A30000945376700401307074093174500BA97A9
:104A400003A70718560433642401058B23A0E71835
:104A500003A70718BD88598C23A0871803A74718F8
:104A6000419B23A2E71803A74718D98C224723A20A
:104A7000971823A4E718324723A6E71803A70718B7
:104A80001367170023A0E71841016FB09FAB0145E2
:104A90004DB7054579BFB768004013880840032E1D
:104AA000082005433313A300136E1E002320C821E2
:104AB000832EC821134EF3FF9605B3FECE01232E9D
:104AC000D821832EC820C2059606B37EDE01560685
:104AD000C1810E05C2062326D8214295C1824D8E82
:104AE0005607558F2320C5242322E524372702406B
:104AF000145B3707000F758F19EB138708301623E7
:104B00001107C206C182231ED7EEE31A07FF3767DB
:104B100000401307074083264720B3E666002322A0
:104B2000D7208DE783274721337EFE00232AC72124
:104B3000B767004003A7C7613363670023AE6760B0
:104B400003A70760799B23A0E76082808327472122
:104B5000B3E76700232AF720E1BFB337A000B766A9
:104B60000040920793860640B69703A7071B118B58
:104B700051EB03A6071B03A7071B03A8471B55827E
:104B8000098B1378F8002382050103A8871BA382F1
:104B9000050103A8871B135888002383050103A878
:104BA000871B13580801A383050103A8871B13580B
:104BB00088012384050103A8C71BA384050103A85A
:104BC000C71B135888002385050103A8C71B13586A
:104BD0000801A385050183A7C71BE183DCA511EDAF
:104BE000DC4693E70702DCC6B337E000BE07D18F8F
:104BF0009CC123970500014582809C4A93E70702E8
:104C00009CCADDB70545828039713ACE41673ECCFA
:104C100006DE16DC1ADA1ED82AD62ED432D236D0C8
:104C200042CA46C872C676C47AC27EC0130717103D
:104C3000B767004023A4E740B737002083A707F4F5
:104C40008297F250E2525253C2533255A255125635
:104C500082567247E2475248C248324EA24E124F25
:104C6000824F21617300203039713ECCB73700206C
:104C700083A7C7F32AD63ACE06DE16DC1ADA1ED888
:104C80002ED432D236D042CA46C872C676C47AC250
:104C90007EC001458297B7670040214723A6E740C1
:104CA000F250E2525253C2533255A2551256825616
:104CB0007247E2475248C248324EA24E124F824FCC
:104CC00021617300203039713ECCB737002083A7B3
:104CD000C7F32AD63ACE06DE16DC1ADA1ED82ED450
:104CE00032D236D042CA46C872C676C47AC27EC0B4
:104CF00005458297B7670040214723A8E740F25057
:104D0000E2525253C2533255A2551256825672473E
:104D1000E2475248C248324EA24E124F824F2161A2
:104D20007300203039713ACE3ECC06DE16DC1ADA3A
:104D30001ED82AD62ED432D236D042CA46C872C61F
:104D400076C47AC27EC01147B767004023A2E7400D
:104D5000B737002083A747F48297F250E2525253AC
:104D6000C2533255A255125682567247E2475248F4
:104D7000C248324EA24E124F824F21617300203042
:104D8000EFB2EFF9131425000945411133158500E1
:104D9000EFE09FAC8547631FF500B737002093878E
:104DA00087F4A2979C432AC6829732453315850023
:104DB000EFE05FAB41016FB0CFF81C41416779175D
:104DC000F98F1CC182804CC11C4193E717001CC1A4
:104DD0008280EFB2CFF43713024083274301397149
:104DE0002A8493E717004645232AF30005438147A9
:104DF00063936500C1473ECE19CA8547630AF6062C
:104E00008567938707803ED893070020BDA002D80E
:104E100002D6B7050240B737002013868500938776
:104E200087F4631EC40488C3ED44930700083ED48E
:104E300085673EDC1C403ACC41677917F98F1CC06E
:104E40004C08228536CA46C642C402D202DA02DEC5
:104E5000EFE0BF9A1C40B248224893E727001CC0ED
:104E60004686C2852685EF00D00921616FB06FEDBF
:104E7000930700403ED8930700103ED659BF1386D3
:104E8000C5016315C400C8C3F14445B713860503C3
:104E90006315C40088C7F54449BF138645046315EC
:104EA000C400C8C7F94451B7138685056315C4000B
:104EB00088CBFD449DBF9385C5066316B400C8CB5F
:104EC000930400029DB788CF93041002B9BFEFB2DC
:104ED0000FE541112A8405452EC632C4EFE09F98A4
:104EE0002246B245014550C04CC4EFF0FF811C4042
:104EF000014593E727001CC01C4093E717001CC026
:104F0000EFF0AFFE41016FB0CFE339712AD6014512
:104F100006DE16DC1ADA1ED82ED432D236D03ACEBD
:104F20003ECC42CA46C872C676C47AC27EC0EFF092
:104F30003FE5F250E2525253C2533255A255125637
:104F400082567247E2475248C248324EA24E124F32
:104F5000824F21617300203039712AD6094506DE5F
:104F600016DC1ADA1ED82ED432D236D03ACE3ECC47
:104F700042CA46C872C676C47AC27EC0EFF05FE00D
:104F8000F250E2525253C2533255A2551256825633
:104F90007247E2475248C248324EA24E124F824FE9
:104FA00021617300203039712AD60D4506DE16DCEA
:104FB0001ADA1ED82ED432D236D03ACE3ECC42CADD
:104FC00046C872C676C47AC27EC0EFF07FDBF2506C
:104FD000E2525253C2533255A2551256825672476C
:104FE000E2475248C248324EA24E124F824F2161D0
:104FF0007300203039712AD6114506DE16DC1ADA24
:105000001ED82ED432D236D03ACE3ECC42CA46C872
:1050100072C676C47AC27EC0EFF09FD6F250E252DA
:105020005253C2533255A255125682567247E24726
:105030005248C248324EA24E124F824F2161730035
:10504000203039712AD6194506DE16DC1ADA1ED848
:105050002ED432D236D03ACE3ECC42CA46C872C6E0
:1050600076C47AC27EC0EFF0BFD1F250E252525302
:10507000C2533255A255125682567247E2475248E1
:10508000C248324EA24E124F824F2161730020302F
:10509000B71701409386078011476306D5029386B0
:1050A00007C021476301D5024147630EF50093878E
:1050B00007406300F502B727014093870780631418
:1050C000F50013070004B71602409C4E5D8F98CE82
:1050D000828013070002C5BFEFB26FC401112A849A
:1050E0002EC6EFF0FFFAB245C1473ECEEC828947AB
:1050F0004C0822853ECCEFE06FF705616FB06FC4BE
:10510000EFB2EFC101112A842EC6EFF07FF8B2454D
:105110008D472285EC824C083ECC02CEEFE00FF5A5
:1051200005616FB00FC2EFB28FBF01112A842EC686
:10513000EFF01FF6B24591473ECEEC828D474C080A
:1051400022853ECCEFE08FF205616FB08FBFEFB2EA
:105150006FBB41113284AA84AE893689EFF05FF3C8
:1051600009C885450545EFE01FB985452285EFE073
:105170007F848D474C002685231231014AC63EC4E8
:10518000EFE0CFEE41016FB02FBBEFB24FB9EFE0D0
:105190008FFD6FB00FBBEFB28FB8EFE0AFFE6FB017
:1051A0004FBAEFB2CFB7EFE06FFF6FB08FB9B7076D
:1051B000002083A7C766984B1E2393E717001EA302
:1051C0008280B707002083A7C766984B1E2393E70A
:1051D00007201EA38280B707002083A7C7669C4BC9
:1051E0008AAB8280B707002083A7C766984B1E232F
:1051F00093E707101EA38280EFB2CFB02A84AE8A55
:10520000328AB68937090020EFF07FFA8327C96612
:10521000B70502009304C966884BEFE07F9A7DF5DD
:1052200037090300EFF01FFC05099C40CA85884B35
:10523000EFE0BF977DD99C401374E40F9C4B82AB89
:1052400037040700130424089C40A285884BEFE034
:10525000DF957DD913D58A007D8937040700EFF0EB
:105260009FF7130444089C40A285884BEFE0FF930E
:105270007DD913F5FA0F37040700EFF0DFF51304BB
:1052800044089C40A285884BEFE03F927DD93709C6
:10529000070001441309490863673401EFF07FF206
:1052A00001456FB06FA9B3078A008823EFF0BFF202
:1052B0009C40CA85884BEFE05F8F7DD9050413744D
:1052C000F40FD9BFEFB2AFA5370400200327C4669F
:1052D000411102C6084B144F2D465E29FD1663612D
:1052E000D60435668A061306466CB2969442C20707
:1052F000C1831304C4668286858B9DC33C3393F7B8
:10530000E70F1EA989471CCF21A8898B91CB1E2DA1
:105310004A2321817D89EFF01FEC1C402D4798CF57
:1053200041016FB00FA293F70708FDDB4823EFF0B0
:105330009FEA1C400D47E5B793F70708F5D3EFF058
:105340007FEA1C401147E1BF858BF9DB2C33054612
:10535000EFE09F841C401547D9B7898BF1D31E2DF0
:10536000994755B793F70704C5DF0E277E235447A7
:10537000138615004206FD174182AE9663D6F500EE
:105380001E2912A79CA269BF1E21C207C18393F7E1
:10539000F7BFC207C1831EA11E2912A79CA2EFF06E
:1053A0005FE208407C0001470C2148498D460546D4
:1053B000EF20F021B24791C7B7E700E0116723A0C3
:1053C000E7201C4023AC0700A1BF858BB1DB3C3339
:1053D00093F7E70F1EA9A1473DB793F6074081CE8B
:1053E000B705001093850540EFE0BF80EFF09FDF29
:1053F0001C401D472DB7898B85D71E2D4A2321813F
:105400007D89EFF05FDD1C40314711BF93F707083E
:10541000E38807F04823EFF01FDC1C40254701B765
:1054200093F70708E38E07EE16277E2363FCF6004A
:105430005C47B6978823EFF01FDA18401E278507D0
:105440001EA7F9BDA947C1B5918BE38B07EC81BFBE
:10545000EFB24F8B370400201309C4668324090080
:10546000BA891304C4669CA0F6A0D0C4CEA023942D
:105470000400A8B0EF20403A83270900C8C80547B8
:1054800098CFEFF0DFD21C40B7050200884BEFE069
:105490002FF375F91C40984B1E2393E707401EA37A
:1054A000EFF05FD418404E86FD55144BDE2293E793
:1054B0000770DEA20823EF20A05D1C40984B5E23FE
:1054C000C207C18393F7F78FC207C1835EA31E2370
:1054D000C207C183F99BC207C1831EA30547814749
:1054E0006303E50091473E856FB00F85EFB28F8172
:1054F000370400201309C46683240900BA89130401
:10550000C4669CA0F6A0D0C4CEA023940400A8B08A
:10551000EF20803083270900C8C81D4798CFEFF0DF
:105520001FC91C40B7050200884BEFE06FE975F911
:105530001C40984B5E2393E707705EA3EFF09FCA71
:105540001C404E86FD558823EF2080541C40984B0C
:105550005E23C207C18393F7F78FC207C1835EA39F
:105560001E23C207C183F99BC207C1831EA38147C3
:1055700011E18D473E856FA03FFCEFA2BFF8B75702
:105580000040938707404111AA89AE843289631B8A
:10559000F50AB7170240944BB70520003706E0FF25
:1055A000CD8E94CB944B7D16F18E94CBD84F4E85F7
:1055B0004D8FD8CFB7270600938707A81307004061
:1055C0008A8502C202C402C63EC091677C83788588
:1055D0007C86EFE04FCDEFE09FF4375700001307D4
:1055E000074558CD375700001307C74E18D1375716
:1055F00000001307871FB707002058D13757004016
:1056000023A6A76623283501130707401384C7661E
:105610004A86A6856393E9041305F002DD204A86D5
:10562000A68513050003F1281C40984B5E27C2078E
:10563000C183F99BC207C1835EA7EFF05FB7410149
:105640006FA09FEFB7170240944BB7054000370695
:10565000C0FFCD8E94CB944BB9B7130510035520E2
:105660004A86A685130520037DBF397106DE16DC48
:105670001ADA1ED82AD62ED432D236D03ACE3ECC22
:1056800042CA46C872C676C47AC27EC0EFF09FC3D3
:10569000F250E2525253C2533255A255125682561C
:1056A0007247E2475248C248324EA24E124F824FD2
:1056B000216173002030397106DE16DC1ADA1ED83B
:1056C0002AD62ED432D236D03ACE3ECC42CA46C8A2
:1056D00072C676C47AC27EC0EFF0DFBEF250E252EC
:1056E0005253C2533255A255125682567247E24760
:1056F0005248C248324EA24E124F824F216173006F
:105700002030854712066394F500136606F8B7E764
:1057100000E0AA971376F60F2380C74093575500F1
:105720000547938707043315A7008A0737E700E08A
:10573000BA9788C38280EFA2FFDCB7170240D84F28
:10574000B7060018AA84558FD8CFB7760040984284
:1057500005452E891367071098C29853C166B28910
:10576000558F98D39853C176FD16758F98D3EFE077
:105770002FCA0144130AA00F13051004EFE08FD9BC
:1057800001ED631444016FA03FDB05045145137420
:10579000F40FEF20D048CDB79307A00FE305F4FE38
:1057A000B7170240985321641367071098D3985392
:1057B000418F98D3EFE06FDEEFE02FDF3737004007
:1057C0008357078093E717002310F780EFE0EFDCA3
:1057D0001305F4FFEFE08FD9EFE02FDC4E86CA858A
:1057E0004D45EFF01FF2B707002023A8976661BF71
:1057F00039712AD605453ECC06DE16DC1ADA1ED8EB
:105800002ED432D236D03ACE42CA46C872C676C4F8
:105810007AC27EC0EFE0AFDB85476312F502B707BF
:10582000002083A707678297373700408357478058
:10583000C207C183F99BC207C1832312F780EFE03F
:10584000CFD5F250E2525253C2533255A25512569E
:1058500082567247E2475248C248324EA24E124F19
:10586000824F216173002030B717024025E1D447F1
:1058700005657D76C98ED4C7D4477D16F18ED4C711
:10588000984F498F98CFB7370140014781C50567C9
:105890001307078092238D6693860604F18E558F39
:1058A000F1769386C630558F420741839AA3DA2F4B
:1058B00013774710DAAF23980700DA23136727001E
:1058C000DAA39A23136707049AA38280944B116585
:1058D0007176C98E94CB944B7D16F18E94CBD84FB4
:1058E000498FD8CFB74700409387078079BF0A0513
:1058F00093878180AA979C431307F0FB9AA7828025
:105900000A0593878180AA979C4301459E27828040
:1059100085476308F50405C589476302F5068D4789
:10592000630CF506B7170240984B1367870098CBB6
:10593000984B5D9B98CBD84F136787003DA8B7174E
:105940000240D447056713070780D98ED4C7D447D0
:105950007D761306F67FF18ED4C7944F558F98CF7E
:105960008280B7170240984B1367170098CB984B6B
:10597000799B98CBD84F13671700D8CF8280B71781
:105980000240984B1367270098CB984B759B98CB98
:10599000D84F13672700D5B7B7170240984B136746
:1059A000470098CB984B6D9B98CBD84F1367470017
:1059B000E9B75D7122DE371400402ADC2EDA1305C8
:1059C000048085453ED286C696C49AC29EC032D80F
:1059D00036D63AD442D046CE72CC76CA7AC87EC683
:1059E000EFE06FE58547631AF500B737002083A71E
:1059F000C7FA8297F9572318F4807254B640A6422A
:105A0000164386436255D2554256B2562257925794
:105A10000258F248624ED24E424FB24F616173005B
:105A20002030B5670A059387476FAA9798431E23CE
:105A300093E717001EA38280B5670A059387476F17
:105A4000AA9798431E23C207C183F99BC207C1834B
:105A50001EA38280B567131725009387476FBA97F7
:105A60009C439A2742074183619B420741839AA73F
:105A700051473306E502962337370020130747F6D0
:105A8000C206C18293F6F6C832975223D18E96A3EE
:105A900016233A23D6B79AB709E5373701402318BA
:105AA00007C20547DAAB8280EFA27FA72A8411459F
:105AB0000111814463668500B7A44A0493840420DD
:105AC00022853ECE3ACC36CA32C82EC6EFF05FE40D
:105AD000B24551453308A4024246D246373500202C
:105AE000130545F6B3D4B402429512A154C526A1BC
:105AF0002285EFF03FF635651305456F93162400B8
:105B0000AA9694427956624792AACA26F24713652A
:105B10001500CAA689461305E00263E6860093864F
:105B20004186369408203E86BA85EFF09FBD056118
:105B30006FA03FA1EFA21F9D011102C802CA02CCB3
:105B400002CE91472A84B289B684014963E6A70050
:105B500037A94A041309092022852EC6EFF05FDB1E
:105B6000B245D1473307F402B7370020C209938703
:105B700047F693D9090122850A043359B902BA9725
:105B8000239037012392070023912701EFF09FEC28
:105B9000C167938707073EC8B5679387476F3E94F1
