:100000006F30404013000000130000001300000098
:100010001300000013000000130000001300000094
:100020001300000013000000130000001300000084
:08003000130000007300100032
:100038000000000000000000720E0000740E0000B6
:10004800000000009C3300000000000000000000D9
:100058009E330000A03300000000000000000000F4
:10006800B072000000000000000200000000000064
:10007800A6330000A8330000AA3300002E66000053
:10008800AE330000B0330000B2330000B4330000D8
:10009800B6330000B8330000BA330000685C0000D3
:1000A800BE330000CC5C00009A5D0000345D0000A7
:1000B800C6330000FE5D0000AA5500006858000025
:1000C8003E590000A0590000045A0000D433000033
:1000D800D633000080680000DA330000966700001D
:1000E800DC69000068690000F46800004E640000E4
:1000F8009A640000E664000032650000EC330000FA
:10010800EE330000F0330000F2330000F433000057
:10011800F6330000F8330000FA330000FC33000027
:10012800FE3300000034000002340000000000002C
:080138000000000000000000BF
:10020000130181F806C216C41AC61EC822CA26CC1B
:100210002ACE2ED032D236D43AD63ED842DA46DC76
:100220004ADECEC0D2C2D6C4DAC6DEC8E2CAE6CC46
:10023000EACEEED0F2D2F6D4FAD6FED8F3220030CF
:1002400096DA9702002083A2624123A02200F325C0
:1002500010342EC003A10183EF80A03617030020C5
:100260000323C33F03210300824273901234D6520A
:10027000739002309240A2423243C2435244E2445D
:10028000724582551256A2563257C2575258E258FA
:1002900072598649164AA64A364BC64B564CE64C0E
:1002A000764D865D165EA65E365FC65F13018107DA
:1002B0007300203013000000130000001300000042
:1002C00013000000130000001300000013000000E2
:1002D00013000000130000001300000013000000D2
:1002E00013000000130000001300000013000000C2
:1002F00013000000130000001300000013000000B2
:1003000083A20183938202E07390023417010020DC
:100310000321C134024182403243C2435244E24489
:10032000724582551256A2563257C2575258E25859
:1003300072598649164AA64A364BC64B564CE64C6D
:10034000764D865D165EA65E365FC65FD652A1020A
:1003500073900230A24213018107828013000000D3
:100360001300000013000000130000001300000041
:100370001300000013000000130000001300000031
:100380001300000013000000130000001300000021
:100390001300000013000000130000001300000011
:1003A0001300000013000000130000001300000001
:1003B00013000000130000001300000013000000F1
:1003C00013000000130000001300000013000000E1
:1003D00013000000130000001300000013000000D1
:1003E00013000000130000001300000013000000C1
:1003F00013000000130000001300000013000000B1
:10040000F322003093F272FF130380181203B3E259
:100410006200711523205500130585FA10C12115BE
:10042000232005009302000063870200711523203A
:100430000500FD12D5BF71150CC1828000000000BF
:1004400000000000000000000000000000000000AC
:10045000000000000000000000000000000000009C
:10046000000000000000000000000000000000008C
:10047000000000000000000000000000000000007C
:10048000000000000000000000000000000000006C
:10049000000000000000000000000000000000005C
:1004A000000000000000000000000000000000004C
:1004B000000000000000000000000000000000003C
:1004C000000000000000000000000000000000002C
:1004D000000000000000000000000000000000001C
:1004E0000000000000000000000000000000397162
:1004F00001436EC619A0397141536AC866CA62CCFD
:100500005ECE19A0397101535AD056D252D44ED66C
:100510004AD826DA22DC06DE3301614082824111AC
:100520004AC026C222C406C68282B24D4101024D93
:10053000924C224CB24B4101024B924A224AB249A0
:100540004101024992442244B240410182803D432C
:100550002A876373C3029377F700BDEFADE5937607
:1005600006FF3D8ABA960CC34CC30CC74CC7410763
:10057000E36BD7FE11E28280B306C3408A0697027E
:10058000000096966780A6002307B700A306B70071
:100590002306B700A305B7002305B700A304B700DF
:1005A0002304B700A303B7002303B700A302B700D7
:1005B0002302B700A301B7002301B700A300B700CF
:1005C0002300B700828093F5F50F93968500D58DB3
:1005D00093960501D58D61B7939627009702000089
:1005E00096968682E78086FA9680C1171D8F3E9682
:1005F000E374C3F8A5B7370500201305C55B8280F7
:10060000370500201305855B8280B707002023A0F3
:10061000A75C8280EFF23FEEB70500203971938529
:10062000455B014537040020EFB030082328A45A69
:100630001304045B19E1EF2000141C40370700206D
:100640000327075CDC4398C3EF90A017EF90601A74
:10065000EF0060742313A10202D6EF00C0761C40A5
:10066000A302A102DC43884323AA0700EF90401BAA
:100670001C40C843EF90802E0840035661025C4145
:100680008C43EFB0B01219C1EF20E00EB707002085
:100690009387473498530840930661023AD8D85359
:1006A000130651020C183ADA9857DC573ADC3EDE52
:1006B000EFB0301319C1EF20000C83A6418103492C
:1006C0005102032A040036CEEF00806F9307401FCB
:1006D0003EC0F24689679309C102C507C98F4EC65D
:1006E0004AC402C29308803E1308401F01470146D6
:1006F00081455285EFB0101211C5B5576304F5005E
:10070000EF206007084003A641814E874C49CA8606
:10071000EFB0D01B19C1EF2000061C409C4399C3C9
:10072000EF2060051C40B70400208969C843130A04
:10073000803EEF90E00F23A2045CEF90000DEF707D
:1007400010332A8902D49384445C938909719C40B4
:1007500089CBB707EFBE37E700E0938707083CC7B0
:10076000FDBFA25503A58193B3D54503EF70E034D7
:10077000EF9020084ED4EF70902F330625413306BA
:100780004603AA8A0840341081455689EFB0B0224A
:1007900088C003A5C193814601468145EF60D078AA
:1007A000EF90A0066DB7EFF2FFD54111EF90600416
:1007B000EF70F02B89692A8402C6130A803E938960
:1007C0000971370B0020EF904004B24503A5C19397
:1007D00013090B5BB3D54503A284EF70002EEF9095
:1007E0004001832709004EC695CFDC43DC4B9DCBEF
:1007F000EF70F027AA84032509001C4185E75C41BE
:10080000DC4B8DC33384844033044403740081453E
:100810002286EFB03022032509007400228681452C
:10082000EFB05025268445B79387C1943E9593D762
:1008300085000CA11CB193D70501E1813CA12CB12D
:1008400082809387C1943E950CA1A1810CB18280D6
:10085000EFF2FFCC89476300F60291476300F6028E
:1008600085476318F6002A879C211385C1943A9521
:100870001CA10145F9B18E21E937E5BF8C416D37E7
:10088000CDBFEFF2DFC9AE869385C1940946AA9524
:10089000EF4070307DB19387C194AA979833882335
:1008A0002207598D8280EFF2FFC57971130660220D
:1008B00081451385C19461398946130600219385CA
:1008C000C1940145EF403038631605321384C1945A
:1008D0001820930740056302F72AB706001AB717D6
:1008E0000B2037070001938747D514D8B7F60301CB
:1008F000130607101CC09386468089475CA054D815
:1009000030C030CC70D0896737060078B726040035
:1009100093871740938606A070D4374605017EA4BE
:1009200014DCB7070005B70600031306566093856D
:1009300006101CC830D8B7070024378605005CC8ED
:100940006CC093070050B705005A130606801CCCF4
:100950006CC493070010A96570D834DC130600201E
:100960009386062058CC58DC78C838D02320C40899
:100970001CD03CC42CC87CCC3CD474DC23220402A4
:100980002324040223260402232204082316F40A43
:10099000231CF40AE147A301F40CB717021593874F
:1009A00007202322F40CB70713039387175023243F
:1009B000F40CB70705042326F40CB7073603938716
:1009C00037602328F40CB707F3029387F703232A31
:1009D000F40CB70706009387370F232CF40CB707E6
:1009E000CF009387B70DB7060002232EF40CB7078C
:1009F000ED009387670E232ED40893860620854446
:100A00002320F40E2320D40A2322C40A2324E40A38
:100A100093050010154523240408232604082328E1
:100A20000408232A0408232C0408A30B940A230790
:100A3000040A230D040ACD3B81452545F533B797BC
:100A40000112C9072322F40EB707129093870719E2
:100A5000B9692306940E2324F40E9389C962930482
:100A6000D00E130B501383DA090026859109D68521
:100A7000C93B03DAE9FF138524004205D285418191
:100A8000C933138504054205D68541815D3B138535
:100A900024054205D28541816D331385040A420540
:100AA000D6854181793B1385240A91044205C2040D
:100AB000D2854181C1807133E39764FBA157A30EB6
:100AC000F41CFD7793873780B7057978231FF41CD2
:100AD000C9058D471305501F2300F41EB133B70518
:100AE000003ED5051305501E8133B7050076ED0590
:100AF0001305901E153BB7053F78CD051305D01E95
:100B00002533B7050071D1051305101F313BB7051B
:100B10007350D9051305101E013BB705006DDD05A7
:100B20001305901F1133F1451305D01FF539814589
:100B300013051020D539814513055020F531A947FB
:100B400089462315F420130600219385C19401459D
:100B5000A3040420EF4030041306002181451385CF
:100B6000C194F5322945EF70701F894613060021A4
:100B70009385C1940145EF40100D83A741818349BE
:100B8000440E8945C8430547914670081305C5279B
:100B90004ECEEF90D03BFD1993F5F90F0145EF4094
:100BA000A03B45CD83A74181034A740E8545C843C8
:100BB0000547914670081305852852CEEF903039CD
:100BC000D2850545EF4040396308050E83A7418172
:100BD0008349A40E8545C84305479146700813050F
:100BE00045294ECEEF90B036CE850545EF40C03654
:100BF00063030512B70700202396075C45612DBAF1
:100C0000139604014182131A26001305DA0E32C628
:100C1000593142054185EFC0C0492AD01305FA0E6B
:100C20009D39EFC060552AD213051A0FAD31420528
:100C30004185EFC000482AD413053A0FA939EFC007
:100C4000A05332462AD60C1001458504EF40E03B04
:100C500093F4F40FE3C634FBB1B78144E5BF1396B8
:100C600004014182931926001385D91332C6253118
:100C700042054185EFC0E0432AD01385F91321399D
:100C8000EFC0804F2AD213851914313142054185B6
:100C9000EFC020422AD413853914F53EEFC0C04D71
:100CA00032462AD60C1005458504EF40003693F4F1
:100CB000F40FE3769AFA19BF8544E5BF13160401D1
:100CC0004182931426001385D41832C6E9364205B2
:100CD0004185EFC0003E2AD01385F4186D3EEFC069
:100CE000A0492AD2138514197D3642054185EFC0EB
:100CF000403C2AD413853419793EEFC0E047324690
:100D00002AD60C1009450504EF4020301374F40F67
:100D1000E3F689FAC5B50544E5BF9387C194AA9760
:100D20009833A82322074205498F8823498FA83387
:100D30006205598D82809387C1943E9508218280F7
:100D4000EFF2EFFD41112A846800B284EFC0E05752
:100D50008947638AF4029147638BF402854763975E
:100D6000F40018869387C194A29798A39307F02064
:100D700063E88700894626866C002285EF40A061E3
:100D800041016FF00FFC2C862285653CC5B7B2454A
:100D90002285593CE1BFEFF28FF881451145EF40C4
:100DA000C06D1D479307D0076369A700931715000F
:100DB00039651305C5613E951E213E856FF06FF8BC
:100DC00013050010828003C5F1948280EFF22FF5A5
:100DD000370400201304C45C1E2013077016850717
:100DE000C207C1831EA0637BF70015453D379305FD
:100DF00015001545EFF05FA3231004003704002011
:100E00001304845C0840EFC02037AA8403C5919581
:100E100081450D2AEFC0E029B7E7000083A54767A9
:100E2000EFB0E07FA685EFB0E048EFC0202308C018
:100E30006FF02FF1EFF2AFEEB707002083A5875CCC
:100E4000930740062545B3D5F502EFF0FF9D814697
:100E50002146938511951545EF40E0536FF06FEEF5
:100E6000B707002003A5875C930740063355F502BA
:100E7000828001A039712AD637E500001305856705
:100E800006DE16DC1ADA1ED832D236D03ACE3ECC86
:100E900042CA46C872C676C47AC27EC02ED4EFC09B
:100EA000A07DEF80D002AA8537E500001305C56854
:100EB000EFC0406BEF801002AA8537E500001305F4
:100EC000C569EFC0206AEF805001AA8537E50000B0
:100ED0001305C56AEFC0006901A0EFF24FE44111AC
:100EE0002E84AA8519453EC03AC236C432C6EF10D8
:100EF0002048A2851545EF10A04732461145B2851E
:100F0000EF100047A2460D45B685EF1060468145BB
:100F10000945EF10E04512470545BA85EF104045F9
:100F200082470145BE85EF10A04441016FF06FE19B
:100F3000370500201305055E8280B707002023A82F
:100F4000A75C8280EFF2AFDD9307F5FF714763691D
:100F5000F71039678A071307C76BBA979C43AE84AB
:100F600082871305152142054181F1332A842285A8
:100F70006FF02FDD1305152142054181EFF0BF9180
:100F8000F5B739151375F50FEF001075AA850145F2
:100F9000EF307071B7E7000083A54778EFB0702499
:100FA000EFC0A0052A84E1D41305500EEFF0BF8EE8
:100FB0002A9475BF0D45EF003072EFC0000429443C
:100FC000330485026DB70145EF40E022AA84130582
:100FD000D01DEFF05F8CEFC0201AB7E7000083A5AB
:100FE0008778EFB0C0632A842685EFC0800CAA857D
:100FF0002285EFB0101FB7E7000083A54778EFB058
:10100000501EEFC0A0059DB70545EF40C01EAA8445
:101010001305F01D7DBF0945EF40E00B81BF893509
:10102000B1B71545DD3999B7B707002003A4075DAF
:101030003DBF1305C020D5311354854093074006AA
:101040001374F40F3304F4029377F50F418513758D
:10105000F50F3E948967938707713305F50289BFC1
:10106000014431B7938741B7905B83C757038145EC
:10107000138741B7054513080002B316F500F18E3A
:1010800091CA99C1A30AF7020345570305051375D1
:10109000F50F8280850793F7F70F6373F800814798
:1010A000854561FEC5B7138741B7834647029387DD
:1010B00041B7139626003297104371476314E60236
:1010C000885B0DC103C75703930800020548050755
:1010D0001377F70F9375F70F63F5B802A38A07022A
:1010E000A38607021387160083C647031377F70FFB
:1010F0002382E7026364D7002382070223A4070246
:1011000082803316E800698E050769D6A38AB70284
:101110008280938741B703C7570223A40702238223
:10112000E7028280EFF2AFBFED370546938591B9B4
:101130001305902031316FF0CFC003C581B9828093
:10114000A54763E6A700238CA1B801458280054529
:101150008280A54763E1A702EFF26FBC938541B798
:10116000A382A50205469385550213059020C93E2A
:1011700001456FF00FBD05458280938741B783C657
:10118000470203C757026385E60203C7D7020DE390
:1011900098573A9588D783C767021307803EB3876D
:1011A000E7026367F500EFF28FB7A5376FF06FB90D
:1011B000828001C9F147630AF5009D47014563F547
:1011C000B7002384B1BA054582802380B1BA0145B6
:1011D0008280EFF22FB313059020938441B7EFF094
:1011E0009FB5A382A4021305A020EFF0DFB483C74C
:1011F00054022383A402238A04022382F402138963
:1012000041B78144138441B7054AA5491395240089
:101210001305151E42054181EFF03FB02320A900C0
:1012200093F5F40F1375F50F6937630645018504CF
:101230001109E39D34FD23280402A30A04026FF080
:10124000AFAF138741B7185B938741B7630EA7020F
:1012500083C6C70295CA1347F7FFB376A700A38AD0
:10126000070201460148054393080002B315C30075
:10127000F58D1377F60F91C963040800A38AE7027E
:10128000054788DBA386E7028280050705061377FA
:10129000F70F0548E31C16FDD5B7138741B7834602
:1012A000D7020547938741B76396E60003C7C70295
:1012B0002382E70203C747020A07BA97884382805E
:1012C000EFF2EFA5014689452A84EF104000228500
:1012D00001468D45EF00B07F014685452285EF0030
:1012E000107F6FF00FA6EFF28FA341112A8432C452
:1012F0002EC6EFF04FDAB2458AA11305240042054D
:101300004181EFF04FD922460AA241016FF06FA34D
:10131000EFF2EFA031493309250341117000AA848F
:101320002E849305E1001305B901753F38863C878B
:101330000146B366F70089CE63E9E700636AE4001B
:1013400033B687001346160021A00546E36AE4FE83
:1013500089452685EF00B07770009305E1001305FD
:10136000F901513738863C870146B366F70089CECC
:1013700063E9E700636AE40033B6870013461600AA
:1013800021A00546E36AE4FE85452685EF0030741A
:1013900070009305E10013053902B13738863C87A8
:1013A0000146B366F70089CE63E9E700636AE400AB
:1013B00033B687001346160021A00546E36AE4FE13
:1013C0008D452685EF00B07041016FF08F97EFF2E9
:1013D0008F924111AA8AAE843D456C00B2891306F2
:1013E000E10036893A8C3E8B428DC68C0354410411
:1013F000DD3D2886835BE10033057541EFB0704B1E
:10140000B7E7000083A5C778EFB0A05D2A8A636EB6
:10141000340333857941EFB0D049D285EFB0202035
:10142000EFB0D0432300AD0033053441637489002D
:101430003305394142054181EFB01054D285EFB0F8
:10144000001EEFB0B0412380AC00636D54033385C0
:101450007A41EFB01046D285EFB0601CEFB010407B
:101460002300AC0063E384023304544113150401E8
:101470004181EFB07050D285EFB0601AEFB0103EEE
:101480002300AB0041016FF08F8A33845441F9BFD0
:1014900003480100388263F6A5026374A70063E67F
:1014A000E6006379B700637FE602238008012380AA
:1014B000070182806364D700E37BE6FE2380080196
:1014C00082806377E600E362B7FEE379D7FE19A076
:1014D0006375D700E36BE5FCD5B7E371B7FEE3684E
:1014E000E5FCE9BFE36CD7FCD9B7EFF24F83797124
:1014F0002A892E84B2846C101306E1023D4536CE53
:101500003ACC3ECA42C846C6F93BF246B2484248C7
:10151000D247624763F4860263EB260163E9280140
:1015200063E91601230007012380070129A0E3FDD9
:1015300016FF2300070145616FF0AF8063679400D9
:1015400063E59800E36214FFF1BFE37414FFE9BFA1
:10155000EFE2FFFCEF70C044B707002023A2A75EB4
:10156000B707002003A5075E01478D461146814558
:10157000EF70F0056FE0FFFCEFE27FF7B7E70000E8
:1015800083ABC778396AB96A396B397101498549C2
:10159000130A8A76938A8A74130B0B73054489475E
:1015A00063808914638E0914E39CF9FE2945EF607A
:1015B000F07A85653715014093850580130505C0D0
:1015C000EF401022370700201307975D631685143C
:1015D000042381C8B7070020230007002397075C76
:1015E00085440144B94C1305340C42054181137CF8
:1015F000F40FEFF04FF4631905166285D13105043D
:10160000E31394FF1305100DEFF0EFF22306010230
:10161000A306010223070102A307010249C1854570
:10162000EFF05F92931C05011306A1032C18AA8DFD
:101630003D4555395018930561034D456D311018DE
:10164000930521035D4545318357A103035581036C
:1016500093DC0C011D8DEFB0D025DE85EFB0603836
:101660002A8D3945EFF02FED035641030354010352
:10167000035C2103835661036312051063648C00CD
:1016800063FFC60066C26AC09308D1021308C10294
:101690009307F1021307E102E28522850D3B8346A1
:1016A000D1020346C1028345F1020345E10237043A
:1016B0000020930C445DEF00903C83A70C001304C2
:1016C000445D6394071E2945EFF03FAB638504102A
:1016D00085476300F910631C091AEFF0DF9CE5A849
:1016E0007D5774181306F00F81450145EF70C05FF8
:1016F000F257918BE38407EAEFF0BFAD814979BDE2
:10170000B707002003A5475E01478946014681458A
:10171000EF70E06B894959B5B70600209386E65C07
:101720009E2204238507C207C1839EA289EC9146AD
:10173000E3F9F6EA00A39306702563FAF6008947F9
:101740001CA3054971BDE38884FE814459BD13077C
:10175000F0186369F7001307700C8144E373F7E82E
:10176000094941B50D49D5B78545EFF0AFFD931552
:101770000501C1816285EFF0BFB951B513950D0127
:10178000418136CE32CCEFB0D012EA85EFA030697D
:10179000EFB0D00C1378F50F6246F24663648C000C
:1017A00063F0C60242C066C29308D1021308C102A8
:1017B0009307F1021307E102E2852285D139C5B50D
:1017C000E6889307D1021307F102E2852285313BB7
:1017D000F9B523A02C01B707002003A5075D370446
:1017E00000201304845DEFF0DFA5EFF01FAB2A8C1F
:1017F000F1471375F50F631FF508EFF0BF86A94693
:101800003377D502BD67938747821306000593059A
:1018100000053355D5023E9781461375F50F3E9569
:101820001C23182113059007EFF02FEB0145EF0063
:10183000F03D85471CA0B707002083C7875D85C39F
:10184000370700201307A75D1E2393068002850734
:10185000C207C1831EA363F8F6242310070091C0BA
:10186000014913050021EFF00F839377F50F014530
:1018700091CB1385F7FF1375F50F13059506060534
:10188000EFF06F81EF00D04CEF00905601BBEFF00E
:101890007F8991B78145EFF0EFEAAA8513550C01D6
:1018A000EF00F0382300040079B70547639AE7108A
:1018B00037070020370C0020230CF75C130CCC5D9D
:1018C00095C463000902630CF90283470C001547B5
:1018D000FD1793F7F70F636BF7008A07DA979C43BE
:1018E000828783470C0085072300FC0083470C0098
:1018F0001D476363F70C8A07D6979C438287EFF0F6
:101900005F8123A00C00DDB78D471CC0C5B7914790
:10191000EDBF9D47DDBFA147CDBFA547FDB78945B9
:101920001305D01DEFE0FFF589451305F01DEFE02D
:101930005FF523000C005DBF814701478146130618
:10194000D0069305E0061305D00609A88147014794
:10195000814619469305300713050005EFF0EFD7D0
:10196000D9BD8147014781461306B005E5B78147D8
:101970000147994613064005994513057007F9BFBD
:10198000814701479306B005F5B7814701479306A4
:10199000F004CDB781470147930690071306E00393
:1019A000930570074DB781457545EFF0AFD9AA850E
:1019B0001565EF00D02741B585472300FC00A5BD84
:1019C00091C49377D9FF6393E7001CC018409946F0
:1019D0009307D7FFE3E1F6E68A07D2979C43828715
:1019E0000145DD29EFB06061A945B305B5021305D6
:1019F0000060C1B70545CD21EFB02060A945B30512
:101A0000B5021965130505B06DB70945F121EFB0B1
:101A1000C05EA945B305B5021565130505F051BFB4
:101A20008D4781456318F7025945EFF0AFD1AA857C
:101A3000096513056530EF00901FE38E04DE8947CA
:101A40006312F90814400D4795476383E6009947F0
:101A50001CC0D5B35D45EFF0EFCEAA85196513051F
:101A6000B535D1BF954781456317F7025945EFF06A
:101A70006FCDAA850965130565C0EF00501BE38C87
:101A800004DA8947631BF906144015478D47E38143
:101A9000E6FC914775BF5D45EFF0CFCAAA85116599
:101AA0001305B5F5D9BF5547E37BF7DA01441D4C63
:101AB0002285050481451374F40FEF00700BE319C0
:101AC00084FF71BBE31909D618408D471305D01D5B
:101AD0006304F7001305F01DEFE0FFDB18409305EA
:101AE000150093F5F50F8D471305D01D6304F7001E
:101AF0001305F01DEFE0FFD43DBBE31E09D21840F3
:101B000095471305D01D6304F7001305F01DEFE0A2
:101B10009FD89305F5FF93F5F50F18409547E9B762
:101B2000EFE2FF9F37140140EF40E03313050480DC
:101B300093050010EF40404C130504C0C145EF4031
:101B4000003F8564938504C2130504C0EF40004341
:101B500037061800130504C0914613060610A14568
:101B6000EF4040449385048013050480914601466C
:101B7000EF404043E1460146130504C08D45EF4068
:101B80006042130504809305F004EF40C03C130548
:101B90000480E14601469305000AEF40A040E1467B
:101BA0000146130504C0A965EF40C03F130504803A
:101BB000C145EF40C037130504C08565EF402037AD
:101BC000130504C0E14637461D0093050020EF4091
:101BD000603D130504C09306800437461D0093053D
:101BE0000010EF40203CF146130504C00146930568
:101BF000000CEF40203BEF30A027054685453735E8
:101C00000140EF4010293745004005468545130542
:101C10000580EF401028371500001546854513054F
:101C2000C5DCEF40D015B7440F00B72600008D4744
:101C30000547938504249386C661130640060D4527
:101C4000EF4050680D45EF403060B1461306803ECE
:101C5000938504240945EF4030710945EF40D05E7B
:101C600095450545EF300071C145130504C0EF40AF
:101C7000E0373765004013050540EFE01F996FE03E
:101C80005F8CEFE2DF893725014081451305054070
:101C9000EF10300A370500200325855FB7070020C5
:101CA000138407600147938707608D460546894581
:101CB00023200400EF70602C1C4091C7B7E700E0C0
:101CC000116723A0E7206FE0DF87EFE25F8537042D
:101CD0000240130544048145EF206010BD45130503
:101CE0004404EF2020120145EF30004885451305DC
:101CF0004404EF20C00E6FE0DF84EFE25F8289478B
:101D00006308F5008D476300F50201456FE07F83AE
:101D10009305004037150140130505C0EF40402CE6
:101D20001375F50FE5B793050002EDB7EFE22FFF4E
:101D300091E937150140C145130505C0EF40002B5F
:101D40006FE03F8037150140C145130505C0EF40E6
:101D5000A02AFDB7370500201305855F8280EFE2DA
:101D60000FFCEF60F043B707002023AEA75EB70774
:101D7000002003A5875F01478D4611468145EF701E
:101D800000056FE00FFCEFE28FF903A781839387D3
:101D90008183DC2301113724014030089545130568
:101DA00004403ACC230EF100EF308072EF30202C4B
:101DB000B72700002A87938727C8370502403EC00F
:101DC0008D48054881479306C44405468145210551
:101DD000EF30304C05616FE0CFF6EFE24FF141118B
:101DE000EF30E0282A841309E501AA840395040052
:101DF0008904EF30206A239FA4FEE39924FFB7E70C
:101E00000000B7E9000037EA000083AB8779B7E745
:101E10000000832A0A7903AB497903ACC77993841C
:101E2000C1BA01493E244A288D4DA6853E951E2003
:101E3000137DF90F3E953355B503938C81BB420555
:101E40004181EF7000696307BD0791476309FD0495
:101E5000EFB0803283250A79131D2900669DEFA01B
:101E6000503883A54979EFA0D037DE852AC6EFA088
:101E70005037B247AA8D03A50C01BE85EFA0705F55
:101E8000AA856E85EFA0A0792320AD0005099547AE
:101E900009048904E318F9F841016FE00FE9EFB094
:101EA000A02DD685EFA0F033DA85EFA0903323A8DC
:101EB000AC00E9BFEFB0402CE285EFA0903283A5E3
:101EC0004979EFA01032B7E7000083A5077AEFA0A9
:101ED000603E23A6AC005DBF0A05938781BBAA972D
:101EE00088438280EFE2AFE083A741815D71814941
:101EF000DC4301479386471791C683A6C71799C24B
:101F00001387C600B70A002023AAEA5E93868716C5
:101F1000938A4A5F014791C683A7071799C313871E
:101F2000C700B7E7000083AB477AB7E7000003AC10
:101F3000877AB7E7000083ACC77A370B00202328E5
:101F4000EB5E014901448544130B0B5F372D000004
:101F5000E68D054A89476387440763890418E39C33
:101F6000F4FEEF30C010AA85370502403D4621053A
:101F7000EF3050492945EF60605E01473410130689
:101F8000F00F81450945EF603056058979D1EFF0B2
:101F9000DFE4EF30A03463064419630504166304DC
:101FA000941A8D47E317F4FA81450145652B814565
:101FB00005454D2BEFE01FE881450145EF30600DF1
:101FC000014441BF7D5734101306F00F8145014590
:101FD000EF609051A257918BADDFEFF0DFDAA947A8
:101FE0004C18BEC2BEC00D459307ADCFBEC626DCA1
:101FF000EF30400B1305B020EFE0FFD37D15133514
:1020000015002ADC4C180945EF30C009B72700003D
:102010009387C7D26C1001453ED826DCEF30C0054F
:102020009384C1BF1385C1BFEF7040501385040175
:10203000EF70C04F9384C1BCDE851385C1BCEF70C7
:10204000404C13858400DE85EF70A04B9384C1BDA6
:10205000E2851385C1BDEF70E04C13850401E28574
:10206000EF70404C81450145EF30600A85450545DC
:10207000EF30E009B72400003D6A1388A4CC9547EF
:102080000147A14613060AA69305007D0145EF40CE
:10209000703CA14613060AA69305007D0145EF405A
:1020A000904F0145EF30C0139384A4CC26C0B736BF
:1020B0000140B70402402A878D480548814793862E
:1020C00006C40546138544048145EF30901C1385F2
:1020D0004404BD45EF101053138544048545EF10AB
:1020E00010500145EF4050168144A5B5B7070020B8
:1020F00003A5C75F0147894601468145EF60304D22
:10210000894481BD0D45EF20107DE30405E403A55E
:1021100041BCE685EFA0C07B1345F5FF1354F501E4
:102120000DBD0545EFE03FC1AA85014525290945BB
:10213000EFE07FC0AA850545352185450145EF20A3
:102140005075094439B5370A0020130A8A5EC94719
:102150003E8585453ECEEFE0FFDE83560A00420510
:102160004181F24759476385A6002310AA0085499B
:102170008507090AE39EE7FC03A541BCEE85EFA0B5
:1021800020756355A0060D45EF20F07429CD4C183D
:102190000145EF30800D89476313F50085494C18E0
:1021A0000545EF30800C89476313F5008549050923
:1021B0001379F90FA94763ED27034C180945EF2060
:1021C000D07289476304F500631D090283A70A00E2
:1021D00081C79823759B98A3638E090083270B0002
:1021E00089EF8149BDB38545EF20B06A0D4495B3B1
:1021F0000149E1B7E30409FEEDB79823759B98A365
:10220000CDB7E38009FED9BFEFE26FB137050240D9
:1022100013050503EF30100637350140EF40C0507D
:10222000054437350140EF402051E30C85FE37155A
:102230000140C14513050580EF30505B6FE06FB082
:10224000EFE2EFAD3705024013058505EF30900250
:102250003744004013050480EF40004D1304048010
:1022600085442285EF40404DE30D95FE3715014032
:102270008565130505C0EF3070576FE08FAC85475B
:1022800006063396C700060589473395A700014720
:1022900081476312B702139507014181C1838145CC
:1022A00001476390D502598D41839386C1C1D98F6F
:1022B000EAA29EA682800507C98F1377F70F0A0549
:1022C000C9BF8505518F93F5F50F0A06D9BFB546ED
:1022D0008147014763ECA600396793172500130770
:1022E000077BBA979C438287254789478D461145CE
:1022F0006387D500894609456383D50005459386E4
:10230000C1C13315E5008607B69742050547839698
:1023100007004185631AE604558D8AA382808D47A4
:102320003305F5021377F50FC9B78D473305F5026D
:1023300069151377F50F854755BF8D473305F502AE
:1023400051151377F50F814755B7194779BF3547B1
:10235000DDB72947CDB759159377F50F314779B7D1
:102360002547D5B71947C5B71345F5FF758D75B71F
:10237000994763ECA708B9679387877E0A053E955E
:102380001841B70700209387476002879A2393D6A6
:102390005500AE05719B558F9AA3BA231377F77F2B
:1023A0004D8FBAA38280BA238E05137737C0CDBF75
:1023B000BA2393D64500B205619B558FBAA3DA23A1
:1023C000520751834D8FDAA38280DA23FD76FD0612
:1023D000758F9605C5BFDA2393D62500FD8A019B2C
:1023E000558FDAA3FA23BA054A0749834D8FFAA31A
:1023F0008280FA23F1769386F607758F9E05FDB7E6
:10240000FA23137707F8D98DEEA3828037070020CF
:1024100093074760BE231307476009C593E707404A
:102420003EA3828093F7F7BFC207C183D5BFEFE217
:102430008F8CAA89AE84014C63D50500B304B040EB
:10244000054CB7470F009387F72337871E00A697E1
:102450001307E7476365F704E1679387F769371761
:102460000300A6971307E7D36361F70C8967938787
:10247000F7701567A6971307E7E1636BF70A938771
:10248000743E1307E07C6368F70A938734061307EA
:10249000600C094A0D4B6366F700094B19A0014A0D
:1024A0001D4B37090020BD6B814A13094960938B8E
:1024B0004B82A94C8357290013841A00568593E751
:1024C00007402311F900B3E794031374F40FDE9768
:1024D0008C23EFF0FFE9B3C4940363118B06630B05
:1024E0000C0022859305000413842A00EFF05FE8B6
:1024F0001374F40F994463F5840489476315FA0251
:1025000003556900F1777D8D93D7890093F7F7071D
:102510005D8D91679E09938707F8B3F9F9003365DC
:1025200035012313A9006FE08F80054A194B95BF31
:10253000094A154BBDB7094A114BA5B7A28A9DBFE1
:10254000228581450504EFF0BFE21374F40F65B7EF
:1025500037070020130747601E230A058D8BC98F9C
:102560001EA38280EFD2BFFB2E87A14511E19145CA
:10257000BD67060793874780BA9792230945EF40C6
:10258000901481450945EF40101C6FD09FFBEFD29E
:102590001FF9B72700004111370402409387072431
:1025A00037070020B74600403EC013058405894820
:1025B00005488147130747609386C68005468545D1
:1025C000EF30204DB727000093878720B7360140B2
:1025D0003EC0894805488147138781C2B106054638
:1025E000854513050403EF30C04A41016FD07FF5E4
:1025F000EFD2FFF2371501408565130505C0EF30B6
:10260000B01F37040240914513058405EF30604741
:1026100013058405EF3020456FD0BFF2EFD23FF0B5
:1026200029469385C1C1138581C2EFA0104AB70620
:10263000002003D7C6601306301FA2870507420794
:1026400041839386C660636FE60C9AA29A221306B2
:10265000B01213051700420541816370E60413862A
:1026600081C203588600ED759385A5AAB3F50501CF
:1026700003280600B778F6DB938868DB3378180107
:102680002320060103284600B778AAAA938868DBAE
:1026900033781801232206010EA609074207418359
:1026A0009AA29306500963F8A602938681C28E26E9
:1026B0001566130656556D8E8C423765EDB71305BA
:1026C000D5B6E98D8CC2CC42376555551305D5B6C4
:1026D000E98DCCC292A69306500963F1E602938776
:1026E00081C2D62315671307B76D758F94433736AC
:1026F000DB6F1306B66DF18E94C3DAA33715014074
:10270000C14513050580EF30300F37040240954571
:1027100013050403EF30E03613050403EF30A03453
:102720006FD03FE22390060015B7EFD25FDF05457B
:10273000EF107032EF001020EF60506771651305E5
:102740000520EF60B06C37F5000013050583EFA09E
:10275000B072EFF0EFBC37F40000EF00D043EF00B1
:102760007043EF003032EF50902613058483EFA0C2
:10277000B070E5BF828099677390078001A0EFD2A7
:102780001FDA2A8408399C210111AE84328993050D
:10279000E101054613051521FC8736C6EFE04FDA47
:1027A000B2464A86A6852285EF70905905616FD0A2
:1027B0005FD9EFD2DFD62A8408399C210111AE847B
:1027C00032899305E101054613058521FC8736C64C
:1027D000EFE00FD7B2464A86A6852285EF705056A5
:1027E00005616FD01FD6EFD29FD39C2101116147A5
:1027F000A30FF1006367F7022A8408393289AE8497
:1028000005469305F1011305250C36C6EFE04FD3BD
:10281000B2464A86A6852285EF70905205616FD038
:102820005FD24145E5BFEFD29FCF9C2101112E849D
:10283000AA8432899305F10105461145A30FF100E1
:1028400036C6EFE0EFCFB2464A86A2852685EF7006
:10285000304F05616FD0FFCEEFD27FCC89479CC24D
:1028600008392E8485454505EFE0CFED08A04205E7
:102870004181218108B001456FD0BFCCEFD23FCA62
:1028800085479CC208392E8481456105EFE08FEBB6
:1028900008A001456FD0FFCAEFD2DFC62A84882185
:1028A0001C384111C8870947AE843289B689638FC5
:1028B000E7000D47638FE70005476393E702EFE00A
:1028C0003F8819CD414541016FD01FC7EFE07F8898
:1028D000CDBF05469305F1001305A020EFE04FC6DC
:1028E000CE864A86A6852285EF709045E9BF1C21D9
:1028F00041115C871C31DC87288741018280EFD23F
:102900001FC201112A842E85AE84328936C6EFF0AB
:102910001FFEE88708389305E10109461305F521F4
:10292000EFE00FC2B2464A86A6852285EF7050417D
:1029300005616FD01FC1EFD29FBE01112A842E8581
:10294000AE84328936C6EFF09FFAE88708389305DF
:10295000E10109464905EFE0AFBEB2464A86A685C9
:102960002285EF70F03D05616FD0BFBDEFD29FB9FA
:1029700001112A843285AE84B68932893AC6EFF0D5
:102980001FF7E88788387D149305E10122954205F9
:1029900009464181EFE0CFBA32474E86CA85BA86F2
:1029A0002685EF70F03905616FD01FB9EFD23FB7C0
:1029B0003687B2862E86AA856D45EFF03FFB6FD035
:1029C0005FB8EFD2DFB53687B2862E86AA851305AB
:1029D0007002EFF0BFF96FD0DFB6EFD25FB4368789
:1029E000B2862E86AA8513053003EFF03FF86FD02C
:1029F0005FB5EFD2DFB23687B2862E86AA85130581
:102A0000F003EFF0BFF66FD0DFB3EFD25FB13687E0
:102A1000B2862E86AA851305B004EFF03FF56FD07D
:102A20005FB2EFD2DFAF3687B2862E86AA85130556
:102A30007005EFF0BFF36FD0DFB0EFD25FAE368737
:102A4000B2862E86AA8513053006EFF03FF26FD0CE
:102A50005FAFEFD2DFAC3687B2862E86AA8513052C
:102A6000F006EFF0BFF06FD0DFADEFD25FAB36878F
:102A7000B2862E86AA851305B007EFF03FEF6FD020
:102A80005FACEFD2DFA93687B2862E86AA85130502
:102A90007008EFF0BFED6FD0DFAAEFD25FA83687E6
:102AA000B2862E86AA8513053009EFF03FEC6FD071
:102AB0005FA9EFD2DFA63687B2862E86AA851305D8
:102AC000F009EFF0BFEA6FD0DFA7EFD25FA536873E
:102AD000B2862E86AA851305B00AEFF03FE96FD0C3
:102AE0005FA6EFD23FA241112A842E85AE8432899F
:102AF000B689EFF0DFDF6887083885470946930518
:102B0000E100631FF50013050021EFD07FD4CE86CE
:102B10004A86A6852285EF70B02241016FD0DFA1E1
:102B20001305050DEFE0CFA1DDB7EFD25F9F411197
:102B3000AA8511466800EFA04079324541016FD067
:102B40005FA0EFD2DF9D01112A842E85AE843289E9
:102B500036C6EFF09FFDA30FA10008389305F101E1
:102B600005461305C51DEFE0AF9DB2464A86A68512
:102B70002285EF70F01C05616FD0BF9CEFD23F9AA9
:102B800001112A842E85AE84328936C6EFF0FFF912
:102B90002ACE08386C0811461305051EEFE04F9A3F
:102BA000B2464A86A6852285EF70901905616FD0DE
:102BB0005F99EFD2DF9641112A842E8532C636C442
:102BC0002EC2EFF09FF6EFE04FB7A2463246924595
:102BD0002285EF70F01641016FD0BF96EFD23F947F
:102BE0001C390D474111B6846392E7022E85EFF040
:102BF000DFF3488605466C003545EFE06F9491475A
:102C00009CC00144228541016FD0BF931144E39BD6
:102C100087FE2E85EFF07FF12AC611466C00130562
:102C2000C020EFE0EF9180C0E9BFEFD25F8F114786
:102C300098C21C3989462E846388D70263E8F6005F
:102C40000547638FE70001456FD0BF8F8D46638FC7
:102C5000D7001305C020E398E7FEEFE00F8C19A022
:102C6000EFE00FA008C0C5B71545C5BF3545EFE07B
:102C70008F8CCDBFEFD2BF8A2A841820854741119F
:102C80002E85B2846310F702EFF07FC69375F50FBF
:102C90002685EF20602C814711C1BD473E8541014B
:102CA0006FD03F8AEFF07FE82AC2082011464C001F
:102CB0001305B50EEFE0CF881249131509014181C4
:102CC000EFA0804B2AC613550901EFA0E04AB7E7F1
:102CD000000083A54778EF90901410202AC42C00A0
:102CE0007D16420641822685EF2020326DB7EFD255
:102CF0001F8341112A8432894505014636C6AE84B8
:102D0000EFF05FF7B24611E54A86A6852285EF709F
:102D1000300341016FD0FF82EFD27F8041112A84BE
:102D200032894505054636C6AE84EFF0BFF4B2469B
:102D300011E54A86A6852285EF70900041016FD08B
:102D40005F80EFD2CFFD41112A84328945050946C3
:102D500036C6AE84EFF01FF2B24611E54A86A6856C
:102D60002285EF70E07D41016FD0AFFD3DC1EFD214
:102D70006FF92A844111AE842545A9C1A1C28C21D5
:102D80003D45CC87636CB5021C3805473689B2894E
:102D90006387E70009476386E702394505A00145D7
:102DA000EFF04FFC05469305F1000545EFD05FF9C4
:102DB000CA864E86A6852285EF70807841016FD045
:102DC000AFF70545EFF00FFA05469305F100094509
:102DD000F1BF25458280EFD28FF4054798C21C3998
:102DE00089462E84638DD7008D46638FD700639507
:102DF000E700EFE08FB408A001456FD08FF4130512
:102E00009020EFD05FF3C5BF1305A020DDBF83A7DF
:102E10004181DC431387C712631A07103D6713070C
:102E200007A323A0E71413874714631A07103D670D
:102E30001307078E23ACE7141387C715631A07100F
:102E40003D671307078823A8E71613874717631AF8
:102E500007103D67130707A023A4E7181387C718B7
:102E6000631A07103D671307079523A0E71A138716
:102E7000471A631A07103D671307079723ACE71A31
:102E80001387C71B631A07103D671307079923A809
:102E9000E71C1387471D631A07103D671307079B3D
:102EA00023A4E71E1387C71E631A07103D67130785
:102EB000079D23A0E72013874720631A07103D676B
:102EC0001307079223ACE7201387C721631A071063
:102ED0003D671307079423A8E72213870724631A83
:102EE00007103D671307078F23AAE7241387872559
:102EF000631A07103D671307078A23A6E72613877F
:102F00000727631A07103D671307078523A2E728E1
:102F100013878728631A07103D671307078723AEB7
:102F2000E7281387072A631A071082803D67130773
:102F300007A223AAE71213878713E31107EE3D6761
:102F4000130707A123A6E71413870715E31107EE5C
:102F50003D671307078C23A2E71613878716E31133
:102F600007EE3D671307078D23AEE7161387071893
:102F7000E31107EE3D671307079E23AAE71813879F
:102F80008719E31107EE3D671307079623A6E71A93
:102F90001387071BE31107EE3D671307079823A26A
:102FA000E71C1387871CE31107EE3D671307079A99
:102FB00023AEE71C1387071EE31107EE3D671307D7
:102FC000079C23AAE71E1387871FE31107EE3D67BF
:102FD0001307079123A6E72013870721E31107EEC4
:102FE0003D671307079323A2E72213878722E31184
:102FF00007EE3D671307078923A4E7241387C72437
:10300000E31107EE3D671307079023A0E726138718
:103010004726E31107EE3D671307078B23ACE7262E
:103020001387C727E31107EE3D671307078623A819
:10303000E72813874729E31107EE3D671307079F2A
:1030400023A4E72ADDB5B71702409843B706FFF877
:1030500041111367170098C3D84337060200758FD4
:10306000D8C39843B706F7FEFD16758F98C39843EB
:10307000B706FCFFFD16758F98C3D843B70681FFCE
:10308000FD16758FD8C337079F0098C702C402C6C4
:103090009843C166558F98C3B716024005679C4296
:1030A000F18F3EC6A24785073EC4B24781E7A247DB
:1030B000E397E7FEB71702409C431397E700635975
:1030C000070685473EC6324785476311F706B7179F
:1030D0000240D843B706C1FFFD1613670708D8C3DF
:1030E000D843D8C3D84313670740D8C3D843758F94
:1030F000D8C3D843B7063D00558FD8C39843B70609
:103100000001558F98C3984393166700E3DD06FED0
:10311000D843B7160240719BD8C3D8431367270022
:10312000D8C32147DC42B18BE39EE7FE4101828098
:1031300002C651BFB7160240DC42370700201146D5
:10314000B18B130707576385C70021466388C70201
:10315000B7177A00938707201CC3B7170240DC43D8
:10316000918393F6F700B707002093870700B6977F
:1031700094231C43B3D7D7001CC38280DC42D442C3
:103180004166C983BD8BF18E890745466393C700AD
:10319000C94781EEB746024083A60680C18A89CE20
:1031A000B7167A009386062021A8B7160240D442AB
:1031B0001396E600E35606FEB7163D00938606908A
:1031C000B387D70251BFEFD2EFB3C16441113709C2
:1031D000002009440D4A8D4AFD1483270961930993
:1031E0000961638E870463804703E5FFEFD0AFEB8F
:1031F000EFF0EFB9EFE0BFB6EFE08FB5EFF03FC112
:1032000023A05901D9BF7D5774000146814501456E
:10321000EF50902DB247E39287FC26868145014509
:10322000EF503074EFD02FBD0841EF40F06FEFD07A
:103230002FBD0841EF40506F23A0890079BF1305CF
:10324000401FEF50A031EF30D05141BFB7270020D1
:103250009387C7641CC1B72700209387C7249CC1EC
:10326000930700081CC28280B72700209387476A13
:103270001CC1B72700209387C7449CC1930700084F
:103280001CC28280EFD2AFA9EFD09FCA2A84372810
:103290000020B7270020B7F50000371500001308FD
:1032A000C8F99387C7B90D47854613060010938563
:1032B00005A413058557EF40D05C08C0EFD04FB48C
:1032C0002A84B7F50000370500001388410393876F
:1032D00041C315478546130600109385C5A4130501
:1032E000657AEF40105A08C0EFD0EFB02A84372833
:1032F0000020B7170020B7F50000370500001308BD
:10330000C88E9387C7DF1D4785461306C02B93855C
:10331000C5A513054561EF40D05608C0EFE09FA357
:103320002A8437280020B7270020B7F5000037256A
:103330000000130848B49387479421478546130635
:103340000008938505A7130545EEEF40905308C08C
:1033500037280020B7270020B7F5000037350000D8
:103360001308481F938747FF0D478546130600083B
:103370009385C5A71305651CEF40B050EFD04FA84B
:103380000841EF50202DEFD00FA70841EF50802CBF
:103390006FD02F9B8280828001A001A001A001A09C
:1033A00001A001A001A001A001A001A001A001A015
:1033B00001A001A001A001A001A001A001A001A005
:1033C00001A001A001A001A001A001A001A001A0F5
:1033D00001A001A001A001A001A001A001A001A0E5
:1033E00001A001A001A001A001A001A001A001A0D5
:1033F00001A001A001A001A001A001A001A001A0C5
:1034000001A001A097E1FF1F9381C1961721002021
:10341000130141BF17C500001305050E97D5FF1F07
:10342000938545BE1386018463FAC5008322050097
:1034300023A0550011059105E3EAC5FE17D5FF1F2E
:103440001305451797050020938545D96377B50087
:10345000232005001105E36DB5FEFD42739002BC0B
:10346000894273904280B72200009382028073A049
:10347000023097D2FFFF938262BC93E232007390D6
:103480005230EFF05FBC97F2FFFF9382422A7390B5
:10349000123473002030EFD28F88B7270140938712
:1034A0000740631EF500854513050020EF00307FBF
:1034B000814513050020EF00907E6FD08F88B737CD
:1034C000014093870780E31AF5FE85451305004008
:1034D000EF00F07C814513050040F1BF5C413707E8
:1034E000F1E01307F7EF944D7D8F9C41D58FD44DBC
:1034F000D58FD441A206D58FD98F5CC11C4537F733
:10350000F1FF1307D77FD4457D8F9C49D58F944514
:103510008606D58FD98F1CC55C55370710FF7D17E0
:103520007D8FDC29FD1793F7F70FD207D98F5CD574
:1035300082801C4589C593E717001CC58280F99BD2
:10354000EDBF1C4589C593E707101CC5828093F722
:10355000F7EFE5BF1C4593E787001CC5828008454F
:103560000D81058982801C4593E747001CC5828038
:1035700008450981058982801C4591C5370750009F
:10358000D98F1CC582803707B0FF7D17F98FD5BF53
:10359000A54763F7B7048D47138765FF3307F70225
:1035A0000328C5009D47B397E70093C7F7FFB3F71C
:1035B0000701B396E600DD8E54C5994763E3C7045F
:1035C00095477D163306F6025859FD47B397C70055
:1035D00093C7F7FFF98F3396C5005D8E50D982806F
:1035E0000D473387E502032805019D47B397E700A0
:1035F00093C7F7FFB3F70701B396E600DD8E14C952
:103600006DBFB14763E2C702954765163306F60200
:103610001859FD47B397C70093C7F7FFF98F339643
:10362000C5005D8E10D9828095474D163306F6028F
:103630005855FD47B397C70093C7F7FFF98FB39568
:10364000C500DD8D4CD582801C4591C53707100023
:10365000D98F1CC582803707F0FF7D17F98FD5BF42
:103660005841144193D78500F58F99C713F5F50F8D
:10367000798D3335A000828001458280A18193C578
:10368000F5FF0CC182805C4191C537070004D98FDA
:103690005CC18280370700FC7D17F98FD5BFEFC270
:1036A0001FE801112A8423030100A5441C8363FA47
:1036B000F40623030100A54621461C8363F0F60AA5
:1036C000231401002315010023030100954613066E
:1036D00000601C8363FEF60E1C8393F7F70F638470
:1036E0000712388414833C840C8310833347D70239
:1036F000B3E7B7028607B3C7C702BA97C207C18349
:103700007C84188399479546998F93F7F70FDC834C
:103710009C8393F7F70F639C071085679387078057
:103720000DAA1C4493E787001CC42285EFF03FE3F9
:103730006DFD1C4493E747001CC42285EFF05FE356
:103740006DFD78441C8314108607B6972396E7FE18
:103750001C83850793F7F70F5C8389BFA3030100E0
:103760009C836378F6001C83850793F7F70F5C83CF
:10377000A9B798839C830C100607850786072E97A8
:10378000AE970357C7FE83D7C7FE63FDE7029C834E
:103790008607AE9783D7C7FE7C849C839883850772
:1037A0008607AE9783D5C7FE931717001810BA97F0
:1037B0002396B7FE9C8338840C1085078607AE9746
:1037C0002396E7FE9C83850793F7F70FDC8349BFB9
:1037D0001C83181089078607BA9783D7C7FEE36D45
:1037E000F6EE1C830C10388489078607AE9783D7C2
:1037F000C7FEBA97C207C1837C841C83850793F7F1
:10380000F70F5C83F9B593070040DDBD1C831010F2
:10381000388589078607B29783D7C7FEBA97C2074C
:10382000C1837C851C83850793F7F70F5C831C831A
:10383000E3FEF6FC388594833C858C839083334784
:10384000D702B3E7B7028607B3C7C702BA97C20762
:10385000C1837C85288434852C8430850567930753
:103860000040130707803385A740B306D7408D8FEC
:10387000118F4205C206C2074207C18641874185B2
:10388000C1873695BA9789463345D5020561B3E7B6
:10389000D7023E95420541856FC0BFCAEFC23FC8FF
:1038A0000545EF0090430145EF0030436FC07FC9ED
:1038B0001841AA87759B18C118411367170018C1D2
:1038C0004167D443858A99E27D1765FFD843014556
:1038D000058B49CF94450547639BE60898431367DA
:1038E0000708D44598C305476397E60898431367CC
:1038F0000704944998C305476393E6089843136700
:103900000702D44998C30547639FE60698431367A7
:103910000701944D98C30547639AE60698431367D9
:103920008700D44D98C305476395E606984313670F
:10393000470098C3B821B4317A07E206558FD421E5
:10394000C206558FD431D206558F9621FD16558F5C
:10395000D8CF9843799B98C34167D443858A99C24D
:103960007D1765FFC8431345F5FF0589828098439D
:103970001377F7F7BDB798431377F7FB9DBF9843CD
:103980001377F7FDBDBF98433D9B61B798435D9B9F
:1039900049BF98436D9B71BF3767004013070740CD
:1039A000832607203C25054893E616002320D720D0
:1039B0008325C7213316F8009346F6FFF58D232E95
:1039C000B7204C25C5E58325C720035825008E0761
:1039D000F58D2326B7206E21BA975A21C205B3E58B
:1039E000050123A0B7240E2142074D8F23A2E7240F
:1039F000B7270240985BB707000FF98F99EF376739
:103A0000004093070730130707408E239107C20534
:103A1000C181239EB7EEE39AE7FE3835B7670040D1
:103A2000938707402DEB03A74720758F23A2E7203C
:103A30001A25B76700409387074035E303A747215E
:103A4000F98E23AAD720184985476319F700B7676D
:103A5000004003A7C761598E23AEC760B767004017
:103A600003A70760799B23A0E7608280E39205F9B2
:103A70008325C720035825008E07D18D2326B72024
:103A80000E21BA975A21C205B3E5050123A0B72438
:103A900042076E2199BF03A74720518F41BF85463A
:103AA000E313D7FA03A74721518F23AAE72061BF69
:103AB0001C4513975700634E07081C451397470092
:103AC000634B07081C45914613973700635107085D
:103AD000894693974600AA9703A70718058B23A04A
:103AE000E7189025883535EA984103A60718560748
:103AF000498F518F23A0E718B8253D8BB8A503A6A1
:103B00004718419A23A2C71803A64718518F23A22A
:103B1000E718D025B8352206598ED8354207598E78
:103B2000F8256207518F23A4E7189029F83522065B
:103B3000598E98394207598EB8296207518F23A6AA
:103B4000E71803A707181367170023A0E71836859F
:103B500082808146BDBF8546ADBFD84103A8071806
:103B60000E07498F518F3367070169B79397450057
:103B7000AA9703A7071B118B18A62DE703A7071BFE
:103B8000558318C203A7071B098B18B603A7471B49
:103B90003D8B38A603A7471B218338BA03A7871B91
:103BA00038B603A7871B218358A603A7871B418329
:103BB00058B603A7871B618378A603A7C71B78B6EF
:103BC00003A7C71B218318AA03A7C71B418318BAE1
:103BD00083A7C71BE1833CAA99E95C4593E70702E9
:103BE0005CC5828003A7071B0D8358C261BF1C49B7
:103BF00093E707021CC982808DE51C418546F19B35
:103C000093E717001CC1C16758410D8B6304D700AF
:103C1000FD17FDFB5C418D8BFD1793B717003E85AB
:103C200082808547639EF5001C41F19B1CC1C167E2
:103C300058410D8B19C3FD17E5FF5C418D8BF1BF1A
:103C400009478147E39DE5FC1C418946F19B93E7C9
:103C500027001CC1C16758410D8B6304D700FD17B5
:103C6000FDFB5C418D8BF9174DBF5C4901C6DD8DB5
:103C70004CC9828093C5F5FFFD8DDDBFB707F0000D
:103C8000ED8F89CB104D3375B60032053181333558
:103C9000A00082809397750063D60700544133F5E6
:103CA000B600E5B79397450063D5070008456D8DCD
:103CB000E9BFB706100093976500FD1663D70700AC
:103CC00058453375B700758DD9B71C4933F5B70022
:103CD000DDBFB707F030938707076395F500232C06
:103CE000050082809397C50013976500B1836354E4
:103CF00007005CC5828013975500635407001CC9F8
:103D0000828013974500635407001CC582805CC104
:103D10008280930700106386F50663E7B702A14728
:103D20006388F50663E9B7000547638EE50411472C
:103D30006381E506828013070002638FE504930721
:103D40000004638AF5048280938705808DCB8567A4
:103D50009387078063EBB700930700206383F50226
:103D600093070040638FF5008280C1676388F50286
:103D7000B70702006387F502A1676393F502232C5E
:103D80000500914729A8C167938717101CC5828039
:103D9000C1475CC58280C1471CC98280A1475CC104
:103DA0008280C147EDBF1C4161773D0794517D8FF3
:103DB0009C45D58F9449D58FD449D58F944DD58FB7
:103DC000D44DD58FD451D58F9455D58FD98F1CC153
:103DD000DC455CC19C411CC5DC415CC582801C414A
:103DE00089C593E717001CC1828041677917F98F55
:103DF000DDBF1C4101C6DD8D0CC1828093C5F5FF7E
:103E0000FD8DDDBF4CC18280B70702409C437D8D94
:103E10003335A0008280EFC28FF0EFF0FFFE6FC05D
:103E20004FF2B7070240C8C382809C4513F70701D1
:103E300013F8F70001C7D8413368E800372702407C
:103E4000145B3707000F758F5DEB37070020854641
:103E5000230AD760371701406315E5009A2135839F
:103E60009AA18E2113F7F50F39C318418146854E6B
:103E70003D4F930F800293028004214E3396DE0063
:103E8000B3F8C500631116039398260033131F017E
:103E90001343F3FF3377E300B318180133E7E80067
:103EA0006399F70750C98506E39AC6FD18C1130741
:103EB000F00F6375B70454412146854E3D4F930F73
:103EC000800293028004414EB398CE0033F715016F
:103ED0006392E8021317260001173313EF00134310
:103EE000F3FFB376D3003317E800D98E6397F70357
:103EF000232A15010506E319C6FD54C18280371730
:103F00000140E310E5F6370700200347476131DB46
:103F1000B1B7E39A57F810C979B7E39D57FC232846
:103F20001501C9BFB71701406318F500B707002096
:103F300083C7476191C3B58108456D8D3335A000B6
:103F40008280B71701406318F500B707002083C7C8
:103F5000476191C3B5810CC98280B71701406318CE
:103F6000F500B707002083C7476191C3B5814CC9ED
:103F70008280B7070140635A0504DC4F9356050160
:103F8000131805013707300013F6F600135808011F
:103F9000B376E500635E05066399E60493060601C1
:103FA0000D46B316D60093C6F6FFF58F99C9135781
:103FB00055011377F73F12073317E800D98F635580
:103FC0000506370701405CCF828037270240145B2B
:103FD000DC433707000F758F55F313D71700F976B9
:103FE000CE07758FCD83D98F51BF1317B500635698
:103FF00007008D46B396C6007DB71357550113775A
:10400000F73F12073317E8001347F7FFF98F79BF1F
:104010006390E602370601405442370700F17D17EE
:10402000F98F758F58C2C1F5370701405CC3828094
:104030001317B500635C07008D46B396C60093C6A0
:10404000F6FFFD8EB707000FD58FF1BF135755014F
:1040500012073317E8001347F7FF7D8FB707000FEC
:10406000D98FD1B7EFC2AFCB79712A8446216808C6
:104070002EC6112E925737470F001307072433D748
:10408000E702C204C18093F404FCC204C180B245BB
:1040900061651305056A131607014182D18C46A09C
:1040A0001620C206C182F99AC206C18216A09441A6
:1040B0006369D5048606B3D7D702914613970701E3
:1040C0004183BA876373D700914705064206C2074A
:1040D0004182C18312B05EAC1E20DA21B62593E77F
:1040E00017001EA01E20558FC207C18393F757BF2C
:1040F000D98F1EA09A25DE25D98F1EA445616FC0D9
:104100004FC4EA2131667D16631DC5020D46B38694
:10411000C602B3D7D702C207C1839396470199E27B
:1041200093E71700A166D58F9306C0123307D70215
:104130009306803E3347D7020507420741831AB0F2
:1041400059BF6546B386C602B3D7D7029166C20788
:10415000C183D58FD9B71E2189C593E717001EA14A
:104160008280C207C183F99BC207C183CDBF1E21D4
:1041700089C593E707101EA18280C207C18393F708
:10418000F7EFC207C183C5BF1E2189C593E707208A
:104190001EA18280C207C18393F7F7DFC207C183E4
:1041A000C5BF1E2189C593E707401EA18280C207B3
:1041B000C18393F7F7BFC207C183C5BF5E2589C519
:1041C00093E717005EA58280C207C183F99BC207EF
:1041D000C183CDBF5E2101C6DD8D4EA1828093C516
:1041E000F5FFFD8DDDBF0EA982800A291375F50F3D
:1041F000828093F7E50F19C293E71500C207C183C8
:104200001EA98280411102C62AC6B247BE952EC69B
:10421000B2478A2341018280411102C402C693D76A
:10422000C5012AC63EC4A247A205A18199CBB247C7
:10423000D1073EC6B247884341016D8D3335A0009A
:104240008280B247C181E107EDB793C5F5FFC20592
:10425000C1814EA98280B707002023ACA76082806D
:10426000B7070020938787619443182181E63C219A
:10427000920721A894430546639FC6023C21103152
:1042800092076314D60093E707F8B7E600E093F7C8
:10429000F70FBA962380F640854693575700339719
:1042A000E6005441A5C2938707048A07B7E600E0F9
:1042B000B69798C382808C4389466391D5021431A6
:1042C0003C216365D6008A06B6975DB79386E60300
:1042D0008A06B69793F7F70F920775B790438D4606
:1042E000631CD60014313C216364D6008606E9BF06
:1042F0009386C6078606F1BF94439147E39EF6F87E
:104300001C31BDB7938707064DB7377700401C4374
:1043100009C593E707101CC3828093F7F7EFE5BF49
:10432000B7160240DC4251777D17F98F5D8DC8C208
:104330008280B717024023800702238007020547C7
:104340006306E50011476306E50082802380A7022B
:10435000828015472380E7028280371702401C5372
:104360005D8D08D3828001C9371702401C53A166B6
:10437000D58F1CD38280B71602409C5261777D177F
:10438000F98F9CD28280371702405C439146B18BF3
:104390006385D700A1466382D706B7177A00938753
:1043A00007201CC1371602405C4237070020130764
:1043B00007019183BD8BBA9794231C41B3D7D700D3
:1043C0005CC15442A1829D8ABA969422B3D6D7008A
:1043D00014C55442AD829D8A36971823B3D7E7009F
:1043E0005CC55842398393763700138741803697EE
:1043F0001823B3D7E7021CC982805C435843C166C7
:10440000C983BD8B758F8907C5466393D700C9479C
:1044100001EF3747024003270780418B09CF371749
:104420007A001307072021A8371702405843931634
:10443000E700E3D606FE37173D0013070790B38762
:10444000E70285B799C5371702405C4B5D8D48CBB5
:104450008280B7170240D84B1345F5FF798DC8CB42
:10446000828099C5371702401C4F5D8D08CF82802E
:10447000B7170240984F1345F5FF798D88CF82809A
:1044800099C5371702405C4F5D8D48CF8280B717C2
:104490000240D84F1345F5FF798DC8CF828099C56A
:1044A000371702405C475D8D48C78280B7170240CE
:1044B000D8471345F5FF798DC8C7828099C537174E
:1044C00002401C4B5D8D08CB8280B7170240984B91
:1044D0001345F5FF798D88CB828001C937170240DB
:1044E0001C53C166D58F1CD38280B71602409C52E4
:1044F00041777D17F98F9CD28280935755000547ED
:104500006399E700B71702409C4333D5A70005899C
:10451000828009476396E700B71702409C53F5B7BE
:10452000B7170240DC53D5B7B737004003D7078031
:1045300089C5598D2390A78082801345F5FF798D19
:10454000D5BFB737004003D74780136707012392D1
:10455000E78082803737004083574780C207C18396
:10456000BD9BC207C1832312F7808280EFB23FFB5D
:1045700041112AC6EFF0FFFC3245B7370040135710
:1045800005013D8B42052394E78041812396A78056
:10459000EFF05FFC41016FB0DFFA3737004083571F
:1045A000478093F70702E5DF828037370040835763
:1045B0004780C207C183DD9BC207C1832312F780F6
:1045C0003737004083574780A18BEDDF8280B737B4
:1045D000004003D747801345F5FF798D2392A780CC
:1045E0008280373700408357478003570780C207D0
:1045F000698FC18309C77D8D3335A0008280014555
:104600008280EFB2DFF1EFF09FFC6FB09FF3EFB26B
:104610001FF1B7370140631CF50085450565EFF0D4
:104620001FE881450565EFF09FE76FB09FF1B74741
:10463000004093870780E31AF5FE85451165EFF08A
:10464000FFE781451165EFF07FE7C5B71A218D6758
:1046500093870704B6217D8F9E21D58FD621D58FD4
:10466000F621D58F9625D58FB625D58FD625D58F12
:10467000F625D58FD98F1EA15A2DFD779387F77F09
:10468000F98F5EAD9E291EA982801E2189C593E700
:1046900007041EA18280C207C18393F7F7FBC207FC
:1046A000C183C5BF5E2101C6DD8D4EA1828093C549
:1046B000F5FFFD8DDDBF0A256D8D3335A0008280AD
:1046C00093C5F5FFC205C1810EA582801E319206F9
:1046D000558EC207C183F99BC207C1831EB11E2D2F
:1046E0001A31B7360140C207C18393F7C7F0D18FA3
:1046F0004207C207938606C04183C1836304D50283
:10470000B70600406300D50293860640630CD500CF
:10471000B7160040138606806306C500938606C060
:104720006319D500759BD98D93E515001EAD0EB1AB
:104730008280559BCDBF1E31B2062206C207C183BF
:10474000BD9BC207C1831EB18358850185671A319D
:104750009387F7CFD18EB3F71701D58F1398450004
:10476000B736014042074208C207938606C041831C
:1047700013580801C1836304D502B70600406300E3
:10478000D50293860640630CD500B7160040138609
:1047900006806306C500938606C0631BD5001377A9
:1047A000F7FD3367E800136707011EAD1AB1828079
:1047B0001377F7F54D8FC5BFEFB27FD6B7370140FE
:1047C000938707C0631FF5000564854513050480C2
:1047D000EFF0FFCC814513050480EFF05FCC6FB0A4
:1047E0005FD6B7070040631BF50085450545EFF030
:1047F000FFCC81450545EFF07FCCD5B793870740C7
:104800006319F50085450945EFF05FCB8145094502
:10481000DDB7B7170040138707806319E5008545AA
:104820001145EFF0BFC981451145F1B7938707C026
:10483000E317F5FA85452145EFF05FC8814521452D
:104840005DBF1E2137370140130707C0C207C18370
:104850006304E502370700406300E50213070740E1
:10486000630CE50037170040930607806306D50008
:10487000130707C06316E500BA2193F7F7F8D98F3D
:10488000FA2193F7F7CFC207C183D98F1EA1DE218A
:104890005EB59E211EB5B7370140938707C06314EC
:1048A000F5009C251EB985475EA982801E319221A4
:1048B00003D82500C207C183F99BC207C1831EB17B
:1048C0001E3156211A2DC207C18342074183137737
:1048D000C7F8518F9225F59BC20633660601D18F2A
:1048E00037360140130606C0C1826310C502B225E7
:1048F000DD9B03D8E500D18FD221ED9B93F6F6CF57
:10490000D18FD22533660601D18E56A11AADFA2178
:104910005AB91EB182801E3165771307F7CFC207DF
:10492000C183BD9BC207C1831EB11E31562103D86E
:104930008500C20713960601162DC18393F7F7FD74
:10494000758F96214182A206558FB6214207418379
:10495000B3E606019206D58FB7360140C2079386AB
:1049600006C0C183631ED502B62593F7F7F703D8B7
:10497000C5009206D58FD621C207C183920693F750
:10498000F7FBD58FFD769386F63FF18EF225C207B1
:10499000C183336606010A06D18E13960601418251
:1049A00052A11AADFA211ABD1EB182801E3103D860
:1049B0008500C207C18393F7F7EFC207C1831EB119
:1049C0001E3156215A2DC207139606014207962121
:1049D00041831377C7F8558FB621C18393F7F7DF6B
:1049E000B3E60601A206D58FB7360140C20793860B
:1049F00006C04182C183631FD502FD769386F67F90
:104A0000F58FB62503D8C500A206D58FD621C207DB
:104A1000C183A20693F7F7BFD58FF576FD16F18E09
:104A2000F225C207C183336606011206D18E1396A2
:104A30000601418252A15AADFA215ABD1EB18280AF
:104A40001A31FD77FD17F98F1EB103580502562163
:104A50005E2D657792211307F7CF7D8FF9772206B8
:104A6000FD17518FB3F70701B22103D88500C206A5
:104A70004207336606013206D18F37360140C2073E
:104A8000130606C0C1824183C183631AC5007176D3
:104A90007D16F18ED2251A06D18EC206C18256A18C
:104AA0005AADFA212310E5041EB18280FD575EA1A4
:104AB000231005002313050023110500230405001E
:104AC00082801E2189C593E717001EA18280C2073C
:104AD000C183F99BC207C183CDBF8357450491C5EC
:104AE0002167D98F2312F5048280C607C583DDBFF5
:104AF0005E2501C6DD8D4EA5828093C5F5FFFD8D37
:104B0000DDBFEFB2DFA1EFF0BFFE6FB09FA31E25A8
:104B1000C207C183E19BC207C1831EA582801E21FB
:104B200089C593E707081EA18280C207C18393F756
:104B3000F7F7C207C183C5BF1E2DC207C183DD9B26
:104B4000DD8D0EAD82801A2DFD779387F77FF98F6B
:104B5000A205CD8FC207C1831EAD82805E2DC20724
:104B6000C183DD9BDD8D4EAD82805A2DFD7793870D
:104B7000F77FF98FA205CD8FC207C1835EAD82801A
:104B80001E2DC207C183CD9BC207C1831EAD1E2D42
:104B9000DD8D0EAD82801A2DFD779387F73FF98F5B
:104BA0001EAD1E2DA205DD8DC205C1810EAD828018
:104BB0005E2DC207C183CD9BC207C1835EAD5E2D52
:104BC000DD8D4EAD82805A2DFD779387F73FF98FAB
:104BD0005EAD5E2DA205DD8DC205C1814EAD828028
:104BE000EFB2FF939A212A84AE84BE21D22196256A
:104BF00011EBBE85EFF09FADEE202285EFF05FF860
:104C00006FB03F949145631AB700BE85EFF0BFB215
:104C1000EE202285EFF03FF8E5B72145EE2063183E
:104C2000A7081A309206139887004207418313772A
:104C3000F7EF420741831AB04A2C1A304208420566
:104C400041811375C5F0518D558DB736014042072E
:104C50004205938606C041831358080141816304CD
:104C6000D402B70600406300D40293860640630C6A
:104C7000D400B7160040138606806306C4009386EE
:104C800006C0631ED4001377F7DF3367E80093672D
:104C900007104AAC1EB02285EFF09FF195B7FD7664
:104CA0009386F65F758FD98F93E70710DDB70A30CB
:104CB0007D777D17698F1AB04A2C05671307F7CFE8
:104CC000698F03580402131586001396C600498E97
:104CD0009398C700518FB73601404208C208420777
:104CE000938606C01358080193D8080141836304D2
:104CF000D402B70600406300D40293860640630CDA
:104D0000D400B7160040138606806306C40093865D
:104D100006C06311D402F977FD173378F80033E841
:104D200008018567B367F8005AAC1EB02285EFF022
:104D30009FE9F9B5A1669386F6DF3378D800B3E72B
:104D400007018566D58FCDB74A3D8280035505049E
:104D500082800A296D8D3335A000828093C5F5FFCE
:104D6000C205C1810EA982801E294A25ED8F420508
:104D7000418189C76D8D3335A000828001458280D5
:104D800093C5F5FFC205C1810EA98280EFB22FF94C
:104D90001629F577FD17F58FF621DA257971D58F6C
:104DA0001EA95625FD779387379FF58FD6212A8434
:104DB0002EC6D58F9625D58FB625D58F5EA55E29B3
:104DC000C207C18393F7F7CFD98F5EA96808EFF0C8
:104DD0008FDBB747014093870780B245631AF4041D
:104DE000A25756246547B387E702C206C186984199
:104DF00063D20604060752244206B3D7E70213071C
:104E000040064186B3D6E702B3F7E7029206635540
:104E100006028E0793872703B3D7E70213F77700BD
:104E2000B367D700C207C1831EA445616FB06FF19D
:104E3000925745BF0A07C1B7920793872703B3D795
:104E4000E702BD8BD58FF9BF91C55E250967D98F64
:104E50005EA582805A25F977FD17F98FD5BF93F5A6
:104E6000F51F4EA182800A216D8D3335A00082800E
:104E7000B72700209387C77223A0070023A207004B
:104E800023940700B72700209387C77123A007004A
:104E900023A2070023A4070023960700B7070020DA
:104EA000239E07608280EFB2EFE5914793040000F4
:104EB00063E4A70893171500372500201305C57272
:104EC0003E9583490500AE84638809060031372981
:104ED000002013098973A299139A0901135A0A0130
:104EE000B14A93170401C18363E6470393040000AA
:104EF0006314FA041384F7FFB1473304F402B727AD
:104F00000020938787733E940C404840EF70702DCB
:104F10000C4405A0228BCE87631334033147B3873B
:104F2000E70226853E9983254900EF70902B832563
:104F30008900EF702038AA8426856FB0EFDF050462
:104F4000B30754032685CA9783A547FFEF70B020A7
:104F5000E349A0F8DA87D9B785476381F504B72715
:104F6000002006059387C772AA97982315E3370791
:104F700000201307C7611223130840060545B30636
:104F8000B600634ED8008CA390B316A3014582806F
:104F9000FD1501456305B700094582800D458280F6
:104FA000EFB24FD64111AA892E893A85BE85368443
:104FB000B2843EC63AC4EF70D04B2A8AA2852685B9
:104FC000EF70304BAA855285EF706065224723A0B1
:104FD000A900A2853A85EF70D020B247AA89A6859C
:104FE0003E85EF701020AA854E85EF709048AA8903
:104FF000A6852285EF70F047AA854E85EF70206266
:105000002320A90041016FB02FD393171500372536
:1050100000201305C5723E951C216378F604EFB29B
:105020000FD00031B1472E8922961314060141801A
:105030003304F40203270900832789008326C9006B
:1050400003264900B72400209384847393058400C9
:10505000130544002695A695EFF09FF48327C90019
:10506000269401451CC06FB0CFCD094582803725FD
:1050700000201305C56F8280931735003705002087
:10508000130505623E95DC41230005005CC1014526
:105090008280B70700200E0593870762AA978CA32A
:1050A00001458280F1473305F502B7370020938729
:1050B00047C2D8413E959C4958C17D171CC9DC4563
:1050C0003337E00058A95CC59C4D78A9232405001E
:1050D0001CCD01458280F1473305F502B73700202A
:1050E000938747C2AA97C82B8280F1473305F50200
:1050F000B7370020938747C23E955C29583963062D
:10510000F7005CB99CA1094582800D458280EFB211
:105110000FC1F1473305F502B7370020938747C227
:1051200009473D46AA971305C0023385A502D8C397
:10513000373700201307C7BA239A0700238B0700CD
:1051400081453304A700090580C3232204023A9550
:10515000EFB0EFBFB7F7000083A7C7A82320040272
:1051600005451CD46FB0EFBDEFB26FBBF146B3067F
:10517000D502B7370020138747C2AA843D65014690
:10518000138447C2130505A63697144323A00602CD
:1051900013872600F906035827001E23B305F8409D
:1051A00063D60500B307F540B385070109072E96BE
:1051B000E393E6FE3D453355A602B73700209387BB
:1051C00047C093954400BE95EF406037F147B387E1
:1051D000F4020547A2979C4388D3D8D36FB06FB62B
:1051E000F1473305F502B7370020938747C2AA97E6
:1051F000884309058280EFB28FB2F1473305F5028B
:10520000B7370020938747C23E95004129CC5841CB
:10521000894701456317F7041C50A1C73E85EF700D
:10522000B075B7F7000083A547A8EF70807BB7F78C
:105230000000AA8503A5C7A8EF70603EB7F700007D
:1052400083A587A8EF70E079EF7050614205418136
:10525000EF7030660C54EF70C078EF70306042052C
:1052600041816FB00FAE0145EDBFEFB2AFA9714400
:105270003305850237340020130444C22A9483295D
:1052800004001C480D4583A409026387F4042685A5
:105290002E89EF70706EB7F7000083A547A8EF70F6
:1052A0004074B7F70000AA8503A5C7A8EF702037A0
:1052B000EF70D05A9307C0033305F50242054181D0
:1052C000EF70305F83A58902EF70A071EF70105905
:1052D0002310A90004C809456FB00FA6EFB28FA232
:1052E00037340020130444C281448949130A30062C
:1052F000854A11495C40638B37051C4C2685829793
:1053000078286302A7041C4485071CC41DEB1848B9
:105310006379F7005C4068A893C7F7FF858BA98F76
:105320005CA8850493F4F40F7104E39524FDB7079A
:10533000002093870762D8438C23014502976FB002
:10534000AF9F5844F1B723240400E1BF5C288507D0
:1053500093F7F70F6364FA005CA8E1B71C40230AD7
:105360000400D8536315570123A207025DBF23A091
:10537000070245BFEFB2AF9A2E86AA853755004087
:1053800013050540EF00307B6FB0AF9B3735002031
:10539000130545C9828085673307C5009387078059
:1053A00063C1E70AEFB22F952A8C41113284094577
:1053B0001DC6373B00208547AE89368A130B4BC983
:1053C0000149C14A6310F60203284B02B6872E86B4
:1053D000130740068946E2851305000A0298410139
:1053E0006FB0EF949377FC00B387FA40C207C18394
:1053F000A28463F38700BE84C204C180994BB38C3E
:10540000290103284B02D2872947A6866686E285B2
:105410001305000A029801C92AC6FD1BEF1070345B
:105420003245E3900BFE058C26994204E294420932
:10543000139C0401418013590901135C0C015DF0B8
:1054400079BF0945828085673307C5009387078048
:1054500063C3E702EFB2AF8C37370020032847CB96
:10546000B68713074006B2862E86AA851305000A62
:1054700002986FB00F8D09458280EFB24F8A4111BB
:10548000AE8605469305F100EFF0FFFB88874101EA
:105490006FB02F8BB70700200397876281472A9749
:1054A000634F070009CD05669306F6FFB68763587C
:1054B000C700AA876305D50093170701C1833E85FE
:1054C0008280EFB2CF853165EFE09FE56FB06F87E7
:1054D000EFB24F83B727014093870740AE89011190
:1054E0002A84328A85456311F50A13050020EFE00E
:1054F0005FF7EFF01FFD2285EFD0FFF985473EC231
:105500003EC4B7070E003EC68A8595472285230A0A
:10551000F10002C002C802CC02CEBD64EFD01FFC75
:105520008147938404A96394370737250140854553
:1055300013050540EFE04F9185452285EFE06F8030
:1055400085452285EFD0FFFE22858145EFE0AF93B0
:105550002285EFE02F802285EFE06F806DFD2285B0
:10556000EFE06F802285EFE0AF806DFD2285EFE0F8
:105570000F93B70700202394A76285452285EFE0AB
:105580008F9005616FA05FFB130500408DB71389F5
:105590001700D2979C239D461376F90FA6978C236C
:1055A0002285EFD0FFFECA87BDBF5D7122DE3724A2
:1055B00001402ADC2EDA130504409305001486C648
:1055C00096C49AC29EC032D836D63AD43ED242D081
:1055D00046CE72CC76CA7AC87EC6EFE06F8801CD1F
:1055E0009305001413050440EFE04F89B70700202E
:1055F00083A7C76282977254B640A6421643864379
:105600006255D2554256B256225792570258F24826
:10561000624ED24E424FB24F616173002030B737B5
:10562000002023A0A7CC8280B737002023AEA7CAD2
:105630008280B737002023A2A7CC8280EFA23FEE62
:1056400079712A84AE8432898145130600020808E4
:1056500002C402C6EFA0BFEF854537050002EFE0A8
:105660003FE293070030FC819307B040FC828547FE
:105670003ECE3ED202CC02D002D402D693074006E0
:105680006308F40C63EF8700D1476308F40C9307B9
:1056900020036301F40CA947631AF40A93078025D9
:1056A00005A09307401F6301F40A9307803E630837
:1056B000F4009307A00F631BF408A14711A08947CA
:1056C000376400400C0813050440FC80EFE04F9E57
:1056D0001305044093050040EFE0AFE313050440D9
:1056E0008545EFE00FE3130504408945EFE06FE2E5
:1056F00013050440C145EFE0CFE105469305304175
:1057000013050440EFE06FD6930740025C84280045
:1057100085473EC623052101C484EFE07FB493078B
:10572000500228005C84EFE0BFB3930730022800EA
:105730005C84EFE0FFB29307600228005C84EFE036
:105740003FB245616FA0FFDF91479DBFC1478DBF4D
:10575000D147BDB793078007A5B79307C0128DB790
:10576000EFA2FFDB37650040814513050540EFE000
:10577000AFC86FA01FDDEFA29FDA376500408545F7
:1057800013050540EFE04FC76FA0BFDBEFA23FD985
:105790001C410111542113D7E70002CA098B93F76A
:1057A000F77FA30AE10078003EC602C802CC02CE11
:1057B000230BD1008147BA85050763CBD700376536
:1057C000004013050540EFE0AFAE05616FA07FD745
:1057D0003306F5005032850730A7F9BFEFA23FD45A
:1057E0000111B337F0000548960596061606160710
:1057F000FC82230BA10085476800A30B01016C8785
:105800007486F081F8803ECE230C0100EFE0CF9843
:1058100005616FA01FD3EFA29FD001112E84B33575
:10582000A00037650040700013050540EFE00FB49D
:10583000B24703465101894693F7F77F0147631347
:10584000D6002167D98F1CC0834761019305710180
:10585000231704005CA0214613055400EF70F026C6
:10586000014505616FA0FFCD5D7122DE26DC376446
:105870000040B70400382ADA2ED813050440938577
:1058800014003ED086C696C49AC29EC032D636D484
:105890003AD242CE46CC72CA76C87AC67EC4EFE00F
:1058A000EFBD85476318F500938514001305044088
:1058B000EFE02FC2B704003837640040938504102E
:1058C00013050440EFE08FBB85476318F50093850F
:1058D000041013050440EFE0CFBF37640040B70564
:1058E000013813050440EFE06FB985476318F500F0
:1058F000B705013813050440EFE0AFBDB73700200E
:1059000083A707CC8297376500408545130505407E
:10591000EFE02FC07254B640A64216438643E254CD
:105920005255C2553256A256125782577248E24813
:10593000524EC24E324FA24F616173002030397116
:105940003ECCB737002083A7C7CB06DE16DC1ADAB9
:105950001ED82AD62ED432D236D03ACE42CA46C823
:1059600072C676C47AC27EC0014582973765004010
:10597000914513050540EFE0CFB9F250E252525382
:10598000C2533255A255125682567247E2475248C8
:10599000C248324EA24E124F824F21617300203016
:1059A00039713ECCB737002083A7C7CB06DE16DCA3
:1059B0001ADA1ED82AD62ED432D236D03ACE42CADD
:1059C00046C872C676C47AC27EC0054582973765DE
:1059D00000409305000213050540EFE08FB3F2503D
:1059E000E2525253C2533255A25512568256724752
:1059F000E2475248C248324EA24E124F824F2161B6
:105A00007300203039712AD6376500402ED4130533
:105A100005409305004006DE16DC1ADA1ED832D2A5
:105A200036D03ACE3ECC42CA46C872C676C47AC296
:105A30007EC0EFE00FAEB737002083A747CC829738
:105A4000F250E2525253C2533255A2551256825668
:105A50007247E2475248C248324EA24E124F824F1E
:105A6000216173002030EFA29FAB8545EFE02FB797
:105A70006FA03FADEFA2BFAA8145EFE04FB66FA088
:105A80005FACEFA2DFA9C205C181EFE0AFB76FA0A5
:105A90005FABEFA23FA75D712A842E8A054585453D
:105AA00032C636C43AC2428BC68AC65902CE02D02A
:105AB000EFE05F991247A2463246630E0A06854719
:105AC0006314FA00C1473ED68547630BF60635C618
:105AD0008947630EF606B707024013868700631FE7
:105AE000C406B737002023A437CDED4405499307FA
:105AF00000083EDC4C108567228536D23AD4BEC4FD
:105B000002DA82C282C6EFE00FAA054689452285E5
:105B1000EFE02FAE4A85EFE0CFB085476808230E4F
:105B20009100A30E6101230F51013ED0EFE04FF32E
:105B300061616FA07FA002D641BF82C002DE61BF5B
:105B400093070040BEC0930700103EDE69B785672B
:105B500093870780BEC093070020C5BF1386C70187
:105B60006319C400B737002023A637CDF14441495B
:105B7000BDBF13860703631AC400B737002023A8EC
:105B800037CDF544130900109DB7138647046319F8
:105B9000C400B737002023AA37CDF944056981BF77
