:100000006F30A04313000000130000001300000035
:100010001300000013000000130000001300000094
:100020001300000013000000130000001300000084
:08003000130000007300100032
:100038000000000000000000FE0D0000000E00009F
:1000480000000000D23300000000000000000000A3
:10005800D4330000D6330000000000000000000088
:10006800C66300000000000000020000000000005D
:10007800DC330000DE330000E0330000A05A00004B
:10008800E4330000E6330000E8330000EA33000000
:10009800EC330000EE330000F03300006E51000036
:1000A800F4330000BC5100000A520000585200000E
:1000B800FC330000A6520000F64900003A4E00004A
:1000C8009A4E0000F84E0000564F00000A34000017
:1000D8000C3400000E34000010340000123400000C
:1000E8001434000016340000425C00001A59000065
:1000F800665900001E34000020340000223400003D
:100108002434000026340000283400002A3400007B
:100118002C3400002E34000030340000323400004B
:100128003434000036340000383400000000000089
:080138000000000000000000BF
:10020000130181F806C216C41AC61EC822CA26CC1B
:100210002ACE2ED032D236D43AD63ED842DA46DC76
:100220004ADECEC0D2C2D6C4DAC6DEC8E2CAE6CC46
:10023000EACEEED0F2D2F6D4FAD6FED8F3220030CF
:1002400096DA83A2019123A02200F32510342EC058
:1002500003A10186EF70804703A3019103210300EE
:10026000824273901234D652739002309240A2426E
:100270003243C2435244E244724582551256A2565A
:100280003257C2575258E25872598649164AA64AFE
:10029000364BC64B564CE64C764D865D165EA65EDA
:1002A000365FC65F13018107730020301300000022
:1002B00013000000130000001300000013000000F2
:1002C00013000000130000001300000013000000E2
:1002D00013000000130000001300000013000000D2
:1002E00013000000130000001300000013000000C2
:1002F00013000000130000001300000013000000B2
:1003000083A20186938202E07390023403A10191DB
:10031000024182403243C2435244E2447245825514
:100320001256A2563257C2575258E258725986494D
:10033000164AA64A364BC64B564CE64C764D865D61
:10034000165EA65E365FC65FD652A102739002307B
:10035000A2421301810782801300000013000000F5
:100360001300000013000000130000001300000041
:100370001300000013000000130000001300000031
:100380001300000013000000130000001300000021
:100390001300000013000000130000001300000011
:1003A0001300000013000000130000001300000001
:1003B00013000000130000001300000013000000F1
:1003C00013000000130000001300000013000000E1
:1003D00013000000130000001300000013000000D1
:1003E00013000000130000001300000013000000C1
:1003F00013000000130000001300000013000000B1
:10040000F322003093F272FF130380181203B3E259
:100410006200711523205500130585FA10C12115BE
:10042000232005009302000063870200711523203A
:100430000500FD12D5BF71150CC1828000000000BF
:1004400000000000000000000000000000000000AC
:10045000000000000000000000000000000000009C
:10046000000000000000000000000000000000008C
:10047000000000000000000000000000000000007C
:10048000000000000000000000000000000000006C
:10049000000000000000000000000000000000005C
:1004A000000000000000000000000000000000004C
:1004B000000000000000000000000000000000003C
:1004C000000000000000000000000000000000002C
:1004D000000000000000000000000000000000001C
:1004E0000000000000000000000000000000397162
:1004F00001436EC619A0397141536AC866CA62CCFD
:100500005ECE19A0397101535AD056D252D44ED66C
:100510004AD826DA22DC06DE3301614082824111AC
:100520004AC026C222C406C68282B24D4101024D93
:10053000924C224CB24B4101024B924A224AB249A0
:100540004101024992442244B240410182803D432C
:100550002A876373C3029377F700BDEFADE5937607
:1005600006FF3D8ABA960CC34CC30CC74CC7410763
:10057000E36BD7FE11E28280B306C3408A0697027E
:10058000000096966780A6002307B700A306B70071
:100590002306B700A305B7002305B700A304B700DF
:1005A0002304B700A303B7002303B700A302B700D7
:1005B0002302B700A301B7002301B700A300B700CF
:1005C0002300B700828093F5F50F93968500D58DB3
:1005D00093960501D58D61B7939627009702000089
:1005E00096968682E78086FA9680C1171D8F3E9682
:1005F000E374C3F8A5B73705002013054560828072
:1006000037050020130505608280B707002023A46A
:10061000A7608280EFF23FEEB70500203971938525
:10062000C55F014537040020EFA0300A232CA45EEB
:100630001304845F19E1EF10907E1C4037070020FF
:1006400003278760DC4398C3EF80401CEF80001FC6
:10065000EF00A06D2313A10202D6EF0000701C4032
:10066000A302A102DC43884323AA0700EF80E01F16
:100670001C40C843EF8020330840035661025C41B0
:100680008C43EFA0B01419C1EF107079B7070020A8
:100690009387473E98530840930661023AD8D8534F
:1006A000130651020C183ADA9857DC573ADC3EDE52
:1006B000EFA0301519C1EF10907683A6C1810349D0
:1006C0005102032A040036CEEF00C0689307401F92
:1006D0003EC0F24689679309C102C507C98F4EC65D
:1006E0004AC402C29308803E1308401F01470146D6
:1006F00081455285EFA0101411C5B5576304F5006C
:10070000EF10F071084003A6C1814E874C49CA869C
:10071000EFA0D01D19C1EF1090701C409C4399C3ED
:10072000EF10F06F1C40B70400208969C843130A1A
:10073000803EEF80801423A60460EF80A011EF605C
:10074000F0452A8902D49384C460938909719C403E
:1007500089CBB707EFBE37E700E0938707083CC7B0
:10076000FDBFA25503A50196B3D54503EF604046F2
:10077000EF80C00C4ED4EF60704233062541330643
:100780004603AA8A0840341081455689EFA0B02458
:1007900088C003A54196814601468145EF60200A45
:1007A000EF80400B6DB7EFF2FFD54111EF800009EC
:1007B000EF60D03E89692A8402C6130A803E93897D
:1007C0000971370B0020EF80E008B24503A5419680
:1007D00013098B5FB3D54503A284EF60603FEF80C0
:1007E000E005832709004EC695CFDC43DC4B9DCB4B
:1007F000EF60D03AAA84032509001C4185E75C41DB
:10080000DC4B8DC33384844033044403740081453E
:100810002286EFA03024032509007400228681453A
:10082000EFA05027268445B7370500201305056142
:100830008280EFF2DFCE3704002013040461084009
:100840004111EF60605A11CD08407D566C00EF6099
:10085000C02128871086938541978946AA95EF3055
:10086000307A4101F9B9938741973E9593D7850036
:100870000CA11CB193D70501E1813CA12CB1828070
:10088000938741973E950CA1A1810CB182809387FB
:1008900041973E950CA18280EFF27FC8AE8693858A
:1008A00041970946AA95EF30B07561B99387419792
:1008B000AA97983388232207598D8280938741977E
:1008C000AA979833A82322074205498F8823498F86
:1008D000A8336205598D8280EFF2DFC20111130641
:1008E00060228145138541979D3189461306002179
:1008F000938541970145EF30D0796319052E138414
:1009000041971820930740046300F72C9387C18315
:100910009843DE23B706000318C03707000113060B
:1009200007105EA0930740027CB410D4B7070005FF
:1009300030CC70D0374605011CC813065660B70787
:100940000024938506105CC830D893070050378682
:1009500005001CCC4CD493070010B7050078130693
:100960000680296558CC1CD058D01CD878C87CCCBF
:1009700038D03CD470D834DC232A04029386062075
:10098000232C0402232E0402232004042322040423
:10099000232404046CC428C86CD474DC2316F40A21
:1009A000231CF40AE147A301F40CB7070015B706AE
:1009B000001A89072328D4082322F40CB7F6030170
:1009C000B70712039386468093871750232AD408CB
:1009D0002324F40CB7260400B7170504938606A059
:1009E00093870730232CD4082326F40CB706000283
:1009F000856713060020232ED4082324E40A938657
:100A00000620054793873740B5692320C408232271
:100A1000040823240408232604082320D40A2322BC
:100A2000C40A2307040AA30BE40A230D040A2318AB
:100A3000F40C9389C95A9304200D130A400E83D5F0
:100A4000090026858904C204C1801D3D8909E398F7
:100A500044FFDD47856529457CA43135B7970112F0
:100A6000C9072322F40E930700192314F40EB56965
:100A700091472305F40E938949559304D00E130B27
:100A8000501383DA090026859109D685D53B03DA10
:100A9000E9FF138524004205D2854181D5331385B2
:100AA00004054205D6854181E13B13852405910467
:100AB0004205C204D2854181C180D933E39364FDEC
:100AC00081451305D0186D3B81451305F0184D3B4A
:100AD000D145130510196D33E545130530194D3314
:100AE000E54513055019693B93052003130570195B
:100AF000413BF945130590196133930570081305BF
:100B0000B019BD3B93078002A30EF41CB705003E4D
:100B10008567938707A0D5051305501E231FF41C76
:100B20002300041E8933B7050076ED051305901EDA
:100B30001D3BB7053F78CD051305D01E2D33B705F6
:100B40000071D1051305101F393BB7057978C90528
:100B50001305501F093BB7057350D9051305101E27
:100B60001933B705006DDD051305901FED39B70585
:100B7000003FE9051305D01FFD31F1451305102095
:100B8000DD31814513055020F9399D478946A3047D
:100B9000F4201306002195479385419701452315BD
:100BA000F420EF30F045130600218145138541976D
:100BB000793A2945EF60702B894613060021938509
:100BC00041970145EF30F04C138A418381490D4B29
:100BD000834A440E4E85FD1A93F5FA0FEF30607B81
:100BE00059C185090D04090AE39469FFB70700207C
:100BF000239A0760056189B203550A00131609019B
:100C0000418293142600AA94C204C180268532C66C
:100C1000713942054185EFB0C04B2AC813852400C5
:100C2000420541816131EFB020572ACA1385440043
:100C300042054181A53942054185EFB080492ACC62
:100C400013856400420541819531EFB0E05432468E
:100C50002ACE0C084E850509EF30C07E1379F90FB6
:100C6000E34C59F9BDBF0149E5BF938741973E95D4
:100C700008218280EFF2BF8A41112A842800B284C1
:100C8000EFB0A0668947638FF40291476380F40454
:100C900085476397F400188493874197A29798A398
:100CA0009307F02063ED8700B707002003A50761D5
:100CB00081467D566C0060874486EF505038410174
:100CC0006FF03F882C842285653ED9BFA2452285DE
:100CD000593EF9B7EFF2BF8441112A846800B2840B
:100CE000EFB0A0608947638AF4029147638BF402F6
:100CF00085476397F400188693874197A29798A336
:100D00009307F02063E88700894626866C002285D9
:100D1000EF30102F41016FF0DF822C8622858D3657
:100D2000C5B7B24522858136E1BFEFF24FFF894555
:100D30000545EF30503921479307401F6369A700ED
:100D40009317150035651305C5593E951E213E853F
:100D50006FF02FFF13050010828003C581978280FA
:100D6000EFF2EFFB37040020130444611E20130749
:100D700070168507C207C1831EA0637AF700194564
:100D8000353E930515001945F93C2310040029450B
:100D90003536AA8403C521988145D928EFB0603340
:100DA000B7D7000083A5075CEFA07009B7D7000094
:100DB00083A5475CEFA0B0082A842685EFB0C03D2C
:100DC000AA852285EFA00051EFB0402BAA852945C6
:100DD000593C6FF00FF7EFF28FF421469385A197FE
:100DE0001945EF30F0196FF0CFF5EFF24FF32945C9
:100DF000F134930740063355F5026FF08FF401A0EC
:100E000001A0EFF2CFF101112E84AA85194542C647
:100E10003EC83ACA36CC32CEEF106045A2851545A1
:100E2000EF10E04472461145B285EF104044E246AF
:100E30000D45B685EF10A04352470945BA85EF101E
:100E40000043C2470545BE85EF1060423248014568
:100E5000C285EF10C04105616FF0AFEE370500208D
:100E6000130545628280B707002023ACA76082800B
:100E7000EFF2EFEA9307F5FF7147636FF7103567FD
:100E80008A071307875CBA979C432E8982871305CC
:100E9000152142054181D13B2A8422856FF06FEAFA
:100EA0001305152142054181EFF05FA0F5B7391513
:100EB0009374F50F2685EF003079AA852685EF30EB
:100EC0000043B7D7000083A5075CEFA09033EFB0D5
:100ED000C0142A84E30309FC0D453385A4021305DD
:100EE000550EEFF0BF9C2A944DBF0D45EF00D07515
:100EF000B7D7000083A5075CEFA0B030EFB0E011DA
:100F000061BF0145EF30406FAA841305D01DEFF09B
:100F1000FF99EFB06028B7D7000083A50769EFA05D
:100F200000722A842685EFB0C01AAA852285EFA018
:100F3000502DEFB0A014EFB020265DBF0545EF3077
:100F4000A06BAA841305F01DD9B70945EF30405BAB
:100F5000A1B7613D91B71945EFF05F9635BFB7076F
:100F6000002003A4876115BF1305C020EFF01F9573
:100F700013548540930740061374F40F3304F402AE
:100F80009377F50F41851375F50F3E948967938725
:100F900007713305F50281BF014401B71387C1BB57
:100FA000834687029387C1BB13962600329710436E
:100FB0007147631EE60203C7970315CBC85B05C9DB
:100FC00003C7170309C7A38C0702A388070203C737
:100FD000970393080002054805071377F70F9375E9
:100FE000F70F63F5B802A38C0702A38807021387E3
:100FF000160083C687031377F70F2384E702636421
:10100000D7002384070223A6070282803316E80054
:10101000698E050769D6A38CB70282809387C1BB0E
:1010200003C7970223A607022384E7028280EFF218
:101030000FCF9385C1BB83C7850205469385950273
:101040009CA11305902079316FF0AFCF03C541BE4D
:101050008280A94763E6A7002382A1BE0145828062
:1010600005458280A94763E1A702EFF24FCB938544
:10107000C1BBA384A5020546938595021305902064
:10108000D53E01456FF0EFCB054582809387C1BB0C
:1010900083C6870203C797026385E60203C7170367
:1010A0000DE3D8573A95C8D783C7A7021307803EE8
:1010B000B387E7026367F500EFF26FC685376FF01D
:1010C0004FC8828001C9F147630AF500A147014575
:1010D00063F5B700238AB1BE054582802386B1BE81
:1010E00001458280EFF20FC21385C1B9EF70604FE6
:1010F000130590209384C1BB8D3EA384A4021305E5
:10110000A020EFF09FB683C794022385A402238C0E
:1011100004022384F4021389C1BB81441384C1BB3C
:10112000054AA949139524001305151E420541815E
:10113000EFF0CFF82320A90093F5F40F1375F50F06
:1011400051376306450185041109E39D34FD232AC7
:101150000402A30C0402232E0402230004046FF0F3
:10116000AFBD1387C1BB5C5FA9C383470704930668
:101170008002850793F7F70F2300F70463F5F60065
:1011800023000704828055476371F702EFF22FB9FD
:1011900001449D442285050481451374F40FEF102A
:1011A000000DE31994FE6FF0CFB982801387C1BBA5
:1011B000585B9387C1BB6309A70483C60703A9C60D
:1011C0001347F7FF698FC8DBA38C0702014601456F
:1011D000854813080002B395C800F98D9376F60F81
:1011E00081C919C1A38CD7020547A388E702828071
:1011F0008506050693F6F60F0545E31E06FDA38C4E
:10120000D7027DF3A388070282801387C1BB834680
:10121000170305479387C1BB6396E60003C707031F
:101220002384E70203C787020A07BA9788438280AC
:10123000EFF2EFAE41112A8432C42EC6EFF00FE771
:10124000B2458AA11305240042054181EFF00FE663
:1012500022460AA241016FF0CFAEEFF24FAC41112E
:101260002E841306E1006C00E1373887014505C381
:101270003C86014589CF63E9E700636AE400B3B7C0
:10128000870013C5170021A00545E36AE4FE41016C
:101290006FF02FABEFF2AFA82A848DE101468945AC
:1012A000EF00107801468D452285EF0070770146EA
:1012B00085452285EF00D0766FF0AFA8B144B30426
:1012C0009402AE873E858545EFF09FBA131905015C
:1012D00013590901CA851385B40141372A86894506
:1012E0002285EF00F073CA851385F401BD372A8685
:1012F00085452285EF00D072CA8513853402B13F3F
:101300002A868D457DB7EFF20F9F4111AA8AAE84E0
:101310003D456C00B2891306E10036893A8C3E8B5C
:10132000428DC68C0354410421372886835BE1003B
:1013300033057541EFA0F059B7D7000083A5476981
:10134000EFA0206C2A8A636E340333857941EFA0C5
:101350005058D285EFA0A02EEFA050522300AD0030
:1013600033053441637489003305394142054181B5
:10137000EFA09062D285EFA0802CEFA030502380A8
:10138000AC00636D540333857A41EFA09054D2854D
:10139000EFA0E02AEFA0904E2300AC0063E38402AC
:1013A00033045441131504014181EFA0F05ED2854E
:1013B000EFA0E028EFA0904C2300AB0041016FF0BC
:1013C0000F9733845441F9BF03480100388263F614
:1013D000A5026374A70063E6E6006379B700637F44
:1013E000E602238008012380070182806364D7001E
:1013F000E37BE6FE2380080182806377E600E362F8
:10140000B7FEE379D7FE19A06375D700E36BE5FC5F
:10141000D5B7E371B7FEE368E5FCE9BFE36CD7FC41
:10142000D9B7EFF2CF8F79712A892E84B2846C10EC
:101430001306E1023D4536CE3ACC3ECA42C846C606
:10144000C53BF246B2484248D247624763F486023F
:1014500063EB260163E9280163E916012300070114
:101460002380070129A0E3FD16FF23000701456142
:101470006FF02F8D6367940063E59800E36214FFBB
:10148000F1BFE37414FFE9BFEFF26F89EF60A05F73
:10149000B707002023A4A762B707002003A547626F
:1014A00001478D4611468145EF60D01E6FF06F8970
:1014B000EFF26F8439717D5774181306F00F814570
:1014C0000145EF60100FF257918BF5D7EFF09FC1F8
:1014D0009387C1BA23A0070023A207002394070023
:1014E00023A60700B707002003A5876201478946A6
:1014F00001468145EF60101AB7D7000083AB4769FA
:1015000081491384C1BA370B00201389C1BB138AE8
:101510004184938A81842945EF60201585653715BC
:10152000014093850580130505C0EF30506C0547D9
:101530006310E50C5C4091C708C02322040023140B
:101540000400930CCB6103A50C004444130CCB6145
:1015500063160524854789E483471903B337F000F0
:101560002945232EF902EFF07FB21C400547639511
:10157000E700E9E4EFF09FA2B707002003AC876122
:101580006285EFF0BFC25131AA84F1471375F50FA0
:10159000631CF51E63060C0C8326490383479903DD
:1015A00001468545130500023397F500758F45C345
:1015B00019C2A30CF90283479903294635678507A9
:1015C00093F7F70FB3F6C7021307476F93050005AC
:1015D00013059007B3D7C702BA9603C806001306CF
:1015E00000058146BA979C230147EFF09F81DDA259
:1015F0001E2454408507C207C1831EA485E291467C
:10160000E3F1F6F458C013077025637CF7008D47AB
:101610005CC485471CC089475CC025B7E393E6F2EC
:10162000DDB71307F0186375F70089475CC411BF75
:101630001307700CE377F7F08547CDBF0D4763952F
:10164000E4002320FC000DBFEFF07F9E35B7850737
:1016500093F7F70F6373F50081470546B1F691BF25
:10166000EFF0DF93EFF0FFAF184085476316F70008
:101670002320040023260400850993F9F90FCD47A0
:10168000E3FB37E98144B9491385340C42054181B4
:10169000EFF0AFDDAA8513F5F40F8504EFF09FBFDF
:1016A000E39434FF1305100DEFF02FDC2306010245
:1016B000A306010223070102A307010249C58545CC
:1016C000EFF00FFB131C05011306A1032C182A8D44
:1016D0003D45EFF0FFB55018930561034D45EFF020
:1016E0003FB51018930521035D45EFF07FB4835794
:1016F000A10303558103135C0C011D8DEFA0701D28
:10170000DE85EFA00030AA8C1545EFF00FD603560A
:1017100041038354010383592103835661036315F5
:10172000052A63E4990063F0C60262C266C09308AA
:10173000D1021308C1029307F1021307E102CE851B
:101740002685EFF05FBC8346D1020346C102834584
:10175000F1020345E102EF00B02713050021EFF08D
:10176000EF949377F50F014591CB1385F7FF137530
:10177000F50F130595060605EFF04F93EF00104D9A
:101780008149EF00B05641BB8145EFF06FEEAA856D
:10179000054613D50401EF007039E9B5054D631016
:1017A000A50D93B71400232EF9021C40370C00201E
:1017B000130C0C626398A70083470C0085E0850733
:1017C0002300FC0003450C00A14763FEA7048547E6
:1017D0002300FC000145EF00503369B519476387CA
:1017E000E702636DF700F9DFFD1735678A07130716
:1017F000C763BA979C4323A0FC00E9B72147E39352
:10180000E7FCEFF0BF8123A00C006DBF89451305F5
:10181000D01DEFF06F8889451305F01DEFF0CF87DD
:1018200023000C0045B79D47631CF50081457545B5
:10183000EFF00FE4AA8501461565EF00302F59BF80
:10184000B307F5023565130505653E950348650048
:101850005C315821343130210C31082179B3938720
:10186000F4FF93B71700232EF902994763FCA702F0
:1018700065151375F50F131715009387C184BA9773
:101880008623EF00605CEFA04079A945B305B5025F
:1018900005462685EF0090291C40E38507DC23A040
:1018A000AC01C9B3B70C002003C71C621C40938C69
:1018B0001C62631CA705E38707DA2320EC00238062
:1018C0000C008D476394F40483260C008547238025
:1018D000FC00F51693B7260093C71700139717005F
:1018E00093874185BA9786238547014563F3D700DF
:1018F00009451305D51D42054181EFE03FFBAA854F
:1019000001462685EF00902211A0C5FF83C70C0079
:10191000E39A07D483240C0093F71400B9CFF5148D
:101920003335900093141500B3879A0083DC0700C9
:1019300081455905EFF0CFD3AA8505466685EF00AE
:10194000F01E1C40E38007D25C4405476398E70023
:1019500083270C0085072320FC0029B3E39407D0DC
:101960009384D41D2685EFE07FF493051500C2050E
:10197000C1812685EFE0DFF0F5B1F114B3349000BA
:1019800093971400D29783DC070081451385640187
:10199000EFF00FCEAA8505466685EF0030191C4092
:1019A000E38207CC5C4405476396E70083270C007D
:1019B000FD1755B7E39807CA9384D41D2685EFE039
:1019C000FFEE9305F5FF65B713150D01418136CE86
:1019D00032CCEFA00070E685EF907046EFA0006A71
:1019E0001378F50F6246F24663E4990063F1C6028C
:1019F00042C062C29308D1021308C1029307F102E8
:101A00001307E102CE852685EFF01F9C2DBBE288EF
:101A10009307D1021307F102CE852685EFF07FA050
:101A20001DB3EFE2DFAF37150000154685451305FE
:101A300005D637140140EF30107B8564938504C2CE
:101A4000130504C0EF3070143706180091461306D2
:101A50000610A145130504C0EF30B01591460146AC
:101A60009385048013050480EF30B0149305F004CF
:101A700013050480EF30100FE14601469305000A7C
:101A800013050480EF30F012A965E14601468D058B
:101A9000130504C0EF30F011C14513050480EF3089
:101AA000F00993850401130504C0EF303009E146C5
:101AB00037461D0093050020130504C0EF30700F5A
:101AC0009306800437461D0093050010130504C0DB
:101AD000EF30300EF14601469305000C130504C0AB
:101AE000EF30300DB7450F00B1461306803E9385A9
:101AF00005240945EF40802C0945EF40801B8145B6
:101B00000145EF00F01581450545EF007015930480
:101B100004C0930500022685EF30700D7DD9EF20BB
:101B2000A07985450145EF30307F85450545EF308B
:101B3000B07EB7260000B7450F008D470547938656
:101B4000065113064006938505240D45EF40C01E3F
:101B50000D45EF400016EF40005137550040054657
:101B6000854513050540EF30904AC145130504C073
:101B7000EF30B0083765004013050540EFE0FFA8DF
:101B80006FE03F9CEFE2BF9981450145EF00500DAA
:101B900081450545EF00D00C0D45EF40E0120545AD
:101BA000EF4020110145EF40C0106FE09F9937F7DB
:101BB00000E0832707D1B7060080D58F2328F7D010
:101BC0008280EFE2DF95372501408145130505400E
:101BD000EF1090193705002003258563B707002013
:101BE000138407640147938707648D46054689453A
:101BF00023200400EF6080441C4091C7B7E700E059
:101C0000116723A0E7206FE0DF93EFE25F913704D5
:101C10000240130544048145EF10304FBD451305C4
:101C20004404EF10D04F0145EF20301485451305D3
:101C30004404EF10904D6FE0DF90EFE25F8E3704C9
:101C40000240130504088145EF10304CBD451305D3
:101C50000408EF10D04C0545EF20301185451305E1
:101C60000408EF10904A6FE0DF8DEFE25F8B894749
:101C70006308F5008D476300F50201456FE07F8C36
:101C80009305004037150140130505C0EF3020765D
:101C90001375F50FE5B793050002EDB7EFE23F8846
:101CA00091E937150140C145130505C0EF30E074D7
:101CB0006FE03F8937150140C145130505C0EF307E
:101CC0008074FDB737050020130585638280EFE23D
:101CD0001F85EF50505BB707002023AEA762B70700
:101CE000002003A5876301478D4611468145EF60BB
:101CF000601A6FE01F85EFE29F8203A781869387BA
:101D00008186DC23011137240140300895451305F5
:101D100004403ACC230EF100EF205040EF20C07871
:101D2000B72700002A87938727BC370502403EC0AB
:101D30008D48054881479306C444054681452105E1
:101D4000EF30402C05616FE0CFFFEFE24FFA411119
:101D5000EF2080752A841309E501AA840395040005
:101D60008904EF20F037239FA4FEE39924FFB7D71F
:101D70000000B7D9000037DA000083AB076AB7D795
:101D80000000832A8A6903ABC96903AC476A93845C
:101D900001C001493E244A288D4DA6853E951E204E
:101DA000137DF90F3E953355B503938CC1C04205A1
:101DB0004181EF60607D6307BD0791476309FD04C2
:101DC000EFA0803D83258A69131D2900669DEF9051
:101DD000504383A5C969EF90D042DE852AC6EF90B3
:101DE0005042B247AA8D03A50C01BE85EF90706AE0
:101DF000AA856E85EF90B0042320AD0005099547B4
:101E000009048904E318F9F841016FE00FF2EFA02B
:101E1000A038D685EF90F03EDA85EF90903E23A86B
:101E2000AC00E9BFEFA04037E285EF90903D83A57D
:101E3000C969EF90103DB7D7000083A5876AEF907E
:101E4000604923A6AC005DBF0A059387C1C0AA976D
:101E500088438280EFE2AFE983A7C181397181496C
:101E6000D84381479306471491C60327C71419C363
:101E70009307C700370A0020232AFA62B7D7000069
:101E800083AAC76AB7D7000003AB076BB7D70000B8
:101E900083AB476B81440544130A4A63372C000027
:101EA000DE8C054909479147630E2403630F04182C
:101EB0006309E41AE31AF4FEEFF0DFCCEF10C03C44
:101EC000EFE07FF12945EF50407A37150140C145D9
:101ED000130505C0EF3020530544EFF05FCDD1B7B7
:101EE0001144C1B77D5734081306F00F81450145F1
:101EF000EF50306CE247918BCDD7EFF0DFDFA94791
:101F00004C103EDA3ED80D459307ACC63EDE22D4D7
:101F1000EF20C05B1305B020EFE03FD57D151335F2
:101F200015002AD44C100945EF20405AB72700006D
:101F30009387C7C96C0801453ED022D4EF20605773
:101F4000138401C5138501C5EF60A0691305040161
:101F5000EF602069138401C2D685138501C2EF604A
:101F6000A06513058400D685EF600065138401C366
:101F7000DA85138501C3EF60406613050401DA8535
:101F8000EF60A06581450145EF20C05885450545B6
:101F9000EF2040583D64130604A6A1469305007D3A
:101FA0000145EF30506F130604A689469305007D66
:101FB0000545EF30506E0145EF20A062B7270000C5
:101FC000370402409387A7C0B73601402A878D485F
:101FD0000548938606C405468145130544043EC062
:101FE0008147EF3020020545EF20A05FB7270000B2
:101FF0009387A7C3B70600402A878D480548938674
:1020000086030546130504083EC081458147EF203D
:10201000707F13050408BD45EF10701013054404CC
:10202000BD45EF10D00F130544048545EF10F00DAA
:10203000854513050408EF10500D0145EF3070473A
:102040000545EF3010470144A9BDB707002003A59F
:10205000C7630147894601468145EF50B063094493
:1020600089B5EF206044AA85370502403D46210529
:10207000EF30000AEFE0EFFB0545EF50005F01474E
:1020800034081306F00F81450945EF509052058939
:10209000E30905E0EFF07FCBEF206064638A240959
:1020A000ADC8E39084E0370900201309C962494DA7
:1020B000D94D85456A85EFE0BFDB835709004205AE
:1020C00041816385A7002310A9008549050D0909F1
:1020D000E311BDFF03A581C1E685EF907001E351D7
:1020E000A0E00D45EF20C041E30C05DE4C1001459A
:1020F000EF20C05789476313F50085494C1005450B
:10210000EF20C0568947630AF504639809048149A2
:1021100049BB0D45EF20C03EE30505D803A581C1AD
:10212000DE85EF90E07C1345F5FF9354F50195BBF8
:102130000945EFE09FB3AA8501451D260D45EFE057
:10214000DFB2AA850545292E37150140C145130583
:1021500005C0EF30802A8944A9B383270A00C5DB74
:102160009823759B98A365B7EFE26FBB37050240D4
:1021700013050503EF2090670145EF305022054419
:102180000145EF30F022E30D85FE37150140C145D2
:1021900013050580EF3060266FE0AFBAEFE22FB88D
:1021A0003705024013058505EF2050640545EF30E3
:1021B000101F0545EF30D01F8547E30CF5FE37159E
:1021C00001408565130505C0EF3020236FE06FB730
:1021D000854706063396C700060589473395A7004D
:1021E000014781476312B702139507014181C183FB
:1021F000814501476390D502598D4183938601C77C
:10220000D98FEAA29EA682800507C98F1377F70FA0
:102210000A05C9BF8505518F93F5F50F0A06D9BF89
:102220003567130707702A971423B56793870771DB
:1022300013971600938601C7BA9613878185BA95BE
:10224000AA979C2303C7F5FF039806003317F700EE
:10225000931707010547C1876316E600B367F800C7
:102260009EA2828093C7F7FFB377F800D5BF994746
:1022700063ECA708B5679387876B0A053E951841FD
:10228000B70700209387476402879A2393D65500A7
:10229000AE05719B558F9AA3BA231377F77F4D8FA5
:1022A000BAA38280BA238E05137737C0CDBFBA2375
:1022B00093D64500B205619B558FBAA3DA23520726
:1022C00051834D8FDAA38280DA23FD76FD06758F68
:1022D0009605C5BFDA2393D62500FD8A019B558F4D
:1022E000DAA3FA23BA054A0749834D8FFAA38280FD
:1022F000FA23F1769386F607758F9E05FDB7FA23CC
:10230000137707F8D98DEEA3828037070020930753
:102310004764BE231307476409C593E707403EA3FC
:10232000828093F7F7BFC207C183D5BFEFE2AF9CAE
:1023300041112A89AE84014B63D50500B304B04036
:10234000054BB7470F009387F72337871E00A697E3
:102350001307E7476365F704E1679387F769371762
:102360000300A6971307E7D3636FF70A896793877C
:10237000F7701567A6971307E7E16369F70A938774
:10238000743E1307E07C6366F70A938734061307ED
:10239000600C89498D4A6366F700894A19A0814912
:1023A0009D4AB56B014A938B4B6F294CB3E784036D
:1023B000528513041A0032C61374F40FDE978C236F
:1023C000EFF0FFEA3246B3C4840363978A0632858E
:1023D000EFF0BFF3630B0B00228593050004130499
:1023E0002A00EFF0DFE81374F40F994463F88404D3
:1023F00089476397F902B707002093874764EA2368
:102400007177798D135789001377F707598D116705
:102410001E09130707F83379E90033652501EAA39C
:1024200041016FE0CF908549994AA5BF8949954AF6
:102430008DBF8949914AB5B7228A8DBF22858145D2
:102440000504EFF0DFE21374F40F4DB737070020F7
:10245000130747641E230A058D8BC98F1EA3828034
:10246000EFE2EF8B2E87A14511E19145B567060795
:102470009387476DBA9792230945EF30F033814532
:102480000945EF30D03B6FE0CF8BEFE24F89B727A4
:1024900000004111370402409387C7193707002015
:1024A000B74600403EC0130584058948054881476A
:1024B000130747649386C68005468545EF20903410
:1024C000B727000093878716B73601403EC089487A
:1024D000054881471387C1C7B106054685451305E1
:1024E0000403EF20303241016FE0AF85EFE22F832C
:1024F000371501408565130505C0EF20D0703705FD
:102500000240914513058505EF20102F6FE06F8382
:10251000EFE2EF802946938501C71385C1C7EF908D
:10252000D05CB707002003D7C7649306700C93876D
:10253000C76405074207418363E9E6089AA38A2333
:102540009307700C63F6A7089387C1C796276D772A
:102550001307A7AA758F94433776F6DB130666DB5D
:10256000F18E94C3D4433776AAAA130666DBF18EA4
:10257000D4C39AA79387C1C783D887009566904331
:1025800013885655337818013717C927B768EDB740
:102590009388D8B613079724718F3376160190C3AA
:1025A000D043B76855559388D8B633761601CE23F5
:1025B00023940701D0C313065009637FA6009386B6
:1025C0009624ED8E98C3D6A301A82390070085BF5B
:1025D0009307F004E3E0A7FA37150140C14513055E
:1025E0000580EF205062370502409545130505032D
:1025F000EF2090206FD0FFF4EFD27FF20545EF106F
:102600008078EF007033EF60C005EFF08FC1EF000E
:102610007059EF003049EF40B04E01A082809967B9
:102620007390078001A0EFD29FEF9C214111614779
:10263000DC876360F70285479CC2482905469305FD
:10264000F1001305250CEFE0EFE2014541016FD0E9
:102650005FEF4145E5BFEFD29FEC85479CC2C8299B
:10266000411132C61305250CEFE02FE0324608A2D7
:10267000014541016FD0FFECEFD27FEA85479CC254
:1026800048292E8481456105EFE08FFE08A00145B1
:102690006FD03FEBEFD2BFE805469C2190C258298E
:1026A0004111DC87630DC70089466304D7020546E4
:1026B0009305F1001305A020EFE0CFDB29A03E85B4
:1026C000EFE03F9919E1014511A0414541016FD06B
:1026D0005FE73E85EFE01F99F5B7EFD2BFE29C219F
:1026E00023A0060040294111DC870549B684630C0C
:1026F000240331C40D4763648704AA893D4563619F
:10270000F50285451305E4FFEFF09FD503C54901A8
:1027100005469305F100EFE0EFD523A02401014524
:1027200041016FD07FE11D473D45E36BF7FE054654
:102730009305F1000545EFE0EFD380C0CDB7054428
:102740003D45E36FF4FC05469305F1001305B02009
:10275000DDB71C2141115C871C31DC8728874101D2
:102760008280EFD2DFDB01112A842E8536C6EFF09E
:102770005FFEB2468947E8879CC25C280547639B99
:10278000E700AA8513050021EFE08F8F0145056161
:102790006FD03FDB1385770609469305E1010605F7
:1027A000EFE04FCDE5B7EFD29FD701112A842E85F8
:1027B00036C6EFF01FFAB2468947E8879CC2482820
:1027C0009305E101094606054505EFE0AFCA01455D
:1027D00005616FD01FD7EFD29FD401112A842E85B7
:1027E00036C6EFF01FF7B24689471375F50F9CC246
:1027F000E88748289305E101094606051305B51D3C
:10280000EFE04FC7014505616FD0BFD3EFD23FD195
:102810004111AA8511466800EF90302D32454101E3
:102820006FD03FD2EFD2BFCF01112A842E8536C69A
:10283000EFF0DFFDB24691472ACE9CC248286C08D3
:102840001146130585070A05EFE0CFC20145056172
:102850006FD03FCFEFD2BFCCAA84DC283D472E8576
:102860003684636DF70085478C219CC2C828130508
:102870001521EFE0CF8101456FD0BFCC4547636F95
:10288000F700EFF01FED89471CC0DC28AA8593876D
:10289000F71013951700EFD0BFFEF1BFEFF01FF751
:1028A00091471CC0EFE02FDCF9B7EFD25FC791472B
:1028B0009CC25C290D474111639FE7002E85EFF014
:1028C000FFF4488605466C003945EFE0AFBA014594
:1028D00041016FD01FC71145E39CA7FE2E85EFF085
:1028E000FFF22AC611466C001305C020F9BFEFD2D3
:1028F0001FC301112A8432852EC636C4EFF07FE54E
:10290000A246B24589479CC2E887882109469305BB
:10291000E1017D150605229542054181EFE08FB565
:10292000014505616FD0FFC1EFD27FBF2E869305B1
:1029300045016D45EFF0BFFB6FD0BFC0EFD23FBE8A
:102940002E869305450113057002EFF05FFA6FD0F4
:102950005FBFEFD2DFBC2E86930545011305300320
:10296000EFF0FFF86FD0FFBDEFD27FBB2E8693054F
:1029700045011305F003EFF09FF76FD09FBCEFD236
:102980001FBA2E86930545011305B004EFF03FF6FC
:102990006FD03FBBEFD2BFB82E869305450113051C
:1029A0007005EFF0DFF46FD0DFB9EFD25FB72E869E
:1029B0009305450113053006EFF07FF36FD07FB824
:1029C000EFD2FFB52E86930545011305F006EFF013
:1029D0001FF26FD01FB7EFD29FB42E86930545012B
:1029E0001305B007EFF0BFF06FD0BFB5EFD23FB324
:1029F0002E869305450113057008EFF05FEF6FD049
:102A00005FB4EFD2DFB12E8693054501130530097F
:102A1000EFF0FFED6FD0FFB2EFD27FB02E869305BF
:102A200045011305F009EFF09FEC6FD09FB1EFD295
:102A30001FAF2E86930545011305B00AEFF03FEB5B
:102A40006FD03FB0EFD2BFAD85479CC248299147B8
:102A50002E84631AF5001305B020EFE00FA108A043
:102A600001456FD01FAE3305A04042054181F5B747
:102A7000EFD2FFAA1C21054741112E846391E70282
:102A80000D453306A6029CC21305460E4205418140
:102A9000EFE0AF9D08A0014541016FD09FAA094713
:102AA0006391E7020D453306A6029CC21305560E3C
:102AB00042054181EFD09FDF9357850008A01CB0ED
:102AC000D9BF91479CC20821B7070040F5173E9532
:102AD000D1473306F60232950A051305D50E420595
:102AE0004181EFD0BFDD2AC611466C002285EF90F0
:102AF000C07F55B7EFD2BFA201465105EFF05FF797
:102B00006FD03FA4EFD2BFA105465105EFF05FF6AD
:102B10006FD03FA3EFD2BFA009465105EFF05FF59C
:102B20006FD03FA2EFD2BF9F054798C25C292E8489
:102B3000638CE7000947130590206384E7001305C1
:102B4000A020EFE08F9219A0EFE04FD008A0014540
:102B50006FD03F9FEFD21F9B03490500854741116E
:102B6000AE843284368A631CF9028C213285EF10E0
:102B70005002BD470DE10D453305A4029C200546DA
:102B800023202A015C841305450E42052C00418157
:102B9000EFE04F8E81473E8541016FD0FF99894715
:102BA000631FF9002E85EFF0DFBA68840D45330509
:102BB000A40223202A0109461305550EF9B7AA8954
:102BC0002E85EFF0BFC491472320FA002AC203C527
:102BD0000900B7070040F5173E95D147B307F40247
:102BE00011464C003E950A051305D50E420541815C
:102BF000EFE04F889244139504014181EF90C05952
:102C00002AC613D50401EF902059B7D7000083A539
:102C1000075CEF80D02203C609002AC42C007D1671
:102C2000420641822285EF10F00181472DD5BD4734
:102C30009DB7EFD2DF8E01465105EFF0BFF16FD0A7
:102C40005F90EFD2DF8D05465105EFF0BFF06FD0FA
:102C50005F8FEFD2DF8C09465105EFF0BFEF6FD0E9
:102C60005F8EEFD2DF8B894701111CC22EC6EFD0D9
:102C7000FFC3B2459357850088A19CB1014505610A
:102C80006FD03F8CEFD2BF8936866D45EFF07FFD68
:102C90006FD03F8BEFD2BF88368613057002EFF0FE
:102CA0005FFC6FD01F8AEFD29F87368613053003F3
:102CB000EFF03FFB6FD0FF88EFD27F86368613059B
:102CC000F003EFF01FFA6FD0DF87EFD25F85368613
:102CD0001305B004EFF0FFF86FD0BF86EFD23F844A
:102CE000368613057005EFF0DFF76FD09F85EFD2C2
:102CF0001F83368613053006EFF0BFF66FD07F8452
:102D0000EFD2FF8136861305F006EFF09FF56FD006
:102D10005F83EFD2DF8036861305B007EFF07FF4D4
:102D20006FD03F82EFD2AFFF368613057008EFF009
:102D30005FF36FD01F81EFD28FFE36861305300907
:102D4000EFF03FF26FD0EFFFEFD26FFD3686130545
:102D5000F009EFF01FF16FD0CFFEEFD24FFC3686B7
:102D60001305B00AEFF0FFEF6FD0AFFDEFD22FFBEE
:102D700089479CC248292E84411185454505EFE0CD
:102D80002F8F9357850008A01CB0014541016FD0DB
:102D90004FFBEFD2CFF891479CC2482941112E84B6
:102DA000130585070A05EFD07FB12AC66C001146CE
:102DB0002285EF908053014541016FD08FF8EFD20B
:102DC0000FF689479CC2482901112EC60605130536
:102DD000B51DEFD0BFADB2459357850088A19CB11A
:102DE000014505616FD0EFF5EFD26FF389479CC2C3
:102DF000482901112EC606054505EFD03FABB24567
:102E00009357850088A19CB1014505616FD06FF390
:102E1000EFD2EFF091479CC25C29094741112E8403
:102E20006386E7020D476387E70205471305C02065
:102E3000639FE700EFD07FFB2AC66C001146228516
:102E4000EF90A04A014541016FD0AFEF1945EFD097
:102E5000FFA6DDB73945EFD05FE1F9BFEFD22FEC28
:102E600089479CC24829854741112E84631EF5007D
:102E700013050021EFD09FA39357850008A01CB035
:102E8000014541016FD0EFEB130575060605DDB76F
:102E900083A7C181DC431387C71271EB3567130722
:102EA000077823A0E7141387471471EB35671307DE
:102EB000077923ACE7141387C71571EB396713073C
:102EC000078923A8E7161387471771EB396713079C
:102ED000078123A4E7181387C71871EB3967130715
:102EE000078323A0E71A1387471A71EB3967130783
:102EF000078523ACE71A1387C71B71EB39671307E4
:102F0000078723A8E71C1387471D71EB3567130755
:102F1000077C23A4E71E1387C71E71EB35671307D1
:102F2000077E23A0E7201387472071EB356713073F
:102F3000077623A2E7221387872271EB35671307F1
:102F4000077B23AEE7221387072471EB356713074E
:102F5000077223AAE7241387872571EB35671307C8
:102F6000077423A6E7261387072771EB828039674A
:102F70001307078C23AAE7121387871305F3356716
:102F80001307077523A6E7141387071505F3396799
:102F90001307078B23A2E7161387871605F33967F4
:102FA0001307078023AEE7161387071805F3396761
:102FB0001307078223AAE7181387871905F33967D0
:102FC0001307078423A6E71A1387071B05F339673E
:102FD0001307078623A2E71C1387871C05F33967AD
:102FE0001307078823AEE71C1387071E05F3356711
:102FF0001307077D23AAE71E1387871F05F335678D
:103000001307077F23A6E7201387C72105F335673A
:103010001307077A23A8E7221387472305F33567A9
:103020001307077723A4E7241387C72405F335671D
:103030001307077323A0E7261387472605F339678D
:103040001307078A23ACE72615B7B7170240984342
:10305000B706FFF841111367170098C3D843370626
:103060000200758FD8C39843B706F7FEFD16758F1B
:1030700098C39843B706FCFFFD16758F98C3D843D5
:10308000B70681FFFD16758FD8C337079F0098C715
:1030900002C402C69843C166558F98C3B716024052
:1030A00005679C42F18F3EC6A24785073EC4B247E2
:1030B00081E7A247E397E7FEB71702409C431397C7
:1030C000E7006359070685473EC6324785476311C7
:1030D000F706B7170240D843B706C1FFFD161367BE
:1030E0000708D8C3D843D8C3D84313670740D8C309
:1030F000D843758FD8C3D843B7063D00558FD8C382
:103100009843B7060001558F98C3984393166700FC
:10311000E3DD06FED843B7160240719BD8C3D843FF
:1031200013672700D8C32147DC42B18BE39EE7FE3B
:103130004101828002C651BFB7160240DC42370708
:1031400000201146B18B130787586385C7002146BD
:103150006388C702B7177A00938707201CC3B71785
:103160000240DC43918393F6F700B7070020938772
:103170000700B69794231C43B3D7D7001CC38280A3
:10318000DC42D4424166C983BD8BF18E8907454636
:103190006393C700C94781EEB746024083A6068005
:1031A000C18A89CEB7167A009386062021A8B71661
:1031B0000240D4421396E600E35606FEB7163D00E1
:1031C00093860690B387D70251BFEFD2AFB3C164E5
:1031D00041113709002009440D4A8D4AFD14832707
:1031E000096593090965638E870463804703E5FFDA
:1031F000EFD08FEEEFF06FA9EFE07FADEFE0CFA85B
:10320000EFF01FC923A05901D9BF7D5774000146B3
:1032100081450145EF40F039B247E39287FC2686AD
:1032200081450145EF40907FEFD0EFBC0841EF4072
:103230000003EFD0EFBC0841EF40600223A08900FB
:1032400079BF1305401FEF404042EF20F06041BFBF
:10325000B7370020938787881CC1B7270020938742
:1032600087489CC1930700081CC28280B7370020A2
:10327000938787921CC1B7270020938787689CC1DA
:10328000930700081CC28280EFD26FA9EFD04FB71E
:103290000841EF40404CEFD00FB60841EF40A04B43
:1032A0006FD02FAAEFD2AFA7EFD05FBB2A84372809
:1032B0000020B7270020B7E50000371500001308ED
:1032C0008819938787D91947854613060010938577
:1032D000058D1305054BEF30306E08C0EFD04FB2AF
:1032E0002A84B7E50000370500001388810893871A
:1032F00081C811478546130600109385C58D1305B7
:10330000657AEF30706B08C0EFD0EFAE2A843728B3
:103310000020B7170020B7E50000370500001308AC
:1033200088AE938787E61547854613060032938556
:10333000C58E13054561EF30306808C0EFE09F98F7
:103340002A8437280020B7270020B7E5000037255A
:103350000000130808D4938707B421478546130655
:10336000000893850590130545E5EF30F06408C02B
:1033700037280020B7270020B7E5000037350000C8
:103380001308083F9387071F254785461306000843
:103390009385C5901305A51CEF301062EFF0DFEEAA
:1033A0006FD02F9AEFD2AF97EFD00FC8B73600206B
:1033B000372600202A8401479386068E130686440A
:1033C00091454145EF30A03508C06FD08F9701A0DF
:1033D00001A001A001A001A001A001A001A001A0E5
:1033E00001A001A001A001A001A001A001A001A0D5
:1033F00001A001A001A001A001A001A001A001A0C5
:1034000001A001A001A001A001A001A001A001A0B4
:1034100001A001A001A001A001A001A001A001A0A4
:1034200001A001A001A001A001A001A001A001A094
:1034300001A001A001A001A001A097E1FF1F9381BD
:10344000E194172100201301E1BB17B5000013051B
:10345000E54897D5FF1F9385E5BA1386018763FA80
:10346000C5008322050023A0550011059105E3EA5C
:10347000C5FE17D5FF1F1305651897050020938516
:10348000E5FA6377B500232005001105E36DB5FE6D
:10349000FD42739002BC894273904280B7220000C3
:1034A0009382028073A0023097D2FFFF938202B909
:1034B00093E2320073905230EFF03FB997F2FFFF82
:1034C0009382C2137390123473002030EFD22F8591
:1034D000B727014093870740631EF5008545130514
:1034E0000020EF00D028814513050020EF00302890
:1034F0006FD02F85B737014093870780E31AF5FE19
:10350000854513050040EF009026814513050040D6
:10351000F1BF5C413707F1E01307F7EF944D7D8F62
:103520009C41D58FD44DD58FD441A206D58FD98F4C
:103530005CC11C4537F7F1FF1307D77FD4457D8F5A
:103540009C49D58F94458606D58FD98F1CC55C556F
:10355000370710FF7D177D8FDC29FD1793F7F70FD5
:10356000D207D98F5CD582801C4589C593E71700A7
:103570001CC58280F99BEDBF1C4589C593E70710E8
:103580001CC5828093F7F7EFE5BF1C4593E78700E2
:103590001CC5828008450D81058982801C4593E702
:1035A00047001CC5828008450981058982801C4529
:1035B00091C537075000D98F1CC582803707B0FFEF
:1035C0007D17F98FD5BFA54763F7B7048D471387DC
:1035D00065FF3307F7020328C5009D47B397E7004F
:1035E00093C7F7FFB3F70701B396E600DD8E54C526
:1035F000994763E3C70495477D163306F602585989
:10360000FD47B397C70093C7F7FFF98F3396C500FF
:103610005D8E50D982800D473387E502032805016E
:103620009D47B397E70093C7F7FFB3F70701B3963A
:10363000E600DD8E14C96DBFB14763E2C70295474E
:1036400065163306F6021859FD47B397C70093C7AE
:10365000F7FFF98F3396C5005D8E10D982809547AC
:103660004D163306F6025855FD47B397C70093C76A
:10367000F7FFF98FB395C500DD8D4CD582801C45D1
:1036800091C537071000D98F1CC582803707F0FF1E
:103690007D17F98FD5BF5841144193D78500F58F19
:1036A00099C713F5F50F798D3335A0008280014558
:1036B0008280A18193C5F5FF0CC182805C4191C5D8
:1036C00037070004D98F5CC18280370700FC7D1763
:1036D000F98FD5BFEFC2BFE401112A842303010093
:1036E000A5441C8363FAF40623030100A546214682
:1036F0001C8363F0F60A2314010023150100230341
:1037000001009546130600601C8363FEF60E1C83C1
:1037100093F7F70F63840712388414833C840C8377
:1037200010833347D702B3E7B7028607B3C7C70290
:10373000BA97C207C1837C84188399479546998FAD
:1037400093F7F70FDC839C8393F7F70F639C0710C5
:103750008567938707800DAA1C4493E787001CC4E4
:103760002285EFF03FE36DFD1C4493E747001CC446
:103770002285EFF05FE36DFD78441C83141086070B
:10378000B6972396E7FE1C83850793F7F70F5C83B4
:1037900089BFA30301009C836378F6001C8385071F
:1037A00093F7F70F5C83A9B798839C830C100607E7
:1037B000850786072E97AE970357C7FE83D7C7FEA8
:1037C00063FDE7029C838607AE9783D7C7FE7C84A0
:1037D0009C83988385078607AE9783D5C7FE93178A
:1037E00017001810BA972396B7FE9C8338840C10E4
:1037F00085078607AE972396E7FE9C83850793F798
:10380000F70FDC8349BF1C83181089078607BA9716
:1038100083D7C7FEE36DF6EE1C830C10388489074E
:103820008607AE9783D7C7FEBA97C207C1837C8449
:103830001C83850793F7F70F5C83F9B59307004066
:10384000DDBD1C831010388589078607B29783D7A2
:10385000C7FEBA97C207C1837C851C83850793F78F
:10386000F70F5C831C83E3FEF6FC388594833C856C
:103870008C8390833347D702B3E7B7028607B3C779
:10388000C702BA97C207C1837C85288434852C84FB
:103890003085056793070040130707803385A740ED
:1038A000B306D7408D8F118F4205C206C20742076B
:1038B000C18641874185C1873695BA978946334588
:1038C000D5020561B3E7D7023E95420541856FC039
:1038D0005FC71C4161773D0794517D8F9C45D58F13
:1038E0009449D58FD449D58F944DD58FD44DD58F4C
:1038F000D451D58F9455D58FD98F1CC1DC455CC16F
:103900009C411CC5DC415CC582801C4189C593E794
:1039100017001CC1828041677917F98FDDBF4CC148
:103920008280B70702409C437D8D3335A0008280A2
:10393000EFC2FFBEEFF0FFFE6FC0BFC0B70702408F
:10394000C8C382809C4513F7070113F8F70001C72D
:10395000D8413368E80037270240145B3707000F6F
:10396000758F5DEB370700208546230AD76437172C
:1039700001406315E5009A2135839AA18E2113F742
:10398000F50F39C318418146854E3D4F930F800294
:1039900093028004214E3396DE00B3F8C500631114
:1039A00016039398260033131F011343F3FF337755
:1039B000E300B318180133E7E8006399F70750C92B
:1039C0008506E39AC6FD18C11307F00F6375B704A7
:1039D00054412146854E3D4F930F8002930280044F
:1039E000414EB398CE0033F715016392E8021317E6
:1039F000260001173313EF001343F3FFB376D30010
:103A00003317E800D98E6397F703232A15010506BB
:103A1000E319C6FD54C1828037170140E310E5F673
:103A2000370700200347476531DBB1B7E39A57F802
:103A300010C979B7E39D57FC23281501C9BFB717F3
:103A400001406318F500B707002083C7476591C39D
:103A5000B58108456D8D3335A0008280B7170140D0
:103A60006318F500B707002083C7476591C3B58188
:103A70000CC98280B71701406318F500B707002012
:103A800083C7476591C3B5814CC98280B7070140A0
:103A9000635A0504DC4F93560501131805013707D7
:103AA000300013F6F60013580801B376E500635EA4
:103AB00005066399E604930606010D46B316D60083
:103AC00093C6F6FFF58F99C9135755011377F73F42
:103AD00012073317E800D98F6355050637070140F1
:103AE0005CCF828037270240145BDC433707000F2E
:103AF000758F55F313D71700F976CE07758FCD83E1
:103B0000D98F51BF1317B500635607008D46B39682
:103B1000C6007DB7135755011377F73F12073317C8
:103B2000E8001347F7FFF98F79BF6390E602370685
:103B300001405442370700F17D17F98F758F58C245
:103B4000C1F5370701405CC382801317B500635C81
:103B500007008D46B396C60093C6F6FFFD8EB707E5
:103B6000000FD58FF1BF1357550112073317E80027
:103B70001347F7FF7D8FB707000FD98FD1B7EFC27B
:103B80001F9A79712A84462168082EC6E524925727
:103B900037470F001307072433D7E702C204C18059
:103BA00093F404FCC204C180B24561651305056A43
:103BB000131607014182D18C46A01620C206C1828D
:103BC000F99AC206C18216A094416369D50486069B
:103BD000B3D7D7029146139707014183BA8763731E
:103BE000D700914705064206C2074182C18312B041
:103BF0005EAC1E20DA21B62593E717001EA01E201A
:103C0000558FC207C18393F757BFD98F1EA09A253E
:103C1000DE25D98F1EA445616FC0BF92EA213166AF
:103C20007D16631DC5020D46B386C602B3D7D70203
:103C3000C207C1839396470199E293E71700A166F3
:103C4000D58F9306C0123307D7029306803E3347C1
:103C5000D7020507420741831AB059BF6546B386AC
:103C6000C602B3D7D7029166C207C183D58FD9B731
:103C70001E2189C593E717001EA18280C207C18358
:103C8000F99BC207C183CDBF1E2189C593E70710E9
:103C90001EA18280C207C18393F7F7EFC207C183D9
:103CA000C5BF1E2189C593E707201EA18280C207D8
:103CB000C18393F7F7DFC207C183C5BF1E2189C542
:103CC00093E707401EA18280C207C18393F7F7BF25
:103CD000C207C183C5BF5E2589C593E717005EA5EE
:103CE0008280C207C183F99BC207C183CDBF5E2119
:103CF00001C6DD8D4EA1828093C5F5FFFD8DDDBF30
:103D00000EA982800A291375F50F828093F7E50FBB
:103D100019C293E71500C207C1831EA98280411111
:103D200002C62AC6B247BE952EC6B2478A234101B3
:103D300082805E290A2D42055D8D6D8D22052181CF
:103D40000D8D133515008280411102C402C693D730
:103D5000C5012AC63EC4A247A205A18199CBB2479C
:103D6000D1073EC6B247884341016D8D3335A0006F
:103D70008280B247C181E107EDB793C5F5FFC20567
:103D8000C1814EA98280B707002023ACA76482803E
:103D9000B7070020938787659443182181E63C216B
:103DA000920721A894430546639FC6023C21103127
:103DB00092076314D60093E707F8B7E600E093F79D
:103DC000F70FBA962380F6408546935757003397EE
:103DD000E6005441A5C2938707048A07B7E600E0CE
:103DE000B69798C382808C4389466391D50214317B
:103DF0003C216365D6008A06B6975DB79386E603D5
:103E00008A06B69793F7F70F920775B790438D46DA
:103E1000631CD60014313C216364D6008606E9BFDA
:103E20009386C6078606F1BF94439147E39EF6F852
:103E30001C31BDB7938707064DB7B7160240DC4269
:103E400051777D17F98F5D8DC8C28280B717024008
:103E5000238007022380070205476306E500114718
:103E60006306E50082802380A702828015472380B5
:103E7000E7028280371702405C439146B18B63852D
:103E8000D700A1466382D706B7177A009387072029
:103E90001CC1371602405C42370700201307070198
:103EA0009183BD8BBA9794231C41B3D7D7005CC1D3
:103EB0005442A1829D8ABA969422B3D6D70014C5E3
:103EC0005442AD829D8A36971823B3D7E7005CC56C
:103ED00058423983937637001387418036971823E9
:103EE000B3D7E7021CC982805C435843C166C983CB
:103EF000BD8B758F8907C5466393D700C94701EF0E
:103F00003747024003270780418B09CF37177A00D4
:103F10001307072021A83717024058439316E700DC
:103F2000E3D606FE37173D0013070790B387E70275
:103F300085B799C5371702401C4F5D8D08CF828029
:103F4000B7170240984F1345F5FF798D88CF8280CF
:103F500099C5371702405C4F5D8D48CF8280B717F7
:103F60000240D84F1345F5FF798DC8CF828099C59F
:103F7000371702405C475D8D48C78280B717024003
:103F8000D8471345F5FF798DC8C7828093575500F0
:103F900005476399E700B71702409C4333D5A70054
:103FA0000589828009476396E700B71702409C5352
:103FB000F5B7B7170240DC53D5B7B737004003D782
:103FC0004780136707012392E780828037370040DC
:103FD00083574780C207C183BD9BC207C183231299
:103FE000F7808280EFC2AFD341112AC6EFF0FFFC09
:103FF0003245B7370040135705013D8B42052394E6
:10400000E78041812396A780EFF05FFC41016FC0FC
:104010004FD3373700408357478093F70702E5DFD8
:1040200082803737004083574780C207C183DD9BBA
:10403000C207C1832312F780373700408357478078
:10404000A18BEDDF82801E31922103D82500C207AB
:10405000C183F99BC207C1831EB11E3156211A2D9F
:10406000C207C183420741831377C7F8518F922556
:10407000F59BC20633660601D18F37360140130621
:1040800006C0C1826310C502B225DD9B03D8E500DE
:10409000D18FD221ED9B93F6F6CFD18FD225336607
:1040A0000601D18E56A11AADFA215AB91EB18280ED
:1040B0001E3165771307F7CFC207C183BD9BC207C7
:1040C000C1831EB11E31562103D88500C207139645
:1040D0000601162DC18393F7F7FD758F9621418256
:1040E000A206558FB62142074183B3E60601920628
:1040F000D58FB7360140C207938606C0C183631EC1
:10410000D502B62593F7F7F703D8C5009206D58FE9
:10411000D621C207C183920693F7F7FBD58FFD76B0
:104120009386F63FF18EF225C207C18333660601FE
:104130000A06D18E13960601418252A11AADFA21C8
:104140001ABD1EB182801E3103D88500C207C1830B
:1041500093F7F7EFC207C1831EB11E3156215A2DC6
:10416000C207139606014207962141831377C7F8C9
:10417000558FB621C18393F7F7DFB3E60601A20698
:10418000D58FB7360140C207938606C04182C183EE
:10419000631FD502FD769386F67FF58FB62503D88B
:1041A000C500A206D58FD621C207C183A20693F708
:1041B000F7BFD58FF576FD16F18EF225C207C183C4
:1041C000336606011206D18E13960601418252A172
:1041D0005AADFA215ABD1EB182801A31FD77FD1702
:1041E000F98F1EB10358050256215E2D6577922185
:1041F0001307F7CF7D8FF9772206FD17518FB3F79D
:104200000701B22103D88500C206420733660601C2
:104210003206D18F37360140C207130606C0C1826D
:104220004183C183631AC50071767D16F18ED22554
:104230001A06D18EC206C18256A15AADFA212310A8
:10424000E5041EB182801E2DC207C183DD9BDD8D7A
:104250000EAD82801A2DFD779387F77FF98FA20527
:10426000CD8FC207C1831EAD82805E2DC207C18380
:10427000DD9BDD8D4EAD82805A2DFD779387F77FD4
:10428000F98FA205CD8FC207C1835EAD82801E2942
:104290004A25ED8F4205418189C76D8D3335A000D8
:1042A00082800145828093F5F51F4EA182800A210C
:1042B0006D8D3335A0008280B73700209387079B30
:1042C00023A0070023A2070023940700B73700208C
:1042D0009387079A23A0070023A2070023A40700BF
:1042E00023960700B7070020239E07648280EFC251
:1042F0006FA193171500373500201305059B3E95D8
:10430000834905002E89638609060031B7340020F1
:104310009384C49BA299139A0901135A0A01B14AC2
:1043200093170401C18363E6470313090000631276
:10433000FA041384F7FFB1473304F402B7370020BF
:104340009387C79B3E940C404840EF70806B0C44B1
:1043500031A8228BCE87631134033147B387E7023C
:104360004A85BE94CC40EF70C0698C44EF60907673
:104370002A894A856FC04F9C0504B30754034A85B8
:10438000A69783A547FFEF70005FE34BA0F8DA879D
:10439000E9B785476381F504B737002006059387A1
:1043A000079BAA97982315E3370700201307C765D3
:1043B0001223130840060545B306B600634ED80025
:1043C0008CA390B316A301458280FD1501456305BA
:1043D000B700094582800D458280EFC2AF9241113E
:1043E000AA892E893A85BE853684B2843EC63AC4EF
:1043F000EF70300A2A8AA2852685EF709009AA8577
:104400005285EF70C023224723A0A900A2853A85D8
:10441000EF70205FB247AA89A6853E85EF70605E87
:10442000AA854E85EF70F006AA89A6852285EF70D1
:104430005006AA854E85EF7080202320A9004101F7
:104440006FC08F8F93171500373500201305059B1C
:104450003E951C216378F604EFC26F8C0031B147A2
:104460002E8922961314060141803304F402032797
:104470000900832789008326C90003264900B73431
:1044800000209384C49B9305840013054400269563
:10449000A695EFF09FF48327C900269401451CC020
:1044A0006FC02F8A09458280373500201305059893
:1044B00082809317350037050020130505663E9569
:1044C000DC41230005005CC101458280F1473305D2
:1044D000F502B7370020938787EAD8413E959C497B
:1044E00058C17D171CC9DC453337E0005AA95CC5AB
:1044F0009C4DA30B0500232405001CCD01458280A3
:10450000F1473305F502B7370020938787EAAA976A
:10451000C82B8280EFC2AF80F1473305F502B73771
:104520000020938787EA09473D46AA971305C002F2
:104530003385A502D8C337370020130707E323AA22
:10454000070081453304A700090580C32322040224
:104550003A95EFB0DFFFB7E7000083A7C7912320AC
:10456000040205451CD46FB0DFFDEFB25FFBF146DE
:10457000B306D502B7370020138787EAAA843D65C2
:104580000146138487EA130505A63697144323A032
:10459000060213872600F906035827001E23B305D9
:1045A000F84063D60500B307F540B3850701090756
:1045B0002E96E393E6FE3D453355A602B73700201D
:1045C000938787E893954400BE95EF40A002F1479A
:1045D000B387F4020547A2979C4388D3D8D36FB022
:1045E0005FF6F1473305F502B7370020938787EA76
:1045F000AA97884309058280EFB27FF2F14733051D
:10460000F502B7370020938787EA3E95004129CC11
:104610005841894701456317F7041C50A1C73E85DF
:10462000EF709037B7E7000083A54791EF70603DCA
:10463000B7E70000AA8503A5C791EF704000B7E770
:10464000000083A58791EF70C03BEF7030234205D7
:104650004181EF7010280C54EF70A03AEF701022D7
:10466000420541816FB0FFED0145EDBFEFB29FE91B
:1046700071443305850237340020130484EA2A94F8
:10468000832904001C480D4583A409026387F404B0
:1046900026852E89EF705030B7E7000083A547913B
:1046A000EF702036B7E70000AA8503A5C791EF6039
:1046B0001079EF70B01C9307C0033305F502420573
:1046C0004181EF70102183A58902EF708033EF7074
:1046D000F01A2310A90004C809456FB0FFE5EFB236
:1046E0007FE237340020130484EA81448949130AA5
:1046F000703E854A11495C40638B37051C4C26850A
:10470000829778386302A7041C4485071CC41DEBFC
:1047100018486379F7005C4068B893C7F7FF858B4A
:10472000A98F5EA8850493F4F40F7104E39524FD2A
:10473000B707002093870766D8438C23014502976B
:104740006FB09FDF5844F1B723240400E1BF5E2817
:104750008507C207C1836364FA005EA8E1B71C4005
:10476000231A0400D8536315570123A207025DBF23
:1047700023A0070245BF37350020130585F182804D
:1047800085673307C5009387078063C9E706EFB2E3
:104790007FD7AA843284094525C2373A0020AE8AE1
:1047A0008149414B130A8AF193F7F400B307FB40A8
:1047B000C207C183228963F387003E8983274A02A7
:1047C00042091359090133863A01A685CA861305A1
:1047D000000A330424418297CA994204CA941545B9
:1047E000C209C2044180EF20506893D90901EF103B
:1047F000B006C18055F801456FB01FD409458280CD
:1048000085673307C5009387078063C2E708EFB267
:104810009FCEAA844111328409453DC6B739002094
:104820002E8AB68A814B414B938989F193F7F40024
:10483000B307FB40C207C183228963F387003E8927
:10484000420913590901194CB30C7A0103A8090252
:10485000D6872947CA866686A6851305000A029868
:1048600001C92AC67D1CEF10207F3245E3100CFEE3
:1048700033042441CA9B4204CA94C20BC20441803F
:1048800093DB0B01C1805DF041016FB05FCA094548
:10489000828085673307C5009387078063C3E7027B
:1048A000EFB2FFC737370020032847F3B687130757
:1048B0004006B2862E86AA851305000A02986FB0BC
:1048C0005FC809458280EFB29FC54111AE8605469B
:1048D0009305F100EFF0FFFB888741016FB07FC6C1
:1048E000B70700200397876681472A97634F070021
:1048F00009CD05669306F6FFB6876358C700AA87F9
:104900006305D50093170701C1833E858280EFB20E
:104910001FC13165EFF06FD26FB0BFC2EFB29FBE63
:10492000B727014093870740AE8901112A84328A54
:1049300085456311F50A13050020EFF08FDFEFF0D6
:104940001FFD2285EFE09FB885473EC23EC4B707F2
:104950000E003EC68A8595472285230AF10002C0D3
:1049600002C802CC02CEB964EFE0BFBA814793849B
:1049700004926394370737250140854513050540A8
:10498000EFE0FFCF85452285EFE01FBF85452285FB
:10499000EFE09FBD22858145EFE05FD22285EFE009
:1049A000DFBE2285EFE01FBF6DFD2285EFE01FBF58
:1049B0002285EFE05FBF6DFD2285EFE0BFD1B70735
:1049C00000202394A76685452285EFE03FCF05614F
:1049D0006FB09FB6130500408DB713891700D297AB
:1049E0009C239D461376F90FA6978C232285EFE032
:1049F0009FBDCA87BDBF5D7122DE372401402ADC1E
:104A00002EDA130504409305001486C696C49AC294
:104A10009EC032D836D63AD43ED242D046CE72CCA0
:104A200076CA7AC87EC6EFE01FC701CD9305001491
:104A300013050440EFE0FFC7B707002083A7C76650
:104A400082977254B640A642164386436255D255A9
:104A50004256B256225792570258F248624ED24EF0
:104A6000424FB24F616173002030B737002023A25C
:104A7000A7F48280B737002023A0A7F48280B7373D
:104A8000002023A4A7F48280B7170240944BB708F4
:104A90000002370800FEB3E6160194CB944B7D1854
:104AA000B3F6060194CBD84F33671701D8CF9307DD
:104AB000400651476305F50263E7A70ED147130788
:104AC000C012630EF50093072003130780076308E5
:104AD000F500A947130780256303F5004147B76731
:104AE000004083A607404165F59A23A0D74083A6DE
:104AF000074093E6160023A0D74093860740DC4288
:104B0000858B99E37D1565FDC842B767004005892F
:104B10004DC903A507407D17938707401375F5F727
:104B200088C388431365050488C388431375F5FD5E
:104B300088C388431365050188C388435D9988C38A
:104B400088436D9988C337054B03498FD8CE984366
:104B5000799B98C34167D443858A99C27D1765FFC5
:104B6000D843058B39EFEFB29F9BD84B130540021A
:104B70002E8413673741D8CBB284EF00906326862A
:104B8000A28513055002EF00D0622686A285130588
:104B90003002EF0010622686A28513056002EF0046
:104BA00050616FB01F9A9307401F1147E309F5F258
:104BB0009307803E0947E304F5F29307A00F2147CE
:104BC00021BF8280B767004003A70740054693874F
:104BD0000740719B1367170098C34167D4438D8AC0
:104BE0006384C6007D177DFBC8430D897D15133591
:104BF00015008280B767004003A7074093870740EE
:104C0000719B98C34167D4438D8A99C27D1765FF14
:104C1000C8430D89133515008280EFB25F9044219F
:104C2000411100419305550026862800EF70E06B86
:104C3000B767004003A787401359E40013792900A0
:104C40009316570063CE060693870740984793163E
:104C5000470063C906069C47114513973700635EFA
:104C600007040945376700401307074093174500BD
:104C7000BA9703A70718560433642401058B23A0B1
:104C8000E71803A70718BD88598C23A0871803A726
:104C90004718419B23A2E71803A74718D98C22473E
:104CA00023A2971823A4E718324723A6E71803A7DF
:104CB00007181367170023A0E71841016FB07F881A
:104CC00001454DB7054579BFB768004013880840D6
:104CD000032E082005433313A300136E1E00232068
:104CE000C821832EC821134EF3FF9605B3FECE01D3
:104CF000232ED821832EC820C2059606B37EDE015E
:104D00005606C1810E05C2062326D8214295C182CE
:104D10004D8E5607558F2320C5242322E52437279F
:104D20000240145B3707000F758F19EB13870830AB
:104D300016231107C206C182231ED7EEE31A07FF0E
:104D4000376700401307074083264720B3E6660015
:104D50002322D7208DE783274721337EFE00232A95
:104D6000C721B767004003A7C7613363670023AE5D
:104D7000676003A70760799B23A0E7608280832791
:104D80004721B3E76700232AF720E1BFB337A0002C
:104D9000B7660040920793860640B69703A7071BA5
:104DA000118B51EB03A6071B03A7071B03A8471B87
:104DB0005582098B1378F8002382050103A8871B0D
:104DC000A382050103A8871B1358880023830501CC
:104DD00003A8871B13580801A383050103A8871B99
:104DE000135888012384050103A8C71BA384050168
:104DF00003A8C71B135888002385050103A8C71BF8
:104E000013580801A385050183A7C71BE183DCA50F
:104E100011EDDC4693E70702DCC6B337E000BE07BE
:104E2000D18F9CC123970500014582809C4A93E75E
:104E300007029CCADDB70545828039713ACE4167C9
:104E40003ECC06DE16DC1ADA1ED82AD62ED432D292
:104E500036D042CA46C872C676C47AC27EC013072C
:104E60001710B767004023A4E740B737002083A797
:104E700047F48297F250E2525253C2533255A25530
:104E8000125682567247E2475248C248324EA24EEC
:104E9000124F824F21617300203039713ECCB737F9
:104EA000002083A707F42AD63ACE06DE16DC1ADAEB
:104EB0001ED82ED432D236D042CA46C872C676C464
:104EC0007AC27EC001458297B7670040214723A67A
:104ED000E740F250E2525253C2533255A255125695
:104EE00082567247E2475248C248324EA24E124F93
:104EF000824F21617300203039713ECCB7370020DA
:104F000083A707F42AD63ACE06DE16DC1ADA1ED8B4
:104F10002ED432D236D042CA46C872C676C47AC2BD
:104F20007EC005458297B7670040214723A8E74028
:104F3000F250E2525253C2533255A2551256825683
:104F40007247E2475248C248324EA24E124F824F39
:104F500021617300203039713ACE3ECC06DE16DC7A
:104F60001ADA1ED82AD62ED432D236D042CA46C831
:104F700072C676C47AC27EC01147B767004023A2CA
:104F8000E740B737002083A787F48297F250E252B8
:104F90005253C2533255A255125682567247E247B7
:104FA0005248C248324EA24E124F824F21617300C6
:104FB0002030EFB2CFD61314250009454111331527
:104FC0008500EFE0FF968547631FF500B7370020A7
:104FD0009387C7F4A2979C432AC68297324533151C
:104FE0008500EFE0BF9541016FB0AFD51C4141672F
:104FF0007917F98F1CC182804CC11C4193E71700BF
:105000001CC18280EFB2AFD1371302408327430126
:105010005D7102CE93E7170002D02A840655232A39
:10502000F3000543814763936500C1473ED619CA23
:1050300085476300F608856793870780BEC093079E
:105040000020ADA882C002DE37060240B73700203C
:10505000930586009387C7F46314B40688C3ED44B0
:10506000930700083EDC8567BEC41C403AD4416704
:105070007917F98F4C101CC0228536D246C642C41F
:1050800002DA82C282C6EFE0DF841C402248B248C6
:1050900093E727001CC068088547230E9100A30EE4
:1050A0000101230F11013ED0EFE09FCE61616FB08F
:1050B0004FC993070040BEC0930700103EDE69B79A
:1050C0009305C6016315B400C8C3F14451BF9305ED
:1050D00006036315B40088C7F54459B79305460421
:1050E0006315B400C8C7F944A5BF930586056315C9
:1050F000B40088CBFD44ADB71306C6066316C400E2
:10510000C8CB93040002A9BF88CF9304100289BFC3
:10511000EFB2EFC041112A8405452EC632C4EFE03C
:10512000FF812246B245B724014050C04CC41385CC
:1051300004408545EFE04FC41385044093050022E9
:10514000EFE02FD71C4013850440854593E72700E7
:105150001CC01C4093E717001CC0EFE0EFC0854562
:1051600013850440EFE0AFC441016FB08FBD3971CA
:105170002AD6014506DE16DC1ADA1ED82ED432D223
:1051800036D03ACE3ECC42CA46C872C676C47AC23F
:105190007EC0EFF01FE2F250E2525253C25332553A
:1051A000A255125682567247E2475248C248324EC2
:1051B000A24E124F824F21617300203039712AD6DE
:1051C000094506DE16DC1ADA1ED82ED432D236D0C5
:1051D0003ACE3ECC42CA46C872C676C47AC27EC0B7
:1051E000EFF03FDDF250E2525253C2533255A25516
:1051F000125682567247E2475248C248324EA24E79
:10520000124F824F21617300203039712AD60D452B
:1052100006DE16DC1ADA1ED82ED432D236D03ACEBA
:105220003ECC42CA46C872C676C47AC27EC0EFF08F
:105230005FD8F250E2525253C2533255A255125621
:1052400082567247E2475248C248324EA24E124F2F
:10525000824F21617300203039712AD6114506DE54
:1052600016DC1ADA1ED82ED432D236D03ACE3ECC44
:1052700042CA46C872C676C47AC27EC0EFF07FD3F7
:10528000F250E2525253C2533255A2551256825630
:105290007247E2475248C248324EA24E124F824FE6
:1052A00021617300203039712AD6194506DE16DCDB
:1052B0001ADA1ED82ED432D236D03ACE3ECC42CADA
:1052C00046C872C676C47AC27EC0EFF09FCEF25056
:1052D000E2525253C2533255A25512568256724769
:1052E000E2475248C248324EA24E124F824F2161CD
:1052F00073002030B717014093860780114763067B
:10530000D502938607C021476301D5024147630E4A
:10531000F500938707406300F502B72701409387A4
:1053200007806314F50013070004B71602409C4E73
:105330005D8F98CE828013070002C5BFEFB22F9E0B
:1053400001112A842EC6EFF0FFFAB245C1473ECEC6
:10535000EC8289474C0822853ECCEFE0AFDE056148
:105360006FB02F9EEFB2AF9B01112A842EC6EFF0D3
:105370007FF8B2458D472285EC824C083ECC02CEA8
:10538000EFE04FDC05616FB0CF9BEFB24F99011199
:105390002A842EC6EFF01FF6B24591473ECEEC822E
:1053A0008D474C0822853ECCEFE0CFD905616FB028
:1053B0004F99EFB22F9541113284AA84AE89368974
:1053C000EFF05FF309C885450545EFE09FB68545D9
:1053D0002285EFE0AFEB8D474C002685231231018B
:1053E0004AC63EC4EFE00FD641016FB0EF94EFB272
:1053F0000F93EFE0CFE46FB0CF94EFB24F92EFE0B6
:10540000EFE56FB00F94EFB28F91EFE0AFE66FB0C2
:105410004F93EFB22F8F3704002083270467AA8AA7
:105420002E89884B8545328AB68913040467EFE0DC
:105430003F841C40B7050200884BEFE0FF9075F9F0
:105440001C408545B7040300884B8504EFE0DF83EB
:105450001C40A685884BEFE0DF8D7DD91C400146BE
:10546000D685884BB704070093842408EFE01F8A91
:105470001C40A685884BEFE0DF8B7DD91C409355FF
:105480008900FD89884BB704070093844408EFE046
:105490003F871C40A685884BEFE0BF897DD91C4023
:1054A0009375F90FB7040700884B93844408EFE025
:1054B0003F851C40A685884BEFE0BF877DD9370923
:1054C00007008144130949081C40884B63E83401F4
:1054D0008545EFE00FFD01456FB00F86B3079A00D9
:1054E0008C23EFE0FF811C40CA85884BEFE07F846E
:1054F0007DD9850493F4F40FC1BFEFB2AF803704B8
:1055000000201309046783240900BA89130404677F
:10551000F6A0D0C49CA0CEA023940400A8B0EF2095
:10552000805683270900C8C81D47884B98CF8545FA
:10553000EFE00FF483270900014693050070884BC4
:10554000EFE0EFFA1C40B7050200884BEFE0CFFF19
:1055500075F91C40054693050070884BEFE02FF964
:105560001C408545884BEFE02FF21C404E86FD55D0
:105570008823EF20C0781C40AA840146884B9305FD
:105580000070EFE0CFF61C408145884BEFE04FEE16
:10559000014591E00D456FA03FFAEFA2BFF6370439
:1055A00000201309046783240900BA8913040467DF
:1055B0009CA0F6A0D0C4CEA023940400A8B0EF20F5
:1055C000804C83270900C8C80547884B98CF85457C
:1055D000EFE00FEA1C40B7050200884BEFE0CFF682
:1055E00075F91C408545884BEFE04FED1C40854523
:1055F000884BEFE06FE91C40054693050070884B2F
:10560000EFE0EFEE1C404E86FD558823EF20206F23
:105610001C40AA840146884B93050070EFE02FEDF3
:105620001C408145884BEFE0AFE48547014563832B
:10563000F40011456FA05FF0EFA27FEE3704002069
:10564000930404679C404111D145884B02C6EFE0AA
:105650000FED9C40AD46984F7D1763E5E602B966B5
:105660000A07938646933697184313040467028704
:10567000058909C9AC33884B0146EFE02FE91C408E
:10568000094798CF41016FA0DFEB098965DD884BA1
:10569000E145EFE0CFE81C40CE23884BA181FD8996
:1056A000EFE00FE61C402D47E9BF1375050879D9D7
:1056B000CC23884BEFE0CFE41C400D47D9B71375DE
:1056C000050869D1884B8545EFE00FDC1C40114788
:1056D0004DBF058945D9AC33884B0546EFE00FE354
:1056E0001C40154779BF098951DD884BE145EFE042
:1056F0000FE31C40194771B71375050441D5F62314
:105700009A27884BFD16635BD700C04793061700A6
:1057100096A73A94EFE00FDF08A0ADB78145EFE020
:10572000EFD91C409A27C447884B9306170096A7C9
:10573000BA94EFE02FDD88A01C40884B8545EFE050
:105740004FD608407C0001470C2148498D4605464C
:10575000EF20D00EB24791C7B7E700E0116723A052
:10576000E7201C4023AC070031BF0589E30C05F09E
:10577000AC33884B0146EFE06FD91C40214711B78D
:105780001377054005C3884BB70500109385054086
:10579000EFE0AFDE1C408545884BEFE0EFCE1C40CC
:1057A0001D47C5B50989E30F05EC884BE145EFE0DE
:1057B0000FD71C40CE23884BA181FD89EFE04FD449
:1057C0001C4031477DBD13750508E30D05EACC2368
:1057D000884BEFE0EFD21C40254765B513750508EF
:1057E000E30205EA9627FA2363FDE600D847884BD3
:1057F00036970C23EFE0CFD018401E2785071EA751
:1058000051B52947BDBD1189E30E05E63DB7EFA2AD
:105810007FCF0111B757004002C402C693870740EB
:10582000AE89AA84328985456313F50C37052000BB
:10583000EFE00FF2814537052000EFE06FF185457D
:1058400037052000EFE0CFF0B7270600938707A8C1
:105850001307004002CA02CC02CE3EC80C08916772
:105860002685FC83FC86F885EFE06FB185452685AB
:10587000EFE00FC0EFE03FF0B75700009387A75964
:105880005CCDB75700009387A74F1CD1B7570000D6
:10589000938727415CD18547370400203EC6B75720
:1058A00000402328A46604C9A30431012305210173
:1058B00093870740130404676398F4049307F00286
:1058C00028005C84EFE0CFCC9307000328005C84C1
:1058D000EFE00FCC1C408145884BEFE0CFBF1C4070
:1058E0008545884BEFE0CFB805616FA0FFC4370551
:1058F0004000EFE0EFE5814537054000EFE04FE580
:105900008545370540003DBF9307100328005C84A0
:10591000EFE00FC89307200355BF397106DE16DC90
:105920001ADA1ED82AD62ED432D236D03ACE3ECC6F
:1059300042CA46C872C676C47AC27EC0EFF0DFCFD4
:10594000F250E2525253C2533255A2551256825669
:105950007247E2475248C248324EA24E124F824F1F
:10596000216173002030397106DE16DC1ADA1ED888
:105970002AD62ED432D236D03ACE3ECC42CA46C8EF
:1059800072C676C47AC27EC0EFF01FCBF250E252EC
:105990005253C2533255A255125682567247E247AD
:1059A0005248C248324EA24E124F824F21617300BC
:1059B0002030854712066394F500136606F8B7E7B2
:1059C00000E0AA971376F60F2380C740935755003F
:1059D0000547938707043315A7008A0737E700E0D8
:1059E000BA9788C38280EFA2FFB1B7170240D84FA1
:1059F000B7060018AA84558FD8CFB77600409842D2
:105A000005452E891367071098C29853C166B2895D
:105A1000558F98D39853C176FD16758F98D3EFE0C4
:105A2000EFC20144130AA00F13051004EFE00FD6D4
:105A300001ED631444016FA03FB005045145137498
:105A4000F40FEF20B044CDB79307A00FE305F4FEA9
:105A5000B7170240985321641367071098D39853DF
:105A6000418F98D3EFE0EFDAEFE0AFDB373700405C
:105A70008357078093E717002310F780EFE06FD973
:105A80001305F4FFEFE00FD6EFE0AFD84E86CA85DE
:105A90004D45EFF01FF2B707002023AA976661BFBC
:105AA0005D713ED2B737004022DE1384078083D772
:105AB000078086C696C49AC29EC02ADC2EDA32D8E7
:105AC00036D63AD442D046CE72CC76CA7AC87EC692
:105AD000858B89CFB707002083A7476782975E2011
:105AE000C207C183F99BC207C1835EA0EFE06FD2FA
:105AF0007254B640A642164386436255D25542566A
:105B0000B256225792570258F248624ED24E424F36
:105B1000B24F616173002030B717024025E1D447CE
:105B200005657D76C98ED4C7D4477D16F18ED4C75E
:105B3000984F498F98CFB7370140014781C5056716
:105B40001307078092238D6693860604F18E558F86
:105B5000F1769386C630558F420741839AA3DA2F98
:105B600013774710DAAF23980700DA23136727006B
:105B7000DAA39A23136707049AA38280944B1165D2
:105B80007176C98E94CB944B7D16F18E94CBD84F01
:105B9000498FD8CFB74700409387078079BF0A0560
