:100000006F30003E130000001300000013000000DA
:100010001300000013000000130000001300000094
:100020001300000013000000130000001300000084
:08003000130000007300100032
:100038000000000000000000FE0D0000000E00009F
:1000480000000000783300000000000000000000FD
:100058007A3300007C33000000000000000000003C
:10006800BE5E00000000000000020000000000006A
:10007800823300008433000086330000625500009C
:100088008A3300008C3300008E3300009033000068
:10009800923300009433000096330000364B000082
:1000A8009A330000844B0000D24B0000204C000023
:1000B800A23300006E4C0000A63300004E4800003A
:1000C800AE4800000C4900006A490000B033000047
:1000D800B2330000B4330000B6330000B833000078
:1000E800BA330000BC33000024570000DC53000082
:1000F80028540000C4330000C6330000C833000091
:10010800CA330000CC330000CE330000D0330000E7
:10011800D2330000D4330000D6330000D8330000B7
:10012800DA330000DC330000DE330000000000009A
:080138000000000000000000BF
:10020000130181F806C216C41AC61EC822CA26CC1B
:100210002ACE2ED032D236D43AD63ED842DA46DC76
:100220004ADECEC0D2C2D6C4DAC6DEC8E2CAE6CC46
:10023000EACEEED0F2D2F6D4FAD6FED8F3220030CF
:1002400096DA83A2419123A02200F32510342EC018
:1002500003A10187EF60107703A3419103210300FD
:10026000824273901234D652739002309240A2426E
:100270003243C2435244E244724582551256A2565A
:100280003257C2575258E25872598649164AA64AFE
:10029000364BC64B564CE64C764D865D165EA65EDA
:1002A000365FC65F13018107730020301300000022
:1002B00013000000130000001300000013000000F2
:1002C00013000000130000001300000013000000E2
:1002D00013000000130000001300000013000000D2
:1002E00013000000130000001300000013000000C2
:1002F00013000000130000001300000013000000B2
:1003000083A20187938202E07390023403A141919A
:10031000024182403243C2435244E2447245825514
:100320001256A2563257C2575258E258725986494D
:10033000164AA64A364BC64B564CE64C764D865D61
:10034000165EA65E365FC65FD652A102739002307B
:10035000A2421301810782801300000013000000F5
:100360001300000013000000130000001300000041
:100370001300000013000000130000001300000031
:100380001300000013000000130000001300000021
:100390001300000013000000130000001300000011
:1003A0001300000013000000130000001300000001
:1003B00013000000130000001300000013000000F1
:1003C00013000000130000001300000013000000E1
:1003D00013000000130000001300000013000000D1
:1003E00013000000130000001300000013000000C1
:1003F00013000000130000001300000013000000B1
:10040000F322003093F272FF130380181203B3E259
:100410006200711523205500130585FA10C12115BE
:10042000232005009302000063870200711523203A
:100430000500FD12D5BF71150CC1828000000000BF
:1004400000000000000000000000000000000000AC
:10045000000000000000000000000000000000009C
:10046000000000000000000000000000000000008C
:10047000000000000000000000000000000000007C
:10048000000000000000000000000000000000006C
:10049000000000000000000000000000000000005C
:1004A000000000000000000000000000000000004C
:1004B000000000000000000000000000000000003C
:1004C000000000000000000000000000000000002C
:1004D000000000000000000000000000000000001C
:1004E0000000000000000000000000000000397162
:1004F00001436EC619A0397141536AC866CA62CCFD
:100500005ECE19A0397101535AD056D252D44ED66C
:100510004AD826DA22DC06DE3301614082824111AC
:100520004AC026C222C406C68282B24D4101024D93
:10053000924C224CB24B4101024B924A224AB249A0
:100540004101024992442244B240410182803D432C
:100550002A876373C3029377F700BDEFADE5937607
:1005600006FF3D8ABA960CC34CC30CC74CC7410763
:10057000E36BD7FE11E28280B306C3408A0697027E
:10058000000096966780A6002307B700A306B70071
:100590002306B700A305B7002305B700A304B700DF
:1005A0002304B700A303B7002303B700A302B700D7
:1005B0002302B700A301B7002301B700A300B700CF
:1005C0002300B700828093F5F50F93968500D58DB3
:1005D00093960501D58D61B7939627009702000089
:1005E00096968682E78086FA9680C1171D8F3E9682
:1005F000E374C3F8A5B7370500201305456382806F
:1006000037050020130505638280B707002023AC5F
:10061000A7628280EFF23FEEB70500203971938523
:10062000C562014537040020EFA0A0392324A4624D
:100630001304846219E1EF10F0781C4037070020A2
:1006400003278763DC4398C3EF70D04BEF70904E65
:10065000EF00A06D2313A10202D6EF0000701C4032
:10066000A302A102DC43884323AA0700EF70704F66
:100670001C40C843EF70B0620840035661025C4101
:100680008C43EFA0204419C1EF10D073B7070020AE
:100690009387074098530840930661023AD8D8538D
:1006A000130651020C183ADA9857DC573ADC3EDE52
:1006B000EFA0A04419C1EF10F07083A6C1810349D7
:1006C0005102032A040036CEEF00C0689307401F92
:1006D0003EC0F24689679309C102C507C98F4EC65D
:1006E0004AC402C29308803E1308401F01470146D6
:1006F00081455285EFA0804311C5B5576304F500CD
:10070000EF10506C084003A6C1814E874C49CA8641
:10071000EFA0404D19C1EF10F06A1C409C4399C3F3
:10072000EF10506A1C40B70400208969C843130ABF
:10073000803EEF70104423AE0462EF703041EF60F2
:1007400060752A8902D49384C463938909719C409B
:1007500089CBB707EFBE37E700E0938707083CC7B0
:10076000FDBFA25503A54196B3D54503EF50D07503
:10077000EF70503C4ED4EF60E071330625413306F4
:100780004603AA8A0840341081455689EFA02054B8
:1007900088C003A58196814601468145EF50B03956
:1007A000EF70D03A6DB7EFF2FFD54111EF7090388E
:1007B000EF60406E89692A8402C6130A803E9389DD
:1007C0000971370B0020EF707038B24503A5819690
:1007D00013098B62B3D54503A284EF50F06EEF701E
:1007E0007035832709004EC695CFDC43DC4B9DCB8B
:1007F000EF60406AAA84032509001C4185E75C413B
:10080000DC4B8DC33384844033044403740081453E
:100810002286EFA0A053032509007400228681459B
:10082000EFA0C056268445B73705002013050564A0
:100830008280EFF2DFCE3704002013040464084006
:100840004111EF60E00911CD08407D566C00EF507A
:10085000505128871086938581978946AA95EF3055
:10086000D01A4101F9B9938781973E9593D78500B6
:100870000CA11CB193D70501E1813CA12CB1828070
:10088000938781973E950CA1A1810CB182809387BB
:1008900081973E950CA18280EFF27FC8AE8693854A
:1008A00081970946AA95EF30501661B993878197D1
:1008B000AA97983388232207598D8280938781973E
:1008C000AA979833A82322074205498F8823498F86
:1008D000A8336205598D8280EFF2DFC20111130641
:1008E00060228145138581979D3189461306002139
:1008F000938581970145EF30701A6319052E138493
:1009000081971820930740046300F72C9387C183D5
:100910009843DE23B706000318C03707000113060B
:1009200007105EA0930740027CB410D4B7070005FF
:1009300030CC70D0374605011CC813065660B70787
:100940000024938506105CC830D893070050378682
:1009500005001CCC4CD493070010B7050078130693
:100960000680296558CC1CD058D01CD878C87CCCBF
:1009700038D03CD470D834DC232A04029386062075
:10098000232C0402232E0402232004042322040423
:10099000232404046CC428C86CD474DC2316F40A21
:1009A000231CF40AE147A301F40CB7070015B706AE
:1009B000001A89072328D4082322F40CB7F6030170
:1009C000B70712039386468093871750232AD408CB
:1009D0002324F40CB7260400B7170504938606A059
:1009E00093870730232CD4082326F40CB706000283
:1009F000856713060020232ED4082324E40A938657
:100A00000620054793873740B5692320C408232271
:100A1000040823240408232604082320D40A2322BC
:100A2000C40A2307040AA30BE40A230D040A2318AB
:100A3000F40C9389490A9304200D130A400E83D5C0
:100A4000090026858904C204C1801D3D8909E398F7
:100A500044FFDD47856529457CA43135B7970112F0
:100A6000C9072322F40E930700192314F40EB56965
:100A700091472305F40E9389C9049304D00E130BF8
:100A8000501383DA090026859109D685D53B03DA10
:100A9000E9FF138524004205D2854181D5331385B2
:100AA00004054205D6854181E13B13852405910467
:100AB0004205C204D2854181C180D933E39364FDEC
:100AC00081451305D0186D3B81451305F0184D3B4A
:100AD000D145130510196D33E545130530194D3314
:100AE000E54513055019693B93052003130570195B
:100AF000413BF945130590196133930570081305BF
:100B0000B019BD3B93078002A30EF41CB705003E4D
:100B10008567938707A0D5051305501E231FF41C76
:100B20002300041E8933B7050076ED051305901EDA
:100B30001D3BB7053F78CD051305D01E2D33B705F6
:100B40000071D1051305101F393BB7057978C90528
:100B50001305501F093BB7057350D9051305101E27
:100B60001933B705006DDD051305901FED39B70585
:100B7000003FE9051305D01FFD31F1451305102095
:100B8000DD31814513055020F9399D478946A3047D
:100B9000F42013060021954793858197014523157D
:100BA000F420EF308066130600218145138581977C
:100BB000793A2945EF60E05A89461306002193856A
:100BC00081970145EF30806D138A418381490D4B38
:100BD000834A440E4E85FD1A93F5FA0FEF30001C40
:100BE00059C185090D04090AE39469FFB70700207C
:100BF00023920764056189B203550A00131609019F
:100C0000418293142600AA94C204C180268532C66C
:100C1000713942054185EFA0507B2AC81385240015
:100C2000420541816131EFB0A0062ACA1385440014
:100C300042054181A53942054185EFA010792ACCB2
:100C400013856400420541819531EFB0600432465E
:100C50002ACE0C084E850509EF30601F1379F90F75
:100C6000E34C59F9BDBF0149E5BF938781973E9594
:100C700008218280EFF2BF8A41112A842800B284C1
:100C8000EFB020168947638FF40291476380F40424
:100C900085476397F400188493878197A29798A358
:100CA0009307F02063ED8700B707002003A50764D2
:100CB00081467D566C0060874486EF50C0674101D5
:100CC0006FF03F882C842285653ED9BFA2452285DE
:100CD000593EF9B7EFF2BF8441112A846800B2840B
:100CE000EFB020108947638AF4029147638BF402C6
:100CF00085476397F400188693878197A29798A3F6
:100D00009307F02063E88700894626866C002285D9
:100D1000EF30A04F41016FF0DF822C8622858D36A7
:100D2000C5B7B24522858136E1BFEFF24FFF894555
:100D30000545EF30E05921479307401F6369A7003D
:100D4000931715003565130545093E951E213E850F
:100D50006FF02FFF13050010828003C5C1978280BA
:100D6000EFF2EFFB37040020130444641E20130746
:100D700070168507C207C1831EA0637AF700194564
:100D8000353E930515001945F93C2310040029450B
:100D90003536AA8403C561988145D928EFA0F06251
:100DA000B7D7000083A5870BEFA0E038B7D70000C6
:100DB00083A5C70BEFA020382A842685EFA0506DAD
:100DC000AA852285EFA08000EFA0D05AAA852945E8
:100DD000593C6FF00FF7EFF28FF421469385E197BE
:100DE0001945EF30803A6FF0CFF5EFF24FF3294518
:100DF000F134930740063355F5026FF08FF401A0EC
:100E000001A0EFF2CFF101112E84AA85194542C647
:100E10003EC83ACA36CC32CEEF106041A2851545A5
:100E2000EF10E04072461145B285EF104040E246B7
:100E30000D45B685EF10A03F52470945BA85EF1022
:100E4000003FC2470545BE85EF10603E3248014570
:100E5000C285EF10C03D05616FF0AFEE3705002091
:100E6000130545658280B707002023A4A76482800C
:100E7000EFF2EFEA9307F5FF7147636FF7103567FD
:100E80008A071307070CBA979C432E89828713059C
:100E9000152142054181D13B2A8422856FF06FEAFA
:100EA0001305152142054181EFF05FA0F5B7391513
:100EB0009374F50F2685EF003077AA852685EF20FD
:100EC000B063B7D7000083A5870BEFA00063EFA046
:100ED00050442A84E30309FC0D453385A40213051D
:100EE000550EEFF0BF9C2A944DBF0D45EF00D07317
:100EF000B7D7000083A5870BEFA02060EFA070415B
:100F000061BF0145EF30E00FAA841305D01DEFF05B
:100F1000FF99EFA0F057B7D7000083A58718EFA07F
:100F200080212A842685EFA0504AAA852285EFA039
:100F3000C05CEFA03044EFA0B0555DBF0545EF3079
:100F4000400CAA841305F01DD9B70945EF20F07BAA
:100F5000A1B7613D91B71945EFF05F9635BFB7076F
:100F6000002003A4876415BF1305C020EFF01F9570
:100F700013548540930740061374F40F3304F402AE
:100F80009377F50F41851375F50F3E948967938725
:100F900007713305F50281BF014401B7138701BC16
:100FA00083468702938701BC13962600329710432D
:100FB0007147631EE60203C7970315CBC85B05C9DB
:100FC00003C7170309C7A38C0702A388070203C737
:100FD000970393080002054805071377F70F9375E9
:100FE000F70F63F5B802A38C0702A38807021387E3
:100FF000160083C687031377F70F2384E702636421
:10100000D7002384070223A6070282803316E80054
:10101000698E050769D6A38CB7028280938701BCCD
:1010200003C7970223A607022384E7028280EFF218
:101030000FCF938501BC83C7850205469385950232
:101040009CA11305902079316FF0AFCF03C581BE0D
:101050008280A94763E6A7002384A1BE0145828060
:1010600005458280A94763E1A702EFF24FCB938544
:1010700001BCA384A5020546938595021305902023
:10108000D53E01456FF0EFCB05458280938701BCCB
:1010900083C6870203C797026385E60203C7170367
:1010A0000DE3D8573A95C8D783C7A7021307803EE8
:1010B000B387E7026367F500EFF26FC685376FF01D
:1010C0004FC8828001C9F147630AF500A147014575
:1010D00063F5B700238CB1BE054582802388B1BE7D
:1010E00001458280EFF20FC2138501BAEF60F07EF6
:1010F00013059020938401BC8D3EA384A4021305A4
:10110000A020EFF09FB683C794022385A402238C0E
:1011100004022384F402138901BC8144138401BCBA
:10112000054AA949139524001305151E420541815E
:10113000EFF0CFF82320A90093F5F40F1375F50F06
:1011400051376306450185041109E39D34FD232AC7
:101150000402A30C0402232E0402230004046FF0F3
:10116000AFBD138701BC5C5FA9C383470704930627
:101170008002850793F7F70F2300F70463F5F60065
:1011800023000704828055476371F702EFF22FB9FD
:1011900001449D442285050481451374F40FEF102A
:1011A0000009E31994FE6FF0CFB98280138701BC68
:1011B000585B938701BC6309A70483C60703A9C6CC
:1011C0001347F7FF698FC8DBA38C0702014601456F
:1011D000854813080002B395C800F98D9376F60F81
:1011E00081C919C1A38CD7020547A388E702828071
:1011F0008506050693F6F60F0545E31E06FDA38C4E
:10120000D7027DF3A38807028280138701BC83463F
:1012100017030547938701BC6396E60003C70703DE
:101220002384E70203C787020A07BA9788438280AC
:10123000EFF2EFAE41112A8432C42EC6EFF00FE771
:10124000B2458AA11305240042054181EFF00FE663
:1012500022460AA241016FF0CFAEEFF24FAC41112E
:101260002E841306E1006C00E1373887014505C381
:101270003C86014589CF63E9E700636AE400B3B7C0
:10128000870013C5170021A00545E36AE4FE41016C
:101290006FF02FABEFF2AFA82A848DE101468945AC
:1012A000EF00107401468D452285EF0070730146F2
:1012B00085452285EF00D0726FF0AFA8B144B3042A
:1012C0009402AE873E858545EFF09FBA131905015C
:1012D00013590901CA851385B40141372A86894506
:1012E0002285EF00F06FCA851385F401BD372A8689
:1012F00085452285EF00D06ECA8513853402B13F43
:101300002A868D457DB7EFF20F9F4111AA8AAE84E0
:101310003D456C00B2891306E10036893A8C3E8B5C
:10132000428DC68C0354410421372886835BE1003B
:1013300033057541EFA07009B7D7000083A5C71822
:10134000EFA0A01B2A8A636E340333857941EFA096
:10135000D007D285EF90305EEFA0D0012300AD0022
:1013600033053441637489003305394142054181B5
:10137000EFA01012D285EF90105CEFA0A07F238029
:10138000AC00636D540333857A41EFA01004D2851D
:10139000EF90705AEFA0007E2300AC0063E384025C
:1013A00033045441131504014181EFA0700ED2851E
:1013B000EF907058EFA0007C2300AB0041016FF06C
:1013C0000F9733845441F9BF03480100388263F614
:1013D000A5026374A70063E6E6006379B700637F44
:1013E000E602238008012380070182806364D7001E
:1013F000E37BE6FE2380080182806377E600E362F8
:10140000B7FEE379D7FE19A06375D700E36BE5FC5F
:10141000D5B7E371B7FEE368E5FCE9BFE36CD7FC41
:10142000D9B7EFF2CF8F79712A892E84B2846C10EC
:101430001306E1023D4536CE3ACC3ECA42C846C606
:10144000C53BF246B2484248D247624763F486023F
:1014500063EB260163E9280163E916012300070114
:101460002380070129A0E3FD16FF23000701456142
:101470006FF02F8D6367940063E59800E36214FFBB
:10148000F1BFE37414FFE9BFEFF26F89EF60200F43
:10149000B707002023ACA764B707002003A5476562
:1014A00001478D4611468145EF60404E6FF06F89D0
:1014B000EFF26F8439717D5774181306F00F814570
:1014C0000145EF60803EF257918BF5D7EFF09FC159
:1014D000938701BB23A0070023A2070023940700E2
:1014E00023A60700B707002003A5876501478946A3
:1014F00001468145EF608049B7D7000083ABC7182C
:101500008149138401BB370B0020138901BC138A66
:101510004184938A81842945EF50B044856537150D
:10152000014093850580130505C0EF3090110547F4
:101530006310E50C5C4091C708C02322040023140B
:101540000400930CCB6403A50C004444130CCB643F
:1015500063160524854789E483471903B337F000F0
:101560002945232EF902EFF07FB21C400547639511
:10157000E700E9E4EFF09FA2B707002003AC87641F
:101580006285EFF0BFC25131AA84F1471375F50FA0
:10159000631CF51E63060C0C8326490383479903DD
:1015A00001468545130500023397F500758F45C345
:1015B00019C2A30CF90283479903294635678507A9
:1015C00093F7F70FB3F6C7021307C71E930500057D
:1015D00013059007B3D7C702BA9603C806001306CF
:1015E00000058146BA979C230147EFF09F81DDA259
:1015F0001E2454408507C207C1831EA485E291467C
:10160000E3F1F6F458C013077025637CF7008D47AB
:101610005CC485471CC089475CC025B7E393E6F2EC
:10162000DDB71307F0186375F70089475CC411BF75
:101630001307700CE377F7F08547CDBF0D4763952F
:10164000E4002320FC000DBFEFF07F9E35B7850737
:1016500093F7F70F6373F50081470546B1F691BF25
:10166000EFF0DF93EFF0FFAF184085476316F70008
:101670002320040023260400850993F9F90FCD47A0
:10168000E3FB37E98144B9491385340C42054181B4
:10169000EFF0AFDDAA8513F5F40F8504EFF09FBFDF
:1016A000E39434FF1305100DEFF02FDC2306010245
:1016B000A306010223070102A307010249C58545CC
:1016C000EFF00FFB131C05011306A1032C182A8D44
:1016D0003D45EFF0FFB55018930561034D45EFF020
:1016E0003FB51018930521035D45EFF07FB4835794
:1016F000A10303558103135C0C011D8DEFA0E04C89
:10170000DE85EF90905FAA8C1545EFF00FD603565B
:1017100041038354010383592103835661036315F5
:10172000052A63E4990063F0C60262C266C09308AA
:10173000D1021308C1029307F1021307E102CE851B
:101740002685EFF05FBC8346D1020346C102834584
:10175000F1020345E102EF00B02313050021EFF091
:10176000EF949377F50F014591CB1385F7FF137530
:10177000F50F130595060605EFF04F93EF0010499E
:101780008149EF00305241BB8145EFF06FEEAA85F1
:10179000054613D50401EF007035E9B5054D63101A
:1017A000A50D93B71400232EF9021C40370C00201E
:1017B000130C0C656398A70083470C0085E0850730
:1017C0002300FC0003450C00A14763FEA7048547E6
:1017D0002300FC000145EF00502F69B519476387CE
:1017E000E702636DF700F9DFFD1735678A07130716
:1017F0004713BA979C4323A0FC00E9B72147E39322
:10180000E7FCEFF0BF8123A00C006DBF89451305F5
:10181000D01DEFF06F8889451305F01DEFF0CF87DD
:1018200023000C0045B79D47631CF50081457545B5
:10183000EFF00FE4AA8501461565EF00302B59BF84
:10184000B307F5023565130585143E950348650019
:101850005C315821343130210C31082179B3938720
:10186000F4FF93B71700232EF902994763FCA702F0
:1018700065151375F50F131715009387C184BA9773
:101880008623EF00605AEFA0C028A945B305B50232
:1018900005462685EF0090251C40E38507DC23A044
:1018A000AC01C9B3B70C002003C71C651C40938C66
:1018B0001C65631CA705E38707DA2320EC0023805F
:1018C0000C008D476394F40483260C008547238025
:1018D000FC00F51693B7260093C71700139717005F
:1018E00093874185BA9786238547014563F3D700DF
:1018F00009451305D51D42054181EFE03FFBAA854F
:1019000001462685EF00901E11A0C5FF83C70C007D
:10191000E39A07D483240C0093F71400B9CFF5148D
:101920003335900093141500B3879A0083DC0700C9
:1019300081455905EFF0CFD3AA8505466685EF00AE
:10194000F01A1C40E38007D25C4405476398E70027
:1019500083270C0085072320FC0029B3E39407D0DC
:101960009384D41D2685EFE07FF493051500C2050E
:10197000C1812685EFE0DFF0F5B1F114B3349000BA
:1019800093971400D29783DC070081451385640187
:10199000EFF00FCEAA8505466685EF0030151C4096
:1019A000E38207CC5C4405476396E70083270C007D
:1019B000FD1755B7E39807CA9384D41D2685EFE039
:1019C000FFEE9305F5FF65B713150D01418136CE86
:1019D00032CCEFA0801FE685EF90E075EFA0801974
:1019E0001378F50F6246F24663E4990063F1C6028C
:1019F00042C062C29308D1021308C1029307F102E8
:101A00001307E102CE852685EFF01F9C2DBBE288EF
:101A10009307D1021307F102CE852685EFF07FA050
:101A20001DB3EFE2DFAF37150000154685451305FE
:101A300005D637140140EF3030278564938504C202
:101A4000130504C0EF30003A37061800914613061C
:101A50000610A145130504C0EF30C03A9146014677
:101A60009385048013050480EF30C0399305F0049A
:101A700013050480EF300035E14601469305000A66
:101A800013050480EF300038A965E14601468D0555
:101A9000130504C0EF300037C14513050480EF3053
:101AA000603093850401130504C0EF30A02FE14698
:101AB00037461D0093050020130504C0EF30803425
:101AC0009306800437461D0093050010130504C0DB
:101AD000EF304033F14601469305000C130504C076
:101AE000EF304032B7450F00B1461306803E938574
:101AF00005240945EF30305B0945EF30B049814599
:101B00000145EF00F01181450545EF007011930488
:101B100004C0930500022685EF30A0327DD9EF2066
:101B2000401A85450145EF30502B85450545EF307E
:101B3000D02AB7260000B7450F008D47054793868A
:101B4000264C13064006938505240D45EF30F04CD6
:101B50000D45EF303044EF40000105468545014515
:101B6000EF30C071C145130504C0EF30202E37653A
:101B7000004013050540EFE05FA96FE09F9CEFE296
:101B80001F9A81450145EF00B00981450545EF00E9
:101B900030090D45EF3070410545EF30B03F01454C
:101BA000EF30503F6FE0FF9937F700E0832707D110
:101BB000B7060080D58F2328F7D08280EFE23F96CA
:101BC00037250140814513050540EF10900A370580
:101BD000002003258566B7070020138407670147A7
:101BE000938707678D460546894523200400EF50FB
:101BF00070741C4091C7B7E700E0116723A0E7208D
:101C00006FE03F94EFE2BF9181450145EF107034E2
:101C1000BD450145EF1030350145EF20A035854524
:101C20000145EF1010336FE0DF91EFE25F8F8145E8
:101C30000145EF101032BD450145EF10D03205458A
:101C4000EF20403385450145EF10B0306FE07F8FC6
:101C5000EFE2FF8C89476308F5008D476300F502CA
:101C600001456FE01F8E93050040371501401305B5
:101C700005C0EF30001D1375F50FE5B793050002A1
:101C8000EDB7EFE2DF8991E937150140C145130552
:101C900005C0EF30A01B6FE0DF8A37150140C1455A
:101CA000130505C0EF30C01AFDB737050020130536
:101CB00085668280EFE2BF86EF50700CB707002088
:101CC00023A6A766B707002003A5876601478D46B0
:101CD00011468145EF50904B6FE0BF86EFE23F84A5
:101CE00003A7818793878187DC23011130089545FD
:101CF00001453ACC230EF100EF20E066EF20601B97
:101D0000B72700009387C7BBB72601403EC02A878C
:101D10008D48054881479386C6440546814501455F
:101D2000EF20705105616FE0DF81EFE24FFC411160
:101D3000EF2020182A841309E501AA8403950400E2
:101D40008904EF20805A239FA4FEE39924FFB7D78C
:101D50000000B7D9000037DA000083AB8719B7D786
:101D60000000832A0A1903AB491903ACC7199384ED
:101D700041C001493E244A288D4DA6853E951E202E
:101D8000137DF90F3E953355B503938C01C1420580
:101D90004181EF60E02E6307BD0791476309FD04B1
:101DA000EF90106F83250A19131D2900669DEF908F
:101DB000C07483A54919EF904074DE852AC6EF9060
:101DC000C073B247AA8D03A50C01BE85EF90F01B2E
:101DD000AA856E85EF9020362320AD000509954732
:101DE00009048904E318F9F841016FE00FF4EF905A
:101DF000306AD685EF906070DA85EF90007023A886
:101E0000AC00E9BFEF90D068E285EF90006F83A54A
:101E10004919EF90806EB7D7000083A5071AEF80AD
:101E2000F07A23A6AC005DBF0A05938701C1AA978B
:101E300088438280EFE2AFEB83A7C181397181498A
:101E4000D84381479306471491C60327C71419C383
:101E50009307C700370A00202322FA66B7D700008D
:101E600003AB471AB7D7000083AB871AB7D7000078
:101E700003ACC71A81440544130A4A66B72C000014
:101E8000628D054909479147630E240363070418CF
:101E90006301E41AE31AF4FEEFF07FCEEF1020396D
:101EA000EFE07FF32945EF50C02B37150140C145C6
:101EB000130505C0EF20D0790544EFF0FFCED1B770
:101EC0001144C1B77D5734081306F00F8145014511
:101ED000EF50B01DE247918BCDD7EFF03FE0A9471F
:101EE0004C103EDA3ED80D4593870CC53EDE22D419
:101EF000EF10707E1305B020EFE03FD77D1513354E
:101F000015002AD44C100945EF10F07CB7270000CB
:101F1000938727C86C0801453ED022D4EF10107A71
:101F2000138441C5138541C5EF60201B13050401CF
:101F3000EF60A01A138441C2DA85138541C2EF60B5
:101F4000201713058400DA85EF608016138441C3DF
:101F5000DE85138541C3EF60C01713050401DE85DC
:101F6000EF60201781450145EF10707B85450545E1
:101F7000EF10F07A3D64130604A6A1469305007D98
:101F80000145EF30B020130604A689469305007D75
:101F90000545EF30B01F0145EF204005B727000091
:101FA000938747C0B73601402A878D4805489386F6
:101FB00006C4054681453EC001458147EF20B02754
:101FC0000545EF20A002B72700009387A7C2B706F8
:101FD00000402A878D4805489386860305463EC003
:101FE000814581470145EF201025BD450145EF1092
:101FF0008077BD450145EF10007785450145EF101D
:10200000407585450145EF10C0740145EF3080787B
:102010000545EF3020780144ADB5B707002003A592
:10202000C7660147894601468145EF50301609448D
:1020300089BDEF101068AA853D460145EF20D02AE2
:10204000EFE02FFF0545EF50C0110147340813069C
:10205000F00F81450945EF5050050589E30305E27E
:10206000EFF0BFCCEF204008638A2409ADC8E39AA3
:1020700084E0370900201309C965C94AD94D85454F
:102080005685EFE0FFDE83570900420541816385F5
:10209000A7002310A9008549850A0909E391BAFF21
:1020A00003A5C1C1EA85EF902034E35BA0E00D45B4
:1020B000EF10B065E30605E04C100145EF10B07B72
:1020C00089476313F50085494C100545EF10B07A38
:1020D0008947630AF5046398090481495DB30D4596
:1020E000EF10B062E30F05D803A5C1C1E285EF9000
:1020F000A02F1345F5FF9354F50161B30945EFE0B7
:10210000DFB6AA850145292E0D45EFE01FB6AA8549
:102110000545392637150140C145130505C0EF2097
:10212000F0528944B9BB83270A00C5DB9823759B0D
:1021300098A365B7EFE2AFBE0145EF20900C0145D3
:10214000EF30005205440145EF30A052E30D85FE0B
:1021500037150140C14513050580EF20304F6FE072
:102160004FBEEFE2CFBB0145EF20B0090545EF3090
:10217000204F0545EF30E04F8547E30CF5FE37155E
:1021800001408565130505C0EF20504C6FE06FBB23
:10219000854706063396C700060589473395A7008D
:1021A000014781476312B702139507014181C1833B
:1021B000814501476390D502598D4183938641C77C
:1021C000D98FEAA29EA682800507C98F1377F70FE1
:1021D0000A05C9BF8505518F93F5F50F0A06D9BFCA
:1021E00035671307871F2A971423B56793878720BE
:1021F00013971600938641C7BA9613878185BA95BF
:10220000AA979C2303C7F5FF039806003317F7002E
:10221000931707010547C1876316E600B367F80007
:102220009EA2828093C7F7FFB377F800D5BF994786
:1022300063ECA708B5679387071B0A053E9518410D
:10224000B70700209387476702879A2393D65500E4
:10225000AE05719B558F9AA3BA231377F77F4D8FE5
:10226000BAA38280BA238E05137737C0CDBFBA23B5
:1022700093D64500B205619B558FBAA3DA23520766
:1022800051834D8FDAA38280DA23FD76FD06758FA8
:102290009605C5BFDA2393D62500FD8A019B558F8D
:1022A000DAA3FA23BA054A0749834D8FFAA382803D
:1022B000FA23F1769386F607758F9E05FDB7FA230C
:1022C000137707F8D98DEEA3828037070020930794
:1022D0004767BE231307476709C593E707403EA337
:1022E000828093F7F7BFC207C183D5BFEFE2AFA0EB
:1022F00041112A89AE84014B63D50500B304B04077
:10230000054BB7470F009387F72337871E00A69723
:102310001307E7476365F704E1679387F7693717A2
:102320000300A6971307E7D3636FF70A89679387BC
:10233000F7701567A6971307E7E16369F70A9387B4
:10234000743E1307E07C6366F70A9387340613072D
:10235000600C89498D4A6366F700894A19A0814952
:102360009D4AB56B014A938BCB1E294CB3E784037E
:10237000528513041A0032C61374F40FDE978C23AF
:10238000EFF0FFEA3246B3C4840363978A063285CE
:10239000EFF0BFF3630B0B002285930500041304D9
:1023A0002A00EFF0DFE81374F40F994463F8840413
:1023B00089476397F902B707002093874767EA23A5
:1023C0007177798D135789001377F707598D116746
:1023D0001E09130707F83379E90033652501EAA3DD
:1023E00041016FE0CF948549994AA5BF8949954A33
:1023F0008DBF8949914AB5B7228A8DBF2285814513
:102400000504EFF0DFE21374F40F4DB73707002037
:10241000130747671E230A058D8BC98F1EA3828071
:10242000EFE2EF8F2E87A14511E19145B5670607D1
:102430009387C71CBA9792230945EF30E06781451F
:102440000945EF30C06F6FE0CF8FEFE24F8DB727B8
:10245000000041119387271637070020B746004038
:102460003EC0894805488147130747679386C68061
:10247000054685451545EF20005CB727000093878A
:102480004713B73601403EC0894805488147138746
:1024900001C8B106054685450D45EF20C0594101EB
:1024A0006FE02F8AEFE2AF8737150140856513058E
:1024B00005C0EF20F01991450145EF2020566FE04F
:1024C0004F88EFE2CF852946938541C7138501C820
:1024D000EF903011B707002003D7C7679306700C41
:1024E0009387C76705074207418363E9E6089AA314
:1024F0008A239307700C63F6A708938701C8962771
:102500006D771307A7AA758F94433776F6DB13060A
:1025100066DBF18E94C3D4433776AAAA130666DB32
:10252000F18ED4C39AA7938701C883D88700956694
:10253000904313885655337818013717C927B76861
:10254000EDB79388D8B613079724718F33761601A9
:1025500090C3D043B76855559388D8B633761601E3
:10256000CE2323940701D0C313065009637FA6002E
:1025700093869624ED8E98C3D6A301A823900700D6
:1025800085BF9307F004E3E0A7FA37150140C14582
:1025900013050580EF20D00B95450145EF2000483D
:1025A0006FD03FFAEFD2BFF7EF007033EF50F03A41
:1025B000EFF02FC7EF007059EF003049EF40D00324
:1025C00001A0828099677390078001A0EFD23FF548
:1025D0009C2141116147DC876360F70285479CC2FB
:1025E000482905469305F1001305250CEFE08FE817
:1025F000014541016FD0FFF44145E5BFEFD23FF205
:1026000085479CC2C829411132C61305250CEFE04D
:10261000CFE5324608A2014541016FD09FF2EFD2CB
:102620001FF085479CC248292E8481456105EFE053
:102630003F8408A001456FD0DFF0EFD25FEE054682
:102640009C2190C258294111DC87630DC70089463F
:102650006304D70205469305F1001305A020EFE0BF
:102660006FE129A03E85EFE0DF9E19E1014511A051
:10267000414541016FD0FFEC3E85EFE0BF9EF5B7CD
:10268000EFD25FE89C2123A0060040294111DC879E
:102690000549B684630C240331C40D476364870481
:1026A000AA893D456361F50285451305E4FFEFF016
:1026B0003FD703C5490105469305F100EFE08FDBE5
:1026C00023A02401014541016FD01FE71D473D456F
:1026D000E36BF7FE05469305F1000545EFE08FD962
:1026E00080C0CDB705443D45E36FF4FC0546930536
:1026F000F1001305B020DDB71C2141115C871C31AE
:10270000DC87288741018280EFD27FE101112A8492
:102710002E8536C6EFF05FFEB2468947E8879CC239
:102720005C280547639BE700AA8513050021EFE0BD
:102730002F95014505616FD0DFE0138577060946C7
:102740009305E1010605EFE0EFD2E5B7EFD23FDDFB
:1027500001112A842E8536C6EFF01FFAB24689474A
:10276000E8879CC248289305E1010946060545050E
:10277000EFE04FD0014505616FD0BFDCEFD23FDA0B
:1027800001112A842E8536C6EFF01FF7B24689471D
:102790001375F50F9CC2E88748289305E1010946A7
:1027A00006051305B51DEFE0EFCC014505616FD0BF
:1027B0005FD9EFD2DFD64111AA8511466800EF90AC
:1027C0004062324541016FD0DFD7EFD25FD50111B2
:1027D0002A842E8536C6EFF0DFFDB24691472ACE19
:1027E0009CC248286C081146130585070A05EFE0CE
:1027F0006FC8014505616FD0DFD4EFD25FD2AA84E4
:10280000DC283D472E853684636DF70085478C2193
:102810009CC2C82813051521EFE06F8701456FD0D2
:102820005FD24547636FF700EFF01FED89471CC08B
:10283000DC28AA859387F71013951700EFE04F84E3
:10284000F1BFEFF01FF791471CC0EFE0CFE1F9B700
:10285000EFD2FFCC91479CC25C290D474111639F89
:10286000E7002E85EFF0FFF4488605466C003945F9
:10287000EFE04FC0014541016FD0BFCC1145E39C53
:10288000A7FE2E85EFF0FFF22AC611466C00130555
:10289000C020F9BFEFD2BFC801112A8432852EC6ED
:1028A00036C4EFF07FE5A246B24589479CC2E8876F
:1028B000882109469305E1017D150605229542050B
:1028C0004181EFE02FBB014505616FD09FC7EFD27B
:1028D0001FC52E86930545016D45EFF0BFFB6FD0F8
:1028E0005FC6EFD2DFC32E86930545011305700244
:1028F000EFF05FFA6FD0FFC4EFD27FC22E86930550
:10290000450113053003EFF0FFF86FD09FC3EFD2FE
:102910001FC12E86930545011305F003EFF09FF7C5
:102920006FD03FC2EFD2BFBF2E869305450113057E
:10293000B004EFF03FF66FD0DFC0EFD25FBE2E865F
:102940009305450113057005EFF0DFF46FD07FBFED
:10295000EFD2FFBC2E869305450113053006EFF03C
:102960007FF36FD01FBEEFD29FBB2E86930545012C
:102970001305F006EFF01FF26FD0BFBCEFD23FBAE5
:102980002E86930545011305B007EFF0BFF06FD019
:102990005FBBEFD2DFB82E869305450113057008A3
:1029A000EFF05FEF6FD0FFB9EFD27FB72E869305C0
:1029B000450113053009EFF0FFED6FD09FB8EFD25E
:1029C0001FB62E86930545011305F009EFF09FEC25
:1029D0006FD03FB7EFD2BFB42E86930545011305E4
:1029E000B00AEFF03FEB6FD0DFB5EFD25FB38547B2
:1029F0009CC2482991472E84631AF5001305B02024
:102A0000EFE0AFA608A001456FD0BFB33305A040EB
:102A100042054181F5B7EFD29FB01C210547411116
:102A20002E846391E7020D453306A6029CC213056E
:102A3000460E42054181EFE04FA308A00145410148
:102A40006FD03FB009476391E7020D453306A602F8
:102A50009CC21305560E42054181EFD03FE59357C6
:102A6000850008A01CB0D9BF91479CC20821B707B8
:102A70000040F5173E95D1473306F60232950A0518
:102A80001305D50E42054181EFD05FE32AC61146FA
:102A90006C002285EF90E03455B7EFD25FA8014675
:102AA0005105EFF05FF76FD0DFA9EFD25FA70546C2
:102AB0005105EFF05FF66FD0DFA8EFD25FA60946B1
:102AC0005105EFF05FF56FD0DFA7EFD25FA50547A7
:102AD00098C25C292E84638CE70009471305902077
:102AE0006384E7001305A020EFE02F9819A0EFE022
:102AF000EFD508A001456FD0DFA4EFD2BFA00349F6
:102B0000050085474111AE843284368A631CF90280
:102B10008C213285EF108028BD470DE10D4533052E
:102B2000A4029C20054623202A015C841305450E3F
:102B300042052C004181EFE0EF9381473E85410142
:102B40006FD09F9F8947631FF9002E85EFF0DFBA92
:102B500068840D453305A40223202A010946130584
:102B6000550EF9B7AA892E85EFF0BFC491472320EF
:102B7000FA002AC203C50900B7070040F5173E95C1
:102B8000D147B307F40211464C003E950A051305E0
:102B9000D50E42054181EFE0EF8D9244139504017B
:102BA0004181EF90E00E2AC613D50401EF90400E4C
:102BB000B7D7000083A5870BEF80E05703C6090055
:102BC0002AC42C007D16420641822285EF1020285F
:102BD00081472DD5BD479DB7EFD27F940146510562
:102BE000EFF0BFF16FD0FF95EFD27F93054651050F
:102BF000EFF0BFF06FD0FF94EFD27F9209465105FE
:102C0000EFF0BFEF6FD0FF93EFD27F9189470111B3
:102C10001CC22EC6EFD09FC9B2459357850088A12C
:102C20009CB1014505616FD0DF91EFD25F8F368691
:102C30006D45EFF07FFD6FD0DF90EFD25F8E36866F
:102C400013057002EFF05FFC6FD0BF8FEFD23F8DA6
:102C5000368613053003EFF03FFB6FD09F8EEFD227
:102C60001F8C36861305F003EFF01FFA6FD07F8DAF
:102C7000EFD2FF8A36861305B004EFF0FFF86FD06D
:102C80005F8CEFD2DF89368613057005EFF0DFF732
:102C90006FD03F8BEFD2BF88368613053006EFF03A
:102CA000BFF66FD01F8AEFD29F8736861305F006D6
:102CB000EFF09FF56FD0FF88EFD27F863686130541
:102CC000B007EFF07FF46FD0DF87EFD25F853686F5
:102CD00013057008EFF05FF36FD0BF86EFD23F842B
:102CE000368613053009EFF03FF26FD09F85EFD2A3
:102CF0001F8336861305F009EFF01FF16FD07F8434
:102D0000EFD2FF8136861305B00AEFF0FFEF6FD0E8
:102D10005F83EFD2DF8089479CC248292E8441110E
:102D200085454505EFE0CF949357850008A01CB07A
:102D3000014541016FD0FF80EFD26FFE91479CC2E9
:102D4000482941112E84130585070A05EFD01FB7C6
:102D50002AC66C0011462285EF90A008014541016A
:102D60006FD02FFEEFD2AFFB89479CC248290111DB
:102D70002EC606051305B51DEFD05FB3B2459357B8
:102D8000850088A19CB1014505616FD08FFBEFD212
:102D90000FF989479CC2482901112EC60605450531
:102DA000EFD0DFB0B2459357850088A19CB10145B3
:102DB00005616FD00FF9EFD28FF691479CC25C2965
:102DC000094741112E846386E7020D476387E702B6
:102DD00005471305C020639FE700EFE00F812AC677
:102DE0006C0011462285EF80D07F014541016FD0F4
:102DF0004FF51945EFD09FACDDB73945EFD0FFE671
:102E0000F9BFEFD2CFF189479CC2482985474111CC
:102E10002E84631EF50013050021EFD03FA99357C0
:102E2000850008A01CB0014541016FD08FF113054A
:102E300075060605DDB783A7C181DC431387C7127A
:102E400071EB35671307872723A0E714138747140F
:102E500071EB35671307872823ACE7141387C71571
:102E600071EB35671307873823A8E71613874717D1
:102E700071EB35671307873023A4E7181387C7184A
:102E800071EB35671307873223A0E71A1387471AB8
:102E900071EB35671307873423ACE71A1387C71B19
:102EA00071EB35671307873623A8E71C1387471D87
:102EB00071EB35671307872B23A4E71E1387C71E03
:102EC00071EB35671307872D23A0E7201387472071
:102ED00071EB35671307872523A2E7221387872223
:102EE00071EB35671307872A23AEE7221387072480
:102EF00071EB35671307872123AAE72413878725FA
:102F000071EB35671307872323A6E7261387072767
:102F100071EB828035671307873B23AAE71213877B
:102F2000871305F335671307872423A6E714138750
:102F3000071505F335671307873A23A2E7161387AA
:102F4000871605F335671307872F23AEE716138718
:102F5000071805F335671307873123AAE718138786
:102F6000871905F335671307873323A6E71A1387F5
:102F7000071B05F335671307873523A2E71C138763
:102F8000871C05F335671307873723AEE71C1387C4
:102F9000071E05F335671307872C23AAE71E13873F
:102FA000871F05F335671307872E23A6E7201387AE
:102FB000C72105F335671307872923A8E72213875D
:102FC000472305F335671307872623A4E7241387D0
:102FD000C72405F335671307872223A0E726138745
:102FE000472605F335671307873923ACE72615B75E
:102FF000B71702409843B706FFF84111136717004F
:1030000098C3D84337060200758FD8C39843B706D4
:10301000F7FEFD16758F98C39843B706FCFFFD16A3
:10302000758F98C3D843B70681FFFD16758FD8C337
:1030300037079F0098C702C402C69843C166558FE0
:1030400098C3B716024005679C42F18F3EC6A2475F
:1030500085073EC4B24781E7A247E397E7FEB7176B
:1030600002409C431397E7006359070685473EC615
:10307000324785476311F706B7170240D843B706B2
:10308000C1FFFD1613670708D8C3D843D8C3D84378
:1030900013670740D8C3D843758FD8C3D843B70642
:1030A0003D00558FD8C39843B7060001558F98C38C
:1030B000984393166700E3DD06FED843B716024037
:1030C000719BD8C3D84313672700D8C32147DC427C
:1030D000B18BE39EE7FE4101828002C651BFB71665
:1030E0000240DC42370700201146B18B1307875A94
:1030F0006385C70021466388C702B7177A009387A4
:1031000007201CC3B7170240DC43918393F6F700F6
:10311000B707002093870700B69794231C43B3D7C3
:10312000D7001CC38280DC42D4424166C983BD8B78
:10313000F18E890745466393C700C94781EEB746BC
:10314000024083A60680C18A89CEB7167A0093868C
:10315000062021A8B7160240D4421396E600E35693
:1031600006FEB7163D0093860690B387D70251BF7F
:10317000EFD24FB9C16441113709002009440D4A0B
:103180008D4AFD148327096893090968638E8704B3
:1031900063804703E5FFEFD02FF4EFF00FABEFE0D4
:1031A0007FB1EFE06FAEEFF01FC923A05901D9BF87
:1031B0007D577400014681450145EF40006FB247DD
:1031C000E39287FC268681450145EF40B034EFD07D
:1031D0008FC20841EF303038EFD08FC20841EF3056
:1031E000903723A0890079BF1305401FEF30707717
:1031F000EF20901641BFB73700209387C78A1CC1C4
:10320000B72700209387C74A9CC1930700081CC2B8
:103210008280B73700209387C7941CC1B72700204E
:103220009387C76A9CC1930700081CC28280EFD2B3
:103230000FAFEFD0EFBC0841EF406001EFD0AFBB64
:103240000841EF40C0006FD0CFAFEFD24FADEFD00D
:10325000FFC02A8437280020B7270020B7D50000F8
:10326000371500001308C81B9387C7DB194785462D
:10327000130600109385853C1305054BEF30502352
:1032800008C0EFD0EFB72A84B7D50000370500009B
:103290001388C1089387C1C81147854613060010DB
:1032A0009385453D1305657AEF30902008C0EFD037
:1032B0008FB42A8437280020B7170020B7D5000024
:1032C000370500001308C8B09387C7E8154785463F
:1032D000130600329385453E13054561EF30501DBE
:1032E00008C0EFE09F9C2A8437280020B7270020E1
:1032F000B7D5000037250000130848D6938747B696
:1033000021478546130600089385853F130545E34D
:10331000EF30101A08C037280020B7270020B7D593
:10332000000037350000130848419387472125479F
:103330008546130600089385454013050517EF30B1
:103340003017EFF0DFEE6FD0CF9FEFD24F9DEFD071
:10335000AFCDB7360020372600202A840147938658
:1033600046901306C64691454145EF20D06A08C0F5
:103370006FD02F9D01A001A001A001A001A001A07C
:1033800001A001A001A001A001A001A001A001A035
:1033900001A001A001A001A001A001A001A001A025
:1033A00001A001A001A001A001A001A001A001A015
:1033B00001A001A001A001A001A001A001A001A005
:1033C00001A001A001A001A001A001A001A001A0F5
:1033D00001A001A001A001A001A001A001A001A0E5
:1033E00097E1FF1F9381819C17210020130181C168
:1033F00017B50000130505FE97D5FF1F938585C0FF
:103400001386018863FAC5008322050023A05500B6
:1034100011059105E3EAC5FE17D5FF1F1305052128
:10342000970500209385C5026377B500232005002A
:103430001105E36DB5FEFD42739002BC89427390A5
:103440004280B72200009382028073A0023097D29C
:10345000FFFF9382A2BE93E2320073905230EFF0EE
:103460003FB997F2FFFF93822214739012347300D6
:1034700020301C4589C593E717001CC58280F99B45
:10348000EDBF08450D8105898280084509810589C0
:103490008280A54763F7B7048D47138765FF33071D
:1034A000F7020328C5009D47B397E70093C7F7FFCE
:1034B000B3F70701B396E600DD8E54C5994763E381
:1034C000C70495477D163306F6025859FD47B39752
:1034D000C70093C7F7FFF98F3396C5005D8E50D9AB
:1034E00082800D473387E502032805019D47B39786
:1034F000E70093C7F7FFB3F70701B396E600DD8E49
:1035000014C96DBFB14763E2C7029547651633061C
:10351000F6021859FD47B397C70093C7F7FFF98F15
:103520003396C5005D8E10D9828095474D163306BF
:10353000F6025855FD47B397C70093C7F7FFF98FB9
:10354000B395C500DD8D4CD58280A18193C5F5FF73
:103550000CC18280EFC2BFFC01112A842303010049
:10356000A5441C8363FAF40623030100A546214603
:103570001C8363F0F60A23140100231501002303C2
:1035800001009546130600601C8363FEF60E1C8343
:1035900093F7F70F63840712388414833C840C83F9
:1035A00010833347D702B3E7B7028607B3C7C70212
:1035B000BA97C207C1837C84188399479546998F2F
:1035C00093F7F70FDC839C8393F7F70F639C071047
:1035D0008567938707800DAA1C4493E787001CC466
:1035E0002285EFF01FEA6DFD1C4493E747001CC4E1
:1035F0002285EFF09FE96DFD78441C831410860747
:10360000B6972396E7FE1C83850793F7F70F5C8335
:1036100089BFA30301009C836378F6001C838507A0
:1036200093F7F70F5C83A9B798839C830C10060768
:10363000850786072E97AE970357C7FE83D7C7FE29
:1036400063FDE7029C838607AE9783D7C7FE7C8421
:103650009C83988385078607AE9783D5C7FE93170B
:1036600017001810BA972396B7FE9C8338840C1065
:1036700085078607AE972396E7FE9C83850793F719
:10368000F70FDC8349BF1C83181089078607BA9798
:1036900083D7C7FEE36DF6EE1C830C1038848907D0
:1036A0008607AE9783D7C7FEBA97C207C1837C84CB
:1036B0001C83850793F7F70F5C83F9B593070040E8
:1036C000DDBD1C831010388589078607B29783D724
:1036D000C7FEBA97C207C1837C851C83850793F711
:1036E000F70F5C831C83E3FEF6FC388594833C85EE
:1036F0008C8390833347D702B3E7B7028607B3C7FB
:10370000C702BA97C207C1837C85288434852C847C
:103710003085056793070040130707803385A7406E
:10372000B306D7408D8F118F4205C206C2074207EC
:10373000C18641874185C1873695BA978946334509
:10374000D5020561B3E7D7023E95420541856FC0BA
:103750005FDF1C4189C593E717001CC18280416768
:103760007917F98FDDBF4CC18280B70702409C43B7
:103770007D8D3335A0008280EFC27FDAEFF0FFFE4F
:103780006FC03FDCB7070240C8C38280B707014063
:10379000635A0504DC4F93560501131805013707DA
:1037A000300013F6F60013580801B376E500635EA7
:1037B00005066399E604930606010D46B316D60086
:1037C00093C6F6FFF58F99C9135755011377F73F45
:1037D00012073317E800D98F6355050637070140F4
:1037E0005CCF828037270240145BDC433707000F31
:1037F000758F55F313D71700F976CE07758FCD83E4
:10380000D98F51BF1317B500635607008D46B39685
:10381000C6007DB7135755011377F73F12073317CB
:10382000E8001347F7FFF98F79BF6390E602370688
:1038300001405442370700F17D17F98F758F58C248
:10384000C1F5370701405CC382801317B500635C84
:1038500007008D46B396C60093C6F6FFFD8EB707E8
:10386000000FD58FF1BF1357550112073317E8002A
:103870001347F7FF7D8FB707000FD98FD1B7B71662
:103880000240DC4251777D17F98F5D8DC8C282807E
:10389000B71702402380070223800702054763060B
:1038A000E50011476306E50082802380A70282803D
:1038B00015472380E7028280371702405C43914618
:1038C000B18B6385D700A1466382D706B7177A000C
:1038D000938707201CC1371602405C42370700203F
:1038E000130707019183BD8BBA9794231C41B3D76B
:1038F000D7005CC15442A1829D8ABA969422B3D665
:10390000D70014C55442AD829D8A36971823B3D789
:10391000E7005CC5584239839376370013874180AE
:1039200036971823B3D7E7021CC982805C435843FB
:10393000C166C983BD8B758F8907C5466393D70060
:10394000C94701EF3747024003270780418B09CF62
:1039500037177A001307072021A83717024058436A
:103960009316E700E3D606FE37173D0013070790CE
:10397000B387E70285B79357550005476399E7007A
:10398000B71702409C4333D5A700058982800947B9
:103990006396E700B71702409C53F5B7B71702408C
:1039A000DC53D5B7B737004003D74780136707010B
:1039B0002392E78082803737004083574780C207D1
:1039C000C183BD9BC207C1832312F7808280EFC2EF
:1039D0001FB541112AC6EFF0FFFC3245B737004052
:1039E000135705013D8B42052394E78041812396BF
:1039F000A780EFF05FFC41016FC0BFB437370040D4
:103A00008357478093F70702E5DF8280373700400E
:103A100083574780C207C183DD9BC207C18323123E
:103A2000F7803737004083574780A18BEDDF8280D6
:103A3000373700408357478003570780C207698F95
:103A4000C18309C77D8D3335A00082800145828006
:103A50001E31922103D82500C207C183F99BC207FA
:103A6000C1831EB11E3156211A2DC207C1834207E0
:103A700041831377C7F8518F9225F59BC2063366B1
:103A80000601D18F37360140130606C0C18263108C
:103A9000C502B225DD9B03D8E500D18FD221ED9B75
:103AA00093F6F6CFD18FD22533660601D18E56A17B
:103AB0001AADFA215AB91EB182801E3165771307FB
:103AC000F7CFC207C183BD9BC207C1831EB11E31A0
:103AD000562103D88500C20713960601162DC1830F
:103AE00093F7F7FD758F96214182A206558FB62177
:103AF00042074183B3E606019206D58FB7360140EF
:103B0000C207938606C0C183631ED502B62593F70C
:103B1000F7F703D8C5009206D58FD621C207C18317
:103B2000920693F7F7FBD58FFD769386F63FF18EDD
:103B3000F225C207C183336606010A06D18E1396A9
:103B40000601418252A11AADFA211ABD1EB182802E
:103B50001E3103D88500C207C18393F7F7EFC20770
:103B6000C1831EB11E3156215A2DC207139606017C
:103B70004207962141831377C7F8558FB621C18339
:103B800093F7F7DFB3E60601A206D58FB7360140FB
:103B9000C207938606C04182C183631FD502FD76AA
:103BA0009386F67FF58FB62503D8C500A206D58F7C
:103BB000D621C207C183A20693F7F7BFD58FF5764A
:103BC000FD16F18EF225C207C18333660601120687
:103BD000D18E13960601418252A15AADFA215ABDE7
:103BE0001EB182801A31FD77FD17F98F1EB103587F
:103BF000050256215E2D657792211307F7CF7D8F41
:103C0000F9772206FD17518FB3F70701B22103D8C8
:103C10008500C2064207336606013206D18F373669
:103C20000140C207130606C0C1824183C183631AE3
:103C3000C50071767D16F18ED2251A06D18EC20688
:103C4000C18256A15AADFA212310E5041EB182802B
:103C50001E2DC207C183DD9BDD8D0EAD82801A2D26
:103C6000FD779387F77FF98FA205CD8FC207C183B8
:103C70001EAD82805E2DC207C183DD9BDD8D4EAD02
:103C800082805A2DFD779387F77FF98FA205CD8F1C
:103C9000C207C1835EAD82801E294A25ED8F420591
:103CA000418189C76D8D3335A000828001458280B6
:103CB00093F5F51F4EA182800A216D8D3335A0004A
:103CC0008280B73700209387479D23A0070023A257
:103CD000070023940700B73700209387479C23A051
:103CE000070023A2070023A4070023960700B707B5
:103CF0000020239207688280EFC2DF8093171500AF
:103D0000373500201305459D3E95834905002E89D2
:103D1000638609060031B73400209384049EA2997B
:103D2000139A0901135A0A01B14A93170401C18376
:103D300063E64703130900006312FA041384F7FFD4
:103D4000B1473304F402B73700209387079E3E94AF
:103D50000C404840EF70607A0C4431A8228BCE872B
:103D6000631134033147B387E7024A85BE94CC40E0
:103D7000EF70A0788C44EF7060052A894A856FC087
:103D8000AFFB0504B30754034A85A69783A547FFF5
:103D9000EF70E06DE34BA0F8DA87E9B78547638100
:103DA000F504B737002006059387479DAA97982307
:103DB00015E337070020130747681223130840064E
:103DC0000545B306B600634ED8008CA390B316A386
:103DD00001458280FD1501456305B70009458280D4
:103DE0000D458280EFC20FF24111AA892E893A85D2
:103DF000BE853684B2843EC63AC4EF7010192A8A52
:103E0000A2852685EF707018AA855285EF70A032C2
:103E1000224723A0A900A2853A85EF70006EB24721
:103E2000AA89A6853E85EF70406DAA854E85EF7004
:103E3000D015AA89A6852285EF703015AA854E85F2
:103E4000EF70602F2320A90041016FC0EFEE9317A0
:103E50001500373500201305459D3E951C216378DC
:103E6000F604EFC2CFEB0031B1472E89229613142E
:103E7000060141803304F4020327090083278900E7
:103E80008326C90003264900B73400209384049E8A
:103E900093058400130544002695A695EFF09FF442
:103EA0008327C900269401451CC06FC08FE90945CE
:103EB0008280373500201305459A8280931735009C
:103EC00037050020130585683E95DC412300050079
:103ED0005CC101458280F1473305F502B737002008
:103EE0009387C7ECD8413E959C4958C17D171CC9A2
:103EF000DC453337E0005AA95CC59C4DA30B050097
:103F0000232405001CCD01458280F1473305F502CD
:103F1000B73700209387C7ECAA97C82B8280EFC2DF
:103F20000FE0F1473305F502B73700209387C7EC60
:103F300009473D46AA971305C0023385A502D8C399
:103F400037370020130747E523AA070081453304CC
:103F5000A700090580C3232204023A95EFC02FDF92
:103F6000B7D7000083A747412320040205451CD48E
:103F70006FC02FDDEFC2AFDAF146B306D502B73717
:103F800000201387C7ECAA843D6501461384C7EC63
:103F9000130505A63697144323A0060213872600AF
:103FA000F906035827001E23B305F84063D6050021
:103FB000B307F540B385070109072E96E393E6FEA4
:103FC0003D453355A602B73700209387C7EA93953E
:103FD0004400BE95EF408011F147B387F4020547D6
:103FE000A2979C4388D3D8D36FC0AFD5F147330590
:103FF000F502B73700209387C7ECAA9788430905D5
:104000008280EFC2CFD1F1473305F502B7370020E8
:104010009387C7EC3E95004129CC5841894701451B
:104020006317F7041C50A1C73E85EF707046B7D7E1
:10403000000083A5C740EF70404CB7D70000AA85A9
:1040400003A54741EF70200FB7D7000083A50741B4
:10405000EF70A04AEF70103242054181EF70F036E8
:104060000C54EF708049EF70F030420541816FC011
:104070004FCD0145EDBFEFC2EFC871443305850256
:10408000373400201304C4EC2A94832904001C480C
:104090000D4583A409026387F40426852E89EF70F9
:1040A000303FB7D7000083A5C740EF700045B7D7B2
:1040B0000000AA8503A54741EF70E007EF70902B41
:1040C0009307C0033305F50242054181EF70F02FDD
:1040D00083A58902EF706042EF70D0292310A900F8
:1040E00004C809456FC04FC5EFC2CFC137340020A7
:1040F0001304C4EC81448949130A703E854A11496E
:104100005C40638B37051C4C2685829778386302A8
:10411000A7041C4485071CC41DEB18486379F700ED
:104120005C4068B893C7F7FF858BA98F5EA88504AC
:1041300093F4F40F7104E39524FDB70700209387EF
:104140008768D8438C23014502976FC0EFBE58445F
:10415000F1B723240400E1BF5E288507C207C183AD
:104160006364FA005EA8E1B71C40231A0400D85328
:104170006315570123A207025DBF23A0070245BFB5
:10418000373500201305C5F3828085673307C500E6
:104190009387078063C9E706EFC2CFB6AA8432844B
:1041A000094525C2373A0020AE8A8149414B130A9E
:1041B000CAF393F7F400B307FB40C207C183228917
:1041C00063F387003E8983274A0242091359090194
:1041D00033863A01A685CA861305000A33042441B2
:1041E0008297CA994204CA941545C209C204418003
:1041F000EF20307793D90901EF101016C18055F8E0
:1042000001456FC06FB30945828085673307C500DC
:104210009387078063C2E708EFC2EFADAA8441111C
:10422000328409453DC6B73900202E8AB68A814BB3
:10423000414B9389C9F393F7F400B307FB40C207DE
:10424000C183228963F387003E894209135909011A
:10425000194CB30C7A0103A80902D6872947CA86EC
:104260006686A6851305000A029801C92AC67D1C28
:10427000EF10900E3245E3100CFE33042441CA9B2C
:104280004204CA94C20BC204418093DB0B01C1807B
:104290005DF041016FC0AFA9094582808567330792
:1042A000C5009387078063C3E702EFC24FA7373784
:1042B0000020032887F5B68713074006B2862E86AE
:1042C000AA851305000A02986FC0AFA7094582802E
:1042D000EFC2EFA44111AE8605469305F100EFF061
:1042E000FFFB888741016FC0CFA5B7070020039768
:1042F000076981472A97634F070009CD0566930632
:10430000F6FFB6876358C700AA876305D5009317E1
:104310000701C1833E8582800A059387C185AA97DC
:104320009C43B706500098471367170098C79847F3
:10433000558F98C78280EFC28F9E0A059387C185EB
:10434000AA978843930500221C4593E707101CC5D4
:10435000EFF0AF9F6FC0EF9EEFC26F9C3165EFF043
:104360000FD26FC00F9EEFC2EF99B7170240D84728
:104370004111AE84328979E913670720D8C7D8473D
:104380001377F7DFD8C7984F1367072098CF2AC64F
:10439000EFF09FFC32453707F1E01307F7EF931773
:1043A00025001385C1853E950041B56993898941F2
:1043B0005C40F98F93E707105CC01C4437F7F1FFAE
:1043C0001307D77FF98F37070E000907D98F1CC451
:1043D0005C54370710FF7D17F98F37074000D98FDE
:1043E0005CD48147639FF4061C4437071000D98FC3
:1043F0001CC41C44370700FC7D1793E707101CC43E
:104400001C4493E717001CC45C40F98F5CC01C443B
:1044100093E787001CC42285EFF0AF866DFD1C4436
:1044200093E747001CC42285EFF02F866DFD22859F
:10443000EFF04F92B70700202398A7685C4037073A
:104440000004D98F5CC041016FC00F8F1367074014
:10445000D8C7D8471377F7BFD8C7984F1367074017
:1044600035B7138A1700CA979C239D461376FA0F17
:10447000CE978C232285EFF0CF81D287A5B7B737AF
:10448000002023A4A7F68280B737002023A2A7F636
:104490008280B737002023A6A7F68280B717024094
:1044A000944BB7080002370800FEB3E6160194CB20
:1044B000944B7D18B3F6060194CBD84F33671701A0
:1044C000D8CF9307400651476305F50263E7A70E6F
:1044D000D1471307C012630EF5009307200313079B
:1044E00080076308F500A947130780256303F500DB
:1044F0004147B767004083A607404165F59A23A06E
:10450000D74083A6074093E6160023A0D7409386A2
:104510000740DC42858B99E37D1565FDC842B7678E
:10452000004005894DC903A507407D1793870740C3
:104530001375F5F788C388431365050488C388435A
:104540001375F5FD88C388431365050188C3884347
:104550005D9988C388436D9988C337054B03498F9C
:10456000D8CE9843799B98C34167D443858A99C232
:104570007D1765FFD843058B39EFEFB25FFAD84B53
:10458000130540022E8413673741D8CBB284EF0065
:10459000706E2686A28513055002EF00B06D268648
:1045A000A28513053002EF00F06C2686A285130564
:1045B0006002EF00306C6FB0DFF89307401F1147C7
:1045C000E309F5F29307803E0947E304F5F2930708
:1045D000A00F214721BF8280B767004003A7074093
:1045E000054693870740719B1367170098C341677F
:1045F000D4438D8A6384C6007D177DFBC8430D8933
:104600007D15133515008280B767004003A707406A
:1046100093870740719B98C34167D4438D8A99C2A1
:104620007D1765FFC8430D89133515008280EFB2F1
:104630001FEF4421411100419305550026862800B3
:10464000EF70207AB767004003A787401359E40052
:10465000137929009316570063CE06069387074007
:1046600098479316470063C906069C471145139760
:104670003700635E070409453767004013070740AA
:1046800093174500BA9703A707185604336424010B
:10469000058B23A0E71803A70718BD88598C23A012
:1046A000871803A74718419B23A2E71803A74718B9
:1046B000D98C224723A2971823A4E718324723A6B0
:1046C000E71803A707181367170023A0E71841018D
:1046D0006FB03FE701454DB7054579BFB76800406A
:1046E00013880840032E082005433313A300136EDC
:1046F0001E002320C821832EC821134EF3FF9605E8
:10470000B3FECE01232ED821832EC820C2059606E3
:10471000B37EDE015606C1810E05C2062326D821CE
:104720004295C1824D8E5607558F2320C5242322E2
:10473000E52437270240145B3707000F758F19EB0C
:104740001387083016231107C206C182231ED7EE35
:10475000E31A07FF37670040130707408326472007
:10476000B3E666002322D7208DE783274721337ED7
:10477000FE00232AC721B767004003A7C761336340
:10478000670023AE676003A70760799B23A0E760FB
:10479000828083274721B3E76700232AF720E1BF00
:1047A000B337A000B7660040920793860640B697DD
:1047B00003A7071B118B51EB03A6071B03A7071BBE
:1047C00003A8471B5582098B1378F8002382050143
:1047D00003A8871BA382050103A8871B1358880021
:1047E0002383050103A8871B13580801A383050130
:1047F00003A8871B135888012384050103A8C71B3E
:10480000A384050103A8C71B13588800238505014D
:1048100003A8C71B13580801A385050183A7C71B5D
:10482000E183DCA511EDDC4693E70702DCC6B33774
:10483000E000BE07D18F9CC123970500014582800F
:104840009C4A93E707029CCADDB70545828039710F
:104850003ACE41673ECC06DE16DC1ADA1ED82AD6DE
:104860002ED432D236D042CA46C872C676C47AC274
:104870007EC013071710B767004023A4E740B7377F
:10488000002083A787F68297F250E2525253C25318
:104890003255A255125682567247E2475248C248D4
:1048A000324EA24E124F824F216173002030397177
:1048B0003ECCB737002083A747F62AD63ACE06DE8D
:1048C00016DC1ADA1ED82ED432D236D042CA46C8E6
:1048D00072C676C47AC27EC001458297B76700402F
:1048E000214723A6E740F250E2525253C2533255B9
:1048F000A255125682567247E2475248C248324E7B
:10490000A24E124F824F21617300203039713ECC8C
:10491000B737002083A747F62AD63ACE06DE16DC44
:104920001ADA1ED82ED432D236D042CA46C872C63F
:1049300076C47AC27EC005458297B767004021479A
:1049400023A8E740F250E2525253C2533255A255C7
:10495000125682567247E2475248C248324EA24E21
:10496000124F824F21617300203039713ACE3ECC14
:1049700006DE16DC1ADA1ED82AD62ED432D236D06B
:1049800042CA46C872C676C47AC27EC01147B767AB
:10499000004023A2E740B737002083A7C7F68297DD
:1049A000F250E2525253C2533255A2551256825619
:1049B0007247E2475248C248324EA24E124F824FCF
:1049C000216173002030EFB29FB513142500094513
:1049D000411133158500EFE03FDA85476310F5029A
:1049E000B7370020938707F7A2979C432AC6829780
:1049F0003245B707024033158500C8C341016FB087
:104A00005FB4B70700200A0593870702AA9794436B
:104A1000416779179C42F98F9CC28280B7070020BA
:104A20000A0593870702AA979C43CCC39843136750
:104A3000170098C38280EFB2FFACAA8437150240FA
:104A40005C494111814993E717005CC9854763932D
:104A5000F500C14951C285476303F608056413098F
:104A6000002013040480C25737350020139A240015
:104A7000130505F752951CC1268546C642C43AC2A5
:104A800036C0EFF01FF8B705002093850502D295D8
:104A90008841E177BD070C4182461247ED8FB3E7AD
:104AA0002701B3E737018565C18F93850508CD8F51
:104AB0001CC12322050014C558C51C41B248224818
:104AC00093E727001CC14686C2851385B401EF0019
:104AD000701A41016FB05FA60149014469B713091B
:104AE00000101304004041B7EFB27FA341112A84A4
:104AF00005452EC632C4EFE0FFC8931724003704E3
:104B00000020130404023E941C402246B245014595
:104B1000D0C3CCC7EFF03F821C40014598431367D8
:104B2000270098C398431367170098C3EFF0CFFE90
:104B300041016FB01FA139712AD6014506DE16DC8E
:104B40001ADA1ED82ED432D236D03ACE3ECC42CA51
:104B500046C872C676C47AC27EC0EFF0DFE6F25075
:104B6000E2525253C2533255A255125682567247E0
:104B7000E2475248C248324EA24E124F824F216144
:104B80007300203039712AD6094506DE16DC1ADAA0
:104B90001ED82ED432D236D03ACE3ECC42CA46C8E7
:104BA00072C676C47AC27EC0EFF0FFE1F250E252E4
:104BB0005253C2533255A255125682567247E2479B
:104BC0005248C248324EA24E124F824F21617300AA
:104BD000203039712AD60D4506DE16DC1ADA1ED8C9
:104BE0002ED432D236D03ACE3ECC42CA46C872C655
:104BF00076C47AC27EC0EFF01FDDF250E25252530B
:104C0000C2533255A255125682567247E247524855
:104C1000C248324EA24E124F824F216173002030A3
:104C200039712AD6114506DE16DC1ADA1ED82ED4C2
:104C300032D236D03ACE3ECC42CA46C872C676C4CC
:104C40007AC27EC0EFF03FD8F250E2525253C253C4
:104C50003255A255125682567247E2475248C24810
:104C6000324EA24E124F824F2161730020303971B3
:104C70002AD6194506DE16DC1ADA1ED82ED432D210
:104C800036D03ACE3ECC42CA46C872C676C47AC244
:104C90007EC0EFF05FD3F250E2525253C25332550E
:104CA000A255125682567247E2475248C248324EC7
:104CB000A24E124F824F216173002030B71701407E
:104CC000138707806319E500371702401C4F93E7ED
:104CD00047001CCF8280938707C0E31DF5FE37177E
:104CE00002401C4F93E78700EDB793F7060113F8D6
:104CF000F60099C33368C80093F7F50FB9C31C4198
:104D00000147854E3D4F930F800293028004214E50
:104D10003396EE00B3F8C50063111603931827000D
:104D200033131F011343F3FFB377F300B3181801D4
:104D3000B3E7F800639FF60550C90507E31AC7FDFE
:104D40001CC19307F00F63F5B70458412146854E07
:104D50003D4F930F800293028004414EB398CE00E2
:104D6000B3F715016392F8029317260081173313E6
:104D7000FF001343F3FF3377E300B317F8005D8FB1
:104D8000639DF601232A15010506E319C6FD58C1E6
:104D90008280E39456FA10C94DB7E39756FE232854
:104DA0001501DDB7EFB2AFF741112A842EC6EFF03F
:104DB000FFF0B245C14609462285EFF01FF34101DD
:104DC0006FB02FF8EFB2AFF541112A842EC6EFF085
:104DD000FFEEB24581460D462285EFF01FF14101FD
:104DE0006FB02FF6EFB2AFF341112A842EC6EFF069
:104DF000FFECB24591460D462285EFF01FEF4101D1
:104E00006FB02FF4EFB2AFF1411132C636C42A842D
:104E1000AE84EFF0BFEA3246A24601CE3717024019
:104E20001C4F8545328593E717001CCFEFE01F9696
:104E3000A2460D46A6852285EFF03FEB41016FB0FB
:104E40004FF008456D8D1335150082800CC98280A6
:104E50004CC98280B707002083A747699C4B1397F2
:104E6000270093874186BA9798431E2393E717003C
:104E70001EA38280B707002083A747699C4B139726
:104E8000270093874186BA9798431E2393E707200C
:104E90001EA38280B707002083A747699C4B139706
:104EA000270093874186BA979C438AAB8280B707D5
:104EB000002083A747699C4B13972700938741865F
:104EC000BA9798431E2393E707101EA38280EFB280
:104ED0006FE3B7040020AA8A2E89328AB689EFF0E0
:104EE0007FF703A7446993874186184B1384418653
:104EF000938444690A07BA9798431E2F898BF5FF5C
:104F0000EFF0FFFA9C409C4B8A07A29798435E2BD8
:104F1000858BF5DF93FAEA0F231857015E2B898BF7
:104F2000F5DF135589007D89EFF0DFF69C409C4B3F
:104F30008A07A29798435E2B93F70708EDDF137556
:104F4000F90FEFF03FF59C409C4B8A07A2979843DE
:104F50005E2B93F70708EDDF0149636F39019C4031
:104F60009C4B8A073E9418405E2B918BF5DFEFF047
:104F70007FF001456FB04FDCB3072A018823EFF0C3
:104F80007FF19C409C4B8A07A29798435E2B93F736
:104F90000708EDDF05091379F90FC1B7EFB22FD874
:104FA0003704002003274469411102C61C4B104FEF
:104FB000AD459396270093874186B69794437D1617
:104FC000DE2A63E1C504B5650A069385C5422E96BF
:104FD0001042C207C183130444690286858B9DC3B6
:104FE0003C3393F7E70F9EAA89471CCF21A8898BF2
:104FF00091CB4A239E2E21817D89EFF0BFE91C4091
:105000002D4798CF41016FB0CFD393F70708FDDB51
:105010004823EFF03FE81C400D47E5B793F707083A
:10502000F5D3EFF0DFE81C401147E1BF858BF9DBDA
:105030003C3393E7170093F7F70F9EAA954775B790
:10504000898BE9D39E2E99474DB793F70704DDDB93
:105050000A277E23504793051500C205FD17C1811D
:105060002A966356F5009E2A0EA71CA261BF9E22B7
:10507000C207C18393F7F7BFC207C1839EA29E2ACE
:105080000EA71CA2EFF01FDF08407C0001470C2197
:1050900048498D460546EF20F029B24791C7B7E74A
:1050A00000E0116723A0E7201C4023AC070099BF54
:1050B000858BA9DB3C3393F7E70F9EAAA14735B751
:1050C00013F6074009CA9307F0BFDEAAEFF03FDEF0
:1050D0001C401D473DB7898B95D74A239E2E2181C1
:1050E0007D89EFF03FDB1C40314721BF93F7070874
:1050F000E38A07F04823EFF0FFD91C40254711B79A
:1051000093F70708E38007F016277E2363FCF60079
:105110005C47B6978823EFF0FFD718401E27850716
:105120001EA7CDB5A947D1B5918BE38D07EC99BFEB
:10513000EFB24FBDB70400209389446903A409006E
:105140003A89938444691CA076A050C44EA02314CD
:10515000040028B0EF20A04283A7090048C80547F3
:1051600098CFEFF03FCF03A7090093874186184BF4
:10517000138441860A07BA979C439A2F098B75FFBF
:10518000962393E6064096A3EFF07FD298404A8696
:10519000FD551C4B8A07A2979443DE2293E70770C4
:1051A000DEA20823EF2020659C409C4B8A073E949A
:1051B00018405E23C207C18393F7F78FC207C183EC
:1051C0005EA31E23C207C183F99BC207C1831EA32E
:1051D000054781476303E50091473E856FB0CFB532
:1051E000EFB24FB2B70400209389446903A40900C9
:1051F0003A899384446976A01CA050C44EA023141D
:10520000040028B0EF20A03783A7090048C81D4735
:1052100098CFEFF03FC403A7090093864186184B4F
:10522000138441860A07BA9694429E2E898BF5FF15
:10523000DE2293E70770DEA2EFF07FC79C404A862C
:10524000FD558823EF20205B9C409C4B8A07A2974A
:1052500098435E23C207C18393F7F78FC207C183C8
:105260005EA31E23C207C183F99BC207C1831EA38D
:10527000814711E18D473E856FB00FACEFB28FA82B
:105280009387418613172500BA970111AA8AAE8425
:10529000328983A90700138441860DE1B7170240C4
:1052A000944BB70520003706E0FFCD8E94CB944B8E
:1052B0007D16F18E94CBD84F4D8FD8CF680003DA8E
:1052C0004900EFE06FDFD24737470F00130707248D
:1052D00033D7E702420A135A0A01137A0AFC420A38
:1052E000135A0A01336AEA00420A135A0A01239246
:1052F000490183D60900C206C182F99AC206C18259
:105300002390D900B79698001386F6676375F60C5C
:1053100093860668B3D7D7029166C207C183D58F3B
:10532000A166D58F9306C0123307D7029306803E3D
:105330003347D7020507420741832390E902239EA2
:10534000F90083D7090093E717002390F90083D76A
:105350000900C207C18393F757BF93E70740239023
:10536000F90091672394F900EFE09FE137570000BF
:105370001307071358CD375700001307071E18D11E
:1053800037570000B70700201307E7EC23AAA768E8
:105390002328550158D193894769639C0A004A869E
:1053A000A6851305F002F9204A86A6851305000399
:1053B000D12083A709009C4B8A073E9418405E27A2
:1053C000C207C183F99BC207C1835EA7EFF09FA804
:1053D00005616FB06F969167850799B7397106DEE1
:1053E00016DC1ADA1ED82AD62ED432D236D03ACECD
:1053F0003ECC42CA46C872C676C47AC27EC0EFF0BE
:10540000FFB9F250E2525253C2533255A2551256CE
:1054100082567247E2475248C248324EA24E124F5D
:10542000824F216173002030397106DE16DC1ADAF2
:105430001ED82AD62ED432D236D03ACE3ECC42CA4C
:1054400046C872C676C47AC27EC0EFF03FB5F2504D
:10545000E2525253C2533255A255125682567247E7
:10546000E2475248C248324EA24E124F824F21614B
:1054700073002030854712066394F500136606F822
:10548000B7E700E0AA971376F60F2380C74093573B
:1054900055000547938707043315A7008A0737E7A8
:1054A00000E0BA9788C38280EFB2CF85B717024079
:1054B000D84FB7060018AA84558FD8CFB7760040CA
:1054C000984205452E891367071098C29853C16604
:1054D000B289558F98D39853C176FD16758F98D39E
:1054E000EFE00FBB0144130AA00F13051004EFE017
:1054F0008FC801ED631444016FB00F84050451455A
:105500001374F40FEF201048CDB79307A00FE305F5
:10551000F4FEB7170240985321641367071098D31D
:105520009853418F98D3EFE06FCDEFE02FCE373710
:1055300000408357078093E717002310F780EFE0C0
:10554000EFCB1305F4FFEFE08FC8EFE02FCB4E86D3
:10555000CA854D45EFF01FF2B707002023AC9768CE
:1055600061BF39712AD605453ECC06DE16DC1ADA53
:105570001ED82ED432D236D03ACE42CA46C872C6CF
:1055800076C47AC27EC0EFE0AFCA85476312F502E7
:10559000B707002083A78769829737370040835772
:1055A0004780C207C183F99BC207C1832312F780DA
:1055B000EFE0CFC4F250E2525253C2533255A255DB
:1055C000125682567247E2475248C248324EA24EA5
:1055D000124F824F216173002030B717024025E13E
:1055E000D44705657D76C98ED4C7D4477D16F18E24
:1055F000D4C7984F498F98CFB7370140014781C52D
:1056000005671307078092238D6693860604F18E43
:10561000558FF1769386C630558F420741839AA302
:10562000DA2F13774710DAAF23980700DA231367CE
:105630002700DAA39A23136707049AA38280944B66
:1056400011657176C98E94CB944B7D16F18E94CBF7
:10565000D84F498FD8CFB74700409387078079BF8D
:105660000A0593878180AA979C431307F0FB9AA7AA
:1056700082800A0593878180AA979C4301459E27D3
:10568000828085476308F50405C589476302F506EE
:105690008D47630CF506B7170240984B13678700D8
:1056A00098CB984B5D9B98CBD84F136787003DA84C
:1056B000B7170240D447056713070780D98ED4C7B0
:1056C000D4477D761306F67FF18ED4C7944F558F5D
:1056D00098CF8280B7170240984B1367170098CB7A
:1056E000984B799B98CBD84F13671700D8CF8280FF
:1056F000B7170240984B1367270098CB984B759BC0
:1057000098CBD84F13672700D5B7B7170240984BEF
:105710001367470098CB984B6D9B98CBD84F136776
:105720004700E9B75D7122DE371400402ADC2EDA2B
:105730001305048085453ED286C696C49AC29EC093
:1057400032D836D63AD442D046CE72CC76CA7AC84F
:105750007EC6EFE06FD48547631AF500B7370020A7
:1057600083A747FD8297F9572318F4807254B640F7
:10577000A642164386436255D2554256B256225728
:1057800092570258F248624ED24E424FB24F616178
:1057900073002030B5670A059387C745AA979843D9
:1057A0001E2393E717001EA38280B5670A0593871F
:1057B000C745AA9798431E23C207C183F99BC20716
:1057C000C1831EA38280B567131725009387C74541
:1057D000BA979C439A2742074183619B42074183C2
:1057E0009AA751473306E50296233737002013075F
:1057F000C7F8C206C18293F6F6C832975223D18EFB
:1058000096A316233A23D6B79AB709E5373701404E
:10581000231807C20547DAAB8280EFA25FD02A8443
:1058200011450111814463668500B7A44A0493843D
:10583000042022853ECE3ACC36CA32C82EC6EFF0BE
:105840005FE4B24551453308A4024246D24637359B
:1058500000201305C5F8B3D4B402429512A154C573
:1058600026A12285EFF03FF635651305C545931651
:105870002400AA9694427956624792AACA26F24711
:1058800013651500CAA689461305E00263E6860083
:105890009386C186369408203E86BA85EFF09FBD78
:1058A00005616FA01FCAEFA2FFC5011102C802CA9D
:1058B00002CC02CE91472A84B289B684014963E6BC
:1058C000A70037A94A041309092022852EC6EFF044
:1058D0005FDBB245D1473307F402B7370020C20976
:1058E0009387C7F893D9090122850A043359B9026D
:1058F000BA97239037012392070023912701EFF0F5
:105900009FECC167938707073EC8B5679387C74574
:105910003E94231B3101231C010093F71400004027
:1059200089CB0C082285EFE0AF9281452285EFE01C
:105930002FB293F7240089CB0C082285EFE0EF9774
:1059400081452285EFE0AFB193F7440089CB0C0885
:105950002285EFE0EF9F81452285EFE0AFB1A1887E
:1059600089C80C082285EFE0EFA781452285EFE08A
:105970004FB11E20216793E707081EA083574404F8
:10598000D98F2312F40405616FA01FBBEFA23FB9AA
:10599000914741112A84814463E6A700B7A44A04D1
:1059A00093840420228536C632C42EC2EFF07FCD08
:1059B0009245D1473307F4022246B7370020938738
:1059C000C7F82285B3D4B402BA9792A323920700F2
:1059D000A6A3EFF05FDFB24689476392F606B5678C
:1059E0009387C7450A043E941C4085669386F6CF8C
:1059F0009A33420741833D9B420741839AB3922FDA
:105A00009A33F18E42071166418313060610D18E38
:105A10001377F7FD96AF136707019AB3962F7D773B
:105A20001307F73F758F9AAF9A2F420741839AAFBA
:105A3000DA2713674740DAA741016FA09FB0A1475B
:105A4000E39CF6FEB5679387C7450A043E941C4065
:105A50007D761307F6FF9633116513050510758FD4
:105A60009AB3DA2F856603D807029385F6CFF98DAE
:105A700079777D17C98D337707010565CEAF498FDB
:105A80009AB3DA2F1306F63FC106798ED2AFDA2F1A
:105A900042074183DAAFDA27D98ED6A771BFB5673F
:105AA0000A059387C745AA97984383574704C607B3
:105AB000C5832312F7048280EFA27FA601112A84F6
:105AC000AE8432C6EFF0BFFD35650A041305C54547
:105AD00022950041324602CA8357440402CC02CECA
:105AE000C607C5832312F404C167938707063EC81F
:105AF0008947FC84F08393F7140089C70C0822853A
:105B0000EFD01FF593F7240089C70C082285EFD04A
:105B1000DFFA93F7440089C70C082285EFE04F8332
:105B2000A18889C40C082285EFE0CF8B83574404F9
:105B30002167D98F2312F40405616FA09FA0B56778
:105B40000A059387C745AA979843A16683574704D8
:105B5000D58F2312F7048280AD67373700409387D3
:105B6000A7AA1CC382801567B73700401307575593
:105B700098C31147D8C31307102798C72D67130779
:105B8000A7AA98C335671307C7CC98C382809387A9
:105B9000C1909843636FA702D043B386C7006316D2
