:100000006F00906813000000130000001300000050
:100010001300000013000000130000001300000094
:100020001300000013000000130000001300000084
:08003000130000007300100032
:100038000000000000000000BA080000BC08000032
:1000480000000000200E000000000000000000007A
:10005800220E0000240E0000000000000000000036
:100068007A2D0000000000000002000000000000DF
:100078002A0E00002C0E00002E0E0000982700000B
:10008800320E0000340E0000360E0000380E00005C
:100098003A0E00003C0E00003E0E0000FA1E000062
:1000A800420E00005A1F000020200000BE1F000062
:1000B8004A0E000080200000220900000C1D0000EC
:1000C800DE1D00003C1E00009C1E0000580E0000B3
:1000D8005A0E00005C0E00005E0E0000600E00006C
:1000E8007629000006290000922800006E260000EC
:1000F800B8260000022700004C270000700E000000
:10010800720E0000740E0000760E0000780E0000DB
:100118007A0E00007C0E00007E0E0000800E0000AB
:10012800820E0000840E0000860E00000000000011
:080138000000000000000000BF
:10020000130181F806C216C41AC61EC822CA26CC1B
:100210002ACE2ED032D236D43AD63ED842DA46DC76
:100220004ADECEC0D2C2D6C4DAC6DEC8E2CAE6CC46
:10023000EACEEED0F2D2F6D4FAD6FED8F3220030CF
:1002400096DA9702002083A2A23B23A02200F32586
:1002500010342EC003A10183EF3070031703002078
:100260000323033A03210300824273901234D652CF
:10027000739002309240A2423243C2435244E2445D
:10028000724582551256A2563257C2575258E258FA
:1002900072598649164AA64A364BC64B564CE64C0E
:1002A000764D865D165EA65E365FC65F13018107DA
:1002B0007300203013000000130000001300000042
:1002C00013000000130000001300000013000000E2
:1002D00013000000130000001300000013000000D2
:1002E00013000000130000001300000013000000C2
:1002F00013000000130000001300000013000000B2
:1003000083A20183938202E07390023417010020DC
:100310000321012F024182403243C2435244E2444E
:10032000724582551256A2563257C2575258E25859
:1003300072598649164AA64A364BC64B564CE64C6D
:10034000764D865D165EA65E365FC65FD652A1020A
:1003500073900230A24213018107828013000000D3
:100360001300000013000000130000001300000041
:100370001300000013000000130000001300000031
:100380001300000013000000130000001300000021
:100390001300000013000000130000001300000011
:1003A0001300000013000000130000001300000001
:1003B00013000000130000001300000013000000F1
:1003C00013000000130000001300000013000000E1
:1003D00013000000130000001300000013000000D1
:1003E00013000000130000001300000013000000C1
:1003F00013000000130000001300000013000000B1
:10040000F322003093F272FF130380181203B3E259
:100410006200711523205500130585FA10C12115BE
:10042000232005009302000063870200711523203A
:100430000500FD12D5BF71150CC1828000000000BF
:1004400000000000000000000000000000000000AC
:10045000000000000000000000000000000000009C
:10046000000000000000000000000000000000008C
:10047000000000000000000000000000000000007C
:10048000000000000000000000000000000000006C
:10049000000000000000000000000000000000005C
:1004A000000000000000000000000000000000004C
:1004B000000000000000000000000000000000003C
:1004C000000000000000000000000000000000002C
:1004D000000000000000000000000000000000001C
:1004E0000000000000000000000000000000397162
:1004F00001436EC619A0397141536AC866CA62CCFD
:100500005ECE19A0397101535AD056D252D44ED66C
:100510004AD826DA22DC06DE3301614082824111AC
:100520004AC026C222C406C68282B24D4101024D93
:10053000924C224CB24B4101024B924A224AB249A0
:100540004101024992442244B240410182803D432C
:100550002A876373C3029377F700BDEFADE5937607
:1005600006FF3D8ABA960CC34CC30CC74CC7410763
:10057000E36BD7FE11E28280B306C3408A0697027E
:10058000000096966780A6002307B700A306B70071
:100590002306B700A305B7002305B700A304B700DF
:1005A0002304B700A303B7002303B700A302B700D7
:1005B0002302B700A301B7002301B700A300B700CF
:1005C0002300B700828093F5F50F93968500D58DB3
:1005D00093960501D58D61B7939627009702000089
:1005E00096968682E78086FA9680C1171D8F3E9682
:1005F000E374C3F8A5B7EFF21FF0B70400201306A9
:10060000B021814513850465993781461306502032
:10061000938504650145EF10606C63100520138419
:100620000465182093074005630DF70889475CA00F
:100630008567938747F51EA0BD473CA0B707010219
:100640002326F40CB737033F938707602328F40C65
:10065000B7F702F393870730232AF40CB70700DBC0
:1006600093870760232CF40CB7D700E6938707F035
:10067000232EF40CFD77938707D081462310F40EC8
:10068000130650208547938504652302F420231127
:10069000040C2322040C2324040C2301040EA301C4
:1006A0000420EF10E058130650208145138504659F
:1006B000793D814613065020938504650145EF106E
:1006C000E061B70700200547238CE75A83A74181E3
:1006D00005478546C8431306440081451305452652
:1006E000EF30F0799309140D09492D4A83A7418110
:1006F000CA850509C8434E8605478946130505186E
:100700001379F90FEF30B0778909E31149FF83A717
:10071000418105478946C8431306E40099451305FE
:100720000524EF30D07583A7418105478946C8432A
:1007300013060401954513050524EF30507483A773
:10074000418105478946C8431306240185451305A1
:100750000524EF30D07283A7418105478946C843FD
:1007600013064401894513050524EF30507183A712
:10077000418105478946C843130664018D45130529
:100780000524EF30D06F83A7418105478946C843D0
:1007900013068401914513050524EF30506E054979
:1007A000930B140C314C9D4C3D4BB30A890383A72A
:1007B000418105478546C84333862B019375F90F60
:1007C0001305C518EF30B06B130AA401938ACA1839
:1007D000854983A74181528693F5F90FC8430547A0
:1007E000894656958509EF309069090AE39399FF88
:1007F0000509E31C69FB83A7418105478546C8437A
:100800001306040DBD451305C518EF3050670C30B5
:100810000145692C2C200545512CB7070020239059
:10082000075C31B389476300F60291476307F6021C
:100830008547631BF6029C213707002013070765D5
:100840002A971CA382809621B7070020938707650B
:100850003E9514A1A18214B182809841B70700206F
:1008600093870765AA9798C38280B707002093876C
:100870000765AA97983388232207598D8280EFF263
:100880001FCAB707002083A7C75B13074006B70539
:100890000020B3D7E702938505658146214695057B
:1008A000154513D78700DCA1D8B113D70701E18321
:1008B000F8A1FCB1EF10C03769B101A039712AD697
:1008C000376500001305859906DE16DC1ADA1ED896
:1008D00032D236D03ACE3ECC42CA46C872C676C470
:1008E0007AC27EC02ED4EF400012EF30903EAA852F
:1008F000376500001305C59AEF30B07FEF30D03D6B
:10090000AA85376500001305C59BEF30907EEF3058
:10091000103DAA85376500001305C59CEF30707D3A
:1009200001A0EFF2DFBF3724014093050014130547
:100930000440E52319C5A1379305001413050440AD
:10094000DD2B01B1370500201305455C8280EFF2F5
:100950001FBD2945EF30400D130550203937137561
:10096000F50F11C97D151375F50F06051305150D46
:10097000ED3D352AF9BF0145EDBFEFF25FBA3714FF
:100980000140EF1020761305048093050010EF104E
:10099000D00C130504C0C145EF10D00085649385C9
:1009A00004C2130504C0EF109004370618001305A5
:1009B00004C0E14613060610A145EF10B00593856B
:1009C000048013050480E1460146EF10B004E146BF
:1009D0000146130504C08D45EF10D00313050480B4
:1009E0009305F004EF10607E13050480E146014694
:1009F0009305000AEF101002E1460146130504C0FA
:100A0000A965EF10300113050480C145EF1080790E
:100A1000130504C08565EF10E078130504C0930644
:100A2000800437461D0093050010EF10A07E1305CB
:100A300004C0E14637461D0093050020EF10807D7D
:100A4000F146130504C001469305000CEF10807CAD
:100A50000546854537350140EF1050563745004073
:100A60000546854513050580EF105055B716000063
:100A7000B7450F009386E6AC1306803E93850524A8
:100A80000D45EF10707AE165B1461306803E9385FF
:100A9000056A0945EF20600395450545EF1060178D
:100AA000C145130504C0EF10807A61BC82800A053D
:100AB000B70700202394A75C8280EFF25FA637057A
:100AC0000040854513050540EF0010799DBCEFF20D
:100AD0007FA33714014013050480C145EF10E07770
:100AE000B7440040130504C085659384048037092A
:100AF0000020EF108076014491491309895C268A11
:100B000063153403014415499384C1AE631D240366
:100B10003714014013050480C145EF10407385650B
:100B2000130504C0EF10A07201BC89452685EF00B3
:100B3000504279D593171400CA978E235285050425
:100B4000EF00F04075BF894537350140EF00704038
:100B500055DD93171400A6978E2337350140050401
:100B6000EF00F03E65B7EFF29F9B0545EF00D01216
:100B70001522EF30D006716513050520EF305009BE
:100B8000376500001305C59DEF30F067FD3337640E
:100B90000000612451243524EF20702C1305449E5D
:100BA000EF307066E5BFB71702409843B706FFF80D
:100BB00041111367170098C3D84337060200758F99
:100BC000D8C39843B706F7FEFD16758F98C39843B0
:100BD000B706FCFFFD16758F98C3D843B70681FF93
:100BE000FD16758FD8C337079F0098C702C402C689
:100BF0009843C166558F98C3B716024005679C425B
:100C0000F18F3EC6A24785073EC4B24781E7A2479F
:100C1000E397E7FEB71702409C431397E700635939
:100C2000070685473EC6324785476311F706B71763
:100C30000240D8438966D8C3D843558FD8C3D84318
:100C4000B706C1FFFD1613670740D8C3D843758F99
:100C5000D8C3D843B7063D00558FD8C39843B706CD
:100C60000001558F98C3984393166700E3DD06FE95
:100C7000D843B7160240719BD8C3D84313672700E7
:100C8000D8C32147DC42B18BE39EE7FE410182805D
:100C900002C651BFB7160240DC423707002011469A
:100CA000B18B130707586385C70021466388C702C5
:100CB000B7177A00938707201CC3B7170240DC439D
:100CC000918393F6F700B707002093870700B69744
:100CD00094231C43B3D7D7001CC38280DC42D44288
:100CE0004166C983BD8BF18E890745466393C70072
:100CF000C94781EEB746024083A60680C18A89CEE5
:100D0000B7167A009386062021A8B7160240D4426F
:100D10001396E600E35606FEB7163D00938606904E
:100D2000B387D70251BFEFF2EFFD41112317010046
:100D30003704002089440D4AA54AB76900000D4BCD
:100D40008327045D1309045D638E9700638947015F
:100D5000E5FFEFF05F8A953323206901D5B72320A3
:100D60009900F9BF09469305E100130550205D3C49
:100D70001305803EEF20504B3C878507C207C18397
:100D800063EAFA007C87EF1050631385C99FEF3048
:100D900090477DB723170100FDB79387015B1CC106
:100DA0009387011B9CC1930700081CC28280938714
:100DB000C1601CC19387013B9CC1930700081CC202
:100DC0008280EFF2CFF5BD3E2A84B765000037156B
:100DD0000000138881EF938781AF2947854613066A
:100DE0000010938585A01305E594EF20E07C08C0F2
:100DF000B76500003715000013884115938741F54A
:100E00000D47854613060008938545A1130565D255
:100E1000EF20807A6FF0EFF28280828001A001A043
:100E200001A001A001A001A001A001A001A001A0BA
:100E300001A001A001A001A001A001A001A001A0AA
:100E400001A001A001A001A001A001A001A001A09A
:100E500001A001A001A001A001A001A001A001A08A
:100E600001A001A001A001A001A001A001A001A07A
:100E700001A001A001A001A001A001A001A001A06A
:100E800001A001A001A001A097010020938181EFA2
:100E90001741002013010117175500001305053EE7
:100EA00097F5FF1F938505161386818363FAC500A6
:100EB0008322050023A0550011059105E3EAC5FE34
:100EC00017F5FF1F1305856F971500209385C583C0
:100ED0006377B500232005001105E36DB5FEFD42E3
:100EE000739002BC894273904280B72200009382C3
:100EF000028073A0023097F2FFFF9382221493E2E4
:100F0000320073905230EFF01FCA970200009382B4
:100F1000C2C573901234730020305841144193D7E6
:100F20008500F58F99C713F5F50F798D3335A0003E
:100F3000828001458280A18193C5F5FF0CC182802A
:100F4000B707F000ED8F89CB104D3375B600320531
:100F500031813335A00082809397750063D60700F6
:100F6000544133F5B600E5B79397450063D50700C4
:100F700008456D8DE9BFB706100093976500FD1613
:100F800063D7070058453375B700758DD9B71C492D
:100F900033F5B700DDBFB707F030938707076395D8
:100FA000F500232C050082809397C50013976500F8
:100FB000B183635407005CC5828013975500635466
:100FC00007001CC9828013974500635407001CC5A5
:100FD00082805CC18280930700106386F50663E718
:100FE000B702A1476388F50663E9B7000547638E3A
:100FF000E50411476381E506828013070002638FD1
:10100000E50493070004638AF504828093870580D2
:101010008DCB85679387078063EBB700930700202C
:101020006383F50293070040638FF5008280C167F8
:101030006388F502B70702006387F502A16763932F
:10104000F502232C0500914729A8C1679387171043
:101050001CC58280C1475CC58280C1471CC9828093
:10106000A1475CC18280C147EDBFB70702409C43E6
:101070007D8D3335A0008280EFF26FCAFD376FF0AF
:101080004FCCB7070240C8C382809C4513F70701C5
:1010900013F8F70001C7D8413368E800372702404A
:1010A000145B3707000F758F5DEB3707002085460F
:1010B000230AD75C371701406315E5009A21358371
:1010C0009AA18E2113F7F50F39C318418146854E39
:1010D0003D4F930F800293028004214E3396DE0031
:1010E000B3F8C500631116039398260033131F014C
:1010F0001343F3FF3377E300B318180133E7E80035
:101100006399F70750C98506E39AC6FD18C113070E
:10111000F00F6375B70454412146854E3D4F930F40
:10112000800293028004414EB398CE0033F715013C
:101130006392E8021317260001173313EF001343DD
:10114000F3FFB376D3003317E800D98E6397F70324
:10115000232A15010506E319C6FD54C182803717FD
:101160000140E310E5F6370700200347475D31DB18
:10117000B1B7E39A57F810C979B7E39D57FC232814
:101180001501C9BFB71701406318F500B707002064
:1011900083C7475D91C3B5810CC98280B7170140F1
:1011A0006318F500B707002083C7475D91C3B58179
:1011B0004CC98280B7070140635A0504DC4F93563F
:1011C0000501131805013707300013F6F600135810
:1011D0000801B376E500635E05066399E6049306AD
:1011E00006010D46B316D60093C6F6FFF58F99C9D2
:1011F000135755011377F73F12073317E800D98FBC
:1012000063550506370701405CCF828037270240CF
:10121000145BDC433707000F758F55F313D71700A6
:10122000F976CE07758FCD83D98F51BF1317B500CF
:10123000635607008D46B396C6007DB71357550118
:101240001377F73F12073317E8001347F7FFF98FBB
:1012500079BF6390E602370601405442370700F138
:101260007D17F98F758F58C2C1F5370701405CC3F0
:1012700082801317B500635C07008D46B396C600E5
:1012800093C6F6FFFD8EB707000FD58FF1BF13573A
:10129000550112073317E8001347F7FF7D8FB70793
:1012A000000FD98FD1B7EFF28FA779712A84462129
:1012B00068082EC6612C925737470F001307072482
:1012C00033D7E702C204C18093F404FCC204C18096
:1012D000B24561651305056A131607014182D18C79
:1012E00046A01620C206C182F99AC206C18216A083
:1012F00094416369D5048606B3D7D7029146139704
:1013000007014183BA876373D700914705064206F8
:10131000C2074182C18312B05EAC1E20DA21B6251D
:1013200093E717001EA01E20558FC207C18393F7B5
:1013300057BFD98F1EA09A25DE25D98F1EA44561DF
:101340006FF02FA0EA2131667D16631DC5020D46A0
:10135000B386C602B3D7D702C207C18393964701AB
:1013600099E293E71700A166D58F9306C012330761
:10137000D7029306803E3347D702050742074183D1
:101380001AB059BF6546B386C602B3D7D702916675
:10139000C207C183D58FD9B71E2189C593E717002E
:1013A0001EA18280C207C183F99BC207C183CDBF42
:1013B0001E2189C593E707101EA18280C207C18341
:1013C00093F7F7EFC207C183C5BF1E2189C593E715
:1013D00007201EA18280C207C18393F7F7DFC207EF
:1013E000C183C5BF1E2189C593E707401EA1828026
:1013F000C207C18393F7F7BFC207C183C5BF5E258C
:1014000089C593E717005EA58280C207C183F99B57
:10141000C207C183CDBF5E2101C6DD8D4EA1828092
:1014200093C5F5FFFD8DDDBF0EA982800A291375D6
:10143000F50F828093F7E50F19C293E71500C207F5
:10144000C1831EA98280411102C62AC6B247BE9539
:101450002EC6B2478A2341018280411102C402C6CE
:1014600093D7C5012AC63EC4A247A205A18199CB44
:10147000B247D1073EC6B247884341016D8D33352F
:10148000A0008280B247C181E107EDB793C5F5FFA7
:10149000C205C1814EA98280B707002023ACA75C9A
:1014A0008280B70700209387875D9443182181E6E7
:1014B0003C21920721A894430546639FC6023C2124
:1014C000103192076314D60093E707F8B7E600E0FF
:1014D00093F7F70FBA962380F64085469357570047
:1014E0003397E6005441A5C2938707048A07B7E6FD
:1014F00000E0B69798C382808C4389466391D502F9
:1015000014313C216365D6008A06B6975DB7938691
:10151000E6038A06B69793F7F70F920775B79043DD
:101520008D46631CD60014313C216364D6008606C8
:10153000E9BF9386C6078606F1BF94439147E39EB1
:10154000F6F81C31BDB7938707064DB73717024031
:101550005C439146B18B6385D700A1466382D70671
:10156000B7177A00938707201CC1371602405C42E8
:1015700037070020130707019183BD8BBA97942387
:101580001C41B3D7D7005CC15442A1829D8ABA9650
:101590009422B3D6D70014C55442AD829D8A3697A3
:1015A0001823B3D7E7005CC55842398393763700D8
:1015B0001387418036971823B3D7E7021CC982806E
:1015C0005C435843C166C983BD8B758F8907C54687
:1015D0006393D700C94701EF3747024003270780CD
:1015E000418B09CF37177A001307072021A8371737
:1015F000024058439316E700E3D606FE37173D0036
:1016000013070790B387E70285B799C537170240DC
:101610001C4F5D8D08CF8280B7170240984F13454D
:10162000F5FF798D88CF828099C5371702405C4FCE
:101630005D8D48CF8280B7170240D84F1345F5FF24
:10164000798DC8CF828099C5371702405C475D8D80
:1016500048C78280B7170240D8471345F5FF798DF8
:10166000C8C7828099C5371702401C4B5D8D08CBD7
:101670008280B7170240984B1345F5FF798D88CBD0
:101680008280B737004003D747801345F5FF798D37
:101690002392A780828037370040835747800357C3
:1016A0000780C207698FC18309C77D8D3335A000CC
:1016B000828001458280EFE29FE6E1376FE07FE8BC
:1016C000EFE2FFE5B7370140631AF5008545056590
:1016D0009D3F81450565853F6FE0BFE6B747004008
:1016E00093870780E31AF5FE85451165A53F81457F
:1016F00011658D3FD5B71A218D6793870704B621F1
:101700007D8F9E21D58FD621D58FF621D58F962519
:10171000D58FB625D58FD625D58FF625D58FD98FE0
:101720001EA15A2DFD779387F77FF98F5EAD9E2915
:101730001EA982801E2189C593E707041EA182800D
:10174000C207C18393F7F7FBC207C183C5BF4EA58C
:1017500082800A256D8D3335A0008280EFE23FDC68
:10176000B7370140938707C0631DF50005648545C1
:1017700013050480C93D814513050480E9356FE0F8
:101780005FDCB70700406319F50085450545D93D85
:1017900081450545C13DE5B7938707406318F500CE
:1017A00085450945C13581450945EDB7B717004065
:1017B000138707806318E500854511456535814528
:1017C0001145C9BF938707C0E31BF5FA854521453D
:1017D000513D814521457DBF1E213737014013070B
:1017E00007C0C207C1836304E502370700406300F6
:1017F000E50213070740630CE50037170040930626
:1018000007806306D500130707C06316E500BA21F9
:1018100093F7F7F8D98FFA2193F7F7CFC207C1836F
:10182000D98F1EA1DE215EB59E211EB5B7370140BE
:10183000938707C06314F5009C251EB985475EA9F0
:1018400082801E31922103D82500C207C183F99BF3
:10185000C207C1831EB11E3156211A2DC207C18392
:10186000420741831377C7F8518F9225F59BC20633
:1018700033660601D18F37360140130606C0C18298
:101880006310C502B225DD9B03D8E500D18FD221BC
:10189000ED9B93F6F6CFD18FD22533660601D18E1C
:1018A00056A11AADFA215AB91EB182801E31657750
:1018B0001307F7CFC207C183BD9BC207C1831EB107
:1018C0001E31562103D88500C20713960601162D36
:1018D000C18393F7F7FD758F96214182A206558F3C
:1018E000B62142074183B3E606019206D58FB7368B
:1018F0000140C207938606C0C183631ED502B62588
:1019000093F7F7F703D8C5009206D58FD621C20703
:10191000C183920693F7F7FBD58FFD769386F63F4A
:10192000F18EF225C207C183336606010A06D18E05
:1019300013960601418252A11AADFA211ABD1EB1B9
:1019400082801E3103D88500C207C18393F7F7EF69
:10195000C207C1831EB11E3156215A2DC2071396EC
:1019600006014207962141831377C7F8558FB621A8
:10197000C18393F7F7DFB3E60601A206D58FB7362A
:101980000140C207938606C04182C183631FD5020E
:10199000FD769386F67FF58FB62503D8C500A2069F
:1019A000D58FD621C207C183A20693F7F7BFD58F83
:1019B000F576FD16F18EF225C207C1833366060166
:1019C0001206D18E13960601418252A15AADFA2118
:1019D0005ABD1EB182801A31FD77FD17F98F1EB1F5
:1019E0000358050256215E2D657792211307F7CF24
:1019F0007D8FF9772206FD17518FB3F70701B221CA
:101A000003D88500C2064207336606013206D18F2D
:101A100037360140C207130606C0C1824183C18325
:101A2000631AC50071767D16F18ED2251A06D18E05
:101A3000C206C18256A15AADFA212310E5041EB197
:101A40008280FD575EA1231005002313050023119A
:101A500005002304050082801E2189C593E7170035
:101A60001EA18280C207C183F99BC207C183CDBF7B
:101A70008357450491C52167D98F2312F5048280CD
:101A8000C607C583DDBF5E2501C6DD8D4EA58280FC
:101A900093C5F5FFFD8DDDBF1E25C207C183E19B08
:101AA000C207C1831EA582801E2189C593E707084E
:101AB0001EA18280C207C18393F7F7F7C207C183D3
:101AC000C5BF1E2DC207C183DD9BDD8D0EAD82809B
:101AD0001A2DFD779387F77FF98FA205CD8FC20767
:101AE000C1831EAD82805E2DC207C183DD9BDD8D6B
:101AF0004EAD82805A2DFD779387F77FF98FA2052F
:101B0000CD8FC207C1835EAD82801E294A25ED8F2D
:101B10004205418189C76D8D3335A0008280014522
:101B2000828093C5F5FFC205C1810EA98280EFE2D4
:101B30001F9F1629F577FD17F58FF621DA257971A4
:101B4000D58F1EA95625FD779387379FF58FD62110
:101B50002A842EC6D58F9625D58FB625D58F5EA51E
:101B60005E29C207C18393F7F7CFD98F5EA96808B2
:101B7000EFF0DF9DB747014093870780B245631AB6
:101B8000F404A25756246547B387E702C206C1860C
:101B9000984163D20604060752244206B3D7E702EF
:101BA000130740064186B3D6E702B3F7E702920671
:101BB000635506028E0793872703B3D7E70213F70F
:101BC0007700B367D700C207C1831EA445616FE0E9
:101BD0005F97925745BF0A07C1B7920793872703BC
:101BE000B3D7E702BD8BD58FF9BF91C55E250967D5
:101BF000D98F5EA582805A25F977FD17F98FD5BF59
:101C000093F5F51F4EA182800A216D8D3335A0001A
:101C10008280EFE2DF902E86AA85375500401305BB
:101C20000540EF00B0146FE0DF911385816682807C
:101C300085673307C5009387078063CFE708EFE226
:101C40009F8B2A8C4111328409450DC68547AE8988
:101C5000368A138B81660149C14A6310F602032854
:101C60004B02B6872E86130740068946E285130588
:101C7000000A029841016FE09F8B9377FC00B387C5
:101C8000FA40C207C183BE846373F400A284C20415
:101C9000C180994BB38C290103284B02D287294775
:101CA000A6866686E2851305000A029801C92AC63F
:101CB000FD1BEF0090703245E3900BFE058C2699DA
:101CC0004204E2944209139C040141801359090122
:101CD000135C0C015DF079BF09458280856733078D
:101CE000C5009387078063C1E702EFE25F8303A823
:101CF0008168B68713074006B2862E86AA8513052B
:101D0000000A02986FE0FF83094582805D7122DE40
:101D100026DC37640040B70400382ADA2ED81305D1
:101D20000440938514003ED086C696C49AC29EC0D5
:101D300032D636D43AD242CE46CC72CA76C87AC6A9
:101D40007EC4EFF0EF9F85476318F500938514007C
:101D500013050440EFF02FA4B704003837640040A7
:101D60009385041013050440EFF08F9D8547631899
:101D7000F5009385041013050440EFF0CFA13764FC
:101D80000040B705013813050440EFF06F9B85470D
:101D90006318F500B705013813050440EFF0AF9F55
:101DA00083A7416982973765004085451305054043
:101DB000EFF06FA27254B640A64216438643E25437
:101DC0005255C2553256A256125782577248E248AF
:101DD000524EC24E324FA24F6161730020303971B2
:101DE0003ECC83A7016906DE16DC1ADA1ED82AD695
:101DF0002ED432D236D03ACE42CA46C872C676C443
:101E00007AC27EC00145829737650040914513052F
:101E10000540EFF04F9CF250E2525253C2533255FC
:101E2000A255125682567247E2475248C248324E75
:101E3000A24E124F824F21617300203039713ECC87
:101E400083A7016906DE16DC1ADA1ED82AD62ED43C
:101E500032D236D03ACE42CA46C872C676C47AC2A8
:101E60007EC0054582973765004093050002130543
:101E70000540EFF04F96F250E2525253C2533255A2
:101E8000A255125682567247E2475248C248324E15
:101E9000A24E124F824F21617300203039712AD631
:101EA000376500402ED4130505409305004006DE3B
:101EB00016DC1ADA1ED832D236D03ACE3ECC42CA1E
:101EC00046C872C676C47AC27EC0EFF0CF9083A7B0
:101ED00081698297F250E2525253C2533255A25551
:101EE000125682567247E2475248C248324EA24EBC
:101EF000124F824F21617300203039712AD6094573
:101F00003ECC06DE16DC1ADA1ED82ED432D236D0FB
:101F10003ACE42CA46C872C676C47AC27EC0EFF0D4
:101F2000AF9585476318F50083A7C169829705457A
:101F3000EFF02F95F250E2525253C2533255A25550
:101F4000125682567247E2475248C248324EA24E5B
:101F5000124F824F21617300203039712AD6130548
:101F600000203ECC06DE16DC1ADA1ED82ED432D281
:101F700036D03ACE42CA46C872C676C47AC27EC04D
:101F8000EFF08F8F85476319F50083A7416A829729
:101F900013050010EFF0EF8EF250E2525253C2538D
:101FA0003255A255125682567247E2475248C248ED
:101FB000324EA24E124F824F216173002030397190
:101FC0002AD6370502003ECC06DE16DC1ADA1ED809
:101FD0002ED432D236D03ACE42CA46C872C676C461
:101FE0007AC27EC0EFF04F8985476318F50083A75A
:101FF000C16A82974165EFF0CF88F250E2525253A6
:10200000C2533255A255125682567247E247524881
:10201000C248324EA24E124F824F216173002030CF
:1020200039712AD609653ECC06DE16DC1ADA1ED8CE
:102030002ED432D236D03ACE42CA46C872C676C400
:102040007AC27EC0EFF04F8385476318F50083A7FF
:10205000816A82970565EFF0CF82F250E2525253C7
:10206000C2533255A255125682567247E247524821
:10207000C248324EA24E124F824F2161730020306F
:1020800039712AD6370500023ECC06DE16DC1ADA94
:102090001ED82ED432D236D03ACE42CA46C872C6E4
:1020A00076C47AC27EC0EFE03FFD85476319F50034
:1020B00083A7416B829737050001EFE09FFCF25048
:1020C000E2525253C2533255A255125682567247AB
:1020D000E2475248C248324EA24E124F824F21610F
:1020E000730020309387816B23A0070023A2070091
:1020F0008280EFE2CFC237170140930607C08547C1
:10210000630AD50289476307E502130707408D4735
:102110006302E50237270140930607809147630B6E
:10212000D500930607C095476306D5008147631322
:10213000E50099479386816B13942700B387860047
:102140009C439384816B99EFB717014013870780F5
:10215000631CE50085451145EFF02FCBB387840064
:10216000054798C36FE0EFBD138707C06315E5000F
:1021700085452145D5B76315F50085454145E9BF3E
:10218000938707406316F500854513050002E9B7FC
:10219000B727014093870780E312F5FC85451305B7
:1021A00000045DBFEFE2AFB701112A842EC691375C
:1021B000B245C1473ECEEC8289474C0822853ECCD1
:1021C000EFE0BFEC05616FE0CFB7EFE24FB5011173
:1021D0002A842EC6393FB2458D472285EC824C08B1
:1021E0003ECC02CEEFE07FEA05616FE08FB5EFE213
:1021F0000FB301112A842EC6ED3DB24591473ECE64
:10220000EC828D474C0822853ECCEFE01FE805614B
:102210006FE02FB3EFE20FAF41113284AA84AE8991
:102220003689C13D09C885450545EFF00FBE854596
:102230002285EFE03FF88D474C00268523123101BF
:102240004AC63EC4EFE07FE441016FE0EFAEEFE24B
:102250000FADEFE03FF36FE0CFAEEFE24FACEFE05A
:10226000FFF36FE00FAEEFE2EFA937040020130990
:10227000C45D83240900BA89054798B09CA096A440
:10228000D0C4EEA023950400C8B0EF10D03183274E
:102290000900C8C81D47884BD8CF01469305007078
:1022A000EFF06F971304C45D1C40B7050200884B24
:1022B000EFF0AF9A75F91C408545884BEFF04F8FD2
:1022C0001C40054693050070884BEFF0CF941C40EE
:1022D0004E86FD558823EF10702F1C40AA840146BE
:1022E000884B93050070EFF00F93014591E00D4589
:1022F0006FE08FA4EFE20FA1370400201309C45D43
:1023000083240900BA89054798B09CA096A4D0C43C
:10231000EEA023950400C8B0EF10F0288327090031
:10232000C8C80547884BD8CF014693050070EFF029
:102330008F8E1304C45D1C40B7050200884BEFF07C
:10234000CF9175F91C408545884BEFF0AF891C4053
:102350008545884BEFF0CF851C40054693050070FE
:10236000884BEFF04F8B1C404E86FD558823EF10B5
:10237000F0251C40AA840146884B93050070EFF0BD
:102380008F89854701456383F40011451C40A38074
:1023900007006FE06F9AEFE28F98370400209304F4
:1023A000C45D9C404111D145884B02C6EFF0AF8916
:1023B0009C40AD46D84F7D1763E5E60299660A0753
:1023C0009386C6A1369718431304C45D0287058916
:1023D00009C9CC33884B0146EFF0CF851C40094733
:1023E000D8CF41016FE0EF95098965DD884BE14564
:1023F000EFF06F851C40EE23884BA181FD89EFF043
:10240000AF821C402D47E9BF1375050879D9EC232D
:10241000884BEFF06F811C400D47D9B71375050845
:1024200069D1884B8545EFE0BFF81C4011474DBF8F
:10243000058945D9CC33884B0546EFE0BFFF1C40EA
:10244000154779BF098951DD884BE145EFE0BFFFB2
:102450001C40194771B71375050441D59627BA2753
:10246000884BFD16635BD700C04793061700B6A7DD
:102470003A94EFE0BFFB08A0ADB78145EFE09FF6CF
:102480001C40BA27C447884B93061700B6A7BA94D6
:10249000EFE0DFF988A01C40884B8545EFE0FFF2B4
:1024A00008407C0001470C2148498D460546EF1045
:1024B000701DB24791C7B7E700E0116723A0E7207E
:1024C0001C4023AE070031BF0589E30C05F0CC3377
:1024D000884B0146EFE01FF61C40214711B71377E8
:1024E000054005C3884BB705001093850540EFE014
:1024F000FFF91C408545884BEFE09FEB1C401D47D2
:10250000C5B50989E30F05EC884BE145EFE0BFF362
:102510001C40EE23884BA181FD89EFE0FFF01C40B9
:1025200031477DBD13750508E30D05EAEC23884BA3
:10253000EFE09FEF1C40254765B513750508E302E2
:1025400005EAB6279A2763FDE600D847884B3697F9
:102550000C23EFE07FED18403E2785073EA751B5DD
:102560002947BDBD1189E30E05E63DB7EFD29FF9BE
:102570000111B757004002C402C6938707402A845E
:10258000AE8932896316F50A854537052000EFF0DC
:10259000AF89E1679387076A1307004002CA02CC3C
:1025A00002CE3EC80C0891672285FC83FC86F88524
:1025B000EFE07FCF85452285EFE01FDEEFF0EFE60D
:1025C000B72700009387472F1CD1B7270000B70417
:1025D00000209387672623AEA45C5CD1B7570040E8
:1025E00000C9A3000500938707409384C45D631B63
:1025F000F4049307F0025C84280085473EC6A304D8
:10260000310123052101EFE0DFE9930700032800F2
:102610005C84EFE01FE99C408145884BEFE03FDEA2
:102620009C408545884BEFE03FD705616FD0DFF0D8
:10263000B767004093870780E31DF5F485453705AC
:102640004000B1B7B767004093870780E315F4FCFB
:10265000930710035C84280085473EC6A30431011C
:1026600023052101EFE0FFE3930720034DB7397104
:1026700006DE16DC1ADA1ED82AD62ED432D236D08E
:102680003ACE3ECC42CA46C872C676C47AC27EC032
:102690001933F250E2525253C2533255A2551256D8
:1026A00082567247E2475248C248324EA24E124FFB
:1026B000824F216173002030397106DE16DC1ADA90
:1026C0001ED82AD62ED432D236D03ACE3ECC42CAEA
:1026D00046C872C676C47AC27EC07539F250E252DC
:1026E0005253C2533255A255125682567247E24790
:1026F0005248C248324EA24E124F824F216173009F
:102700002030397106DE16DC1ADA1ED82AD62ED40D
:1027100032D236D03ACE3ECC42CA46C872C676C411
:102720007AC27EC08D39F250E2525253C2533255B2
:10273000A255125682567247E2475248C248324E5C
:10274000A24E124F824F216173002030397106DE94
:1027500016DC1ADA1ED82AD62ED432D236D03ACE89
:102760003ECC42CA46C872C676C47AC27EC0EFF07A
:102770009FC2F250E2525253C2533255A2551256E2
:1027800082567247E2475248C248324EA24E124F1A
:10279000824F216173002030EFD27FD80545EFE0F2
:1027A0009FEF8547631AF500B707002083A7075EF0
:1027B00082970545EFE03FF06FD0BFD8EFD23FD60C
:1027C000011102C602C802CA02CC231E0100B7379B
:1027D00001402A842E89B284631EF504854505656F
:1027E000EFE0BFE22285EFE0BFEDB7C704013EC6D0
:1027F000814763050900856793870780FC8023195B
:102800000100231A01000547930700206383E400B9
:102810008147FC836C009307800222853ECC231EF7
:102820000100EFE05FED85452285EFE0BFF0056137
:102830006FD03FD1B747004093870780E314F5FA84
:1028400085451165EFE05FDE71BF994763E2A7043C
:10285000EFD2FFCC99679387C7A40A053E951C4128
:1028600085458287056513050580EFE01FDA6FD087
:102870005FCD0545EFE05FDBDDBF0945E5BF1145F5
:10288000D5BF2145C5BF4145F5B713050002DDB7EA
:1028900082805D7122DE371400402ADC2EDA1305B7
:1028A000048085453ED286C696C49AC29EC032D860
:1028B00036D63AD442D046CE72CC76CA7AC87EC6D4
:1028C000EFF0AFA48547631CF500B717002083A77E
:1028D00047488297854513050480EFF08FA4725412
:1028E000B640A642164386436255D2554256B2566A
:1028F000225792570258F248624ED24E424FB24F80
:102900006161730020305D7122DE370400402ADCF3
:102910002EDA1305044085453ED286C696C49AC277
:102920009EC032D836D63AD442D046CE72CC76CA81
:102930007AC87EC6EFF06F9D8547631AF50083A7BE
:10294000816F8297854513050440EFF08F9D725487
:10295000B640A642164386436255D2554256B256F9
:10296000225792570258F248624ED24E424FB24F0F
:1029700061617300203039712AD62ED437050040AA
:1029800085453ECC06DE16DC1ADA1ED832D236D0A9
:102990003ACE42CA46C872C676C47AC27EC0EFF04A
:1029A000CF968547631AF50083A7C16E8297854548
:1029B00037050040EFF0EF96F250E2525253C25307
:1029C0003255A255125682567247E2475248C248C3
:1029D000324EA24E124F824F216173002030EFD24F
:1029E0001FB4996713172500938787A6BA97844366
:1029F00041112A842685EFE07FD62685EFF0CF8926
:102A00004800EFF00F8431453304A4021385816D33
:102A10004C0022951E217C843E2126857C82EFE09D
:102A2000BFDB41016FD0FFB1EFD27FAF011102CC0C
:102A300002CE99472A840149814463E6A700B7A4DE
:102A40004A0493840420228536C632C42EC2F53B44
:102A50009245B1473307F4022246B2469387816D0F
:102A60002285B3D4B402BA9792A394C7A6A3853F94
:102A7000996713172400938787A6BA9784438545DF
:102A80007D142685EFF0EF89054685452685EFE024
:102A90009FFF894763E787009387C1823E9403497C
:102AA00004008547A30CF1008D47230DF100280891
:102AB00085473ECE230C2101EFE0BF9E854526854C
:102AC000EFE09FF905616FD0DFA7EFD2BFA301113F
:102AD00002C802CA02CC02CE99472A8A3289B68439
:102AE000814963E6A700B7A94A0493890920996739
:102AF00013172A00938787A6BA9780432EC64209E8
:102B00002285EFE0BFC52285EFE01FF95285353BF6
:102B1000B245B1473307FA029387816D1359090112
:102B20005285B3D9B902BA9723902701130989F3C3
:102B3000239137016D35C167938707063EC8231B74
:102B40002101231C010093F7140089CB0C08228576
:102B5000EFE03FCF81452285EFE0BFF693F72400F9
:102B600089CB0C082285EFE07FD481452285EFE0F8
:102B70003FF693F7440089CB0C082285EFE07FDC19
:102B800081452285EFE03FF6A18889C80C0822859F
:102B9000EFE07FE481452285EFE0DFF52285854582
:102BA000EFE09FF022858545EFE09FEC854522858B
:102BB000EFE09FEA05616FD03F988280B707002061
:102BC0009387475F9843636FA702D043B386C700DC
:102BD0006316D50054413E85B296D4C35041B30626
:102BE000C500631CD700B706002083A6465E6306B7
:102BF000D70054431843B29654C118C16303F5007B
:102C000088C38280BA877DBF55C1EFD25F91B70775
:102C10000020032745FF83A7875E2A84B376F70049
:102C20009DE28967938707807390073037660000BD
:102C3000376500001306C6A793054012130545AA81
:102C4000EF10304B01A0832605FF9DC28967938753
:102C50000780739007303766000037650000130661
:102C6000C6A793055012130545AAEF10904801A07E
:102C700093C7F7FFF98F232AF5FEEF001028B70757
:102C800000209387C75E9443032744FF130504FF86
:102C9000369798C32537B70700209387075F984377
:102CA000050798C3EF00D0416FD0BF898280B7E796
:102CB00000E041572387E7402386E740B7F700E06D
:102CC00023A0070023A20700814694C70147D8C765
:102CD00037070020832507581307803E814633D6E7
:102CE000E5023D4790CBD4CB98C38280EFD23F839F
:102CF000411102C6F32750303EC6B2470D478D8BB7
:102D00006384E7028967938707807390073037668B
:102D1000000037650000130686AC9305600B1305B1
:102D200045AAEF10103D01A0B75700209387070078
:102D3000BD8B9DC389679387078073900730376683
:102D4000000037650000130686AC9305B00B130531
:102D500045AAEF10103A01A0993FB7E700E01167CC
:102D600023A0E710056723A0E71023A40180EFD07C
:102D70002FD9014541016FD0CFFC397106DE16DC39
:102D80001ADA1ED82AD62ED432D236D03ACE3ECC3B
:102D900042CA46C872C676C47AC27EC07311013474
:102DA00089679387078073900730B7F700E023A205
:102DB0000700EF00301611C5B7E700E0116723A048
:102DC000E7208967938787887390073073110134F0
:102DD000F250E2525253C2533255A2551256825605
:102DE0007247E2475248C248324EA24E124F824FBB
:102DF00021617300203089679387078073900730C3
:102E0000938781809843050798C3828013878180C8
:102E10001C438DE7EFD2AFF08967938707807390EB
:102E200007303766000037650000130686AC93054F
:102E30003010130545AAEF10D02B01A0FD171CC3BD
:102E400091E7896793878788739007308280096547
:102E5000130505807315053082807310053082805C
:102E6000930785007D575CC118C55CC51CC923202C
:102E7000050082802328050082809841FD56930733
:102E80008500631ED7001C49D843D8C10CC79CC518
:102E9000CCC31C4188C985071CC18280B687D44336
:102EA0009042E37DC7FECDB7544118451C4998C6F2
:102EB00054C3D4436393A600D8C398432328050082
:102EC0007D1798C388438280EFD26FE541112AC6EF
:102ED0001D373245005D1D3F1335140041016FD091
:102EE0004FE6304115C2EFD28FE358451445AA870B
:102EF000329758C56364D700184158C52E85CC4712
:102F0000EF10C07A6FD0EFE38280EFD24FE12A84D6
:102F1000DD358344540413094402E204E18463452B
:102F20009002FD57A302F404D535F13583444404DF
:102F300013090401E204E18463449002FD57230273
:102F4000F404E9356FD0EFDF5C50E1DF4A85EF0034
:102F5000904919C1EF007064FD14E204E184C1B727
:102F60001C48E9DF4A85EF00104819C1EF00F06204
:102F7000FD14E204E184C9B7EFD26FDA41111DE11B
:102F8000896793870780739007303766000037653D
:102F90000000130606AF93050011130545AAEF10B4
:102FA000501501A05C5D2EC62A84BDC33841B3B75D
:102FB000E702B9EF89353040585C1440232C0402F5
:102FC000B307E602B24554C03387F600918FB69737
:102FD0005CC4FD572302F40418C4A302F40495E171
:102FE0001C4899CB13050401EF00F03F11C5B7E76A
:102FF00000E0116723A0E720113D054541016FD096
:103000004FD413050401A93D13054402913DEDB7CA
:1030100089679387078073900730376600003765AC
:103020000000130606AF93055014130545AAEF10D0
:10303000500C01A0EFD2AFCE01119DE289679387BA
:10304000078073900730376600003765000013066D
:1030500006AF93059015130545AAEF10900901A03E
:1030600019C105C685E58967938707807390073086
:103070003766000037650000130606AF9305201879
:10308000130545AAEF10F00601A0F1FD9307800497
:103090003ECE72476304F702896793870780739077
:1030A00007303766000037650000130606AF93054A
:1030B000B016130545AAEF10D00301A0F2478547CB
:1030C0002383F60491E1368690C2C8DEACC2368511
:1030D000854536C65535B246056136856FD06FC613
:1030E000EFD26FC1011132C61DE189679387078056
:1030F000739007303766000037650000130606AF8F
:1031000093051055130545AAEF10A07E01A02A844F
:10311000AE898DE53C419DC3896793870780739095
:1031200007303766000037650000130606AF9305C9
:103130005055130545AAEF10C07B01A0EF00504782
:1031400015E5B247014985C7896793870780739062
:1031500007303766000037650000130606AF930599
:10316000A055130545AAEF10C07801A001497D5A6A
:10317000930A440237EB00E0916B8DA8B24789E7D0
:10318000EFF0DFC8014561A8631509002808EF00CA
:103190005034EFF0BFC79523EFF0FFC583474404D9
:1031A000E207E18763944701230204048347540440
:1031B000E207E18763944701A3020404EFF01FC50F
:1031C0006C002808EF0050323DE12285EFF0DFCFA0
:1031D00031C9B2455685EF0030152285EFF0FFD298
:1031E000EF00006E19E123207B210549EFF0BFC0FD
:1031F000045CC9D4CE852285FD14EFF09FCE04DC9B
:103200001C4899CB13050401EF00F01D11C5B7E769
:1032100000E0116723A0E720EFF05FBF05450561DF
:103220006FD0EFB02285EFF05FCE592D7DBF2285A4
:10323000EFF0BFCD71252285EFF01FC95DD599B79D
:1032400015E5EFD2CFAD896793870780739007307C
:1032500037660000856537650000130606AF938565
:1032600085AC130545AAEF10C06801A09DCD3716A7
:1032700000209306464981470147130646492148E5
:1032800083A846006398A80093173700B2978CC3B1
:10329000C8C321A891E783A8060063930800B687F6
:1032A0000507A106E31E07FDFDF38280EFD22FA7DD
:1032B00041112A842EC632C4EFF0FFB38347440481
:1032C0007D572246E207E187B2456394E700230277
:1032D0000404834754047D57E207E1876394E700C1
:1032E000A302040432C62EC4EFF05FB21C5CA245F8
:1032F000324689E713054402EF0090072285EFF07C
:10330000DFC041016FD0EFA301A0EFD2AF9F2A84AD
:10331000EFF07FAEB7070020938787609843B7042C
:103320000020B7190020050798C31387C45F18430E
:103330009384C45F1389494D61EB80C098438547EE
:103340006310F7069389494D130AC9124E85D109B6
:10335000EFF01FB1E31C3AFF37150020130A056098
:1033600013050560EFF0DFAF3715002093094561C5
:1033700013054561EFF0DFAE3715002013058562B8
:10338000EFF01FAE371500201305C563EFF05FADFA
:10339000B707002023A04761B707002023A23761A9
:1033A000B7070020938707619843050798C337073D
:1033B0000020130747615C54144363F3F6001CC3F9
:1033C0005147B387E702CA97D843144718C454C477
:1033D00010479306440054C214C798435CC80507BD
:1033E00098C3EFF0BFA2B707002083A7476299CB2D
:1033F0009C40D8575C546377F700B7E700E011674B
:1034000023A0E7206FD04F93B707002083A7476220
:10341000C1FB9C40D8575C54E3E4E7F880C049B74F
:1034200037070020130707601C439443B7070020A9
:103430009387876181E67D5798C3828018435847F8
:103440001843DDBFEFD20F8C4111AA89B2844284A8
:1034500003290803B1C5014641483385C50003056A
:103460000500B308C400238AA80201C50506E316B7
:1034700006FFA301040439466377E6028967938750
:103480000780739007303766000037650000130629
:1034900086B193057039130545AAEF10804501A048
:1034A000230A0802C9BF58D478C013054400232456
:1034B00004043EC636C43AC2EFF0DF9B1305840114
:1034C000EFF05F9B12473D4681453307E64018CC3D
:1034D000314600C840D01305C404EFD04F87A24640
:1034E0001395240071154A95230C0404A30C0404BD
:1034F000230D04043686CE854199EFC07FF0B24794
:1035000008C091C380C341016FD00F83EFC29FFFFA
:10351000B7040020B70700201389C45F83A987621E
:103520002A840325090041112EC61105EFF0DF970B
:103530007D579387C45FB2456311E4049DCDB717EF
:1035400000209387C76383260900D84398C6104795
:1035500083260900D0C6832609001047910654C26D
:1035600083260900910614C7032709005CCB984302
:10357000050798C341016FC03FFC98434E9440C378
:10358000637B340137070020032547608C43910596
:10359000EFF0BF8EC5B737070020032507608C43C7
:1035A0009105EFF09F8DB7070020938787619843BF
:1035B000E372E4FC80C37DBFEFC27FF641119DE35F
:1035C00089679387078073900730376600003765F7
:1035D0000000130686B19305A024130545AAEF1039
:1035E000403101A0428463140802896793870780F1
:1035F000739007303766000037650000130686B108
:103600009305B024130545AAEF10A02E01A093083E
:10361000C00546C632436304130389679387078056
:10362000739007303766000037650000130686B1D7
:1036300093053025130545AAEF10A02B01A0B24831
:103640002328F8028947A30DF8043C00EFF09FDF20
:103650002285EFF09FCB224541016FC09FEEEFC264
:103660001FEC411170002C00480002C202C4EFD0D0
:10367000CFF21248A2473246B76500003735000046
:10368000014781469385C5B213058530EFF0DFF21F
:1036900015C9EF00904D8547631BF5028967938735
:1036A000078073900730B70700207D5723ACE76091
:1036B000B707002023A2A762B707002023A4076250
:1036C000EFF0CFE283A7C18041016FC09FE7FD57B4
:1036D000E31AF5FE89679387078073900730376692
:1036E0000000856537650000130686B19385058463
:1036F000130545AAEF10E01F01A0B707002093872C
:10370000C7609843050798C38280B707002003A5C8
:1037100087628280B707002083A7C7606399071874
:10372000EFC2FFDFB707002093878762804305045D
:1037300080C321ECB70700209387076098431843A4
:1037400005C7896793870780739007303766000045
:10375000856537650000130686B1938575AC130542
:1037600045AAEF10001901A0370700201307476092
:103770009443104390C3B707002014C39387C761D5
:103780009843050798C3EFF0BFC937060020930799
:1037900086619C4337170020B70500201306866119
:1037A0001307474D9385C55F01456375F4029C413E
:1037B000D146DC57B387D7023E971843854763F35A
:1037C000E7000545B707002083A7C76291C30545F9
:1037D0006FC03FD7370E0020B70E0020514F930720
:1037E0000E609443944281E6FD571CC2C9B79C43C6
:1037F000DC47DC47D4436374D40014C24DBF83A8B4
:10380000870003A8C700D44B1383470023A40801F3
:103810002322180183A846006394680023A20601AE
:1038200003A8060023AA07007D1823A006019457C9
:1038300095CA03A8C70183A8070283AF46002324C3
:10384000180183A8070223A2080113888701639443
:103850000F0123A2160103A8060023A407027D1866
:1038600023A0060193864E6103A8C70283A8060021
:1038700063F4080123A00601B306E803BA9683A8FF
:10388000460083AF880023A4170123A6F70183AF66
:10389000880023A26F0023A46800D4CB9C42850734
:1038A0009CC29C41DC57E36CF8F205450DBFB7079D
:1038B00000209387076298430145050798C38280DB
:1038C000EFC25FC4370400201304C4601C404111E0
:1038D00085E7896793870780739007303766000014
:1038E000856537650000130686B19385358B130512
:1038F00045AAEF10000001A0EFF0EFCF1C40FD172C
:103900001CC01C4089CB01452AC6EFF02FD03245A0
:1039100041016FC07FC2B707002083A78760E5D74A
:10392000B716002037150020814793868662370F2F
:1039300000201305454DD14837030020370E0020E5
:10394000854E59A8DC46DC47CC4F9053985790C51C
:1039500003A807022322B8000328470093858701A4
:103960006313B80050C3104323A407027D1610C38D
:103970008C47D047D84B1388470090C54CC24C4366
:103980006393050150C3104323AA07007D1610C39B
:1039900013074F61D0570C4363F3C50010C33307BF
:1039A00016032A974C4383AF85008CC723A6F701E3
:1039B00083AF850023A20F0123A405010C43D8CBBC
:1039C00085050CC31307C35F184358576366E600A9
:1039D0001307CE622320D70198422DF799C3EFF049
:1039E0003FA4B707002013870762044313840762CC
:1039F00099CC370900208549EFF0DFD109C593073D
:103A0000C96223A03701FD14E5F823200400B7079D
:103A1000002083A7C762E38807EEB7E700E01167DD
:103A200023A0E7200545CDB519E5B7E700E011670C
:103A300023A0E7208280EFC29FAEB707002083A7B4
:103A4000C76041119DC389679387078073900730D2
:103A50003766000037650000130686B19305905461
:103A6000130545AAEF00F06801A02AC6EFF0FFC8D1
:103A700032458145EFF09FA9EFF09FE411E5B7E7EC
:103A800000E0116723A0E72041016FC09FABB7079B
:103A9000002003A7C760B70700209387C76201C74C
:103AA000054798C3828023A00700B707002013872B
:103AB0004761184313864761B71700209387474D26
:103AC0005148B3060703B385D700884115C5C841DF
:103AD000A106BE964841C8C16314D5005441D4C163
:103AE000D146B306D702B697DC43D447B7070020C8
:103AF00023AED75E18C2828015E7EFC25FA2896746
:103B000093870780739007303766000085653765B7
:103B10000000130686B1938525C0130545AAEF0062
:103B2000505D01A07D1771BFEFC27F9F05E58967DA
:103B30009387078073900730376600008565376587
:103B40000000130686B19385C5C1130545AAEF0091
:103B5000505A01A0B70700202E8483A5C75FE10556
:103B6000EFF0AFB185452285EFF05F9A6FC07F9D82
:103B7000EFC2FF9A2A8705E58967938707807390CC
:103B8000073037660000856537650000130686B18B
:103B9000938525C5130545AAEF00B05501A0B707C9
:103BA00000209387C75F54432E858C4303A886006B
:103BB000D4CD8C4323A0050303A807008C466108DD
:103BC00023A2050103A807009C43610823A4060162
:103BD00098D71C4385071CC311C27D55B285EFF0F1
:103BE000FF926FC01F965C45DC4795E7EFC23F939D
:103BF0008967938707807390073037660000856573
:103C000037650000130686B1938525C8130545AABC
:103C1000EF00304E01A0D04F945398579385870101
:103C200014C6D0C250436313B60054C3144323A434
:103C30000702FD1614C3370700200327C760D457B7
:103C400025EF8C47D047D84B90C5D04748434CC24E
:103C5000938547006313B50050C3104323AA0700A0
:103C60007D1610C3370700201307476110436373A5
:103C7000D60014C351473386E602371700201307D6
:103C8000474D32975043084690C7C8C708464CC1B5
:103C90000CC6D8CB1C43014585071CC3B7070020C1
:103CA00083A7C75FDC5763F8D700B7070020054735
:103CB00023A6E76205458280371700201307876235
:103CC00050430846D0CF88D308464CC10CC698D77D
:103CD000D1B7B707002083A7C7611CC1B707002071
:103CE00083A787625CC18280EFC27F83411105E5B3
:103CF0008967938707807390073037660000856572
:103D000037650000130686B19385D5CF130545AA04
:103D1000EF00303E01A085E58967938707807390A7
:103D2000073037660000856537650000130686B1E9
:103D30009385E5CF130545AAEF00B03B01A02EC641
:103D40002AC4EFF04F8BB245B707002083A68762E5
:103D50009C417D5701446381E702224537060020DC
:103D60000326C661032805005841630DC80063EBB4
:103D7000E60023A005000544EFF04F8922854101AC
:103D80006FC02FFC3386E640E375F6FE958FBA9739
:103D90009CC1EFF01FF40144C5B7B70700200547E9
:103DA00023A6E7628280B707002003A5C75F828051
:103DB000B707002083A74762054581CBB7070020DE
:103DC00003A5C7601335150006058280EFC28FF387
:103DD0008947411163F5A70289679387078073902C
:103DE000073037660000856537650000130686B129
:103DF00093856526130545AAEF00B02F01A02A89F7
:103E000037040020AE8932C6EFE0FFFE9307C45F9F
:103E10009C439304090113972400BA97DC471304C9
:103E2000C45F8DE31C4032460547CA97238CE704E4
:103E300011CA85453285EFF06FEDB7E700E01167F5
:103E400023A0E720EFE09FFCEFE0FFFA18409397F4
:103E500024003E97484719C5184063800902BA9765
:103E600023A607001C402AC63E99230C0904EFE054
:103E7000FFF9324541016FC02FEC9306F5FFBA9769
:103E8000D4C7CDB7EFC2AFE9011105E589679387C4
:103E9000078073900730376600008565376500003E
:103EA000130686B193855538130545AAEF00702493
:103EB00001A02A8409456375B50289679387078045
:103EC000739007303766000085653765000013067C
:103ED00086B193856538130545AAEF00902101A0AE
:103EE0003ECE3ACC36CA32C82EC6EFE05FF6624705
:103EF000B2454246D246F24709CB138805010A086B
:103F000022980328C800232007013308B400034780
:103F100088058948230C180511481377F70F636645
:103F2000D80419688A06130848B0C296944282865B
:103F30008A05A295F445558EF0C58546630FD704D2
:103F40000544EFE09FF1228505616FC08FDF8A0590
:103F5000A295F4458506F4C5CDB78946630CD71004
:103F6000C1058A05A295D0C5C9BFB706002083A6A2
:103F70008662E1D68967938707807390073037663A
:103F80000000856537650000130686B19385D53C32
:103F9000130545AAEF00F01501A0185405C789675D
:103FA0009387078073900730376600008565376513
:103FB0000000130686B19385853D130545AAEF00E1
:103FC000501301A0370700200327C760505451E366
:103FD0000C445444584894C5544403284700CCC268
:103FE000930544006313B80054C31443232A040008
:103FF000FD1614C33707002013074761144363F30A
:10400000C60010C35147B306E60237170020130756
:10401000474D3697544303A8860014C42326040151
:1040200003A886002322B8008CC658C8144385060E
:1040300014C3370700200327C75F5857E372C7F040
:1040400099C3054798C3B7070020054723A6E76231
:10405000C5BD371700201307876254438C4654CCE4
:104060000CD003A88600930584012322B8008CC6D7
:1040700018D46DBF0144F1B5EFC26FCA37040020F8
:10408000EFE07FD71304C4631C40B1EF3715002065
:104090001309056913050569EFE09FDC371500205A
:1040A0009304456A1305456AEFE09FDBB7070020DC
:1040B000B71600203716002023A827630147B7074B
:1040C00000209386866B13060665C145114523AA19
:1040D0009762EFE03FF608C019C5B7650000938509
:1040E00085B5EFF0EF95EFE07FD26FC08FC5EFC2DF
:1040F0000FC34CC108C9AA876362B602184D158E5A
:104100000545637BE60093854700B707002003A5BC
:104110004763EFE09FD601456FC0AFC26375D6001D
:104120000545E3FBD5FE93854700B707002003A5AF
:104130000763C5B7EFC2AFBE2A84AE8432890C4C88
:10414000A6864A86A6952285EFF07FFA19E16FC010
:104150004FBF1C4C2285BE941C508297CDB7EFC236
:104160000FBCB707002083A707634111AA84DC476F
:104170002EC6C04713054400EFE01FD38347440217
:10418000324613F7470019CBA6852285EFF09FFA38
:104190001C502285829741016FC0AFBAF99B230260
:1041A000F402FDB7EFC2AFB73704002093060463F3
:1041B00098421C4391EBB7070020938747639043D5
:1041C00098C390C26FC0EFB75C47FD558843EFF0CE
:1041D0001FF9E9BFEFC22FB219694111B70A0020D8
:1041E000B7090020370B0020B70B0020130949B393
:1041F00083A70A63984329CBDC47814C03AC0700B3
:10420000EFF0AFCFEFF06FD083A789632A84938458
:104210008963130ACB63636CF50288C063800C0466
:1042200083A74B6390431336160003250A00B3059A
:104230008C40EFF0AF87EFF0AFE819EDB7E700E0A3
:10424000116723A0E72009A8854C014C55BFEFF06A
:104250007FF580C0EFF0CFE6214C0DA00146E3666C
:1042600085FDEFF0EFE5A2856285EFF05FEFEDB73A
:104270009247B2458297824763DD070003250A0013
:1042800001468A85EFE0DFE525D582472245E3C177
:1042900007FE22445C489DE3EFF02FC79C40AA8CA8
:1042A0006374F500EFF01FF0824723A09401FD171F
:1042B000E366FCFC8A07CA979C4382871305440087
:1042C000EFE09FBED1BF834744020C4C924693E778
:1042D00017002302F4026686B6952285EFF03FE1CF
:1042E00051DD8347440213F7470001CF1C4C924530
:1042F00066862285BE95EFF0FFE31C5022858297EB
:10430000B5BFF99B2302F402CDBF83474402F99B5A
:104310002302F402A5B783474402924593E71700AE
:104320002302F4020CCC95E1896793870780739090
:1043300007303766000037650000130606B69305A0
:104340009035130545AA752301A0E6866686E69595
:104350002285EFF0DFD91DB78347440213F727000A
:104360005DF72285EFE05F8A11BFEFC24F9B4111DD
:10437000EFF09FD0B707002083A7C76385CF7000F9
:104380002C00480002C202C4EFC07FA2A24712481C
:104390003246B765000037450000394781469385AE
:1043A00085B71305451DEFF02FA1B707002023A007
:1043B000A76415E189679387078073900730376694
:1043C000000037650000130606B69305901113052B
:1043D00045AA052301A0054541016FC08F96B70787
:1043E000002083A7075837177A0013070720B3D791
:1043F000E7023707002093F7F70F2303F76413074B
:10440000803EB387E702370700202312F7648280DB
:10441000EFC2EF902A841165011185451105EFD097
:10442000CF9E930700207C82371501408D473EC404
:104430004C00E147130505803EC6EFC01FC522C8EA
:1044400037440140B70708000C08130504803ECC30
:1044500002CA231E0100EFD08FED854513050480AD
:10446000EFD0AFF805616FC0CF8DEFC2AF89B74411
:104470000140AE893289014493840480634524015C
:104480004A856FC06F8B930500042685EFD0CFF768
:104490007DD9B38789008385070026850504C20579
:1044A000C181EFD0EFF5D9BF138701811C43B71647
:1044B0000020938646703E95636BD500B75600206A
:1044C0009386068063E5A60008C33E858280FD577B
:1044D000EDBF7325103482807325203482807325CC
:1044E0003034828009458280EFC26F8325440DCD30
:1044F00085CD9DCA1841044539441DC75C4599E3E3
:1045000063799602254463F197029D8C3E97637010
:104510009602B2975CC5B2847D5436892E85268674
:10452000BA8569222320990022856FC08F812326B6
:1045300005000144DDB7EFB29FFEA54405CD9DC93E
:1045400095CA2A8700450841B9440DC55C4799E3DF
:1045500063778602A54463FF87001D8C3E95637ECA
:104560008600B2975CC73284FD54368922863D2A84
:104570002320890026856FB0DFFC23260700B14485
:10458000E36AC4FE8144D5B709458280154715C149
:104590005C41154799CF254709CE383109483D8BF5
:1045A000630E07050D48630807010548630C070102
:1045B00025473A858280834825000147639DE806A8
:1045C0003947C5BF3947F5F5D82318AA98439C4702
:1045D00018C218451CC611C3ADCAB747000093875F
:1045E000874E5CCAB7470000938767531CCE2322CF
:1045F0000600232606000CBA014765BF03482500C4
:104600003947E3F805FB99E5982718AA9C431CC293
:104610008547C1B7983718AA03A84700630908005F
:1046200083A807011387F5FF330717033A98232060
:104630000601DC4779BF3E88B10703C387FF6307E4
:10464000B30205071377F70F95BF5C4389E7B747B8
:1046500000009387474E5CCA1C4789E7B7470000B4
:10466000938787581CCE1C435CC261B783475800B0
:104670001CAA832708001CC28327880099BFEFB2B9
:104680001FEA01113284B6845000BA8602C0EFF0EE
:10469000FFEF11E932462D4563179600F2478A86EF
:1046A000A2854800829705616FB0BFE9B3C7A50036
:1046B0008D8B3307C50081E78D4763EDC700AA875F
:1046C000637EE508942185078505A38FD7FEE3EB7C
:1046D000E7FE828093763500AA8789CA94218507F0
:1046E0008505A38FD7FE93F63700C5BF9376C7FF26
:1046F000138606FE63F0C70683A3050083A2450068
:1047000083AF850003AFC50083AE050103AE45014D
:1047100003A3850183A8C5019385450223A07700E3
:1047200003A8C5FF23A2570023A4F70123A6E7018E
:1047300023A8D70123AAC70123AC670023AE170122
:104740009387470223AE07FF75B790419107910504
:1047500023AEC7FEE3EBD7FEE3E6E7F68280DDC5D6
:1047600083A7C5FF411122C406C626C21384C5FF14
:1047700063D307003E94AA84EF00901397C7FF1FEE
:104780009387C7EC9C4391EF2322040097C7FF1F38
:1047900023AE87EA2244B2402685924441016F004D
:1047A0005011637EF40014403307D4006396E70091
:1047B0009843DC43369718C05CC0C9BFBA87D8435A
:1047C00019C3E37DE4FE94433386D700631F86005C
:1047D0001040B29694C33386D700E31DC7FA104346
:1047E0005843B29694C3D8C375B76375C400B14734
:1047F0009CC04DB71040B306C4006316D7001443E5
:104800005843B29614C058C0C0C369B78280011122
:1048100026CA93843500F19806CE22CC4AC84EC6EB
:10482000A104B14763F9F404B14463E8B4042A89EC
:10483000EF00100897C7FF1F938747E198433A841A
:1048400039E497C7FF1F9387A7E09C4381EB81451D
:104850004A85C12297C7FF1F23ACA7DEA6854A85DC
:104860004D2AFD59631B3507B1472320F9004A85BE
:10487000EF00300429A0E3DA04FAB1471CC1014576
:10488000F2406244D2444249B249056182801C40F0
:10489000858F63C10704AD4663F6F6001CC03E94E5
:1048A00004C001A85C406315870217C7FF1F232FB0
:1048B000F7D84A85EF00E07F1305B4009307440062
:1048C00061993307F5404DDF3A94898F1CC04DBF85
:1048D0005CC3C5B722874040A5B713043500719863
:1048E000E30085FCB305A4404A852522E31A35FB85
:1048F000A5BF39713EDA2ED232D436D63AD842DC50
:1049000046DE9387818222CC804326CA06CEAA84C3
:1049100009C41C4C99E322851D2B0C445410268697
:10492000228536C6EF00A07FF2406244D244216166
:104930008280011126CA4AC806CE22CC4EC652C475
:10494000AA842E8901C51C4D91E311239C4C8044FF
:1049500099E32685ED29972700009387678A631BD3
:10496000F402C0405E24A18BB1C71C48A1C7FD5909
:10497000294A1C4483450900FD17B1E91CC463DDC5
:1049800007062286A94526857528FD576308F50286
:10499000294535A097270000938787886314F40082
:1049A0008044C9B79727000093878783E31CF4FAF4
:1049B000C0444DBFA2852685A12255D97D55F24020
:1049C0006244D2444249B249224A056182801CC4F1
:1049D000050963D70700184C63CAE70063884501DF
:1049E0001C401387170018C08CA361B72286268548
:1049F0009128E31035F9D9B71C401387170018C068
:104A0000294798A371B793878182AA8588436FF05D
:104A10005FF2411122C42A842E8597D7FF1F23A35A
:104A200007CE06C6EFF05FA8FD576319F50097D7CC
:104A3000FF1F938727CD9C4391C31CC0B2402244E3
:104A400041018280011122CC26CA4AC806CE4EC638
:104A5000AA842E89328401C51C4D91E3CD2E97176F
:104A600000009387E7796317F406C0401C4C1CC410
:104A70005E24A18BC1C31C48B5CF1C480840937964
:104A8000F90F1379F90F1D8D5C486346F500A28577
:104A90002685792C25E51C440505FD171CC41C4002
:104AA0001387170018C0238037015C486388A7006C
:104AB0005E24858B81CBA9476316F900A2852685E4
:104AC000852C0DEDF24062444A85D2444249B249F8
:104AD0000561828097170000938787746314F40040
:104AE000804469B7971700009387876FE310F4F845
:104AF000C044ADBFA2852685212041D17D59D9B7BB
:104B000041119387818226C2844322C44AC006C6CB
:104B10002A892E8489C49C4C99E326850D2E9717EB
:104B200000009387E76D631BF402C0400317C400C5
:104B300093170701C18393F68700B5EA93F607013F
:104B400095EEA5472320F900136707045AA47D5565
:104B5000B2402244924402494101828097170000EA
:104B60009387076C6314F4008044C9B7971700005B
:104B700093870767E31CF4FAC0444DBF918B85C748
:104B80004C5891C9930744046385F5004A85EFF0BA
:104B90001FBD232A04025E242322040093F7B7FDDD
:104BA0005EA41C481CC05E2493E787005EA41C48DA
:104BB00099EB5E241307002093F707286385E7002D
:104BC000A2854A85A1295E2413F717001DC35C48FE
:104BD00023240400B307F0401CCC1C480145ADFB66
:104BE0008317C40013F7070825D793E707045EA4CB
:104BF000B9BF898B014791E3584818C4F9BFDE2536
:104C0000011122CC26CA06CE4AC84EC613F7870029
:104C1000AA842E8461EFD841634DE000B841634A15
:104C2000E0000145F2406244D2444249B249056184
:104C3000828058547DD703A904009396370123A09E
:104C4000040063DC060670485E24918B99C75C40C3
:104C50001D8E5C5899C33C401D8E5C540C5081469F
:104C600026858297FD575A24631DF5009440F54729
:104C700063E9D706B70740208507B3D7D700858BF0
:104C8000ADC31C48232204001CC09317370163D80E
:104C90000700FD576314F5009C4091E368C84C5829
:104CA00023A02401BDDD930744046385F500268518
:104CB000EFF0FFAA232A0402ADB70C500146854647
:104CC00026850297FD572A86E310F5F89C40ADDF54
:104CD00075476385E70059476393E70423A02401E0
:104CE00089B7136707045AA47D552DBF83A9050111
:104CF000E38909F203A905008D8B23A0350133094F
:104D00003941014791E3D84918C4E35C20F11C54B0
:104D10000C50CA864E86268582976347A0005E2483
:104D200093E707045EA4C9B7AA993309A940F1BF64
:104D30009C49A5C3011122CC06CE2A8411C51C4D65
:104D400081E72EC62922B245971700009387474B6B
:104D5000639CF5004C408397C5009DC72285624443
:104D6000F24005616FF0BFE9971700009387474B4A
:104D70006394F5000C44C5B7971700009387474626
:104D8000E39BF5FC4C44C1BFF24062440145056120
:104D9000828001458280411122C406C62A844EA524
:104DA00072A52320050023220500232405002322C9
:104DB000050623280500232A0500232C050021468B
:104DC00081451305C505EFB08FF89717000093874D
:104DD000A7985CD0971700009387C79A1CD49717A1
:104DE00000009387A79E5CD497170000938707A1C4
:104DF00000D01CD8B24022444101828097050000B7
:104E0000938545F399AA411126C21306800693841F
:104E1000F5FFB384C4024AC02E8922C406C6938516
:104E20004407EFF0DF9E2A8401CD232005002322D2
:104E30002501310508C4138684068145EFB02FF1A2
:104E40002285B240224492440249410182801C4D95
:104E5000A5E7411106C622C497070000938747FAC9
:104E60001CD5938741839C432324050423260504F2
:104E7000232805046314F50085471CCD2A843528B2
:104E800048C022851D2808C42285052848C44840FA
:104E900001469145EFF03FF008440546A545EFF087
:104EA0009FEF48440946C945EFF0FFEE85471CCC0B
:104EB000B240224441018280828041119387418324
:104EC00026C284434AC006C69C4C22C42A8981E774
:104ED0002685EFF0DFF7938484048044DC40FD17DF
:104EE00063D607009C40B9CF8440C5BF0317C400F8
:104EF00039E7C177850723220406232004002322F3
:104F00000400232404005CC423280400232A040092
:104F1000232C0400214681451305C405EFB02FE37F
:104F2000232A0402232C0402232404042326040439
:104F30002285B240224492440249410182801304F6
:104F4000840671BF91454A85EFF0FFEB88C049FDAB
:104F5000B1472320F9000144E1BF797122D44AD03E
:104F600052CC56CA5AC85EC606D626D24ECE2A8A19
:104F7000AE8A130485040149054BFD5B09ECB25070
:104F800022544A8592540259F249624AD24A424B0B
:104F9000B24B45618280044483294400FD1963D4E7
:104FA00009000040E1BFDE24637BFB008397E4003F
:104FB00063877701A6855285829A3369A900938415
:104FC0008406E9BF1971A6DAAE848395E500A2DCF8
:104FD00086DE328463DB0500DE2423A0060093F71F
:104FE000070885E7930700401DA0300836C6EF008C
:104FF0007007B246E34205FE7247BD67F98F7977C5
:10500000BA9793B717009CC2F1BF930700041CC066
:10501000F6506654D654014509618280DE2501119F
:1050200022CC06CE26CA4AC8898B2E8489CF930704
:1050300074041CC01CC885475CC8F2406244D2445A
:1050400042490561828074003000AA84EFF09FF726
:10505000A2452A892685EFF08FFB19E98317C40042
:1050600013F7072079FBF19B93E727005EA4C1B7F4
:10507000970700009387C7D89CD45E2408C008C84F
:1050800093E707085EA4A2475CC8B24781CF8315A7
:10509000E4002685EF00300011C55E24F19B93E704
:1050A00017005EA45E243369F9002316240171B74A
:1050B000828082801C46FD171CC663DA0700184EEA
:1050C00063C5E700A9476394F5006FF0BF971C42E2
:1050D0002E851387170018C28CA38280011122CC61
:1050E00026CA4AC84EC652C406CE2A89AE89328420
:1050F000B304D6007D5A63149400014509A80C201E
:105100004E864A85EFF01FFB0504E31645FFF2408B
:105110006244D2444249B249224A056182803571D3
:1051200022CD26CB4AC94EC706CF52C556C35AC157
:10513000DEDEE2DCE6DAAA89AE843289368409C58D
:105140001C4D99E3EFF0BFD0971700009387470BF2
:105150006398F40C83A44900DE24A18BE5C79C4826
:10516000F5C393070002A304F1029307000302D2E0
:105170002305F10222C6930B5002971A0000938A6E
:105180002A0C054C294B4A841C2099C3639F770D38
:10519000B30C2441638E0C00E6864A86A6854E85B4
:1051A000EFF0DFF3FD57630FF51C9256E69636D20B
:1051B0001C206389071CFD571309140002C802CE86
:1051C0003ECA02CCA309010482D4834509001546D6
:1051D0005685252713041900C24751E913F7070123
:1051E00009C713070002A309E10413F7870009C7E1
:1051F0001307B002A309E104834609001307A002C4
:10520000638FE606F2474A848146254618209305B7
:105210001400130707FD6377E60AB5CA3ECE85A8DA
:10522000971700009387C7FF6395F40083A4890054
:1052300025B7971700009387A7FAE39FF4F083A49C
:10524000C90019BFA6854E85EFF09F8B19D97D55F2
:10525000FA406A44DA444A49BA492A4A9A4A0A4B05
:10526000F65B665CD65C0D618280050431BF330558
:1052700055413315AC00C98F3EC82289B9B73247B2
:1052800093064700184336C6634707023ACE1820F4
:105290009307E002631DF70418309307A002631B15
:1052A000F702B2470904138747009C433AC663C11B
:1052B00007023ECA2DA83307E04093E727003ACE05
:1052C0003EC8F1B7B387670385462E84BA973DBFC2
:1052D000FD57C5B7050402CA8146814725461820F7
:1052E00093051400130707FD6374E606F9F20C201A
:1052F0000D4617150000130525F5012511CD97174B
:105300000000938767F41D8D93070004B397A700EF
:10531000424505045D8D2AC80C201946171500006A
:105320001305C5F2130914002304B102F92335C192
:1053300097B7FFFF938707CD95E74247B2471377AB
:10534000071009CF91073EC69257D2973ED225BD8E
:10535000B387670385462E84BA9751B79D07E19BB3
:10536000A107D5B7780097060000938666D72686F2
:105370000C084E8597000000E7000000FD572A8AC0
:10538000E314F5FCDE2493F70704E39207EC1255CF
:10539000C1B5780097060000938686D426860C084F
:1053A0004E85012AE1BF797156CA9C49BA8A98454F
:1053B00022D426D24ECE52CC06D64AD05AC85EC689
:1053C000AA892E84B284368A63D3E700BA879CC048
:1053D0000347340419C385079CC01C4093F7070298
:1053E00081C79C4089079CC0032904001379690088
:1053F000631A0900130B9401FD5B5C449840998F7C
:10540000634CF9041C408346340493F70702B33617
:10541000D000A5EB13063404D2854E85829AFD5741
:105420006303F5041C4011469840998B5444814411
:105430006397C700B384E64063D3040081441C44EF
:1054400018486354F700998FBE94014969047D5B45
:1054500063982405014509A885465A86D2854E855C
:10546000829A631E75017D55B2502254925402599E
:10547000F249624AD24A424BB24B456182800509E9
:10548000ADBF3307D40013060003A301C7040347CD
:10549000540493871600A2978906A381E7049DBF51
:1054A00085462286D2854E85829AE30E65FB0509E4
:1054B00045B7797122D426D24AD04ECE06D652CCE8
:1054C00056CA5AC8B689942D930790063289AA8481
:1054D0002E8413863504638DF60263E2D7069307A4
:1054E00080056386F61863EDD700638E0620930768
:1054F0003004638EF60A930A24042301D404C9A05D
:10550000930730066385F60A93074006E395F6FE97
:105510001C40084393F6070893054500C5C61C4187
:105520000CC363D807001307D002B307F040A301F0
:10553000E404971600009386E6D1294765A89307EF
:1055400000076382F61663E5D7029307E0066389D6
:10555000F6189307F006E390F6FA0C401C4313F894
:105560000508138547006307080608C39C4385A800
:1055700093075007E383F6FE930780076389F612CB
:1055800093073007E399F6F61C43D0418145938693
:10559000470014C383AA07005685852601C5330535
:1055A000554148C05C401CC8A301040461A81C43C9
:1055B000930A2404938647009C4314C32301F404F4
:1055C0008547D5B793F607041C410CC3B9DAC20767
:1055D000C18781BF93F5050408C3C9D99E2313076A
:1055E000F0066387E60E971600009386A6C6294745
:1055F000A30104044C400CC463C5050008406D9928
:1056000008C099E3B28A89CDB28AB3F5E702FD1AE0
:10561000B6958C212380BA00B3D5E70263F0E70C7E
:10562000A147631EF7001C40858B91CB58401C4856
:1056300063C7E70093070003A38FFAFEFD1A330642
:10564000564110C84E87CA867000A2852685EFF0A5
:105650009FD57D5A631D450B7D55B25022549254FF
:105660000259F249624AD24A424B45618280A38282
:10567000D504971600009386E6BD0C40084313F846
:1056800005081C411105630D080208C313F7150036
:1056900001C793E505020CC04147B9FB0C4093F5E7
:1056A000F5FD0CC0B1B79C4193E707029CC193077D
:1056B0008007A302F404971600009386E6BA75BF2C
:1056C00013F8050408C3E30308FCC207C1837DBFC8
:1056D00097160000938606B8214719BFAE8735B7E5
:1056E00094411C43CC4913F8060813854700630610
:1056F000080008C39C438CC339A008C393F6060472
:105700009C43F5DA8EA323280400B28A25BF1448EF
:105710005686CA8526858299E30045F51C40898B0B
:105720008DE7B2474844E35AF5F23E853DB78546DA
:105730005686CA8526858299E30065F3050A5C448E
:105740003247998FE345FAFEE9BF014A930A940173
:105750007D5BF5B7411122C42E848395E50006C612
:105760004D2A634905007C48AA977CC8B240224470
:10577000410182805E247D777D17F98F5EA4FDB79D
:10578000DE25011122CC26CA4AC84EC606CE93F7A2
:105790000710AA842E843289B68991C78395E500C3
:1057A000894601460D225E247D777D17F98F5EA420
:1057B0008315E4006244F240CE864A86B2494249EB
:1057C0002685D244056125A8411122C42E848395E3
:1057D000E50006C6CD28FD575A24631AF500FD776B
:1057E000FD17F98F5EA4B240224441018280856793
:1057F000D98F5EA468C8C5BF8395E50025A841116F
:1058000022C42A842E85B285368697C7FF1F23AB14
:1058100007EE06C6EFE07FC5FD576319F50097C791
:10582000FF1F938727EE9C4391C31CC0B2402244C4
:1058300041018280411122C42A842E8597C7FF1F0F
:1058400023A207EC06C60122FD576319F50097C78E
:10585000FF1F938727EB9C4391C31CC0B240224497
:1058600041018280411122C42A842E85B28597C7C6
:10587000FF1F23A907E806C6F928FD576319F5009D
:1058800097C7FF1F938707E89C4391C31CC0B24092
:10589000224441018280411122C42A842E8597C767
:1058A000FF1F23A107E606C67D28FD576319F500F3
:1058B00097C7FF1F938707E59C4391C31CC0B24065
:1058C000224441018280411122C42A842E85B2855E
:1058D000368697C7FF1F23A707E206C66928FD572C
:1058E0006319F50097C7FF1F9387C7E19C4391C3D6
:1058F0001CC0B24022444101828093F5F50F2A96E4
:105900006314C500014582801C21E38EB7FE0505A6
:10591000C5BF411122C42A842E85B285368697C719
:10592000FF1F23A107DE06C6B928FD576319F5003E
:1059300097C7FF1F938707DD9C4391C31CC0B240EC
:105940002244410182809307800517C7FF1F232B44
:10595000F7DA7D5582809307800517C7FF1F232341
:10596000F7DA7D5582809307800517C7FF1F232B29
:10597000F7D8014582809307800517C7FF1F2323AF
:10598000F7D87D5582809307800517C7FF1F232B0B
:10599000F7D67D5582800000486172644661756C5F
:1059A000745F48616E646C65720D00006D657063B4
:1059B00020203A253038780D0A0000006D636175AB
:1059C00073653A253038780D0A0000006D747661F1
:1059D0006C203A253038780D0A000000537461724B
:1059E0007400000073686F756C646E2774207275A4
:1059F0006E20617420686572652121005765206101
:105A00006C69766521210D0050726F636573735464
:105A100061736B004465665461736B00CE230000B4
:105A2000E82300001C24000030240000442400006F
:105A300056240000C8240000DE2400003A2500009F
:105A400064250000082400002425000064280000CC
:105A5000722800007A2800007E28000082280000BA
:105A6000862800008A280000002C01400000004029
:105A70000004004000080040000C00402E2E2F467D
:105A800072656552544F532F706F727461626C650A
:105A90002F4D656D4D616E672F686561705F342EA7
:105AA00063000000657272206174206C696E65206D
:105AB0002564206F662066696C6520222573222E7E
:105AC000200D0A20000000002E2E2F467265655220
:105AD000544F532F706F727461626C652F4743434C
:105AE0002F524953432D562F706F72742E6300004E
:105AF0002E2E2F4672656552544F532F7175657562
:105B0000652E63003A3F0000303F00004E3F00002A
:105B1000603F00005A3F00002E2E2F4672656552EE
:105B2000544F532F7461736B732E630049444C457B
:105B300000000000C6420000C64200000A43000008
:105B40001643000058430000C6420000C642000051
:105B50000A43000016430000546D7251000000001B
:105B60002E2E2F4672656552544F532F74696D6502
:105B700072732E6300000000546D72205376630030
:105B80005003002041000000040000001C0300201E
:105B90000100000001000000000000000000000003
