:100000006F20B02813000000130000001300000050
:100010001300000013000000130000001300000094
:100020001300000013000000130000001300000084
:08003000130000007300100032
:100038000000000000000000E0110000E2110000D4
:1000480000000000222A000000000000000000005C
:10005800242A0000262A00000000000000000000FA
:100068008C6A000000000000000200000000000090
:100078002C2A00002E2A0000302A0000C66000004A
:10008800342A0000362A0000382A00003A2A0000E4
:100098003C2A00003E2A0000402A00007C5500004F
:1000A800442A0000E2550000B45600004C560000F7
:1000B8004C2A00001A570000524E0000525100000E
:1000C8003652000098520000FC5200005A2A0000E4
:1000D8005C2A000056620000602A0000622A0000C4
:1000E800B863000042630000CC620000E85E0000D4
:1000F800345F0000805F0000CC5F0000722A0000BF
:10010800742A0000762A0000782A00007A2A000063
:100118007C2A00007E2A0000802A0000822A000033
:10012800842A0000862A0000882A000000000000B7
:080138000000000000000000BF
:10020000130181F806C216C41AC61EC822CA26CC1B
:100210002ACE2ED032D236D43AD63ED842DA46DC76
:100220004ADECEC0D2C2D6C4DAC6DEC8E2CAE6CC46
:10023000EACEEED0F2D2F6D4FAD6FED8F3220030CF
:1002400096DA9702002083A2A24123A02200F32580
:1002500010342EC003A1C182EF7070491703002033
:100260000323034003210300824273901234D652C9
:10027000739002309240A2423243C2435244E2445D
:10028000724582551256A2563257C2575258E258FA
:1002900072598649164AA64A364BC64B564CE64C0E
:1002A000764D865D165EA65E365FC65F13018107DA
:1002B0007300203013000000130000001300000042
:1002C00013000000130000001300000013000000E2
:1002D00013000000130000001300000013000000D2
:1002E00013000000130000001300000013000000C2
:1002F00013000000130000001300000013000000B2
:1003000083A2C182938202E073900234170100201D
:1003100003210135024182403243C2435244E24448
:10032000724582551256A2563257C2575258E25859
:1003300072598649164AA64A364BC64B564CE64C6D
:10034000764D865D165EA65E365FC65FD652A1020A
:1003500073900230A24213018107828013000000D3
:100360001300000013000000130000001300000041
:100370001300000013000000130000001300000031
:100380001300000013000000130000001300000021
:100390001300000013000000130000001300000011
:1003A0001300000013000000130000001300000001
:1003B00013000000130000001300000013000000F1
:1003C00013000000130000001300000013000000E1
:1003D00013000000130000001300000013000000D1
:1003E00013000000130000001300000013000000C1
:1003F00013000000130000001300000013000000B1
:10040000F322003093F272FF130380181203B3E259
:100410006200711523205500130585FA10C12115BE
:10042000232005009302000063870200711523203A
:100430000500FD12D5BF71150CC1828000000000BF
:1004400000000000000000000000000000000000AC
:10045000000000000000000000000000000000009C
:10046000000000000000000000000000000000008C
:10047000000000000000000000000000000000007C
:10048000000000000000000000000000000000006C
:10049000000000000000000000000000000000005C
:1004A000000000000000000000000000000000004C
:1004B000000000000000000000000000000000003C
:1004C000000000000000000000000000000000002C
:1004D000000000000000000000000000000000001C
:1004E0000000000000000000000000000000397162
:1004F00001436EC619A0397141536AC866CA62CCFD
:100500005ECE19A0397101535AD056D252D44ED66C
:100510004AD826DA22DC06DE3301614082824111AC
:100520004AC026C222C406C68282B24D4101024D93
:10053000924C224CB24B4101024B924A224AB249A0
:100540004101024992442244B240410182803D432C
:100550002A876373C3029377F700BDEFADE5937607
:1005600006FF3D8ABA960CC34CC30CC74CC7410763
:10057000E36BD7FE11E28280B306C3408A0697027E
:10058000000096966780A6002307B700A306B70071
:100590002306B700A305B7002305B700A304B700DF
:1005A0002304B700A303B7002303B700A302B700D7
:1005B0002302B700A301B7002301B700A300B700CF
:1005C0002300B700828093F5F50F93968500D58DB3
:1005D00093960501D58D61B7939627009702000089
:1005E00096968682E78086FA9680C1171D8F3E9682
:1005F000E374C3F8A5B7370500201305C55C8280F6
:10060000370500201305855C8280B707002023A8EA
:10061000A75C8280EFF23FEE7971B70500209385E9
:10062000455C0145EFB0F020B707002023A0A75C90
:10063000630A0518370400201304045C1C40DC43E3
:10064000370700200327075D98C3EF80303FEF8016
:10065000F041EF007030E88302CCEF00F034A30AE1
:10066000A1001C40D843232A0700DC438843EF80C5
:10067000D0421C40C843EF80705608405C41B083B4
:100680008C43EFB0102B63120514B707002093873B
:10069000073598533ACED8533AD098573AD2DC57C8
:1006A0003ED493066101130651016C08B707002080
:1006B00003A5075CEFB0102B631C05100344510128
:1006C000B707002083A4075C03A94181EF00702DC8
:1006D0003C083EC622C402C29307401F3EC0930896
:1006E000803E1308401F8967C507C98F0147CA8626
:1006F000014681452685EFB0102A01C5B557631C18
:10070000F50CB707002003A5075C3808A28603A6EE
:1007100041814C49EFB030346312050CB70700201B
:1007200083A7075C9C43D5EFB707002083A7075C2E
:10073000C843EF809037B70400209384445D23A022
:100740000400EF803034EF7040412A8402D69C4090
:10075000B5E31309803E896493840471370B00204C
:10076000B70A0020B255B3D5250303A5C192EF60A7
:100770003037EF80B02F26D6EF70203E2A8C33061C
:100780008540741033062603814503250B5CEFB0CA
:10079000503C93894A5D23A0A900814601468145CA
:1007A00003A50193EF606077EF80D02D628483A76B
:1007B0000900CDDB37E700E0B707EFBE93870708F6
:1007C0003CC7FDBFEF10104CB5B5EF10B04B75BD79
:1007D000EF10504BE5B5EF10F04A25B7EF10904AF7
:1007E00035BFEF10304A89B7EFF2DFD14111EF800A
:1007F000F027EF708036AA8A02C69304803E09690A
:10080000130909713704002011A0D28AEF809027C4
:10081000B245B3D5950203A50193EF60702CEF802C
:10082000F0244AC68327045CF5D3DC43DC4BF9DFB4
:10083000EF70A0322A8A0325045C1C41F9F75C4161
:10084000DC4B99E3D28AD9B7B30A5A41B38A9A02E8
:10085000740056868145EFB0B037740056868145E6
:100860000325045CEFB0103BD28A4DB79387019407
:100870003E950CA193D785001CB193D705013CA1EF
:10088000E1812CB18280938701943E950CA1A181D6
:100890000CB18280938701943E950CA18280894798
:1008A0006300F60291476305F60285476304F6008C
:1008B000014582809821938701943E9518A1CDBF70
:1008C0009A21938701943E9518A1218318B1CDB741
:1008D0009841938701943E9518A1935787001CB1C6
:1008E000935707013CA1618338B1D9B7938701942D
:1008F000AA97983322078823598D82809387019481
:10090000AA9798332207A8234205498F8823498F45
:10091000A8336205598D8280EFF2FFBD01111306E5
:1009200020228145138501941D3181461306C02084
:10093000938501940145EF40C024E317050003C7E8
:10094000019493071007631FF70EB70700200547B0
:10095000238CE75C9384019483A74181C8430547B6
:10096000854613864400814513054526EF90102ADD
:100970009384240D09442D4983A74181C843054729
:1009800089462686A28513050518EF9030280504B0
:100990001374F40F8904E31124FF1384019483A7D3
:1009A0004181C843054789461306F400994513055C
:1009B0000524EF90B02583A74181C84305478946A8
:1009C00013061401954513050524EF90302483A7E1
:1009D0004181C843054789461306340185451305FF
:1009E0000524EF90B02283A74181C843054789467B
:1009F00013065401894513050524EF90302183A780
:100A00004181C84305478946130674018D45130586
:100A10000524EF90B01F83A74181C843054789464D
:100A200013069401914513050524EF90301E130918
:100A30008019854A138B0194130C2B0CA6891D4A2F
:100A4000BD4BE9A91384019489475CA013071007E3
:100A500018A03D4738A018B0854464A4930640020E
:100A600074B423080400A3080400230904001547F4
:100A700038B8230A0400A30A0400230B040074B846
:100A8000230C040018BC230D0400A3020400D94663
:100A9000A30ED41C230F041CA30D0400230E04007A
:100AA000A30E0400230F040064BC23000402A3006F
:100AB000940223010402A301040223020402A302FC
:100AC000040223030402A303040223040402A30474
:100AD000040223050402A305040223060402A3065C
:100AE000040223070402A307040223080402A30844
:100AF000040223090402A3090402230A0402A30A2C
:100B00000402230B0402A30B0402230C0402A30C13
:100B10000402230D0402A30D0402230E0402A30EFB
:100B20000402230F0402A30F040223000404A30001
:100B3000040423010404A301040423020404A30203
:100B4000040423030404A303040423040404A304EB
:100B5000040423050404A305040423060404A306D3
:100B6000040423070404A307040423080404A308BB
:100B7000040423090404A3090404230A0404A30AA3
:100B80000404230B0404A30B0404230C0404A30C8B
:100B90000404230D0404A30D0404230E0404A30E73
:100BA0000404230F0404A30F040423000406A30079
:100BB000040623010406A301040623020406A3027B
:100BC000040623030406A303040623040406A30463
:100BD000040623050406A305040623060406A3064B
:100BE000040623070406A307040623080406A30833
:100BF000040623090406A3090406230A040693062F
:100C00008007A30AD406230BE406A30B0406230CD7
:100C10000406A30C0406230D0406A30D0406230EEC
:100C20000406A30E0406230F0406A30F04062300E4
:100C30000408A300040823010408A30104082302F4
:100C40000408A302040823030408A30304082304DC
:100C50000408A304040823050408A30504082306C4
:100C60000408A306040823070408A30704082308AC
:100C70000408A308040823090408A3090408230A94
:100C80000408A30A0408230B0408A30B0408230C7C
:100C90000408A30C0408230D0408A30D0408230E64
:100CA0000408A30E0408230F0408A30F040823005C
:100CB000040AA300040A2301040AA301040A23026C
:100CC000040AA302040A2303040AA303040A230454
:100CD000040AA304040A2305040AA305F40A23064C
:100CE000040AA306940A2307040AA307F40A2308A4
:100CF000040AA308F40A2309040AA309040A230A1C
:100D0000040AA30A040A230B040AA30BF40A230C03
:100D1000040AA30C940A230D040AA30DF40A230E5B
:100D2000040AA30EF40A230F040AA30F040A2300E3
:100D3000040CA300040C2301040C6147A301E40C80
:100D40002302040CA302040C2303040CA303040CCD
:100D50002304040CA304040C49492305240DA30512
:100D6000040C2306040CA306040C2307040CA3079D
:100D7000040C2308040CA308940C13076003230934
:100D8000E40C0D47A309E40C1307F003230AE40C59
:100D9000A30A040C4D57230BE40CA30BF40C230CF7
:100DA000E40CA30C040C9947230DF40CA30D040CC4
:100DB0009307B0FD230EF40CA30E040C9307F0FC74
:100DC000230FF40CA30F040C99572300F40EA30077
:100DD000040EB5572301F40EA301040E9305001071
:100DE000154569348145254551342302240F930765
:100DF00000F9A302F40E2303940EA303240F23048B
:100E0000F40EA304940E2305240FA305F40E230669
:100E1000940E39661306067E9307D40E13045413FA
:100E2000162213F5F60F88A3A18294B33A22937584
:100E3000F70FACA32183B8B32388A704A388D704F2
:100E40002389B704A389E7042380A70AA380D70ACC
:100E50002381B70AA381E70A11069107E312F4FC84
:100E6000138401942157230FE41C8D47A30FF41C16
:100E70002300E41EA300F41EB7053F78C90513053F
:100E8000201EED32B705003ED5051305601EF93A68
:100E9000B7050076ED051305A01EC93A8145130577
:100EA000E01EE93281451305201FC9328145130533
:100EB000601F6D3A81451305A01F4D3A814513050A
:100EC000E01F6D328145130520204D328145130509
:100ED0006020693AC147A30EF41C2305042085470E
:100EE000A305F42081461306C02093850194014593
:100EF000EF30D03D1306C020814513850194EFF0FB
:100F00000FE581461306C020938501940145EF301B
:100F1000504725BC850A310963827A0583A7418140
:100F2000C8430547854633065C0193F5FA0F130560
:100F3000C518EF90A04D9304BB01054483A74181E0
:100F4000C8430547894626869375F40F4A95EF9066
:100F5000E04B05048904E31344FF6DBF138401943F
:100F600083A74181C843054785461306140DBD4537
:100F70001305C518EF9080490C300145EF10600E45
:100F80002C200545EF10E00D15458D3A2AC683A7A4
:100F90004181C84305479146700089451305C51531
:100FA000EF90C0468349440E4EC683A74181C84393
:100FB00005479146700089451305C527EF90004508
:100FC0009385F9FF93F5F50F0145EF3040782DE15A
:100FD000FD19635F30050144131904011359090118
:100FE000931429001385D40E113242054185EFC0B8
:100FF00080262AC81385F40ED538EFC020322ACABD
:101000001385140FE53042054185EFC0C0242ACC7A
:101010001385340FE138EFC060302ACE4A860C08C1
:101020000145EF30A07E05041374F40FE34634FB52
:1010300083C971A24EC683A74181C8430547914623
:101040007000854513058528EF90403CCE85054509
:10105000EF30E06F25E563830906054413190401A9
:1010600013590901931429001385D413EFF01F8835
:1010700042054185EFC0201E2AC81385F413EFF006
:10108000FF86EFC0A0292ACA13851414EFF01F862B
:1010900042054185EFC0201C2ACC13853414EFF0A3
:1010A000FF84EFC0A0272ACE4A860C080545EF3002
:1010B000E07505041374F40FE3F289FA83C9A1A261
:1010C0004EC683A74181C8430547914670008545B8
:1010D00013054529EF908033CE850545EF30206715
:1010E00025E5638309060544131904011359090111
:1010F000931429001385D418EFF04FFF4205418562
:10110000EFC060152AC81385F418EFF02FFEEFC06A
:10111000E0202ACA13851419EFF04FFD42054185DE
:10112000EFC060132ACC13853419EFF02FFCEFC009
:10113000E01E2ACE4A860C080945EF30206D0504D2
:101140001374F40FE3F289FA05616FF04FBE9387D1
:1011500001943E9508218280EFF26FBC81451145D4
:10116000EF3070259D4763E7A7020A05B9679387AB
:10117000077C3E951C4182871305401F0DA0130577
:10118000A00F31A81305D00719A81305200301A843
:10119000514531A01305D00719A01305803E6FF00B
:1011A0004FBA13050010828003C5D1B18280EFF2DF
:1011B0000FB71545EFF08FF4930515001545EFF0C7
:1011C000EFEA6FF00FB8EFF28FB5814621469385B5
:1011D00051941545EF30900F6FF0AFB60145828006
:1011E00001A0397106DE16DC1ADA1ED82AD62ED4F2
:1011F00032D236D03ACE3ECC42CA46C872C676C447
:101200007AC27EC037F5000013058582EFC0006109
:10121000EF70B071AA8537F500001305C583EFC0E4
:10122000A04EEF70F070AA8537F500001305C58455
:10123000EFC0804DEF703070AA8537F500001305C0
:10124000C585EFC0604C01A0370500201305855E01
:101250008280EFF2CFAC4111F14763E5A7142E84F1
:10126000931725003D671307C786BA979C4382876B
:101270001305D52042054181D93DAA842685410127
:101280006FF02FAC1305D52042054181EFF00FE63A
:10129000AA84EDB70145EF00B034AA850145EF30CF
:1012A0002039B7F7000083A5078EEFB0D00DEFB05F
:1012B000106FAA8461D41305500EEFF02FE3AA94A7
:1012C00075BF39151375F50FEF009031EFB0306D24
:1012D00093142500AA94860455B79305E1000145AF
:1012E000EF3080691305E01DEFF04FE0AA842887F6
:1012F000EFB070762A842685EFC04002B7F7000071
:1013000083A5478EEFB0E04BAA852285EFB0B007EA
:10131000B7F7000083A5078EEFB0F006EFB0506E70
:1013200093140501C18099BF9305E1000545EF3095
:10133000A0641305001EEFF06FDBAA842887EFB0CE
:1013400090712A842685EFB0707DB7F7000083A5E1
:10135000478EEFB00047AA852285EFB0D002B7F7DD
:10136000000083A5078EEFB01002EFB070699314F0
:101370000501C18021B7B707002083C4075EFDBD0A
:101380000945EF30A055AA84D5BD893DAA84FDB595
:101390001545EFF0AFD6AA84D5B5B707002083A4D2
:1013A000C75DE9BD8144D9BD938741B683C6470275
:1013B00013972600BA979843F1476300F702850612
:1013C00093F6F60F938741B62382D70283C747036C
:1013D00063E4F600238401B8828003A641B965D294
:1013E00003C791B9854513050002B3D7E540B3376C
:1013F000F000F18F89EB05071377F70FE377E5FE30
:10140000A38C01B86DBF0507A38CE1B882809387D8
:1014100041B603C74702A382E702828011C5F147A4
:101420006308F50001458280238C01B80545828060
:1014300071472388E1B801458280EFF2AF8C130534
:10144000A0203133138441B6A302A4021305B020B7
:10145000FD392303A402834754022302F402230A22
:101460000402938741B6938441B601441309201EB8
:101470003309F9408549254A3305990042054181E0
:10148000EFF0CFC788C01375F50F493F63003503F0
:1014900005041374F40F9104E31044FF938741B6DD
:1014A00023A80702A38A07026FF00F89238C81B853
:1014B000F5B783C711B991E38280EFF24F86A38815
:1014C00001B8B1376FF0EF87EFF26F852A840146DC
:1014D0008945EF00303901468D452285EF0090386F
:1014E000014685452285EF00F0376FF08F85EFF2DA
:1014F0000F832A842E89B284EFF04FBF2310A900F6
:101500001305240042054181EFF04FBE8AA06FF021
:101510004F83EFF2CF804111AA842E891314150056
:101520002A940A041306E1006C001305B401C137C4
:10153000388709EB3C86014685C733B62701134639
:10154000160039A83C8663FAE7000546637AE9008D
:1015500033B627011346160021A00146E37FE9FCBC
:1015600089452685EF0010301306E1006C00130555
:10157000F401B53F388709EB3C86014685C733B691
:1015800027011346160039A83C8663FAE700054692
:10159000637AE90033B627011346160021A00146FD
:1015A000E37FE9FC85452685EF00D02B1306E1009B
:1015B0006C0013053402253F388709EB3C86014651
:1015C00085C733B627011346160039A83C8663FA4F
:1015D000E7000546637AE90033B627011346160093
:1015E00021A00146E37FE9FC8D452685EF00902789
:1015F00041016FE01FF5EFE21FF041112A8A2E89A9
:10160000B28CB684BA8BBE8A428D468C0354410498
:1016100070009305E1003D45D93D035BC10028877B
:1016200033056541EFB03043B7F7000083A5878EDF
:10163000EFB06055AA89636C940333856C41EFB0B9
:101640009041CE85EFB0E017EFB0903B2300AD00A6
:1016500063EF84043305944142054181EFB0104C9F
:10166000CE85EFB00016EFB0B0392300AC00636D4B
:10167000440333056A41EFB0103ECE85EFB06014ED
:10168000EFB010382380AB00636889023304444113
:10169000131504014181EFB07048CE85EFB06012A0
:1016A000EFB010362380AA0041016FE05FE8338578
:1016B0009441420541815DB733044941131504014A
:1016C0004181D1BF03480100388263F6A5026374EB
:1016D000A70063E6E6006379B7006377E60423803A
:1016E00008012380070182806364D7006370E604E9
:1016F0002380080182806379E600636BB70063672B
:10170000D7002380080182806379D700E37BE5FE60
:1017100023800801238007018280E374B7FEE3720F
:10172000E5FE238007018280E364D7FC2380070164
:101730008280EFE25FDC4111AA8A2E84328AB6846D
:10174000BA8B3E8BC289468970009305E1003D4506
:10175000793B63F7840263EB54016369590163ECDD
:10176000240123803B0123003B0101A863E5240100
:1017700023003B0119A023803B0141016FE03FDBC7
:10178000636B440163694901636C240123803B015D
:1017900023003B01DDB76365240123803B01F1BFDA
:1017A00023003B01D9BFEFE29FD7EF60503CB70762
:1017B000002023A6A75E01478D4611468145B70745
:1017C000002003A5875EEF7020086FE09FD7EFE24F
:1017D0009FD27971EF30C0421841B707002023A291
:1017E000E75E014B05443E8A938941B6B7F7000096
:1017F00083AA878E416C7D1CB70B0020F5A07D5716
:1018000074101306F00F81450145EF601074B25754
:10181000918B638B070C1531014789460146814541
:10182000B707002003A5C75EEF700002F1A0EFF03C
:101830001FBE054BCDA823800B5E63040B00014B3C
:10184000DDA0EFF07FB6C5A085472380FB5E953114
:10185000D9A88545EFF0FF9F93150501C181268525
:101860004D390504630E24019374F40F1305340CF1
:1018700042054181EFF0BF8D69FD2685B131D5B7B5
:101880001305100DEFF0BF8C230C0100A30C010019
:10189000230D0100A30D010051E983469101034688
:1018A00081018345B1010345A101EF00007683C7A3
:1018B00049028A07CE97804381451375F40FEFF0F4
:1018C0005F99AA8513550401EF0050131305C0203A
:1018D000EFF0CF819377F50F0145639A0712EF0080
:1018E0009025EF007030094405478947E309E4F08B
:1018F000E30404F2E31CF4FE2945EF60205901469D
:101900000C1003254A5EEF50700611CD834711027B
:1019100013070004E381E7F213070008E386E7F208
:101920000947E386E7F0014439493DBF8545EFF0BB
:101930005F922A8413190501135909011306E10165
:101940006C083D45EFF0BFBA130661024C104D45DF
:10195000EFF0FFB91306A1022C105D45EFF03FB97F
:10196000A886BC871D8DEFB0100FD685EFB0A021E3
:10197000AA843945EFF0AFFD0DED0355A102835563
:10198000810263E8A5000357610283574102E3F631
:10199000E7F04AC226C0930891011308810193071A
:1019A000B1011307A1018356410203566102A1311F
:1019B000EDB533758401EFB0100AA685EFA0706015
:1019C000EFB010041378F50F0355A102835581027F
:1019D00063E8A500035661028356410263F2C60222
:1019E0004AC242C093089101130881019307B101D3
:1019F0001307A1018356410203566102E13171BD13
:101A0000CA88930791011307B101253379B513856E
:101A1000F7FF1375F50F130595060605EFE01FEDAB
:101A20007DBDEFE2DFAFEF30F055930500103714C6
:101A3000014013050480EF305071C145130504C007
:101A4000EF3050648564938504C2130504C0EF3001
:101A50001068E1463706180013060610A145130565
:101A600004C0EF303069E1460146938504801305D8
:101A70000480EF303068E14601468D45130504C00F
:101A8000EF3050679305F00413050480EF30F061E8
:101A9000E14601469305000A13050480EF30906586
:101AA000E1460146A965130504C0EF30B064C145A5
:101AB00013050480EF30105D8565130504C0EF3019
:101AC000705C9306800437461D00930500101305D3
:101AD00004C0EF303062E14637461D009305002018
:101AE000130504C0EF301061F14601469305000C68
:101AF000130504C0EF301060EF20B02D054685457A
:101B000037350140EF408062054685453745004046
:101B100013050580EF4080611546854537150000A7
:101B20001305E51AEF40404F8D470547B7260000E3
:101B30009386464113068025B7450F0093850524FB
:101B40000D45EF4090150D45EF40F00DB1461306E1
:101B5000803EE1659385056A0945EF4010200945FF
:101B6000EF40700C95450545EF203074C1451305D5
:101B700004C0EF30D05C3765004013050540EFE04E
:101B8000DFA86FE01F9CEFE29F9981453725014058
:101B900013050540EF10A002B70700201384875FEC
:101BA000232004009387875F01478D4605468945BA
:101BB000370500200325055FEF6030671C4091C7A3
:101BC000B7E700E0116723A0E7206FE09F97EFE2FF
:101BD0001F9589476308F5008D476300F5020145AD
:101BE0006FE03F969305004037150140130505C08F
:101BF000EF3030541375F50FE5B793050002371534
:101C00000140130505C0EF30D0521375F50FC9BF61
:101C1000EFE2FF9091E9C14537150140130505C07A
:101C2000EF30F0516FE0FF91C145371501401305CA
:101C300005C0EF309051FDB7370500201305055F53
:101C40008280EFE2DF8DEF608072B707002023AA69
:101C5000A75E01478D4611468145B707002003A5C1
:101C6000075FEF60703E6FE0DF8DEFE25F8B011189
:101C700003A781833ACC93878183DC23230EF10071
:101C8000300895453724014013050440EF30600DBE
:101C9000EF20B03EB7270000938767B83EC08D485D
:101CA000054881472A879306C44405468145370580
:101CB00002402105EF30606D05616FE09F88EFE223
:101CC0001F834111EF20703BAA841309E5012A8488
:101CD00003150400EF3040040AA00904E31A24FFAE
:101CE0009389C1B90149B7F7000083ADC78EB7F733
:101CF000000003AD078F37F70000832C478F37F7BD
:101D00000000032C878FEA8BB7F7000003ABC78F67
:101D1000B9A0EFB0A060EE85EFA0F066EA85EFA075
:101D200090662AC4138A81BA931A2900D29AE6854A
:101D3000EFA070652AC6A24503250A01EFB0A00DE9
:101D4000AA853245EFA0F02723A0AA00050413744A
:101D5000F40F914763E18706050989048909137423
:101D6000F90FCA28BE243E959E203E95CA8A0D4A88
:101D700033554503CE8542054181EF70A024630FA2
:101D800044038D47E367F4F89147E311F4FC8A0AB2
:101D9000938781BABE9AEFB06058B7F7000083A569
:101DA000C78EEFA0505EB7F7000083A5078FEFA0A6
:101DB000905D23A0AA0041016FE02FF713142900C2
:101DC000938781BA3E94EFB06055E285EFA0B05B97
:101DD000DE85EFA0505BDA85EFA0006808C0ADBFDC
:101DE0000A05938781BAAA9788438280EFE28FF130
:101DF000797101490544938481BAB7F7000083A93A
:101E00000790CE8A370A0020372B0000130BEBBC5B
:101E100055A87D5774101306F00F81450145EF60FA
:101E2000D012B257918BD9CF893585473ECAA94781
:101E30003ED03ECE5AD40C080945EF20502602CAA7
:101E40000C080D45EF20B025B7270000938707C188
:101E50003EC62C000145EF20F02281450145EF20D0
:101E6000502985450545EF20D02801478946014680
:101E7000814503254A5FEF60301DEF2010203D466D
:101E8000AA85370502402105EF30606999A0814598
:101E900001456529814505454D29EFF0CFB2D6852D
:101EA000C844EFA0303D0549634DA004EF20F01C6D
:101EB0003D46AA85370502402105EF304066EF20F8
:101EC000B034094405478947E305E4F459DCE31DD0
:101ED000F4FE2945EF50907B014774101306F00F74
:101EE00081450945EF607006058971D9EFF03FDD46
:101EF000CE85C844EFA07040E34B05F8E30809FA2B
:101F000079BFAD4501459121AD4505453D290149C3
:101F100071BFEFE2CFE085659385058037150140FD
:101F2000130505C0EF30F0206FE0AFE1370500206A
:101F3000130545608280EFE28FDE011185475C84E6
:101F4000B70700209387C75F3EC8B7070020938775
:101F500007603EC68947230BF100A30BF100230C59
:101F6000F100D147FC82B7270000938727F13ECECE
:101F70002800EF20304A05616FE0AFDCEFE22FDA96
:101F80005D3FEF209048EF507070EF20904ED5BF2E
:101F9000EFE2EFD83705024013050503EF30003DAF
:101FA00037350140EF404022054437350140EF40CE
:101FB000A022E30C85FEC1453715014013050580BD
:101FC000EF30F0176FE0EFD7EFE26FD53705024043
:101FD00013058505EF30803937450040130505802E
:101FE000EF40801E3744004013040480854422855E
:101FF000EF40801EE30D95FE856537150140130502
:1020000005C0EF30D0136FE0CFD306068547339677
:10201000C700060589473395A700A1C1814701473D
:10202000498F0A05850793F7F70FE39BF5FE131514
:1020300007014181418385C681478145D18D0A06CB
:10204000850793F7F70FE39BF6FE9387C1BB4D8D92
:10205000EAA3C1814D8F9AA782800147C9BF8145FC
:10206000EDB7828001470148B54763ECA70013171D
:102070002500BD67938747903E971C43828725487C
:1020800009478D4691476387D500F91593B515002B
:10209000938715008546630AD60606079386C1BB5B
:1020A0003697B397070193C7F7FF1623F58F1EA343
:1020B000828093171500AA9713F8F70F0947D1B735
:1020C00093171500AA97E91713F8F70F054755BF9F
:1020D00093171500AA97D11713F8F70F014755B7B3
:1020E0001948094779BF3548054761BF2948054761
:1020F00049BF3148014771B72548014759B72A8878
:10210000094741B719480147ADBF06079386C1BBD0
:102110003697B39707011623D58F1EA38280994760
:1021200063EDA70C0A05BD679387C7933E951C41D5
:102130008287B7070020938787609A239376C7FF2B
:1021400013D75500558F9AA3BA231377F77FAE059F
:102150004D8FBAA3828037070020130787603E2384
:1021600093F737C08E05CD8F3EA3828037070020BE
:10217000130787603E2393F687FF93D74500D58FDB
:102180003EA35E23D207D183B205CD8F5EA38280AA
:1021900037070020130787605E23FD76FD06F58F65
:1021A0009605CD8F5EA38280B70700209387876056
:1021B000DA23937607FE13D725007D8B558FDAA39C
:1021C000FA231377F73FBA054D8FFAA382803707BA
:1021D0000020130787607E23F1769386F607F58F3C
:1021E0009E05CD8F7EA3828037070020130787606E
:1021F0007E2393F707F8DD8D6EA38280EFE2AFAF09
:10220000AA8BAE84814C63CF0504B7470F00938738
:10221000F723A69737871E001307E7476368F7047D
:10222000E1679387F769A697371703001307E7D38A
:10223000636AF70489679387F770A6971567130792
:10224000E7E16364F7049387743E1307E07C6361FE
:10225000F704938634069307600C63FED702094C9B
:102260000D4B39A0B304B040854C45B7014C1D4B14
:102270000149B709002093898960BD6A938A8A97CA
:10228000294A31A8054C194BE5B7094C154BCDB778
:10229000094C114BF1BF094C094BD9BF228983D797
:1022A000290093E707402391F900B3E7440393F72C
:1022B000F70FD6978C234A85EFF07FE6B3C444032B
:1022C000130419001374F40FE31A8BFC63940C02CB
:1022D000994763EC87009D4481452285EFF03FE4F8
:1022E00005041374F40FE31994FE8947630EFC0090
:1022F0006FE0EFA3930500042285EFF05FE2130483
:1023000029001374F40FE9B737070020130787601B
:102310007E23F176F58F93D68B0093F6F607D58F53
:102320009E0B9166938606F8B3FBDB00B3EB770157
:102330002313770175BF37070020130787601E231B
:102340008D8B0A05C98F1EA38280EFE24F9D133546
:1023500015003305A04071998605BD679387879561
:10236000AE979223930585000945EF406030814583
:102370000945EF4080386FE0CF9CEFE24F9A411162
:10238000B7270000938787FC3EC0894805488147EE
:102390003707002013078760B74600409386C68042
:1023A000054685453704024013058405EF20F07D7E
:1023B000B7270000938707F93EC089480548814741
:1023C0001387C1BBB7360140B106054685451305E5
:1023D0000403EF20907BAD450145853FAD450545A4
:1023E000AD3741016FE0EF95EFE26F9385653715EB
:1023F0000140130505C0EF304055914537040240B8
:1024000013058405EF20707713058405EF203075E0
:102410006FE02F93EFE2AF90C145371501401305F0
:102420000580EF30805295453704024013050403C0
:10243000EF20B07413050403EF2070726FE06F900B
:10244000EFE2EF8D0545EF10A06B2D2AEF60903A7B
:10245000716513050520EF60704037F50000130526
:102460004598EFB0A03BEFF0CFDB4D2B59238121F6
:10247000EF50406437F400001305C498EFB0003A01
:10248000E5BF828099677390078001A04111B7175B
:10249000024098431367170098C3D843B706FFF864
:1024A000758FD8C39843B706F7FEFD16758F98C38E
:1024B0009843B706FCFFFD16758F98C3D843B7063F
:1024C00081FFFD16758FD8C337079F0098C702C4D8
:1024D00002C69843C166558F98C337160240B706A7
:1024E000020005671C42F58F3EC6A24785073EC421
:1024F000B24781E7A247E397E7FEB71702409C4344
:102500001397E700635A070085473EC63247854761
:102510006306F7004101828002C6CDBFB7170240B3
:10252000D84313670708D8C3D843D8C3D843136721
:102530000740D8C3D843B706C1FFFD16758FD8C36F
:10254000D843B7063D00558FD8C39843B70600015E
:10255000558F98C3371702401C4393966700E3DDFD
:1025600006FEB7170240D843719BD8C3D843136700
:102570002700D8C3B71602402147DC42B18BE39E47
:10258000E7FE49BFB7170240DC43B18B1147638CAC
:10259000E70421476382E70691CB37070020B7178E
:1025A0007A00938707202320F75809A837070020CF
:1025B000B7177A00938707202320F758B7170240F0
:1025C000DC43918313F7F700B707002093870700D8
:1025D000BA979423B7070020938707589843335737
:1025E000D70098C3828037070020B7177A009387F7
:1025F00007202320F758D9B7371702405C435843C8
:10260000C166758FC983BD8B8907C5466384D702B0
:102610001DEF3747024003270780418B11CF371743
:102620007A0013070720B387E7023707002023202B
:10263000F75869B7C947E9BF37173D001307079037
:10264000B387E702370700202320F75885BF3717E5
:10265000024058439316E70063DD060037173D003C
:1026600013070790B387E702370700202320F758A6
:10267000B1B737177A0013070720B387E702370788
:1026800000202320F7581DBFEFD2DFE741112315AB
:1026900001000144B709002089440D49416A7D1AAF
:1026A00041A07D577400014681450145EF60E00976
:1026B000B24763979706528681450145EF6060589F
:1026C000EFD07FF30841EF50C032EFD07FF30841E5
:1026D000EF50203223A89960A1A026869305A1007F
:1026E0001305C020EFE0AF9B9375F40F1305E020B6
:1026F000EFE04F9A1305401FEF5040793C85850766
:10270000C207C18325476365F7167C852904420407
:10271000418093372417B307F0407D8CEF30B07FB2
:1027200083A70961E38B97FAE38D27F7E5FFEFE0D5
:10273000AF9E930580163D45EFE0EF9481454545FA
:10274000EFE06F94930560094D45EFE0CF9393055B
:10275000600E5545EFE02F939305E0105D45EFE0E7
:102760008F929305E0066545EFE0EF918545394589
:10277000EFE04F929305E00B1305B004EFE0AF904C
:102780009305E0061305D004EFE0EF8F93054006B4
:102790001305F004EFE02F8F9305800C130510054F
:1027A000EFE06F8E814513053005EFE0CF8D814559
:1027B00013055005EFE02F8D85451305700CEFE0F4
:1027C0006F8D9305E00B1305B007EFE0CF8B9305FA
:1027D000E0061305D007EFE00F8B930540061305C5
:1027E000F007EFE04F8A9305800C13051008EFE027
:1027F0008F89814513053008EFE0EF888145130587
:102800005008EFE04F8885451305B00CEFE08F8846
:102810009305E00B1305700BEFE0EF869305E006E0
:102820001305900BEFE02F86930540061305B00BC0
:10283000EFE06F859305800C1305D00BEFE0AF84BC
:1028400081451305F00BEFE00F8481451305100C53
:10285000EFE06F8385451305000DEFE0AF83EFF0E8
:10286000DFB1EFF00FBEEFE01FF423A829614DBDEB
:102870002315010061BDB7370020938787861CC1EF
:10288000B7270020938787469CC1930700081CC286
:102890008280B7370020938787901CC1B72700201C
:1028A000938787669CC1930700081CC28280EFD281
:1028B0001FC7EFF0AFE72A8437280020130808D499
:1028C000B7270020938707B41547854613060008ED
:1028D000B7F500009385459A372500001305C5F725
:1028E000EF50A00608C0EFE03F962A84372800206A
:1028F00013088819B7270020938787D92947854669
:1029000013060010B7F500009385459B37150000AE
:102910001305E57CEF50600308C0EFD07FCE2A841A
:10292000138881FC938781BC1547854613060010E8
:10293000B7F500009385059C370500001305857EDB
:10294000EF50A00008C0EFD01FCB2A84372800200A
:1029500013080889B7170020938707DA1D478546B3
:102960001306C02BB7F500009385059D37050000C1
:1029700013054561EF40707D08C0EFF0EFAB2A848E
:1029800037280020130888AEB72700209387878E4A
:102990000D47854613060008B7F500009385459E50
:1029A000372500001305C5DEEF40307A08C0372810
:1029B00000201308083FB72700209387071F0D4703
:1029C000854613060008B7F500009385059F372557
:1029D000000013058568EF405077EFD07FC20841B3
:1029E000EF50405FEFD03FC10841EF50A05E6FD085
:1029F0005FB5EFD2DFB2EF20A0202A840147B736BF
:102A000000209386068C37260020130686448945CD
:102A10004145EF40A03D08C06FD0BFB2828001A009
:102A200001A001A001A001A001A001A001A001A09E
:102A300001A001A001A001A001A001A001A001A08E
:102A400001A001A001A001A001A001A001A001A07E
:102A500001A001A001A001A001A001A001A001A06E
:102A600001A001A001A001A001A001A001A001A05E
:102A700001A001A001A001A001A001A001A001A04E
:102A800001A001A001A001A001A097E1FF1F938177
:102A9000612F172100201301E15617D500001305FF
:102AA00025BE97D5FF1F9385E5551386018463FAEC
:102AB000C5008322050023A0550011059105E3EA16
:102AC000C5FE17E5FF1F1305E5AF97150020938599
:102AD000A5956377B500232005001105E36DB5FECC
:102AE000FD42739002BC894273904280B72200007D
:102AF0009382028073A0023097D2FFFF9382025428
:102B000093E2320073905230EFF05F98970200002A
:102B1000938242937390123473002030EFD23FA01F
:102B2000B727014093870740630AF500B737014094
:102B300093870780630FF5006FD0BFA0854513050D
:102B40000020EF10A032814513050020EF10003265
:102B5000E5B7854513050040EF1040318145130569
:102B60000040EF10A030C9BF5C413707F1E0130708
:102B7000F7EF7D8F9C41944DD58FD44DD58FD441A7
:102B8000A206D58FD98F5CC11C4537F7F1FF13071B
:102B9000D77F7D8F9C49D445D58F94458606D58FA8
:102BA000D98F1CC55C55370710FF7D177D8FDC2939
:102BB000FD1793F7F70FD207D98F5CD5828091C5A7
:102BC0001C4593E717001CC582801C45F99B1CC55A
:102BD000828091C51C4593E707101CC582801C4567
:102BE00093F7F7EF1CC582801C4593E787001CC54F
:102BF000828008450D81058982801C4593E7470046
:102C00001CC58280084509810589828099C51C45BB
:102C100037075000D98F1CC582801C453707B0FF8D
:102C20007D17F98F1CC58280A54763F7B7048328F9
:102C3000C500138865FF1317180042979D47B39787
:102C4000E70093C7F7FFB3F71701B396E600DD8EF1
:102C500054C5994763E3C70458597D169317260056
:102C60003E96FD47B397C70093C7F7FFF98F33969A
:102C7000C5005D8E50D98280032805011397150089
:102C80002E979D47B397E70093C7F7FFB3F7070168
:102C9000B396E600DD8E14C96DBFB14763E3C7028A
:102CA0001459130796FF131627003A96FD47B3975A
:102CB000C70093C7F7FFF58F3396C5005D8E10D917
:102CC000828054554D16131726003A96FD47B39748
:102CD000C70093C7F7FFF58FB395C500DD8D4CD5C1
:102CE000828099C51C4537071000D98F1CC582808A
:102CF0001C453707F0FF7D17F98F1CC582805441B2
:102D0000184193D78500F98F99C713F5F50F758D85
:102D10003335A000828001458280A18193C5F5FFF3
:102D20000CC1828099C55C4137070004D98F5CC112
:102D300082805C41370700FC7D17F98F5CC182807F
:102D4000EFD2EFFD0111A30F01008347F10193F7CB
:102D5000F70F25476369F7042A84A5441C4493E7C9
:102D600087001CC42285EFF0DFE86DFD1C4493E76B
:102D700047001CC42285EFF0FFE86DFD78448347CF
:102D8000F10186071410B6972394E7FE8347F101FB
:102D9000850793F7F70FA30FF1008347F10193F72E
:102DA000F70FE3FDF4FAA30F01008347F10193F756
:102DB000F70F25476368F70AA146254659A88347B8
:102DC000E101850793F7F70F230FF1008347E10136
:102DD00093F7F70F63E2F6060347E1018347E1014A
:102DE00006070C102E9785078607AE97035787FEB8
:102DF00083D787FEE3F5E7FC8347E1018607AE97BB
:102E000083D787FE7C838347E1010347E101850780
:102E10008607AE9783D587FE931717001810BA97C9
:102E20002394B7FE8347E1013883850786070C109A
:102E3000AE972394E7FE61B78347F101850793F7C7
:102E4000F70FA30FF1008347F10193F7F70F636BBF
:102E5000F600230F01008347E10193F7F70FE3FD2D
:102E6000F6F6D9BF2313010023120100A30F0100BE
:102E70008347F10193F7F70F15476365F70683471B
:102E8000F101890786071810BA9703D787FE9307C1
:102E9000006063E9E7049546130600608347F1018B
:102EA0003883890786070C10AE9783D787FEBA97B9
:102EB000C207C1837C838347F101850793F7F70F2E
:102EC000A30FF1008347F10193F7F70F63ECF600CE
:102ED0008347F101890786071810BA9783D787FEC1
:102EE000E37EF6FA8347F10193F7F70F638C07103F
:102EF00038830346F101420741833C838345F10156
:102F0000C207C1838346F10193F6F60FB3E7B70218
:102F10008607B3C7D7023347C702BA97C207C18330
:102F20007C830347F1019947998F93F7F70F230F9C
:102F3000F1008347E10193F7F70FE9CB8347F101F4
:102F400093F7F70F1547636DF70295468347F10135
:102F50003882890786071010B29783D787FEBA9701
:102F6000C207C1837C828347F101850793F7F70F7E
:102F7000A30FF1008347F10193F7F70FE3F8F6FC95
:102F800038820346E101420741833C828345E101E7
:102F9000C207C1838346E10193F6F60FB3E7B70298
:102FA0008607B3C7D7023347C702BA97C207C183A0
:102FB0007C823483308228832C8293070040B3863E
:102FC000D740C206C1860567130707803306C7408E
:102FD00042064186B29613D6F601B2968586898F4F
:102FE000C207C1870D8F42074187BA9713D7F701F0
:102FF000BA97858B998FB69713950701418505611F
:103000006FD02FD4930700407C8321BF85679387BF
:1030100007807C8279BFEFD28FD00545EF00D06862
:103020000145EF0070686FD0CFD1AA861C41F59B97
:103030001CC11C4193E717001CC15C41858B81EBCF
:1030400041677D17DC42858B99E37D1765FFDC4284
:10305000858B0145D1CF98458547630CF7089C4285
:1030600093F7F7F79CC2D84585476309F7089C4258
:1030700093F7F7FB9CC2984985476306F7089C4283
:1030800093F7F7FD9CC2D84985476303F7089C4234
:10309000BD9B9CC2984D85476301F7089C42DD9B10
:1030A0009CC2D84D8547630FF7069C42ED9B9CC29E
:1030B000BC21FA07B8316207D98FD8214207D98FCE
:1030C000D8315207D98F9A217D17D98FDCCE9C42F7
:1030D000F99B9CC2DC42858B81CB41677D17DC422A
:1030E000858B99C37D1765FFC84213451500058977
:1030F00082809C4293E707089CC2B5B79C4293E745
:1031000007049CC28DBF9C4293E707029CC2A5BFE7
:103110009C4293E707019CC2B5BF9C4293E787009E
:103120009CC241B79C4293E747009CC251B73C25E3
:1031300005463316F600B767004003A7076013671C
:10314000170023A0E76003A7C7619345F6FF6D8FC3
:1031500023AEE7605C25B1E3B767004003A7C76013
:103160006D8F23A6E7609387074038257621C20636
:1031700003582500B3E60601130787040E073E97A0
:1031800014C334255A214207035805003367070149
:10319000938686048E06B697D8C358258547630B59
:1031A000F706B7270240985BB707000FF98F8DE34A
:1031B000B767004093870730B766004093860640A4
:1031C0009A23420741832390E7F09107E39AD7FEC1
:1031D0003C35D9E3B767004003A747606D8F23A252
:1031E000E7601E2581EBB767004003A74761F98DB3
:1031F00023AAB7601A2585476308F706184985474B
:10320000630CF706B767004003A70760799B23A00C
:10321000E7608280B767004003A7C760518F23A68D
:10322000E7609387074038251621C206035825001A
:10323000B3E60601130787040E073E9714C334252F
:103240005A214207035865003367070193868604B5
:103250008E06B697D8C3B1B7B767004003A74760DB
:10326000518F23A2E760B5BFB767004003A747614E
:10327000518F23AAE76059B7B767004003A7C7611A
:10328000598E23AEC760BDBFAA8718459316570055
:1032900063CF060018459316470063CB0608184510
:1032A00011459316370063D40608094511A001455E
:1032B00013174500BA9703A70718058B23A0E71833
:1032C0009425ADEA83A60718984156079035518F8B
:1032D000558F23A0E718B8253D8BB8A503A747183D
:1032E000419B23A2E71883A64718B825558F23A230
:1032F000E718F8256207D435C206558FB435558FC7
:10330000D425A206558F23A4E718B829620794395B
:10331000C206558FF435558F9429A206558F23A6E2
:10332000E71803A707181367170023A0E718828080
:103330000545BDBF03A60718D8410E07558F943524
:10334000558F518F23A0E71879B793974500AA9717
:1033500003A7071B118B18A62DE703A7071B55838F
:1033600018C203A7071B098B18B603A7471B3D8B81
:1033700038A603A7471B218338BA03A7871B38B693
:1033800003A7871B218358A603A7871B418358B631
:1033900003A7871B618378A603A7C71B78B603A77B
:1033A000C71B218318AA03A7C71B418318BA83A789
:1033B000C71BE1833CAA99E95C4593E707025CC51A
:1033C000828003A7071B0D8358C261BF1C4993E786
:1033D00007021CC98280AA8695E91C41F19B93E7EC
:1033E00017001CC15C418D8B0547638BE70041676B
:1033F0007D170546DC428D8B6384C7007D177DFBFE
:10340000C8420D897D151335150082808547638775
:10341000F500894701456385F50282801C41F19BD7
:103420001CC15C418D8B81CB41677D17DC428D8B4C
:1034300099C37D1765FFC8420D8913351500828039
:103440009C42F19B93E727009CC2DC428D8B09478D
:10345000638BE70041677D170946DC428D8B6384EF
:10346000C7007D177DFBC8420D89791513351500FE
:103470006DB709C65C49DD8D4CC982805C4993C536
:10348000F5FFFD8D4CC982803706F0006D8E01CAB4
:10349000084D6D8D320531813335A00082809397C0
:1034A000750063DA07005C4133F5B70032053181FE
:1034B0003335A00082809397450063DA07001845F2
:1034C0003375B700320531813335A0008280939780
:1034D000650063DA0700544533F5B60032053181E3
:1034E0003335A0008280144933F5B60032053181AE
:1034F0003335A0008280B707F03093870707638BCE
:10350000F5009397C500B1831397650063570700D3
:103510005CC58280232C050082801397550063547C
:1035200007001CC9828013974500635407001CC51F
:1035300082805CC1828093070010638FF50863F579
:10354000B70293870580D9CF85679387078063F893
:10355000B704C167638CF506B7070200638BF506F5
:10356000A1676386F5088280A147638BF50463FD3C
:10357000B700930700026388F50493070004639F74
:10358000F500C1471CC9828085476386F5029147D3
:103590006395F500A1475CC5828082808280930795
:1035A0000020638EF502930700406395F500914774
:1035B0005CC182808280C167938717101CC582809E
:1035C000C1475CC58280A1471CC98280A1475CC1FC
:1035D0008280C1475CC1828091475CC182809147F3
:1035E0005CC18280232C050091475CC18280232C22
:1035F000050091475CC185BF1C4161773D077D8F08
:103600009C459451D58F9449D58FD449D58F944DED
:10361000D58FD44DD58FD451D58F9455D58FD98F83
:103620001CC1DC455CC19C411CC5DC415CC5828081
:1036300091C51C4193E717001CC182801C41416762
:103640007917F98F1CC1828009C61C41DD8D0CC120
:1036500082801C4193C5F5FFFD8D0CC182804CC159
:103660008280B70702409C437D8D3335A000828065
:10367000B7070240C8C382809C4593F8F700C18B0E
:1036800081C7DC41B3E8F800B7270240985BB70771
:10369000000FF98F99EFB70700200547238AE760ED
:1036A000B7170140631BF5009E21B5839EA181EBF6
:1036B0008280B7170140630EF5009C21B1CF104105
:1036C0008147054E3D4F930E8002930F80042143A6
:1036D00019A8B707002083C74761E5D3F1B754C9DC
:1036E0008507638A6702B316FE009A21758FE399F6
:1036F000E6FE139727003318EF001348F8FF3376E0
:10370000C8003397E800598E9845E30AD7FDE319BE
:10371000F7FD14C9F1B710C19A219307F00F63FCAC
:10372000E7045041A147054EBD4F130F8002930E91
:103730008004414331A054C90DA88507638C6702FA
:10374000B316FE009A21758FE399E6FE13972700C2
:1037500001173398EF001348F8FF3376C80033970A
:10376000E800598E9845E308E7FD9845E317D7FD33
:1037700014C9E1B750C18280B71701406307F50053
:1037800008456D8D3335A0008280B707002083C7C0
:103790004761FDD7B581EDB7B71701406304F50068
:1037A0000CC98280B707002083C74761F5DBB5816C
:1037B000C5BFB71701406304F5004CC98280B70745
:1037C000002083C74761F5DBB581C5BF634E0504A3
:1037D000B7070140DC4337270240145B3707000F6F
:1037E000758F01EB13D71700F976758FCE07CD8350
:1037F000D98F93160501C182370730003376E50073
:103800006305E6081317B5006351070A135705014E
:103810001376F7000D473317C7001347F7FF7D8F67
:10382000B707000FD98FADA8B7070140DC4F13577A
:1038300005013D8B131605014182B7063000337830
:10384000D500630DD8009316B50063D506028D46EA
:103850003397E6001347F7FFF98F01A841078D461C
:103860003397E6001347F7FFF98FA1ED37070140C3
:103870005CCF8280135755011377F73F1207331738
:10388000E6001347F7FFF98FCDB7370700F17D1733
:10389000F98F3708014003264800718F2322E80082
:1038A0008DE9370701405CC3828013575501120729
:1038B0003397E6001347F7FF7D8FB707000FD98FC7
:1038C000C5B755811375F53F12053315A600C98F8D
:1038D00071BF55811375F53F12053395A600C98F49
:1038E000C9B7EFC2DFC301112A842E894621C20461
:1038F000C18093F404FCC204C18068003121D24627
:10390000B7470F0093870724B3D7F6021396070132
:103910004182D18C46A01A2042074183799B4207FD
:1039200041831AA003270900E1659385056A63EDC9
:10393000E5040607B3D6E602C206C182B687114780
:1039400063F3E600914793960701C182050642069C
:10395000418212B056AC1E2093E717001EA01E2015
:10396000C207C18393F757BF035749008356A90085
:10397000558FD98F1EA08357C90003578900D98F4F
:103980001EA405616FC0FFBB8355690031667D16BB
:103990006381C504131617003A960E063297B3D604
:1039A000E602C206C1821167D98E1397460119E358
:1039B00093E616002167D98E1307C012B387E7027A
:1039C0001307803EB3C7E7028507C207C1831EB055
:1039D00051B7131617003297B3D6E602C206C1825A
:1039E000E9B791C51E2193E717001EA182801E2111
:1039F000C207C183F99BC207C1831EA1828091C502
:103A00001E2193E707101EA182801E21C207C183D9
:103A100093F7F7EFC207C1831EA1828091C51E21D3
:103A200093E707201EA182801E21C207C18393F75E
:103A3000F7DFC207C1831EA1828091C51E2193E7D3
:103A400007401EA182801E21C207C18393F7F7BFE2
:103A5000C207C1831EA1828091C55E2593E717002E
:103A60005EA582805E25C207C183F99BC207C18320
:103A70005EA5828009C65E21DD8D4EA182805E2119
:103A800093C5F5FFFD8D4EA182800EA982800A2983
:103A90001375F50F828093F7E50F19C293E71500B0
:103AA000C207C1831EA98280411102C62AC6B2473D
:103AB000BE952EC6B2478A2341018280411102C6BB
:103AC00002C42AC493D7C5013EC6A205A181B2474C
:103AD00099CBA247D1073EC4A24788436D8D3335A9
:103AE000A00041018280C181A247E1073EC4EDB739
:103AF000A205A18193C5F5FFC205C1814EA98280AF
:103B0000B707002023ACA7608280B707002083A7F7
:103B1000876185EF14213C21920793F7F70F37E770
:103B200000E036972300F7405C41638A07121821B2
:103B3000935757008546B396E600938707048A0794
:103B400037E700E0BA9794C38280B707002003A745
:103B5000876185476302F704B707002003A78761E1
:103B600089476306F706B707002003A787618D47DB
:103B70006303F70AB707002003A787619147E3159E
:103B8000F7FA14211C31920793F7F70F37E700E09B
:103B900036972300F74049BF1831630DF700142111
:103BA0003C21920793F7F70F37E700E036972300A1
:103BB000F7409DBF14213C21920793E707F893F744
:103BC000F70F37E700E036972300F740B1BF1C310D
:103BD00005476375F70214219387E7038A073821A5
:103BE000BA9793F7F70F920793E707F893F7F70F52
:103BF00037E700E036972300F7403DB714218A07E6
:103C00003821BA97920793F7F70F37E700E0369716
:103C10002300F74011BF1C310D47636FF7001421DB
:103C200086073821BA97920793F7F70F37E700E036
:103C300036972300F740CDBD14219387C707860729
:103C40003821BA9793F7F70F920793E707F893F79E
:103C5000F70F37E700E036972300F740F1B518215A
:103C6000935757008546B396E600938707068A0761
:103C700037E700E0BA9794C3828001C937770040E4
:103C80001C4393E707101CC38280377700401C4316
:103C900093F7F7EF1CC38280B7160240DC425177DE
:103CA0007D17F98F5D8DC8C28280B71702402380CF
:103CB00007022380070285476306F50091476309E1
:103CC000F5008280B717024005472380E702828013
:103CD000B717024015472380E7028280371702405A
:103CE0001C535D8D08D3828001C9371702401C53D5
:103CF000A166D58F1CD38280B71602409C52617793
:103D00007D17F98F9CD28280B7170240DC43B18BBC
:103D10001147638EE70621476381E70899C7B71704
:103D20007A00938707201CC131A0B7177A009387C8
:103D300007201CC1371602405C429183BD8B3707B8
:103D4000002013070701BA9794231C41B3D7D7006B
:103D50005CC15442A1829D8ABA969422B3D6D70000
:103D600014C55442AD829D8A36971823B3D7E70015
:103D70005CC5584239839376370013874180369764
:103D800018231377F70FB3D7E7021CC98280B71740
:103D90007A00938707201CC171BF371702405C432C
:103DA0005843C166758FC983BD8B8907C54663813A
:103DB000D7020DEB3747024003270780418B19CB11
:103DC00037177A0013070720B387E7021CC19DB796
:103DD000C947C5B737173D0013070790B387E702F8
:103DE0001CC189BF3717024058439316E70063DAB6
:103DF000060037173D0013070790B387E7021CC181
:103E000015BF37177A0013070720B387E7021CC1D5
:103E100015B799C5371702405C4B5D8D48CB828042
:103E2000B7170240D84B1345F5FF798DC8CB828078
:103E300099C5371702401C4F5D8D08CF8280B71798
:103E40000240984F1345F5FF798D88CF828099C540
:103E5000371702405C4F5D8D48CF8280B717024014
:103E6000D84F1345F5FF798DC8CF828099C5371794
:103E700002405C475D8D48C78280B7170240D84733
:103E80001345F5FF798DC8C7828099C53717024061
:103E90001C4B5D8D08CB8280B7170240984B1345B1
:103EA000F5FF798D88CB828001C9371702401C53FA
:103EB000C166D58F1CD38280B71602409C524177D1
:103EC0007D17F98F9CD28280935755000547638CEC
:103ED000E7000947638DE700B7170240DC5333D58D
:103EE000A70005898280B71702409C43CDBFB71752
:103EF00002409C53EDB789C9B737004003D707800C
:103F0000598D2390A7808280B737004003D7078060
:103F10001345F5FF798D2390A7808280B737004045
:103F200003D74780136707012392E78082803737E2
:103F3000004083574780C207C183BD9BC207C1832E
:103F40002312F7808280EFC28FDD2A84EFF01FFDFD
:103F5000135704013D8BB73700402394E780420498
:103F6000418023968780EFF09FFC6FC08FDD37374D
:103F700000408357478093F70702E5DF8280373799
:103F8000004083574780C207C183DD9BC207C183BE
:103F90002312F7803737004083574780A18BEDDF2E
:103FA00082803737004083574780C207C183035759
:103FB0000780698F09C7E98F3335F000828001459A
:103FC0008280B737004003D747801345F5FF798DCE
:103FD0002392A7808280EFC28FD4B7370140630A53
:103FE000F500B747004093870780630DF5006FC069
:103FF0004FD585450565EFF07FE781450565EFF015
:10400000FFE6F5B785451165EFF03FE8814511659D
:10401000EFF0BFE7E9BF1A218D67938707047D8F13
:104020009E21B621D58FD621D58FF621D58F962505
:10403000D58FB625D58FD625D58FF625D58FD98F97
:104040001EA15A2DFD779387F77FF98F5EAD9E29CC
:104050001EA9828091C51E2193E707041EA18280BC
:104060001E21C207C18393F7F7FBC207C1831EA1BC
:10407000828009C65E21DD8D4EA182805E2193C5BE
:10408000F5FFFD8D4EA182800A256D8D3335A00090
:10409000828093C5F5FFC205C1810EA58280EFC263
:1040A0000FC8B7370140938707C0630AF502B70707
:1040B00000406302F504B70700409387074063059B
:1040C000F504B7170040938707806308F504B71716
:1040D0000040938707C0630BF5046FC08FC685450A
:1040E000056413050480EFF07FD881451305048033
:1040F000EFF0DFD7DDB785450545EFF01FD98145E6
:104100000545EFF09FD8D1BF85450945EFF0FFD7B2
:1041100081450945EFF07FD7C9B785451145EFF0D7
:10412000DFD681451145EFF05FD645BF8545214576
:10413000EFF0BFD581452145EFF03FD579BF1E2176
:10414000C207C18337370140130707C06300E50486
:1041500037070040630FE50413070740630BE504CE
:1041600037170040130707806305E5043717004041
:10417000130707C0630FE50293F7F7CFFA21D98F32
:104180001EA1DE215EB59E211EB589A093F7F7F82A
:10419000BA21D98F93F7F7CFFA21D98F1EA1DE214B
:1041A0005EB59E211EB59825B73701402398E7C21A
:1041B00031A893F7F7F8BA21D98F93F7F7CFFA21FF
:1041C000D98F1EA1DE215EB59E211EB585475EA951
:1041D00082801E31C207C183F99BC207C1831EB111
:1041E0001E31C207C1835621C206C1821A2D420761
:1041F00041831377C7F89221518FF59B922503D8FD
:10420000250033660601D18F37360140130606C0FC
:104210006308C50056A11AADFA215AB91EB18280B1
:10422000DD9BB225D18FED9BD221D18F93F6F6CFB6
:10423000D22503D8E50033660601D18EE1BF1E31D9
:10424000C207C183BD9BC207C1831EB11E31C20715
:10425000C183522142064182162D65771307F7CF9D
:10426000758F9621A206558F4207418393F7F7FD7C
:1042700003D88500B621B3E606019206D58FC207A2
:10428000C183B7360140938606C06308D50052A1AA
:104290001AADFA211ABD1EB1828093F7F7F7B62541
:1042A0009206D58FC207C18393F7F7FBD6219206FA
:1042B000D58FC207C183FD769386F63F758E03D8EE
:1042C000C500F625B3E606018A06558E42064182F0
:1042D0007DBF1E31C207C18393F7F7EFC207C183C9
:1042E0001EB11E31C207C1835221420641825A2D9E
:1042F000420741831377C7F89621558F93F7F7DF6D
:1043000003D88500B621B3E60601A206D58FC20701
:10431000C183B7360140938606C06308D50052A119
:104320005AADFA215ABD1EB18280FD769386F67F82
:10433000F58FB625A206D58FC207C18393F7F7BFC5
:10434000D621A206D58FC207C183F576FD16758EDC
:1043500003D8C500F625B3E606019206558E42063F
:10436000418275BF1A31FD77FD17F98F1EB10358D1
:1043700005025221420641825E2D65771307F7CF71
:104380007D8F9621A206558F42074183F977FD174D
:10439000B3F7070103D88500B621B3E60601B206DC
:1043A000D58FC207C183B7360140938606C0630923
:1043B000D50052A15AADFA212310E5041EB1828026
:1043C000F176FD16758ED6259A06558E42064182E7
:1043D000CDB7FD575EA1231005002313050023115F
:1043E000050023040500828091C51E2193E7170074
:1043F0001EA182801E21C207C183F99BC207C1830F
:104400001EA1828081C9835745042167D98F231259
:10441000F504828083574504C607C5832312F5043B
:10442000828009C65E25DD8D4EA582805E2593C5FE
:10443000F5FFFD8D4EA582801E25C207C183E19B3D
:10444000C207C1831EA5828091C51E2193E707087C
:104450001EA182801E21C207C18393F7F7F7C2070E
:10446000C1831EA182801E2DC207C183DD9BDD8D0D
:104470000EAD82801A2DFD779387F77FF98FA20505
:10448000CD8FC207C1831EAD82805E2DC207C1835E
:10449000DD9BDD8D4EAD82805A2DFD779387F77FB2
:1044A000F98FA205CD8FC207C1835EAD82801E2920
:1044B0004A2542054181ED8F89C76D8D3335A000B6
:1044C00082800145828093C5F5FFC205C1810EA996
:1044D0008280EFC2CF8401112A84AE841A29F57735
:1044E000FD17F98FFA21D98F1EA95A25FD779387D9
:1044F000379FF98FDA21D98F9A25D98FBA25D98F8D
:104500005EA55E29C207C18393F7F7CFDA25D98F5D
:104510005EA96800EFF04FFFB7470140938707801F
:10452000630CF40452475E24C207C18763C80704C2
:1045300093171700BA978E07BA9798400A07B3D710
:10454000E70213074006B3D6E7029206B3F7E70285
:104550005A2442074187634D070292079387270336
:1045600013074006B3D7E702BD8BD58FC207C183BF
:104570001EA405616FB0FFFC624775B79317170063
:10458000BA978E07BA9798400607B3D7E70255BF88
:104590001397370013072703930740063357F70293
:1045A0001D8BB367D700D9B791C55E250967D98F31
:1045B0005EA582805A25F977FD17F98F5EA5828066
:1045C00093F5F51F4EA182800A216D8D3335A00031
:1045D0008280B73700209387079923800700A38044
:1045E000070023810700A381070023820700A3821D
:1045F000070023830700A383070023840700A38405
:104600000700B7370020938707982390070023916E
:1046100007002392070023930700239407002395A4
:10462000070023960700B7070020239E07608280BB
:104630001147636AA710AA8713171500B736002021
:1046400093860699369714232E8563810610EFB260
:104650009FEAAE8986073737002013070799BA9774
:1046600080331319040113590901B30AD900637285
:10467000590B338A860093171400A29713972700CB
:10468000B73700209387C799BA978C43EF80E046ED
:10469000635CA006130419004204418093141400C3
:1046A000A29493972400B73400209384C499BE94B5
:1046B000528B131904011359090163795905A28B0F
:1046C000630B64018C400504B1044E85EF80E04229
:1046D000E341A0FE5E8A373400201304C49993148A
:1046E0001A00B38744018A07A297CC434E85EF8016
:1046F0008049B38644018A0636940C44EF70D05545
:10470000638C2A016FB0BFE2228AF1B71305000063
:10471000C5BF13050000EDB71384FAFFB7340020BE
:104720009384C49913191400B30789008A07A697C4
:104730008C43C843EF8020454A940A04A2948C44D9
:10474000EF709051C1B713050000828082808547C9
:10475000638BF50413171500B7360020938606996E
:1047600036971C2395EBB707002003D7C761338624
:10477000E50093064006854763C5C6020605B737C0
:104780000020938707993E950CA118B1B707002028
:10479000239EC760814731A0FD158D8FB337F00090
:1047A00086073E8582808D47EDBFEFB2BFD5AA8ACE
:1047B0002E8AB2843684BA893E89BE853A85EF80D6
:1047C00080652A8BA2852685EF80E064AA855A85BC
:1047D000EF70307F23A0AA00A2854E85EF80A03A1B
:1047E000AA89A6854A85EF80003AAA854E85EF8082
:1047F00080622A89A6852285EF80E061AA854A85A4
:10480000EF70307C2320AA006FB01FD31317150060
:10481000B737002093870799BA979C236364F60003
:1048200009458280EFB21FCEAE84B7370020938750
:1048300007993385E7000031229613140601418061
:1048400093191400338589000A05373900201309AC
:10485000C9999305850011059C449840D444D040E3
:10486000CA954A95EFF07FF4DC444E940A042299ED
:104870002320F90001456FB03FCC373500201305E8
:1048800005968280931735003705002013050562D1
:104890003E9523000500DC415CC101458280D84182
:1048A000B7360020938606E813163500B307A640F6
:1048B0008A07B697D8C37D173337E000D8AB03A873
:1048C000050123A8070103A8C50023A607018C4DF5
:1048D0008CCFF8AB23A407000145828093173500E5
:1048E000898F8A0737350020130505E83E9548294A
:1048F000828037380020130808E893183500B38603
:10490000A8408A06C2968947DCC213963500B307D1
:10491000B6408E0737370020130707E13303F7004F
:1049200023A06600238A0600A38A0600238B0600C4
:10493000232803028907BA972390070023910700D1
:104940002392070023930700239407002395070071
:104950002396070023970700239807002399070051
:10496000238A070023260302B7F7000083A7C79F07
:10497000232AF30205458280EFB27FBA93173500F0
:10498000898F13972700B7370020938707E8BA97D6
:104990008443D8549C4B6306F7062E892A843A85B3
:1049A000EF80D017B7F7000083A5879FEF80A01D89
:1049B000AA85B7F7000003A5C79FEF709060EF804E
:1049C0003004931745003385A7400A05420541810D
:1049D0002310A900EF803008CC58EF80C01AEF8078
:1049E00030022310A90013153400018D1314250083
:1049F00037350020130505E82295DC541CC909450C
:104A000011A00D456FB0FFB3EFB2DFAF3734002018
:104A1000130404E88144094A930A4006054B91496E
:104A200019A8584405A823240400850493F4F40F1E
:104A300071046382340722895C40638A47031C4CFB
:104A4000268582977828E300A7FE1C4485071CC4AE
:104A500069FB1848E37BF7FC8327490093C71700DD
:104A6000858BA98F230AF900230BA9007DBF5C2841
:104A7000850793F7F70F638457015CA87DB7230A76
:104A800004001C40985B6305670123A6070271BF01
:104A900023A8070259BFB707002093870762D843AE
:104AA0008C23014502976FB03FA9EFB25FA72E8616
:104AB000AA853755004013050540EF10A0266FB0BA
:104AC0005FA837350020130505EF8280EFB2BFA243
:104AD0003307C500856793870780094D63E0E704C6
:104AE0002A89AE8BB289B68A094D0DCA8547014A1B
:104AF0006308F600414C373B0020130B0BEFBDA0C1
:104B0000B737002003A847F1B68713074006894648
:104B10002E86AA851305000A02982A8D6A856FB031
:104B20001FA1C204C1801944B38C4B0103284B025E
:104B3000D6872947A6866686CA851305000A029885
:104B40002A8D09C5EF10303D7D146DF0269A420A7A
:104B5000135A0A01B3899940C20993D90901CA9429
:104B60001399040113590901E38A09FA9377F900AB
:104B7000B307FC40C207C183BE84E3F4F9FACE84D4
:104B80004DB7B307C5000567130707806374F700C7
:104B900009458280EFB2BF98B687B2862E86AA8575
:104BA00037370020032807F1130740061305000AD2
:104BB00002986FB01F99EFB29F964111AE860546DD
:104BC0009305F100EFF0FFFB888741016FB07F97FD
:104BD000EFB2FF9441114886CC86B737002083A7F7
:104BE00007F2AA972380070081467D566C00B7071D
:104BF000002003A58762EF20403241016FB07F940F
:104C000037050020130585628280B737002003D561
:104C100047F28280EFB21F8FAA84834905003734A0
:104C20000020130484F1230034017C257CA47C350E
:104C30007CB41C291CA85C495CC85E255EA40329C1
:104C40008500232424014E8681454A85EFB03F909C
:104C5000DC405CC04E8681454A85EFB05F8F814560
:104C6000B707002003A58762EF20400C01456FB015
:104C7000BF8CB737002083C787F1D1CFEFB29F88B1
:104C80000144B7340020938484F10549894A894955
:104C9000054A19A8DC40A297982331E30504137450
:104CA000F40F9C206377F406DC4822858297E303A7
:104CB00025FF984422971C23850793F7F70F1CA321
:104CC000D8402297142385E69428E3E9D7FC2300F3
:104CD0004701930500082285EFF09FEFC1B72380BD
:104CE0000700930500042285EFF09FEE45BFF034E6
:104CF00063E4C70063872601F024E3E1C7FAE39F7A
:104D000036F923005701930500082285EFF05FEC88
:104D100071B76FB07F828280B70700208396C76229
:104D20003307D5008147634D0700814711C9856767
:104D3000635AF700FD17630BF50093170701C18352
:104D40003E85828005659307F5FFDDBF0565930706
:104D5000F5FFFDB7EFB2AFFC3165EFE0FFF36FB0E9
:104D60004FFEEFB22FFA0111AA842E843289B727A1
:104D70000140938707406308F50C85451305004003
:104D8000EFF00F8BEFF01FFD2685EFD03FD902C06B
:104D900085473EC23EC4B7070E003EC602C89547CF
:104DA000230AF10002CC02CE8A852685EFD0DFDB14
:104DB00005CC130A19007D141374F40F229A4A8447
:104DC0008549B38929413D69130909A033868900C2
:104DD0001C20CA979D461376F60F8C232685EFD0AC
:104DE000BFE40504E31444FF85453725014013055E
:104DF0000540EFD01FEF85452685EFD09FDD854527
:104E00002685EFD0DFDB81452685EFD0BFF12685F3
:104E1000EFD09FDD2685EFD0DFDD6DFD2685EFD05D
:104E2000DFDD2685EFD01FDE6DFD2685EFD05FF13B
:104E3000B70700202396A76285452685EFD09FEE11
:104E400005616FB06FEF854513050020EFE05FFE51
:104E500015BF397106DE16DC1ADA1ED82AD62ED412
:104E600032D236D03ACE3ECC42CA46C872C676C49A
:104E70007AC27EC093050014372501401305054012
:104E8000EFD0FFE705E5F250E2525253C2533255DC
:104E9000A255125682567247E2475248C248324ED5
:104EA000A24E124F824F21617300203093050014EF
:104EB0003725014013050540EFD03FE6B707002036
:104EC00083A707638297C1B7B737002023AAA7F249
:104ED0008280B737002023A8A7F28280B73700204E
:104EE00023ACA7F28280EFB28FE379712A84AE847B
:104EF000328902D402D602C402C602C802CA02CC57
:104F000002CE02D002D2854537050002EFE03FF421
:104F1000230501008D47DC85AD475C869147DC8623
:104F200002C885473ECA02CC3ECE02D002D29307C9
:104F30004006630DF40C63EF8700D147630FF40C58
:104F4000930720036307F40CA947630CF40CC147D3
:104F50007C8415A09307401F6307F40A9307803EE3
:104F60006309F4009307A00FE313F4FEA1477C84C8
:104F700019A089477C842C00376400401305044045
:104F8000EFE0AF8A9305004013050440EFE0AFDA8D
:104F9000854513050440EFE00FDA89451305044009
:104FA000EFE06FD9C14513050440EFE0CFD80546C7
:104FB0009305304113050440EFE0AFCB9307400267
:104FC0002304F10285473ED623052103A304910261
:104FD0002810EFE09FB3930750022304F10228103A
:104FE000EFE0BFB2930730022304F1022810EFE094
:104FF000DFB1930760022304F1022810EFE0FFB055
:1050000045616FB00FD491477C84B5B7D1477C849C
:105010009DB7930780077C84B9BF9307C0127C8437
:1050200099BF930780257C84B9B7EFB24FCF8145F4
:105030003765004013050540EFE0EFB96FB06FD062
:10504000EFB2EFCD85453765004013050540EFE031
:105050008FB86FB00FCFEFB28FCC011102C802CA68
:1050600002CC02CE5421230BD1001C4113D7E70000
:10507000098BA30AE10093F7F77F3EC699CAAA8776
:10508000130771013695D43314A385070507E39CF4
:10509000A7FE6C003765004013050540EFE0CF9E8A
:1050A00005616FB00FCAEFB28FC701110548A30B9E
:1050B0000101230C010096056C879606748616067E
:1050C000F0811607F880B337F000FC82230BA100B3
:1050D00085473ECE6800EFE08F8505616FB06FC6F3
:1050E000EFB2EFC301112E847000B335A000376515
:1050F000004013050540EFE04FA5B24713F7F77FD7
:1051000083475101F91793B71700BE07D98F1CC009
:10511000834761015CA023170400834771015CB0E1
:10512000834781017CA0834791017CB08347A10123
:105130001CA48347B1011CB48347C1013CA483472D
:10514000D1013CB48347E1015CA4014505616FB026
:105150004FBF397106DE16DC1ADA1ED82AD62ED4D5
:1051600032D236D03ACE3ECC42CA46C872C676C497
:105170007AC27EC0B7050038850537650040130543
:105180000540EFE06FB085476309F506B7050038C5
:10519000938505103765004013050540EFE0CFAE5D
:1051A00085476306F506B7050138376500401305E6
:1051B0000540EFE06FAD85476306F506B737002081
:1051C00083A747F38297854537650040130505405F
:1051D000EFE06FB6F250E2525253C2533255A2552D
:1051E000125682567247E2475248C248324EA24E89
:1051F000124F824F216173002030B70500388505BA
:105200003765004013050540EFE0EFAE41B7B70545
:105210000038938505103765004013050540EFE021
:105220008FAD51B7B705013837650040130505400C
:10523000EFE06FAC61B7397106DE16DC1ADA1ED802
:105240002AD62ED432D236D03ACE3ECC42CA46C826
:1052500072C676C47AC27EC0B737002083A707F330
:105260000145829791453765004013050540EFE001
:105270008FACF250E2525253C2533255A2551256DD
:1052800082567247E2475248C248324EA24E124FEF
:10529000824F216173002030397106DE16DC1ADA84
:1052A0001ED82AD62ED432D236D03ACE3ECC42CADE
:1052B00046C872C676C47AC27EC0B737002083A7BC
:1052C00007F30545829793050002376500401305F3
:1052D0000540EFE04FA6F250E2525253C25332550E
:1052E000A255125682567247E2475248C248324E81
:1052F000A24E124F824F216173002030397106DEB9
:1053000016DC1ADA1ED82AD62ED432D236D03ACEAD
:105310003ECC42CA46C872C676C47AC27EC09305E5
:1053200000403765004013050540EFE0CFA0B737D8
:10533000002083A787F38297F250E2525253C25360
:105340003255A255125682567247E2475248C24819
:10535000324EA24E124F824F216173002030EFB2C5
:105360000F9C8545EFE0CFAC6FB0AF9DEFB22F9BA8
:105370008145EFE0EFAB6FB0CF9CEFB24F9AC20523
:10538000C181EFE0CFAD6FB0CF9BEFB2CF96397157
:105390002A842E89B284368BBA8A428AC68902C68A
:1053A00002C885450545EFE0DFA663060908854785
:1053B0006314F900C1473ECE85476383F408B5CC3A
:1053C00089476386F408B7070240A1076309F40818
:1053D000B7070240F107630FF40CB7070240938749
:1053E00007036301F40EB707024093874704630481
:1053F000F40EB7070240938787056306F40EB707DC
:1054000002409387C7066308F40EB70702409387EC
:105410000708630CF40EB707024093874709631728
:10542000F404B7370020465723ACE7F4930BE003AE
:10543000370C001025A802CE41B702D802D661B7BA
:10544000930700403ED8930700103ED6ADBF856756
:10545000938707803ED8930700203ED6ADB7B73775
:105460000020465723AEE7F2ED4B054C93070008AA
:105470003ED402D202DA85673EDC5ACA56CC02DE3E
:105480004C082285EFE04F97054689452285EFE0DD
:10549000AF9B6285EFE0CF9D23067101A30641011A
:1054A0002307310185473EC86800EFE00FE6216120
:1054B0006FB0EF87B7370020465723A0E7F4F14BD2
:1054C000414C6DB7B7370020465723A2E7F4F54BA0
:1054D000130C001061BFB7370020465723A4E7F430
:1054E000F94B056C61B7B7370020465723A6E7F4A0
:1054F000FD4B416CA5BFB7370020465723A8E7F402
:10550000930B0002370C100095B7B73700204657B1
:1055100023AAE7F4930B1002370C000181BFEFB20E
:105520000F80AA842E8432890545EFE06F94CA85E6
:105530002685EFE0CF92C0C485453724014013058E
:105540000440EFD00FE99305002213050440EFD08B
:10555000CFFC054689452685EFE00F8F85452685DA
:10556000EFE00F8D854513050440EFD04FE58545ED
:1055700013050440EFD08FE96FA0BFFC397106DE40
:1055800016DC1ADA1ED82AD62ED432D236D03ACE2B
:105590003ECC42CA46C872C676C47AC27EC00945AD
:1055A000EFE02F8C85476305F502F250E25252532B
:1055B000C2533255A255125682567247E24752489C
:1055C000C248324EA24E124F824F216173002030EA
:1055D000B737002083A7C7F382970545EFE04F89CF
:1055E000E9B7397106DE16DC1ADA1ED82AD62ED4AF
:1055F00032D236D03ACE3ECC42CA46C872C676C403
:105600007AC27EC013050020EFE0AF8585476305B1
:10561000F502F250E2525253C2533255A25512567D
:1056200082567247E2475248C248324EA24E124F4B
:10563000824F216173002030B737002083A747F4E1
:10564000829713050010EFE0AF82E1B7397106DEF3
:1056500016DC1ADA1ED82AD62ED432D236D03ACE5A
:105660003ECC42CA46C872C676C47AC27EC03705EE
:105670000200EFD01FFF85476305F502F250E252AA
:105680005253C2533255A255125682567247E247C0
:105690005248C248324EA24E124F824F21617300CF
:1056A0002030B737002083A7C7F482974165EFD039
:1056B0003FFCE9B7397106DE16DC1ADA1ED82AD6A5
:1056C0002ED432D236D03ACE3ECC42CA46C872C66A
:1056D00076C47AC27EC00965EFD0BFF885476305FE
:1056E000F502F250E2525253C2533255A2551256AD
:1056F00082567247E2475248C248324EA24E124F7B
:10570000824F216173002030B737002083A787F4D0
:1057100082970565EFD0DFF5E9B7397106DE16DC53
:105720001ADA1ED82AD62ED432D236D03ACE3ECC71
:1057300042CA46C872C676C47AC27EC03705000225
:10574000EFD03FF285476305F502F250E252525323
:10575000C2533255A255125682567247E2475248FA
:10576000C248324EA24E124F824F21617300203048
:10577000B737002083A747F5829737050001EFD0A0
:105780003FEFE1B7B7370020938787F523A00700E5
:1057900023A207008280EFA29FD8B717014093870A
:1057A00007C06306F50CB7170140630FF506938732
:1057B00007406306F508B727014093870780630C0D
:1057C000F508B7270140938707C06307F502B7279D
:1057D00001406309F504B737002083A787F5A9E3E3
:1057E00037170140130707806313E502854511450C
:1057F000EFE00FE4814721A81547BA8793162700E9
:1058000037370020130787F53697184311EB1397A6
:105810002700B7370020938787F5BA97054798C3C5
:105820006FA03FD21947D1BFB737002083A707F633
:10583000E5FB85454145EFE0AFDF8947C9BFB73795
:10584000002083A747F6E9FF854513050002EFE036
:105850002FDE8D476DBFB737002083A787F6E9F3AA
:10586000854513050004EFE0AFDC91474DB7B7372E
:10587000002083A7C7F5CDF785452145EFE04FDB35
:10588000854771B7EFA2BFC941112A84AE84EFF0FA
:105890009FF06482C1473EC689473EC44C002285C2
:1058A000EFD09FDD41016FA0DFC9EFA25FC74111BB
:1058B0002A84AE84EFF03FEE648202C68D473EC478
:1058C0004C002285EFD05FDB41016FA09FC7EFA2A4
:1058D0001FC541112A84AE84EFF0FFEB648291472B
:1058E0003EC68D473EC44C002285EFD0FFD8410113
:1058F0006FA03FC5EFA21FC14111AA84AE893284B7
:105900003689EFF05FE909EC231231014AC68D4771
:105910003EC44C002685EFD03FD641016FA0DFC1C9
:1059200085450545EFE0CFD085452285EFD01FEABC
:10593000E1BFEFA2DFBEEFD03FE46FA09FC0EFA2B8
:105940001FBEEFD07FE56FA0DFBFEFA25FBDEFD03E
:105950005FE66FA01FBFEFA29FBC3A89370400200B
:105960001304446318400548A300070118401CA312
:1059700004402395040096A4D0C4C8B0EEA0EF2044
:10598000101FC8C81C401D47D8CF014693050070A2
:10599000884BEFE02F8E3704002083274463B70540
:1059A0000200884BEFE08F916DF9B70400209384DB
:1059B00044639C408545884BEFE06F849C400546DE
:1059C00093050070884BEFE0EF8A9C404A86FD55B6
:1059D0008823EF20104A2A849C40014693050070DA
:1059E000884BEFE02F89333580003305A04075994F
:1059F0000D056FA01FB5EFA29FB23A8937040020B2
:105A00001304446318400548A300070118401CA371
:105A100004402395040096A4D0C4C8B0EEA0EF20A3
:105A20001015C8C81C400547D8CF01469305007023
:105A3000884BEFE02F843704002083274463B705A9
:105A40000200884BEFE08F876DF9370400201304C4
:105A500044631C408545884BEFD03FFE1C40854584
:105A6000884BEFD0DFF91C40054693050070884B4A
:105A7000EFE04F801C404A86FD558823EF20703FA1
:105A8000AA841C40014693050070884BEFD09FFE0E
:105A90001385F4FF3335A000B707002083A74763C1
:105AA000A38007000A056FA0DFA9EFA25FA741113D
:105AB00002C637040020130444631C40D145884BC0
:105AC000EFD09FFE1440D84EB14763ECE700931728
:105AD00027003D67130747A1BA979C438287058932
:105AE00001E541016FA0FFA50146CC32884AEFD005
:105AF0009FFAB707002083A747630947D8CFD5B7D8
:105B0000098965D1E145884AEFD01FFA37040020A2
:105B1000130444631C40EE23A181FD89884BEFD020
:105B2000DFF61C402D47D8CF6DBF1375050855D93A
:105B3000EC22884AEFD07FF5B707002083A74763A0
:105B40000D47D8CF79BF1375050841DD8545884AD3
:105B5000EFD0FFEAB707002083A747631147D8CFEC
:105B600049B705893DDD0546CC32884AEFD0BFF202
:105B7000B707002083A747631547D8CF9DB709898A
:105B80002DD1E145884AEFD03FF2B707002083A727
:105B900047631947D8CFB1B71375050439D1BA2671
