:100000006F30004F130000001300000013000000C9
:100010001300000013000000130000001300000094
:100020001300000013000000130000001300000084
:08003000130000007300100032
:100038000000000000000000A80E0000AA0E00004A
:1000480000000000883400000000000000000000EC
:100058008A3400008C34000000000000000000001A
:1000680040710000000000000002000000000000D5
:100078009234000094340000963400000C660000AE
:100088009A3400009C3400009E340000A034000024
:10009800A2340000A4340000A63400008E5C0000E6
:1000A800AA340000F25C0000C05D00005A5D000048
:1000B800B2340000245E0000D05500008E580000C5
:1000C80064590000C65900002A5A0000C0340000D4
:1000D800C234000052680000C6340000686700009F
:1000E800AE6900003A690000C66800002C64000090
:1000F80078640000C464000010650000D834000073
:10010800DA340000DC340000DE340000E0340000A3
:10011800E2340000E4340000E6340000E834000073
:10012800EA340000EC340000EE3400000000000067
:080138000000000000000000BF
:10020000130181F806C216C41AC61EC822CA26CC1B
:100210002ACE2ED032D236D43AD63ED842DA46DC76
:100220004ADECEC0D2C2D6C4DAC6DEC8E2CAE6CC46
:10023000EACEEED0F2D2F6D4FAD6FED8F3220030CF
:1002400096DA9702002083A2A24423A02200F3257D
:1002500010342EC003A10183EF80E0241703002097
:100260000323034303210300824273901234D652C6
:10027000739002309240A2423243C2435244E2445D
:10028000724582551256A2563257C2575258E258FA
:1002900072598649164AA64A364BC64B564CE64C0E
:1002A000764D865D165EA65E365FC65F13018107DA
:1002B0007300203013000000130000001300000042
:1002C00013000000130000001300000013000000E2
:1002D00013000000130000001300000013000000D2
:1002E00013000000130000001300000013000000C2
:1002F00013000000130000001300000013000000B2
:1003000083A20183938202E07390023417010020DC
:1003100003210138024182403243C2435244E24445
:10032000724582551256A2563257C2575258E25859
:1003300072598649164AA64A364BC64B564CE64C6D
:10034000764D865D165EA65E365FC65FD652A1020A
:1003500073900230A24213018107828013000000D3
:100360001300000013000000130000001300000041
:100370001300000013000000130000001300000031
:100380001300000013000000130000001300000021
:100390001300000013000000130000001300000011
:1003A0001300000013000000130000001300000001
:1003B00013000000130000001300000013000000F1
:1003C00013000000130000001300000013000000E1
:1003D00013000000130000001300000013000000D1
:1003E00013000000130000001300000013000000C1
:1003F00013000000130000001300000013000000B1
:10040000F322003093F272FF130380181203B3E259
:100410006200711523205500130585FA10C12115BE
:10042000232005009302000063870200711523203A
:100430000500FD12D5BF71150CC1828000000000BF
:1004400000000000000000000000000000000000AC
:10045000000000000000000000000000000000009C
:10046000000000000000000000000000000000008C
:10047000000000000000000000000000000000007C
:10048000000000000000000000000000000000006C
:10049000000000000000000000000000000000005C
:1004A000000000000000000000000000000000004C
:1004B000000000000000000000000000000000003C
:1004C000000000000000000000000000000000002C
:1004D000000000000000000000000000000000001C
:1004E0000000000000000000000000000000397162
:1004F00001436EC619A0397141536AC866CA62CCFD
:100500005ECE19A0397101535AD056D252D44ED66C
:100510004AD826DA22DC06DE3301614082824111AC
:100520004AC026C222C406C68282B24D4101024D93
:10053000924C224CB24B4101024B924A224AB249A0
:100540004101024992442244B240410182803D432C
:100550002A876373C3029377F700BDEFADE5937607
:1005600006FF3D8ABA960CC34CC30CC74CC7410763
:10057000E36BD7FE11E28280B306C3408A0697027E
:10058000000096966780A6002307B700A306B70071
:100590002306B700A305B7002305B700A304B700DF
:1005A0002304B700A303B7002303B700A302B700D7
:1005B0002302B700A301B7002301B700A300B700CF
:1005C0002300B700828093F5F50F93968500D58DB3
:1005D00093960501D58D61B7939627009702000089
:1005E00096968682E78086FA9680C1171D8F3E9682
:1005F000E374C3F8A5B7370500201305455F828073
:10060000370500201305055F8280B707002023AC63
:10061000A75E8280EFF23FEEB70500203971938527
:10062000C55E014537040020EFB0206C2324A45E92
:100630001304845E19E1EF20A0041C40370700205A
:100640000327875FDC4398C3EF80507EEF90000163
:10065000EF00C0772313A10202D6EF00207A1C40DE
:10066000A302A102DC43884323AA0700EF90E00124
:100670001C40C843EF9020150840035661025C41BE
:100680008C43EFB0A07619C1EF10907FB707002020
:100690009387074098530840930661023AD8D8538D
:1006A000130651020C183ADA9857DC573ADC3EDE52
:1006B000EFB0207719C1EF10B07C83A641810349C8
:1006C0005102032A040036CEEF00E0729307401F68
:1006D0003EC0F24689679309C102C507C98F4EC65D
:1006E0004AC402C29308803E1308401F01470146D6
:1006F00081455285EFB0007611C5B5576304F5000A
:10070000EF101078084003A641814E874C49CA86F5
:10071000EFB0C07F19C1EF10B0761C409C4399C365
:10072000EF1010761C40B70400208969C843130AF3
:10073000803EEF80907623AE045EEF80B073EF7062
:10074000D0202A8902D49384C45F938909719C4084
:1007500089CBB707EFBE37E700E0938707083CC7B0
:10076000FDBFA25503A54193B3D54503EF70E01D2E
:10077000EF80D06E4ED4EF70501D33062541330606
:100780004603AA8A0840341081455689EFB0B00666
:1007900088C003A58193814601468145EF60D06101
:1007A000EF80506D6DB7EFF2FFD54111EF80106B08
:1007B000EF70B01989692A8402C6130A803E9389B2
:1007C0000971370B0020EF80F06AB24503A58193D1
:1007D00013098B5EB3D54503A284EF700017EF8039
:1007E000F067832709004EC695CFDC43DC4B9DCBD9
:1007F000EF70B015AA84032509001C4185E75C4110
:10080000DC4B8DC33384844033044403740081453E
:100810002286EFB030060325090074002286814548
:10082000EFB05009268445B7370500201305456011
:100830008280EFF2DFCE37040020130444600840CA
:100840004111EF70003211CD08407D566C00EF6011
:10085000707928871086938581948946AA95EF4000
:1008600010364101F9B9938781943E9593D785005D
:100870000CA11CB193D70501E1813CA12CB1828070
:10088000938781943E950CA1A1810CB182809387BE
:1008900081943E950CA18280EFF27FC8AE8693854D
:1008A00081940946AA95EF40903161B9938781946C
:1008B000AA97983388232207598D8280EFF29FC42C
:1008C00001111306602281451385819449318946BF
:1008D00013060021938581940145EF40303963165A
:1008E000052E138481941820930770076306F72A56
:1008F000B7170C2037070001938777C71306071037
:100900001CC089475CA010D430CC70D089673706F2
:1009100000789387174070D437460501B706000367
:100920007EA413065660B7070005938506101CC801
:1009300030D8B7070024378605005CC84CD493072D
:100940000050B705005A130606801CCC6CC49307F0
:100950000010A96570D834DC1306002093860620A9
:1009600058CC58D078C838D02320C4081CD01CD804
:100970002CC87CCC3CD474DC232A0402232C040233
:10098000232E040223200404232204042324040429
:10099000232204082316F40A231CF40AE147A301C6
:1009A000F40CB707001589072322F40CB7071203CC
:1009B000938717502324F40CB71705049387073047
:1009C0002326F40CB7073603938737602328F40CEB
:1009D000B707F302B706001A9387F7032328D40852
:1009E000232AF40CB7F60301B70706009386468066
:1009F0009387370F232AD408232CF40CB72604003E
:100A0000B707CF00938606A09387B70D232CD40891
:100A1000232EF40CB7060002B707ED009387670E8C
:100A2000232ED4089386062085442320F40E232009
:100A3000D40A2322C40A2324E40A9305001015458E
:100A40002324040823260408A30B940A2307040A7A
:100A5000230D040A093D814525453135B79701121B
:100A6000C9072322F40EB707129093870719B969B3
:100A70002306940E2324F40E938949389304D00E50
:100A8000130B501383DA090026859109D685CD3BD7
:100A900003DAE9FF138524004205D2854181CD3375
:100AA000138504054205D6854181D93B138524056C
:100AB0004205D2854181E9331385040A4205D68572
:100AC00041817D3B1385240A91044205C204D285ED
:100AD0004181C1807533E39764FBA157A30EF41CD9
:100AE000FD7793873780B705003E231FF41CD5059B
:100AF0008D471305501E2300F41EB533B70500764D
:100B0000ED051305901E8533B7053F78CD05130518
:100B1000D01E913BB7050071D1051305101FA133FD
:100B2000B7057978C9051305501F353BB7057350D4
:100B3000D9051305101E053BB705006DDD0513052E
:100B4000901F1533F1451305D01F313B8145130527
:100B50001020113B814513055020313395478946BC
:100B60002315F42013060021938581940145A304E5
:100B70000420EF40D00413060021814513858194A1
:100B8000F9322945EF70D00B894613060021938571
:100B900081940145EF40900D0349440E01457D19B4
:100BA0009375F90FEF40004041C58349740E054528
:100BB000CE85EF40203F630C050C0349A40E05458C
:100BC000CA85EF40203E63030512B7070020239437
:100BD0000760056195B213960401418293192600BE
:100BE0001385D90E32C6D93142054185EFC0603038
:100BF0002AC81385F90E5D39EFC0003C2ACA138557
:100C0000190F6D3142054185EFC0A02E2ACC138506
:100C1000390F6939EFC0403A32462ACE0C080145F7
:100C20008504EF40404393F4F40FE3C624FBB5BFC3
:100C30008144E5BF13960401418213192600130570
:100C4000D91332C6A53142054185EFC0802A2AC892
:100C50001305F913A139EFC020362ACA1305191458
:100C6000B13142054185EFC0C0282ACC13053914A3
:100C70003539EFC0603432462ACE0C08054585046C
:100C8000EF40603D93F4F40FE3F699FA3DB78544E5
:100C9000E5BF131604014182931426001385D4186E
:100CA00032C6293142054185EFC0A0242AC81385E8
:100CB000F418ED3EEFC040302ACA13851419FD36F2
:100CC00042054185EFC0E0222ACC13853419F93E54
:100CD000EFC0802E32462ACE0C0809450504EF40AD
:100CE00080371374F40FE37689FAC5B50544E5BF80
:100CF00093878194AA979833A82322074205498FA6
:100D00008823498FA8336205598D82809387819407
:100D10003E9508218280EFF29F8041112A842800AD
:100D2000B284EFC0803E8947638FF40291476380AD
:100D3000F40485476397F400188493878194A297FD
:100D400098A39307F02063ED8700B707002003A561
:100D5000476081467D566C0060874486EF60D00511
:100D600041016FF00FFE2C842285193ED9BFA245A8
:100D70002285D53CF9B7EFF28FFA41112A84680039
:100D8000B284EFC080388947638AF4029147638B4D
:100D9000F40285476397F400188693878194A2979D
:100DA00098A39307F02063E88700894626866C00A5
:100DB0002285EF40C06041016FF0AFF82C8622859C
:100DC000C134C5B7B2452285793CE1BFEFF22FF5BA
:100DD00089451145EF40C06C1D479307D0076369F3
:100DE000A700931715003965130545373E951E2159
:100DF0003E856FF00FF513050010828003C5B19496
:100E00008280EFF2CFF137040020130484601E20AB
:100E1000130770168507C207C1831EA0637BF70006
:100E20001545F935930515001545EFF0DFA323109F
:100E3000040037040020130404600840EFC0C0170A
:100E4000AA8403C551958145F920EFC0800AB7E710
:100E5000000083A5C73CEFB08060A685EFB0802975
:100E6000EFC0C00308C06FF0CFEDEFF24FEBB70754
:100E7000002083A50760930740062545B3D5F502FA
:100E8000EFF07F9E814621469385D1941545EF4032
:100E900000536FF00FEBB707002003A5076093071F
:100EA00040063355F502828001A001A0EFF22FE742
:100EB00041112E84AA8519453EC03AC236C432C6B5
:100EC000EF10403EA2851545EF10C03D324611455A
:100ED000B285EF10203DA2460D45B685EF10803C4F
:100EE00081450945EF10003C12470545BA85EF10D2
:100EF000603B82470145BE85EF10C03A41016FF06B
:100F00004FE4370500201305C5618280B707002034
:100F100023A6A7608280EFF28FE09307F5FF714769
:100F2000636CF71039678A071307073DBA979C432C
:100F3000AE8482871305152142054181C13B2A8475
:100F400022856FF00FE01305152142054181EFF076
:100F5000FF95F5B739151375F50FEF00B078AA8531
:100F60000145EF301079B7E7000083A5474AEFB09D
:100F7000500BEFB0906C2A84E1D41305500EEFF0C3
:100F8000FF922A9475BF0D45EF00D075B7E70000BA
:100F900083A5474AEFB0F008EFB0306A4DB701457E
:100FA000EF40E027AA841305D01DEFF03F90EFC07B
:100FB000A000B7E7000083A5874AEFB0404A2A8423
:100FC0002685EFB01073AA852285EFB09005B7E7AC
:100FD000000083A5474AEFB0D004EFB0306C85B76E
:100FE0000545EF40C023AA841305F01D7DBF0945C8
:100FF000EF402013A9B7453599B71545D53981B7C5
:10100000B707002003A4C76025BF1305C020CD315A
:1010100013548540930740061374F40F3304F4020D
:101020009377F50F41851375F50F3E948967938784
:1010300007713305F502B1B7014419B7138701B839
:1010400083464702938701B81396260032971043D0
:101050007147631EE60203C7570315CB885B05C9BA
:1010600003C7D70209C7A38A0702A386070203C7DB
:10107000570393080002054805071377F70F937588
:10108000F70F63F5B802A38A0702A3860702138746
:10109000160083C647031377F70F2382E7026364C2
:1010A000D7002382070223A4070282803316E800B8
:1010B000698E050769D6A38AB7028280938701B833
:1010C00003C7570223A407022382E7028280EFF2BC
:1010D0000FC5938501B883C7450205469385550220
:1010E0009CA11305902041396FF0AFC503C541BAEB
:1010F0008280A54763E6A7002382A1BA01458280CA
:1011000005458280A54763E1A702EFF24FC19385B1
:1011100001B8A382A50205469385550213059020C8
:10112000DD3E01456FF0EFC105458280938701B830
:1011300083C6470203C757026385E60203C7D70287
:101140000DE398573A9588D783C767021307803E07
:10115000B387E7026367F500EFF26FBC85376FF086
:101160004FBE828001C9F147630AF5009D470145E2
:1011700063F5B700238AB1BA054582802386B1BAE8
:1011800001458280EFF20FB8138501B7EF80002A86
:1011900013059020938401B8EFF05FB7A382A402F7
:1011A0001305A020EFF09FB683C754022383A40247
:1011B000238A04022382F402138901B88144138430
:1011C00001B8054AA549139524001305151E4205CB
:1011D0004181EFF0FFB12320A90093F5F40F1375BF
:1011E000F50F49376306450185041109E39D34FD78
:1011F00023280402A30A04026FF00FB4138701B876
:10120000185B938701B86309A70483C6C702A9C600
:101210001347F7FF698F88DBA38A07020146014560
:10122000854813080002B395C800F98D9376F60F30
:1012300081C919C1A38AD7020547A386E702828024
:101240008506050693F6F60F0545E31E06FDA38AFF
:10125000D7027DF3A38607028280138701B88346F5
:10126000D7020547938701B86396E60003C7C70214
:101270002382E70203C747020A07BA97884382809E
:10128000EFF2EFA9014689452A84EF009077228585
:1012900001468D45EF00F076014685452285EF0039
:1012A00050766FF00FAAEFF28FA741112A8432C453
:1012B0002EC6EFF0AFDFB2458AA113052400420528
:1012C0004181EFF0AFDE22460AA241016FF06FA725
:1012D000EFF2EFA4411189E5653741016FF06FA688
:1012E000AA84314933892403AE873E85854525315B
:1012F0001314050170009305E10041801305B90145
:101300005D3738863C870146B366F70089CE63E9CE
:10131000E700636AE40033B687001346160021A095
:101320000546E36AE4FE89452685EF00906D70006E
:101330009305E1001305F901BD3738863C87014666
:10134000B366F70089CE63E9E700636AE40033B669
:1013500087001346160021A00546E36AE4FE854592
:101360002685EF00106A70009305E100130539022D
:101370001D3F38863C870146B366F70089CE63E996
:10138000E700636AE40033B487001346140021A029
:101390000546E36AE4FE8D452685EF00906635BF7D
:1013A000EFF26F954111AA8AAE843D456C00B28977
:1013B0001306E10036893A8C3E8B428DC68C03546D
:1013C0004104D5352886835BE10033057541EFB0D4
:1013D0005032B7E7000083A5C74AEFB080442A8A9D
:1013E000636E340333857941EFB0B030D285EFB00E
:1013F0000007EFB0B02A2300AD0033053441637419
:1014000089003305394142054181EFB0F03AD28578
:10141000EFB0E004EFB090282380AC00636D54037C
:1014200033857A41EFB0F02CD285EFB04003EFB0B6
:10143000F0262300AC0063E3840233045441131507
:1014400004014181EFB05037D285EFB04001EFB0D9
:10145000F0242300AB0041016FF06F8D33845441C1
:10146000F9BF03480100388263F6A5026374A70040
:1014700063E6E6006379B700637FE6022380080134
:101480002380070182806364D700E37BE6FE23802C
:10149000080182806377E600E362B7FEE379D7FE56
:1014A00019A06375D700E36BE5FCD5B7E371B7FE10
:1014B000E368E5FCE9BFE36CD7FCD9B7EFF22F8610
:1014C00079712A892E84B2846C101306E1023D459D
:1014D00036CE3ACC3ECA42C846C6F133F246B2488E
:1014E0004248D247624763F4860263EB260163E910
:1014F000280163E91601230007012380070129A0C1
:10150000E3FD16FF2300070145616FF08F836367DA
:10151000940063E59800E36214FFF1BFE37414FFE5
:10152000E9BFEFE2DFFFEF706036B707002023A0CE
:10153000A762B707002003A5C76101478D46114682
:101540008145EF7040786FE0DFFFEFE25FFAB7E7C9
:10155000000083ABC74A396AB96A396B39710149EE
:101560008549130A8A48938A4A44130B8B460544DB
:1015700089476384891463820916E39CF9FE29452F
:10158000EF60106C85653715014093850580130564
:1015900005C0EF4050273707002013075761631A33
:1015A0008514042381C8B707002023000700239572
:1015B000076085440144394C1305340C42054181D0
:1015C000EFF0CFF4AA851375F40F05041133E3157A
:1015D00084FF1305100DEFF06FF323060102A3063D
:1015E000010223070102A307010249C18545EFF06B
:1015F0009F92931C05011306A1032C18AA8D3D454B
:101600005D315018930561034D45713910189305EC
:1016100021035D4549398357A1030355810393DCB9
:101620000C011D8DEFB0F00CDE85EFB0801F2A8D10
:101630003945EFF0AFED0356410303540103035C5A
:10164000210383566103631E050E63648C0063FFF0
:10165000C60066C26AC09308D1021308C10293078C
:10166000F1021307E102E28522851D3B8346D10288
:101670000346C1028345F1020345E102370400201D
:10168000130C0461EF00F03283270C001304046193
:10169000639F0720370400202945230A0460EFF0E8
:1016A000FFA813044461638B040E85476306F90E9B
:1016B0006317091CEFF09F98D5A07D577418130687
:1016C000F00F81450145EF70A051F257918BE380F7
:1016D00007EAEFF03FAB814959BDB707002003A5EA
:1016E00007620147894601468145EF70C05D89491F
:1016F000BDBDB70600209386A6609E220423850701
:10170000C207C1839EA289EC9146E3F5F6EA00A3E5
:101710009306702563FAF60089471CA3054951BD5D
:10172000E38884FE814479B51307F0186369F700F4
:101730001307700C8144E37FF7E60949A5BD0D4905
:10174000D5B713950D01418136CE32CCEFB0607A1A
:10175000EA85EFA0D050EFB060741378F50F6246C1
:10176000F24663648C0063F0C60242C066C293080E
:10177000D1021308C1029307F1021307E102E285C7
:101780002285C531E5B5E6889307D1021307F1023A
:10179000E28522852533D9BD23202C01B7070020FF
:1017A00083ACC7606685EFF07FA5EFF01FAB2A8C96
:1017B000F1471375F50F6313F50E638E0C0C9387C9
:1017C00001B8945B83C757030146138C01B8854564
:1017D000130500023397F500758F4DC719C2A30A90
:1017E000FC0283475C0329463967850793F7F70FA7
:1017F000B3F6C70213074754930500051305900776
:10180000B3D7C702BA96130600053E9718239C2249
:101810008146EFF0AFE90145EF0090328347DC02EB
:1018200099C385471CA0B707002083C7476185C3BC
:1018300037070020130767611E2393068002850780
:10184000C207C1831EA363F6F6262310070091C0CA
:10185000014913050021EFF06F859377F50F0145DE
:1018600091CB1385F7FF1375F50F13059506060544
:10187000EFF0CF83EF001041EF00D04ACDB9EFF089
:101880001F8529BF850793F7F70F6373F50081471D
:101890000546A9F2A9B7EFF06FFA71B78145EFF0ED
:1018A0008FE7AA8513550C01EF00B02BADBF05479C
:1018B000639EE71037070020370C0020230AF760EB
:1018C000130C8C6181C883470C00631E09008507D7
:1018D0002300FC0083470C0021476365F70E8A074D
:1018E000D6979C438287FD1793F7F70F1D47E36355
:1018F000F7FE8A07DA979C4382878D471CC0D9BFC1
:101900009147EDBF9D47DDBFA147CDBFA547FDB7BF
:1019100089451305D01DEFE03FF889451305F01DFB
:10192000EFE09FF723000C0075B7EFF02FF92320AD
:1019300004004DB78147014781461306D006930541
:10194000E0061305D00609A88147014781461946DC
:101950009305300713050005EFF04FD5E9B5814732
:10196000014781461306B005E5B78147014799460F
:1019700013064005994513057007F9BF81470147D4
:101980009306B005F5B7814701479306F004CDB73C
:1019900081470147930690071306E00393057007FC
:1019A0004DB781457545EFF00FD7AA851565EDBD9B
:1019B0008147014793068007194693056007130581
:1019C000900759BF85472300FC00B1BD91C49377B0
:1019D000D9FF6393E7001CC0184099469307D7FFCF
:1019E000E3E3F6E48A07D2979C4382870145DD2929
:1019F000EFB0A044A945B305B502130500606DB56D
:101A00000545CD21EFB06043A945B305B502196581
:101A1000130505B051BD0945F121EFB00042A945BC
:101A2000B305B5021565130505F0BDBD8D478145AC
:101A30006318F7025945EFF00FCEAA850965130523
:101A40006530EF001012E38004DE89476312F90865
:101A500014400D4795476383E60099471CC0E1B3E6
:101A60005D45EFF04FCBAA8519651305B535D1BF9C
:101A7000954781456317F7025945EFF0CFC9AA850D
:101A80000965130565C0EF00D00DE38E04D88947C2
:101A9000631BF906144015478D47E381E6FC914727
:101AA00075BF5D45EFF02FC7AA8511651305B5F524
:101AB000D9BF5547E37DF7D801441D4C2285050465
:101AC00081451374F40FEF00E07DE31984FF41B307
:101AD000E31B09D418408D471305D01D6304F7009C
:101AE0001305F01DEFE09FDC18409305150093F5FA
:101AF000F50F8D471305D01D6304F7001305F01D86
:101B0000EFE01FD80DB3E31009D218409547130535
:101B1000D01D6304F7001305F01DEFE03FD99305D6
:101B2000F5FF93F5F50F18409547E9B7EFE23F9FB2
:101B300037140140EF4080351305048093050010F1
:101B4000EF40E04D130504C0C145EF40A04085645F
:101B5000938504C2130504C0EF40A0443706180063
:101B6000130504C0914613060610A145EF40E04559
:101B7000938504801305048091460146EF40E044BC
:101B8000E1460146130504C08D45EF4000441305AE
:101B900004809305F004EF40603E13050480E146A5
:101BA00001469305000AEF404042E1460146130515
:101BB00004C0A965EF40604113050480C145EF40B2
:101BC0006039130504C08565EF40C038130504C0B3
:101BD000E14637461D0093050020EF40003F130506
:101BE00004C09306800437461D0093050010EF40A3
:101BF000C03DF146130504C001469305000CEF40BB
:101C0000C03CEF30A02B0546854537350140EF40FD
:101C10003026374500400546854513050580EF40D1
:101C200030253715000015468545130525E0EF40A2
:101C3000F012B7440F00B72600008D470547938583
:101C4000042493860655130640060D45EF40B06404
:101C50000D45EF40905CB1461306803E9385042409
:101C60000945EF40906D0945EF40305B85450545DE
:101C7000EF30C072C145130504C0EF4080393765AD
:101C8000004013050540EFE05F986FE09F8BEFE2A7
:101C90001F8937250140814513050540EF10301895
:101CA000370500200325C562B7070020138447636A
:101CB0000147938747638D460546894523200400E5
:101CC000EF70601B1C4091C7B7E700E0116723A0CD
:101CD000E7206FE01F87EFE29F843704024013057F
:101CE00044048145EF20601EBD4513054404EF20E8
:101CF00020200145EF30C049854513054404EF20FD
:101D0000C01C6FE01F84EFE29F8189476308F500E4
:101D10008D476300F50201456FE0BF8293050040E7
:101D200037150140130505C0EF40E02D1375F50F81
:101D3000E5B793050002EDB7EFE26FFE91E93715C5
:101D40000140C145130505C0EF40A02C6FE06FFFB7
:101D500037150140C145130505C0EF40402CFDB7C4
:101D6000370500201305C5628280EFE24FFBEF606C
:101D7000F031B707002023A8A762B707002003A50A
:101D8000C76201478D4611468145EF60D0736FE011
:101D90004FFBEFE2CFF803A7818393878183DC2396
:101DA00001113724014030089545130504403ACC11
:101DB000230EF100EF302074EF302030B727000001
:101DC0002A879387E7C8370502403EC08D480548FB
:101DD00081479306C444054681452105EF30D04D27
:101DE00005616FE00FF6EFE28FF04111EF30E02C6C
:101DF0002A841309E501AA84039504008904EF30BD
:101E0000C06B239FA4FEE39924FFB7E70000B7E966
:101E1000000037EA000083AB874BB7E70000832A56
:101E20000A4B03AB494B03ACC74B938481BB0149BD
:101E30003E244A288D4DA6853E951E20137DF90F20
:101E40003E953355B503938C41BC42054181EF70FB
:101E500040586307BD0791476309FD04EFB0C01503
:101E600083250A4B131D2900669DEFA0901B83A5B7
:101E7000494BEFA0101BDE852AC6EFA0901AB2478F
:101E8000AA8D03A50C01BE85EFA0B042AA856E8580
:101E9000EFA0E05C2320AD00050995470904890403
:101EA000E318F9F841016FE04FE8EFB0E010D68594
:101EB000EFA03017DA85EFA0D01623A8AC00E9BF59
:101EC000EFB0800FE285EFA0D01583A5494BEFA0BE
:101ED0005015B7E7000083A5074CEFA0A02123A66B
:101EE000AC005DBF0A05938741BCAA9788438280F6
:101EF000EFE26FE039717D5734081306F00F81452A
:101F00000145EF60F04DE247918BF5D7EFF07FE8A8
:101F1000A9473EDA3ED8B7270000938767D005442B
:101F20004C100D453EDE22D4EF30801C1305B0204E
:101F3000EFE0DFDD7D15133515002AD44C1009457F
:101F4000EF30001BB7270000938787D36C0801454B
:101F50003ED022D4EF300017138481C0138581C096
:101F6000EF70C04C13050401EF70404CB7E7000060
:101F700003A4474C938481BDA285138581BDEF7076
:101F80004048A28513858400EF70A047B7E70000A2
:101F900003A4874C938481BEA285138581BEEF7014
:101FA0006048A28513850401EF70C0478145014553
:101FB000EF30601885450545EF30E0173D66A146D6
:101FC000130606A69305007D0145EF40D045014567
:101FD000EF308023B7270000B7090240938767CD11
:101FE000B73601402A878D480548938606C40546C2
:101FF000138549043EC081458147EF30F02B13859E
:102000004904BD45EF10D06E854513854904EF1096
:10201000D06B0145EF407020B707002003A5076390
:102020000147894601468145EF60F049B7E7000066
:1020300003AAC74C0144A109854A938441BC370BCC
:102040000020D28BEF306007AA853D464E85EF30E9
:10205000D03DEFE00FFE2945EF60803E0147340898
:102060001306F00F81450945EF609037058979D94E
:10207000EFF07FD7EF300029630454050DC4894782
:102080006302F4068D47E31FF4FA814501452921D7
:10209000814505451121EFE05FDD81450145EF30C8
:1020A0000004014445B70D45EF30A00741DDC844A9
:1020B000D285EFA0E0651345F5FF1354F50159B73C
:1020C0000545EFE0BFC4AA850145F9260945EFE0C3
:1020D000FFC3AA850545C92685450145EF30200087
:1020E00009448DB713094B624944594C85452285F3
:1020F000EFE07FE283570900420541816384A70036
:102100002310A90005040909E31284FFC844DE85F1
:10211000EFA000606352A0020D45EF30800011C9AE
:102120004C100145EF30E0164C100545EF306016BD
:1021300045BF8545EF20B07A0D4429B7EFE22FBEA9
:102140003705024013050503EF30301537350140E0
:10215000EF40405B054437350140EF40A05BE30CA6
:1021600085FE37150140C14513050580EF30706AC3
:102170006FE02FBDEFE2AFBA3705024013058505CA
:10218000EF30B0113744004013050480EF40805712
:102190001304048085442285EF40C057E30D95FE6B
:1021A000371501408565130505C0EF3090666FE077
:1021B0004FB9854706063396C7000605894733950C
:1021C000A700014781476312B702139507014181B8
:1021D000C183814501476390D502598D4183938620
:1021E00081C2D98FEAA29EA682800507C98F137784
:1021F000F70F0A05C9BF8505518F93F5F50F0A063C
:10220000D9BFB5468147014763ECA60039679317EC
:1022100025001307074DBA979C43828725478947B6
:102220008D4611456387D500894609456383D500EE
:102230000545938681C23315E5008607B6974205AA
:102240000547839607004185631AE604558D8AA3E6
:1022500082808D473305F5021377F50FC9B78D4797
:102260003305F50269151377F50F854755BF8D477F
:102270003305F50251151377F50F814755B7194707
:1022800079BF3547DDB72947CDB759159377F50F96
:10229000314779B72547D5B71947C5B71345F5FF76
:1022A000758D75B7994763ECA708B9679387875011
:1022B0000A053E951841B707002093878763028778
:1022C0009A2393D65500AE05719B558F9AA3BA23D6
:1022D0001377F77F4D8FBAA38280BA238E051377C9
:1022E00037C0CDBFBA2393D64500B205619B558F49
:1022F000BAA3DA23520751834D8FDAA38280DA23FF
:10230000FD76FD06758F9605C5BFDA2393D62500A9
:10231000FD8A019B558FDAA3FA23BA054A07498340
:102320004D8FFAA38280FA23F1769386F607758F94
:102330009E05FDB7FA23137707F8D98DEEA38280A7
:102340003707002093078763BE231307876309C5F8
:1023500093E707403EA3828093F7F7BFC207C1838C
:10236000D5BFEFE24F99AA89AE84014C63D5050031
:10237000B304B040054CB7470F009387F723378766
:102380001E00A6971307E7476365F704E167938785
:10239000F76937170300A6971307E7D36361F70CB4
:1023A00089679387F7701567A6971307E7E1636B53
:1023B000F70A9387743E1307E07C6368F70A9387F4
:1023C00034061307600C094A0D4B6366F700094B8E
:1023D00019A0014A1D4B37090020B96B814A130926
:1023E0008963938B4B54A94C8357290013841A009B
:1023F000568593E707402311F900B3E7940313745C
:10240000F40FDE978C23EFF0FFE9B3C4940363115C
:102410008B06630B0C0022859305000413842A00AD
:10242000EFF05FE81374F40F994463F5840489476F
:102430006315FA0203556900F1777D8D93D7890002
:1024400093F7F7075D8D91679E09938707F8B3F9B6
:10245000F900336535012313A9006FE04F8D054A5C
:10246000194B95BF094A154BBDB7094A114BA5B782
:10247000A28A9DBF228581450504EFF0BFE2137457
:10248000F40F65B737070020130787631E230A057B
:102490008D8BC98F1EA38280EFE26F882E87A145A6
:1024A00011E19145B967060793874752BA9792237E
:1024B0000945EF40500A81450945EF40D0116FE0D2
:1024C0004F88EFE2CF85B727000041113704024063
:1024D0009387471737070020B74600403EC01305D3
:1024E0008405894805488147130787639386C6801A
:1024F00005468545EF30405CB72700009387C7133A
:10250000B73601403EC0894805488147138741C31B
:10251000B1060546854513050403EF30E059410136
:102520006FE02F82EFD2BFFF37150140856513059D
:1025300005C0EF30D02E37040240914513058405C5
:10254000EF30805613058405EF3040546FD07FFF85
:10255000EFD2FFFC2946938581C2138541C3EFA0CA
:10256000D03AB706002003D706641306301FA287AF
:1025700005074207418393860664636FE60C9AA2BF
:102580009A221306B01213051700420541816370A9
:10259000E604138641C303588600ED759385A5AA0A
:1025A000B3F5050103280600B778F6DB938868DBEE
:1025B000337818012320060103284600B778AAAA19
:1025C000938868DB33781801232206010EA60907D9
:1025D000420741839AA29306500963F8A6029386A4
:1025E00041C38E261566130656556D8E8C4237658F
:1025F000EDB71305D5B6E98D8CC2CC42376555557C
:102600001305D5B6E98DCCC292A69306500963F1A5
:10261000E602938741C3D62315671307B76D758FFD
:1026200094433736DB6F1306B66DF18E94C3DAA38D
:1026300037150140C14513050580EF30501E3704A2
:102640000240954513050403EF30004613050403CB
:10265000EF30C0436FD0FFEE2390060015B7EFD2E6
:102660001FEC0545EF101051EF003039EFF00FCCA3
:10267000EF00B05EEF00704DEF50302301A082807C
:1026800099677390078001A0EFD27FE985478C217D
:102690009CC2482913051521EFE06F9F01456FD0BB
:1026A0005FEAEFD2DFE79C2141116147DC8763607D
:1026B000F70285479CC2482905469305F10013059A
:1026C000250CEFE04FE5014541016FD09FE7414503
:1026D000E5BFEFD2DFE491479CC2482941112EC6E5
:1026E000130585070A05EFE0AFE0B24588C1014553
:1026F00041016FD01FE5EFD29FE285479CC2C829F8
:10270000411132C61305250CEFE04FE0324608A216
:10271000014541016FD0FFE2EFD27FE089479CC2C3
:10272000482941112EC606054505EFE02F98B24510
:102730008AA1014541016FD0DFE0EFD25FDE89471A
:102740009CC248292E8485454505EFE0CFFC08A0B2
:1027500042054181218108B001456FD09FDEEFD253
:102760001FDC85479CC248292E8481456105EFE026
:102770008FFA08A001456FD0DFDCEFD25FDA0546A3
:102780009C2190C258294111DC87630DC7008946FE
:102790006304D70205469305F1001305A020EFE07E
:1027A0008FD729A03E85EFE0DF9419E1014511A004
:1027B000414541016FD0FFD83E85EFE0BF94F5B7AA
:1027C000EFD2FFD58C2123A0060044294111CC87EC
:1027D000894736846384F4028D476383F404054992
:1027E000639B24059D473D4563E9B7020546930574
:1027F000F1001145EFE02FD204C039A83D45636ECA
:10280000B5000145EFF05FC905469305F1000545A8
:10281000EFE06FD085471CC0014541016FD07FD2EA
:102820003D45E36CB5FE0545EFF01FC70546930532
:10283000F1000945F1BF3D45E361B9FE0546930549
:10284000F1001305B020EFE00FCD23202401E9B7FC
:102850001C2141115C871C31DC8728874101828063
:10286000EFD2FFCB41112A842E8536C6EFF05FFEF2
:10287000B2468947AA859CC25C289387F7101395B6
:102880001700EFD0FFFF014541016FD09FCBEFD282
:102890001FC9894741112A849CC22E85EFF05FFB36
:1028A0005C2868870547639BE700AA85130500211C
:1028B000EFD01FFD014541016FD0BFC813857706DA
:1028C00009469305E1000605EFE0EFC4E5B7EFD256
:1028D0001FC501112A842E8536C6EFF07FF7B24658
:1028E0008947E8879CC248289305E1010946060507
:1028F0004505EFE04FC2014505616FD09FC4EFD29F
:102900001FC201112A842E8536C6EFF07FF4B2462D
:1029100089471375F50F9CC2E88748289305E101A4
:10292000094606051305B51DEFE0EFBE014505613B
:102930006FD03FC1EFD2BFBE4111AA8511466800DA
:10294000EFA0A07C324541016FD0BFBFEFD23FBDA9
:1029500001112A842E8536C6EFF0DFFDB24691477D
:102960002ACE9CC248286C081146130585070A0523
:10297000EFE06FBA014505616FD0BFBCEFD23FBA3F
:1029800041112E8536C6EFF0FFFAB24691479CC240
:10299000EFE0CFD7014541016FD0BFBAEFD23FB8CA
:1029A00091479CC25C290D474111639FE7002E852A
:1029B000EFF05FF8488605466C003545EFE0AFB5AF
:1029C000014541016FD0FFB71145E39CA7FE2E855D
:1029D000EFF05FF62AC611466C001305C020F9BF60
:1029E000EFD2FFB301112A8432852EC636C4EFF030
:1029F0003FE6A246B24589479CC2E887882109463E
:102A00009305E1017D150605229542054181EFE020
:102A10008FB0014505616FD0DFB2EFD25FB02E8677
:102A2000930545016D45EFF0BFFB6FD09FB1EFD22D
:102A30001FAF2E869305450113057002EFF05FFA74
:102A40006FD03FB0EFD2BFAD2E8693054501130581
:102A50003003EFF0FFF86FD0DFAEEFD25FAC2E8621
:102A6000930545011305F003EFF09FF76FD07FAD9D
:102A7000EFD2FFAA2E86930545011305B004EFF0AF
:102A80003FF66FD01FACEFD29FA92E86930545016C
:102A900013057005EFF0DFF46FD0BFAAEFD23FA8A7
:102AA0002E869305450113053006EFF07FF36FD0B6
:102AB0005FA9EFD2DFA62E86930545011305F00628
:102AC000EFF01FF26FD0FFA7EFD27FA52E86930500
:102AD00045011305B007EFF0BFF06FD09FA6EFD20E
:102AE0001FA42E869305450113057008EFF05FEFD4
:102AF0006FD03FA5EFD2BFA22E86930545011305E7
:102B00003009EFF0FFED6FD0DFA3EFD25FA12E868B
:102B1000930545011305F009EFF09FEC6FD07FA2FC
:102B2000EFD2FF9F2E86930545011305B00AEFF003
:102B30003FEB6FD01FA1EFD29F9E91479CC25C29B3
:102B400009472E846380E7020D476381E70205474A
:102B50001305C0206399E700EFE0EFB308C001451B
:102B60006FD03F9E1545EFE0AF98CDBF3545EFE004
:102B7000EF99EDB7EFD2BF9A054798C25C29894615
:102B80002E840545638BD7008D4609456387D700A2
:102B900011456384E7001305B020EFE02F9708A0EC
:102BA00001456FD01F9AEFD29F9789479CC2482951
:102BB00085472E84631AF50013050021EFD01FCF3F
:102BC0000AA001456FD0FF97130575060605FDB7EE
:102BD000EFD2FF94894741111CC22EC6EFD01FCD02
:102BE000B24588A1218188B1014541016FD07F950F
:102BF000EFD2FF9236866D45EFF09FFD6FD07F9448
:102C0000EFD2FF91368613057002EFF07FFC6FD094
:102C10005F93EFD2DF90368613053003EFF05FFB52
:102C20006FD03F92EFD2BF8F36861305F003EFF0DF
:102C30003FFA6FD01F91EFD29F8E36861305B004F6
:102C4000EFF01FF96FD0FF8FEFD27F8D368613051F
:102C50007005EFF0FFF76FD0DF8EEFD25F8C368616
:102C600013053006EFF0DFF66FD0BF8DEFD23F8B4C
:102C700036861305F006EFF0BFF56FD09F8CEFD2CC
:102C80001F8A36861305B007EFF09FF46FD07F8B55
:102C9000EFD2FF88368613057008EFF07FF36FD010
:102CA0005F8AEFD2DF87368613053009EFF05FF2D7
:102CB0006FD03F89EFD2BF8636861305F009EFF05B
:102CC0003FF16FD01F88EFD29F8536861305B00A7B
:102CD000EFF01FF06FD0FF86EFD27F841C210547F5
:102CE00041112E846391E7020D453306A6029CC272
:102CF0001305460E42054181EFE04F8108A00145D2
:102D000041016FD01F8409476391E7020D453306E7
:102D1000A6029CC21305560E42054181EFD01FB991
:102D20009357850008A01CB0D9BF91479CC20821C9
:102D3000B7070040F5173E95D1473306F6023295A6
:102D40000A051305D50E42054181EFD07FFA2AC648
:102D500011466C002285EFA0403B55B7EFD22FFC07
:102D600001465105EFF05FF76FD0AFFDEFD22FFBBB
:102D700005465105EFF05FF66FD0AFFCEFD22FFAAA
:102D800009465105EFF05FF56FD0AFFBEFD22FF999
:102D9000054798C25C292E84638CE7000947130518
:102DA00090206384E7001305A020EFD03FF619A020
:102DB000EFE0CFB308A001456FD0AFF8EFD28FF4AA
:102DC00083490500854701112E89B2846390F90477
:102DD0008C21328536C6EF20E01CBD4705E50D4548
:102DE0003385A402B246054623A036018347090075
:102DF000230CF1001305450E42052C084181EFD04C
:102E00009FF181473E8505616FD00FF313140601D2
:102E100089474180639FF90023A036012E85EFF09A
:102E20003FA3E8840D453305A40209461305550E5A
:102E3000E1B791479CC22A8A2E85EFF0BFAFD147F8
:102E40003304F4022ACA03450A0011464C087515DA
:102E500022950A051305D50E42054181EFD0BFEB3F
:102E60005244131504014181EFA000152ACE1355D9
:102E70000401EFA06014B7E7000083A5474AEF9074
:102E8000005E03460A002ACC2C087D1642064182C9
:102E90002685EF20401C814735D5BD47A5B7EFD229
:102EA0000FE801465105EFF07FF16FD08FE9EFD2C7
:102EB0000FE705465105EFF07FF06FD08FE8EFD2B6
:102EC0000FE609465105EFF07FEF6FD08FE7EFD2A5
:102ED0000FE589479CC2482901112EC60605130536
:102EE000B51DEFD0BF9CB2459357850088A19CB11A
:102EF000014505616FD0EFE483A74181DC4313876F
:102F0000C7126311071039671307077023A0E7146E
:102F1000138747146311071039671307075B23AC46
:102F2000E7141387C7156311071039671307075C88
:102F300023A8E7161387471763110710396713078C
:102F4000076D23A4E7181387C718631107103967A3
:102F50001307076523A0E71A1387471A63110710A1
:102F600039671307076723ACE71A1387C71B631179
:102F7000071039671307076923A8E71C1387471D44
:102F80006311071039671307076B23A4E71E138724
:102F9000C71E6311071039671307076023A0E720D6
:102FA000138747206311071039671307076223ACA3
:102FB000E7201387C72163110710396713070759E3
:102FC00023AEE7221387072463110710396713071D
:102FD000075F23AAE7241387872563110710396742
:102FE0001307075523A6E726138707276311071042
:102FF00039671307075723A2E72813878728631128
:103000000710828039671307077123AAE712138715
:103010008713E31A07EE39671307075D23A6E71442
:1030200013870715E31A07EE39671307075823A21A
:10303000E71613878716E31A07EE39671307076F3A
:1030400023AEE71613870718E31A07EE396713074D
:10305000076423AAE71813878719E31A07EE39676D
:103060001307076623A6E71A1387071BE31A07EE61
:1030700039671307076823A2E71C1387871CE31A25
:1030800007EE39671307076A23AEE71C1387071E8D
:10309000E31A07EE39671307076C23AAE71E1387A5
:1030A000871FE31A07EE39671307076123A6E72096
:1030B00013870721E31A07EE39671307076323A273
:1030C000E72213874723E31A07EE39671307075EE2
:1030D00023A4E7241387C724E31A07EE39671307ED
:1030E000075A23A0E72613874726E31A07EE396716
:1030F0001307075623ACE7261387C727E31A07EE03
:1031000039671307076E23A8E728E5BDB717024004
:103110009843B706FFF841111367170098C3D843C7
:1031200037060200758FD8C39843B706F7FEFD1621
:10313000758F98C39843B706FCFFFD16758F98C32B
:10314000D843B70681FFFD16758FD8C337079F0098
:1031500098C702C402C69843C166558F98C3B71674
:10316000024005679C42F18F3EC6A24785073EC4D8
:10317000B24781E7A247E397E7FEB71702409C43B7
:103180001397E7006359070685473EC632478547D0
:103190006311F706B7170240D843B706C1FFFD1603
:1031A00013670708D8C3D843D8C3D8431367074069
:1031B000D8C3D843758FD8C3D843B7063D00558FC1
:1031C000D8C39843B7060001558F98C39843931608
:1031D0006700E3DD06FED843B7160240719BD8C3F3
:1031E000D84313672700D8C32147DC42B18BE39E45
:1031F000E7FE4101828002C651BFB7160240DC42A1
:10320000370700201146B18B1307875A6385C70023
:1032100021466388C702B7177A00938707201CC32B
:10322000B7170240DC43918393F6F700B7070020FD
:1032300093870700B69794231C43B3D7D7001CC3CA
:103240008280DC42D4424166C983BD8BF18E8907FE
:1032500045466393C700C94781EEB746024083A63F
:103260000680C18A89CEB7167A009386062021A8E7
:10327000B7160240D4421396E600E35606FEB71690
:103280003D0093860690B387D70251BFEFD28FA738
:10329000C16441113709002009440D4A8D4AFD14CB
:1032A0008327496493094964638E870463804703D5
:1032B000E5FFEFD0AFE0EFF0CFA0EFE01FABEFE026
:1032C0004FA6EFF07FC323A05901D9BF7D577400EB
:1032D000014681450145EF50B010B247E39287FCAB
:1032E000268681450145EF50D057EFD0CFB0084139
:1032F000EF401051EFD0CFB00841EF40705023A005
:10330000890079BF1305401FEF508013EF30702EF6
:1033100041BFB7370020938707861CC1B72700201D
:10332000938707469CC1930700081CC28280B73769
:103330000020938707901CC1B7270020938707665A
:103340009CC1930700081CC28280EFD24F9DEFD032
:103350005FBB2A8437280020B7270020B7E500008C
:103360003715000013080817938707D719478546B4
:1033700013060010938505721305A554EF40F03D28
:1033800008C0EFD0EFA72A84B7E50000370500009A
:1033900013880104938701C4114785461306001062
:1033A0009385C5721305657AEF40303B08C0EFD0B6
:1033B0008FA42A8437280020B7170020B7E5000023
:1033C00037050000130808AC938707E415478546C6
:1033D000130600329385C57313054561EF40F0373E
:1033E00008C0EFE0FF972A8437280020B727002085
:1033F000B7E5000037250000130888D1938787B10F
:10340000214785461306000893850575130505EFCA
:10341000EF40B03408C037280020B7270020B7E5B8
:103420000000373500001308883C9387871C254728
:103430008546130600089385C5751305C528EF401A
:10344000D031EFD0EF9B0841EF50400FEFD0AF9A53
:103450000841EF50A00E6FD0CF8EEFD24F8CEFD03F
:10346000AFBCB7360020372600202A840147938658
:10347000868B1306064291454145EF40E00108C0A6
:103480006FD02F8C01A001A001A001A001A001A07C
:1034900001A001A001A001A001A001A001A001A024
:1034A00001A001A001A001A001A001A001A001A014
:1034B00001A001A001A001A001A001A001A001A004
:1034C00001A001A001A001A001A001A001A001A0F4
:1034D00001A001A001A001A001A001A001A001A0E4
:1034E00001A001A001A001A001A001A001A001A0D4
:1034F00097E1FF1F9381818B17210020130181B079
:1035000017C500001305051997D5FF1F938585AFD3
:103510001386018463FAC5008322050023A05500A9
:1035200011059105E3EAC5FE17D5FF1F1305050C2C
:1035300097050020938545F06377B50023200500AB
:103540001105E36DB5FEFD42739002BC8942739094
:103550004280B72200009382028073A0023097D28B
:10356000FFFF9382A2AD93E2320073905230EFF0EE
:10357000FFB997F2FFFF9382C20E7390123473006B
:103580002030EFC2DFF9B727014093870740631E61
:10359000F500854513050020EF1040028145130515
:1035A0000020EF10A0016FC0DFF9B737014093870B
:1035B0000780E31AF5FE854513050040EF10000073
:1035C000814513050040F1BF5C413707F1E0130767
:1035D000F7EF944D7D8F9C41D58FD44DD58FD4413D
:1035E000A206D58FD98F5CC11C4537F7F1FF1307B1
:1035F000D77FD4457D8F9C49D58F94458606D58F3E
:10360000D98F1CC55C55370710FF7D177D8FDC29CE
:10361000FD1793F7F70FD207D98F5CD582801C4531
:1036200089C593E717001CC58280F99BEDBF1C4537
:1036300089C593E707101CC5828093F7F7EFE5BFB4
:103640001C4593E787001CC5828008450D810589CC
:1036500082801C4593E747001CC58280084509818C
:10366000058982801C4591C537075000D98F1CC53C
:1036700082803707B0FF7D17F98FD5BFA54763F765
:10368000B7048D47138765FF3307F7020328C5008A
:103690009D47B397E70093C7F7FFB3F70701B396CA
:1036A000E600DD8E54C5994763E3C70495477D1650
:1036B0003306F6025859FD47B397C70093C7F7FF83
:1036C000F98F3396C5005D8E50D982800D473387C0
:1036D000E502032805019D47B397E70093C7F7FF6D
:1036E000B3F70701B396E600DD8E14C96DBFB1478D
:1036F00063E2C702954765163306F6021859FD477F
:10370000B397C70093C7F7FFF98F3396C5005D8E57
:1037100010D9828095474D163306F6025855FD475D
:10372000B397C70093C7F7FFF98FB395C500DD8D39
:103730004CD582801C4591C537071000D98F1CC518
:1037400082803707F0FF7D17F98FD5BF58411441AC
:1037500093D78500F58F99C713F5F50F798D33351C
:10376000A000828001458280A18193C5F5FF0CC134
:1037700082805C4191C537070004D98F5CC182808B
:10378000370700FC7D17F98FD5BFEFC25FD9011154
:103790002A8423030100A5441C8363FAF40623034F
:1037A0000100A54621461C8363F0F60A231401009C
:1037B00023150100230301009546130600601C83B6
:1037C00063FEF60E1C8393F7F70F638407123884A9
:1037D00014833C840C8310833347D702B3E7B702CA
:1037E0008607B3C7C702BA97C207C1837C84188310
:1037F00099479546998F93F7F70FDC839C8393F74E
:10380000F70F639C07108567938707800DAA1C44F8
:1038100093E787001CC42285EFF03FE36DFD1C4455
:1038200093E747001CC42285EFF05FE36DFD784409
:103830001C8314108607B6972396E7FE1C83850722
:1038400093F7F70F5C8389BFA30301009C83637820
:10385000F6001C83850793F7F70F5C83A9B798835D
:103860009C830C100607850786072E97AE97035793
:10387000C7FE83D7C7FE63FDE7029C838607AE972A
:1038800083D7C7FE7C849C83988385078607AE9781
:1038900083D5C7FE931717001810BA972396B7FE63
:1038A0009C8338840C1085078607AE972396E7FE25
:1038B0009C83850793F7F70FDC8349BF1C8318109F
:1038C00089078607BA9783D7C7FEE36DF6EE1C8398
:1038D0000C10388489078607AE9783D7C7FEBA973E
:1038E000C207C1837C841C83850793F7F70F5C8331
:1038F000F9B593070040DDBD1C831010388589079A
:103900008607B29783D7C7FEBA97C207C1837C8563
:103910001C83850793F7F70F5C831C83E3FEF6FC9B
:10392000388594833C858C8390833347D702B3E7F3
:10393000B7028607B3C7C702BA97C207C1837C859F
:10394000288434852C84308505679307004013074D
:1039500007803385A740B306D7408D8F118F42056E
:10396000C206C2074207C18641874185C187369595
:10397000BA9789463345D5020561B3E7D7023E952C
:10398000420541856FC0FFBBEFC27FB90545EF001F
:10399000B0460145EF0050466FC0BFBA1841AA8734
:1039A000759B18C118411367170018C14167D443AC
:1039B000858A99E27D1765FFD8430145058B49CF7C
:1039C00094450547639BE608984313670708D44569
:1039D00098C305476397E60898431367070494491B
:1039E00098C305476393E608984313670702D449D1
:1039F00098C30547639FE606984313670701944DF4
:103A000098C30547639AE606984313678700D44D29
:103A100098C305476395E60698431367470098C324
:103A2000B821B4317A07E206558FD421C206558FEA
:103A3000D431D206558F9621FD16558FD8CF984395
:103A4000799B98C34167D443858A99C27D1765FFE6
:103A5000C8431345F5FF0589828098431377F7F72C
:103A6000BDB798431377F7FB9DBF98431377F7FDD6
:103A7000BDBF98433D9B61B798435D9B49BF984349
:103A80006D9B71BF376700401307074083260720EF
:103A90003C25054893E616002320D7208325C7211F
:103AA0003316F8009346F6FFF58D232EB7204C25EC
:103AB000C5E58325C720035825008E07F58D2326ED
:103AC000B7206E21BA975A21C205B3E5050123A09C
:103AD000B7240E2142074D8F23A2E724B7270240C7
:103AE000985BB707000FF98F99EF3767004093078E
:103AF0000730130707408E239107C205C181239E1B
:103B0000B7EEE39AE7FE3835B76700409387074082
:103B10002DEB03A74720758F23A2E7201A25B7674F
:103B200000409387074035E303A74721F98E23AA76
:103B3000D720184985476319F700B767004003A7E6
:103B4000C761598E23AEC760B767004003A70760FF
:103B5000799B23A0E7608280E39205F98325C72043
:103B6000035825008E07D18D2326B7200E21BA9742
:103B70005A21C205B3E5050123A0B72442076E21EF
:103B800099BF03A74720518F41BF8546E313D7FA5A
:103B900003A74721518F23AAE72061BF1C45139734
:103BA0005700634E07081C4513974700634B0708EF
:103BB0001C45914613973700635107088946939730
:103BC0004600AA9703A70718058B23A0E71890259E
:103BD000883535EA984103A607185607498F518F53
:103BE00023A0E718B8253D8BB8A503A64718419A2E
:103BF00023A2C71803A64718518F23A2E718D02580
:103C0000B8352206598ED8354207598EF8256207F5
:103C1000518F23A4E7189029F8352206598E983938
:103C20004207598EB8296207518F23A6E71803A7C8
:103C300007181367170023A0E7183685828081468E
:103C4000BDBF8546ADBFD84103A807180E07498FF1
:103C5000518F3367070169B793974500AA9703A768
:103C6000071B118B18A62DE703A7071B558318C246
:103C700003A7071B098B18B603A7471B3D8B38A664
:103C800003A7471B218338BA03A7871B38B603A7AE
:103C9000871B218358A603A7871B418358B603A718
:103CA000871B618378A603A7C71B78B603A7C71B2A
:103CB000218318AA03A7C71B418318BA83A7C71B70
:103CC000E1833CAA99E95C4593E707025CC58280E1
:103CD00003A7071B0D8358C261BF1C4993E7070266
:103CE0001CC982808DE51C418546F19B93E7170036
:103CF0001CC1C16758410D8B6304D700FD17FDFB44
:103D00005C418D8BFD1793B717003E8582808547F8
:103D1000639EF5001C41F19B1CC1C16758410D8B8E
:103D200019C3FD17E5FF5C418D8BF1BF0947814742
:103D3000E39DE5FC1C418946F19B93E727001CC1EC
:103D4000C16758410D8B6304D700FD17FDFB5C4133
:103D50008D8BF9174DBF5C4901C6DD8D4CC9828042
:103D600093C5F5FFFD8DDDBFB707F000ED8F89CB63
:103D7000104D3375B600320531813335A000828095
:103D80009397750063D60700544133F5B600E5B745
:103D90009397450063D5070008456D8DE9BFB706C9
:103DA000100093976500FD1663D7070058453375DB
:103DB000B700758DD9B71C4933F5B700DDBFB7071C
:103DC000F030938707076395F500232C0500828068
:103DD0009397C50013976500B183635407005CC5D2
:103DE000828013975500635407001CC98280139783
:103DF0004500635407001CC582805CC18280930724
:103E000000106386F50663E7B702A1476388F506ED
:103E100063E9B7000547638EE50411476381E50652
:103E2000828013070002638FE50493070004638A0E
:103E3000F5048280938705808DCB85679387078003
:103E400063EBB700930700206383F50293070040FC
:103E5000638FF5008280C1676388F502B7070200AF
:103E60006387F502A1676393F502232C0500914750
:103E700029A8C167938717101CC58280C1475CC5FC
:103E80008280C1471CC98280A1475CC18280C14732
:103E9000EDBF1C4161773D0794517D8F9C45D58FC7
:103EA0009449D58FD449D58F944DD58FD44DD58F86
:103EB000D451D58F9455D58FD98F1CC1DC455CC1A9
:103EC0009C411CC5DC415CC582801C4189C593E7CF
:103ED00017001CC1828041677917F98FDDBF1C4133
:103EE00001C6DD8D0CC1828093C5F5FFFD8DDDBF60
:103EF0004CC18280B70702409C437D8D3335A000C2
:103F00008280EFC2CFE1EFF0FFFE6FC08FE3B70713
:103F10000240C8C382809C4513F7070113F8F700DD
:103F200001C7D8413368E80037270240145B3707E0
:103F3000000F758F5DEB3707002085462304D7649B
:103F4000371701406315E5009A2135839AA18E2128
:103F500013F7F50F39C318418146854E3D4F930F36
:103F6000800293028004214E3396DE00B3F8C50030
:103F7000631116039398260033131F011343F3FFB5
:103F80003377E300B318180133E7E8006399F707C4
:103F900050C98506E39AC6FD18C11307F00F637573
:103FA000B70454412146854E3D4F930F8002930242
:103FB0008004414EB398CE0033F715016392E802B6
:103FC0001317260001173313EF001343F3FFB376E3
:103FD000D3003317E800D98E6397F703232A15011E
:103FE0000506E319C6FD54C1828037170140E3106E
:103FF000E5F6370700200347876431DBB1B7E39A62
:1040000057F810C979B7E39D57FC23281501C9BF9C
:10401000B71701406318F500B707002083C787640E
:1040200091C3B58108456D8D3335A0008280B717E7
:1040300001406318F500B707002083C7876491C368
:10404000B5810CC98280B71701406318F500B70726
:10405000002083C7876491C3B5814CC98280B707AC
:104060000140635A0504DC4F9356050113180501FE
:104070003707300013F6F60013580801B376E50051
:10408000635E05066399E604930606010D46B316C2
:10409000D60093C6F6FFF58F99C9135755011377CC
:1040A000F73F12073317E800D98F63550506370726
:1040B00001405CCF828037270240145BDC43370726
:1040C000000F758F55F313D71700F976CE07758F4C
:1040D000CD83D98F51BF1317B500635607008D46A6
:1040E000B396C6007DB7135755011377F73F1207F4
:1040F0003317E8001347F7FFF98F79BF6390E602A3
:10410000370601405442370700F17D17F98F758F4C
:1041100058C2C1F5370701405CC382801317B50050
:10412000635C07008D46B396C60093C6F6FFFD8E0E
:10413000B707000FD58FF1BF13575501120733177B
:10414000E8001347F7FF7D8FB707000FD98FD1B76E
:10415000EFC2EFBCB7570040938707408545631B0C
:10416000F500370520009529814537052000B52148
:104170006FC02FBD370540008D21814537054000B8
:10418000FDB7EFC2CFB979712A84462168082EC6DF
:10419000112E925737470F001307072433D7E70232
:1041A000C204C18093F404FCC204C180B2456165BD
:1041B0001305056A131607014182D18C46A016200B
:1041C000C206C182F99AC206C18216A094416369EF
:1041D000D5048606B3D7D7029146139707014183CA
:1041E000BA876373D700914705064206C20741822A
:1041F000C18312B05EAC1E20DA21B62593E717000A
:104200001EA01E20558FC207C18393F757BFD98FB9
:104210001EA09A25DE25D98F1EA445616FC06FB2FE
:10422000EA2131667D16631DC5020D46B386C602BE
:10423000B3D7D702C207C1839396470199E293E7A8
:104240001700A166D58F9306C0123307D7029306D5
:10425000803E3347D7020507420741831AB059BF52
:104260006546B386C602B3D7D7029166C207C1833B
:10427000D58FD9B71E2189C593E717001EA182806B
:10428000C207C183F99BC207C183CDBF1E2189C567
:1042900093E707101EA18280C207C18393F7F7EF4F
:1042A000C207C183C5BF1E2189C593E707201EA190
:1042B0008280C207C18393F7F7DFC207C183C5BFFE
:1042C0001E2189C593E707401EA18280C207C183D2
:1042D00093F7F7BFC207C183C5BF5E2589C593E7C2
:1042E00017005EA58280C207C183F99BC207C18304
:1042F000CDBF5E2101C6DD8D4EA1828093C5F5FF45
:10430000FD8DDDBF0EA982800A291375F50F82800D
:1043100093F7E50F19C293E71500C207C1831EA9E1
:104320008280411102C62AC6B247BE952EC6B24748
:104330008A2341018280411102C402C693D7C5017C
:104340002AC63EC4A247A205A18199CBB247D10794
:104350003EC6B247884341016D8D3335A00082804F
:10436000B247C181E107EDB793C5F5FFC205C18131
:104370004EA98280B707002023A6A7648280B707D2
:1043800000209387C7649443182181E63C2192075B
:1043900021A894430546639FC6023C211031920731
:1043A0006314D60093E707F8B7E600E093F7F70F3A
:1043B000BA962380F6408546935757003397E60018
:1043C0005441A5C2938707048A07B7E600E0B69771
:1043D00098C382808C4389466391D50214313C2175
:1043E0006365D6008A06B6975DB79386E6038A06AC
:1043F000B69793F7F70F920775B790438D46631CF6
:10440000D60014313C216364D6008606E9BF93864A
:10441000C6078606F1BF94439147E39EF6F81C3128
:10442000BDB7938707064DB7377700401C4309C5D2
:1044300093E707101CC3828093F7F7EFE5BFB71629
:104440000240DC4251777D17F98F5D8DC8C28280B2
:10445000B71702402380070223800702054763063F
:10446000E50011476306E50082802380A702828071
:1044700015472380E7028280371702401C535D8D69
:1044800008D3828001C9371702401C53A166D58F1B
:104490001CD38280B71602409C5261777D17F98F3A
:1044A0009CD28280371702405C439146B18B638572
:1044B000D700A1466382D706B7177A0093870720F3
:1044C0001CC1371602405C42370700201307070162
:1044D0009183BD8BBA9794231C41B3D7D7005CC19D
:1044E0005442A1829D8ABA969422B3D6D70014C5AD
:1044F0005442AD829D8A36971823B3D7E7005CC536
:1045000058423983937637001387418036971823B2
:10451000B3D7E7021CC982805C435843C166C98394
:10452000BD8B758F8907C5466393D700C94701EFD7
:104530003747024003270780418B09CF37177A009E
:104540001307072021A83717024058439316E700A6
:10455000E3D606FE37173D0013070790B387E7023F
:1045600085B799C5371702405C4B5D8D48CB82807B
:10457000B7170240D84B1345F5FF798DC8CB828021
:1045800099C5371702401C4F5D8D08CF8280B71741
:104590000240984F1345F5FF798D88CF828099C5E9
:1045A000371702405C4F5D8D48CF8280B7170240BD
:1045B000D84F1345F5FF798DC8CF828099C537173D
:1045C00002405C475D8D48C78280B7170240D847DC
:1045D0001345F5FF798DC8C7828099C5371702400A
:1045E0001C4B5D8D08CB8280B7170240984B13455A
:1045F000F5FF798D88CB828001C9371702401C53A3
:10460000C166D58F1CD38280B71602409C52417779
:104610007D17F98F9CD28280935755000547639987
:10462000E700B71702409C4333D5A7000589828075
:1046300009476396E700B71702409C53F5B7B717D1
:104640000240DC53D5B7B737004003D7078089C590
:10465000598D2390A78082801345F5FF798DD5BFB2
:10466000B737004003D74780136707012392E780DD
:1046700082803737004083574780C207C183BD9B84
:10468000C207C1832312F7808280EFB25FE9411134
:104690002AC6EFF0FFFC3245B7370040135705013B
:1046A0003D8B42052394E78041812396A780EFF05C
:1046B0005FFC41016FB0FFE8373700408357478008
:1046C00093F70702E5DF8280373700408357478042
:1046D000C207C183DD9BC207C1832312F78037372E
:1046E000004083574780A18BEDDF8280B7370040C1
:1046F00003D747801345F5FF798D2392A7808280E9
:10470000373700408357478003570780C207698FB8
:10471000C18309C77D8D3335A00082800145828029
:10472000EFB2FFDFEFF09FFC6FB0BFE1EFB23FDF12
:10473000B7370140631CF50085450565EFF01FE8BC
:1047400081450565EFF09FE76FB0BFDFB7470040D9
:1047500093870780E31AF5FE85451165EFF0FFE7C3
:1047600081451165EFF07FE7C5B71A218D67938703
:104770000704B6217D8F9E21D58FD621D58FF621B6
:10478000D58F9625D58FB625D58FD625D58FF625ED
:10479000D58FD98F1EA15A2DFD779387F77FF98F7B
:1047A0005EAD9E291EA982801E2189C593E707045C
:1047B0001EA18280C207C18393F7F7FBC207C183A2
:1047C000C5BF5E2101C6DD8D4EA1828093C5F5FF78
:1047D000FD8DDDBF0A256D8D3335A000828093C528
:1047E000F5FFC205C1810EA582801E319206558E4D
:1047F000C207C183F99BC207C1831EB11E2D1A31A6
:10480000B7360140C207C18393F7C7F0D18F420783
:10481000C207938606C04183C1836304D502B706ED
:1048200000406300D50293860640630CD500B7169E
:104830000040138606806306C500938606C0631990
:10484000D500759BD98D93E515001EAD0EB1828004
:10485000559BCDBF1E31B2062206C207C183BD9B48
:10486000C207C1831EB18358850185671A319387BA
:10487000F7CFD18EB3F71701D58F13984500B73610
:10488000014042074208C207938606C0418313587D
:104890000801C1836304D502B70600406300D50256
:1048A00093860640630CD500B71600401386068039
:1048B0006306C500938606C0631BD5001377F7FD1A
:1048C0003367E800136707011EAD1AB182801377C2
:1048D000F7F54D8FC5BFEFB29FC4B737014093873F
:1048E00007C0631FF5000564854513050480EFF0DC
:1048F000FFCC814513050480EFF05FCC6FB07FC41F
:10490000B7070040631BF50085450545EFF0FFCC78
:1049100081450545EFF07FCCD5B7938707406319F4
:10492000F50085450945EFF05FCB81450945DDB7C9
:10493000B7170040138707806319E50085451145C7
:10494000EFF0BFC981451145F1B7938707C0E31761
:10495000F5FA85452145EFF05FC8814521455DBFEA
:104960001E2137370140130707C0C207C183630404
:10497000E502370700406300E50213070740630CB8
:10498000E50037170040930607806306D50013073C
:1049900007C06316E500BA2193F7F7F8D98FFA211B
:1049A00093F7F7CFC207C183D98F1EA1DE215EB571
:1049B0009E211EB5B7370140938707C06314F500E9
:1049C0009C251EB985475EA982801E31922103D89D
:1049D0002500C207C183F99BC207C1831EB11E31E6
:1049E00056211A2DC207C183420741831377C7F8A6
:1049F000518F9225F59BC20633660601D18F37365B
:104A00000140130606C0C1826310C502B225DD9BBA
:104A100003D8E500D18FD221ED9B93F6F6CFD18F4D
:104A2000D22533660601D18E56A11AADFA215AB9A4
:104A30001EB182801E3165771307F7CFC207C1838D
:104A4000BD9BC207C1831EB11E31562103D885000C
:104A5000C20713960601162DC18393F7F7FD758FD4
:104A600096214182A206558FB62142074183B3E6C3
:104A700006019206D58FB7360140C207938606C05D
:104A8000C183631ED502B62593F7F7F703D8C50097
:104A90009206D58FD621C207C183920693F7F7FB02
:104AA000D58FFD769386F63FF18EF225C207C1833E
:104AB000336606010A06D18E13960601418252A181
:104AC0001AADFA211ABD1EB182801E3103D88500AD
:104AD000C207C18393F7F7EFC207C1831EB11E312E
:104AE00056215A2DC207139606014207962141838B
:104AF0001377C7F8558FB621C18393F7F7DFB3E675
:104B00000601A206D58FB7360140C207938606C0BC
:104B10004182C183631FD502FD769386F67FF58FB0
:104B2000B62503D8C500A206D58FD621C207C183FA
:104B3000A20693F7F7BFD58FF576FD16F18EF22515
:104B4000C207C183336606011206D18E1396060191
:104B5000418252A15AADFA215ABD1EB182801A314A
:104B6000FD77FD17F98F1EB10358050256215E2D02
:104B7000657792211307F7CF7D8FF9772206FD170E
:104B8000518FB3F70701B22103D88500C20642074F
:104B9000336606013206D18F37360140C20713064D
:104BA00006C0C1824183C183631AC50071767D1638
:104BB000F18ED2251A06D18EC206C18256A15AADF7
:104BC000FA212310E5041EB18280FD575EA1231057
:104BD000050023130500231105002304050082802E
:104BE0001E2189C593E717001EA18280C207C183D9
:104BF000F99BC207C183CDBF8357450491C5216787
:104C0000D98F2312F5048280C607C583DDBF5E25D8
:104C100001C6DD8D4EA5828093C5F5FFFD8DDDBFFC
:104C2000EFB2FF8FEFF0BFFE6FB0BF911E25C2073E
:104C3000C183E19BC207C1831EA582801E2189C555
:104C400093E707081EA18280C207C18393F7F7F795
:104C5000C207C183C5BF1E2DC207C183DD9BDD8D89
:104C60000EAD82801A2DFD779387F77FF98FA2050D
:104C7000CD8FC207C1831EAD82805E2DC207C18366
:104C8000DD9BDD8D4EAD82805A2DFD779387F77FBA
:104C9000F98FA205CD8FC207C1835EAD82801E2D24
:104CA000C207C183CD9BC207C1831EAD1E2DDD8D02
:104CB0000EAD82801A2DFD779387F73FF98F1EADD9
:104CC0001E2DA205DD8DC205C1810EAD82805E2D37
:104CD000C207C183CD9BC207C1835EAD5E2DDD8D52
:104CE0004EAD82805A2DFD779387F73FF98F5EADE9
:104CF0005E2DA205DD8DC205C1814EAD8280EFB271
:104D00001F829A212A84AE84BE21D221962511EBDE
:104D1000BE85EFF09FADEE202285EFF05FF86FB01B
:104D20005F829145631AB700BE85EFF0BFB2EE20F7
:104D30002285EFF03FF8E5B72145EE206318A7087C
:104D40001A30920613988700420741831377F7EFD2
:104D5000420741831AB04A2C1A3042084205418169
:104D60001375C5F0518D558DB73601404207420588
:104D7000938606C041831358080141816304D4021D
:104D8000B70600406300D40293860640630CD4004B
:104D9000B7160040138606806306C400938606C0DB
:104DA000631ED4001377F7DF3367E80093670710BB
:104DB0004AAC1EB02285EFF09FF195B7FD76938641
:104DC000F65F758FD98F93E70710DDB70A307D77CF
:104DD0007D17698F1AB04A2C05671307F7CF698FC3
:104DE00003580402131586001396C600498E939843
:104DF000C700518FB73601404208C2084207938668
:104E000006C01358080193D8080141836304D402F3
:104E1000B70600406300D40293860640630CD400BA
:104E2000B7160040138606806306C400938606C04A
:104E30006311D402F977FD173378F80033E80801DD
:104E40008567B367F8005AAC1EB02285EFF09FE982
:104E5000F9B5A1669386F6DF3378D800B3E707018A
:104E60008566D58FCDB74A3D828003550504828083
:104E70000A296D8D3335A000828093C5F5FFC205E8
:104E8000C1810EA982801E294A25ED8F42054181EC
:104E900089C76D8D3335A00082800145828093C51E
:104EA000F5FFC205C1810EA9828093F5F51F4EA1C1
:104EB00082800A216D8D3335A0008280B7370020B3
:104EC0009387879823A0070023A207002394070055
:104ED000B73700209387879723A0070023A20700F6
:104EE00023A4070023960700B70700202398076430
:104EF0008280EFB22FE191479304000063E4A7089A
:104F00009317150037350020130585983E95834982
:104F10000500AE8463880906003137390020130983
:104F20004999A299139A0901135A0A01B14A931790
:104F30000401C18363E64703930400006314FA0489
:104F40001384F7FFB1473304F402B7370020938787
:104F500047993E940C404840EF70B00C0C4405A0BB
:104F6000228BCE87631334033147B387E70226854C
:104F70003E9983254900EF70D00A83258900EF70A0
:104F80006017AA8426856FB02FDB0504B30754038E
:104F90002685CA9783A547FFEF70E07FE349A0F815
:104FA000DA87D9B785476381F504B737002006054E
:104FB00093878798AA97982315E33707002013074C
:104FC00007651223130840060545B306B600634E75
:104FD000D8008CA390B316A301458280FD1501452E
:104FE0006305B700094582800D458280EFB28FD1FD
:104FF0004111AA892E893A85BE853684B2843EC67F
:105000003AC4EF70102B2A8AA2852685EF70702A89
:10501000AA855285EF70A044224723A0A900A2854B
:105020003A85EF701000B247AA89A6853E85EF70D9
:10503000407FAA854E85EF70D027AA89A685228554
:10504000EF703027AA854E85EF7060412320A900BC
:1050500041016FB06FCE931715003735002013054F
:1050600085983E951C216378F604EFB24FCB003152
:10507000B1472E8922961314060141803304F402AD
:1050800003270900832789008326C90003264900D6
:10509000B734002093844499930584001305440099
:1050A0002695A695EFF09FF48327C9002694014525
:1050B0001CC06FB00FC90945828037350020130529
:1050C00085958280931735003705002013054565C7
:1050D0003E95DC41230005005CC101458280B70795
:1050E00000200E0593874765AA978CA3014582800F
:1050F000F1473305F502B7370020938707E8D84119
:105100003E959C4958C17D171CC9DC4513371700D3
:1051100058A95CC59C4D78A9232405001CCD0145E8
:105120008280F1473305F502B7370020938707E8FF
:10513000AA97C82B8280EFB28FBEF1473305F502E4
:10514000B7370020938707E809473D46AA9713051C
:10515000C0023385A502D8C337370020130787E084
:10516000239A0700238B070081453304A700090514
:1051700080C3232204023A95EFB06FBDB7E7000069
:1051800083A7C7762320040205451CD46FB06FBBEC
:10519000EFB2EFB8F146B306D502B7370020138758
:1051A00007E8AA843D650146138407E8130505A6B0
:1051B0003697144323A0060213872600F9060358E6
:1051C00027001E23B305F84063D60500B307F5405A
:1051D000B385070109072E96E393E6FE3D45335557
:1051E000A602B7370020938707E693954400BE9543
:1051F000EF40E024F147B387F4020547A2979C43B0
:1052000088D3D8D36FB0EFB3F1473305F502B73782
:105210000020938707E8AA97884309058280EFB2A8
:105220000FB0F1473305F502B7370020938707E841
:105230003E95004129CC5841894701456317F70441
:105240001C50A1C73E85EF703057B7E7000083A51B
:105250004776EF70005DB7E70000AA8503A5C77623
:10526000EF70E01FB7E7000083A58776EF70605B03
:10527000EF70D04242054181EF70B0470C54EF709F
:10528000405AEF70B041420541816FB08FAB01458C
:10529000EDBFEFB22FA771443305850237340020EC
:1052A000130404E82A94832904001C480D4583A4B0
:1052B00009026387F40426852E89EF70F04FB7E763
:1052C000000083A54776EF70C055B7E70000AA85B8
:1052D00003A5C776EF70A018EF70503C9307C0038A
:1052E0003305F50242054181EF70B04083A5890284
:1052F000EF702053EF70903A2310A90004C80945BD
:105300006FB08FA3EFB20FA037340020130404E86E
:1053100081448949130A3006854A11495C40638BF0
:1053200037051C4C2685829778286302A7041C4405
:1053300085071CC41DEB18486379F7005C4068A81A
:1053400093C7F7FF858BA98F5CA8850493F4F40FAE
:105350007104E39524FDB707002093874765D84380
:105360008C23014502976FB02F9D5844F1B7232439
:105370000400E1BF5C28850793F7F70F6364FA0028
:105380005CA8E1B71C40230A0400D85363155701F9
:1053900023A207025DBF23A0070245BFEFB22F98EB
:1053A0002E86AA853755004013050540EF00107A78
:1053B0006FB02F9937350020130505EF8280856780
:1053C0003307C5009387078063C0E70AEFB2AF9247
:1053D0002A8C41113284094515C6373B0020854788
:1053E000AE89368A130B0BEF0149C14A631FF600E1
:1053F00003284B02B6872E8629478546E28513058A
:10540000000A029841016FB08F929377FC00B38736
:10541000FA40C207C183A28463F38700BE84C2043A
:10542000C180994BB38C290103284B02D2872947AD
:10543000A6866686E2851305000A029801C92AC677
:10544000FD1BEF10101B3245E3900BFE058C2699D7
:105450004204E2944209139C04014180135909015A
:10546000135C0C015DF079BF0945828085673307C5
:10547000C5009387078063C3E702EFB24F8A3737CF
:105480000020032807F1B68713074006B2862E8650
:10549000AA851305000A02986FB0AF8A0945828079
:1054A000EFB2EF874111AE8605469305F100EFF0AC
:1054B000FFFB888741016FB0CF88B70700200397B3
:1054C000C76581472A97634F070009CD0566930694
:1054D000F6FFB6876358C700AA876305D500931700
:1054E0000701C1833E858280EFB26F833165EFE0B3
:1054F0001FF56FB00F85EFB2EF80B727014093879C
:105500000740AE8901112A84328A85456311F50A64
:1055100013050020EFF0CF86EFF01FFD2285EFE0AE
:105520004F8685473EC23EC4B7070E003EC68A85F9
:1055300095472285230AF10002C002C802CC02CEA0
:10554000B964EFE06F8881479384047763943707E9
:1055500037250140854513050540EFE0AF9D8545A2
:105560002285EFE0CF8C85452285EFE04F8B2285A9
:105570008145EFE00FA02285EFE08F8C2285EFE0E0
:10558000CF8C6DFD2285EFE0CF8C2285EFE00F8D73
:105590006DFD2285EFE06F9FB7070020239EA76473
:1055A00085452285EFE0EF9C05616FA0FFF81305AC
:1055B00000408DB713891700D2979C239D46137620
:1055C000F90FA6978C232285EFE04F8BCA87BDBFCA
:1055D0005D7122DE372401402ADC2EDA13050440F7
:1055E0009305001486C696C49AC29EC032D836D699
:1055F0003AD43ED242D046CE72CC76CA7AC87EC663
:10560000EFE0CF9401CD9305001413050440EFE0C3
:10561000AF95B707002083A7076682977254B640FC
:10562000A642164386436255D2554256B256225779
:1056300092570258F248624ED24E424FB24F6161C9
:1056400073002030B737002023AEA7F08280B73731
:10565000002023ACA7F08280B737002023A0A7F258
:105660008280EFA2DFEB79712A84AE843289814592
:1056700013060002080802C402C6EFA05FED8545CC
:1056800037050002EFE0BFF193070030FC8193077C
:10569000B040FC8285473ECE3ED202CC02D002D43E
:1056A00002D6930740066308F40C63EF8700D147E6
:1056B0006308F40C930720036301F40CA947631AF1
:1056C000F40A9307802505A09307401F6301F40A9D
:1056D0009307803E6308F4009307A00F631BF40850
:1056E000A14711A08947376400400C081305044006
:1056F000FC80EFE0AFAA1305044093050040EFE003
:105700000FF0130504408545EFE06FEF13050440EB
:105710008945EFE0CFEE13050440C145EFE02FEEE1
:1057200005469305304113050440EFE0CFE29307AF
:1057300040025C84280085473EC623052101C484BD
:10574000EFE0FFC39307500228005C84EFE03FC303
:105750009307300228005C84EFE07FC29307600269
:1057600028005C84EFE0BFC145616FA09FDD9147D9
:105770009DBFC1478DBFD147BDB793078007A5B770
:105780009307C0128DB7EFA29FD9376500408145BE
:1057900013050540EFE00FD56FA0BFDAEFA23FD8A9
:1057A00037650040854513050540EFE0AFD36FA096
:1057B0005FD9EFA2DFD61C410111542113D7E700B6
:1057C00002CA098B93F7F77FA30AE10078003EC66F
:1057D00002C802CC02CE230BD1008147BA8505074F
:1057E00063CBD7003765004013050540EFE00FBBE2
:1057F00005616FA01FD53306F5005032850730A72D
:10580000F9BFEFA2DFD10111B337F00005489605CB
:10581000960616061607FC82230BA1008547680032
:10582000A30B01016C877486F081F8803ECE230CB7
:105830000100EFE02FA505616FA0BFD0EFA23FCE22
:1058400001112E84B335A0003765004070001305A8
:105850000540EFE06FC0B24703465101894693F718
:10586000F77F01476313D6002167D98F1CC0834798
:10587000610193057101231704005CA02146130503
:105880005400EF709008014505616FA09FCB5D71DA
:1058900022DE26DC37640040B70400382ADA2ED82E
:1058A00013050440938514003ED086C696C49AC260
:1058B0009EC032D636D43AD242CE46CC72CA76C8D0
:1058C0007AC67EC4EFE04FCA85476318F50093851A
:1058D000140013050440EFE08FCEB704003837649E
:1058E00000409385041013050440EFE0EFC785479F
:1058F0006318F5009385041013050440EFE02FCCE6
:1059000037640040B705013813050440EFE0CFC508
:1059100085476318F500B705013813050440EFE02B
:105920000FCAB737002083A7C7F1829737650040B9
:10593000854513050540EFE08FCC7254B640A64272
:1059400016438643E2545255C2553256A256125758
:1059500082577248E248524EC24E324FA24F6161A6
:105960007300203039713ECCB737002083A787F110
:1059700006DE16DC1ADA1ED82AD62ED432D236D05B
:105980003ACE42CA46C872C676C47AC27EC00145C3
:10599000829737650040914513050540EFE02FC61B
:1059A000F250E2525253C2533255A2551256825609
:1059B0007247E2475248C248324EA24E124F824FBF
:1059C00021617300203039713ECCB737002083A7A6
:1059D00087F106DE16DC1ADA1ED82AD62ED432D289
:1059E00036D03ACE42CA46C872C676C47AC27EC0A3
:1059F0000545829737650040930500021305054071
:105A0000EFE0EFBFF250E2525253C2533255A2556B
:105A1000125682567247E2475248C248324EA24E50
:105A2000124F824F21617300203039712AD63765B9
:105A300000402ED4130505409305004006DE16DC19
:105A40001ADA1ED832D236D03ACE3ECC42CA46C836
:105A500072C676C47AC27EC0EFE06FBAB737002054
:105A600083A707F28297F250E2525253C253325543
:105A7000A255125682567247E2475248C248324EE9
:105A8000A24E124F824F216173002030EFA23FA936
:105A90008545EFE08FC36FA0DFAAEFA25FA8814525
:105AA000EFE0AFC26FA0FFA9EFA27FA7C205C1813F
:105AB000EFE00FC46FA0FFA8EFA2DFA45D712A84FE
:105AC0002E8A0545854532C636C43AC2428BC68AFF
:105AD000C65902CE02D0EFE0DFA81247A2463246F6
:105AE000630E0A0685476314FA00C1473ED6854710
:105AF000630BF60635C68947630EF606B707024004
:105B000013868700631FC406B737002023A237F32C
:105B1000ED440549930700083EDC4C10856722855B
:105B200036D23AD4BEC402DA82C282C6EFE06FB681
:105B3000054689452285EFE08FBA4A85EFE02FBD03
:105B400085476808230E9100A30E6101230F5101C0
:105B50003ED0EFE0DF8261616FA01F9E02D641BFA1
:105B600082C002DE61BF93070040BEC093070010F1
:105B70003EDE69B7856793870780BEC09307002024
:105B8000C5BF1386C7016319C400B737002023A41B
:105B900037F3F1444149BDBF13860703631AC400BC
